{
	"sesi-1-liskgarden/contracts/06-LearnEnum.sol": {
		"LearnEnum": {
			"abi": [
				{
					"inputs": [],
					"stateMutability": "nonpayable",
					"type": "constructor"
				},
				{
					"inputs": [],
					"name": "currentStage",
					"outputs": [
						{
							"internalType": "enum LearnEnum.GrowStage",
							"name": "",
							"type": "uint8"
						}
					],
					"stateMutability": "view",
					"type": "function"
				},
				{
					"inputs": [],
					"name": "grow",
					"outputs": [],
					"stateMutability": "nonpayable",
					"type": "function"
				}
			],
			"devdoc": {
				"kind": "dev",
				"methods": {},
				"version": 1
			},
			"evm": {
				"assembly": "    /* \"sesi-1-liskgarden/contracts/06-LearnEnum.sol\":61:651  contract LearnEnum {... */\n  mstore(0x40, 0x80)\n    /* \"sesi-1-liskgarden/contracts/06-LearnEnum.sol\":224:286  constructor() {... */\n  callvalue\n  dup1\n  iszero\n  tag_1\n  jumpi\n  revert(0x00, 0x00)\ntag_1:\n  pop\n    /* \"sesi-1-liskgarden/contracts/06-LearnEnum.sol\":264:278  GrowStage.SEED */\n  0x00\n    /* \"sesi-1-liskgarden/contracts/06-LearnEnum.sol\":249:261  currentStage */\n  0x00\n  0x00\n    /* \"sesi-1-liskgarden/contracts/06-LearnEnum.sol\":249:278  currentStage = GrowStage.SEED */\n  0x0100\n  exp\n  dup2\n  sload\n  dup2\n  0xff\n  mul\n  not\n  and\n  swap1\n  dup4\n  0x03\n  dup2\n  gt\n  iszero\n  tag_4\n  jumpi\n  tag_5\n  tag_6\n  jump\t// in\ntag_5:\ntag_4:\n  mul\n  or\n  swap1\n  sstore\n  pop\n    /* \"sesi-1-liskgarden/contracts/06-LearnEnum.sol\":61:651  contract LearnEnum {... */\n  jump(tag_7)\n    /* \"#utility.yul\":7:187   */\ntag_6:\n    /* \"#utility.yul\":55:132   */\n  0x4e487b7100000000000000000000000000000000000000000000000000000000\n    /* \"#utility.yul\":52:53   */\n  0x00\n    /* \"#utility.yul\":45:133   */\n  mstore\n    /* \"#utility.yul\":152:156   */\n  0x21\n    /* \"#utility.yul\":149:150   */\n  0x04\n    /* \"#utility.yul\":142:157   */\n  mstore\n    /* \"#utility.yul\":176:180   */\n  0x24\n    /* \"#utility.yul\":173:174   */\n  0x00\n    /* \"#utility.yul\":166:181   */\n  revert\n    /* \"sesi-1-liskgarden/contracts/06-LearnEnum.sol\":61:651  contract LearnEnum {... */\ntag_7:\n  dataSize(sub_0)\n  dup1\n  dataOffset(sub_0)\n  0x00\n  codecopy\n  0x00\n  return\nstop\n\nsub_0: assembly {\n        /* \"sesi-1-liskgarden/contracts/06-LearnEnum.sol\":61:651  contract LearnEnum {... */\n      mstore(0x40, 0x80)\n      callvalue\n      dup1\n      iszero\n      tag_1\n      jumpi\n      revert(0x00, 0x00)\n    tag_1:\n      pop\n      jumpi(tag_2, lt(calldatasize, 0x04))\n      shr(0xe0, calldataload(0x00))\n      dup1\n      0x5298948e\n      eq\n      tag_3\n      jumpi\n      dup1\n      0x5bf5d54c\n      eq\n      tag_4\n      jumpi\n    tag_2:\n      revert(0x00, 0x00)\n        /* \"sesi-1-liskgarden/contracts/06-LearnEnum.sol\":294:648  function grow() public {... */\n    tag_3:\n      tag_5\n      tag_6\n      jump\t// in\n    tag_5:\n      stop\n        /* \"sesi-1-liskgarden/contracts/06-LearnEnum.sol\":186:215  GrowStage public currentStage */\n    tag_4:\n      tag_7\n      tag_8\n      jump\t// in\n    tag_7:\n      mload(0x40)\n      tag_9\n      swap2\n      swap1\n      tag_10\n      jump\t// in\n    tag_9:\n      mload(0x40)\n      dup1\n      swap2\n      sub\n      swap1\n      return\n        /* \"sesi-1-liskgarden/contracts/06-LearnEnum.sol\":294:648  function grow() public {... */\n    tag_6:\n        /* \"sesi-1-liskgarden/contracts/06-LearnEnum.sol\":347:361  GrowStage.SEED */\n      0x00\n        /* \"sesi-1-liskgarden/contracts/06-LearnEnum.sol\":331:361  currentStage == GrowStage.SEED */\n      0x03\n      dup2\n      gt\n      iszero\n      tag_12\n      jumpi\n      tag_13\n      tag_14\n      jump\t// in\n    tag_13:\n    tag_12:\n        /* \"sesi-1-liskgarden/contracts/06-LearnEnum.sol\":331:343  currentStage */\n      0x00\n      0x00\n      swap1\n      sload\n      swap1\n      0x0100\n      exp\n      swap1\n      div\n      0xff\n      and\n        /* \"sesi-1-liskgarden/contracts/06-LearnEnum.sol\":331:361  currentStage == GrowStage.SEED */\n      0x03\n      dup2\n      gt\n      iszero\n      tag_15\n      jumpi\n      tag_16\n      tag_14\n      jump\t// in\n    tag_16:\n    tag_15:\n      sub\n        /* \"sesi-1-liskgarden/contracts/06-LearnEnum.sol\":328:641  if(currentStage == GrowStage.SEED) {... */\n      tag_17\n      jumpi\n        /* \"sesi-1-liskgarden/contracts/06-LearnEnum.sol\":393:409  GrowStage.SPROUT */\n      0x01\n        /* \"sesi-1-liskgarden/contracts/06-LearnEnum.sol\":378:390  currentStage */\n      0x00\n      0x00\n        /* \"sesi-1-liskgarden/contracts/06-LearnEnum.sol\":378:409  currentStage = GrowStage.SPROUT */\n      0x0100\n      exp\n      dup2\n      sload\n      dup2\n      0xff\n      mul\n      not\n      and\n      swap1\n      dup4\n      0x03\n      dup2\n      gt\n      iszero\n      tag_18\n      jumpi\n      tag_19\n      tag_14\n      jump\t// in\n    tag_19:\n    tag_18:\n      mul\n      or\n      swap1\n      sstore\n      pop\n        /* \"sesi-1-liskgarden/contracts/06-LearnEnum.sol\":328:641  if(currentStage == GrowStage.SEED) {... */\n      jump(tag_20)\n    tag_17:\n        /* \"sesi-1-liskgarden/contracts/06-LearnEnum.sol\":457:473  GrowStage.SPROUT */\n      0x01\n        /* \"sesi-1-liskgarden/contracts/06-LearnEnum.sol\":441:473  currentStage == GrowStage.SPROUT */\n      0x03\n      dup2\n      gt\n      iszero\n      tag_21\n      jumpi\n      tag_22\n      tag_14\n      jump\t// in\n    tag_22:\n    tag_21:\n        /* \"sesi-1-liskgarden/contracts/06-LearnEnum.sol\":441:453  currentStage */\n      0x00\n      0x00\n      swap1\n      sload\n      swap1\n      0x0100\n      exp\n      swap1\n      div\n      0xff\n      and\n        /* \"sesi-1-liskgarden/contracts/06-LearnEnum.sol\":441:473  currentStage == GrowStage.SPROUT */\n      0x03\n      dup2\n      gt\n      iszero\n      tag_23\n      jumpi\n      tag_24\n      tag_14\n      jump\t// in\n    tag_24:\n    tag_23:\n      sub\n        /* \"sesi-1-liskgarden/contracts/06-LearnEnum.sol\":438:641  if(currentStage == GrowStage.SPROUT) {... */\n      tag_25\n      jumpi\n        /* \"sesi-1-liskgarden/contracts/06-LearnEnum.sol\":505:519  GrowStage.SEED */\n      0x00\n        /* \"sesi-1-liskgarden/contracts/06-LearnEnum.sol\":490:502  currentStage */\n      0x00\n      0x00\n        /* \"sesi-1-liskgarden/contracts/06-LearnEnum.sol\":490:519  currentStage = GrowStage.SEED */\n      0x0100\n      exp\n      dup2\n      sload\n      dup2\n      0xff\n      mul\n      not\n      and\n      swap1\n      dup4\n      0x03\n      dup2\n      gt\n      iszero\n      tag_26\n      jumpi\n      tag_27\n      tag_14\n      jump\t// in\n    tag_27:\n    tag_26:\n      mul\n      or\n      swap1\n      sstore\n      pop\n        /* \"sesi-1-liskgarden/contracts/06-LearnEnum.sol\":438:641  if(currentStage == GrowStage.SPROUT) {... */\n      jump(tag_28)\n    tag_25:\n        /* \"sesi-1-liskgarden/contracts/06-LearnEnum.sol\":565:579  GrowStage.SEED */\n      0x00\n        /* \"sesi-1-liskgarden/contracts/06-LearnEnum.sol\":549:579  currentStage == GrowStage.SEED */\n      0x03\n      dup2\n      gt\n      iszero\n      tag_29\n      jumpi\n      tag_30\n      tag_14\n      jump\t// in\n    tag_30:\n    tag_29:\n        /* \"sesi-1-liskgarden/contracts/06-LearnEnum.sol\":549:561  currentStage */\n      0x00\n      0x00\n      swap1\n      sload\n      swap1\n      0x0100\n      exp\n      swap1\n      div\n      0xff\n      and\n        /* \"sesi-1-liskgarden/contracts/06-LearnEnum.sol\":549:579  currentStage == GrowStage.SEED */\n      0x03\n      dup2\n      gt\n      iszero\n      tag_31\n      jumpi\n      tag_32\n      tag_14\n      jump\t// in\n    tag_32:\n    tag_31:\n      sub\n        /* \"sesi-1-liskgarden/contracts/06-LearnEnum.sol\":546:641  if(currentStage == GrowStage.SEED) {... */\n      tag_33\n      jumpi\n        /* \"sesi-1-liskgarden/contracts/06-LearnEnum.sol\":611:629  GrowStage.BLOOMING */\n      0x03\n        /* \"sesi-1-liskgarden/contracts/06-LearnEnum.sol\":596:608  currentStage */\n      0x00\n      0x00\n        /* \"sesi-1-liskgarden/contracts/06-LearnEnum.sol\":596:629  currentStage = GrowStage.BLOOMING */\n      0x0100\n      exp\n      dup2\n      sload\n      dup2\n      0xff\n      mul\n      not\n      and\n      swap1\n      dup4\n      0x03\n      dup2\n      gt\n      iszero\n      tag_34\n      jumpi\n      tag_35\n      tag_14\n      jump\t// in\n    tag_35:\n    tag_34:\n      mul\n      or\n      swap1\n      sstore\n      pop\n        /* \"sesi-1-liskgarden/contracts/06-LearnEnum.sol\":546:641  if(currentStage == GrowStage.SEED) {... */\n    tag_33:\n        /* \"sesi-1-liskgarden/contracts/06-LearnEnum.sol\":438:641  if(currentStage == GrowStage.SPROUT) {... */\n    tag_28:\n        /* \"sesi-1-liskgarden/contracts/06-LearnEnum.sol\":328:641  if(currentStage == GrowStage.SEED) {... */\n    tag_20:\n        /* \"sesi-1-liskgarden/contracts/06-LearnEnum.sol\":294:648  function grow() public {... */\n      jump\t// out\n        /* \"sesi-1-liskgarden/contracts/06-LearnEnum.sol\":186:215  GrowStage public currentStage */\n    tag_8:\n      0x00\n      0x00\n      swap1\n      sload\n      swap1\n      0x0100\n      exp\n      swap1\n      div\n      0xff\n      and\n      dup2\n      jump\t// out\n        /* \"#utility.yul\":7:187   */\n    tag_14:\n        /* \"#utility.yul\":55:132   */\n      0x4e487b7100000000000000000000000000000000000000000000000000000000\n        /* \"#utility.yul\":52:53   */\n      0x00\n        /* \"#utility.yul\":45:133   */\n      mstore\n        /* \"#utility.yul\":152:156   */\n      0x21\n        /* \"#utility.yul\":149:150   */\n      0x04\n        /* \"#utility.yul\":142:157   */\n      mstore\n        /* \"#utility.yul\":176:180   */\n      0x24\n        /* \"#utility.yul\":173:174   */\n      0x00\n        /* \"#utility.yul\":166:181   */\n      revert\n        /* \"#utility.yul\":193:309   */\n    tag_36:\n        /* \"#utility.yul\":277:278   */\n      0x04\n        /* \"#utility.yul\":270:275   */\n      dup2\n        /* \"#utility.yul\":267:279   */\n      lt\n        /* \"#utility.yul\":257:303   */\n      tag_43\n      jumpi\n        /* \"#utility.yul\":283:301   */\n      tag_44\n      tag_14\n      jump\t// in\n    tag_44:\n        /* \"#utility.yul\":257:303   */\n    tag_43:\n        /* \"#utility.yul\":193:309   */\n      pop\n      jump\t// out\n        /* \"#utility.yul\":315:448   */\n    tag_37:\n        /* \"#utility.yul\":363:370   */\n      0x00\n        /* \"#utility.yul\":392:397   */\n      dup2\n        /* \"#utility.yul\":381:397   */\n      swap1\n      pop\n        /* \"#utility.yul\":398:442   */\n      tag_46\n        /* \"#utility.yul\":436:441   */\n      dup3\n        /* \"#utility.yul\":398:442   */\n      tag_36\n      jump\t// in\n    tag_46:\n        /* \"#utility.yul\":315:448   */\n      swap2\n      swap1\n      pop\n      jump\t// out\n        /* \"#utility.yul\":454:587   */\n    tag_38:\n        /* \"#utility.yul\":513:522   */\n      0x00\n        /* \"#utility.yul\":546:581   */\n      tag_48\n        /* \"#utility.yul\":575:580   */\n      dup3\n        /* \"#utility.yul\":546:581   */\n      tag_37\n      jump\t// in\n    tag_48:\n        /* \"#utility.yul\":533:581   */\n      swap1\n      pop\n        /* \"#utility.yul\":454:587   */\n      swap2\n      swap1\n      pop\n      jump\t// out\n        /* \"#utility.yul\":593:742   */\n    tag_39:\n        /* \"#utility.yul\":689:735   */\n      tag_50\n        /* \"#utility.yul\":729:734   */\n      dup2\n        /* \"#utility.yul\":689:735   */\n      tag_38\n      jump\t// in\n    tag_50:\n        /* \"#utility.yul\":684:687   */\n      dup3\n        /* \"#utility.yul\":677:736   */\n      mstore\n        /* \"#utility.yul\":593:742   */\n      pop\n      pop\n      jump\t// out\n        /* \"#utility.yul\":748:988   */\n    tag_10:\n        /* \"#utility.yul\":850:854   */\n      0x00\n        /* \"#utility.yul\":888:890   */\n      0x20\n        /* \"#utility.yul\":877:886   */\n      dup3\n        /* \"#utility.yul\":873:891   */\n      add\n        /* \"#utility.yul\":865:891   */\n      swap1\n      pop\n        /* \"#utility.yul\":901:981   */\n      tag_52\n        /* \"#utility.yul\":978:979   */\n      0x00\n        /* \"#utility.yul\":967:976   */\n      dup4\n        /* \"#utility.yul\":963:980   */\n      add\n        /* \"#utility.yul\":954:960   */\n      dup5\n        /* \"#utility.yul\":901:981   */\n      tag_39\n      jump\t// in\n    tag_52:\n        /* \"#utility.yul\":748:988   */\n      swap3\n      swap2\n      pop\n      pop\n      jump\t// out\n\n    auxdata: 0xa2646970667358221220357552258bc12641c470aedb491519b53bc50c99a97d639d70082b485fa7a49664736f6c634300081e0033\n}\n",
				"bytecode": {
					"linkReferences": {},
					"object": "6080604052348015600e575f5ffd5b505f5f5f6101000a81548160ff02191690836003811115602f57602e6038565b5b02179055506065565b7f4e487b71000000000000000000000000000000000000000000000000000000005f52602160045260245ffd5b610265806100725f395ff3fe608060405234801561000f575f5ffd5b5060043610610034575f3560e01c80635298948e146100385780635bf5d54c14610042575b5f5ffd5b610040610060565b005b61004a610192565b6040516100579190610216565b60405180910390f35b5f6003811115610073576100726101a3565b5b5f5f9054906101000a900460ff166003811115610093576100926101a3565b5b036100c65760015f5f6101000a81548160ff021916908360038111156100bc576100bb6101a3565b5b0217905550610190565b600160038111156100da576100d96101a3565b5b5f5f9054906101000a900460ff1660038111156100fa576100f96101a3565b5b0361012c575f5f5f6101000a81548160ff02191690836003811115610122576101216101a3565b5b021790555061018f565b5f600381111561013f5761013e6101a3565b5b5f5f9054906101000a900460ff16600381111561015f5761015e6101a3565b5b0361018e5760035f5f6101000a81548160ff02191690836003811115610188576101876101a3565b5b02179055505b5b5b565b5f5f9054906101000a900460ff1681565b7f4e487b71000000000000000000000000000000000000000000000000000000005f52602160045260245ffd5b600481106101e1576101e06101a3565b5b50565b5f8190506101f1826101d0565b919050565b5f610200826101e4565b9050919050565b610210816101f6565b82525050565b5f6020820190506102295f830184610207565b9291505056fea2646970667358221220357552258bc12641c470aedb491519b53bc50c99a97d639d70082b485fa7a49664736f6c634300081e0033",
					"opcodes": "PUSH1 0x80 PUSH1 0x40 MSTORE CALLVALUE DUP1 ISZERO PUSH1 0xE JUMPI PUSH0 PUSH0 REVERT JUMPDEST POP PUSH0 PUSH0 PUSH0 PUSH2 0x100 EXP DUP2 SLOAD DUP2 PUSH1 0xFF MUL NOT AND SWAP1 DUP4 PUSH1 0x3 DUP2 GT ISZERO PUSH1 0x2F JUMPI PUSH1 0x2E PUSH1 0x38 JUMP JUMPDEST JUMPDEST MUL OR SWAP1 SSTORE POP PUSH1 0x65 JUMP JUMPDEST PUSH32 0x4E487B7100000000000000000000000000000000000000000000000000000000 PUSH0 MSTORE PUSH1 0x21 PUSH1 0x4 MSTORE PUSH1 0x24 PUSH0 REVERT JUMPDEST PUSH2 0x265 DUP1 PUSH2 0x72 PUSH0 CODECOPY PUSH0 RETURN INVALID PUSH1 0x80 PUSH1 0x40 MSTORE CALLVALUE DUP1 ISZERO PUSH2 0xF JUMPI PUSH0 PUSH0 REVERT JUMPDEST POP PUSH1 0x4 CALLDATASIZE LT PUSH2 0x34 JUMPI PUSH0 CALLDATALOAD PUSH1 0xE0 SHR DUP1 PUSH4 0x5298948E EQ PUSH2 0x38 JUMPI DUP1 PUSH4 0x5BF5D54C EQ PUSH2 0x42 JUMPI JUMPDEST PUSH0 PUSH0 REVERT JUMPDEST PUSH2 0x40 PUSH2 0x60 JUMP JUMPDEST STOP JUMPDEST PUSH2 0x4A PUSH2 0x192 JUMP JUMPDEST PUSH1 0x40 MLOAD PUSH2 0x57 SWAP2 SWAP1 PUSH2 0x216 JUMP JUMPDEST PUSH1 0x40 MLOAD DUP1 SWAP2 SUB SWAP1 RETURN JUMPDEST PUSH0 PUSH1 0x3 DUP2 GT ISZERO PUSH2 0x73 JUMPI PUSH2 0x72 PUSH2 0x1A3 JUMP JUMPDEST JUMPDEST PUSH0 PUSH0 SWAP1 SLOAD SWAP1 PUSH2 0x100 EXP SWAP1 DIV PUSH1 0xFF AND PUSH1 0x3 DUP2 GT ISZERO PUSH2 0x93 JUMPI PUSH2 0x92 PUSH2 0x1A3 JUMP JUMPDEST JUMPDEST SUB PUSH2 0xC6 JUMPI PUSH1 0x1 PUSH0 PUSH0 PUSH2 0x100 EXP DUP2 SLOAD DUP2 PUSH1 0xFF MUL NOT AND SWAP1 DUP4 PUSH1 0x3 DUP2 GT ISZERO PUSH2 0xBC JUMPI PUSH2 0xBB PUSH2 0x1A3 JUMP JUMPDEST JUMPDEST MUL OR SWAP1 SSTORE POP PUSH2 0x190 JUMP JUMPDEST PUSH1 0x1 PUSH1 0x3 DUP2 GT ISZERO PUSH2 0xDA JUMPI PUSH2 0xD9 PUSH2 0x1A3 JUMP JUMPDEST JUMPDEST PUSH0 PUSH0 SWAP1 SLOAD SWAP1 PUSH2 0x100 EXP SWAP1 DIV PUSH1 0xFF AND PUSH1 0x3 DUP2 GT ISZERO PUSH2 0xFA JUMPI PUSH2 0xF9 PUSH2 0x1A3 JUMP JUMPDEST JUMPDEST SUB PUSH2 0x12C JUMPI PUSH0 PUSH0 PUSH0 PUSH2 0x100 EXP DUP2 SLOAD DUP2 PUSH1 0xFF MUL NOT AND SWAP1 DUP4 PUSH1 0x3 DUP2 GT ISZERO PUSH2 0x122 JUMPI PUSH2 0x121 PUSH2 0x1A3 JUMP JUMPDEST JUMPDEST MUL OR SWAP1 SSTORE POP PUSH2 0x18F JUMP JUMPDEST PUSH0 PUSH1 0x3 DUP2 GT ISZERO PUSH2 0x13F JUMPI PUSH2 0x13E PUSH2 0x1A3 JUMP JUMPDEST JUMPDEST PUSH0 PUSH0 SWAP1 SLOAD SWAP1 PUSH2 0x100 EXP SWAP1 DIV PUSH1 0xFF AND PUSH1 0x3 DUP2 GT ISZERO PUSH2 0x15F JUMPI PUSH2 0x15E PUSH2 0x1A3 JUMP JUMPDEST JUMPDEST SUB PUSH2 0x18E JUMPI PUSH1 0x3 PUSH0 PUSH0 PUSH2 0x100 EXP DUP2 SLOAD DUP2 PUSH1 0xFF MUL NOT AND SWAP1 DUP4 PUSH1 0x3 DUP2 GT ISZERO PUSH2 0x188 JUMPI PUSH2 0x187 PUSH2 0x1A3 JUMP JUMPDEST JUMPDEST MUL OR SWAP1 SSTORE POP JUMPDEST JUMPDEST JUMPDEST JUMP JUMPDEST PUSH0 PUSH0 SWAP1 SLOAD SWAP1 PUSH2 0x100 EXP SWAP1 DIV PUSH1 0xFF AND DUP2 JUMP JUMPDEST PUSH32 0x4E487B7100000000000000000000000000000000000000000000000000000000 PUSH0 MSTORE PUSH1 0x21 PUSH1 0x4 MSTORE PUSH1 0x24 PUSH0 REVERT JUMPDEST PUSH1 0x4 DUP2 LT PUSH2 0x1E1 JUMPI PUSH2 0x1E0 PUSH2 0x1A3 JUMP JUMPDEST JUMPDEST POP JUMP JUMPDEST PUSH0 DUP2 SWAP1 POP PUSH2 0x1F1 DUP3 PUSH2 0x1D0 JUMP JUMPDEST SWAP2 SWAP1 POP JUMP JUMPDEST PUSH0 PUSH2 0x200 DUP3 PUSH2 0x1E4 JUMP JUMPDEST SWAP1 POP SWAP2 SWAP1 POP JUMP JUMPDEST PUSH2 0x210 DUP2 PUSH2 0x1F6 JUMP JUMPDEST DUP3 MSTORE POP POP JUMP JUMPDEST PUSH0 PUSH1 0x20 DUP3 ADD SWAP1 POP PUSH2 0x229 PUSH0 DUP4 ADD DUP5 PUSH2 0x207 JUMP JUMPDEST SWAP3 SWAP2 POP POP JUMP INVALID LOG2 PUSH5 0x6970667358 0x22 SLT KECCAK256 CALLDATALOAD PUSH22 0x52258BC12641C470AEDB491519B53BC50C99A97D639D PUSH17 0x82B485FA7A49664736F6C634300081E00 CALLER "
				},
				"gasEstimates": {
					"creation": {
						"codeDepositCost": "122600",
						"executionCost": "24465",
						"totalCost": "147065"
					},
					"external": {
						"currentStage()": "2553",
						"grow()": "31033"
					}
				},
				"methodIdentifiers": {
					"currentStage()": "5bf5d54c",
					"grow()": "5298948e"
				}
			},
			"storageLayout": {
				"storage": [
					{
						"astId": 9,
						"contract": "sesi-1-liskgarden/contracts/06-LearnEnum.sol:LearnEnum",
						"label": "currentStage",
						"offset": 0,
						"slot": "0",
						"type": "t_enum(GrowStage)6"
					}
				],
				"types": {
					"t_enum(GrowStage)6": {
						"encoding": "inplace",
						"label": "enum LearnEnum.GrowStage",
						"numberOfBytes": "1"
					}
				}
			},
			"userdoc": {
				"kind": "user",
				"methods": {},
				"version": 1
			}
		}
	}
}