{
	"sesi-1-liskgarden/contracts/20-LiskGarden.sol": {
		"LiskGarden": {
			"abi": [
				{
					"inputs": [],
					"stateMutability": "nonpayable",
					"type": "constructor"
				},
				{
					"anonymous": false,
					"inputs": [
						{
							"indexed": true,
							"internalType": "uint256",
							"name": "plantId",
							"type": "uint256"
						}
					],
					"name": "PlantDied",
					"type": "event"
				},
				{
					"anonymous": false,
					"inputs": [
						{
							"indexed": true,
							"internalType": "uint256",
							"name": "plantId",
							"type": "uint256"
						},
						{
							"indexed": true,
							"internalType": "address",
							"name": "owner",
							"type": "address"
						},
						{
							"indexed": false,
							"internalType": "uint256",
							"name": "reward",
							"type": "uint256"
						}
					],
					"name": "PlantHarvested",
					"type": "event"
				},
				{
					"anonymous": false,
					"inputs": [
						{
							"indexed": true,
							"internalType": "address",
							"name": "owner",
							"type": "address"
						},
						{
							"indexed": true,
							"internalType": "uint256",
							"name": "plantId",
							"type": "uint256"
						}
					],
					"name": "PlantSeeded",
					"type": "event"
				},
				{
					"anonymous": false,
					"inputs": [
						{
							"indexed": true,
							"internalType": "uint256",
							"name": "plantId",
							"type": "uint256"
						},
						{
							"indexed": false,
							"internalType": "uint8",
							"name": "newWaterLevel",
							"type": "uint8"
						}
					],
					"name": "PlantWatered",
					"type": "event"
				},
				{
					"anonymous": false,
					"inputs": [
						{
							"indexed": true,
							"internalType": "uint256",
							"name": "plantId",
							"type": "uint256"
						},
						{
							"indexed": false,
							"internalType": "enum LiskGarden.GrowthStage",
							"name": "stage",
							"type": "uint8"
						}
					],
					"name": "StageAdvanced",
					"type": "event"
				},
				{
					"inputs": [],
					"name": "PLANT_PRICE",
					"outputs": [
						{
							"internalType": "uint256",
							"name": "",
							"type": "uint256"
						}
					],
					"stateMutability": "view",
					"type": "function"
				},
				{
					"inputs": [],
					"name": "REWARD_HARVEST",
					"outputs": [
						{
							"internalType": "uint256",
							"name": "",
							"type": "uint256"
						}
					],
					"stateMutability": "view",
					"type": "function"
				},
				{
					"inputs": [],
					"name": "STAGE_DURATION",
					"outputs": [
						{
							"internalType": "uint256",
							"name": "",
							"type": "uint256"
						}
					],
					"stateMutability": "view",
					"type": "function"
				},
				{
					"inputs": [],
					"name": "WATER_DEPLETION_RATE",
					"outputs": [
						{
							"internalType": "uint8",
							"name": "",
							"type": "uint8"
						}
					],
					"stateMutability": "view",
					"type": "function"
				},
				{
					"inputs": [],
					"name": "WATER_DEPLETION_TIME",
					"outputs": [
						{
							"internalType": "uint256",
							"name": "",
							"type": "uint256"
						}
					],
					"stateMutability": "view",
					"type": "function"
				},
				{
					"inputs": [
						{
							"internalType": "uint256",
							"name": "_plantId",
							"type": "uint256"
						}
					],
					"name": "calculateWaterLevel",
					"outputs": [
						{
							"internalType": "uint8",
							"name": "",
							"type": "uint8"
						}
					],
					"stateMutability": "view",
					"type": "function"
				},
				{
					"inputs": [
						{
							"internalType": "uint256",
							"name": "_plantId",
							"type": "uint256"
						}
					],
					"name": "getPlant",
					"outputs": [
						{
							"components": [
								{
									"internalType": "uint256",
									"name": "id",
									"type": "uint256"
								},
								{
									"internalType": "address",
									"name": "owner",
									"type": "address"
								},
								{
									"internalType": "enum LiskGarden.GrowthStage",
									"name": "stage",
									"type": "uint8"
								},
								{
									"internalType": "uint256",
									"name": "plantedDate",
									"type": "uint256"
								},
								{
									"internalType": "uint256",
									"name": "lastWatered",
									"type": "uint256"
								},
								{
									"internalType": "uint8",
									"name": "waterLevel",
									"type": "uint8"
								},
								{
									"internalType": "bool",
									"name": "exists",
									"type": "bool"
								},
								{
									"internalType": "bool",
									"name": "isDead",
									"type": "bool"
								}
							],
							"internalType": "struct LiskGarden.Plant",
							"name": "",
							"type": "tuple"
						}
					],
					"stateMutability": "view",
					"type": "function"
				},
				{
					"inputs": [
						{
							"internalType": "address",
							"name": "user",
							"type": "address"
						}
					],
					"name": "getUserPlants",
					"outputs": [
						{
							"internalType": "uint256[]",
							"name": "",
							"type": "uint256[]"
						}
					],
					"stateMutability": "view",
					"type": "function"
				},
				{
					"inputs": [
						{
							"internalType": "uint256",
							"name": "plantId",
							"type": "uint256"
						}
					],
					"name": "harvestPlant",
					"outputs": [],
					"stateMutability": "nonpayable",
					"type": "function"
				},
				{
					"inputs": [],
					"name": "owner",
					"outputs": [
						{
							"internalType": "address",
							"name": "",
							"type": "address"
						}
					],
					"stateMutability": "view",
					"type": "function"
				},
				{
					"inputs": [],
					"name": "plantCounter",
					"outputs": [
						{
							"internalType": "uint256",
							"name": "",
							"type": "uint256"
						}
					],
					"stateMutability": "view",
					"type": "function"
				},
				{
					"inputs": [],
					"name": "plantSeed",
					"outputs": [
						{
							"internalType": "uint256",
							"name": "",
							"type": "uint256"
						}
					],
					"stateMutability": "payable",
					"type": "function"
				},
				{
					"inputs": [
						{
							"internalType": "uint256",
							"name": "",
							"type": "uint256"
						}
					],
					"name": "plants",
					"outputs": [
						{
							"internalType": "uint256",
							"name": "id",
							"type": "uint256"
						},
						{
							"internalType": "address",
							"name": "owner",
							"type": "address"
						},
						{
							"internalType": "enum LiskGarden.GrowthStage",
							"name": "stage",
							"type": "uint8"
						},
						{
							"internalType": "uint256",
							"name": "plantedDate",
							"type": "uint256"
						},
						{
							"internalType": "uint256",
							"name": "lastWatered",
							"type": "uint256"
						},
						{
							"internalType": "uint8",
							"name": "waterLevel",
							"type": "uint8"
						},
						{
							"internalType": "bool",
							"name": "exists",
							"type": "bool"
						},
						{
							"internalType": "bool",
							"name": "isDead",
							"type": "bool"
						}
					],
					"stateMutability": "view",
					"type": "function"
				},
				{
					"inputs": [
						{
							"internalType": "uint256",
							"name": "_plantId",
							"type": "uint256"
						}
					],
					"name": "updatePlantStage",
					"outputs": [],
					"stateMutability": "nonpayable",
					"type": "function"
				},
				{
					"inputs": [
						{
							"internalType": "address",
							"name": "",
							"type": "address"
						},
						{
							"internalType": "uint256",
							"name": "",
							"type": "uint256"
						}
					],
					"name": "userPlants",
					"outputs": [
						{
							"internalType": "uint256",
							"name": "",
							"type": "uint256"
						}
					],
					"stateMutability": "view",
					"type": "function"
				},
				{
					"inputs": [
						{
							"internalType": "uint256",
							"name": "_plantId",
							"type": "uint256"
						}
					],
					"name": "waterPlant",
					"outputs": [],
					"stateMutability": "nonpayable",
					"type": "function"
				},
				{
					"inputs": [],
					"name": "withdraw",
					"outputs": [],
					"stateMutability": "nonpayable",
					"type": "function"
				},
				{
					"stateMutability": "payable",
					"type": "receive"
				}
			],
			"devdoc": {
				"kind": "dev",
				"methods": {},
				"version": 1
			},
			"evm": {
				"assembly": "    /* \"sesi-1-liskgarden/contracts/20-LiskGarden.sol\":61:5437  contract LiskGarden {... */\n  mstore(0x40, 0x80)\n    /* \"sesi-1-liskgarden/contracts/20-LiskGarden.sol\":1198:1249  constructor() {... */\n  callvalue\n  dup1\n  iszero\n  tag_1\n  jumpi\n  revert(0x00, 0x00)\ntag_1:\n  pop\n    /* \"sesi-1-liskgarden/contracts/20-LiskGarden.sol\":1231:1241  msg.sender */\n  caller\n    /* \"sesi-1-liskgarden/contracts/20-LiskGarden.sol\":1223:1228  owner */\n  0x03\n  0x00\n    /* \"sesi-1-liskgarden/contracts/20-LiskGarden.sol\":1223:1241  owner = msg.sender */\n  0x0100\n  exp\n  dup2\n  sload\n  dup2\n  0xffffffffffffffffffffffffffffffffffffffff\n  mul\n  not\n  and\n  swap1\n  dup4\n  0xffffffffffffffffffffffffffffffffffffffff\n  and\n  mul\n  or\n  swap1\n  sstore\n  pop\n    /* \"sesi-1-liskgarden/contracts/20-LiskGarden.sol\":61:5437  contract LiskGarden {... */\n  dataSize(sub_0)\n  dup1\n  dataOffset(sub_0)\n  0x00\n  codecopy\n  0x00\n  return\nstop\n\nsub_0: assembly {\n        /* \"sesi-1-liskgarden/contracts/20-LiskGarden.sol\":61:5437  contract LiskGarden {... */\n      mstore(0x40, 0x80)\n      jumpi(tag_1, lt(calldatasize, 0x04))\n      shr(0xe0, calldataload(0x00))\n      dup1\n      0x8dd2361c\n      gt\n      tag_20\n      jumpi\n      dup1\n      0xcbf64268\n      gt\n      tag_21\n      jumpi\n      dup1\n      0xcbf64268\n      eq\n      tag_15\n      jumpi\n      dup1\n      0xcfc9a5f8\n      eq\n      tag_16\n      jumpi\n      dup1\n      0xddd42596\n      eq\n      tag_17\n      jumpi\n      dup1\n      0xe38f8448\n      eq\n      tag_18\n      jumpi\n      dup1\n      0xed0b1f5f\n      eq\n      tag_19\n      jumpi\n      jump(tag_2)\n    tag_21:\n      dup1\n      0x8dd2361c\n      eq\n      tag_11\n      jumpi\n      dup1\n      0x9886bcfa\n      eq\n      tag_12\n      jumpi\n      dup1\n      0x9c471749\n      eq\n      tag_13\n      jumpi\n      dup1\n      0xbacb5ebd\n      eq\n      tag_14\n      jumpi\n      jump(tag_2)\n    tag_20:\n      dup1\n      0x754e150d\n      gt\n      tag_22\n      jumpi\n      dup1\n      0x754e150d\n      eq\n      tag_7\n      jumpi\n      dup1\n      0x7ed4c5be\n      eq\n      tag_8\n      jumpi\n      dup1\n      0x8aee578b\n      eq\n      tag_9\n      jumpi\n      dup1\n      0x8da5cb5b\n      eq\n      tag_10\n      jumpi\n      jump(tag_2)\n    tag_22:\n      dup1\n      0x30cec0eb\n      eq\n      tag_3\n      jumpi\n      dup1\n      0x3ccfd60b\n      eq\n      tag_4\n      jumpi\n      dup1\n      0x51f9efde\n      eq\n      tag_5\n      jumpi\n      dup1\n      0x74119a38\n      eq\n      tag_6\n      jumpi\n      jump(tag_2)\n    tag_1:\n      jumpi(tag_2, calldatasize)\n      stop\n    tag_2:\n      revert(0x00, 0x00)\n        /* \"sesi-1-liskgarden/contracts/20-LiskGarden.sol\":5046:5166  function getUserPlants(address user) external view returns (uint256[] memory) {... */\n    tag_3:\n      callvalue\n      dup1\n      iszero\n      tag_25\n      jumpi\n      revert(0x00, 0x00)\n    tag_25:\n      pop\n      tag_26\n      0x04\n      dup1\n      calldatasize\n      sub\n      dup2\n      add\n      swap1\n      tag_27\n      swap2\n      swap1\n      tag_28\n      jump\t// in\n    tag_27:\n      tag_29\n      jump\t// in\n    tag_26:\n      mload(0x40)\n      tag_30\n      swap2\n      swap1\n      tag_31\n      jump\t// in\n    tag_30:\n      mload(0x40)\n      dup1\n      swap2\n      sub\n      swap1\n      return\n        /* \"sesi-1-liskgarden/contracts/20-LiskGarden.sol\":5174:5397  function withdraw() external {... */\n    tag_4:\n      callvalue\n      dup1\n      iszero\n      tag_32\n      jumpi\n      revert(0x00, 0x00)\n    tag_32:\n      pop\n      tag_33\n      tag_34\n      jump\t// in\n    tag_33:\n      stop\n        /* \"sesi-1-liskgarden/contracts/20-LiskGarden.sol\":667:717  uint256 public constant STAGE_DURATION = 1 minutes */\n    tag_5:\n      callvalue\n      dup1\n      iszero\n      tag_35\n      jumpi\n      revert(0x00, 0x00)\n    tag_35:\n      pop\n      tag_36\n      tag_37\n      jump\t// in\n    tag_36:\n      mload(0x40)\n      tag_38\n      swap2\n      swap1\n      tag_39\n      jump\t// in\n    tag_38:\n      mload(0x40)\n      dup1\n      swap2\n      sub\n      swap1\n      return\n        /* \"sesi-1-liskgarden/contracts/20-LiskGarden.sol\":1257:1946  function plantSeed() external payable returns (uint256) {... */\n    tag_6:\n      tag_40\n      tag_41\n      jump\t// in\n    tag_40:\n      mload(0x40)\n      tag_42\n      swap2\n      swap1\n      tag_39\n      jump\t// in\n    tag_42:\n      mload(0x40)\n      dup1\n      swap2\n      sub\n      swap1\n      return\n        /* \"sesi-1-liskgarden/contracts/20-LiskGarden.sol\":1954:2481  function calculateWaterLevel(uint256 _plantId) public view returns (uint8) {... */\n    tag_7:\n      callvalue\n      dup1\n      iszero\n      tag_43\n      jumpi\n      revert(0x00, 0x00)\n    tag_43:\n      pop\n      tag_44\n      0x04\n      dup1\n      calldatasize\n      sub\n      dup2\n      add\n      swap1\n      tag_45\n      swap2\n      swap1\n      tag_46\n      jump\t// in\n    tag_45:\n      tag_47\n      jump\t// in\n    tag_44:\n      mload(0x40)\n      tag_48\n      swap2\n      swap1\n      tag_49\n      jump\t// in\n    tag_48:\n      mload(0x40)\n      dup1\n      swap2\n      sub\n      swap1\n      return\n        /* \"sesi-1-liskgarden/contracts/20-LiskGarden.sol\":724:781  uint256 public constant WATER_DEPLETION_TIME = 30 seconds */\n    tag_8:\n      callvalue\n      dup1\n      iszero\n      tag_50\n      jumpi\n      revert(0x00, 0x00)\n    tag_50:\n      pop\n      tag_51\n      tag_52\n      jump\t// in\n    tag_51:\n      mload(0x40)\n      tag_53\n      swap2\n      swap1\n      tag_39\n      jump\t// in\n    tag_53:\n      mload(0x40)\n      dup1\n      swap2\n      sub\n      swap1\n      return\n        /* \"sesi-1-liskgarden/contracts/20-LiskGarden.sol\":431:478  mapping(address => uint256[]) public userPlants */\n    tag_9:\n      callvalue\n      dup1\n      iszero\n      tag_54\n      jumpi\n      revert(0x00, 0x00)\n    tag_54:\n      pop\n      tag_55\n      0x04\n      dup1\n      calldatasize\n      sub\n      dup2\n      add\n      swap1\n      tag_56\n      swap2\n      swap1\n      tag_57\n      jump\t// in\n    tag_56:\n      tag_58\n      jump\t// in\n    tag_55:\n      mload(0x40)\n      tag_59\n      swap2\n      swap1\n      tag_39\n      jump\t// in\n    tag_59:\n      mload(0x40)\n      dup1\n      swap2\n      sub\n      swap1\n      return\n        /* \"sesi-1-liskgarden/contracts/20-LiskGarden.sol\":523:543  address public owner */\n    tag_10:\n      callvalue\n      dup1\n      iszero\n      tag_60\n      jumpi\n      revert(0x00, 0x00)\n    tag_60:\n      pop\n      tag_61\n      tag_62\n      jump\t// in\n    tag_61:\n      mload(0x40)\n      tag_63\n      swap2\n      swap1\n      tag_64\n      jump\t// in\n    tag_63:\n      mload(0x40)\n      dup1\n      swap2\n      sub\n      swap1\n      return\n        /* \"sesi-1-liskgarden/contracts/20-LiskGarden.sol\":383:422  mapping(uint256 => Plant) public plants */\n    tag_11:\n      callvalue\n      dup1\n      iszero\n      tag_65\n      jumpi\n      revert(0x00, 0x00)\n    tag_65:\n      pop\n      tag_66\n      0x04\n      dup1\n      calldatasize\n      sub\n      dup2\n      add\n      swap1\n      tag_67\n      swap2\n      swap1\n      tag_46\n      jump\t// in\n    tag_67:\n      tag_68\n      jump\t// in\n    tag_66:\n      mload(0x40)\n      tag_69\n      swap9\n      swap8\n      swap7\n      swap6\n      swap5\n      swap4\n      swap3\n      swap2\n      swap1\n      tag_70\n      jump\t// in\n    tag_69:\n      mload(0x40)\n      dup1\n      swap2\n      sub\n      swap1\n      return\n        /* \"sesi-1-liskgarden/contracts/20-LiskGarden.sol\":2851:3301  function waterPlant(uint256 _plantId) external {... */\n    tag_12:\n      callvalue\n      dup1\n      iszero\n      tag_71\n      jumpi\n      revert(0x00, 0x00)\n    tag_71:\n      pop\n      tag_72\n      0x04\n      dup1\n      calldatasize\n      sub\n      dup2\n      add\n      swap1\n      tag_73\n      swap2\n      swap1\n      tag_46\n      jump\t// in\n    tag_73:\n      tag_74\n      jump\t// in\n    tag_72:\n      stop\n        /* \"sesi-1-liskgarden/contracts/20-LiskGarden.sol\":487:514  uint256 public plantCounter */\n    tag_13:\n      callvalue\n      dup1\n      iszero\n      tag_75\n      jumpi\n      revert(0x00, 0x00)\n    tag_75:\n      pop\n      tag_76\n      tag_77\n      jump\t// in\n    tag_76:\n      mload(0x40)\n      tag_78\n      swap2\n      swap1\n      tag_39\n      jump\t// in\n    tag_78:\n      mload(0x40)\n      dup1\n      swap2\n      sub\n      swap1\n      return\n        /* \"sesi-1-liskgarden/contracts/20-LiskGarden.sol\":788:834  uint8 public constant WATER_DEPLETION_RATE = 2 */\n    tag_14:\n      callvalue\n      dup1\n      iszero\n      tag_79\n      jumpi\n      revert(0x00, 0x00)\n    tag_79:\n      pop\n      tag_80\n      tag_81\n      jump\t// in\n    tag_80:\n      mload(0x40)\n      tag_82\n      swap2\n      swap1\n      tag_49\n      jump\t// in\n    tag_82:\n      mload(0x40)\n      dup1\n      swap2\n      sub\n      swap1\n      return\n        /* \"sesi-1-liskgarden/contracts/20-LiskGarden.sol\":608:660  uint256 public constant REWARD_HARVEST = 0.003 ether */\n    tag_15:\n      callvalue\n      dup1\n      iszero\n      tag_83\n      jumpi\n      revert(0x00, 0x00)\n    tag_83:\n      pop\n      tag_84\n      tag_85\n      jump\t// in\n    tag_84:\n      mload(0x40)\n      tag_86\n      swap2\n      swap1\n      tag_39\n      jump\t// in\n    tag_86:\n      mload(0x40)\n      dup1\n      swap2\n      sub\n      swap1\n      return\n        /* \"sesi-1-liskgarden/contracts/20-LiskGarden.sol\":552:601  uint256 public constant PLANT_PRICE = 0.001 ether */\n    tag_16:\n      callvalue\n      dup1\n      iszero\n      tag_87\n      jumpi\n      revert(0x00, 0x00)\n    tag_87:\n      pop\n      tag_88\n      tag_89\n      jump\t// in\n    tag_88:\n      mload(0x40)\n      tag_90\n      swap2\n      swap1\n      tag_39\n      jump\t// in\n    tag_90:\n      mload(0x40)\n      dup1\n      swap2\n      sub\n      swap1\n      return\n        /* \"sesi-1-liskgarden/contracts/20-LiskGarden.sol\":3309:4167  function updatePlantStage(uint256 _plantId) public  {... */\n    tag_17:\n      callvalue\n      dup1\n      iszero\n      tag_91\n      jumpi\n      revert(0x00, 0x00)\n    tag_91:\n      pop\n      tag_92\n      0x04\n      dup1\n      calldatasize\n      sub\n      dup2\n      add\n      swap1\n      tag_93\n      swap2\n      swap1\n      tag_46\n      jump\t// in\n    tag_93:\n      tag_94\n      jump\t// in\n    tag_92:\n      stop\n        /* \"sesi-1-liskgarden/contracts/20-LiskGarden.sol\":4176:4809  function harvestPlant(uint256 plantId) external {... */\n    tag_18:\n      callvalue\n      dup1\n      iszero\n      tag_95\n      jumpi\n      revert(0x00, 0x00)\n    tag_95:\n      pop\n      tag_96\n      0x04\n      dup1\n      calldatasize\n      sub\n      dup2\n      add\n      swap1\n      tag_97\n      swap2\n      swap1\n      tag_46\n      jump\t// in\n    tag_97:\n      tag_98\n      jump\t// in\n    tag_96:\n      stop\n        /* \"sesi-1-liskgarden/contracts/20-LiskGarden.sol\":4817:5038  function getPlant(uint256 _plantId) external view returns (Plant memory) {... */\n    tag_19:\n      callvalue\n      dup1\n      iszero\n      tag_99\n      jumpi\n      revert(0x00, 0x00)\n    tag_99:\n      pop\n      tag_100\n      0x04\n      dup1\n      calldatasize\n      sub\n      dup2\n      add\n      swap1\n      tag_101\n      swap2\n      swap1\n      tag_46\n      jump\t// in\n    tag_101:\n      tag_102\n      jump\t// in\n    tag_100:\n      mload(0x40)\n      tag_103\n      swap2\n      swap1\n      tag_104\n      jump\t// in\n    tag_103:\n      mload(0x40)\n      dup1\n      swap2\n      sub\n      swap1\n      return\n        /* \"sesi-1-liskgarden/contracts/20-LiskGarden.sol\":5046:5166  function getUserPlants(address user) external view returns (uint256[] memory) {... */\n    tag_29:\n        /* \"sesi-1-liskgarden/contracts/20-LiskGarden.sol\":5106:5122  uint256[] memory */\n      0x60\n        /* \"sesi-1-liskgarden/contracts/20-LiskGarden.sol\":5142:5152  userPlants */\n      0x01\n        /* \"sesi-1-liskgarden/contracts/20-LiskGarden.sol\":5142:5158  userPlants[user] */\n      0x00\n        /* \"sesi-1-liskgarden/contracts/20-LiskGarden.sol\":5153:5157  user */\n      dup4\n        /* \"sesi-1-liskgarden/contracts/20-LiskGarden.sol\":5142:5158  userPlants[user] */\n      0xffffffffffffffffffffffffffffffffffffffff\n      and\n      0xffffffffffffffffffffffffffffffffffffffff\n      and\n      dup2\n      mstore\n      0x20\n      add\n      swap1\n      dup2\n      mstore\n      0x20\n      add\n      0x00\n      keccak256\n        /* \"sesi-1-liskgarden/contracts/20-LiskGarden.sol\":5135:5158  return userPlants[user] */\n      dup1\n      sload\n      dup1\n      0x20\n      mul\n      0x20\n      add\n      mload(0x40)\n      swap1\n      dup2\n      add\n      0x40\n      mstore\n      dup1\n      swap3\n      swap2\n      swap1\n      dup2\n      dup2\n      mstore\n      0x20\n      add\n      dup3\n      dup1\n      sload\n      dup1\n      iszero\n      tag_106\n      jumpi\n      0x20\n      mul\n      dup3\n      add\n      swap2\n      swap1\n      0x00\n      mstore\n      keccak256(0x00, 0x20)\n      swap1\n    tag_107:\n      dup2\n      sload\n      dup2\n      mstore\n      0x20\n      add\n      swap1\n      0x01\n      add\n      swap1\n      dup1\n      dup4\n      gt\n      tag_107\n      jumpi\n    tag_106:\n      pop\n      pop\n      pop\n      pop\n      pop\n      swap1\n      pop\n        /* \"sesi-1-liskgarden/contracts/20-LiskGarden.sol\":5046:5166  function getUserPlants(address user) external view returns (uint256[] memory) {... */\n      swap2\n      swap1\n      pop\n      jump\t// out\n        /* \"sesi-1-liskgarden/contracts/20-LiskGarden.sol\":5174:5397  function withdraw() external {... */\n    tag_34:\n        /* \"sesi-1-liskgarden/contracts/20-LiskGarden.sol\":5236:5241  owner */\n      0x03\n      0x00\n      swap1\n      sload\n      swap1\n      0x0100\n      exp\n      swap1\n      div\n      0xffffffffffffffffffffffffffffffffffffffff\n      and\n        /* \"sesi-1-liskgarden/contracts/20-LiskGarden.sol\":5222:5241  msg.sender == owner */\n      0xffffffffffffffffffffffffffffffffffffffff\n      and\n        /* \"sesi-1-liskgarden/contracts/20-LiskGarden.sol\":5222:5232  msg.sender */\n      caller\n        /* \"sesi-1-liskgarden/contracts/20-LiskGarden.sol\":5222:5241  msg.sender == owner */\n      0xffffffffffffffffffffffffffffffffffffffff\n      and\n      eq\n        /* \"sesi-1-liskgarden/contracts/20-LiskGarden.sol\":5214:5268  require(msg.sender == owner, \"You are not the owner!\") */\n      tag_109\n      jumpi\n      mload(0x40)\n      0x08c379a000000000000000000000000000000000000000000000000000000000\n      dup2\n      mstore\n      0x04\n      add\n      tag_110\n      swap1\n      tag_111\n      jump\t// in\n    tag_110:\n      mload(0x40)\n      dup1\n      swap2\n      sub\n      swap1\n      revert\n    tag_109:\n        /* \"sesi-1-liskgarden/contracts/20-LiskGarden.sol\":5280:5292  bool success */\n      0x00\n        /* \"sesi-1-liskgarden/contracts/20-LiskGarden.sol\":5298:5303  owner */\n      0x03\n      0x00\n      swap1\n      sload\n      swap1\n      0x0100\n      exp\n      swap1\n      div\n      0xffffffffffffffffffffffffffffffffffffffff\n      and\n        /* \"sesi-1-liskgarden/contracts/20-LiskGarden.sol\":5298:5308  owner.call */\n      0xffffffffffffffffffffffffffffffffffffffff\n      and\n        /* \"sesi-1-liskgarden/contracts/20-LiskGarden.sol\":5316:5337  address(this).balance */\n      selfbalance\n        /* \"sesi-1-liskgarden/contracts/20-LiskGarden.sol\":5298:5342  owner.call{value: address(this).balance}(\"\") */\n      mload(0x40)\n      tag_112\n      swap1\n      tag_113\n      jump\t// in\n    tag_112:\n      0x00\n      mload(0x40)\n      dup1\n      dup4\n      sub\n      dup2\n      dup6\n      dup8\n      gas\n      call\n      swap3\n      pop\n      pop\n      pop\n      returndatasize\n      dup1\n      0x00\n      dup2\n      eq\n      tag_116\n      jumpi\n      mload(0x40)\n      swap2\n      pop\n      and(add(returndatasize, 0x3f), not(0x1f))\n      dup3\n      add\n      0x40\n      mstore\n      returndatasize\n      dup3\n      mstore\n      returndatasize\n      0x00\n      0x20\n      dup5\n      add\n      returndatacopy\n      jump(tag_115)\n    tag_116:\n      0x60\n      swap2\n      pop\n    tag_115:\n      pop\n        /* \"sesi-1-liskgarden/contracts/20-LiskGarden.sol\":5279:5342  (bool success, ) = owner.call{value: address(this).balance}(\"\") */\n      pop\n      swap1\n      pop\n        /* \"sesi-1-liskgarden/contracts/20-LiskGarden.sol\":5361:5368  success */\n      dup1\n        /* \"sesi-1-liskgarden/contracts/20-LiskGarden.sol\":5353:5389  require(success, \"Failed Transfer!\") */\n      tag_117\n      jumpi\n      mload(0x40)\n      0x08c379a000000000000000000000000000000000000000000000000000000000\n      dup2\n      mstore\n      0x04\n      add\n      tag_118\n      swap1\n      tag_119\n      jump\t// in\n    tag_118:\n      mload(0x40)\n      dup1\n      swap2\n      sub\n      swap1\n      revert\n    tag_117:\n        /* \"sesi-1-liskgarden/contracts/20-LiskGarden.sol\":5203:5397  {... */\n      pop\n        /* \"sesi-1-liskgarden/contracts/20-LiskGarden.sol\":5174:5397  function withdraw() external {... */\n      jump\t// out\n        /* \"sesi-1-liskgarden/contracts/20-LiskGarden.sol\":667:717  uint256 public constant STAGE_DURATION = 1 minutes */\n    tag_37:\n        /* \"sesi-1-liskgarden/contracts/20-LiskGarden.sol\":708:717  1 minutes */\n      0x3c\n        /* \"sesi-1-liskgarden/contracts/20-LiskGarden.sol\":667:717  uint256 public constant STAGE_DURATION = 1 minutes */\n      dup2\n      jump\t// out\n        /* \"sesi-1-liskgarden/contracts/20-LiskGarden.sol\":1257:1946  function plantSeed() external payable returns (uint256) {... */\n    tag_41:\n        /* \"sesi-1-liskgarden/contracts/20-LiskGarden.sol\":1304:1311  uint256 */\n      0x00\n        /* \"sesi-1-liskgarden/contracts/20-LiskGarden.sol\":590:601  0.001 ether */\n      0x038d7ea4c68000\n        /* \"sesi-1-liskgarden/contracts/20-LiskGarden.sol\":1332:1341  msg.value */\n      callvalue\n        /* \"sesi-1-liskgarden/contracts/20-LiskGarden.sol\":1332:1356  msg.value >= PLANT_PRICE */\n      lt\n      iszero\n        /* \"sesi-1-liskgarden/contracts/20-LiskGarden.sol\":1324:1382  require(msg.value >= PLANT_PRICE, \"Insufficient balance!\") */\n      tag_121\n      jumpi\n      mload(0x40)\n      0x08c379a000000000000000000000000000000000000000000000000000000000\n      dup2\n      mstore\n      0x04\n      add\n      tag_122\n      swap1\n      tag_123\n      jump\t// in\n    tag_122:\n      mload(0x40)\n      dup1\n      swap2\n      sub\n      swap1\n      revert\n    tag_121:\n        /* \"sesi-1-liskgarden/contracts/20-LiskGarden.sol\":1395:1407  plantCounter */\n      0x02\n      0x00\n        /* \"sesi-1-liskgarden/contracts/20-LiskGarden.sol\":1395:1409  plantCounter++ */\n      dup2\n      sload\n      dup1\n      swap3\n      swap2\n      swap1\n      tag_124\n      swap1\n      tag_125\n      jump\t// in\n    tag_124:\n      swap2\n      swap1\n      pop\n      sstore\n      pop\n        /* \"sesi-1-liskgarden/contracts/20-LiskGarden.sol\":1422:1443  Plant memory newPlant */\n      0x00\n        /* \"sesi-1-liskgarden/contracts/20-LiskGarden.sol\":1446:1737  Plant({... */\n      mload(0x40)\n      dup1\n      0x0100\n      add\n      0x40\n      mstore\n      dup1\n        /* \"sesi-1-liskgarden/contracts/20-LiskGarden.sol\":1471:1483  plantCounter */\n      sload(0x02)\n        /* \"sesi-1-liskgarden/contracts/20-LiskGarden.sol\":1446:1737  Plant({... */\n      dup2\n      mstore\n      0x20\n      add\n        /* \"sesi-1-liskgarden/contracts/20-LiskGarden.sol\":1505:1515  msg.sender */\n      caller\n        /* \"sesi-1-liskgarden/contracts/20-LiskGarden.sol\":1446:1737  Plant({... */\n      0xffffffffffffffffffffffffffffffffffffffff\n      and\n      dup2\n      mstore\n      0x20\n      add\n        /* \"sesi-1-liskgarden/contracts/20-LiskGarden.sol\":1537:1553  GrowthStage.SEED */\n      0x00\n        /* \"sesi-1-liskgarden/contracts/20-LiskGarden.sol\":1446:1737  Plant({... */\n      0x03\n      dup2\n      gt\n      iszero\n      tag_126\n      jumpi\n      tag_127\n      tag_128\n      jump\t// in\n    tag_127:\n    tag_126:\n      dup2\n      mstore\n      0x20\n      add\n        /* \"sesi-1-liskgarden/contracts/20-LiskGarden.sol\":1581:1596  block.timestamp */\n      timestamp\n        /* \"sesi-1-liskgarden/contracts/20-LiskGarden.sol\":1446:1737  Plant({... */\n      dup2\n      mstore\n      0x20\n      add\n        /* \"sesi-1-liskgarden/contracts/20-LiskGarden.sol\":1624:1639  block.timestamp */\n      timestamp\n        /* \"sesi-1-liskgarden/contracts/20-LiskGarden.sol\":1446:1737  Plant({... */\n      dup2\n      mstore\n      0x20\n      add\n        /* \"sesi-1-liskgarden/contracts/20-LiskGarden.sol\":1667:1670  100 */\n      0x64\n        /* \"sesi-1-liskgarden/contracts/20-LiskGarden.sol\":1446:1737  Plant({... */\n      0xff\n      and\n      dup2\n      mstore\n      0x20\n      add\n        /* \"sesi-1-liskgarden/contracts/20-LiskGarden.sol\":1693:1697  true */\n      0x01\n        /* \"sesi-1-liskgarden/contracts/20-LiskGarden.sol\":1446:1737  Plant({... */\n      iszero\n      iszero\n      dup2\n      mstore\n      0x20\n      add\n        /* \"sesi-1-liskgarden/contracts/20-LiskGarden.sol\":1720:1725  false */\n      0x00\n        /* \"sesi-1-liskgarden/contracts/20-LiskGarden.sol\":1446:1737  Plant({... */\n      iszero\n      iszero\n      dup2\n      mstore\n      pop\n        /* \"sesi-1-liskgarden/contracts/20-LiskGarden.sol\":1422:1737  Plant memory newPlant = Plant({... */\n      swap1\n      pop\n        /* \"sesi-1-liskgarden/contracts/20-LiskGarden.sol\":1773:1781  newPlant */\n      dup1\n        /* \"sesi-1-liskgarden/contracts/20-LiskGarden.sol\":1750:1756  plants */\n      0x00\n        /* \"sesi-1-liskgarden/contracts/20-LiskGarden.sol\":1750:1770  plants[plantCounter] */\n      0x00\n        /* \"sesi-1-liskgarden/contracts/20-LiskGarden.sol\":1757:1769  plantCounter */\n      sload(0x02)\n        /* \"sesi-1-liskgarden/contracts/20-LiskGarden.sol\":1750:1770  plants[plantCounter] */\n      dup2\n      mstore\n      0x20\n      add\n      swap1\n      dup2\n      mstore\n      0x20\n      add\n      0x00\n      keccak256\n        /* \"sesi-1-liskgarden/contracts/20-LiskGarden.sol\":1750:1781  plants[plantCounter] = newPlant */\n      0x00\n      dup3\n      add\n      mload\n      dup2\n      0x00\n      add\n      sstore\n      0x20\n      dup3\n      add\n      mload\n      dup2\n      0x01\n      add\n      exp(0x0100, 0x00)\n      dup2\n      sload\n      dup2\n      0xffffffffffffffffffffffffffffffffffffffff\n      mul\n      not\n      and\n      swap1\n      dup4\n      0xffffffffffffffffffffffffffffffffffffffff\n      and\n      mul\n      or\n      swap1\n      sstore\n      pop\n      0x40\n      dup3\n      add\n      mload\n      dup2\n      0x01\n      add\n      exp(0x0100, 0x14)\n      dup2\n      sload\n      dup2\n      0xff\n      mul\n      not\n      and\n      swap1\n      dup4\n      0x03\n      dup2\n      gt\n      iszero\n      tag_129\n      jumpi\n      tag_130\n      tag_128\n      jump\t// in\n    tag_130:\n    tag_129:\n      mul\n      or\n      swap1\n      sstore\n      pop\n      0x60\n      dup3\n      add\n      mload\n      dup2\n      0x02\n      add\n      sstore\n      0x80\n      dup3\n      add\n      mload\n      dup2\n      0x03\n      add\n      sstore\n      0xa0\n      dup3\n      add\n      mload\n      dup2\n      0x04\n      add\n      exp(0x0100, 0x00)\n      dup2\n      sload\n      dup2\n      0xff\n      mul\n      not\n      and\n      swap1\n      dup4\n      0xff\n      and\n      mul\n      or\n      swap1\n      sstore\n      pop\n      0xc0\n      dup3\n      add\n      mload\n      dup2\n      0x04\n      add\n      exp(0x0100, 0x01)\n      dup2\n      sload\n      dup2\n      0xff\n      mul\n      not\n      and\n      swap1\n      dup4\n      iszero\n      iszero\n      mul\n      or\n      swap1\n      sstore\n      pop\n      0xe0\n      dup3\n      add\n      mload\n      dup2\n      0x04\n      add\n      exp(0x0100, 0x02)\n      dup2\n      sload\n      dup2\n      0xff\n      mul\n      not\n      and\n      swap1\n      dup4\n      iszero\n      iszero\n      mul\n      or\n      swap1\n      sstore\n      pop\n      swap1\n      pop\n      pop\n        /* \"sesi-1-liskgarden/contracts/20-LiskGarden.sol\":1802:1812  userPlants */\n      0x01\n        /* \"sesi-1-liskgarden/contracts/20-LiskGarden.sol\":1802:1824  userPlants[msg.sender] */\n      0x00\n        /* \"sesi-1-liskgarden/contracts/20-LiskGarden.sol\":1813:1823  msg.sender */\n      caller\n        /* \"sesi-1-liskgarden/contracts/20-LiskGarden.sol\":1802:1824  userPlants[msg.sender] */\n      0xffffffffffffffffffffffffffffffffffffffff\n      and\n      0xffffffffffffffffffffffffffffffffffffffff\n      and\n      dup2\n      mstore\n      0x20\n      add\n      swap1\n      dup2\n      mstore\n      0x20\n      add\n      0x00\n      keccak256\n        /* \"sesi-1-liskgarden/contracts/20-LiskGarden.sol\":1830:1842  plantCounter */\n      sload(0x02)\n        /* \"sesi-1-liskgarden/contracts/20-LiskGarden.sol\":1802:1843  userPlants[msg.sender].push(plantCounter) */\n      swap1\n      dup1\n      0x01\n      dup2\n      sload\n      add\n      dup1\n      dup3\n      sstore\n      dup1\n      swap2\n      pop\n      pop\n      0x01\n      swap1\n      sub\n      swap1\n      0x00\n      mstore\n      keccak256(0x00, 0x20)\n      add\n      0x00\n      swap1\n      swap2\n      swap1\n      swap2\n      swap1\n      swap2\n      pop\n      sstore\n        /* \"sesi-1-liskgarden/contracts/20-LiskGarden.sol\":1893:1905  plantCounter */\n      sload(0x02)\n        /* \"sesi-1-liskgarden/contracts/20-LiskGarden.sol\":1881:1891  msg.sender */\n      caller\n        /* \"sesi-1-liskgarden/contracts/20-LiskGarden.sol\":1869:1906  PlantSeeded(msg.sender, plantCounter) */\n      0xffffffffffffffffffffffffffffffffffffffff\n      and\n      0x4f5b22082ac57121703b0b6c1203ef527cfbfa5069616fee6deb979d124adbf0\n      mload(0x40)\n      mload(0x40)\n      dup1\n      swap2\n      sub\n      swap1\n      log3\n        /* \"sesi-1-liskgarden/contracts/20-LiskGarden.sol\":1926:1938  plantCounter */\n      sload(0x02)\n        /* \"sesi-1-liskgarden/contracts/20-LiskGarden.sol\":1919:1938  return plantCounter */\n      swap2\n      pop\n      pop\n        /* \"sesi-1-liskgarden/contracts/20-LiskGarden.sol\":1257:1946  function plantSeed() external payable returns (uint256) {... */\n      swap1\n      jump\t// out\n        /* \"sesi-1-liskgarden/contracts/20-LiskGarden.sol\":1954:2481  function calculateWaterLevel(uint256 _plantId) public view returns (uint8) {... */\n    tag_47:\n        /* \"sesi-1-liskgarden/contracts/20-LiskGarden.sol\":2022:2027  uint8 */\n      0x00\n        /* \"sesi-1-liskgarden/contracts/20-LiskGarden.sol\":2040:2059  Plant storage plant */\n      0x00\n        /* \"sesi-1-liskgarden/contracts/20-LiskGarden.sol\":2062:2068  plants */\n      0x00\n        /* \"sesi-1-liskgarden/contracts/20-LiskGarden.sol\":2062:2078  plants[_plantId] */\n      0x00\n        /* \"sesi-1-liskgarden/contracts/20-LiskGarden.sol\":2069:2077  _plantId */\n      dup5\n        /* \"sesi-1-liskgarden/contracts/20-LiskGarden.sol\":2062:2078  plants[_plantId] */\n      dup2\n      mstore\n      0x20\n      add\n      swap1\n      dup2\n      mstore\n      0x20\n      add\n      0x00\n      keccak256\n        /* \"sesi-1-liskgarden/contracts/20-LiskGarden.sol\":2040:2078  Plant storage plant = plants[_plantId] */\n      swap1\n      pop\n        /* \"sesi-1-liskgarden/contracts/20-LiskGarden.sol\":2095:2100  plant */\n      dup1\n        /* \"sesi-1-liskgarden/contracts/20-LiskGarden.sol\":2095:2107  plant.exists */\n      0x04\n      add\n      0x01\n      swap1\n      sload\n      swap1\n      0x0100\n      exp\n      swap1\n      div\n      0xff\n      and\n        /* \"sesi-1-liskgarden/contracts/20-LiskGarden.sol\":2094:2107  !plant.exists */\n      iszero\n        /* \"sesi-1-liskgarden/contracts/20-LiskGarden.sol\":2094:2123  !plant.exists || plant.isDead */\n      dup1\n      tag_133\n      jumpi\n      pop\n        /* \"sesi-1-liskgarden/contracts/20-LiskGarden.sol\":2111:2116  plant */\n      dup1\n        /* \"sesi-1-liskgarden/contracts/20-LiskGarden.sol\":2111:2123  plant.isDead */\n      0x04\n      add\n      0x02\n      swap1\n      sload\n      swap1\n      0x0100\n      exp\n      swap1\n      div\n      0xff\n      and\n        /* \"sesi-1-liskgarden/contracts/20-LiskGarden.sol\":2094:2123  !plant.exists || plant.isDead */\n    tag_133:\n        /* \"sesi-1-liskgarden/contracts/20-LiskGarden.sol\":2091:2133  if(!plant.exists || plant.isDead) return 0 */\n      iszero\n      tag_134\n      jumpi\n        /* \"sesi-1-liskgarden/contracts/20-LiskGarden.sol\":2132:2133  0 */\n      0x00\n        /* \"sesi-1-liskgarden/contracts/20-LiskGarden.sol\":2125:2133  return 0 */\n      swap2\n      pop\n      pop\n      jump(tag_132)\n        /* \"sesi-1-liskgarden/contracts/20-LiskGarden.sol\":2091:2133  if(!plant.exists || plant.isDead) return 0 */\n    tag_134:\n        /* \"sesi-1-liskgarden/contracts/20-LiskGarden.sol\":2146:2170  uint256 timeSinceWatered */\n      0x00\n        /* \"sesi-1-liskgarden/contracts/20-LiskGarden.sol\":2191:2196  plant */\n      dup2\n        /* \"sesi-1-liskgarden/contracts/20-LiskGarden.sol\":2191:2208  plant.lastWatered */\n      0x03\n      add\n      sload\n        /* \"sesi-1-liskgarden/contracts/20-LiskGarden.sol\":2173:2188  block.timestamp */\n      timestamp\n        /* \"sesi-1-liskgarden/contracts/20-LiskGarden.sol\":2173:2208  block.timestamp - plant.lastWatered */\n      tag_135\n      swap2\n      swap1\n      tag_136\n      jump\t// in\n    tag_135:\n        /* \"sesi-1-liskgarden/contracts/20-LiskGarden.sol\":2146:2208  uint256 timeSinceWatered = block.timestamp - plant.lastWatered */\n      swap1\n      pop\n        /* \"sesi-1-liskgarden/contracts/20-LiskGarden.sol\":2221:2247  uint256 depletionIntervals */\n      0x00\n        /* \"sesi-1-liskgarden/contracts/20-LiskGarden.sol\":771:781  30 seconds */\n      0x1e\n        /* \"sesi-1-liskgarden/contracts/20-LiskGarden.sol\":2250:2266  timeSinceWatered */\n      dup3\n        /* \"sesi-1-liskgarden/contracts/20-LiskGarden.sol\":2250:2289  timeSinceWatered / WATER_DEPLETION_TIME */\n      tag_137\n      swap2\n      swap1\n      tag_138\n      jump\t// in\n    tag_137:\n        /* \"sesi-1-liskgarden/contracts/20-LiskGarden.sol\":2221:2289  uint256 depletionIntervals = timeSinceWatered / WATER_DEPLETION_TIME */\n      swap1\n      pop\n        /* \"sesi-1-liskgarden/contracts/20-LiskGarden.sol\":2302:2319  uint256 waterLost */\n      0x00\n        /* \"sesi-1-liskgarden/contracts/20-LiskGarden.sol\":833:834  2 */\n      0x02\n        /* \"sesi-1-liskgarden/contracts/20-LiskGarden.sol\":2322:2363  depletionIntervals * WATER_DEPLETION_RATE */\n      0xff\n      and\n        /* \"sesi-1-liskgarden/contracts/20-LiskGarden.sol\":2322:2340  depletionIntervals */\n      dup3\n        /* \"sesi-1-liskgarden/contracts/20-LiskGarden.sol\":2322:2363  depletionIntervals * WATER_DEPLETION_RATE */\n      tag_139\n      swap2\n      swap1\n      tag_140\n      jump\t// in\n    tag_139:\n        /* \"sesi-1-liskgarden/contracts/20-LiskGarden.sol\":2302:2363  uint256 waterLost = depletionIntervals * WATER_DEPLETION_RATE */\n      swap1\n      pop\n        /* \"sesi-1-liskgarden/contracts/20-LiskGarden.sol\":2392:2397  plant */\n      dup4\n        /* \"sesi-1-liskgarden/contracts/20-LiskGarden.sol\":2392:2408  plant.waterLevel */\n      0x04\n      add\n      0x00\n      swap1\n      sload\n      swap1\n      0x0100\n      exp\n      swap1\n      div\n      0xff\n      and\n        /* \"sesi-1-liskgarden/contracts/20-LiskGarden.sol\":2379:2408  waterLost >= plant.waterLevel */\n      0xff\n      and\n        /* \"sesi-1-liskgarden/contracts/20-LiskGarden.sol\":2379:2388  waterLost */\n      dup2\n        /* \"sesi-1-liskgarden/contracts/20-LiskGarden.sol\":2379:2408  waterLost >= plant.waterLevel */\n      lt\n        /* \"sesi-1-liskgarden/contracts/20-LiskGarden.sol\":2376:2418  if(waterLost >= plant.waterLevel) return 0 */\n      tag_141\n      jumpi\n        /* \"sesi-1-liskgarden/contracts/20-LiskGarden.sol\":2417:2418  0 */\n      0x00\n        /* \"sesi-1-liskgarden/contracts/20-LiskGarden.sol\":2410:2418  return 0 */\n      swap5\n      pop\n      pop\n      pop\n      pop\n      pop\n      jump(tag_132)\n        /* \"sesi-1-liskgarden/contracts/20-LiskGarden.sol\":2376:2418  if(waterLost >= plant.waterLevel) return 0 */\n    tag_141:\n        /* \"sesi-1-liskgarden/contracts/20-LiskGarden.sol\":2463:2472  waterLost */\n      dup1\n        /* \"sesi-1-liskgarden/contracts/20-LiskGarden.sol\":2444:2449  plant */\n      dup5\n        /* \"sesi-1-liskgarden/contracts/20-LiskGarden.sol\":2444:2460  plant.waterLevel */\n      0x04\n      add\n      0x00\n      swap1\n      sload\n      swap1\n      0x0100\n      exp\n      swap1\n      div\n      0xff\n      and\n        /* \"sesi-1-liskgarden/contracts/20-LiskGarden.sol\":2444:2472  plant.waterLevel - waterLost */\n      0xff\n      and\n      tag_142\n      swap2\n      swap1\n      tag_136\n      jump\t// in\n    tag_142:\n        /* \"sesi-1-liskgarden/contracts/20-LiskGarden.sol\":2431:2473  return uint8(plant.waterLevel - waterLost) */\n      swap5\n      pop\n      pop\n      pop\n      pop\n      pop\n        /* \"sesi-1-liskgarden/contracts/20-LiskGarden.sol\":1954:2481  function calculateWaterLevel(uint256 _plantId) public view returns (uint8) {... */\n    tag_132:\n      swap2\n      swap1\n      pop\n      jump\t// out\n        /* \"sesi-1-liskgarden/contracts/20-LiskGarden.sol\":724:781  uint256 public constant WATER_DEPLETION_TIME = 30 seconds */\n    tag_52:\n        /* \"sesi-1-liskgarden/contracts/20-LiskGarden.sol\":771:781  30 seconds */\n      0x1e\n        /* \"sesi-1-liskgarden/contracts/20-LiskGarden.sol\":724:781  uint256 public constant WATER_DEPLETION_TIME = 30 seconds */\n      dup2\n      jump\t// out\n        /* \"sesi-1-liskgarden/contracts/20-LiskGarden.sol\":431:478  mapping(address => uint256[]) public userPlants */\n    tag_58:\n      mstore(0x20, 0x01)\n      dup2\n      0x00\n      mstore\n      keccak256(0x00, 0x40)\n      dup2\n      dup2\n      sload\n      dup2\n      lt\n      tag_143\n      jumpi\n      0x00\n      dup1\n      revert\n    tag_143:\n      swap1\n      0x00\n      mstore\n      keccak256(0x00, 0x20)\n      add\n      0x00\n      swap2\n      pop\n      swap2\n      pop\n      pop\n      sload\n      dup2\n      jump\t// out\n        /* \"sesi-1-liskgarden/contracts/20-LiskGarden.sol\":523:543  address public owner */\n    tag_62:\n      0x03\n      0x00\n      swap1\n      sload\n      swap1\n      0x0100\n      exp\n      swap1\n      div\n      0xffffffffffffffffffffffffffffffffffffffff\n      and\n      dup2\n      jump\t// out\n        /* \"sesi-1-liskgarden/contracts/20-LiskGarden.sol\":383:422  mapping(uint256 => Plant) public plants */\n    tag_68:\n      mstore(0x20, 0x00)\n      dup1\n      0x00\n      mstore\n      keccak256(0x00, 0x40)\n      0x00\n      swap2\n      pop\n      swap1\n      pop\n      dup1\n      0x00\n      add\n      sload\n      swap1\n      dup1\n      0x01\n      add\n      0x00\n      swap1\n      sload\n      swap1\n      0x0100\n      exp\n      swap1\n      div\n      0xffffffffffffffffffffffffffffffffffffffff\n      and\n      swap1\n      dup1\n      0x01\n      add\n      0x14\n      swap1\n      sload\n      swap1\n      0x0100\n      exp\n      swap1\n      div\n      0xff\n      and\n      swap1\n      dup1\n      0x02\n      add\n      sload\n      swap1\n      dup1\n      0x03\n      add\n      sload\n      swap1\n      dup1\n      0x04\n      add\n      0x00\n      swap1\n      sload\n      swap1\n      0x0100\n      exp\n      swap1\n      div\n      0xff\n      and\n      swap1\n      dup1\n      0x04\n      add\n      0x01\n      swap1\n      sload\n      swap1\n      0x0100\n      exp\n      swap1\n      div\n      0xff\n      and\n      swap1\n      dup1\n      0x04\n      add\n      0x02\n      swap1\n      sload\n      swap1\n      0x0100\n      exp\n      swap1\n      div\n      0xff\n      and\n      swap1\n      pop\n      dup9\n      jump\t// out\n        /* \"sesi-1-liskgarden/contracts/20-LiskGarden.sol\":2851:3301  function waterPlant(uint256 _plantId) external {... */\n    tag_74:\n        /* \"sesi-1-liskgarden/contracts/20-LiskGarden.sol\":2909:2928  Plant storage plant */\n      0x00\n        /* \"sesi-1-liskgarden/contracts/20-LiskGarden.sol\":2931:2937  plants */\n      0x00\n        /* \"sesi-1-liskgarden/contracts/20-LiskGarden.sol\":2931:2947  plants[_plantId] */\n      0x00\n        /* \"sesi-1-liskgarden/contracts/20-LiskGarden.sol\":2938:2946  _plantId */\n      dup4\n        /* \"sesi-1-liskgarden/contracts/20-LiskGarden.sol\":2931:2947  plants[_plantId] */\n      dup2\n      mstore\n      0x20\n      add\n      swap1\n      dup2\n      mstore\n      0x20\n      add\n      0x00\n      keccak256\n        /* \"sesi-1-liskgarden/contracts/20-LiskGarden.sol\":2909:2947  Plant storage plant = plants[_plantId] */\n      swap1\n      pop\n        /* \"sesi-1-liskgarden/contracts/20-LiskGarden.sol\":2966:2971  plant */\n      dup1\n        /* \"sesi-1-liskgarden/contracts/20-LiskGarden.sol\":2966:2978  plant.exists */\n      0x04\n      add\n      0x01\n      swap1\n      sload\n      swap1\n      0x0100\n      exp\n      swap1\n      div\n      0xff\n      and\n        /* \"sesi-1-liskgarden/contracts/20-LiskGarden.sol\":2958:3003  require(plant.exists, \"Plant doesn't exist!\") */\n      tag_146\n      jumpi\n      mload(0x40)\n      0x08c379a000000000000000000000000000000000000000000000000000000000\n      dup2\n      mstore\n      0x04\n      add\n      tag_147\n      swap1\n      tag_148\n      jump\t// in\n    tag_147:\n      mload(0x40)\n      dup1\n      swap2\n      sub\n      swap1\n      revert\n    tag_146:\n        /* \"sesi-1-liskgarden/contracts/20-LiskGarden.sol\":3037:3047  msg.sender */\n      caller\n        /* \"sesi-1-liskgarden/contracts/20-LiskGarden.sol\":3022:3047  plant.owner == msg.sender */\n      0xffffffffffffffffffffffffffffffffffffffff\n      and\n        /* \"sesi-1-liskgarden/contracts/20-LiskGarden.sol\":3022:3027  plant */\n      dup2\n        /* \"sesi-1-liskgarden/contracts/20-LiskGarden.sol\":3022:3033  plant.owner */\n      0x01\n      add\n      0x00\n      swap1\n      sload\n      swap1\n      0x0100\n      exp\n      swap1\n      div\n      0xffffffffffffffffffffffffffffffffffffffff\n      and\n        /* \"sesi-1-liskgarden/contracts/20-LiskGarden.sol\":3022:3047  plant.owner == msg.sender */\n      0xffffffffffffffffffffffffffffffffffffffff\n      and\n      eq\n        /* \"sesi-1-liskgarden/contracts/20-LiskGarden.sol\":3014:3074  require(plant.owner == msg.sender, \"You are not the owner!\") */\n      tag_149\n      jumpi\n      mload(0x40)\n      0x08c379a000000000000000000000000000000000000000000000000000000000\n      dup2\n      mstore\n      0x04\n      add\n      tag_150\n      swap1\n      tag_111\n      jump\t// in\n    tag_150:\n      mload(0x40)\n      dup1\n      swap2\n      sub\n      swap1\n      revert\n    tag_149:\n        /* \"sesi-1-liskgarden/contracts/20-LiskGarden.sol\":3094:3099  plant */\n      dup1\n        /* \"sesi-1-liskgarden/contracts/20-LiskGarden.sol\":3094:3106  plant.isDead */\n      0x04\n      add\n      0x02\n      swap1\n      sload\n      swap1\n      0x0100\n      exp\n      swap1\n      div\n      0xff\n      and\n        /* \"sesi-1-liskgarden/contracts/20-LiskGarden.sol\":3093:3106  !plant.isDead */\n      iszero\n        /* \"sesi-1-liskgarden/contracts/20-LiskGarden.sol\":3085:3130  require(!plant.isDead, \"Plant already dead!\") */\n      tag_151\n      jumpi\n      mload(0x40)\n      0x08c379a000000000000000000000000000000000000000000000000000000000\n      dup2\n      mstore\n      0x04\n      add\n      tag_152\n      swap1\n      tag_153\n      jump\t// in\n    tag_152:\n      mload(0x40)\n      dup1\n      swap2\n      sub\n      swap1\n      revert\n    tag_151:\n        /* \"sesi-1-liskgarden/contracts/20-LiskGarden.sol\":3162:3165  100 */\n      0x64\n        /* \"sesi-1-liskgarden/contracts/20-LiskGarden.sol\":3143:3148  plant */\n      dup2\n        /* \"sesi-1-liskgarden/contracts/20-LiskGarden.sol\":3143:3159  plant.waterLevel */\n      0x04\n      add\n      0x00\n        /* \"sesi-1-liskgarden/contracts/20-LiskGarden.sol\":3143:3165  plant.waterLevel = 100 */\n      0x0100\n      exp\n      dup2\n      sload\n      dup2\n      0xff\n      mul\n      not\n      and\n      swap1\n      dup4\n      0xff\n      and\n      mul\n      or\n      swap1\n      sstore\n      pop\n        /* \"sesi-1-liskgarden/contracts/20-LiskGarden.sol\":3196:3211  block.timestamp */\n      timestamp\n        /* \"sesi-1-liskgarden/contracts/20-LiskGarden.sol\":3176:3181  plant */\n      dup2\n        /* \"sesi-1-liskgarden/contracts/20-LiskGarden.sol\":3176:3193  plant.lastWatered */\n      0x03\n      add\n        /* \"sesi-1-liskgarden/contracts/20-LiskGarden.sol\":3176:3211  plant.lastWatered = block.timestamp */\n      dup2\n      swap1\n      sstore\n      pop\n        /* \"sesi-1-liskgarden/contracts/20-LiskGarden.sol\":3242:3250  _plantId */\n      dup2\n        /* \"sesi-1-liskgarden/contracts/20-LiskGarden.sol\":3229:3256  PlantWatered(_plantId, 100) */\n      0xd4b742b9ba48fffa1f14267075a7793851770764117c423fd0a6550dfc8cb574\n        /* \"sesi-1-liskgarden/contracts/20-LiskGarden.sol\":3252:3255  100 */\n      0x64\n        /* \"sesi-1-liskgarden/contracts/20-LiskGarden.sol\":3229:3256  PlantWatered(_plantId, 100) */\n      mload(0x40)\n      tag_154\n      swap2\n      swap1\n      tag_155\n      jump\t// in\n    tag_154:\n      mload(0x40)\n      dup1\n      swap2\n      sub\n      swap1\n      log2\n        /* \"sesi-1-liskgarden/contracts/20-LiskGarden.sol\":3267:3293  updatePlantStage(_plantId) */\n      tag_156\n        /* \"sesi-1-liskgarden/contracts/20-LiskGarden.sol\":3284:3292  _plantId */\n      dup3\n        /* \"sesi-1-liskgarden/contracts/20-LiskGarden.sol\":3267:3283  updatePlantStage */\n      tag_94\n        /* \"sesi-1-liskgarden/contracts/20-LiskGarden.sol\":3267:3293  updatePlantStage(_plantId) */\n      jump\t// in\n    tag_156:\n        /* \"sesi-1-liskgarden/contracts/20-LiskGarden.sol\":2898:3301  {... */\n      pop\n        /* \"sesi-1-liskgarden/contracts/20-LiskGarden.sol\":2851:3301  function waterPlant(uint256 _plantId) external {... */\n      pop\n      jump\t// out\n        /* \"sesi-1-liskgarden/contracts/20-LiskGarden.sol\":487:514  uint256 public plantCounter */\n    tag_77:\n      sload(0x02)\n      dup2\n      jump\t// out\n        /* \"sesi-1-liskgarden/contracts/20-LiskGarden.sol\":788:834  uint8 public constant WATER_DEPLETION_RATE = 2 */\n    tag_81:\n        /* \"sesi-1-liskgarden/contracts/20-LiskGarden.sol\":833:834  2 */\n      0x02\n        /* \"sesi-1-liskgarden/contracts/20-LiskGarden.sol\":788:834  uint8 public constant WATER_DEPLETION_RATE = 2 */\n      dup2\n      jump\t// out\n        /* \"sesi-1-liskgarden/contracts/20-LiskGarden.sol\":608:660  uint256 public constant REWARD_HARVEST = 0.003 ether */\n    tag_85:\n        /* \"sesi-1-liskgarden/contracts/20-LiskGarden.sol\":649:660  0.003 ether */\n      0x0aa87bee538000\n        /* \"sesi-1-liskgarden/contracts/20-LiskGarden.sol\":608:660  uint256 public constant REWARD_HARVEST = 0.003 ether */\n      dup2\n      jump\t// out\n        /* \"sesi-1-liskgarden/contracts/20-LiskGarden.sol\":552:601  uint256 public constant PLANT_PRICE = 0.001 ether */\n    tag_89:\n        /* \"sesi-1-liskgarden/contracts/20-LiskGarden.sol\":590:601  0.001 ether */\n      0x038d7ea4c68000\n        /* \"sesi-1-liskgarden/contracts/20-LiskGarden.sol\":552:601  uint256 public constant PLANT_PRICE = 0.001 ether */\n      dup2\n      jump\t// out\n        /* \"sesi-1-liskgarden/contracts/20-LiskGarden.sol\":3309:4167  function updatePlantStage(uint256 _plantId) public  {... */\n    tag_94:\n        /* \"sesi-1-liskgarden/contracts/20-LiskGarden.sol\":3372:3391  Plant storage plant */\n      0x00\n        /* \"sesi-1-liskgarden/contracts/20-LiskGarden.sol\":3394:3400  plants */\n      0x00\n        /* \"sesi-1-liskgarden/contracts/20-LiskGarden.sol\":3394:3410  plants[_plantId] */\n      0x00\n        /* \"sesi-1-liskgarden/contracts/20-LiskGarden.sol\":3401:3409  _plantId */\n      dup4\n        /* \"sesi-1-liskgarden/contracts/20-LiskGarden.sol\":3394:3410  plants[_plantId] */\n      dup2\n      mstore\n      0x20\n      add\n      swap1\n      dup2\n      mstore\n      0x20\n      add\n      0x00\n      keccak256\n        /* \"sesi-1-liskgarden/contracts/20-LiskGarden.sol\":3372:3410  Plant storage plant = plants[_plantId] */\n      swap1\n      pop\n        /* \"sesi-1-liskgarden/contracts/20-LiskGarden.sol\":3429:3434  plant */\n      dup1\n        /* \"sesi-1-liskgarden/contracts/20-LiskGarden.sol\":3429:3441  plant.exists */\n      0x04\n      add\n      0x01\n      swap1\n      sload\n      swap1\n      0x0100\n      exp\n      swap1\n      div\n      0xff\n      and\n        /* \"sesi-1-liskgarden/contracts/20-LiskGarden.sol\":3421:3466  require(plant.exists, \"Plant doesn't exist!\") */\n      tag_158\n      jumpi\n      mload(0x40)\n      0x08c379a000000000000000000000000000000000000000000000000000000000\n      dup2\n      mstore\n      0x04\n      add\n      tag_159\n      swap1\n      tag_148\n      jump\t// in\n    tag_159:\n      mload(0x40)\n      dup1\n      swap2\n      sub\n      swap1\n      revert\n    tag_158:\n        /* \"sesi-1-liskgarden/contracts/20-LiskGarden.sol\":3479:3505  updateWaterLevel(_plantId) */\n      tag_160\n        /* \"sesi-1-liskgarden/contracts/20-LiskGarden.sol\":3496:3504  _plantId */\n      dup3\n        /* \"sesi-1-liskgarden/contracts/20-LiskGarden.sol\":3479:3495  updateWaterLevel */\n      tag_161\n        /* \"sesi-1-liskgarden/contracts/20-LiskGarden.sol\":3479:3505  updateWaterLevel(_plantId) */\n      jump\t// in\n    tag_160:\n        /* \"sesi-1-liskgarden/contracts/20-LiskGarden.sol\":3519:3524  plant */\n      dup1\n        /* \"sesi-1-liskgarden/contracts/20-LiskGarden.sol\":3519:3531  plant.isDead */\n      0x04\n      add\n      0x02\n      swap1\n      sload\n      swap1\n      0x0100\n      exp\n      swap1\n      div\n      0xff\n      and\n        /* \"sesi-1-liskgarden/contracts/20-LiskGarden.sol\":3516:3540  if(plant.isDead) return; */\n      iszero\n      tag_162\n      jumpi\n        /* \"sesi-1-liskgarden/contracts/20-LiskGarden.sol\":3533:3540  return; */\n      pop\n      jump(tag_157)\n        /* \"sesi-1-liskgarden/contracts/20-LiskGarden.sol\":3516:3540  if(plant.isDead) return; */\n    tag_162:\n        /* \"sesi-1-liskgarden/contracts/20-LiskGarden.sol\":3552:3576  uint256 timeSincePlanted */\n      0x00\n        /* \"sesi-1-liskgarden/contracts/20-LiskGarden.sol\":3597:3602  plant */\n      dup2\n        /* \"sesi-1-liskgarden/contracts/20-LiskGarden.sol\":3597:3614  plant.plantedDate */\n      0x02\n      add\n      sload\n        /* \"sesi-1-liskgarden/contracts/20-LiskGarden.sol\":3579:3594  block.timestamp */\n      timestamp\n        /* \"sesi-1-liskgarden/contracts/20-LiskGarden.sol\":3579:3614  block.timestamp - plant.plantedDate */\n      tag_163\n      swap2\n      swap1\n      tag_136\n      jump\t// in\n    tag_163:\n        /* \"sesi-1-liskgarden/contracts/20-LiskGarden.sol\":3552:3614  uint256 timeSincePlanted = block.timestamp - plant.plantedDate */\n      swap1\n      pop\n        /* \"sesi-1-liskgarden/contracts/20-LiskGarden.sol\":3625:3645  GrowthStage oldStage */\n      0x00\n        /* \"sesi-1-liskgarden/contracts/20-LiskGarden.sol\":3648:3653  plant */\n      dup3\n        /* \"sesi-1-liskgarden/contracts/20-LiskGarden.sol\":3648:3659  plant.stage */\n      0x01\n      add\n      0x14\n      swap1\n      sload\n      swap1\n      0x0100\n      exp\n      swap1\n      div\n      0xff\n      and\n        /* \"sesi-1-liskgarden/contracts/20-LiskGarden.sol\":3625:3659  GrowthStage oldStage = plant.stage */\n      swap1\n      pop\n        /* \"sesi-1-liskgarden/contracts/20-LiskGarden.sol\":3712:3713  3 */\n      0x03\n        /* \"sesi-1-liskgarden/contracts/20-LiskGarden.sol\":708:717  1 minutes */\n      0x3c\n        /* \"sesi-1-liskgarden/contracts/20-LiskGarden.sol\":3695:3713  STAGE_DURATION * 3 */\n      tag_164\n      swap2\n      swap1\n      tag_140\n      jump\t// in\n    tag_164:\n        /* \"sesi-1-liskgarden/contracts/20-LiskGarden.sol\":3675:3691  timeSincePlanted */\n      dup3\n        /* \"sesi-1-liskgarden/contracts/20-LiskGarden.sol\":3675:3713  timeSincePlanted >= STAGE_DURATION * 3 */\n      lt\n        /* \"sesi-1-liskgarden/contracts/20-LiskGarden.sol\":3672:4052  if(timeSincePlanted >= STAGE_DURATION * 3) {... */\n      tag_165\n      jumpi\n        /* \"sesi-1-liskgarden/contracts/20-LiskGarden.sol\":3744:3764  GrowthStage.BLOOMING */\n      0x03\n        /* \"sesi-1-liskgarden/contracts/20-LiskGarden.sol\":3730:3735  plant */\n      dup4\n        /* \"sesi-1-liskgarden/contracts/20-LiskGarden.sol\":3730:3741  plant.stage */\n      0x01\n      add\n      0x14\n        /* \"sesi-1-liskgarden/contracts/20-LiskGarden.sol\":3730:3764  plant.stage = GrowthStage.BLOOMING */\n      0x0100\n      exp\n      dup2\n      sload\n      dup2\n      0xff\n      mul\n      not\n      and\n      swap1\n      dup4\n      0x03\n      dup2\n      gt\n      iszero\n      tag_166\n      jumpi\n      tag_167\n      tag_128\n      jump\t// in\n    tag_167:\n    tag_166:\n      mul\n      or\n      swap1\n      sstore\n      pop\n        /* \"sesi-1-liskgarden/contracts/20-LiskGarden.sol\":3672:4052  if(timeSincePlanted >= STAGE_DURATION * 3) {... */\n      jump(tag_168)\n    tag_165:\n        /* \"sesi-1-liskgarden/contracts/20-LiskGarden.sol\":3822:3823  2 */\n      0x02\n        /* \"sesi-1-liskgarden/contracts/20-LiskGarden.sol\":708:717  1 minutes */\n      0x3c\n        /* \"sesi-1-liskgarden/contracts/20-LiskGarden.sol\":3805:3823  STAGE_DURATION * 2 */\n      tag_169\n      swap2\n      swap1\n      tag_140\n      jump\t// in\n    tag_169:\n        /* \"sesi-1-liskgarden/contracts/20-LiskGarden.sol\":3785:3801  timeSincePlanted */\n      dup3\n        /* \"sesi-1-liskgarden/contracts/20-LiskGarden.sol\":3785:3823  timeSincePlanted >= STAGE_DURATION * 2 */\n      lt\n        /* \"sesi-1-liskgarden/contracts/20-LiskGarden.sol\":3782:4052  if(timeSincePlanted >= STAGE_DURATION * 2) {... */\n      tag_170\n      jumpi\n        /* \"sesi-1-liskgarden/contracts/20-LiskGarden.sol\":3854:3873  GrowthStage.GROWING */\n      0x02\n        /* \"sesi-1-liskgarden/contracts/20-LiskGarden.sol\":3840:3845  plant */\n      dup4\n        /* \"sesi-1-liskgarden/contracts/20-LiskGarden.sol\":3840:3851  plant.stage */\n      0x01\n      add\n      0x14\n        /* \"sesi-1-liskgarden/contracts/20-LiskGarden.sol\":3840:3873  plant.stage = GrowthStage.GROWING */\n      0x0100\n      exp\n      dup2\n      sload\n      dup2\n      0xff\n      mul\n      not\n      and\n      swap1\n      dup4\n      0x03\n      dup2\n      gt\n      iszero\n      tag_171\n      jumpi\n      tag_172\n      tag_128\n      jump\t// in\n    tag_172:\n    tag_171:\n      mul\n      or\n      swap1\n      sstore\n      pop\n        /* \"sesi-1-liskgarden/contracts/20-LiskGarden.sol\":3782:4052  if(timeSincePlanted >= STAGE_DURATION * 2) {... */\n      jump(tag_173)\n    tag_170:\n        /* \"sesi-1-liskgarden/contracts/20-LiskGarden.sol\":708:717  1 minutes */\n      0x3c\n        /* \"sesi-1-liskgarden/contracts/20-LiskGarden.sol\":3894:3910  timeSincePlanted */\n      dup3\n        /* \"sesi-1-liskgarden/contracts/20-LiskGarden.sol\":3894:3928  timeSincePlanted >= STAGE_DURATION */\n      lt\n        /* \"sesi-1-liskgarden/contracts/20-LiskGarden.sol\":3891:4052  if(timeSincePlanted >= STAGE_DURATION) {... */\n      tag_174\n      jumpi\n        /* \"sesi-1-liskgarden/contracts/20-LiskGarden.sol\":3959:3977  GrowthStage.SPROUT */\n      0x01\n        /* \"sesi-1-liskgarden/contracts/20-LiskGarden.sol\":3945:3950  plant */\n      dup4\n        /* \"sesi-1-liskgarden/contracts/20-LiskGarden.sol\":3945:3956  plant.stage */\n      0x01\n      add\n      0x14\n        /* \"sesi-1-liskgarden/contracts/20-LiskGarden.sol\":3945:3977  plant.stage = GrowthStage.SPROUT */\n      0x0100\n      exp\n      dup2\n      sload\n      dup2\n      0xff\n      mul\n      not\n      and\n      swap1\n      dup4\n      0x03\n      dup2\n      gt\n      iszero\n      tag_175\n      jumpi\n      tag_176\n      tag_128\n      jump\t// in\n    tag_176:\n    tag_175:\n      mul\n      or\n      swap1\n      sstore\n      pop\n        /* \"sesi-1-liskgarden/contracts/20-LiskGarden.sol\":3891:4052  if(timeSincePlanted >= STAGE_DURATION) {... */\n      jump(tag_177)\n    tag_174:\n        /* \"sesi-1-liskgarden/contracts/20-LiskGarden.sol\":4024:4040  GrowthStage.SEED */\n      0x00\n        /* \"sesi-1-liskgarden/contracts/20-LiskGarden.sol\":4010:4015  plant */\n      dup4\n        /* \"sesi-1-liskgarden/contracts/20-LiskGarden.sol\":4010:4021  plant.stage */\n      0x01\n      add\n      0x14\n        /* \"sesi-1-liskgarden/contracts/20-LiskGarden.sol\":4010:4040  plant.stage = GrowthStage.SEED */\n      0x0100\n      exp\n      dup2\n      sload\n      dup2\n      0xff\n      mul\n      not\n      and\n      swap1\n      dup4\n      0x03\n      dup2\n      gt\n      iszero\n      tag_178\n      jumpi\n      tag_179\n      tag_128\n      jump\t// in\n    tag_179:\n    tag_178:\n      mul\n      or\n      swap1\n      sstore\n      pop\n        /* \"sesi-1-liskgarden/contracts/20-LiskGarden.sol\":3891:4052  if(timeSincePlanted >= STAGE_DURATION) {... */\n    tag_177:\n        /* \"sesi-1-liskgarden/contracts/20-LiskGarden.sol\":3782:4052  if(timeSincePlanted >= STAGE_DURATION * 2) {... */\n    tag_173:\n        /* \"sesi-1-liskgarden/contracts/20-LiskGarden.sol\":3672:4052  if(timeSincePlanted >= STAGE_DURATION * 3) {... */\n    tag_168:\n        /* \"sesi-1-liskgarden/contracts/20-LiskGarden.sol\":4082:4090  oldStage */\n      dup1\n        /* \"sesi-1-liskgarden/contracts/20-LiskGarden.sol\":4067:4090  plant.stage != oldStage */\n      0x03\n      dup2\n      gt\n      iszero\n      tag_180\n      jumpi\n      tag_181\n      tag_128\n      jump\t// in\n    tag_181:\n    tag_180:\n        /* \"sesi-1-liskgarden/contracts/20-LiskGarden.sol\":4067:4072  plant */\n      dup4\n        /* \"sesi-1-liskgarden/contracts/20-LiskGarden.sol\":4067:4078  plant.stage */\n      0x01\n      add\n      0x14\n      swap1\n      sload\n      swap1\n      0x0100\n      exp\n      swap1\n      div\n      0xff\n      and\n        /* \"sesi-1-liskgarden/contracts/20-LiskGarden.sol\":4067:4090  plant.stage != oldStage */\n      0x03\n      dup2\n      gt\n      iszero\n      tag_182\n      jumpi\n      tag_183\n      tag_128\n      jump\t// in\n    tag_183:\n    tag_182:\n      eq\n        /* \"sesi-1-liskgarden/contracts/20-LiskGarden.sol\":4064:4160  if(plant.stage != oldStage) {... */\n      tag_184\n      jumpi\n        /* \"sesi-1-liskgarden/contracts/20-LiskGarden.sol\":4126:4134  _plantId */\n      dup4\n        /* \"sesi-1-liskgarden/contracts/20-LiskGarden.sol\":4112:4148  StageAdvanced(_plantId, plant.stage) */\n      0x338b8976706f9da67298dddfa1ea4ff7d99cce68b9ca39c4f348994f8e2124a8\n        /* \"sesi-1-liskgarden/contracts/20-LiskGarden.sol\":4136:4141  plant */\n      dup5\n        /* \"sesi-1-liskgarden/contracts/20-LiskGarden.sol\":4136:4147  plant.stage */\n      0x01\n      add\n      0x14\n      swap1\n      sload\n      swap1\n      0x0100\n      exp\n      swap1\n      div\n      0xff\n      and\n        /* \"sesi-1-liskgarden/contracts/20-LiskGarden.sol\":4112:4148  StageAdvanced(_plantId, plant.stage) */\n      mload(0x40)\n      tag_185\n      swap2\n      swap1\n      tag_186\n      jump\t// in\n    tag_185:\n      mload(0x40)\n      dup1\n      swap2\n      sub\n      swap1\n      log2\n        /* \"sesi-1-liskgarden/contracts/20-LiskGarden.sol\":4064:4160  if(plant.stage != oldStage) {... */\n    tag_184:\n        /* \"sesi-1-liskgarden/contracts/20-LiskGarden.sol\":3361:4167  {... */\n      pop\n      pop\n      pop\n        /* \"sesi-1-liskgarden/contracts/20-LiskGarden.sol\":3309:4167  function updatePlantStage(uint256 _plantId) public  {... */\n    tag_157:\n      pop\n      jump\t// out\n        /* \"sesi-1-liskgarden/contracts/20-LiskGarden.sol\":4176:4809  function harvestPlant(uint256 plantId) external {... */\n    tag_98:\n        /* \"sesi-1-liskgarden/contracts/20-LiskGarden.sol\":4235:4254  Plant storage plant */\n      0x00\n        /* \"sesi-1-liskgarden/contracts/20-LiskGarden.sol\":4257:4263  plants */\n      0x00\n        /* \"sesi-1-liskgarden/contracts/20-LiskGarden.sol\":4257:4272  plants[plantId] */\n      0x00\n        /* \"sesi-1-liskgarden/contracts/20-LiskGarden.sol\":4264:4271  plantId */\n      dup4\n        /* \"sesi-1-liskgarden/contracts/20-LiskGarden.sol\":4257:4272  plants[plantId] */\n      dup2\n      mstore\n      0x20\n      add\n      swap1\n      dup2\n      mstore\n      0x20\n      add\n      0x00\n      keccak256\n        /* \"sesi-1-liskgarden/contracts/20-LiskGarden.sol\":4235:4272  Plant storage plant = plants[plantId] */\n      swap1\n      pop\n        /* \"sesi-1-liskgarden/contracts/20-LiskGarden.sol\":4291:4296  plant */\n      dup1\n        /* \"sesi-1-liskgarden/contracts/20-LiskGarden.sol\":4291:4303  plant.exists */\n      0x04\n      add\n      0x01\n      swap1\n      sload\n      swap1\n      0x0100\n      exp\n      swap1\n      div\n      0xff\n      and\n        /* \"sesi-1-liskgarden/contracts/20-LiskGarden.sol\":4283:4328  require(plant.exists, \"Plant doesn't exist!\") */\n      tag_188\n      jumpi\n      mload(0x40)\n      0x08c379a000000000000000000000000000000000000000000000000000000000\n      dup2\n      mstore\n      0x04\n      add\n      tag_189\n      swap1\n      tag_148\n      jump\t// in\n    tag_189:\n      mload(0x40)\n      dup1\n      swap2\n      sub\n      swap1\n      revert\n    tag_188:\n        /* \"sesi-1-liskgarden/contracts/20-LiskGarden.sol\":4362:4372  msg.sender */\n      caller\n        /* \"sesi-1-liskgarden/contracts/20-LiskGarden.sol\":4347:4372  plant.owner == msg.sender */\n      0xffffffffffffffffffffffffffffffffffffffff\n      and\n        /* \"sesi-1-liskgarden/contracts/20-LiskGarden.sol\":4347:4352  plant */\n      dup2\n        /* \"sesi-1-liskgarden/contracts/20-LiskGarden.sol\":4347:4358  plant.owner */\n      0x01\n      add\n      0x00\n      swap1\n      sload\n      swap1\n      0x0100\n      exp\n      swap1\n      div\n      0xffffffffffffffffffffffffffffffffffffffff\n      and\n        /* \"sesi-1-liskgarden/contracts/20-LiskGarden.sol\":4347:4372  plant.owner == msg.sender */\n      0xffffffffffffffffffffffffffffffffffffffff\n      and\n      eq\n        /* \"sesi-1-liskgarden/contracts/20-LiskGarden.sol\":4339:4399  require(plant.owner == msg.sender, \"You are not the owner!\") */\n      tag_190\n      jumpi\n      mload(0x40)\n      0x08c379a000000000000000000000000000000000000000000000000000000000\n      dup2\n      mstore\n      0x04\n      add\n      tag_191\n      swap1\n      tag_111\n      jump\t// in\n    tag_191:\n      mload(0x40)\n      dup1\n      swap2\n      sub\n      swap1\n      revert\n    tag_190:\n        /* \"sesi-1-liskgarden/contracts/20-LiskGarden.sol\":4419:4424  plant */\n      dup1\n        /* \"sesi-1-liskgarden/contracts/20-LiskGarden.sol\":4419:4431  plant.isDead */\n      0x04\n      add\n      0x02\n      swap1\n      sload\n      swap1\n      0x0100\n      exp\n      swap1\n      div\n      0xff\n      and\n        /* \"sesi-1-liskgarden/contracts/20-LiskGarden.sol\":4418:4431  !plant.isDead */\n      iszero\n        /* \"sesi-1-liskgarden/contracts/20-LiskGarden.sol\":4410:4455  require(!plant.isDead, \"Plant already dead!\") */\n      tag_192\n      jumpi\n      mload(0x40)\n      0x08c379a000000000000000000000000000000000000000000000000000000000\n      dup2\n      mstore\n      0x04\n      add\n      tag_193\n      swap1\n      tag_153\n      jump\t// in\n    tag_193:\n      mload(0x40)\n      dup1\n      swap2\n      sub\n      swap1\n      revert\n    tag_192:\n        /* \"sesi-1-liskgarden/contracts/20-LiskGarden.sol\":4468:4493  updatePlantStage(plantId) */\n      tag_194\n        /* \"sesi-1-liskgarden/contracts/20-LiskGarden.sol\":4485:4492  plantId */\n      dup3\n        /* \"sesi-1-liskgarden/contracts/20-LiskGarden.sol\":4468:4484  updatePlantStage */\n      tag_94\n        /* \"sesi-1-liskgarden/contracts/20-LiskGarden.sol\":4468:4493  updatePlantStage(plantId) */\n      jump\t// in\n    tag_194:\n        /* \"sesi-1-liskgarden/contracts/20-LiskGarden.sol\":4527:4547  GrowthStage.BLOOMING */\n      0x03\n        /* \"sesi-1-liskgarden/contracts/20-LiskGarden.sol\":4512:4547  plant.stage == GrowthStage.BLOOMING */\n      dup1\n      dup2\n      gt\n      iszero\n      tag_195\n      jumpi\n      tag_196\n      tag_128\n      jump\t// in\n    tag_196:\n    tag_195:\n        /* \"sesi-1-liskgarden/contracts/20-LiskGarden.sol\":4512:4517  plant */\n      dup2\n        /* \"sesi-1-liskgarden/contracts/20-LiskGarden.sol\":4512:4523  plant.stage */\n      0x01\n      add\n      0x14\n      swap1\n      sload\n      swap1\n      0x0100\n      exp\n      swap1\n      div\n      0xff\n      and\n        /* \"sesi-1-liskgarden/contracts/20-LiskGarden.sol\":4512:4547  plant.stage == GrowthStage.BLOOMING */\n      0x03\n      dup2\n      gt\n      iszero\n      tag_197\n      jumpi\n      tag_198\n      tag_128\n      jump\t// in\n    tag_198:\n    tag_197:\n      eq\n        /* \"sesi-1-liskgarden/contracts/20-LiskGarden.sol\":4504:4563  require(plant.stage == GrowthStage.BLOOMING, \"Belum mekar\") */\n      tag_199\n      jumpi\n      mload(0x40)\n      0x08c379a000000000000000000000000000000000000000000000000000000000\n      dup2\n      mstore\n      0x04\n      add\n      tag_200\n      swap1\n      tag_201\n      jump\t// in\n    tag_200:\n      mload(0x40)\n      dup1\n      swap2\n      sub\n      swap1\n      revert\n    tag_199:\n        /* \"sesi-1-liskgarden/contracts/20-LiskGarden.sol\":4591:4596  false */\n      0x00\n        /* \"sesi-1-liskgarden/contracts/20-LiskGarden.sol\":4576:4581  plant */\n      dup2\n        /* \"sesi-1-liskgarden/contracts/20-LiskGarden.sol\":4576:4588  plant.exists */\n      0x04\n      add\n      0x01\n        /* \"sesi-1-liskgarden/contracts/20-LiskGarden.sol\":4576:4596  plant.exists = false */\n      0x0100\n      exp\n      dup2\n      sload\n      dup2\n      0xff\n      mul\n      not\n      and\n      swap1\n      dup4\n      iszero\n      iszero\n      mul\n      or\n      swap1\n      sstore\n      pop\n        /* \"sesi-1-liskgarden/contracts/20-LiskGarden.sol\":4638:4648  msg.sender */\n      caller\n        /* \"sesi-1-liskgarden/contracts/20-LiskGarden.sol\":4614:4665  PlantHarvested(plantId, msg.sender, REWARD_HARVEST) */\n      0xffffffffffffffffffffffffffffffffffffffff\n      and\n        /* \"sesi-1-liskgarden/contracts/20-LiskGarden.sol\":4629:4636  plantId */\n      dup3\n        /* \"sesi-1-liskgarden/contracts/20-LiskGarden.sol\":4614:4665  PlantHarvested(plantId, msg.sender, REWARD_HARVEST) */\n      0x79f2138ea100070ff95b59c265da7aa3c7a0f61595fe1bb2f5fda2762f398847\n        /* \"sesi-1-liskgarden/contracts/20-LiskGarden.sol\":649:660  0.003 ether */\n      0x0aa87bee538000\n        /* \"sesi-1-liskgarden/contracts/20-LiskGarden.sol\":4614:4665  PlantHarvested(plantId, msg.sender, REWARD_HARVEST) */\n      mload(0x40)\n      tag_202\n      swap2\n      swap1\n      tag_39\n      jump\t// in\n    tag_202:\n      mload(0x40)\n      dup1\n      swap2\n      sub\n      swap1\n      log3\n        /* \"sesi-1-liskgarden/contracts/20-LiskGarden.sol\":4679:4691  bool success */\n      0x00\n        /* \"sesi-1-liskgarden/contracts/20-LiskGarden.sol\":4705:4715  msg.sender */\n      caller\n        /* \"sesi-1-liskgarden/contracts/20-LiskGarden.sol\":4697:4721  payable(msg.sender).call */\n      0xffffffffffffffffffffffffffffffffffffffff\n      and\n        /* \"sesi-1-liskgarden/contracts/20-LiskGarden.sol\":649:660  0.003 ether */\n      0x0aa87bee538000\n        /* \"sesi-1-liskgarden/contracts/20-LiskGarden.sol\":4697:4748  payable(msg.sender).call{value: REWARD_HARVEST}(\"\") */\n      mload(0x40)\n      tag_203\n      swap1\n      tag_113\n      jump\t// in\n    tag_203:\n      0x00\n      mload(0x40)\n      dup1\n      dup4\n      sub\n      dup2\n      dup6\n      dup8\n      gas\n      call\n      swap3\n      pop\n      pop\n      pop\n      returndatasize\n      dup1\n      0x00\n      dup2\n      eq\n      tag_206\n      jumpi\n      mload(0x40)\n      swap2\n      pop\n      and(add(returndatasize, 0x3f), not(0x1f))\n      dup3\n      add\n      0x40\n      mstore\n      returndatasize\n      dup3\n      mstore\n      returndatasize\n      0x00\n      0x20\n      dup5\n      add\n      returndatacopy\n      jump(tag_205)\n    tag_206:\n      0x60\n      swap2\n      pop\n    tag_205:\n      pop\n        /* \"sesi-1-liskgarden/contracts/20-LiskGarden.sol\":4678:4748  (bool success, ) = payable(msg.sender).call{value: REWARD_HARVEST}(\"\") */\n      pop\n      swap1\n      pop\n        /* \"sesi-1-liskgarden/contracts/20-LiskGarden.sol\":4767:4774  success */\n      dup1\n        /* \"sesi-1-liskgarden/contracts/20-LiskGarden.sol\":4759:4801  require(success, \"Failed sending reward!\") */\n      tag_207\n      jumpi\n      mload(0x40)\n      0x08c379a000000000000000000000000000000000000000000000000000000000\n      dup2\n      mstore\n      0x04\n      add\n      tag_208\n      swap1\n      tag_209\n      jump\t// in\n    tag_208:\n      mload(0x40)\n      dup1\n      swap2\n      sub\n      swap1\n      revert\n    tag_207:\n        /* \"sesi-1-liskgarden/contracts/20-LiskGarden.sol\":4224:4809  {... */\n      pop\n      pop\n        /* \"sesi-1-liskgarden/contracts/20-LiskGarden.sol\":4176:4809  function harvestPlant(uint256 plantId) external {... */\n      pop\n      jump\t// out\n        /* \"sesi-1-liskgarden/contracts/20-LiskGarden.sol\":4817:5038  function getPlant(uint256 _plantId) external view returns (Plant memory) {... */\n    tag_102:\n        /* \"sesi-1-liskgarden/contracts/20-LiskGarden.sol\":4876:4888  Plant memory */\n      tag_210\n      tag_211\n      jump\t// in\n    tag_210:\n        /* \"sesi-1-liskgarden/contracts/20-LiskGarden.sol\":4901:4919  Plant memory plant */\n      0x00\n        /* \"sesi-1-liskgarden/contracts/20-LiskGarden.sol\":4922:4928  plants */\n      0x00\n        /* \"sesi-1-liskgarden/contracts/20-LiskGarden.sol\":4922:4938  plants[_plantId] */\n      0x00\n        /* \"sesi-1-liskgarden/contracts/20-LiskGarden.sol\":4929:4937  _plantId */\n      dup5\n        /* \"sesi-1-liskgarden/contracts/20-LiskGarden.sol\":4922:4938  plants[_plantId] */\n      dup2\n      mstore\n      0x20\n      add\n      swap1\n      dup2\n      mstore\n      0x20\n      add\n      0x00\n      keccak256\n        /* \"sesi-1-liskgarden/contracts/20-LiskGarden.sol\":4901:4938  Plant memory plant = plants[_plantId] */\n      mload(0x40)\n      dup1\n      0x0100\n      add\n      0x40\n      mstore\n      swap1\n      dup2\n      0x00\n      dup3\n      add\n      sload\n      dup2\n      mstore\n      0x20\n      add\n      0x01\n      dup3\n      add\n      0x00\n      swap1\n      sload\n      swap1\n      0x0100\n      exp\n      swap1\n      div\n      0xffffffffffffffffffffffffffffffffffffffff\n      and\n      0xffffffffffffffffffffffffffffffffffffffff\n      and\n      0xffffffffffffffffffffffffffffffffffffffff\n      and\n      dup2\n      mstore\n      0x20\n      add\n      0x01\n      dup3\n      add\n      0x14\n      swap1\n      sload\n      swap1\n      0x0100\n      exp\n      swap1\n      div\n      0xff\n      and\n      0x03\n      dup2\n      gt\n      iszero\n      tag_213\n      jumpi\n      tag_214\n      tag_128\n      jump\t// in\n    tag_214:\n    tag_213:\n      0x03\n      dup2\n      gt\n      iszero\n      tag_215\n      jumpi\n      tag_216\n      tag_128\n      jump\t// in\n    tag_216:\n    tag_215:\n      dup2\n      mstore\n      0x20\n      add\n      0x02\n      dup3\n      add\n      sload\n      dup2\n      mstore\n      0x20\n      add\n      0x03\n      dup3\n      add\n      sload\n      dup2\n      mstore\n      0x20\n      add\n      0x04\n      dup3\n      add\n      0x00\n      swap1\n      sload\n      swap1\n      0x0100\n      exp\n      swap1\n      div\n      0xff\n      and\n      0xff\n      and\n      0xff\n      and\n      dup2\n      mstore\n      0x20\n      add\n      0x04\n      dup3\n      add\n      0x01\n      swap1\n      sload\n      swap1\n      0x0100\n      exp\n      swap1\n      div\n      0xff\n      and\n      iszero\n      iszero\n      iszero\n      iszero\n      dup2\n      mstore\n      0x20\n      add\n      0x04\n      dup3\n      add\n      0x02\n      swap1\n      sload\n      swap1\n      0x0100\n      exp\n      swap1\n      div\n      0xff\n      and\n      iszero\n      iszero\n      iszero\n      iszero\n      dup2\n      mstore\n      pop\n      pop\n      swap1\n      pop\n        /* \"sesi-1-liskgarden/contracts/20-LiskGarden.sol\":4968:4997  calculateWaterLevel(_plantId) */\n      tag_217\n        /* \"sesi-1-liskgarden/contracts/20-LiskGarden.sol\":4988:4996  _plantId */\n      dup4\n        /* \"sesi-1-liskgarden/contracts/20-LiskGarden.sol\":4968:4987  calculateWaterLevel */\n      tag_47\n        /* \"sesi-1-liskgarden/contracts/20-LiskGarden.sol\":4968:4997  calculateWaterLevel(_plantId) */\n      jump\t// in\n    tag_217:\n        /* \"sesi-1-liskgarden/contracts/20-LiskGarden.sol\":4949:4954  plant */\n      dup2\n        /* \"sesi-1-liskgarden/contracts/20-LiskGarden.sol\":4949:4965  plant.waterLevel */\n      0xa0\n      add\n        /* \"sesi-1-liskgarden/contracts/20-LiskGarden.sol\":4949:4997  plant.waterLevel = calculateWaterLevel(_plantId) */\n      swap1\n      0xff\n      and\n      swap1\n      dup2\n      0xff\n      and\n      dup2\n      mstore\n      pop\n      pop\n        /* \"sesi-1-liskgarden/contracts/20-LiskGarden.sol\":5025:5030  plant */\n      dup1\n        /* \"sesi-1-liskgarden/contracts/20-LiskGarden.sol\":5018:5030  return plant */\n      swap2\n      pop\n      pop\n        /* \"sesi-1-liskgarden/contracts/20-LiskGarden.sol\":4817:5038  function getPlant(uint256 _plantId) external view returns (Plant memory) {... */\n      swap2\n      swap1\n      pop\n      jump\t// out\n        /* \"sesi-1-liskgarden/contracts/20-LiskGarden.sol\":2489:2843  function updateWaterLevel (uint256 _plantId) internal {... */\n    tag_161:\n        /* \"sesi-1-liskgarden/contracts/20-LiskGarden.sol\":2554:2573  Plant storage plant */\n      0x00\n        /* \"sesi-1-liskgarden/contracts/20-LiskGarden.sol\":2576:2582  plants */\n      0x00\n        /* \"sesi-1-liskgarden/contracts/20-LiskGarden.sol\":2576:2592  plants[_plantId] */\n      0x00\n        /* \"sesi-1-liskgarden/contracts/20-LiskGarden.sol\":2583:2591  _plantId */\n      dup4\n        /* \"sesi-1-liskgarden/contracts/20-LiskGarden.sol\":2576:2592  plants[_plantId] */\n      dup2\n      mstore\n      0x20\n      add\n      swap1\n      dup2\n      mstore\n      0x20\n      add\n      0x00\n      keccak256\n        /* \"sesi-1-liskgarden/contracts/20-LiskGarden.sol\":2554:2592  Plant storage plant = plants[_plantId] */\n      swap1\n      pop\n        /* \"sesi-1-liskgarden/contracts/20-LiskGarden.sol\":2605:2623  uint8 currentWater */\n      0x00\n        /* \"sesi-1-liskgarden/contracts/20-LiskGarden.sol\":2626:2655  calculateWaterLevel(_plantId) */\n      tag_219\n        /* \"sesi-1-liskgarden/contracts/20-LiskGarden.sol\":2646:2654  _plantId */\n      dup4\n        /* \"sesi-1-liskgarden/contracts/20-LiskGarden.sol\":2626:2645  calculateWaterLevel */\n      tag_47\n        /* \"sesi-1-liskgarden/contracts/20-LiskGarden.sol\":2626:2655  calculateWaterLevel(_plantId) */\n      jump\t// in\n    tag_219:\n        /* \"sesi-1-liskgarden/contracts/20-LiskGarden.sol\":2605:2655  uint8 currentWater = calculateWaterLevel(_plantId) */\n      swap1\n      pop\n        /* \"sesi-1-liskgarden/contracts/20-LiskGarden.sol\":2687:2699  currentWater */\n      dup1\n        /* \"sesi-1-liskgarden/contracts/20-LiskGarden.sol\":2668:2673  plant */\n      dup3\n        /* \"sesi-1-liskgarden/contracts/20-LiskGarden.sol\":2668:2684  plant.waterLevel */\n      0x04\n      add\n      0x00\n        /* \"sesi-1-liskgarden/contracts/20-LiskGarden.sol\":2668:2699  plant.waterLevel = currentWater */\n      0x0100\n      exp\n      dup2\n      sload\n      dup2\n      0xff\n      mul\n      not\n      and\n      swap1\n      dup4\n      0xff\n      and\n      mul\n      or\n      swap1\n      sstore\n      pop\n        /* \"sesi-1-liskgarden/contracts/20-LiskGarden.sol\":2731:2732  0 */\n      0x00\n        /* \"sesi-1-liskgarden/contracts/20-LiskGarden.sol\":2715:2727  currentWater */\n      dup2\n        /* \"sesi-1-liskgarden/contracts/20-LiskGarden.sol\":2715:2732  currentWater == 0 */\n      0xff\n      and\n      eq\n        /* \"sesi-1-liskgarden/contracts/20-LiskGarden.sol\":2715:2749  currentWater == 0 && !plant.isDead */\n      dup1\n      iszero\n      tag_220\n      jumpi\n      pop\n        /* \"sesi-1-liskgarden/contracts/20-LiskGarden.sol\":2737:2742  plant */\n      dup2\n        /* \"sesi-1-liskgarden/contracts/20-LiskGarden.sol\":2737:2749  plant.isDead */\n      0x04\n      add\n      0x02\n      swap1\n      sload\n      swap1\n      0x0100\n      exp\n      swap1\n      div\n      0xff\n      and\n        /* \"sesi-1-liskgarden/contracts/20-LiskGarden.sol\":2736:2749  !plant.isDead */\n      iszero\n        /* \"sesi-1-liskgarden/contracts/20-LiskGarden.sol\":2715:2749  currentWater == 0 && !plant.isDead */\n    tag_220:\n        /* \"sesi-1-liskgarden/contracts/20-LiskGarden.sol\":2712:2836  if(currentWater == 0 && !plant.isDead) {... */\n      iszero\n      tag_221\n      jumpi\n        /* \"sesi-1-liskgarden/contracts/20-LiskGarden.sol\":2781:2785  true */\n      0x01\n        /* \"sesi-1-liskgarden/contracts/20-LiskGarden.sol\":2766:2771  plant */\n      dup3\n        /* \"sesi-1-liskgarden/contracts/20-LiskGarden.sol\":2766:2778  plant.isDead */\n      0x04\n      add\n      0x02\n        /* \"sesi-1-liskgarden/contracts/20-LiskGarden.sol\":2766:2785  plant.isDead = true */\n      0x0100\n      exp\n      dup2\n      sload\n      dup2\n      0xff\n      mul\n      not\n      and\n      swap1\n      dup4\n      iszero\n      iszero\n      mul\n      or\n      swap1\n      sstore\n      pop\n        /* \"sesi-1-liskgarden/contracts/20-LiskGarden.sol\":2815:2823  _plantId */\n      dup3\n        /* \"sesi-1-liskgarden/contracts/20-LiskGarden.sol\":2805:2824  PlantDied(_plantId) */\n      0xcc296a21951f3e57f21afb08547d835a0a9f0f06cc2867009cbe0cae44d36be9\n      mload(0x40)\n      mload(0x40)\n      dup1\n      swap2\n      sub\n      swap1\n      log2\n        /* \"sesi-1-liskgarden/contracts/20-LiskGarden.sol\":2712:2836  if(currentWater == 0 && !plant.isDead) {... */\n    tag_221:\n        /* \"sesi-1-liskgarden/contracts/20-LiskGarden.sol\":2543:2843  {... */\n      pop\n      pop\n        /* \"sesi-1-liskgarden/contracts/20-LiskGarden.sol\":2489:2843  function updateWaterLevel (uint256 _plantId) internal {... */\n      pop\n      jump\t// out\n    tag_211:\n      mload(0x40)\n      dup1\n      0x0100\n      add\n      0x40\n      mstore\n      dup1\n      0x00\n      dup2\n      mstore\n      0x20\n      add\n      and(0xffffffffffffffffffffffffffffffffffffffff, 0x00)\n      dup2\n      mstore\n      0x20\n      add\n      0x00\n      0x03\n      dup2\n      gt\n      iszero\n      tag_222\n      jumpi\n      tag_223\n      tag_128\n      jump\t// in\n    tag_223:\n    tag_222:\n      dup2\n      mstore\n      0x20\n      add\n      0x00\n      dup2\n      mstore\n      0x20\n      add\n      0x00\n      dup2\n      mstore\n      0x20\n      add\n      and(0xff, 0x00)\n      dup2\n      mstore\n      0x20\n      add\n      iszero(iszero(0x00))\n      dup2\n      mstore\n      0x20\n      add\n      iszero(iszero(0x00))\n      dup2\n      mstore\n      pop\n      swap1\n      jump\t// out\n        /* \"#utility.yul\":88:205   */\n    tag_225:\n        /* \"#utility.yul\":197:198   */\n      0x00\n        /* \"#utility.yul\":194:195   */\n      0x00\n        /* \"#utility.yul\":187:199   */\n      revert\n        /* \"#utility.yul\":334:460   */\n    tag_227:\n        /* \"#utility.yul\":371:378   */\n      0x00\n        /* \"#utility.yul\":411:453   */\n      0xffffffffffffffffffffffffffffffffffffffff\n        /* \"#utility.yul\":404:409   */\n      dup3\n        /* \"#utility.yul\":400:454   */\n      and\n        /* \"#utility.yul\":389:454   */\n      swap1\n      pop\n        /* \"#utility.yul\":334:460   */\n      swap2\n      swap1\n      pop\n      jump\t// out\n        /* \"#utility.yul\":466:562   */\n    tag_228:\n        /* \"#utility.yul\":503:510   */\n      0x00\n        /* \"#utility.yul\":532:556   */\n      tag_286\n        /* \"#utility.yul\":550:555   */\n      dup3\n        /* \"#utility.yul\":532:556   */\n      tag_227\n      jump\t// in\n    tag_286:\n        /* \"#utility.yul\":521:556   */\n      swap1\n      pop\n        /* \"#utility.yul\":466:562   */\n      swap2\n      swap1\n      pop\n      jump\t// out\n        /* \"#utility.yul\":568:690   */\n    tag_229:\n        /* \"#utility.yul\":641:665   */\n      tag_288\n        /* \"#utility.yul\":659:664   */\n      dup2\n        /* \"#utility.yul\":641:665   */\n      tag_228\n      jump\t// in\n    tag_288:\n        /* \"#utility.yul\":634:639   */\n      dup2\n        /* \"#utility.yul\":631:666   */\n      eq\n        /* \"#utility.yul\":621:684   */\n      tag_289\n      jumpi\n        /* \"#utility.yul\":680:681   */\n      0x00\n        /* \"#utility.yul\":677:678   */\n      0x00\n        /* \"#utility.yul\":670:682   */\n      revert\n        /* \"#utility.yul\":621:684   */\n    tag_289:\n        /* \"#utility.yul\":568:690   */\n      pop\n      jump\t// out\n        /* \"#utility.yul\":696:835   */\n    tag_230:\n        /* \"#utility.yul\":742:747   */\n      0x00\n        /* \"#utility.yul\":780:786   */\n      dup2\n        /* \"#utility.yul\":767:787   */\n      calldataload\n        /* \"#utility.yul\":758:787   */\n      swap1\n      pop\n        /* \"#utility.yul\":796:829   */\n      tag_291\n        /* \"#utility.yul\":823:828   */\n      dup2\n        /* \"#utility.yul\":796:829   */\n      tag_229\n      jump\t// in\n    tag_291:\n        /* \"#utility.yul\":696:835   */\n      swap3\n      swap2\n      pop\n      pop\n      jump\t// out\n        /* \"#utility.yul\":841:1170   */\n    tag_28:\n        /* \"#utility.yul\":900:906   */\n      0x00\n        /* \"#utility.yul\":949:951   */\n      0x20\n        /* \"#utility.yul\":937:946   */\n      dup3\n        /* \"#utility.yul\":928:935   */\n      dup5\n        /* \"#utility.yul\":924:947   */\n      sub\n        /* \"#utility.yul\":920:952   */\n      slt\n        /* \"#utility.yul\":917:1036   */\n      iszero\n      tag_293\n      jumpi\n        /* \"#utility.yul\":955:1034   */\n      tag_294\n      tag_225\n      jump\t// in\n    tag_294:\n        /* \"#utility.yul\":917:1036   */\n    tag_293:\n        /* \"#utility.yul\":1075:1076   */\n      0x00\n        /* \"#utility.yul\":1100:1153   */\n      tag_295\n        /* \"#utility.yul\":1145:1152   */\n      dup5\n        /* \"#utility.yul\":1136:1142   */\n      dup3\n        /* \"#utility.yul\":1125:1134   */\n      dup6\n        /* \"#utility.yul\":1121:1143   */\n      add\n        /* \"#utility.yul\":1100:1153   */\n      tag_230\n      jump\t// in\n    tag_295:\n        /* \"#utility.yul\":1090:1153   */\n      swap2\n      pop\n        /* \"#utility.yul\":1046:1163   */\n      pop\n        /* \"#utility.yul\":841:1170   */\n      swap3\n      swap2\n      pop\n      pop\n      jump\t// out\n        /* \"#utility.yul\":1176:1290   */\n    tag_231:\n        /* \"#utility.yul\":1243:1249   */\n      0x00\n        /* \"#utility.yul\":1277:1282   */\n      dup2\n        /* \"#utility.yul\":1271:1283   */\n      mload\n        /* \"#utility.yul\":1261:1283   */\n      swap1\n      pop\n        /* \"#utility.yul\":1176:1290   */\n      swap2\n      swap1\n      pop\n      jump\t// out\n        /* \"#utility.yul\":1296:1480   */\n    tag_232:\n        /* \"#utility.yul\":1395:1406   */\n      0x00\n        /* \"#utility.yul\":1429:1435   */\n      dup3\n        /* \"#utility.yul\":1424:1427   */\n      dup3\n        /* \"#utility.yul\":1417:1436   */\n      mstore\n        /* \"#utility.yul\":1469:1473   */\n      0x20\n        /* \"#utility.yul\":1464:1467   */\n      dup3\n        /* \"#utility.yul\":1460:1474   */\n      add\n        /* \"#utility.yul\":1445:1474   */\n      swap1\n      pop\n        /* \"#utility.yul\":1296:1480   */\n      swap3\n      swap2\n      pop\n      pop\n      jump\t// out\n        /* \"#utility.yul\":1486:1618   */\n    tag_233:\n        /* \"#utility.yul\":1553:1557   */\n      0x00\n        /* \"#utility.yul\":1576:1579   */\n      dup2\n        /* \"#utility.yul\":1568:1579   */\n      swap1\n      pop\n        /* \"#utility.yul\":1606:1610   */\n      0x20\n        /* \"#utility.yul\":1601:1604   */\n      dup3\n        /* \"#utility.yul\":1597:1611   */\n      add\n        /* \"#utility.yul\":1589:1611   */\n      swap1\n      pop\n        /* \"#utility.yul\":1486:1618   */\n      swap2\n      swap1\n      pop\n      jump\t// out\n        /* \"#utility.yul\":1624:1701   */\n    tag_234:\n        /* \"#utility.yul\":1661:1668   */\n      0x00\n        /* \"#utility.yul\":1690:1695   */\n      dup2\n        /* \"#utility.yul\":1679:1695   */\n      swap1\n      pop\n        /* \"#utility.yul\":1624:1701   */\n      swap2\n      swap1\n      pop\n      jump\t// out\n        /* \"#utility.yul\":1707:1815   */\n    tag_235:\n        /* \"#utility.yul\":1784:1808   */\n      tag_301\n        /* \"#utility.yul\":1802:1807   */\n      dup2\n        /* \"#utility.yul\":1784:1808   */\n      tag_234\n      jump\t// in\n    tag_301:\n        /* \"#utility.yul\":1779:1782   */\n      dup3\n        /* \"#utility.yul\":1772:1809   */\n      mstore\n        /* \"#utility.yul\":1707:1815   */\n      pop\n      pop\n      jump\t// out\n        /* \"#utility.yul\":1821:2000   */\n    tag_236:\n        /* \"#utility.yul\":1890:1900   */\n      0x00\n        /* \"#utility.yul\":1911:1957   */\n      tag_303\n        /* \"#utility.yul\":1953:1956   */\n      dup4\n        /* \"#utility.yul\":1945:1951   */\n      dup4\n        /* \"#utility.yul\":1911:1957   */\n      tag_235\n      jump\t// in\n    tag_303:\n        /* \"#utility.yul\":1989:1993   */\n      0x20\n        /* \"#utility.yul\":1984:1987   */\n      dup4\n        /* \"#utility.yul\":1980:1994   */\n      add\n        /* \"#utility.yul\":1966:1994   */\n      swap1\n      pop\n        /* \"#utility.yul\":1821:2000   */\n      swap3\n      swap2\n      pop\n      pop\n      jump\t// out\n        /* \"#utility.yul\":2006:2119   */\n    tag_237:\n        /* \"#utility.yul\":2076:2080   */\n      0x00\n        /* \"#utility.yul\":2108:2112   */\n      0x20\n        /* \"#utility.yul\":2103:2106   */\n      dup3\n        /* \"#utility.yul\":2099:2113   */\n      add\n        /* \"#utility.yul\":2091:2113   */\n      swap1\n      pop\n        /* \"#utility.yul\":2006:2119   */\n      swap2\n      swap1\n      pop\n      jump\t// out\n        /* \"#utility.yul\":2155:2887   */\n    tag_238:\n        /* \"#utility.yul\":2274:2277   */\n      0x00\n        /* \"#utility.yul\":2303:2357   */\n      tag_306\n        /* \"#utility.yul\":2351:2356   */\n      dup3\n        /* \"#utility.yul\":2303:2357   */\n      tag_231\n      jump\t// in\n    tag_306:\n        /* \"#utility.yul\":2373:2459   */\n      tag_307\n        /* \"#utility.yul\":2452:2458   */\n      dup2\n        /* \"#utility.yul\":2447:2450   */\n      dup6\n        /* \"#utility.yul\":2373:2459   */\n      tag_232\n      jump\t// in\n    tag_307:\n        /* \"#utility.yul\":2366:2459   */\n      swap4\n      pop\n        /* \"#utility.yul\":2483:2539   */\n      tag_308\n        /* \"#utility.yul\":2533:2538   */\n      dup4\n        /* \"#utility.yul\":2483:2539   */\n      tag_233\n      jump\t// in\n    tag_308:\n        /* \"#utility.yul\":2562:2569   */\n      dup1\n        /* \"#utility.yul\":2593:2594   */\n      0x00\n        /* \"#utility.yul\":2578:2862   */\n    tag_309:\n        /* \"#utility.yul\":2603:2609   */\n      dup4\n        /* \"#utility.yul\":2600:2601   */\n      dup2\n        /* \"#utility.yul\":2597:2610   */\n      lt\n        /* \"#utility.yul\":2578:2862   */\n      iszero\n      tag_311\n      jumpi\n        /* \"#utility.yul\":2679:2685   */\n      dup2\n        /* \"#utility.yul\":2673:2686   */\n      mload\n        /* \"#utility.yul\":2706:2769   */\n      tag_312\n        /* \"#utility.yul\":2765:2768   */\n      dup9\n        /* \"#utility.yul\":2750:2763   */\n      dup3\n        /* \"#utility.yul\":2706:2769   */\n      tag_236\n      jump\t// in\n    tag_312:\n        /* \"#utility.yul\":2699:2769   */\n      swap8\n      pop\n        /* \"#utility.yul\":2792:2852   */\n      tag_313\n        /* \"#utility.yul\":2845:2851   */\n      dup4\n        /* \"#utility.yul\":2792:2852   */\n      tag_237\n      jump\t// in\n    tag_313:\n        /* \"#utility.yul\":2782:2852   */\n      swap3\n      pop\n        /* \"#utility.yul\":2638:2862   */\n      pop\n        /* \"#utility.yul\":2625:2626   */\n      0x01\n        /* \"#utility.yul\":2622:2623   */\n      dup2\n        /* \"#utility.yul\":2618:2627   */\n      add\n        /* \"#utility.yul\":2613:2627   */\n      swap1\n      pop\n        /* \"#utility.yul\":2578:2862   */\n      jump(tag_309)\n    tag_311:\n        /* \"#utility.yul\":2582:2596   */\n      pop\n        /* \"#utility.yul\":2878:2881   */\n      dup6\n        /* \"#utility.yul\":2871:2881   */\n      swap4\n      pop\n        /* \"#utility.yul\":2279:2887   */\n      pop\n      pop\n      pop\n        /* \"#utility.yul\":2155:2887   */\n      swap3\n      swap2\n      pop\n      pop\n      jump\t// out\n        /* \"#utility.yul\":2893:3266   */\n    tag_31:\n        /* \"#utility.yul\":3036:3040   */\n      0x00\n        /* \"#utility.yul\":3074:3076   */\n      0x20\n        /* \"#utility.yul\":3063:3072   */\n      dup3\n        /* \"#utility.yul\":3059:3077   */\n      add\n        /* \"#utility.yul\":3051:3077   */\n      swap1\n      pop\n        /* \"#utility.yul\":3123:3132   */\n      dup2\n        /* \"#utility.yul\":3117:3121   */\n      dup2\n        /* \"#utility.yul\":3113:3133   */\n      sub\n        /* \"#utility.yul\":3109:3110   */\n      0x00\n        /* \"#utility.yul\":3098:3107   */\n      dup4\n        /* \"#utility.yul\":3094:3111   */\n      add\n        /* \"#utility.yul\":3087:3134   */\n      mstore\n        /* \"#utility.yul\":3151:3259   */\n      tag_315\n        /* \"#utility.yul\":3254:3258   */\n      dup2\n        /* \"#utility.yul\":3245:3251   */\n      dup5\n        /* \"#utility.yul\":3151:3259   */\n      tag_238\n      jump\t// in\n    tag_315:\n        /* \"#utility.yul\":3143:3259   */\n      swap1\n      pop\n        /* \"#utility.yul\":2893:3266   */\n      swap3\n      swap2\n      pop\n      pop\n      jump\t// out\n        /* \"#utility.yul\":3272:3390   */\n    tag_239:\n        /* \"#utility.yul\":3359:3383   */\n      tag_317\n        /* \"#utility.yul\":3377:3382   */\n      dup2\n        /* \"#utility.yul\":3359:3383   */\n      tag_234\n      jump\t// in\n    tag_317:\n        /* \"#utility.yul\":3354:3357   */\n      dup3\n        /* \"#utility.yul\":3347:3384   */\n      mstore\n        /* \"#utility.yul\":3272:3390   */\n      pop\n      pop\n      jump\t// out\n        /* \"#utility.yul\":3396:3618   */\n    tag_39:\n        /* \"#utility.yul\":3489:3493   */\n      0x00\n        /* \"#utility.yul\":3527:3529   */\n      0x20\n        /* \"#utility.yul\":3516:3525   */\n      dup3\n        /* \"#utility.yul\":3512:3530   */\n      add\n        /* \"#utility.yul\":3504:3530   */\n      swap1\n      pop\n        /* \"#utility.yul\":3540:3611   */\n      tag_319\n        /* \"#utility.yul\":3608:3609   */\n      0x00\n        /* \"#utility.yul\":3597:3606   */\n      dup4\n        /* \"#utility.yul\":3593:3610   */\n      add\n        /* \"#utility.yul\":3584:3590   */\n      dup5\n        /* \"#utility.yul\":3540:3611   */\n      tag_239\n      jump\t// in\n    tag_319:\n        /* \"#utility.yul\":3396:3618   */\n      swap3\n      swap2\n      pop\n      pop\n      jump\t// out\n        /* \"#utility.yul\":3624:3746   */\n    tag_240:\n        /* \"#utility.yul\":3697:3721   */\n      tag_321\n        /* \"#utility.yul\":3715:3720   */\n      dup2\n        /* \"#utility.yul\":3697:3721   */\n      tag_234\n      jump\t// in\n    tag_321:\n        /* \"#utility.yul\":3690:3695   */\n      dup2\n        /* \"#utility.yul\":3687:3722   */\n      eq\n        /* \"#utility.yul\":3677:3740   */\n      tag_322\n      jumpi\n        /* \"#utility.yul\":3736:3737   */\n      0x00\n        /* \"#utility.yul\":3733:3734   */\n      0x00\n        /* \"#utility.yul\":3726:3738   */\n      revert\n        /* \"#utility.yul\":3677:3740   */\n    tag_322:\n        /* \"#utility.yul\":3624:3746   */\n      pop\n      jump\t// out\n        /* \"#utility.yul\":3752:3891   */\n    tag_241:\n        /* \"#utility.yul\":3798:3803   */\n      0x00\n        /* \"#utility.yul\":3836:3842   */\n      dup2\n        /* \"#utility.yul\":3823:3843   */\n      calldataload\n        /* \"#utility.yul\":3814:3843   */\n      swap1\n      pop\n        /* \"#utility.yul\":3852:3885   */\n      tag_324\n        /* \"#utility.yul\":3879:3884   */\n      dup2\n        /* \"#utility.yul\":3852:3885   */\n      tag_240\n      jump\t// in\n    tag_324:\n        /* \"#utility.yul\":3752:3891   */\n      swap3\n      swap2\n      pop\n      pop\n      jump\t// out\n        /* \"#utility.yul\":3897:4226   */\n    tag_46:\n        /* \"#utility.yul\":3956:3962   */\n      0x00\n        /* \"#utility.yul\":4005:4007   */\n      0x20\n        /* \"#utility.yul\":3993:4002   */\n      dup3\n        /* \"#utility.yul\":3984:3991   */\n      dup5\n        /* \"#utility.yul\":3980:4003   */\n      sub\n        /* \"#utility.yul\":3976:4008   */\n      slt\n        /* \"#utility.yul\":3973:4092   */\n      iszero\n      tag_326\n      jumpi\n        /* \"#utility.yul\":4011:4090   */\n      tag_327\n      tag_225\n      jump\t// in\n    tag_327:\n        /* \"#utility.yul\":3973:4092   */\n    tag_326:\n        /* \"#utility.yul\":4131:4132   */\n      0x00\n        /* \"#utility.yul\":4156:4209   */\n      tag_328\n        /* \"#utility.yul\":4201:4208   */\n      dup5\n        /* \"#utility.yul\":4192:4198   */\n      dup3\n        /* \"#utility.yul\":4181:4190   */\n      dup6\n        /* \"#utility.yul\":4177:4199   */\n      add\n        /* \"#utility.yul\":4156:4209   */\n      tag_241\n      jump\t// in\n    tag_328:\n        /* \"#utility.yul\":4146:4209   */\n      swap2\n      pop\n        /* \"#utility.yul\":4102:4219   */\n      pop\n        /* \"#utility.yul\":3897:4226   */\n      swap3\n      swap2\n      pop\n      pop\n      jump\t// out\n        /* \"#utility.yul\":4232:4318   */\n    tag_242:\n        /* \"#utility.yul\":4267:4274   */\n      0x00\n        /* \"#utility.yul\":4307:4311   */\n      0xff\n        /* \"#utility.yul\":4300:4305   */\n      dup3\n        /* \"#utility.yul\":4296:4312   */\n      and\n        /* \"#utility.yul\":4285:4312   */\n      swap1\n      pop\n        /* \"#utility.yul\":4232:4318   */\n      swap2\n      swap1\n      pop\n      jump\t// out\n        /* \"#utility.yul\":4324:4436   */\n    tag_243:\n        /* \"#utility.yul\":4407:4429   */\n      tag_331\n        /* \"#utility.yul\":4423:4428   */\n      dup2\n        /* \"#utility.yul\":4407:4429   */\n      tag_242\n      jump\t// in\n    tag_331:\n        /* \"#utility.yul\":4402:4405   */\n      dup3\n        /* \"#utility.yul\":4395:4430   */\n      mstore\n        /* \"#utility.yul\":4324:4436   */\n      pop\n      pop\n      jump\t// out\n        /* \"#utility.yul\":4442:4656   */\n    tag_49:\n        /* \"#utility.yul\":4531:4535   */\n      0x00\n        /* \"#utility.yul\":4569:4571   */\n      0x20\n        /* \"#utility.yul\":4558:4567   */\n      dup3\n        /* \"#utility.yul\":4554:4572   */\n      add\n        /* \"#utility.yul\":4546:4572   */\n      swap1\n      pop\n        /* \"#utility.yul\":4582:4649   */\n      tag_333\n        /* \"#utility.yul\":4646:4647   */\n      0x00\n        /* \"#utility.yul\":4635:4644   */\n      dup4\n        /* \"#utility.yul\":4631:4648   */\n      add\n        /* \"#utility.yul\":4622:4628   */\n      dup5\n        /* \"#utility.yul\":4582:4649   */\n      tag_243\n      jump\t// in\n    tag_333:\n        /* \"#utility.yul\":4442:4656   */\n      swap3\n      swap2\n      pop\n      pop\n      jump\t// out\n        /* \"#utility.yul\":4662:5136   */\n    tag_57:\n        /* \"#utility.yul\":4730:4736   */\n      0x00\n        /* \"#utility.yul\":4738:4744   */\n      0x00\n        /* \"#utility.yul\":4787:4789   */\n      0x40\n        /* \"#utility.yul\":4775:4784   */\n      dup4\n        /* \"#utility.yul\":4766:4773   */\n      dup6\n        /* \"#utility.yul\":4762:4785   */\n      sub\n        /* \"#utility.yul\":4758:4790   */\n      slt\n        /* \"#utility.yul\":4755:4874   */\n      iszero\n      tag_335\n      jumpi\n        /* \"#utility.yul\":4793:4872   */\n      tag_336\n      tag_225\n      jump\t// in\n    tag_336:\n        /* \"#utility.yul\":4755:4874   */\n    tag_335:\n        /* \"#utility.yul\":4913:4914   */\n      0x00\n        /* \"#utility.yul\":4938:4991   */\n      tag_337\n        /* \"#utility.yul\":4983:4990   */\n      dup6\n        /* \"#utility.yul\":4974:4980   */\n      dup3\n        /* \"#utility.yul\":4963:4972   */\n      dup7\n        /* \"#utility.yul\":4959:4981   */\n      add\n        /* \"#utility.yul\":4938:4991   */\n      tag_230\n      jump\t// in\n    tag_337:\n        /* \"#utility.yul\":4928:4991   */\n      swap3\n      pop\n        /* \"#utility.yul\":4884:5001   */\n      pop\n        /* \"#utility.yul\":5040:5042   */\n      0x20\n        /* \"#utility.yul\":5066:5119   */\n      tag_338\n        /* \"#utility.yul\":5111:5118   */\n      dup6\n        /* \"#utility.yul\":5102:5108   */\n      dup3\n        /* \"#utility.yul\":5091:5100   */\n      dup7\n        /* \"#utility.yul\":5087:5109   */\n      add\n        /* \"#utility.yul\":5066:5119   */\n      tag_241\n      jump\t// in\n    tag_338:\n        /* \"#utility.yul\":5056:5119   */\n      swap2\n      pop\n        /* \"#utility.yul\":5011:5129   */\n      pop\n        /* \"#utility.yul\":4662:5136   */\n      swap3\n      pop\n      swap3\n      swap1\n      pop\n      jump\t// out\n        /* \"#utility.yul\":5142:5260   */\n    tag_244:\n        /* \"#utility.yul\":5229:5253   */\n      tag_340\n        /* \"#utility.yul\":5247:5252   */\n      dup2\n        /* \"#utility.yul\":5229:5253   */\n      tag_228\n      jump\t// in\n    tag_340:\n        /* \"#utility.yul\":5224:5227   */\n      dup3\n        /* \"#utility.yul\":5217:5254   */\n      mstore\n        /* \"#utility.yul\":5142:5260   */\n      pop\n      pop\n      jump\t// out\n        /* \"#utility.yul\":5266:5488   */\n    tag_64:\n        /* \"#utility.yul\":5359:5363   */\n      0x00\n        /* \"#utility.yul\":5397:5399   */\n      0x20\n        /* \"#utility.yul\":5386:5395   */\n      dup3\n        /* \"#utility.yul\":5382:5400   */\n      add\n        /* \"#utility.yul\":5374:5400   */\n      swap1\n      pop\n        /* \"#utility.yul\":5410:5481   */\n      tag_342\n        /* \"#utility.yul\":5478:5479   */\n      0x00\n        /* \"#utility.yul\":5467:5476   */\n      dup4\n        /* \"#utility.yul\":5463:5480   */\n      add\n        /* \"#utility.yul\":5454:5460   */\n      dup5\n        /* \"#utility.yul\":5410:5481   */\n      tag_244\n      jump\t// in\n    tag_342:\n        /* \"#utility.yul\":5266:5488   */\n      swap3\n      swap2\n      pop\n      pop\n      jump\t// out\n        /* \"#utility.yul\":5494:5674   */\n    tag_128:\n        /* \"#utility.yul\":5542:5619   */\n      0x4e487b7100000000000000000000000000000000000000000000000000000000\n        /* \"#utility.yul\":5539:5540   */\n      0x00\n        /* \"#utility.yul\":5532:5620   */\n      mstore\n        /* \"#utility.yul\":5639:5643   */\n      0x21\n        /* \"#utility.yul\":5636:5637   */\n      0x04\n        /* \"#utility.yul\":5629:5644   */\n      mstore\n        /* \"#utility.yul\":5663:5667   */\n      0x24\n        /* \"#utility.yul\":5660:5661   */\n      0x00\n        /* \"#utility.yul\":5653:5668   */\n      revert\n        /* \"#utility.yul\":5680:5798   */\n    tag_245:\n        /* \"#utility.yul\":5766:5767   */\n      0x04\n        /* \"#utility.yul\":5759:5764   */\n      dup2\n        /* \"#utility.yul\":5756:5768   */\n      lt\n        /* \"#utility.yul\":5746:5792   */\n      tag_345\n      jumpi\n        /* \"#utility.yul\":5772:5790   */\n      tag_346\n      tag_128\n      jump\t// in\n    tag_346:\n        /* \"#utility.yul\":5746:5792   */\n    tag_345:\n        /* \"#utility.yul\":5680:5798   */\n      pop\n      jump\t// out\n        /* \"#utility.yul\":5804:5941   */\n    tag_246:\n        /* \"#utility.yul\":5854:5861   */\n      0x00\n        /* \"#utility.yul\":5883:5888   */\n      dup2\n        /* \"#utility.yul\":5872:5888   */\n      swap1\n      pop\n        /* \"#utility.yul\":5889:5935   */\n      tag_348\n        /* \"#utility.yul\":5929:5934   */\n      dup3\n        /* \"#utility.yul\":5889:5935   */\n      tag_245\n      jump\t// in\n    tag_348:\n        /* \"#utility.yul\":5804:5941   */\n      swap2\n      swap1\n      pop\n      jump\t// out\n        /* \"#utility.yul\":5947:6084   */\n    tag_247:\n        /* \"#utility.yul\":6008:6017   */\n      0x00\n        /* \"#utility.yul\":6041:6078   */\n      tag_350\n        /* \"#utility.yul\":6072:6077   */\n      dup3\n        /* \"#utility.yul\":6041:6078   */\n      tag_246\n      jump\t// in\n    tag_350:\n        /* \"#utility.yul\":6028:6078   */\n      swap1\n      pop\n        /* \"#utility.yul\":5947:6084   */\n      swap2\n      swap1\n      pop\n      jump\t// out\n        /* \"#utility.yul\":6090:6243   */\n    tag_248:\n        /* \"#utility.yul\":6188:6236   */\n      tag_352\n        /* \"#utility.yul\":6230:6235   */\n      dup2\n        /* \"#utility.yul\":6188:6236   */\n      tag_247\n      jump\t// in\n    tag_352:\n        /* \"#utility.yul\":6183:6186   */\n      dup3\n        /* \"#utility.yul\":6176:6237   */\n      mstore\n        /* \"#utility.yul\":6090:6243   */\n      pop\n      pop\n      jump\t// out\n        /* \"#utility.yul\":6249:6339   */\n    tag_249:\n        /* \"#utility.yul\":6283:6290   */\n      0x00\n        /* \"#utility.yul\":6326:6331   */\n      dup2\n        /* \"#utility.yul\":6319:6332   */\n      iszero\n        /* \"#utility.yul\":6312:6333   */\n      iszero\n        /* \"#utility.yul\":6301:6333   */\n      swap1\n      pop\n        /* \"#utility.yul\":6249:6339   */\n      swap2\n      swap1\n      pop\n      jump\t// out\n        /* \"#utility.yul\":6345:6454   */\n    tag_250:\n        /* \"#utility.yul\":6426:6447   */\n      tag_355\n        /* \"#utility.yul\":6441:6446   */\n      dup2\n        /* \"#utility.yul\":6426:6447   */\n      tag_249\n      jump\t// in\n    tag_355:\n        /* \"#utility.yul\":6421:6424   */\n      dup3\n        /* \"#utility.yul\":6414:6448   */\n      mstore\n        /* \"#utility.yul\":6345:6454   */\n      pop\n      pop\n      jump\t// out\n        /* \"#utility.yul\":6460:7447   */\n    tag_70:\n        /* \"#utility.yul\":6744:6748   */\n      0x00\n        /* \"#utility.yul\":6782:6785   */\n      0x0100\n        /* \"#utility.yul\":6771:6780   */\n      dup3\n        /* \"#utility.yul\":6767:6786   */\n      add\n        /* \"#utility.yul\":6759:6786   */\n      swap1\n      pop\n        /* \"#utility.yul\":6796:6867   */\n      tag_357\n        /* \"#utility.yul\":6864:6865   */\n      0x00\n        /* \"#utility.yul\":6853:6862   */\n      dup4\n        /* \"#utility.yul\":6849:6866   */\n      add\n        /* \"#utility.yul\":6840:6846   */\n      dup12\n        /* \"#utility.yul\":6796:6867   */\n      tag_239\n      jump\t// in\n    tag_357:\n        /* \"#utility.yul\":6877:6949   */\n      tag_358\n        /* \"#utility.yul\":6945:6947   */\n      0x20\n        /* \"#utility.yul\":6934:6943   */\n      dup4\n        /* \"#utility.yul\":6930:6948   */\n      add\n        /* \"#utility.yul\":6921:6927   */\n      dup11\n        /* \"#utility.yul\":6877:6949   */\n      tag_244\n      jump\t// in\n    tag_358:\n        /* \"#utility.yul\":6959:7042   */\n      tag_359\n        /* \"#utility.yul\":7038:7040   */\n      0x40\n        /* \"#utility.yul\":7027:7036   */\n      dup4\n        /* \"#utility.yul\":7023:7041   */\n      add\n        /* \"#utility.yul\":7014:7020   */\n      dup10\n        /* \"#utility.yul\":6959:7042   */\n      tag_248\n      jump\t// in\n    tag_359:\n        /* \"#utility.yul\":7052:7124   */\n      tag_360\n        /* \"#utility.yul\":7120:7122   */\n      0x60\n        /* \"#utility.yul\":7109:7118   */\n      dup4\n        /* \"#utility.yul\":7105:7123   */\n      add\n        /* \"#utility.yul\":7096:7102   */\n      dup9\n        /* \"#utility.yul\":7052:7124   */\n      tag_239\n      jump\t// in\n    tag_360:\n        /* \"#utility.yul\":7134:7207   */\n      tag_361\n        /* \"#utility.yul\":7202:7205   */\n      0x80\n        /* \"#utility.yul\":7191:7200   */\n      dup4\n        /* \"#utility.yul\":7187:7206   */\n      add\n        /* \"#utility.yul\":7178:7184   */\n      dup8\n        /* \"#utility.yul\":7134:7207   */\n      tag_239\n      jump\t// in\n    tag_361:\n        /* \"#utility.yul\":7217:7286   */\n      tag_362\n        /* \"#utility.yul\":7281:7284   */\n      0xa0\n        /* \"#utility.yul\":7270:7279   */\n      dup4\n        /* \"#utility.yul\":7266:7285   */\n      add\n        /* \"#utility.yul\":7257:7263   */\n      dup7\n        /* \"#utility.yul\":7217:7286   */\n      tag_243\n      jump\t// in\n    tag_362:\n        /* \"#utility.yul\":7296:7363   */\n      tag_363\n        /* \"#utility.yul\":7358:7361   */\n      0xc0\n        /* \"#utility.yul\":7347:7356   */\n      dup4\n        /* \"#utility.yul\":7343:7362   */\n      add\n        /* \"#utility.yul\":7334:7340   */\n      dup6\n        /* \"#utility.yul\":7296:7363   */\n      tag_250\n      jump\t// in\n    tag_363:\n        /* \"#utility.yul\":7373:7440   */\n      tag_364\n        /* \"#utility.yul\":7435:7438   */\n      0xe0\n        /* \"#utility.yul\":7424:7433   */\n      dup4\n        /* \"#utility.yul\":7420:7439   */\n      add\n        /* \"#utility.yul\":7411:7417   */\n      dup5\n        /* \"#utility.yul\":7373:7440   */\n      tag_250\n      jump\t// in\n    tag_364:\n        /* \"#utility.yul\":6460:7447   */\n      swap10\n      swap9\n      pop\n      pop\n      pop\n      pop\n      pop\n      pop\n      pop\n      pop\n      pop\n      jump\t// out\n        /* \"#utility.yul\":7453:7561   */\n    tag_251:\n        /* \"#utility.yul\":7530:7554   */\n      tag_366\n        /* \"#utility.yul\":7548:7553   */\n      dup2\n        /* \"#utility.yul\":7530:7554   */\n      tag_228\n      jump\t// in\n    tag_366:\n        /* \"#utility.yul\":7525:7528   */\n      dup3\n        /* \"#utility.yul\":7518:7555   */\n      mstore\n        /* \"#utility.yul\":7453:7561   */\n      pop\n      pop\n      jump\t// out\n        /* \"#utility.yul\":7567:7710   */\n    tag_252:\n        /* \"#utility.yul\":7655:7703   */\n      tag_368\n        /* \"#utility.yul\":7697:7702   */\n      dup2\n        /* \"#utility.yul\":7655:7703   */\n      tag_247\n      jump\t// in\n    tag_368:\n        /* \"#utility.yul\":7650:7653   */\n      dup3\n        /* \"#utility.yul\":7643:7704   */\n      mstore\n        /* \"#utility.yul\":7567:7710   */\n      pop\n      pop\n      jump\t// out\n        /* \"#utility.yul\":7716:7818   */\n    tag_253:\n        /* \"#utility.yul\":7789:7811   */\n      tag_370\n        /* \"#utility.yul\":7805:7810   */\n      dup2\n        /* \"#utility.yul\":7789:7811   */\n      tag_242\n      jump\t// in\n    tag_370:\n        /* \"#utility.yul\":7784:7787   */\n      dup3\n        /* \"#utility.yul\":7777:7812   */\n      mstore\n        /* \"#utility.yul\":7716:7818   */\n      pop\n      pop\n      jump\t// out\n        /* \"#utility.yul\":7824:7923   */\n    tag_254:\n        /* \"#utility.yul\":7895:7916   */\n      tag_372\n        /* \"#utility.yul\":7910:7915   */\n      dup2\n        /* \"#utility.yul\":7895:7916   */\n      tag_249\n      jump\t// in\n    tag_372:\n        /* \"#utility.yul\":7890:7893   */\n      dup3\n        /* \"#utility.yul\":7883:7917   */\n      mstore\n        /* \"#utility.yul\":7824:7923   */\n      pop\n      pop\n      jump\t// out\n        /* \"#utility.yul\":7987:9551   */\n    tag_255:\n        /* \"#utility.yul\":8126:8132   */\n      0x0100\n        /* \"#utility.yul\":8121:8124   */\n      dup3\n        /* \"#utility.yul\":8117:8133   */\n      add\n        /* \"#utility.yul\":8213:8217   */\n      0x00\n        /* \"#utility.yul\":8206:8211   */\n      dup3\n        /* \"#utility.yul\":8202:8218   */\n      add\n        /* \"#utility.yul\":8196:8219   */\n      mload\n        /* \"#utility.yul\":8232:8295   */\n      tag_374\n        /* \"#utility.yul\":8289:8293   */\n      0x00\n        /* \"#utility.yul\":8284:8287   */\n      dup6\n        /* \"#utility.yul\":8280:8294   */\n      add\n        /* \"#utility.yul\":8266:8278   */\n      dup3\n        /* \"#utility.yul\":8232:8295   */\n      tag_235\n      jump\t// in\n    tag_374:\n        /* \"#utility.yul\":8143:8305   */\n      pop\n        /* \"#utility.yul\":8388:8392   */\n      0x20\n        /* \"#utility.yul\":8381:8386   */\n      dup3\n        /* \"#utility.yul\":8377:8393   */\n      add\n        /* \"#utility.yul\":8371:8394   */\n      mload\n        /* \"#utility.yul\":8407:8470   */\n      tag_375\n        /* \"#utility.yul\":8464:8468   */\n      0x20\n        /* \"#utility.yul\":8459:8462   */\n      dup6\n        /* \"#utility.yul\":8455:8469   */\n      add\n        /* \"#utility.yul\":8441:8453   */\n      dup3\n        /* \"#utility.yul\":8407:8470   */\n      tag_251\n      jump\t// in\n    tag_375:\n        /* \"#utility.yul\":8315:8480   */\n      pop\n        /* \"#utility.yul\":8563:8567   */\n      0x40\n        /* \"#utility.yul\":8556:8561   */\n      dup3\n        /* \"#utility.yul\":8552:8568   */\n      add\n        /* \"#utility.yul\":8546:8569   */\n      mload\n        /* \"#utility.yul\":8582:8656   */\n      tag_376\n        /* \"#utility.yul\":8650:8654   */\n      0x40\n        /* \"#utility.yul\":8645:8648   */\n      dup6\n        /* \"#utility.yul\":8641:8655   */\n      add\n        /* \"#utility.yul\":8627:8639   */\n      dup3\n        /* \"#utility.yul\":8582:8656   */\n      tag_252\n      jump\t// in\n    tag_376:\n        /* \"#utility.yul\":8490:8666   */\n      pop\n        /* \"#utility.yul\":8755:8759   */\n      0x60\n        /* \"#utility.yul\":8748:8753   */\n      dup3\n        /* \"#utility.yul\":8744:8760   */\n      add\n        /* \"#utility.yul\":8738:8761   */\n      mload\n        /* \"#utility.yul\":8774:8837   */\n      tag_377\n        /* \"#utility.yul\":8831:8835   */\n      0x60\n        /* \"#utility.yul\":8826:8829   */\n      dup6\n        /* \"#utility.yul\":8822:8836   */\n      add\n        /* \"#utility.yul\":8808:8820   */\n      dup3\n        /* \"#utility.yul\":8774:8837   */\n      tag_235\n      jump\t// in\n    tag_377:\n        /* \"#utility.yul\":8676:8847   */\n      pop\n        /* \"#utility.yul\":8936:8940   */\n      0x80\n        /* \"#utility.yul\":8929:8934   */\n      dup3\n        /* \"#utility.yul\":8925:8941   */\n      add\n        /* \"#utility.yul\":8919:8942   */\n      mload\n        /* \"#utility.yul\":8955:9018   */\n      tag_378\n        /* \"#utility.yul\":9012:9016   */\n      0x80\n        /* \"#utility.yul\":9007:9010   */\n      dup6\n        /* \"#utility.yul\":9003:9017   */\n      add\n        /* \"#utility.yul\":8989:9001   */\n      dup3\n        /* \"#utility.yul\":8955:9018   */\n      tag_235\n      jump\t// in\n    tag_378:\n        /* \"#utility.yul\":8857:9028   */\n      pop\n        /* \"#utility.yul\":9116:9120   */\n      0xa0\n        /* \"#utility.yul\":9109:9114   */\n      dup3\n        /* \"#utility.yul\":9105:9121   */\n      add\n        /* \"#utility.yul\":9099:9122   */\n      mload\n        /* \"#utility.yul\":9135:9194   */\n      tag_379\n        /* \"#utility.yul\":9188:9192   */\n      0xa0\n        /* \"#utility.yul\":9183:9186   */\n      dup6\n        /* \"#utility.yul\":9179:9193   */\n      add\n        /* \"#utility.yul\":9165:9177   */\n      dup3\n        /* \"#utility.yul\":9135:9194   */\n      tag_253\n      jump\t// in\n    tag_379:\n        /* \"#utility.yul\":9038:9204   */\n      pop\n        /* \"#utility.yul\":9288:9292   */\n      0xc0\n        /* \"#utility.yul\":9281:9286   */\n      dup3\n        /* \"#utility.yul\":9277:9293   */\n      add\n        /* \"#utility.yul\":9271:9294   */\n      mload\n        /* \"#utility.yul\":9307:9364   */\n      tag_380\n        /* \"#utility.yul\":9358:9362   */\n      0xc0\n        /* \"#utility.yul\":9353:9356   */\n      dup6\n        /* \"#utility.yul\":9349:9363   */\n      add\n        /* \"#utility.yul\":9335:9347   */\n      dup3\n        /* \"#utility.yul\":9307:9364   */\n      tag_254\n      jump\t// in\n    tag_380:\n        /* \"#utility.yul\":9214:9374   */\n      pop\n        /* \"#utility.yul\":9458:9462   */\n      0xe0\n        /* \"#utility.yul\":9451:9456   */\n      dup3\n        /* \"#utility.yul\":9447:9463   */\n      add\n        /* \"#utility.yul\":9441:9464   */\n      mload\n        /* \"#utility.yul\":9477:9534   */\n      tag_381\n        /* \"#utility.yul\":9528:9532   */\n      0xe0\n        /* \"#utility.yul\":9523:9526   */\n      dup6\n        /* \"#utility.yul\":9519:9533   */\n      add\n        /* \"#utility.yul\":9505:9517   */\n      dup3\n        /* \"#utility.yul\":9477:9534   */\n      tag_254\n      jump\t// in\n    tag_381:\n        /* \"#utility.yul\":9384:9544   */\n      pop\n        /* \"#utility.yul\":8095:9551   */\n      pop\n        /* \"#utility.yul\":7987:9551   */\n      pop\n      pop\n      jump\t// out\n        /* \"#utility.yul\":9557:9864   */\n    tag_104:\n        /* \"#utility.yul\":9692:9696   */\n      0x00\n        /* \"#utility.yul\":9730:9733   */\n      0x0100\n        /* \"#utility.yul\":9719:9728   */\n      dup3\n        /* \"#utility.yul\":9715:9734   */\n      add\n        /* \"#utility.yul\":9707:9734   */\n      swap1\n      pop\n        /* \"#utility.yul\":9744:9857   */\n      tag_383\n        /* \"#utility.yul\":9854:9855   */\n      0x00\n        /* \"#utility.yul\":9843:9852   */\n      dup4\n        /* \"#utility.yul\":9839:9856   */\n      add\n        /* \"#utility.yul\":9830:9836   */\n      dup5\n        /* \"#utility.yul\":9744:9857   */\n      tag_255\n      jump\t// in\n    tag_383:\n        /* \"#utility.yul\":9557:9864   */\n      swap3\n      swap2\n      pop\n      pop\n      jump\t// out\n        /* \"#utility.yul\":9870:10039   */\n    tag_256:\n        /* \"#utility.yul\":9954:9965   */\n      0x00\n        /* \"#utility.yul\":9988:9994   */\n      dup3\n        /* \"#utility.yul\":9983:9986   */\n      dup3\n        /* \"#utility.yul\":9976:9995   */\n      mstore\n        /* \"#utility.yul\":10028:10032   */\n      0x20\n        /* \"#utility.yul\":10023:10026   */\n      dup3\n        /* \"#utility.yul\":10019:10033   */\n      add\n        /* \"#utility.yul\":10004:10033   */\n      swap1\n      pop\n        /* \"#utility.yul\":9870:10039   */\n      swap3\n      swap2\n      pop\n      pop\n      jump\t// out\n        /* \"#utility.yul\":10045:10217   */\n    tag_257:\n        /* \"#utility.yul\":10185:10209   */\n      0x596f7520617265206e6f7420746865206f776e65722100000000000000000000\n        /* \"#utility.yul\":10181:10182   */\n      0x00\n        /* \"#utility.yul\":10173:10179   */\n      dup3\n        /* \"#utility.yul\":10169:10183   */\n      add\n        /* \"#utility.yul\":10162:10210   */\n      mstore\n        /* \"#utility.yul\":10045:10217   */\n      pop\n      jump\t// out\n        /* \"#utility.yul\":10223:10589   */\n    tag_258:\n        /* \"#utility.yul\":10365:10368   */\n      0x00\n        /* \"#utility.yul\":10386:10453   */\n      tag_387\n        /* \"#utility.yul\":10450:10452   */\n      0x16\n        /* \"#utility.yul\":10445:10448   */\n      dup4\n        /* \"#utility.yul\":10386:10453   */\n      tag_256\n      jump\t// in\n    tag_387:\n        /* \"#utility.yul\":10379:10453   */\n      swap2\n      pop\n        /* \"#utility.yul\":10462:10555   */\n      tag_388\n        /* \"#utility.yul\":10551:10554   */\n      dup3\n        /* \"#utility.yul\":10462:10555   */\n      tag_257\n      jump\t// in\n    tag_388:\n        /* \"#utility.yul\":10580:10582   */\n      0x20\n        /* \"#utility.yul\":10575:10578   */\n      dup3\n        /* \"#utility.yul\":10571:10583   */\n      add\n        /* \"#utility.yul\":10564:10583   */\n      swap1\n      pop\n        /* \"#utility.yul\":10223:10589   */\n      swap2\n      swap1\n      pop\n      jump\t// out\n        /* \"#utility.yul\":10595:11014   */\n    tag_111:\n        /* \"#utility.yul\":10761:10765   */\n      0x00\n        /* \"#utility.yul\":10799:10801   */\n      0x20\n        /* \"#utility.yul\":10788:10797   */\n      dup3\n        /* \"#utility.yul\":10784:10802   */\n      add\n        /* \"#utility.yul\":10776:10802   */\n      swap1\n      pop\n        /* \"#utility.yul\":10848:10857   */\n      dup2\n        /* \"#utility.yul\":10842:10846   */\n      dup2\n        /* \"#utility.yul\":10838:10858   */\n      sub\n        /* \"#utility.yul\":10834:10835   */\n      0x00\n        /* \"#utility.yul\":10823:10832   */\n      dup4\n        /* \"#utility.yul\":10819:10836   */\n      add\n        /* \"#utility.yul\":10812:10859   */\n      mstore\n        /* \"#utility.yul\":10876:11007   */\n      tag_390\n        /* \"#utility.yul\":11002:11006   */\n      dup2\n        /* \"#utility.yul\":10876:11007   */\n      tag_258\n      jump\t// in\n    tag_390:\n        /* \"#utility.yul\":10868:11007   */\n      swap1\n      pop\n        /* \"#utility.yul\":10595:11014   */\n      swap2\n      swap1\n      pop\n      jump\t// out\n        /* \"#utility.yul\":11020:11167   */\n    tag_259:\n        /* \"#utility.yul\":11121:11132   */\n      0x00\n        /* \"#utility.yul\":11158:11161   */\n      dup2\n        /* \"#utility.yul\":11143:11161   */\n      swap1\n      pop\n        /* \"#utility.yul\":11020:11167   */\n      swap3\n      swap2\n      pop\n      pop\n      jump\t// out\n        /* \"#utility.yul\":11173:11287   */\n    tag_260:\n      pop\n      jump\t// out\n        /* \"#utility.yul\":11293:11691   */\n    tag_261:\n        /* \"#utility.yul\":11452:11455   */\n      0x00\n        /* \"#utility.yul\":11473:11556   */\n      tag_394\n        /* \"#utility.yul\":11554:11555   */\n      0x00\n        /* \"#utility.yul\":11549:11552   */\n      dup4\n        /* \"#utility.yul\":11473:11556   */\n      tag_259\n      jump\t// in\n    tag_394:\n        /* \"#utility.yul\":11466:11556   */\n      swap2\n      pop\n        /* \"#utility.yul\":11565:11658   */\n      tag_395\n        /* \"#utility.yul\":11654:11657   */\n      dup3\n        /* \"#utility.yul\":11565:11658   */\n      tag_260\n      jump\t// in\n    tag_395:\n        /* \"#utility.yul\":11683:11684   */\n      0x00\n        /* \"#utility.yul\":11678:11681   */\n      dup3\n        /* \"#utility.yul\":11674:11685   */\n      add\n        /* \"#utility.yul\":11667:11685   */\n      swap1\n      pop\n        /* \"#utility.yul\":11293:11691   */\n      swap2\n      swap1\n      pop\n      jump\t// out\n        /* \"#utility.yul\":11697:12076   */\n    tag_113:\n        /* \"#utility.yul\":11881:11884   */\n      0x00\n        /* \"#utility.yul\":11903:12050   */\n      tag_397\n        /* \"#utility.yul\":12046:12049   */\n      dup3\n        /* \"#utility.yul\":11903:12050   */\n      tag_261\n      jump\t// in\n    tag_397:\n        /* \"#utility.yul\":11896:12050   */\n      swap2\n      pop\n        /* \"#utility.yul\":12067:12070   */\n      dup2\n        /* \"#utility.yul\":12060:12070   */\n      swap1\n      pop\n        /* \"#utility.yul\":11697:12076   */\n      swap2\n      swap1\n      pop\n      jump\t// out\n        /* \"#utility.yul\":12082:12248   */\n    tag_262:\n        /* \"#utility.yul\":12222:12240   */\n      0x4661696c6564205472616e736665722100000000000000000000000000000000\n        /* \"#utility.yul\":12218:12219   */\n      0x00\n        /* \"#utility.yul\":12210:12216   */\n      dup3\n        /* \"#utility.yul\":12206:12220   */\n      add\n        /* \"#utility.yul\":12199:12241   */\n      mstore\n        /* \"#utility.yul\":12082:12248   */\n      pop\n      jump\t// out\n        /* \"#utility.yul\":12254:12620   */\n    tag_263:\n        /* \"#utility.yul\":12396:12399   */\n      0x00\n        /* \"#utility.yul\":12417:12484   */\n      tag_400\n        /* \"#utility.yul\":12481:12483   */\n      0x10\n        /* \"#utility.yul\":12476:12479   */\n      dup4\n        /* \"#utility.yul\":12417:12484   */\n      tag_256\n      jump\t// in\n    tag_400:\n        /* \"#utility.yul\":12410:12484   */\n      swap2\n      pop\n        /* \"#utility.yul\":12493:12586   */\n      tag_401\n        /* \"#utility.yul\":12582:12585   */\n      dup3\n        /* \"#utility.yul\":12493:12586   */\n      tag_262\n      jump\t// in\n    tag_401:\n        /* \"#utility.yul\":12611:12613   */\n      0x20\n        /* \"#utility.yul\":12606:12609   */\n      dup3\n        /* \"#utility.yul\":12602:12614   */\n      add\n        /* \"#utility.yul\":12595:12614   */\n      swap1\n      pop\n        /* \"#utility.yul\":12254:12620   */\n      swap2\n      swap1\n      pop\n      jump\t// out\n        /* \"#utility.yul\":12626:13045   */\n    tag_119:\n        /* \"#utility.yul\":12792:12796   */\n      0x00\n        /* \"#utility.yul\":12830:12832   */\n      0x20\n        /* \"#utility.yul\":12819:12828   */\n      dup3\n        /* \"#utility.yul\":12815:12833   */\n      add\n        /* \"#utility.yul\":12807:12833   */\n      swap1\n      pop\n        /* \"#utility.yul\":12879:12888   */\n      dup2\n        /* \"#utility.yul\":12873:12877   */\n      dup2\n        /* \"#utility.yul\":12869:12889   */\n      sub\n        /* \"#utility.yul\":12865:12866   */\n      0x00\n        /* \"#utility.yul\":12854:12863   */\n      dup4\n        /* \"#utility.yul\":12850:12867   */\n      add\n        /* \"#utility.yul\":12843:12890   */\n      mstore\n        /* \"#utility.yul\":12907:13038   */\n      tag_403\n        /* \"#utility.yul\":13033:13037   */\n      dup2\n        /* \"#utility.yul\":12907:13038   */\n      tag_263\n      jump\t// in\n    tag_403:\n        /* \"#utility.yul\":12899:13038   */\n      swap1\n      pop\n        /* \"#utility.yul\":12626:13045   */\n      swap2\n      swap1\n      pop\n      jump\t// out\n        /* \"#utility.yul\":13051:13222   */\n    tag_264:\n        /* \"#utility.yul\":13191:13214   */\n      0x496e73756666696369656e742062616c616e6365210000000000000000000000\n        /* \"#utility.yul\":13187:13188   */\n      0x00\n        /* \"#utility.yul\":13179:13185   */\n      dup3\n        /* \"#utility.yul\":13175:13189   */\n      add\n        /* \"#utility.yul\":13168:13215   */\n      mstore\n        /* \"#utility.yul\":13051:13222   */\n      pop\n      jump\t// out\n        /* \"#utility.yul\":13228:13594   */\n    tag_265:\n        /* \"#utility.yul\":13370:13373   */\n      0x00\n        /* \"#utility.yul\":13391:13458   */\n      tag_406\n        /* \"#utility.yul\":13455:13457   */\n      0x15\n        /* \"#utility.yul\":13450:13453   */\n      dup4\n        /* \"#utility.yul\":13391:13458   */\n      tag_256\n      jump\t// in\n    tag_406:\n        /* \"#utility.yul\":13384:13458   */\n      swap2\n      pop\n        /* \"#utility.yul\":13467:13560   */\n      tag_407\n        /* \"#utility.yul\":13556:13559   */\n      dup3\n        /* \"#utility.yul\":13467:13560   */\n      tag_264\n      jump\t// in\n    tag_407:\n        /* \"#utility.yul\":13585:13587   */\n      0x20\n        /* \"#utility.yul\":13580:13583   */\n      dup3\n        /* \"#utility.yul\":13576:13588   */\n      add\n        /* \"#utility.yul\":13569:13588   */\n      swap1\n      pop\n        /* \"#utility.yul\":13228:13594   */\n      swap2\n      swap1\n      pop\n      jump\t// out\n        /* \"#utility.yul\":13600:14019   */\n    tag_123:\n        /* \"#utility.yul\":13766:13770   */\n      0x00\n        /* \"#utility.yul\":13804:13806   */\n      0x20\n        /* \"#utility.yul\":13793:13802   */\n      dup3\n        /* \"#utility.yul\":13789:13807   */\n      add\n        /* \"#utility.yul\":13781:13807   */\n      swap1\n      pop\n        /* \"#utility.yul\":13853:13862   */\n      dup2\n        /* \"#utility.yul\":13847:13851   */\n      dup2\n        /* \"#utility.yul\":13843:13863   */\n      sub\n        /* \"#utility.yul\":13839:13840   */\n      0x00\n        /* \"#utility.yul\":13828:13837   */\n      dup4\n        /* \"#utility.yul\":13824:13841   */\n      add\n        /* \"#utility.yul\":13817:13864   */\n      mstore\n        /* \"#utility.yul\":13881:14012   */\n      tag_409\n        /* \"#utility.yul\":14007:14011   */\n      dup2\n        /* \"#utility.yul\":13881:14012   */\n      tag_265\n      jump\t// in\n    tag_409:\n        /* \"#utility.yul\":13873:14012   */\n      swap1\n      pop\n        /* \"#utility.yul\":13600:14019   */\n      swap2\n      swap1\n      pop\n      jump\t// out\n        /* \"#utility.yul\":14025:14205   */\n    tag_266:\n        /* \"#utility.yul\":14073:14150   */\n      0x4e487b7100000000000000000000000000000000000000000000000000000000\n        /* \"#utility.yul\":14070:14071   */\n      0x00\n        /* \"#utility.yul\":14063:14151   */\n      mstore\n        /* \"#utility.yul\":14170:14174   */\n      0x11\n        /* \"#utility.yul\":14167:14168   */\n      0x04\n        /* \"#utility.yul\":14160:14175   */\n      mstore\n        /* \"#utility.yul\":14194:14198   */\n      0x24\n        /* \"#utility.yul\":14191:14192   */\n      0x00\n        /* \"#utility.yul\":14184:14199   */\n      revert\n        /* \"#utility.yul\":14211:14444   */\n    tag_125:\n        /* \"#utility.yul\":14250:14253   */\n      0x00\n        /* \"#utility.yul\":14273:14297   */\n      tag_412\n        /* \"#utility.yul\":14291:14296   */\n      dup3\n        /* \"#utility.yul\":14273:14297   */\n      tag_234\n      jump\t// in\n    tag_412:\n        /* \"#utility.yul\":14264:14297   */\n      swap2\n      pop\n        /* \"#utility.yul\":14319:14385   */\n      0xffffffffffffffffffffffffffffffffffffffffffffffffffffffffffffffff\n        /* \"#utility.yul\":14312:14317   */\n      dup3\n        /* \"#utility.yul\":14309:14386   */\n      sub\n        /* \"#utility.yul\":14306:14409   */\n      tag_413\n      jumpi\n        /* \"#utility.yul\":14389:14407   */\n      tag_414\n      tag_266\n      jump\t// in\n    tag_414:\n        /* \"#utility.yul\":14306:14409   */\n    tag_413:\n        /* \"#utility.yul\":14436:14437   */\n      0x01\n        /* \"#utility.yul\":14429:14434   */\n      dup3\n        /* \"#utility.yul\":14425:14438   */\n      add\n        /* \"#utility.yul\":14418:14438   */\n      swap1\n      pop\n        /* \"#utility.yul\":14211:14444   */\n      swap2\n      swap1\n      pop\n      jump\t// out\n        /* \"#utility.yul\":14450:14644   */\n    tag_136:\n        /* \"#utility.yul\":14490:14494   */\n      0x00\n        /* \"#utility.yul\":14510:14530   */\n      tag_416\n        /* \"#utility.yul\":14528:14529   */\n      dup3\n        /* \"#utility.yul\":14510:14530   */\n      tag_234\n      jump\t// in\n    tag_416:\n        /* \"#utility.yul\":14505:14530   */\n      swap2\n      pop\n        /* \"#utility.yul\":14544:14564   */\n      tag_417\n        /* \"#utility.yul\":14562:14563   */\n      dup4\n        /* \"#utility.yul\":14544:14564   */\n      tag_234\n      jump\t// in\n    tag_417:\n        /* \"#utility.yul\":14539:14564   */\n      swap3\n      pop\n        /* \"#utility.yul\":14588:14589   */\n      dup3\n        /* \"#utility.yul\":14585:14586   */\n      dup3\n        /* \"#utility.yul\":14581:14590   */\n      sub\n        /* \"#utility.yul\":14573:14590   */\n      swap1\n      pop\n        /* \"#utility.yul\":14612:14613   */\n      dup2\n        /* \"#utility.yul\":14606:14610   */\n      dup2\n        /* \"#utility.yul\":14603:14614   */\n      gt\n        /* \"#utility.yul\":14600:14637   */\n      iszero\n      tag_418\n      jumpi\n        /* \"#utility.yul\":14617:14635   */\n      tag_419\n      tag_266\n      jump\t// in\n    tag_419:\n        /* \"#utility.yul\":14600:14637   */\n    tag_418:\n        /* \"#utility.yul\":14450:14644   */\n      swap3\n      swap2\n      pop\n      pop\n      jump\t// out\n        /* \"#utility.yul\":14650:14830   */\n    tag_267:\n        /* \"#utility.yul\":14698:14775   */\n      0x4e487b7100000000000000000000000000000000000000000000000000000000\n        /* \"#utility.yul\":14695:14696   */\n      0x00\n        /* \"#utility.yul\":14688:14776   */\n      mstore\n        /* \"#utility.yul\":14795:14799   */\n      0x12\n        /* \"#utility.yul\":14792:14793   */\n      0x04\n        /* \"#utility.yul\":14785:14800   */\n      mstore\n        /* \"#utility.yul\":14819:14823   */\n      0x24\n        /* \"#utility.yul\":14816:14817   */\n      0x00\n        /* \"#utility.yul\":14809:14824   */\n      revert\n        /* \"#utility.yul\":14836:15021   */\n    tag_138:\n        /* \"#utility.yul\":14876:14877   */\n      0x00\n        /* \"#utility.yul\":14893:14913   */\n      tag_422\n        /* \"#utility.yul\":14911:14912   */\n      dup3\n        /* \"#utility.yul\":14893:14913   */\n      tag_234\n      jump\t// in\n    tag_422:\n        /* \"#utility.yul\":14888:14913   */\n      swap2\n      pop\n        /* \"#utility.yul\":14927:14947   */\n      tag_423\n        /* \"#utility.yul\":14945:14946   */\n      dup4\n        /* \"#utility.yul\":14927:14947   */\n      tag_234\n      jump\t// in\n    tag_423:\n        /* \"#utility.yul\":14922:14947   */\n      swap3\n      pop\n        /* \"#utility.yul\":14966:14967   */\n      dup3\n        /* \"#utility.yul\":14956:14991   */\n      tag_424\n      jumpi\n        /* \"#utility.yul\":14971:14989   */\n      tag_425\n      tag_267\n      jump\t// in\n    tag_425:\n        /* \"#utility.yul\":14956:14991   */\n    tag_424:\n        /* \"#utility.yul\":15013:15014   */\n      dup3\n        /* \"#utility.yul\":15010:15011   */\n      dup3\n        /* \"#utility.yul\":15006:15015   */\n      div\n        /* \"#utility.yul\":15001:15015   */\n      swap1\n      pop\n        /* \"#utility.yul\":14836:15021   */\n      swap3\n      swap2\n      pop\n      pop\n      jump\t// out\n        /* \"#utility.yul\":15027:15437   */\n    tag_140:\n        /* \"#utility.yul\":15067:15074   */\n      0x00\n        /* \"#utility.yul\":15090:15110   */\n      tag_427\n        /* \"#utility.yul\":15108:15109   */\n      dup3\n        /* \"#utility.yul\":15090:15110   */\n      tag_234\n      jump\t// in\n    tag_427:\n        /* \"#utility.yul\":15085:15110   */\n      swap2\n      pop\n        /* \"#utility.yul\":15124:15144   */\n      tag_428\n        /* \"#utility.yul\":15142:15143   */\n      dup4\n        /* \"#utility.yul\":15124:15144   */\n      tag_234\n      jump\t// in\n    tag_428:\n        /* \"#utility.yul\":15119:15144   */\n      swap3\n      pop\n        /* \"#utility.yul\":15179:15180   */\n      dup3\n        /* \"#utility.yul\":15176:15177   */\n      dup3\n        /* \"#utility.yul\":15172:15181   */\n      mul\n        /* \"#utility.yul\":15201:15231   */\n      tag_429\n        /* \"#utility.yul\":15219:15230   */\n      dup2\n        /* \"#utility.yul\":15201:15231   */\n      tag_234\n      jump\t// in\n    tag_429:\n        /* \"#utility.yul\":15190:15231   */\n      swap2\n      pop\n        /* \"#utility.yul\":15380:15381   */\n      dup3\n        /* \"#utility.yul\":15371:15378   */\n      dup3\n        /* \"#utility.yul\":15367:15382   */\n      div\n        /* \"#utility.yul\":15364:15365   */\n      dup5\n        /* \"#utility.yul\":15361:15383   */\n      eq\n        /* \"#utility.yul\":15341:15342   */\n      dup4\n        /* \"#utility.yul\":15334:15343   */\n      iszero\n        /* \"#utility.yul\":15314:15397   */\n      or\n        /* \"#utility.yul\":15291:15430   */\n      tag_430\n      jumpi\n        /* \"#utility.yul\":15410:15428   */\n      tag_431\n      tag_266\n      jump\t// in\n    tag_431:\n        /* \"#utility.yul\":15291:15430   */\n    tag_430:\n        /* \"#utility.yul\":15075:15437   */\n      pop\n        /* \"#utility.yul\":15027:15437   */\n      swap3\n      swap2\n      pop\n      pop\n      jump\t// out\n        /* \"#utility.yul\":15443:15613   */\n    tag_268:\n        /* \"#utility.yul\":15583:15605   */\n      0x506c616e7420646f65736e277420657869737421000000000000000000000000\n        /* \"#utility.yul\":15579:15580   */\n      0x00\n        /* \"#utility.yul\":15571:15577   */\n      dup3\n        /* \"#utility.yul\":15567:15581   */\n      add\n        /* \"#utility.yul\":15560:15606   */\n      mstore\n        /* \"#utility.yul\":15443:15613   */\n      pop\n      jump\t// out\n        /* \"#utility.yul\":15619:15985   */\n    tag_269:\n        /* \"#utility.yul\":15761:15764   */\n      0x00\n        /* \"#utility.yul\":15782:15849   */\n      tag_434\n        /* \"#utility.yul\":15846:15848   */\n      0x14\n        /* \"#utility.yul\":15841:15844   */\n      dup4\n        /* \"#utility.yul\":15782:15849   */\n      tag_256\n      jump\t// in\n    tag_434:\n        /* \"#utility.yul\":15775:15849   */\n      swap2\n      pop\n        /* \"#utility.yul\":15858:15951   */\n      tag_435\n        /* \"#utility.yul\":15947:15950   */\n      dup3\n        /* \"#utility.yul\":15858:15951   */\n      tag_268\n      jump\t// in\n    tag_435:\n        /* \"#utility.yul\":15976:15978   */\n      0x20\n        /* \"#utility.yul\":15971:15974   */\n      dup3\n        /* \"#utility.yul\":15967:15979   */\n      add\n        /* \"#utility.yul\":15960:15979   */\n      swap1\n      pop\n        /* \"#utility.yul\":15619:15985   */\n      swap2\n      swap1\n      pop\n      jump\t// out\n        /* \"#utility.yul\":15991:16410   */\n    tag_148:\n        /* \"#utility.yul\":16157:16161   */\n      0x00\n        /* \"#utility.yul\":16195:16197   */\n      0x20\n        /* \"#utility.yul\":16184:16193   */\n      dup3\n        /* \"#utility.yul\":16180:16198   */\n      add\n        /* \"#utility.yul\":16172:16198   */\n      swap1\n      pop\n        /* \"#utility.yul\":16244:16253   */\n      dup2\n        /* \"#utility.yul\":16238:16242   */\n      dup2\n        /* \"#utility.yul\":16234:16254   */\n      sub\n        /* \"#utility.yul\":16230:16231   */\n      0x00\n        /* \"#utility.yul\":16219:16228   */\n      dup4\n        /* \"#utility.yul\":16215:16232   */\n      add\n        /* \"#utility.yul\":16208:16255   */\n      mstore\n        /* \"#utility.yul\":16272:16403   */\n      tag_437\n        /* \"#utility.yul\":16398:16402   */\n      dup2\n        /* \"#utility.yul\":16272:16403   */\n      tag_269\n      jump\t// in\n    tag_437:\n        /* \"#utility.yul\":16264:16403   */\n      swap1\n      pop\n        /* \"#utility.yul\":15991:16410   */\n      swap2\n      swap1\n      pop\n      jump\t// out\n        /* \"#utility.yul\":16416:16585   */\n    tag_270:\n        /* \"#utility.yul\":16556:16577   */\n      0x506c616e7420616c726561647920646561642100000000000000000000000000\n        /* \"#utility.yul\":16552:16553   */\n      0x00\n        /* \"#utility.yul\":16544:16550   */\n      dup3\n        /* \"#utility.yul\":16540:16554   */\n      add\n        /* \"#utility.yul\":16533:16578   */\n      mstore\n        /* \"#utility.yul\":16416:16585   */\n      pop\n      jump\t// out\n        /* \"#utility.yul\":16591:16957   */\n    tag_271:\n        /* \"#utility.yul\":16733:16736   */\n      0x00\n        /* \"#utility.yul\":16754:16821   */\n      tag_440\n        /* \"#utility.yul\":16818:16820   */\n      0x13\n        /* \"#utility.yul\":16813:16816   */\n      dup4\n        /* \"#utility.yul\":16754:16821   */\n      tag_256\n      jump\t// in\n    tag_440:\n        /* \"#utility.yul\":16747:16821   */\n      swap2\n      pop\n        /* \"#utility.yul\":16830:16923   */\n      tag_441\n        /* \"#utility.yul\":16919:16922   */\n      dup3\n        /* \"#utility.yul\":16830:16923   */\n      tag_270\n      jump\t// in\n    tag_441:\n        /* \"#utility.yul\":16948:16950   */\n      0x20\n        /* \"#utility.yul\":16943:16946   */\n      dup3\n        /* \"#utility.yul\":16939:16951   */\n      add\n        /* \"#utility.yul\":16932:16951   */\n      swap1\n      pop\n        /* \"#utility.yul\":16591:16957   */\n      swap2\n      swap1\n      pop\n      jump\t// out\n        /* \"#utility.yul\":16963:17382   */\n    tag_153:\n        /* \"#utility.yul\":17129:17133   */\n      0x00\n        /* \"#utility.yul\":17167:17169   */\n      0x20\n        /* \"#utility.yul\":17156:17165   */\n      dup3\n        /* \"#utility.yul\":17152:17170   */\n      add\n        /* \"#utility.yul\":17144:17170   */\n      swap1\n      pop\n        /* \"#utility.yul\":17216:17225   */\n      dup2\n        /* \"#utility.yul\":17210:17214   */\n      dup2\n        /* \"#utility.yul\":17206:17226   */\n      sub\n        /* \"#utility.yul\":17202:17203   */\n      0x00\n        /* \"#utility.yul\":17191:17200   */\n      dup4\n        /* \"#utility.yul\":17187:17204   */\n      add\n        /* \"#utility.yul\":17180:17227   */\n      mstore\n        /* \"#utility.yul\":17244:17375   */\n      tag_443\n        /* \"#utility.yul\":17370:17374   */\n      dup2\n        /* \"#utility.yul\":17244:17375   */\n      tag_271\n      jump\t// in\n    tag_443:\n        /* \"#utility.yul\":17236:17375   */\n      swap1\n      pop\n        /* \"#utility.yul\":16963:17382   */\n      swap2\n      swap1\n      pop\n      jump\t// out\n        /* \"#utility.yul\":17388:17475   */\n    tag_272:\n        /* \"#utility.yul\":17435:17442   */\n      0x00\n        /* \"#utility.yul\":17464:17469   */\n      dup2\n        /* \"#utility.yul\":17453:17469   */\n      swap1\n      pop\n        /* \"#utility.yul\":17388:17475   */\n      swap2\n      swap1\n      pop\n      jump\t// out\n        /* \"#utility.yul\":17481:17541   */\n    tag_273:\n        /* \"#utility.yul\":17509:17512   */\n      0x00\n        /* \"#utility.yul\":17530:17535   */\n      dup2\n        /* \"#utility.yul\":17523:17535   */\n      swap1\n      pop\n        /* \"#utility.yul\":17481:17541   */\n      swap2\n      swap1\n      pop\n      jump\t// out\n        /* \"#utility.yul\":17547:17705   */\n    tag_274:\n        /* \"#utility.yul\":17605:17614   */\n      0x00\n        /* \"#utility.yul\":17638:17699   */\n      tag_447\n        /* \"#utility.yul\":17654:17698   */\n      tag_448\n        /* \"#utility.yul\":17663:17697   */\n      tag_449\n        /* \"#utility.yul\":17691:17696   */\n      dup5\n        /* \"#utility.yul\":17663:17697   */\n      tag_272\n      jump\t// in\n    tag_449:\n        /* \"#utility.yul\":17654:17698   */\n      tag_273\n      jump\t// in\n    tag_448:\n        /* \"#utility.yul\":17638:17699   */\n      tag_242\n      jump\t// in\n    tag_447:\n        /* \"#utility.yul\":17625:17699   */\n      swap1\n      pop\n        /* \"#utility.yul\":17547:17705   */\n      swap2\n      swap1\n      pop\n      jump\t// out\n        /* \"#utility.yul\":17711:17858   */\n    tag_275:\n        /* \"#utility.yul\":17806:17851   */\n      tag_451\n        /* \"#utility.yul\":17845:17850   */\n      dup2\n        /* \"#utility.yul\":17806:17851   */\n      tag_274\n      jump\t// in\n    tag_451:\n        /* \"#utility.yul\":17801:17804   */\n      dup3\n        /* \"#utility.yul\":17794:17852   */\n      mstore\n        /* \"#utility.yul\":17711:17858   */\n      pop\n      pop\n      jump\t// out\n        /* \"#utility.yul\":17864:18102   */\n    tag_155:\n        /* \"#utility.yul\":17965:17969   */\n      0x00\n        /* \"#utility.yul\":18003:18005   */\n      0x20\n        /* \"#utility.yul\":17992:18001   */\n      dup3\n        /* \"#utility.yul\":17988:18006   */\n      add\n        /* \"#utility.yul\":17980:18006   */\n      swap1\n      pop\n        /* \"#utility.yul\":18016:18095   */\n      tag_453\n        /* \"#utility.yul\":18092:18093   */\n      0x00\n        /* \"#utility.yul\":18081:18090   */\n      dup4\n        /* \"#utility.yul\":18077:18094   */\n      add\n        /* \"#utility.yul\":18068:18074   */\n      dup5\n        /* \"#utility.yul\":18016:18095   */\n      tag_275\n      jump\t// in\n    tag_453:\n        /* \"#utility.yul\":17864:18102   */\n      swap3\n      swap2\n      pop\n      pop\n      jump\t// out\n        /* \"#utility.yul\":18108:18352   */\n    tag_186:\n        /* \"#utility.yul\":18212:18216   */\n      0x00\n        /* \"#utility.yul\":18250:18252   */\n      0x20\n        /* \"#utility.yul\":18239:18248   */\n      dup3\n        /* \"#utility.yul\":18235:18253   */\n      add\n        /* \"#utility.yul\":18227:18253   */\n      swap1\n      pop\n        /* \"#utility.yul\":18263:18345   */\n      tag_455\n        /* \"#utility.yul\":18342:18343   */\n      0x00\n        /* \"#utility.yul\":18331:18340   */\n      dup4\n        /* \"#utility.yul\":18327:18344   */\n      add\n        /* \"#utility.yul\":18318:18324   */\n      dup5\n        /* \"#utility.yul\":18263:18345   */\n      tag_248\n      jump\t// in\n    tag_455:\n        /* \"#utility.yul\":18108:18352   */\n      swap3\n      swap2\n      pop\n      pop\n      jump\t// out\n        /* \"#utility.yul\":18358:18519   */\n    tag_276:\n        /* \"#utility.yul\":18498:18511   */\n      0x42656c756d206d656b6172000000000000000000000000000000000000000000\n        /* \"#utility.yul\":18494:18495   */\n      0x00\n        /* \"#utility.yul\":18486:18492   */\n      dup3\n        /* \"#utility.yul\":18482:18496   */\n      add\n        /* \"#utility.yul\":18475:18512   */\n      mstore\n        /* \"#utility.yul\":18358:18519   */\n      pop\n      jump\t// out\n        /* \"#utility.yul\":18525:18891   */\n    tag_277:\n        /* \"#utility.yul\":18667:18670   */\n      0x00\n        /* \"#utility.yul\":18688:18755   */\n      tag_458\n        /* \"#utility.yul\":18752:18754   */\n      0x0b\n        /* \"#utility.yul\":18747:18750   */\n      dup4\n        /* \"#utility.yul\":18688:18755   */\n      tag_256\n      jump\t// in\n    tag_458:\n        /* \"#utility.yul\":18681:18755   */\n      swap2\n      pop\n        /* \"#utility.yul\":18764:18857   */\n      tag_459\n        /* \"#utility.yul\":18853:18856   */\n      dup3\n        /* \"#utility.yul\":18764:18857   */\n      tag_276\n      jump\t// in\n    tag_459:\n        /* \"#utility.yul\":18882:18884   */\n      0x20\n        /* \"#utility.yul\":18877:18880   */\n      dup3\n        /* \"#utility.yul\":18873:18885   */\n      add\n        /* \"#utility.yul\":18866:18885   */\n      swap1\n      pop\n        /* \"#utility.yul\":18525:18891   */\n      swap2\n      swap1\n      pop\n      jump\t// out\n        /* \"#utility.yul\":18897:19316   */\n    tag_201:\n        /* \"#utility.yul\":19063:19067   */\n      0x00\n        /* \"#utility.yul\":19101:19103   */\n      0x20\n        /* \"#utility.yul\":19090:19099   */\n      dup3\n        /* \"#utility.yul\":19086:19104   */\n      add\n        /* \"#utility.yul\":19078:19104   */\n      swap1\n      pop\n        /* \"#utility.yul\":19150:19159   */\n      dup2\n        /* \"#utility.yul\":19144:19148   */\n      dup2\n        /* \"#utility.yul\":19140:19160   */\n      sub\n        /* \"#utility.yul\":19136:19137   */\n      0x00\n        /* \"#utility.yul\":19125:19134   */\n      dup4\n        /* \"#utility.yul\":19121:19138   */\n      add\n        /* \"#utility.yul\":19114:19161   */\n      mstore\n        /* \"#utility.yul\":19178:19309   */\n      tag_461\n        /* \"#utility.yul\":19304:19308   */\n      dup2\n        /* \"#utility.yul\":19178:19309   */\n      tag_277\n      jump\t// in\n    tag_461:\n        /* \"#utility.yul\":19170:19309   */\n      swap1\n      pop\n        /* \"#utility.yul\":18897:19316   */\n      swap2\n      swap1\n      pop\n      jump\t// out\n        /* \"#utility.yul\":19322:19494   */\n    tag_278:\n        /* \"#utility.yul\":19462:19486   */\n      0x4661696c65642073656e64696e67207265776172642100000000000000000000\n        /* \"#utility.yul\":19458:19459   */\n      0x00\n        /* \"#utility.yul\":19450:19456   */\n      dup3\n        /* \"#utility.yul\":19446:19460   */\n      add\n        /* \"#utility.yul\":19439:19487   */\n      mstore\n        /* \"#utility.yul\":19322:19494   */\n      pop\n      jump\t// out\n        /* \"#utility.yul\":19500:19866   */\n    tag_279:\n        /* \"#utility.yul\":19642:19645   */\n      0x00\n        /* \"#utility.yul\":19663:19730   */\n      tag_464\n        /* \"#utility.yul\":19727:19729   */\n      0x16\n        /* \"#utility.yul\":19722:19725   */\n      dup4\n        /* \"#utility.yul\":19663:19730   */\n      tag_256\n      jump\t// in\n    tag_464:\n        /* \"#utility.yul\":19656:19730   */\n      swap2\n      pop\n        /* \"#utility.yul\":19739:19832   */\n      tag_465\n        /* \"#utility.yul\":19828:19831   */\n      dup3\n        /* \"#utility.yul\":19739:19832   */\n      tag_278\n      jump\t// in\n    tag_465:\n        /* \"#utility.yul\":19857:19859   */\n      0x20\n        /* \"#utility.yul\":19852:19855   */\n      dup3\n        /* \"#utility.yul\":19848:19860   */\n      add\n        /* \"#utility.yul\":19841:19860   */\n      swap1\n      pop\n        /* \"#utility.yul\":19500:19866   */\n      swap2\n      swap1\n      pop\n      jump\t// out\n        /* \"#utility.yul\":19872:20291   */\n    tag_209:\n        /* \"#utility.yul\":20038:20042   */\n      0x00\n        /* \"#utility.yul\":20076:20078   */\n      0x20\n        /* \"#utility.yul\":20065:20074   */\n      dup3\n        /* \"#utility.yul\":20061:20079   */\n      add\n        /* \"#utility.yul\":20053:20079   */\n      swap1\n      pop\n        /* \"#utility.yul\":20125:20134   */\n      dup2\n        /* \"#utility.yul\":20119:20123   */\n      dup2\n        /* \"#utility.yul\":20115:20135   */\n      sub\n        /* \"#utility.yul\":20111:20112   */\n      0x00\n        /* \"#utility.yul\":20100:20109   */\n      dup4\n        /* \"#utility.yul\":20096:20113   */\n      add\n        /* \"#utility.yul\":20089:20136   */\n      mstore\n        /* \"#utility.yul\":20153:20284   */\n      tag_467\n        /* \"#utility.yul\":20279:20283   */\n      dup2\n        /* \"#utility.yul\":20153:20284   */\n      tag_279\n      jump\t// in\n    tag_467:\n        /* \"#utility.yul\":20145:20284   */\n      swap1\n      pop\n        /* \"#utility.yul\":19872:20291   */\n      swap2\n      swap1\n      pop\n      jump\t// out\n\n    auxdata: 0xa26469706673582212200a3aba79ff32f28813becc9af12ce6909832a240f70f0bf92637bab8dff7d90964736f6c634300081e0033\n}\n",
				"bytecode": {
					"linkReferences": {},
					"object": "6080604052348015600e575f5ffd5b503360035f6101000a81548173ffffffffffffffffffffffffffffffffffffffff021916908373ffffffffffffffffffffffffffffffffffffffff160217905550611d418061005c5f395ff3fe608060405260043610610101575f3560e01c80638dd2361c11610094578063cbf6426811610063578063cbf6426814610331578063cfc9a5f81461035b578063ddd4259614610385578063e38f8448146103ad578063ed0b1f5f146103d557610108565b80638dd2361c146102725780639886bcfa146102b55780639c471749146102dd578063bacb5ebd1461030757610108565b8063754e150d116100d0578063754e150d146101a65780637ed4c5be146101e25780638aee578b1461020c5780638da5cb5b1461024857610108565b806330cec0eb1461010c5780633ccfd60b1461014857806351f9efde1461015e57806374119a381461018857610108565b3661010857005b5f5ffd5b348015610117575f5ffd5b50610132600480360381019061012d9190611408565b610411565b60405161013f91906114f3565b60405180910390f35b348015610153575f5ffd5b5061015c6104a4565b005b348015610169575f5ffd5b506101726105ff565b60405161017f9190611522565b60405180910390f35b610190610604565b60405161019d9190611522565b60405180910390f35b3480156101b1575f5ffd5b506101cc60048036038101906101c79190611565565b610890565b6040516101d991906115ab565b60405180910390f35b3480156101ed575f5ffd5b506101f6610965565b6040516102039190611522565b60405180910390f35b348015610217575f5ffd5b50610232600480360381019061022d91906115c4565b61096a565b60405161023f9190611522565b60405180910390f35b348015610253575f5ffd5b5061025c610995565b6040516102699190611611565b60405180910390f35b34801561027d575f5ffd5b5061029860048036038101906102939190611565565b6109ba565b6040516102ac9897969594939291906116b7565b60405180910390f35b3480156102c0575f5ffd5b506102db60048036038101906102d69190611565565b610a4f565b005b3480156102e8575f5ffd5b506102f1610c02565b6040516102fe9190611522565b60405180910390f35b348015610312575f5ffd5b5061031b610c08565b60405161032891906115ab565b60405180910390f35b34801561033c575f5ffd5b50610345610c0d565b6040516103529190611522565b60405180910390f35b348015610366575f5ffd5b5061036f610c18565b60405161037c9190611522565b60405180910390f35b348015610390575f5ffd5b506103ab60048036038101906103a69190611565565b610c23565b005b3480156103b8575f5ffd5b506103d360048036038101906103ce9190611565565b610e57565b005b3480156103e0575f5ffd5b506103fb60048036038101906103f69190611565565b611144565b604051610408919061180f565b60405180910390f35b606060015f8373ffffffffffffffffffffffffffffffffffffffff1673ffffffffffffffffffffffffffffffffffffffff1681526020019081526020015f2080548060200260200160405190810160405280929190818152602001828054801561049857602002820191905f5260205f20905b815481526020019060010190808311610484575b50505050509050919050565b60035f9054906101000a900473ffffffffffffffffffffffffffffffffffffffff1673ffffffffffffffffffffffffffffffffffffffff163373ffffffffffffffffffffffffffffffffffffffff1614610533576040517f08c379a000000000000000000000000000000000000000000000000000000000815260040161052a90611883565b60405180910390fd5b5f60035f9054906101000a900473ffffffffffffffffffffffffffffffffffffffff1673ffffffffffffffffffffffffffffffffffffffff1647604051610579906118ce565b5f6040518083038185875af1925050503d805f81146105b3576040519150601f19603f3d011682016040523d82523d5f602084013e6105b8565b606091505b50509050806105fc576040517f08c379a00000000000000000000000000000000000000000000000000000000081526004016105f39061192c565b60405180910390fd5b50565b603c81565b5f66038d7ea4c6800034101561064f576040517f08c379a000000000000000000000000000000000000000000000000000000000815260040161064690611994565b60405180910390fd5b60025f815480929190610661906119df565b91905055505f60405180610100016040528060025481526020013373ffffffffffffffffffffffffffffffffffffffff1681526020015f60038111156106aa576106a961162a565b5b8152602001428152602001428152602001606460ff1681526020016001151581526020015f15158152509050805f5f60025481526020019081526020015f205f820151815f01556020820151816001015f6101000a81548173ffffffffffffffffffffffffffffffffffffffff021916908373ffffffffffffffffffffffffffffffffffffffff16021790555060408201518160010160146101000a81548160ff021916908360038111156107625761076161162a565b5b0217905550606082015181600201556080820151816003015560a0820151816004015f6101000a81548160ff021916908360ff16021790555060c08201518160040160016101000a81548160ff02191690831515021790555060e08201518160040160026101000a81548160ff02191690831515021790555090505060015f3373ffffffffffffffffffffffffffffffffffffffff1673ffffffffffffffffffffffffffffffffffffffff1681526020019081526020015f20600254908060018154018082558091505060019003905f5260205f20015f90919091909150556002543373ffffffffffffffffffffffffffffffffffffffff167f4f5b22082ac57121703b0b6c1203ef527cfbfa5069616fee6deb979d124adbf060405160405180910390a360025491505090565b5f5f5f5f8481526020019081526020015f2090508060040160019054906101000a900460ff1615806108d057508060040160029054906101000a900460ff165b156108de575f915050610960565b5f8160030154426108ef9190611a26565b90505f601e826108ff9190611a86565b90505f600260ff16826109129190611ab6565b9050836004015f9054906101000a900460ff1660ff16811061093a575f945050505050610960565b80846004015f9054906101000a900460ff1660ff166109599190611a26565b9450505050505b919050565b601e81565b6001602052815f5260405f208181548110610983575f80fd5b905f5260205f20015f91509150505481565b60035f9054906101000a900473ffffffffffffffffffffffffffffffffffffffff1681565b5f602052805f5260405f205f91509050805f015490806001015f9054906101000a900473ffffffffffffffffffffffffffffffffffffffff16908060010160149054906101000a900460ff1690806002015490806003015490806004015f9054906101000a900460ff16908060040160019054906101000a900460ff16908060040160029054906101000a900460ff16905088565b5f5f5f8381526020019081526020015f2090508060040160019054906101000a900460ff16610ab3576040517f08c379a0000000000000000000000000000000000000000000000000000000008152600401610aaa90611b41565b60405180910390fd5b3373ffffffffffffffffffffffffffffffffffffffff16816001015f9054906101000a900473ffffffffffffffffffffffffffffffffffffffff1673ffffffffffffffffffffffffffffffffffffffff1614610b44576040517f08c379a0000000000000000000000000000000000000000000000000000000008152600401610b3b90611883565b60405180910390fd5b8060040160029054906101000a900460ff1615610b96576040517f08c379a0000000000000000000000000000000000000000000000000000000008152600401610b8d90611ba9565b60405180910390fd5b6064816004015f6101000a81548160ff021916908360ff160217905550428160030181905550817fd4b742b9ba48fffa1f14267075a7793851770764117c423fd0a6550dfc8cb5746064604051610bed9190611c09565b60405180910390a2610bfe82610c23565b5050565b60025481565b600281565b660aa87bee53800081565b66038d7ea4c6800081565b5f5f5f8381526020019081526020015f2090508060040160019054906101000a900460ff16610c87576040517f08c379a0000000000000000000000000000000000000000000000000000000008152600401610c7e90611b41565b60405180910390fd5b610c908261128d565b8060040160029054906101000a900460ff1615610cad5750610e54565b5f816002015442610cbe9190611a26565b90505f8260010160149054906101000a900460ff1690506003603c610ce39190611ab6565b8210610d1b5760038360010160146101000a81548160ff02191690836003811115610d1157610d1061162a565b5b0217905550610dca565b6002603c610d299190611ab6565b8210610d615760028360010160146101000a81548160ff02191690836003811115610d5757610d5661162a565b5b0217905550610dc9565b603c8210610d9b5760018360010160146101000a81548160ff02191690836003811115610d9157610d9061162a565b5b0217905550610dc8565b5f8360010160146101000a81548160ff02191690836003811115610dc257610dc161162a565b5b02179055505b5b5b806003811115610ddd57610ddc61162a565b5b8360010160149054906101000a900460ff166003811115610e0157610e0061162a565b5b14610e5057837f338b8976706f9da67298dddfa1ea4ff7d99cce68b9ca39c4f348994f8e2124a88460010160149054906101000a900460ff16604051610e479190611c22565b60405180910390a25b5050505b50565b5f5f5f8381526020019081526020015f2090508060040160019054906101000a900460ff16610ebb576040517f08c379a0000000000000000000000000000000000000000000000000000000008152600401610eb290611b41565b60405180910390fd5b3373ffffffffffffffffffffffffffffffffffffffff16816001015f9054906101000a900473ffffffffffffffffffffffffffffffffffffffff1673ffffffffffffffffffffffffffffffffffffffff1614610f4c576040517f08c379a0000000000000000000000000000000000000000000000000000000008152600401610f4390611883565b60405180910390fd5b8060040160029054906101000a900460ff1615610f9e576040517f08c379a0000000000000000000000000000000000000000000000000000000008152600401610f9590611ba9565b60405180910390fd5b610fa782610c23565b600380811115610fba57610fb961162a565b5b8160010160149054906101000a900460ff166003811115610fde57610fdd61162a565b5b1461101e576040517f08c379a000000000000000000000000000000000000000000000000000000000815260040161101590611c85565b60405180910390fd5b5f8160040160016101000a81548160ff0219169083151502179055503373ffffffffffffffffffffffffffffffffffffffff16827f79f2138ea100070ff95b59c265da7aa3c7a0f61595fe1bb2f5fda2762f398847660aa87bee5380006040516110889190611522565b60405180910390a35f3373ffffffffffffffffffffffffffffffffffffffff16660aa87bee5380006040516110bc906118ce565b5f6040518083038185875af1925050503d805f81146110f6576040519150601f19603f3d011682016040523d82523d5f602084013e6110fb565b606091505b505090508061113f576040517f08c379a000000000000000000000000000000000000000000000000000000000815260040161113690611ced565b60405180910390fd5b505050565b61114c61133e565b5f5f5f8481526020019081526020015f20604051806101000160405290815f8201548152602001600182015f9054906101000a900473ffffffffffffffffffffffffffffffffffffffff1673ffffffffffffffffffffffffffffffffffffffff1673ffffffffffffffffffffffffffffffffffffffff1681526020016001820160149054906101000a900460ff1660038111156111ec576111eb61162a565b5b60038111156111fe576111fd61162a565b5b81526020016002820154815260200160038201548152602001600482015f9054906101000a900460ff1660ff1660ff1681526020016004820160019054906101000a900460ff161515151581526020016004820160029054906101000a900460ff161515151581525050905061127383610890565b8160a0019060ff16908160ff168152505080915050919050565b5f5f5f8381526020019081526020015f2090505f6112aa83610890565b905080826004015f6101000a81548160ff021916908360ff1602179055505f8160ff161480156112e957508160040160029054906101000a900460ff16155b156113395760018260040160026101000a81548160ff021916908315150217905550827fcc296a21951f3e57f21afb08547d835a0a9f0f06cc2867009cbe0cae44d36be960405160405180910390a25b505050565b6040518061010001604052805f81526020015f73ffffffffffffffffffffffffffffffffffffffff1681526020015f600381111561137f5761137e61162a565b5b81526020015f81526020015f81526020015f60ff1681526020015f151581526020015f151581525090565b5f5ffd5b5f73ffffffffffffffffffffffffffffffffffffffff82169050919050565b5f6113d7826113ae565b9050919050565b6113e7816113cd565b81146113f1575f5ffd5b50565b5f81359050611402816113de565b92915050565b5f6020828403121561141d5761141c6113aa565b5b5f61142a848285016113f4565b91505092915050565b5f81519050919050565b5f82825260208201905092915050565b5f819050602082019050919050565b5f819050919050565b61146e8161145c565b82525050565b5f61147f8383611465565b60208301905092915050565b5f602082019050919050565b5f6114a182611433565b6114ab818561143d565b93506114b68361144d565b805f5b838110156114e65781516114cd8882611474565b97506114d88361148b565b9250506001810190506114b9565b5085935050505092915050565b5f6020820190508181035f83015261150b8184611497565b905092915050565b61151c8161145c565b82525050565b5f6020820190506115355f830184611513565b92915050565b6115448161145c565b811461154e575f5ffd5b50565b5f8135905061155f8161153b565b92915050565b5f6020828403121561157a576115796113aa565b5b5f61158784828501611551565b91505092915050565b5f60ff82169050919050565b6115a581611590565b82525050565b5f6020820190506115be5f83018461159c565b92915050565b5f5f604083850312156115da576115d96113aa565b5b5f6115e7858286016113f4565b92505060206115f885828601611551565b9150509250929050565b61160b816113cd565b82525050565b5f6020820190506116245f830184611602565b92915050565b7f4e487b71000000000000000000000000000000000000000000000000000000005f52602160045260245ffd5b600481106116685761166761162a565b5b50565b5f81905061167882611657565b919050565b5f6116878261166b565b9050919050565b6116978161167d565b82525050565b5f8115159050919050565b6116b18161169d565b82525050565b5f610100820190506116cb5f83018b611513565b6116d8602083018a611602565b6116e5604083018961168e565b6116f26060830188611513565b6116ff6080830187611513565b61170c60a083018661159c565b61171960c08301856116a8565b61172660e08301846116a8565b9998505050505050505050565b61173c816113cd565b82525050565b61174b8161167d565b82525050565b61175a81611590565b82525050565b6117698161169d565b82525050565b61010082015f8201516117845f850182611465565b5060208201516117976020850182611733565b5060408201516117aa6040850182611742565b5060608201516117bd6060850182611465565b5060808201516117d06080850182611465565b5060a08201516117e360a0850182611751565b5060c08201516117f660c0850182611760565b5060e082015161180960e0850182611760565b50505050565b5f610100820190506118235f83018461176f565b92915050565b5f82825260208201905092915050565b7f596f7520617265206e6f7420746865206f776e657221000000000000000000005f82015250565b5f61186d601683611829565b915061187882611839565b602082019050919050565b5f6020820190508181035f83015261189a81611861565b9050919050565b5f81905092915050565b50565b5f6118b95f836118a1565b91506118c4826118ab565b5f82019050919050565b5f6118d8826118ae565b9150819050919050565b7f4661696c6564205472616e7366657221000000000000000000000000000000005f82015250565b5f611916601083611829565b9150611921826118e2565b602082019050919050565b5f6020820190508181035f8301526119438161190a565b9050919050565b7f496e73756666696369656e742062616c616e63652100000000000000000000005f82015250565b5f61197e601583611829565b91506119898261194a565b602082019050919050565b5f6020820190508181035f8301526119ab81611972565b9050919050565b7f4e487b71000000000000000000000000000000000000000000000000000000005f52601160045260245ffd5b5f6119e98261145c565b91507fffffffffffffffffffffffffffffffffffffffffffffffffffffffffffffffff8203611a1b57611a1a6119b2565b5b600182019050919050565b5f611a308261145c565b9150611a3b8361145c565b9250828203905081811115611a5357611a526119b2565b5b92915050565b7f4e487b71000000000000000000000000000000000000000000000000000000005f52601260045260245ffd5b5f611a908261145c565b9150611a9b8361145c565b925082611aab57611aaa611a59565b5b828204905092915050565b5f611ac08261145c565b9150611acb8361145c565b9250828202611ad98161145c565b91508282048414831517611af057611aef6119b2565b5b5092915050565b7f506c616e7420646f65736e2774206578697374210000000000000000000000005f82015250565b5f611b2b601483611829565b9150611b3682611af7565b602082019050919050565b5f6020820190508181035f830152611b5881611b1f565b9050919050565b7f506c616e7420616c7265616479206465616421000000000000000000000000005f82015250565b5f611b93601383611829565b9150611b9e82611b5f565b602082019050919050565b5f6020820190508181035f830152611bc081611b87565b9050919050565b5f819050919050565b5f819050919050565b5f611bf3611bee611be984611bc7565b611bd0565b611590565b9050919050565b611c0381611bd9565b82525050565b5f602082019050611c1c5f830184611bfa565b92915050565b5f602082019050611c355f83018461168e565b92915050565b7f42656c756d206d656b61720000000000000000000000000000000000000000005f82015250565b5f611c6f600b83611829565b9150611c7a82611c3b565b602082019050919050565b5f6020820190508181035f830152611c9c81611c63565b9050919050565b7f4661696c65642073656e64696e672072657761726421000000000000000000005f82015250565b5f611cd7601683611829565b9150611ce282611ca3565b602082019050919050565b5f6020820190508181035f830152611d0481611ccb565b905091905056fea26469706673582212200a3aba79ff32f28813becc9af12ce6909832a240f70f0bf92637bab8dff7d90964736f6c634300081e0033",
					"opcodes": "PUSH1 0x80 PUSH1 0x40 MSTORE CALLVALUE DUP1 ISZERO PUSH1 0xE JUMPI PUSH0 PUSH0 REVERT JUMPDEST POP CALLER PUSH1 0x3 PUSH0 PUSH2 0x100 EXP DUP2 SLOAD DUP2 PUSH20 0xFFFFFFFFFFFFFFFFFFFFFFFFFFFFFFFFFFFFFFFF MUL NOT AND SWAP1 DUP4 PUSH20 0xFFFFFFFFFFFFFFFFFFFFFFFFFFFFFFFFFFFFFFFF AND MUL OR SWAP1 SSTORE POP PUSH2 0x1D41 DUP1 PUSH2 0x5C PUSH0 CODECOPY PUSH0 RETURN INVALID PUSH1 0x80 PUSH1 0x40 MSTORE PUSH1 0x4 CALLDATASIZE LT PUSH2 0x101 JUMPI PUSH0 CALLDATALOAD PUSH1 0xE0 SHR DUP1 PUSH4 0x8DD2361C GT PUSH2 0x94 JUMPI DUP1 PUSH4 0xCBF64268 GT PUSH2 0x63 JUMPI DUP1 PUSH4 0xCBF64268 EQ PUSH2 0x331 JUMPI DUP1 PUSH4 0xCFC9A5F8 EQ PUSH2 0x35B JUMPI DUP1 PUSH4 0xDDD42596 EQ PUSH2 0x385 JUMPI DUP1 PUSH4 0xE38F8448 EQ PUSH2 0x3AD JUMPI DUP1 PUSH4 0xED0B1F5F EQ PUSH2 0x3D5 JUMPI PUSH2 0x108 JUMP JUMPDEST DUP1 PUSH4 0x8DD2361C EQ PUSH2 0x272 JUMPI DUP1 PUSH4 0x9886BCFA EQ PUSH2 0x2B5 JUMPI DUP1 PUSH4 0x9C471749 EQ PUSH2 0x2DD JUMPI DUP1 PUSH4 0xBACB5EBD EQ PUSH2 0x307 JUMPI PUSH2 0x108 JUMP JUMPDEST DUP1 PUSH4 0x754E150D GT PUSH2 0xD0 JUMPI DUP1 PUSH4 0x754E150D EQ PUSH2 0x1A6 JUMPI DUP1 PUSH4 0x7ED4C5BE EQ PUSH2 0x1E2 JUMPI DUP1 PUSH4 0x8AEE578B EQ PUSH2 0x20C JUMPI DUP1 PUSH4 0x8DA5CB5B EQ PUSH2 0x248 JUMPI PUSH2 0x108 JUMP JUMPDEST DUP1 PUSH4 0x30CEC0EB EQ PUSH2 0x10C JUMPI DUP1 PUSH4 0x3CCFD60B EQ PUSH2 0x148 JUMPI DUP1 PUSH4 0x51F9EFDE EQ PUSH2 0x15E JUMPI DUP1 PUSH4 0x74119A38 EQ PUSH2 0x188 JUMPI PUSH2 0x108 JUMP JUMPDEST CALLDATASIZE PUSH2 0x108 JUMPI STOP JUMPDEST PUSH0 PUSH0 REVERT JUMPDEST CALLVALUE DUP1 ISZERO PUSH2 0x117 JUMPI PUSH0 PUSH0 REVERT JUMPDEST POP PUSH2 0x132 PUSH1 0x4 DUP1 CALLDATASIZE SUB DUP2 ADD SWAP1 PUSH2 0x12D SWAP2 SWAP1 PUSH2 0x1408 JUMP JUMPDEST PUSH2 0x411 JUMP JUMPDEST PUSH1 0x40 MLOAD PUSH2 0x13F SWAP2 SWAP1 PUSH2 0x14F3 JUMP JUMPDEST PUSH1 0x40 MLOAD DUP1 SWAP2 SUB SWAP1 RETURN JUMPDEST CALLVALUE DUP1 ISZERO PUSH2 0x153 JUMPI PUSH0 PUSH0 REVERT JUMPDEST POP PUSH2 0x15C PUSH2 0x4A4 JUMP JUMPDEST STOP JUMPDEST CALLVALUE DUP1 ISZERO PUSH2 0x169 JUMPI PUSH0 PUSH0 REVERT JUMPDEST POP PUSH2 0x172 PUSH2 0x5FF JUMP JUMPDEST PUSH1 0x40 MLOAD PUSH2 0x17F SWAP2 SWAP1 PUSH2 0x1522 JUMP JUMPDEST PUSH1 0x40 MLOAD DUP1 SWAP2 SUB SWAP1 RETURN JUMPDEST PUSH2 0x190 PUSH2 0x604 JUMP JUMPDEST PUSH1 0x40 MLOAD PUSH2 0x19D SWAP2 SWAP1 PUSH2 0x1522 JUMP JUMPDEST PUSH1 0x40 MLOAD DUP1 SWAP2 SUB SWAP1 RETURN JUMPDEST CALLVALUE DUP1 ISZERO PUSH2 0x1B1 JUMPI PUSH0 PUSH0 REVERT JUMPDEST POP PUSH2 0x1CC PUSH1 0x4 DUP1 CALLDATASIZE SUB DUP2 ADD SWAP1 PUSH2 0x1C7 SWAP2 SWAP1 PUSH2 0x1565 JUMP JUMPDEST PUSH2 0x890 JUMP JUMPDEST PUSH1 0x40 MLOAD PUSH2 0x1D9 SWAP2 SWAP1 PUSH2 0x15AB JUMP JUMPDEST PUSH1 0x40 MLOAD DUP1 SWAP2 SUB SWAP1 RETURN JUMPDEST CALLVALUE DUP1 ISZERO PUSH2 0x1ED JUMPI PUSH0 PUSH0 REVERT JUMPDEST POP PUSH2 0x1F6 PUSH2 0x965 JUMP JUMPDEST PUSH1 0x40 MLOAD PUSH2 0x203 SWAP2 SWAP1 PUSH2 0x1522 JUMP JUMPDEST PUSH1 0x40 MLOAD DUP1 SWAP2 SUB SWAP1 RETURN JUMPDEST CALLVALUE DUP1 ISZERO PUSH2 0x217 JUMPI PUSH0 PUSH0 REVERT JUMPDEST POP PUSH2 0x232 PUSH1 0x4 DUP1 CALLDATASIZE SUB DUP2 ADD SWAP1 PUSH2 0x22D SWAP2 SWAP1 PUSH2 0x15C4 JUMP JUMPDEST PUSH2 0x96A JUMP JUMPDEST PUSH1 0x40 MLOAD PUSH2 0x23F SWAP2 SWAP1 PUSH2 0x1522 JUMP JUMPDEST PUSH1 0x40 MLOAD DUP1 SWAP2 SUB SWAP1 RETURN JUMPDEST CALLVALUE DUP1 ISZERO PUSH2 0x253 JUMPI PUSH0 PUSH0 REVERT JUMPDEST POP PUSH2 0x25C PUSH2 0x995 JUMP JUMPDEST PUSH1 0x40 MLOAD PUSH2 0x269 SWAP2 SWAP1 PUSH2 0x1611 JUMP JUMPDEST PUSH1 0x40 MLOAD DUP1 SWAP2 SUB SWAP1 RETURN JUMPDEST CALLVALUE DUP1 ISZERO PUSH2 0x27D JUMPI PUSH0 PUSH0 REVERT JUMPDEST POP PUSH2 0x298 PUSH1 0x4 DUP1 CALLDATASIZE SUB DUP2 ADD SWAP1 PUSH2 0x293 SWAP2 SWAP1 PUSH2 0x1565 JUMP JUMPDEST PUSH2 0x9BA JUMP JUMPDEST PUSH1 0x40 MLOAD PUSH2 0x2AC SWAP9 SWAP8 SWAP7 SWAP6 SWAP5 SWAP4 SWAP3 SWAP2 SWAP1 PUSH2 0x16B7 JUMP JUMPDEST PUSH1 0x40 MLOAD DUP1 SWAP2 SUB SWAP1 RETURN JUMPDEST CALLVALUE DUP1 ISZERO PUSH2 0x2C0 JUMPI PUSH0 PUSH0 REVERT JUMPDEST POP PUSH2 0x2DB PUSH1 0x4 DUP1 CALLDATASIZE SUB DUP2 ADD SWAP1 PUSH2 0x2D6 SWAP2 SWAP1 PUSH2 0x1565 JUMP JUMPDEST PUSH2 0xA4F JUMP JUMPDEST STOP JUMPDEST CALLVALUE DUP1 ISZERO PUSH2 0x2E8 JUMPI PUSH0 PUSH0 REVERT JUMPDEST POP PUSH2 0x2F1 PUSH2 0xC02 JUMP JUMPDEST PUSH1 0x40 MLOAD PUSH2 0x2FE SWAP2 SWAP1 PUSH2 0x1522 JUMP JUMPDEST PUSH1 0x40 MLOAD DUP1 SWAP2 SUB SWAP1 RETURN JUMPDEST CALLVALUE DUP1 ISZERO PUSH2 0x312 JUMPI PUSH0 PUSH0 REVERT JUMPDEST POP PUSH2 0x31B PUSH2 0xC08 JUMP JUMPDEST PUSH1 0x40 MLOAD PUSH2 0x328 SWAP2 SWAP1 PUSH2 0x15AB JUMP JUMPDEST PUSH1 0x40 MLOAD DUP1 SWAP2 SUB SWAP1 RETURN JUMPDEST CALLVALUE DUP1 ISZERO PUSH2 0x33C JUMPI PUSH0 PUSH0 REVERT JUMPDEST POP PUSH2 0x345 PUSH2 0xC0D JUMP JUMPDEST PUSH1 0x40 MLOAD PUSH2 0x352 SWAP2 SWAP1 PUSH2 0x1522 JUMP JUMPDEST PUSH1 0x40 MLOAD DUP1 SWAP2 SUB SWAP1 RETURN JUMPDEST CALLVALUE DUP1 ISZERO PUSH2 0x366 JUMPI PUSH0 PUSH0 REVERT JUMPDEST POP PUSH2 0x36F PUSH2 0xC18 JUMP JUMPDEST PUSH1 0x40 MLOAD PUSH2 0x37C SWAP2 SWAP1 PUSH2 0x1522 JUMP JUMPDEST PUSH1 0x40 MLOAD DUP1 SWAP2 SUB SWAP1 RETURN JUMPDEST CALLVALUE DUP1 ISZERO PUSH2 0x390 JUMPI PUSH0 PUSH0 REVERT JUMPDEST POP PUSH2 0x3AB PUSH1 0x4 DUP1 CALLDATASIZE SUB DUP2 ADD SWAP1 PUSH2 0x3A6 SWAP2 SWAP1 PUSH2 0x1565 JUMP JUMPDEST PUSH2 0xC23 JUMP JUMPDEST STOP JUMPDEST CALLVALUE DUP1 ISZERO PUSH2 0x3B8 JUMPI PUSH0 PUSH0 REVERT JUMPDEST POP PUSH2 0x3D3 PUSH1 0x4 DUP1 CALLDATASIZE SUB DUP2 ADD SWAP1 PUSH2 0x3CE SWAP2 SWAP1 PUSH2 0x1565 JUMP JUMPDEST PUSH2 0xE57 JUMP JUMPDEST STOP JUMPDEST CALLVALUE DUP1 ISZERO PUSH2 0x3E0 JUMPI PUSH0 PUSH0 REVERT JUMPDEST POP PUSH2 0x3FB PUSH1 0x4 DUP1 CALLDATASIZE SUB DUP2 ADD SWAP1 PUSH2 0x3F6 SWAP2 SWAP1 PUSH2 0x1565 JUMP JUMPDEST PUSH2 0x1144 JUMP JUMPDEST PUSH1 0x40 MLOAD PUSH2 0x408 SWAP2 SWAP1 PUSH2 0x180F JUMP JUMPDEST PUSH1 0x40 MLOAD DUP1 SWAP2 SUB SWAP1 RETURN JUMPDEST PUSH1 0x60 PUSH1 0x1 PUSH0 DUP4 PUSH20 0xFFFFFFFFFFFFFFFFFFFFFFFFFFFFFFFFFFFFFFFF AND PUSH20 0xFFFFFFFFFFFFFFFFFFFFFFFFFFFFFFFFFFFFFFFF AND DUP2 MSTORE PUSH1 0x20 ADD SWAP1 DUP2 MSTORE PUSH1 0x20 ADD PUSH0 KECCAK256 DUP1 SLOAD DUP1 PUSH1 0x20 MUL PUSH1 0x20 ADD PUSH1 0x40 MLOAD SWAP1 DUP2 ADD PUSH1 0x40 MSTORE DUP1 SWAP3 SWAP2 SWAP1 DUP2 DUP2 MSTORE PUSH1 0x20 ADD DUP3 DUP1 SLOAD DUP1 ISZERO PUSH2 0x498 JUMPI PUSH1 0x20 MUL DUP3 ADD SWAP2 SWAP1 PUSH0 MSTORE PUSH1 0x20 PUSH0 KECCAK256 SWAP1 JUMPDEST DUP2 SLOAD DUP2 MSTORE PUSH1 0x20 ADD SWAP1 PUSH1 0x1 ADD SWAP1 DUP1 DUP4 GT PUSH2 0x484 JUMPI JUMPDEST POP POP POP POP POP SWAP1 POP SWAP2 SWAP1 POP JUMP JUMPDEST PUSH1 0x3 PUSH0 SWAP1 SLOAD SWAP1 PUSH2 0x100 EXP SWAP1 DIV PUSH20 0xFFFFFFFFFFFFFFFFFFFFFFFFFFFFFFFFFFFFFFFF AND PUSH20 0xFFFFFFFFFFFFFFFFFFFFFFFFFFFFFFFFFFFFFFFF AND CALLER PUSH20 0xFFFFFFFFFFFFFFFFFFFFFFFFFFFFFFFFFFFFFFFF AND EQ PUSH2 0x533 JUMPI PUSH1 0x40 MLOAD PUSH32 0x8C379A000000000000000000000000000000000000000000000000000000000 DUP2 MSTORE PUSH1 0x4 ADD PUSH2 0x52A SWAP1 PUSH2 0x1883 JUMP JUMPDEST PUSH1 0x40 MLOAD DUP1 SWAP2 SUB SWAP1 REVERT JUMPDEST PUSH0 PUSH1 0x3 PUSH0 SWAP1 SLOAD SWAP1 PUSH2 0x100 EXP SWAP1 DIV PUSH20 0xFFFFFFFFFFFFFFFFFFFFFFFFFFFFFFFFFFFFFFFF AND PUSH20 0xFFFFFFFFFFFFFFFFFFFFFFFFFFFFFFFFFFFFFFFF AND SELFBALANCE PUSH1 0x40 MLOAD PUSH2 0x579 SWAP1 PUSH2 0x18CE JUMP JUMPDEST PUSH0 PUSH1 0x40 MLOAD DUP1 DUP4 SUB DUP2 DUP6 DUP8 GAS CALL SWAP3 POP POP POP RETURNDATASIZE DUP1 PUSH0 DUP2 EQ PUSH2 0x5B3 JUMPI PUSH1 0x40 MLOAD SWAP2 POP PUSH1 0x1F NOT PUSH1 0x3F RETURNDATASIZE ADD AND DUP3 ADD PUSH1 0x40 MSTORE RETURNDATASIZE DUP3 MSTORE RETURNDATASIZE PUSH0 PUSH1 0x20 DUP5 ADD RETURNDATACOPY PUSH2 0x5B8 JUMP JUMPDEST PUSH1 0x60 SWAP2 POP JUMPDEST POP POP SWAP1 POP DUP1 PUSH2 0x5FC JUMPI PUSH1 0x40 MLOAD PUSH32 0x8C379A000000000000000000000000000000000000000000000000000000000 DUP2 MSTORE PUSH1 0x4 ADD PUSH2 0x5F3 SWAP1 PUSH2 0x192C JUMP JUMPDEST PUSH1 0x40 MLOAD DUP1 SWAP2 SUB SWAP1 REVERT JUMPDEST POP JUMP JUMPDEST PUSH1 0x3C DUP2 JUMP JUMPDEST PUSH0 PUSH7 0x38D7EA4C68000 CALLVALUE LT ISZERO PUSH2 0x64F JUMPI PUSH1 0x40 MLOAD PUSH32 0x8C379A000000000000000000000000000000000000000000000000000000000 DUP2 MSTORE PUSH1 0x4 ADD PUSH2 0x646 SWAP1 PUSH2 0x1994 JUMP JUMPDEST PUSH1 0x40 MLOAD DUP1 SWAP2 SUB SWAP1 REVERT JUMPDEST PUSH1 0x2 PUSH0 DUP2 SLOAD DUP1 SWAP3 SWAP2 SWAP1 PUSH2 0x661 SWAP1 PUSH2 0x19DF JUMP JUMPDEST SWAP2 SWAP1 POP SSTORE POP PUSH0 PUSH1 0x40 MLOAD DUP1 PUSH2 0x100 ADD PUSH1 0x40 MSTORE DUP1 PUSH1 0x2 SLOAD DUP2 MSTORE PUSH1 0x20 ADD CALLER PUSH20 0xFFFFFFFFFFFFFFFFFFFFFFFFFFFFFFFFFFFFFFFF AND DUP2 MSTORE PUSH1 0x20 ADD PUSH0 PUSH1 0x3 DUP2 GT ISZERO PUSH2 0x6AA JUMPI PUSH2 0x6A9 PUSH2 0x162A JUMP JUMPDEST JUMPDEST DUP2 MSTORE PUSH1 0x20 ADD TIMESTAMP DUP2 MSTORE PUSH1 0x20 ADD TIMESTAMP DUP2 MSTORE PUSH1 0x20 ADD PUSH1 0x64 PUSH1 0xFF AND DUP2 MSTORE PUSH1 0x20 ADD PUSH1 0x1 ISZERO ISZERO DUP2 MSTORE PUSH1 0x20 ADD PUSH0 ISZERO ISZERO DUP2 MSTORE POP SWAP1 POP DUP1 PUSH0 PUSH0 PUSH1 0x2 SLOAD DUP2 MSTORE PUSH1 0x20 ADD SWAP1 DUP2 MSTORE PUSH1 0x20 ADD PUSH0 KECCAK256 PUSH0 DUP3 ADD MLOAD DUP2 PUSH0 ADD SSTORE PUSH1 0x20 DUP3 ADD MLOAD DUP2 PUSH1 0x1 ADD PUSH0 PUSH2 0x100 EXP DUP2 SLOAD DUP2 PUSH20 0xFFFFFFFFFFFFFFFFFFFFFFFFFFFFFFFFFFFFFFFF MUL NOT AND SWAP1 DUP4 PUSH20 0xFFFFFFFFFFFFFFFFFFFFFFFFFFFFFFFFFFFFFFFF AND MUL OR SWAP1 SSTORE POP PUSH1 0x40 DUP3 ADD MLOAD DUP2 PUSH1 0x1 ADD PUSH1 0x14 PUSH2 0x100 EXP DUP2 SLOAD DUP2 PUSH1 0xFF MUL NOT AND SWAP1 DUP4 PUSH1 0x3 DUP2 GT ISZERO PUSH2 0x762 JUMPI PUSH2 0x761 PUSH2 0x162A JUMP JUMPDEST JUMPDEST MUL OR SWAP1 SSTORE POP PUSH1 0x60 DUP3 ADD MLOAD DUP2 PUSH1 0x2 ADD SSTORE PUSH1 0x80 DUP3 ADD MLOAD DUP2 PUSH1 0x3 ADD SSTORE PUSH1 0xA0 DUP3 ADD MLOAD DUP2 PUSH1 0x4 ADD PUSH0 PUSH2 0x100 EXP DUP2 SLOAD DUP2 PUSH1 0xFF MUL NOT AND SWAP1 DUP4 PUSH1 0xFF AND MUL OR SWAP1 SSTORE POP PUSH1 0xC0 DUP3 ADD MLOAD DUP2 PUSH1 0x4 ADD PUSH1 0x1 PUSH2 0x100 EXP DUP2 SLOAD DUP2 PUSH1 0xFF MUL NOT AND SWAP1 DUP4 ISZERO ISZERO MUL OR SWAP1 SSTORE POP PUSH1 0xE0 DUP3 ADD MLOAD DUP2 PUSH1 0x4 ADD PUSH1 0x2 PUSH2 0x100 EXP DUP2 SLOAD DUP2 PUSH1 0xFF MUL NOT AND SWAP1 DUP4 ISZERO ISZERO MUL OR SWAP1 SSTORE POP SWAP1 POP POP PUSH1 0x1 PUSH0 CALLER PUSH20 0xFFFFFFFFFFFFFFFFFFFFFFFFFFFFFFFFFFFFFFFF AND PUSH20 0xFFFFFFFFFFFFFFFFFFFFFFFFFFFFFFFFFFFFFFFF AND DUP2 MSTORE PUSH1 0x20 ADD SWAP1 DUP2 MSTORE PUSH1 0x20 ADD PUSH0 KECCAK256 PUSH1 0x2 SLOAD SWAP1 DUP1 PUSH1 0x1 DUP2 SLOAD ADD DUP1 DUP3 SSTORE DUP1 SWAP2 POP POP PUSH1 0x1 SWAP1 SUB SWAP1 PUSH0 MSTORE PUSH1 0x20 PUSH0 KECCAK256 ADD PUSH0 SWAP1 SWAP2 SWAP1 SWAP2 SWAP1 SWAP2 POP SSTORE PUSH1 0x2 SLOAD CALLER PUSH20 0xFFFFFFFFFFFFFFFFFFFFFFFFFFFFFFFFFFFFFFFF AND PUSH32 0x4F5B22082AC57121703B0B6C1203EF527CFBFA5069616FEE6DEB979D124ADBF0 PUSH1 0x40 MLOAD PUSH1 0x40 MLOAD DUP1 SWAP2 SUB SWAP1 LOG3 PUSH1 0x2 SLOAD SWAP2 POP POP SWAP1 JUMP JUMPDEST PUSH0 PUSH0 PUSH0 PUSH0 DUP5 DUP2 MSTORE PUSH1 0x20 ADD SWAP1 DUP2 MSTORE PUSH1 0x20 ADD PUSH0 KECCAK256 SWAP1 POP DUP1 PUSH1 0x4 ADD PUSH1 0x1 SWAP1 SLOAD SWAP1 PUSH2 0x100 EXP SWAP1 DIV PUSH1 0xFF AND ISZERO DUP1 PUSH2 0x8D0 JUMPI POP DUP1 PUSH1 0x4 ADD PUSH1 0x2 SWAP1 SLOAD SWAP1 PUSH2 0x100 EXP SWAP1 DIV PUSH1 0xFF AND JUMPDEST ISZERO PUSH2 0x8DE JUMPI PUSH0 SWAP2 POP POP PUSH2 0x960 JUMP JUMPDEST PUSH0 DUP2 PUSH1 0x3 ADD SLOAD TIMESTAMP PUSH2 0x8EF SWAP2 SWAP1 PUSH2 0x1A26 JUMP JUMPDEST SWAP1 POP PUSH0 PUSH1 0x1E DUP3 PUSH2 0x8FF SWAP2 SWAP1 PUSH2 0x1A86 JUMP JUMPDEST SWAP1 POP PUSH0 PUSH1 0x2 PUSH1 0xFF AND DUP3 PUSH2 0x912 SWAP2 SWAP1 PUSH2 0x1AB6 JUMP JUMPDEST SWAP1 POP DUP4 PUSH1 0x4 ADD PUSH0 SWAP1 SLOAD SWAP1 PUSH2 0x100 EXP SWAP1 DIV PUSH1 0xFF AND PUSH1 0xFF AND DUP2 LT PUSH2 0x93A JUMPI PUSH0 SWAP5 POP POP POP POP POP PUSH2 0x960 JUMP JUMPDEST DUP1 DUP5 PUSH1 0x4 ADD PUSH0 SWAP1 SLOAD SWAP1 PUSH2 0x100 EXP SWAP1 DIV PUSH1 0xFF AND PUSH1 0xFF AND PUSH2 0x959 SWAP2 SWAP1 PUSH2 0x1A26 JUMP JUMPDEST SWAP5 POP POP POP POP POP JUMPDEST SWAP2 SWAP1 POP JUMP JUMPDEST PUSH1 0x1E DUP2 JUMP JUMPDEST PUSH1 0x1 PUSH1 0x20 MSTORE DUP2 PUSH0 MSTORE PUSH1 0x40 PUSH0 KECCAK256 DUP2 DUP2 SLOAD DUP2 LT PUSH2 0x983 JUMPI PUSH0 DUP1 REVERT JUMPDEST SWAP1 PUSH0 MSTORE PUSH1 0x20 PUSH0 KECCAK256 ADD PUSH0 SWAP2 POP SWAP2 POP POP SLOAD DUP2 JUMP JUMPDEST PUSH1 0x3 PUSH0 SWAP1 SLOAD SWAP1 PUSH2 0x100 EXP SWAP1 DIV PUSH20 0xFFFFFFFFFFFFFFFFFFFFFFFFFFFFFFFFFFFFFFFF AND DUP2 JUMP JUMPDEST PUSH0 PUSH1 0x20 MSTORE DUP1 PUSH0 MSTORE PUSH1 0x40 PUSH0 KECCAK256 PUSH0 SWAP2 POP SWAP1 POP DUP1 PUSH0 ADD SLOAD SWAP1 DUP1 PUSH1 0x1 ADD PUSH0 SWAP1 SLOAD SWAP1 PUSH2 0x100 EXP SWAP1 DIV PUSH20 0xFFFFFFFFFFFFFFFFFFFFFFFFFFFFFFFFFFFFFFFF AND SWAP1 DUP1 PUSH1 0x1 ADD PUSH1 0x14 SWAP1 SLOAD SWAP1 PUSH2 0x100 EXP SWAP1 DIV PUSH1 0xFF AND SWAP1 DUP1 PUSH1 0x2 ADD SLOAD SWAP1 DUP1 PUSH1 0x3 ADD SLOAD SWAP1 DUP1 PUSH1 0x4 ADD PUSH0 SWAP1 SLOAD SWAP1 PUSH2 0x100 EXP SWAP1 DIV PUSH1 0xFF AND SWAP1 DUP1 PUSH1 0x4 ADD PUSH1 0x1 SWAP1 SLOAD SWAP1 PUSH2 0x100 EXP SWAP1 DIV PUSH1 0xFF AND SWAP1 DUP1 PUSH1 0x4 ADD PUSH1 0x2 SWAP1 SLOAD SWAP1 PUSH2 0x100 EXP SWAP1 DIV PUSH1 0xFF AND SWAP1 POP DUP9 JUMP JUMPDEST PUSH0 PUSH0 PUSH0 DUP4 DUP2 MSTORE PUSH1 0x20 ADD SWAP1 DUP2 MSTORE PUSH1 0x20 ADD PUSH0 KECCAK256 SWAP1 POP DUP1 PUSH1 0x4 ADD PUSH1 0x1 SWAP1 SLOAD SWAP1 PUSH2 0x100 EXP SWAP1 DIV PUSH1 0xFF AND PUSH2 0xAB3 JUMPI PUSH1 0x40 MLOAD PUSH32 0x8C379A000000000000000000000000000000000000000000000000000000000 DUP2 MSTORE PUSH1 0x4 ADD PUSH2 0xAAA SWAP1 PUSH2 0x1B41 JUMP JUMPDEST PUSH1 0x40 MLOAD DUP1 SWAP2 SUB SWAP1 REVERT JUMPDEST CALLER PUSH20 0xFFFFFFFFFFFFFFFFFFFFFFFFFFFFFFFFFFFFFFFF AND DUP2 PUSH1 0x1 ADD PUSH0 SWAP1 SLOAD SWAP1 PUSH2 0x100 EXP SWAP1 DIV PUSH20 0xFFFFFFFFFFFFFFFFFFFFFFFFFFFFFFFFFFFFFFFF AND PUSH20 0xFFFFFFFFFFFFFFFFFFFFFFFFFFFFFFFFFFFFFFFF AND EQ PUSH2 0xB44 JUMPI PUSH1 0x40 MLOAD PUSH32 0x8C379A000000000000000000000000000000000000000000000000000000000 DUP2 MSTORE PUSH1 0x4 ADD PUSH2 0xB3B SWAP1 PUSH2 0x1883 JUMP JUMPDEST PUSH1 0x40 MLOAD DUP1 SWAP2 SUB SWAP1 REVERT JUMPDEST DUP1 PUSH1 0x4 ADD PUSH1 0x2 SWAP1 SLOAD SWAP1 PUSH2 0x100 EXP SWAP1 DIV PUSH1 0xFF AND ISZERO PUSH2 0xB96 JUMPI PUSH1 0x40 MLOAD PUSH32 0x8C379A000000000000000000000000000000000000000000000000000000000 DUP2 MSTORE PUSH1 0x4 ADD PUSH2 0xB8D SWAP1 PUSH2 0x1BA9 JUMP JUMPDEST PUSH1 0x40 MLOAD DUP1 SWAP2 SUB SWAP1 REVERT JUMPDEST PUSH1 0x64 DUP2 PUSH1 0x4 ADD PUSH0 PUSH2 0x100 EXP DUP2 SLOAD DUP2 PUSH1 0xFF MUL NOT AND SWAP1 DUP4 PUSH1 0xFF AND MUL OR SWAP1 SSTORE POP TIMESTAMP DUP2 PUSH1 0x3 ADD DUP2 SWAP1 SSTORE POP DUP2 PUSH32 0xD4B742B9BA48FFFA1F14267075A7793851770764117C423FD0A6550DFC8CB574 PUSH1 0x64 PUSH1 0x40 MLOAD PUSH2 0xBED SWAP2 SWAP1 PUSH2 0x1C09 JUMP JUMPDEST PUSH1 0x40 MLOAD DUP1 SWAP2 SUB SWAP1 LOG2 PUSH2 0xBFE DUP3 PUSH2 0xC23 JUMP JUMPDEST POP POP JUMP JUMPDEST PUSH1 0x2 SLOAD DUP2 JUMP JUMPDEST PUSH1 0x2 DUP2 JUMP JUMPDEST PUSH7 0xAA87BEE538000 DUP2 JUMP JUMPDEST PUSH7 0x38D7EA4C68000 DUP2 JUMP JUMPDEST PUSH0 PUSH0 PUSH0 DUP4 DUP2 MSTORE PUSH1 0x20 ADD SWAP1 DUP2 MSTORE PUSH1 0x20 ADD PUSH0 KECCAK256 SWAP1 POP DUP1 PUSH1 0x4 ADD PUSH1 0x1 SWAP1 SLOAD SWAP1 PUSH2 0x100 EXP SWAP1 DIV PUSH1 0xFF AND PUSH2 0xC87 JUMPI PUSH1 0x40 MLOAD PUSH32 0x8C379A000000000000000000000000000000000000000000000000000000000 DUP2 MSTORE PUSH1 0x4 ADD PUSH2 0xC7E SWAP1 PUSH2 0x1B41 JUMP JUMPDEST PUSH1 0x40 MLOAD DUP1 SWAP2 SUB SWAP1 REVERT JUMPDEST PUSH2 0xC90 DUP3 PUSH2 0x128D JUMP JUMPDEST DUP1 PUSH1 0x4 ADD PUSH1 0x2 SWAP1 SLOAD SWAP1 PUSH2 0x100 EXP SWAP1 DIV PUSH1 0xFF AND ISZERO PUSH2 0xCAD JUMPI POP PUSH2 0xE54 JUMP JUMPDEST PUSH0 DUP2 PUSH1 0x2 ADD SLOAD TIMESTAMP PUSH2 0xCBE SWAP2 SWAP1 PUSH2 0x1A26 JUMP JUMPDEST SWAP1 POP PUSH0 DUP3 PUSH1 0x1 ADD PUSH1 0x14 SWAP1 SLOAD SWAP1 PUSH2 0x100 EXP SWAP1 DIV PUSH1 0xFF AND SWAP1 POP PUSH1 0x3 PUSH1 0x3C PUSH2 0xCE3 SWAP2 SWAP1 PUSH2 0x1AB6 JUMP JUMPDEST DUP3 LT PUSH2 0xD1B JUMPI PUSH1 0x3 DUP4 PUSH1 0x1 ADD PUSH1 0x14 PUSH2 0x100 EXP DUP2 SLOAD DUP2 PUSH1 0xFF MUL NOT AND SWAP1 DUP4 PUSH1 0x3 DUP2 GT ISZERO PUSH2 0xD11 JUMPI PUSH2 0xD10 PUSH2 0x162A JUMP JUMPDEST JUMPDEST MUL OR SWAP1 SSTORE POP PUSH2 0xDCA JUMP JUMPDEST PUSH1 0x2 PUSH1 0x3C PUSH2 0xD29 SWAP2 SWAP1 PUSH2 0x1AB6 JUMP JUMPDEST DUP3 LT PUSH2 0xD61 JUMPI PUSH1 0x2 DUP4 PUSH1 0x1 ADD PUSH1 0x14 PUSH2 0x100 EXP DUP2 SLOAD DUP2 PUSH1 0xFF MUL NOT AND SWAP1 DUP4 PUSH1 0x3 DUP2 GT ISZERO PUSH2 0xD57 JUMPI PUSH2 0xD56 PUSH2 0x162A JUMP JUMPDEST JUMPDEST MUL OR SWAP1 SSTORE POP PUSH2 0xDC9 JUMP JUMPDEST PUSH1 0x3C DUP3 LT PUSH2 0xD9B JUMPI PUSH1 0x1 DUP4 PUSH1 0x1 ADD PUSH1 0x14 PUSH2 0x100 EXP DUP2 SLOAD DUP2 PUSH1 0xFF MUL NOT AND SWAP1 DUP4 PUSH1 0x3 DUP2 GT ISZERO PUSH2 0xD91 JUMPI PUSH2 0xD90 PUSH2 0x162A JUMP JUMPDEST JUMPDEST MUL OR SWAP1 SSTORE POP PUSH2 0xDC8 JUMP JUMPDEST PUSH0 DUP4 PUSH1 0x1 ADD PUSH1 0x14 PUSH2 0x100 EXP DUP2 SLOAD DUP2 PUSH1 0xFF MUL NOT AND SWAP1 DUP4 PUSH1 0x3 DUP2 GT ISZERO PUSH2 0xDC2 JUMPI PUSH2 0xDC1 PUSH2 0x162A JUMP JUMPDEST JUMPDEST MUL OR SWAP1 SSTORE POP JUMPDEST JUMPDEST JUMPDEST DUP1 PUSH1 0x3 DUP2 GT ISZERO PUSH2 0xDDD JUMPI PUSH2 0xDDC PUSH2 0x162A JUMP JUMPDEST JUMPDEST DUP4 PUSH1 0x1 ADD PUSH1 0x14 SWAP1 SLOAD SWAP1 PUSH2 0x100 EXP SWAP1 DIV PUSH1 0xFF AND PUSH1 0x3 DUP2 GT ISZERO PUSH2 0xE01 JUMPI PUSH2 0xE00 PUSH2 0x162A JUMP JUMPDEST JUMPDEST EQ PUSH2 0xE50 JUMPI DUP4 PUSH32 0x338B8976706F9DA67298DDDFA1EA4FF7D99CCE68B9CA39C4F348994F8E2124A8 DUP5 PUSH1 0x1 ADD PUSH1 0x14 SWAP1 SLOAD SWAP1 PUSH2 0x100 EXP SWAP1 DIV PUSH1 0xFF AND PUSH1 0x40 MLOAD PUSH2 0xE47 SWAP2 SWAP1 PUSH2 0x1C22 JUMP JUMPDEST PUSH1 0x40 MLOAD DUP1 SWAP2 SUB SWAP1 LOG2 JUMPDEST POP POP POP JUMPDEST POP JUMP JUMPDEST PUSH0 PUSH0 PUSH0 DUP4 DUP2 MSTORE PUSH1 0x20 ADD SWAP1 DUP2 MSTORE PUSH1 0x20 ADD PUSH0 KECCAK256 SWAP1 POP DUP1 PUSH1 0x4 ADD PUSH1 0x1 SWAP1 SLOAD SWAP1 PUSH2 0x100 EXP SWAP1 DIV PUSH1 0xFF AND PUSH2 0xEBB JUMPI PUSH1 0x40 MLOAD PUSH32 0x8C379A000000000000000000000000000000000000000000000000000000000 DUP2 MSTORE PUSH1 0x4 ADD PUSH2 0xEB2 SWAP1 PUSH2 0x1B41 JUMP JUMPDEST PUSH1 0x40 MLOAD DUP1 SWAP2 SUB SWAP1 REVERT JUMPDEST CALLER PUSH20 0xFFFFFFFFFFFFFFFFFFFFFFFFFFFFFFFFFFFFFFFF AND DUP2 PUSH1 0x1 ADD PUSH0 SWAP1 SLOAD SWAP1 PUSH2 0x100 EXP SWAP1 DIV PUSH20 0xFFFFFFFFFFFFFFFFFFFFFFFFFFFFFFFFFFFFFFFF AND PUSH20 0xFFFFFFFFFFFFFFFFFFFFFFFFFFFFFFFFFFFFFFFF AND EQ PUSH2 0xF4C JUMPI PUSH1 0x40 MLOAD PUSH32 0x8C379A000000000000000000000000000000000000000000000000000000000 DUP2 MSTORE PUSH1 0x4 ADD PUSH2 0xF43 SWAP1 PUSH2 0x1883 JUMP JUMPDEST PUSH1 0x40 MLOAD DUP1 SWAP2 SUB SWAP1 REVERT JUMPDEST DUP1 PUSH1 0x4 ADD PUSH1 0x2 SWAP1 SLOAD SWAP1 PUSH2 0x100 EXP SWAP1 DIV PUSH1 0xFF AND ISZERO PUSH2 0xF9E JUMPI PUSH1 0x40 MLOAD PUSH32 0x8C379A000000000000000000000000000000000000000000000000000000000 DUP2 MSTORE PUSH1 0x4 ADD PUSH2 0xF95 SWAP1 PUSH2 0x1BA9 JUMP JUMPDEST PUSH1 0x40 MLOAD DUP1 SWAP2 SUB SWAP1 REVERT JUMPDEST PUSH2 0xFA7 DUP3 PUSH2 0xC23 JUMP JUMPDEST PUSH1 0x3 DUP1 DUP2 GT ISZERO PUSH2 0xFBA JUMPI PUSH2 0xFB9 PUSH2 0x162A JUMP JUMPDEST JUMPDEST DUP2 PUSH1 0x1 ADD PUSH1 0x14 SWAP1 SLOAD SWAP1 PUSH2 0x100 EXP SWAP1 DIV PUSH1 0xFF AND PUSH1 0x3 DUP2 GT ISZERO PUSH2 0xFDE JUMPI PUSH2 0xFDD PUSH2 0x162A JUMP JUMPDEST JUMPDEST EQ PUSH2 0x101E JUMPI PUSH1 0x40 MLOAD PUSH32 0x8C379A000000000000000000000000000000000000000000000000000000000 DUP2 MSTORE PUSH1 0x4 ADD PUSH2 0x1015 SWAP1 PUSH2 0x1C85 JUMP JUMPDEST PUSH1 0x40 MLOAD DUP1 SWAP2 SUB SWAP1 REVERT JUMPDEST PUSH0 DUP2 PUSH1 0x4 ADD PUSH1 0x1 PUSH2 0x100 EXP DUP2 SLOAD DUP2 PUSH1 0xFF MUL NOT AND SWAP1 DUP4 ISZERO ISZERO MUL OR SWAP1 SSTORE POP CALLER PUSH20 0xFFFFFFFFFFFFFFFFFFFFFFFFFFFFFFFFFFFFFFFF AND DUP3 PUSH32 0x79F2138EA100070FF95B59C265DA7AA3C7A0F61595FE1BB2F5FDA2762F398847 PUSH7 0xAA87BEE538000 PUSH1 0x40 MLOAD PUSH2 0x1088 SWAP2 SWAP1 PUSH2 0x1522 JUMP JUMPDEST PUSH1 0x40 MLOAD DUP1 SWAP2 SUB SWAP1 LOG3 PUSH0 CALLER PUSH20 0xFFFFFFFFFFFFFFFFFFFFFFFFFFFFFFFFFFFFFFFF AND PUSH7 0xAA87BEE538000 PUSH1 0x40 MLOAD PUSH2 0x10BC SWAP1 PUSH2 0x18CE JUMP JUMPDEST PUSH0 PUSH1 0x40 MLOAD DUP1 DUP4 SUB DUP2 DUP6 DUP8 GAS CALL SWAP3 POP POP POP RETURNDATASIZE DUP1 PUSH0 DUP2 EQ PUSH2 0x10F6 JUMPI PUSH1 0x40 MLOAD SWAP2 POP PUSH1 0x1F NOT PUSH1 0x3F RETURNDATASIZE ADD AND DUP3 ADD PUSH1 0x40 MSTORE RETURNDATASIZE DUP3 MSTORE RETURNDATASIZE PUSH0 PUSH1 0x20 DUP5 ADD RETURNDATACOPY PUSH2 0x10FB JUMP JUMPDEST PUSH1 0x60 SWAP2 POP JUMPDEST POP POP SWAP1 POP DUP1 PUSH2 0x113F JUMPI PUSH1 0x40 MLOAD PUSH32 0x8C379A000000000000000000000000000000000000000000000000000000000 DUP2 MSTORE PUSH1 0x4 ADD PUSH2 0x1136 SWAP1 PUSH2 0x1CED JUMP JUMPDEST PUSH1 0x40 MLOAD DUP1 SWAP2 SUB SWAP1 REVERT JUMPDEST POP POP POP JUMP JUMPDEST PUSH2 0x114C PUSH2 0x133E JUMP JUMPDEST PUSH0 PUSH0 PUSH0 DUP5 DUP2 MSTORE PUSH1 0x20 ADD SWAP1 DUP2 MSTORE PUSH1 0x20 ADD PUSH0 KECCAK256 PUSH1 0x40 MLOAD DUP1 PUSH2 0x100 ADD PUSH1 0x40 MSTORE SWAP1 DUP2 PUSH0 DUP3 ADD SLOAD DUP2 MSTORE PUSH1 0x20 ADD PUSH1 0x1 DUP3 ADD PUSH0 SWAP1 SLOAD SWAP1 PUSH2 0x100 EXP SWAP1 DIV PUSH20 0xFFFFFFFFFFFFFFFFFFFFFFFFFFFFFFFFFFFFFFFF AND PUSH20 0xFFFFFFFFFFFFFFFFFFFFFFFFFFFFFFFFFFFFFFFF AND PUSH20 0xFFFFFFFFFFFFFFFFFFFFFFFFFFFFFFFFFFFFFFFF AND DUP2 MSTORE PUSH1 0x20 ADD PUSH1 0x1 DUP3 ADD PUSH1 0x14 SWAP1 SLOAD SWAP1 PUSH2 0x100 EXP SWAP1 DIV PUSH1 0xFF AND PUSH1 0x3 DUP2 GT ISZERO PUSH2 0x11EC JUMPI PUSH2 0x11EB PUSH2 0x162A JUMP JUMPDEST JUMPDEST PUSH1 0x3 DUP2 GT ISZERO PUSH2 0x11FE JUMPI PUSH2 0x11FD PUSH2 0x162A JUMP JUMPDEST JUMPDEST DUP2 MSTORE PUSH1 0x20 ADD PUSH1 0x2 DUP3 ADD SLOAD DUP2 MSTORE PUSH1 0x20 ADD PUSH1 0x3 DUP3 ADD SLOAD DUP2 MSTORE PUSH1 0x20 ADD PUSH1 0x4 DUP3 ADD PUSH0 SWAP1 SLOAD SWAP1 PUSH2 0x100 EXP SWAP1 DIV PUSH1 0xFF AND PUSH1 0xFF AND PUSH1 0xFF AND DUP2 MSTORE PUSH1 0x20 ADD PUSH1 0x4 DUP3 ADD PUSH1 0x1 SWAP1 SLOAD SWAP1 PUSH2 0x100 EXP SWAP1 DIV PUSH1 0xFF AND ISZERO ISZERO ISZERO ISZERO DUP2 MSTORE PUSH1 0x20 ADD PUSH1 0x4 DUP3 ADD PUSH1 0x2 SWAP1 SLOAD SWAP1 PUSH2 0x100 EXP SWAP1 DIV PUSH1 0xFF AND ISZERO ISZERO ISZERO ISZERO DUP2 MSTORE POP POP SWAP1 POP PUSH2 0x1273 DUP4 PUSH2 0x890 JUMP JUMPDEST DUP2 PUSH1 0xA0 ADD SWAP1 PUSH1 0xFF AND SWAP1 DUP2 PUSH1 0xFF AND DUP2 MSTORE POP POP DUP1 SWAP2 POP POP SWAP2 SWAP1 POP JUMP JUMPDEST PUSH0 PUSH0 PUSH0 DUP4 DUP2 MSTORE PUSH1 0x20 ADD SWAP1 DUP2 MSTORE PUSH1 0x20 ADD PUSH0 KECCAK256 SWAP1 POP PUSH0 PUSH2 0x12AA DUP4 PUSH2 0x890 JUMP JUMPDEST SWAP1 POP DUP1 DUP3 PUSH1 0x4 ADD PUSH0 PUSH2 0x100 EXP DUP2 SLOAD DUP2 PUSH1 0xFF MUL NOT AND SWAP1 DUP4 PUSH1 0xFF AND MUL OR SWAP1 SSTORE POP PUSH0 DUP2 PUSH1 0xFF AND EQ DUP1 ISZERO PUSH2 0x12E9 JUMPI POP DUP2 PUSH1 0x4 ADD PUSH1 0x2 SWAP1 SLOAD SWAP1 PUSH2 0x100 EXP SWAP1 DIV PUSH1 0xFF AND ISZERO JUMPDEST ISZERO PUSH2 0x1339 JUMPI PUSH1 0x1 DUP3 PUSH1 0x4 ADD PUSH1 0x2 PUSH2 0x100 EXP DUP2 SLOAD DUP2 PUSH1 0xFF MUL NOT AND SWAP1 DUP4 ISZERO ISZERO MUL OR SWAP1 SSTORE POP DUP3 PUSH32 0xCC296A21951F3E57F21AFB08547D835A0A9F0F06CC2867009CBE0CAE44D36BE9 PUSH1 0x40 MLOAD PUSH1 0x40 MLOAD DUP1 SWAP2 SUB SWAP1 LOG2 JUMPDEST POP POP POP JUMP JUMPDEST PUSH1 0x40 MLOAD DUP1 PUSH2 0x100 ADD PUSH1 0x40 MSTORE DUP1 PUSH0 DUP2 MSTORE PUSH1 0x20 ADD PUSH0 PUSH20 0xFFFFFFFFFFFFFFFFFFFFFFFFFFFFFFFFFFFFFFFF AND DUP2 MSTORE PUSH1 0x20 ADD PUSH0 PUSH1 0x3 DUP2 GT ISZERO PUSH2 0x137F JUMPI PUSH2 0x137E PUSH2 0x162A JUMP JUMPDEST JUMPDEST DUP2 MSTORE PUSH1 0x20 ADD PUSH0 DUP2 MSTORE PUSH1 0x20 ADD PUSH0 DUP2 MSTORE PUSH1 0x20 ADD PUSH0 PUSH1 0xFF AND DUP2 MSTORE PUSH1 0x20 ADD PUSH0 ISZERO ISZERO DUP2 MSTORE PUSH1 0x20 ADD PUSH0 ISZERO ISZERO DUP2 MSTORE POP SWAP1 JUMP JUMPDEST PUSH0 PUSH0 REVERT JUMPDEST PUSH0 PUSH20 0xFFFFFFFFFFFFFFFFFFFFFFFFFFFFFFFFFFFFFFFF DUP3 AND SWAP1 POP SWAP2 SWAP1 POP JUMP JUMPDEST PUSH0 PUSH2 0x13D7 DUP3 PUSH2 0x13AE JUMP JUMPDEST SWAP1 POP SWAP2 SWAP1 POP JUMP JUMPDEST PUSH2 0x13E7 DUP2 PUSH2 0x13CD JUMP JUMPDEST DUP2 EQ PUSH2 0x13F1 JUMPI PUSH0 PUSH0 REVERT JUMPDEST POP JUMP JUMPDEST PUSH0 DUP2 CALLDATALOAD SWAP1 POP PUSH2 0x1402 DUP2 PUSH2 0x13DE JUMP JUMPDEST SWAP3 SWAP2 POP POP JUMP JUMPDEST PUSH0 PUSH1 0x20 DUP3 DUP5 SUB SLT ISZERO PUSH2 0x141D JUMPI PUSH2 0x141C PUSH2 0x13AA JUMP JUMPDEST JUMPDEST PUSH0 PUSH2 0x142A DUP5 DUP3 DUP6 ADD PUSH2 0x13F4 JUMP JUMPDEST SWAP2 POP POP SWAP3 SWAP2 POP POP JUMP JUMPDEST PUSH0 DUP2 MLOAD SWAP1 POP SWAP2 SWAP1 POP JUMP JUMPDEST PUSH0 DUP3 DUP3 MSTORE PUSH1 0x20 DUP3 ADD SWAP1 POP SWAP3 SWAP2 POP POP JUMP JUMPDEST PUSH0 DUP2 SWAP1 POP PUSH1 0x20 DUP3 ADD SWAP1 POP SWAP2 SWAP1 POP JUMP JUMPDEST PUSH0 DUP2 SWAP1 POP SWAP2 SWAP1 POP JUMP JUMPDEST PUSH2 0x146E DUP2 PUSH2 0x145C JUMP JUMPDEST DUP3 MSTORE POP POP JUMP JUMPDEST PUSH0 PUSH2 0x147F DUP4 DUP4 PUSH2 0x1465 JUMP JUMPDEST PUSH1 0x20 DUP4 ADD SWAP1 POP SWAP3 SWAP2 POP POP JUMP JUMPDEST PUSH0 PUSH1 0x20 DUP3 ADD SWAP1 POP SWAP2 SWAP1 POP JUMP JUMPDEST PUSH0 PUSH2 0x14A1 DUP3 PUSH2 0x1433 JUMP JUMPDEST PUSH2 0x14AB DUP2 DUP6 PUSH2 0x143D JUMP JUMPDEST SWAP4 POP PUSH2 0x14B6 DUP4 PUSH2 0x144D JUMP JUMPDEST DUP1 PUSH0 JUMPDEST DUP4 DUP2 LT ISZERO PUSH2 0x14E6 JUMPI DUP2 MLOAD PUSH2 0x14CD DUP9 DUP3 PUSH2 0x1474 JUMP JUMPDEST SWAP8 POP PUSH2 0x14D8 DUP4 PUSH2 0x148B JUMP JUMPDEST SWAP3 POP POP PUSH1 0x1 DUP2 ADD SWAP1 POP PUSH2 0x14B9 JUMP JUMPDEST POP DUP6 SWAP4 POP POP POP POP SWAP3 SWAP2 POP POP JUMP JUMPDEST PUSH0 PUSH1 0x20 DUP3 ADD SWAP1 POP DUP2 DUP2 SUB PUSH0 DUP4 ADD MSTORE PUSH2 0x150B DUP2 DUP5 PUSH2 0x1497 JUMP JUMPDEST SWAP1 POP SWAP3 SWAP2 POP POP JUMP JUMPDEST PUSH2 0x151C DUP2 PUSH2 0x145C JUMP JUMPDEST DUP3 MSTORE POP POP JUMP JUMPDEST PUSH0 PUSH1 0x20 DUP3 ADD SWAP1 POP PUSH2 0x1535 PUSH0 DUP4 ADD DUP5 PUSH2 0x1513 JUMP JUMPDEST SWAP3 SWAP2 POP POP JUMP JUMPDEST PUSH2 0x1544 DUP2 PUSH2 0x145C JUMP JUMPDEST DUP2 EQ PUSH2 0x154E JUMPI PUSH0 PUSH0 REVERT JUMPDEST POP JUMP JUMPDEST PUSH0 DUP2 CALLDATALOAD SWAP1 POP PUSH2 0x155F DUP2 PUSH2 0x153B JUMP JUMPDEST SWAP3 SWAP2 POP POP JUMP JUMPDEST PUSH0 PUSH1 0x20 DUP3 DUP5 SUB SLT ISZERO PUSH2 0x157A JUMPI PUSH2 0x1579 PUSH2 0x13AA JUMP JUMPDEST JUMPDEST PUSH0 PUSH2 0x1587 DUP5 DUP3 DUP6 ADD PUSH2 0x1551 JUMP JUMPDEST SWAP2 POP POP SWAP3 SWAP2 POP POP JUMP JUMPDEST PUSH0 PUSH1 0xFF DUP3 AND SWAP1 POP SWAP2 SWAP1 POP JUMP JUMPDEST PUSH2 0x15A5 DUP2 PUSH2 0x1590 JUMP JUMPDEST DUP3 MSTORE POP POP JUMP JUMPDEST PUSH0 PUSH1 0x20 DUP3 ADD SWAP1 POP PUSH2 0x15BE PUSH0 DUP4 ADD DUP5 PUSH2 0x159C JUMP JUMPDEST SWAP3 SWAP2 POP POP JUMP JUMPDEST PUSH0 PUSH0 PUSH1 0x40 DUP4 DUP6 SUB SLT ISZERO PUSH2 0x15DA JUMPI PUSH2 0x15D9 PUSH2 0x13AA JUMP JUMPDEST JUMPDEST PUSH0 PUSH2 0x15E7 DUP6 DUP3 DUP7 ADD PUSH2 0x13F4 JUMP JUMPDEST SWAP3 POP POP PUSH1 0x20 PUSH2 0x15F8 DUP6 DUP3 DUP7 ADD PUSH2 0x1551 JUMP JUMPDEST SWAP2 POP POP SWAP3 POP SWAP3 SWAP1 POP JUMP JUMPDEST PUSH2 0x160B DUP2 PUSH2 0x13CD JUMP JUMPDEST DUP3 MSTORE POP POP JUMP JUMPDEST PUSH0 PUSH1 0x20 DUP3 ADD SWAP1 POP PUSH2 0x1624 PUSH0 DUP4 ADD DUP5 PUSH2 0x1602 JUMP JUMPDEST SWAP3 SWAP2 POP POP JUMP JUMPDEST PUSH32 0x4E487B7100000000000000000000000000000000000000000000000000000000 PUSH0 MSTORE PUSH1 0x21 PUSH1 0x4 MSTORE PUSH1 0x24 PUSH0 REVERT JUMPDEST PUSH1 0x4 DUP2 LT PUSH2 0x1668 JUMPI PUSH2 0x1667 PUSH2 0x162A JUMP JUMPDEST JUMPDEST POP JUMP JUMPDEST PUSH0 DUP2 SWAP1 POP PUSH2 0x1678 DUP3 PUSH2 0x1657 JUMP JUMPDEST SWAP2 SWAP1 POP JUMP JUMPDEST PUSH0 PUSH2 0x1687 DUP3 PUSH2 0x166B JUMP JUMPDEST SWAP1 POP SWAP2 SWAP1 POP JUMP JUMPDEST PUSH2 0x1697 DUP2 PUSH2 0x167D JUMP JUMPDEST DUP3 MSTORE POP POP JUMP JUMPDEST PUSH0 DUP2 ISZERO ISZERO SWAP1 POP SWAP2 SWAP1 POP JUMP JUMPDEST PUSH2 0x16B1 DUP2 PUSH2 0x169D JUMP JUMPDEST DUP3 MSTORE POP POP JUMP JUMPDEST PUSH0 PUSH2 0x100 DUP3 ADD SWAP1 POP PUSH2 0x16CB PUSH0 DUP4 ADD DUP12 PUSH2 0x1513 JUMP JUMPDEST PUSH2 0x16D8 PUSH1 0x20 DUP4 ADD DUP11 PUSH2 0x1602 JUMP JUMPDEST PUSH2 0x16E5 PUSH1 0x40 DUP4 ADD DUP10 PUSH2 0x168E JUMP JUMPDEST PUSH2 0x16F2 PUSH1 0x60 DUP4 ADD DUP9 PUSH2 0x1513 JUMP JUMPDEST PUSH2 0x16FF PUSH1 0x80 DUP4 ADD DUP8 PUSH2 0x1513 JUMP JUMPDEST PUSH2 0x170C PUSH1 0xA0 DUP4 ADD DUP7 PUSH2 0x159C JUMP JUMPDEST PUSH2 0x1719 PUSH1 0xC0 DUP4 ADD DUP6 PUSH2 0x16A8 JUMP JUMPDEST PUSH2 0x1726 PUSH1 0xE0 DUP4 ADD DUP5 PUSH2 0x16A8 JUMP JUMPDEST SWAP10 SWAP9 POP POP POP POP POP POP POP POP POP JUMP JUMPDEST PUSH2 0x173C DUP2 PUSH2 0x13CD JUMP JUMPDEST DUP3 MSTORE POP POP JUMP JUMPDEST PUSH2 0x174B DUP2 PUSH2 0x167D JUMP JUMPDEST DUP3 MSTORE POP POP JUMP JUMPDEST PUSH2 0x175A DUP2 PUSH2 0x1590 JUMP JUMPDEST DUP3 MSTORE POP POP JUMP JUMPDEST PUSH2 0x1769 DUP2 PUSH2 0x169D JUMP JUMPDEST DUP3 MSTORE POP POP JUMP JUMPDEST PUSH2 0x100 DUP3 ADD PUSH0 DUP3 ADD MLOAD PUSH2 0x1784 PUSH0 DUP6 ADD DUP3 PUSH2 0x1465 JUMP JUMPDEST POP PUSH1 0x20 DUP3 ADD MLOAD PUSH2 0x1797 PUSH1 0x20 DUP6 ADD DUP3 PUSH2 0x1733 JUMP JUMPDEST POP PUSH1 0x40 DUP3 ADD MLOAD PUSH2 0x17AA PUSH1 0x40 DUP6 ADD DUP3 PUSH2 0x1742 JUMP JUMPDEST POP PUSH1 0x60 DUP3 ADD MLOAD PUSH2 0x17BD PUSH1 0x60 DUP6 ADD DUP3 PUSH2 0x1465 JUMP JUMPDEST POP PUSH1 0x80 DUP3 ADD MLOAD PUSH2 0x17D0 PUSH1 0x80 DUP6 ADD DUP3 PUSH2 0x1465 JUMP JUMPDEST POP PUSH1 0xA0 DUP3 ADD MLOAD PUSH2 0x17E3 PUSH1 0xA0 DUP6 ADD DUP3 PUSH2 0x1751 JUMP JUMPDEST POP PUSH1 0xC0 DUP3 ADD MLOAD PUSH2 0x17F6 PUSH1 0xC0 DUP6 ADD DUP3 PUSH2 0x1760 JUMP JUMPDEST POP PUSH1 0xE0 DUP3 ADD MLOAD PUSH2 0x1809 PUSH1 0xE0 DUP6 ADD DUP3 PUSH2 0x1760 JUMP JUMPDEST POP POP POP POP JUMP JUMPDEST PUSH0 PUSH2 0x100 DUP3 ADD SWAP1 POP PUSH2 0x1823 PUSH0 DUP4 ADD DUP5 PUSH2 0x176F JUMP JUMPDEST SWAP3 SWAP2 POP POP JUMP JUMPDEST PUSH0 DUP3 DUP3 MSTORE PUSH1 0x20 DUP3 ADD SWAP1 POP SWAP3 SWAP2 POP POP JUMP JUMPDEST PUSH32 0x596F7520617265206E6F7420746865206F776E65722100000000000000000000 PUSH0 DUP3 ADD MSTORE POP JUMP JUMPDEST PUSH0 PUSH2 0x186D PUSH1 0x16 DUP4 PUSH2 0x1829 JUMP JUMPDEST SWAP2 POP PUSH2 0x1878 DUP3 PUSH2 0x1839 JUMP JUMPDEST PUSH1 0x20 DUP3 ADD SWAP1 POP SWAP2 SWAP1 POP JUMP JUMPDEST PUSH0 PUSH1 0x20 DUP3 ADD SWAP1 POP DUP2 DUP2 SUB PUSH0 DUP4 ADD MSTORE PUSH2 0x189A DUP2 PUSH2 0x1861 JUMP JUMPDEST SWAP1 POP SWAP2 SWAP1 POP JUMP JUMPDEST PUSH0 DUP2 SWAP1 POP SWAP3 SWAP2 POP POP JUMP JUMPDEST POP JUMP JUMPDEST PUSH0 PUSH2 0x18B9 PUSH0 DUP4 PUSH2 0x18A1 JUMP JUMPDEST SWAP2 POP PUSH2 0x18C4 DUP3 PUSH2 0x18AB JUMP JUMPDEST PUSH0 DUP3 ADD SWAP1 POP SWAP2 SWAP1 POP JUMP JUMPDEST PUSH0 PUSH2 0x18D8 DUP3 PUSH2 0x18AE JUMP JUMPDEST SWAP2 POP DUP2 SWAP1 POP SWAP2 SWAP1 POP JUMP JUMPDEST PUSH32 0x4661696C6564205472616E736665722100000000000000000000000000000000 PUSH0 DUP3 ADD MSTORE POP JUMP JUMPDEST PUSH0 PUSH2 0x1916 PUSH1 0x10 DUP4 PUSH2 0x1829 JUMP JUMPDEST SWAP2 POP PUSH2 0x1921 DUP3 PUSH2 0x18E2 JUMP JUMPDEST PUSH1 0x20 DUP3 ADD SWAP1 POP SWAP2 SWAP1 POP JUMP JUMPDEST PUSH0 PUSH1 0x20 DUP3 ADD SWAP1 POP DUP2 DUP2 SUB PUSH0 DUP4 ADD MSTORE PUSH2 0x1943 DUP2 PUSH2 0x190A JUMP JUMPDEST SWAP1 POP SWAP2 SWAP1 POP JUMP JUMPDEST PUSH32 0x496E73756666696369656E742062616C616E6365210000000000000000000000 PUSH0 DUP3 ADD MSTORE POP JUMP JUMPDEST PUSH0 PUSH2 0x197E PUSH1 0x15 DUP4 PUSH2 0x1829 JUMP JUMPDEST SWAP2 POP PUSH2 0x1989 DUP3 PUSH2 0x194A JUMP JUMPDEST PUSH1 0x20 DUP3 ADD SWAP1 POP SWAP2 SWAP1 POP JUMP JUMPDEST PUSH0 PUSH1 0x20 DUP3 ADD SWAP1 POP DUP2 DUP2 SUB PUSH0 DUP4 ADD MSTORE PUSH2 0x19AB DUP2 PUSH2 0x1972 JUMP JUMPDEST SWAP1 POP SWAP2 SWAP1 POP JUMP JUMPDEST PUSH32 0x4E487B7100000000000000000000000000000000000000000000000000000000 PUSH0 MSTORE PUSH1 0x11 PUSH1 0x4 MSTORE PUSH1 0x24 PUSH0 REVERT JUMPDEST PUSH0 PUSH2 0x19E9 DUP3 PUSH2 0x145C JUMP JUMPDEST SWAP2 POP PUSH32 0xFFFFFFFFFFFFFFFFFFFFFFFFFFFFFFFFFFFFFFFFFFFFFFFFFFFFFFFFFFFFFFFF DUP3 SUB PUSH2 0x1A1B JUMPI PUSH2 0x1A1A PUSH2 0x19B2 JUMP JUMPDEST JUMPDEST PUSH1 0x1 DUP3 ADD SWAP1 POP SWAP2 SWAP1 POP JUMP JUMPDEST PUSH0 PUSH2 0x1A30 DUP3 PUSH2 0x145C JUMP JUMPDEST SWAP2 POP PUSH2 0x1A3B DUP4 PUSH2 0x145C JUMP JUMPDEST SWAP3 POP DUP3 DUP3 SUB SWAP1 POP DUP2 DUP2 GT ISZERO PUSH2 0x1A53 JUMPI PUSH2 0x1A52 PUSH2 0x19B2 JUMP JUMPDEST JUMPDEST SWAP3 SWAP2 POP POP JUMP JUMPDEST PUSH32 0x4E487B7100000000000000000000000000000000000000000000000000000000 PUSH0 MSTORE PUSH1 0x12 PUSH1 0x4 MSTORE PUSH1 0x24 PUSH0 REVERT JUMPDEST PUSH0 PUSH2 0x1A90 DUP3 PUSH2 0x145C JUMP JUMPDEST SWAP2 POP PUSH2 0x1A9B DUP4 PUSH2 0x145C JUMP JUMPDEST SWAP3 POP DUP3 PUSH2 0x1AAB JUMPI PUSH2 0x1AAA PUSH2 0x1A59 JUMP JUMPDEST JUMPDEST DUP3 DUP3 DIV SWAP1 POP SWAP3 SWAP2 POP POP JUMP JUMPDEST PUSH0 PUSH2 0x1AC0 DUP3 PUSH2 0x145C JUMP JUMPDEST SWAP2 POP PUSH2 0x1ACB DUP4 PUSH2 0x145C JUMP JUMPDEST SWAP3 POP DUP3 DUP3 MUL PUSH2 0x1AD9 DUP2 PUSH2 0x145C JUMP JUMPDEST SWAP2 POP DUP3 DUP3 DIV DUP5 EQ DUP4 ISZERO OR PUSH2 0x1AF0 JUMPI PUSH2 0x1AEF PUSH2 0x19B2 JUMP JUMPDEST JUMPDEST POP SWAP3 SWAP2 POP POP JUMP JUMPDEST PUSH32 0x506C616E7420646F65736E277420657869737421000000000000000000000000 PUSH0 DUP3 ADD MSTORE POP JUMP JUMPDEST PUSH0 PUSH2 0x1B2B PUSH1 0x14 DUP4 PUSH2 0x1829 JUMP JUMPDEST SWAP2 POP PUSH2 0x1B36 DUP3 PUSH2 0x1AF7 JUMP JUMPDEST PUSH1 0x20 DUP3 ADD SWAP1 POP SWAP2 SWAP1 POP JUMP JUMPDEST PUSH0 PUSH1 0x20 DUP3 ADD SWAP1 POP DUP2 DUP2 SUB PUSH0 DUP4 ADD MSTORE PUSH2 0x1B58 DUP2 PUSH2 0x1B1F JUMP JUMPDEST SWAP1 POP SWAP2 SWAP1 POP JUMP JUMPDEST PUSH32 0x506C616E7420616C726561647920646561642100000000000000000000000000 PUSH0 DUP3 ADD MSTORE POP JUMP JUMPDEST PUSH0 PUSH2 0x1B93 PUSH1 0x13 DUP4 PUSH2 0x1829 JUMP JUMPDEST SWAP2 POP PUSH2 0x1B9E DUP3 PUSH2 0x1B5F JUMP JUMPDEST PUSH1 0x20 DUP3 ADD SWAP1 POP SWAP2 SWAP1 POP JUMP JUMPDEST PUSH0 PUSH1 0x20 DUP3 ADD SWAP1 POP DUP2 DUP2 SUB PUSH0 DUP4 ADD MSTORE PUSH2 0x1BC0 DUP2 PUSH2 0x1B87 JUMP JUMPDEST SWAP1 POP SWAP2 SWAP1 POP JUMP JUMPDEST PUSH0 DUP2 SWAP1 POP SWAP2 SWAP1 POP JUMP JUMPDEST PUSH0 DUP2 SWAP1 POP SWAP2 SWAP1 POP JUMP JUMPDEST PUSH0 PUSH2 0x1BF3 PUSH2 0x1BEE PUSH2 0x1BE9 DUP5 PUSH2 0x1BC7 JUMP JUMPDEST PUSH2 0x1BD0 JUMP JUMPDEST PUSH2 0x1590 JUMP JUMPDEST SWAP1 POP SWAP2 SWAP1 POP JUMP JUMPDEST PUSH2 0x1C03 DUP2 PUSH2 0x1BD9 JUMP JUMPDEST DUP3 MSTORE POP POP JUMP JUMPDEST PUSH0 PUSH1 0x20 DUP3 ADD SWAP1 POP PUSH2 0x1C1C PUSH0 DUP4 ADD DUP5 PUSH2 0x1BFA JUMP JUMPDEST SWAP3 SWAP2 POP POP JUMP JUMPDEST PUSH0 PUSH1 0x20 DUP3 ADD SWAP1 POP PUSH2 0x1C35 PUSH0 DUP4 ADD DUP5 PUSH2 0x168E JUMP JUMPDEST SWAP3 SWAP2 POP POP JUMP JUMPDEST PUSH32 0x42656C756D206D656B6172000000000000000000000000000000000000000000 PUSH0 DUP3 ADD MSTORE POP JUMP JUMPDEST PUSH0 PUSH2 0x1C6F PUSH1 0xB DUP4 PUSH2 0x1829 JUMP JUMPDEST SWAP2 POP PUSH2 0x1C7A DUP3 PUSH2 0x1C3B JUMP JUMPDEST PUSH1 0x20 DUP3 ADD SWAP1 POP SWAP2 SWAP1 POP JUMP JUMPDEST PUSH0 PUSH1 0x20 DUP3 ADD SWAP1 POP DUP2 DUP2 SUB PUSH0 DUP4 ADD MSTORE PUSH2 0x1C9C DUP2 PUSH2 0x1C63 JUMP JUMPDEST SWAP1 POP SWAP2 SWAP1 POP JUMP JUMPDEST PUSH32 0x4661696C65642073656E64696E67207265776172642100000000000000000000 PUSH0 DUP3 ADD MSTORE POP JUMP JUMPDEST PUSH0 PUSH2 0x1CD7 PUSH1 0x16 DUP4 PUSH2 0x1829 JUMP JUMPDEST SWAP2 POP PUSH2 0x1CE2 DUP3 PUSH2 0x1CA3 JUMP JUMPDEST PUSH1 0x20 DUP3 ADD SWAP1 POP SWAP2 SWAP1 POP JUMP JUMPDEST PUSH0 PUSH1 0x20 DUP3 ADD SWAP1 POP DUP2 DUP2 SUB PUSH0 DUP4 ADD MSTORE PUSH2 0x1D04 DUP2 PUSH2 0x1CCB JUMP JUMPDEST SWAP1 POP SWAP2 SWAP1 POP JUMP INVALID LOG2 PUSH5 0x6970667358 0x22 SLT KECCAK256 EXP GASPRICE 0xBA PUSH26 0xFF32F28813BECC9AF12CE6909832A240F70F0BF92637BAB8DFF7 0xD9 MULMOD PUSH5 0x736F6C6343 STOP ADDMOD 0x1E STOP CALLER "
				},
				"gasEstimates": {
					"creation": {
						"codeDepositCost": "1497800",
						"executionCost": "25831",
						"totalCost": "1523631"
					},
					"external": {
						"PLANT_PRICE()": "369",
						"REWARD_HARVEST()": "347",
						"STAGE_DURATION()": "393",
						"WATER_DEPLETION_RATE()": "420",
						"WATER_DEPLETION_TIME()": "370",
						"calculateWaterLevel(uint256)": "infinite",
						"getPlant(uint256)": "infinite",
						"getUserPlants(address)": "infinite",
						"harvestPlant(uint256)": "infinite",
						"owner()": "2597",
						"plantCounter()": "2492",
						"plantSeed()": "infinite",
						"plants(uint256)": "infinite",
						"updatePlantStage(uint256)": "infinite",
						"userPlants(address,uint256)": "infinite",
						"waterPlant(uint256)": "infinite",
						"withdraw()": "infinite"
					},
					"internal": {
						"updateWaterLevel(uint256)": "infinite"
					}
				},
				"methodIdentifiers": {
					"PLANT_PRICE()": "cfc9a5f8",
					"REWARD_HARVEST()": "cbf64268",
					"STAGE_DURATION()": "51f9efde",
					"WATER_DEPLETION_RATE()": "bacb5ebd",
					"WATER_DEPLETION_TIME()": "7ed4c5be",
					"calculateWaterLevel(uint256)": "754e150d",
					"getPlant(uint256)": "ed0b1f5f",
					"getUserPlants(address)": "30cec0eb",
					"harvestPlant(uint256)": "e38f8448",
					"owner()": "8da5cb5b",
					"plantCounter()": "9c471749",
					"plantSeed()": "74119a38",
					"plants(uint256)": "8dd2361c",
					"updatePlantStage(uint256)": "ddd42596",
					"userPlants(address,uint256)": "8aee578b",
					"waterPlant(uint256)": "9886bcfa",
					"withdraw()": "3ccfd60b"
				}
			},
			"storageLayout": {
				"storage": [
					{
						"astId": 29,
						"contract": "sesi-1-liskgarden/contracts/20-LiskGarden.sol:LiskGarden",
						"label": "plants",
						"offset": 0,
						"slot": "0",
						"type": "t_mapping(t_uint256,t_struct(Plant)24_storage)"
					},
					{
						"astId": 34,
						"contract": "sesi-1-liskgarden/contracts/20-LiskGarden.sol:LiskGarden",
						"label": "userPlants",
						"offset": 0,
						"slot": "1",
						"type": "t_mapping(t_address,t_array(t_uint256)dyn_storage)"
					},
					{
						"astId": 36,
						"contract": "sesi-1-liskgarden/contracts/20-LiskGarden.sol:LiskGarden",
						"label": "plantCounter",
						"offset": 0,
						"slot": "2",
						"type": "t_uint256"
					},
					{
						"astId": 38,
						"contract": "sesi-1-liskgarden/contracts/20-LiskGarden.sol:LiskGarden",
						"label": "owner",
						"offset": 0,
						"slot": "3",
						"type": "t_address"
					}
				],
				"types": {
					"t_address": {
						"encoding": "inplace",
						"label": "address",
						"numberOfBytes": "20"
					},
					"t_array(t_uint256)dyn_storage": {
						"base": "t_uint256",
						"encoding": "dynamic_array",
						"label": "uint256[]",
						"numberOfBytes": "32"
					},
					"t_bool": {
						"encoding": "inplace",
						"label": "bool",
						"numberOfBytes": "1"
					},
					"t_enum(GrowthStage)6": {
						"encoding": "inplace",
						"label": "enum LiskGarden.GrowthStage",
						"numberOfBytes": "1"
					},
					"t_mapping(t_address,t_array(t_uint256)dyn_storage)": {
						"encoding": "mapping",
						"key": "t_address",
						"label": "mapping(address => uint256[])",
						"numberOfBytes": "32",
						"value": "t_array(t_uint256)dyn_storage"
					},
					"t_mapping(t_uint256,t_struct(Plant)24_storage)": {
						"encoding": "mapping",
						"key": "t_uint256",
						"label": "mapping(uint256 => struct LiskGarden.Plant)",
						"numberOfBytes": "32",
						"value": "t_struct(Plant)24_storage"
					},
					"t_struct(Plant)24_storage": {
						"encoding": "inplace",
						"label": "struct LiskGarden.Plant",
						"members": [
							{
								"astId": 8,
								"contract": "sesi-1-liskgarden/contracts/20-LiskGarden.sol:LiskGarden",
								"label": "id",
								"offset": 0,
								"slot": "0",
								"type": "t_uint256"
							},
							{
								"astId": 10,
								"contract": "sesi-1-liskgarden/contracts/20-LiskGarden.sol:LiskGarden",
								"label": "owner",
								"offset": 0,
								"slot": "1",
								"type": "t_address"
							},
							{
								"astId": 13,
								"contract": "sesi-1-liskgarden/contracts/20-LiskGarden.sol:LiskGarden",
								"label": "stage",
								"offset": 20,
								"slot": "1",
								"type": "t_enum(GrowthStage)6"
							},
							{
								"astId": 15,
								"contract": "sesi-1-liskgarden/contracts/20-LiskGarden.sol:LiskGarden",
								"label": "plantedDate",
								"offset": 0,
								"slot": "2",
								"type": "t_uint256"
							},
							{
								"astId": 17,
								"contract": "sesi-1-liskgarden/contracts/20-LiskGarden.sol:LiskGarden",
								"label": "lastWatered",
								"offset": 0,
								"slot": "3",
								"type": "t_uint256"
							},
							{
								"astId": 19,
								"contract": "sesi-1-liskgarden/contracts/20-LiskGarden.sol:LiskGarden",
								"label": "waterLevel",
								"offset": 0,
								"slot": "4",
								"type": "t_uint8"
							},
							{
								"astId": 21,
								"contract": "sesi-1-liskgarden/contracts/20-LiskGarden.sol:LiskGarden",
								"label": "exists",
								"offset": 1,
								"slot": "4",
								"type": "t_bool"
							},
							{
								"astId": 23,
								"contract": "sesi-1-liskgarden/contracts/20-LiskGarden.sol:LiskGarden",
								"label": "isDead",
								"offset": 2,
								"slot": "4",
								"type": "t_bool"
							}
						],
						"numberOfBytes": "160"
					},
					"t_uint256": {
						"encoding": "inplace",
						"label": "uint256",
						"numberOfBytes": "32"
					},
					"t_uint8": {
						"encoding": "inplace",
						"label": "uint8",
						"numberOfBytes": "1"
					}
				}
			},
			"userdoc": {
				"kind": "user",
				"methods": {},
				"version": 1
			}
		}
	}
}