{
	"sesi-1-liskgarden/contracts/20-LiskGarden.sol": {
		"LiskGarden": {
			"abi": [
				{
					"inputs": [],
					"stateMutability": "nonpayable",
					"type": "constructor"
				},
				{
					"anonymous": false,
					"inputs": [
						{
							"indexed": true,
							"internalType": "uint256",
							"name": "plantId",
							"type": "uint256"
						}
					],
					"name": "PlantDied",
					"type": "event"
				},
				{
					"anonymous": false,
					"inputs": [
						{
							"indexed": true,
							"internalType": "uint256",
							"name": "plantId",
							"type": "uint256"
						},
						{
							"indexed": true,
							"internalType": "address",
							"name": "owner",
							"type": "address"
						},
						{
							"indexed": false,
							"internalType": "uint256",
							"name": "reward",
							"type": "uint256"
						}
					],
					"name": "PlantHarvested",
					"type": "event"
				},
				{
					"anonymous": false,
					"inputs": [
						{
							"indexed": true,
							"internalType": "address",
							"name": "owner",
							"type": "address"
						},
						{
							"indexed": true,
							"internalType": "uint256",
							"name": "plantId",
							"type": "uint256"
						}
					],
					"name": "PlantSeeded",
					"type": "event"
				},
				{
					"anonymous": false,
					"inputs": [
						{
							"indexed": true,
							"internalType": "uint256",
							"name": "plantId",
							"type": "uint256"
						},
						{
							"indexed": false,
							"internalType": "uint8",
							"name": "newWaterLevel",
							"type": "uint8"
						}
					],
					"name": "PlantWatered",
					"type": "event"
				},
				{
					"anonymous": false,
					"inputs": [
						{
							"indexed": true,
							"internalType": "uint256",
							"name": "plantId",
							"type": "uint256"
						},
						{
							"indexed": false,
							"internalType": "enum LiskGarden.GrowthStage",
							"name": "stage",
							"type": "uint8"
						}
					],
					"name": "StageAdvanced",
					"type": "event"
				},
				{
					"inputs": [],
					"name": "PLANT_PRICE",
					"outputs": [
						{
							"internalType": "uint256",
							"name": "",
							"type": "uint256"
						}
					],
					"stateMutability": "view",
					"type": "function"
				},
				{
					"inputs": [],
					"name": "REWARD_HARVEST",
					"outputs": [
						{
							"internalType": "uint256",
							"name": "",
							"type": "uint256"
						}
					],
					"stateMutability": "view",
					"type": "function"
				},
				{
					"inputs": [],
					"name": "STAGE_DURATION",
					"outputs": [
						{
							"internalType": "uint256",
							"name": "",
							"type": "uint256"
						}
					],
					"stateMutability": "view",
					"type": "function"
				},
				{
					"inputs": [],
					"name": "WATER_DEPLETION_RATE",
					"outputs": [
						{
							"internalType": "uint8",
							"name": "",
							"type": "uint8"
						}
					],
					"stateMutability": "view",
					"type": "function"
				},
				{
					"inputs": [],
					"name": "WATER_DEPLETION_TIME",
					"outputs": [
						{
							"internalType": "uint256",
							"name": "",
							"type": "uint256"
						}
					],
					"stateMutability": "view",
					"type": "function"
				},
				{
					"inputs": [
						{
							"internalType": "uint256",
							"name": "_plantId",
							"type": "uint256"
						}
					],
					"name": "calculateWaterLevel",
					"outputs": [
						{
							"internalType": "uint8",
							"name": "",
							"type": "uint8"
						}
					],
					"stateMutability": "view",
					"type": "function"
				},
				{
					"inputs": [
						{
							"internalType": "uint256",
							"name": "_plantId",
							"type": "uint256"
						}
					],
					"name": "getPlant",
					"outputs": [
						{
							"components": [
								{
									"internalType": "uint256",
									"name": "id",
									"type": "uint256"
								},
								{
									"internalType": "address",
									"name": "owner",
									"type": "address"
								},
								{
									"internalType": "enum LiskGarden.GrowthStage",
									"name": "stage",
									"type": "uint8"
								},
								{
									"internalType": "uint256",
									"name": "plantedDate",
									"type": "uint256"
								},
								{
									"internalType": "uint256",
									"name": "lastWatered",
									"type": "uint256"
								},
								{
									"internalType": "uint8",
									"name": "waterLevel",
									"type": "uint8"
								},
								{
									"internalType": "bool",
									"name": "exists",
									"type": "bool"
								},
								{
									"internalType": "bool",
									"name": "isDead",
									"type": "bool"
								}
							],
							"internalType": "struct LiskGarden.Plant",
							"name": "",
							"type": "tuple"
						}
					],
					"stateMutability": "view",
					"type": "function"
				},
				{
					"inputs": [
						{
							"internalType": "uint256",
							"name": "_plantId",
							"type": "uint256"
						}
					],
					"name": "getStatusUserPlant",
					"outputs": [
						{
							"internalType": "enum LiskGarden.GrowthStage",
							"name": "",
							"type": "uint8"
						}
					],
					"stateMutability": "view",
					"type": "function"
				},
				{
					"inputs": [
						{
							"internalType": "address",
							"name": "user",
							"type": "address"
						}
					],
					"name": "getUserPlants",
					"outputs": [
						{
							"internalType": "uint256[]",
							"name": "",
							"type": "uint256[]"
						}
					],
					"stateMutability": "view",
					"type": "function"
				},
				{
					"inputs": [
						{
							"internalType": "uint256",
							"name": "_plantId",
							"type": "uint256"
						}
					],
					"name": "harvestPlant",
					"outputs": [],
					"stateMutability": "nonpayable",
					"type": "function"
				},
				{
					"inputs": [],
					"name": "owner",
					"outputs": [
						{
							"internalType": "address",
							"name": "",
							"type": "address"
						}
					],
					"stateMutability": "view",
					"type": "function"
				},
				{
					"inputs": [],
					"name": "plantCounter",
					"outputs": [
						{
							"internalType": "uint256",
							"name": "",
							"type": "uint256"
						}
					],
					"stateMutability": "view",
					"type": "function"
				},
				{
					"inputs": [],
					"name": "plantSeed",
					"outputs": [
						{
							"internalType": "uint256",
							"name": "",
							"type": "uint256"
						}
					],
					"stateMutability": "payable",
					"type": "function"
				},
				{
					"inputs": [
						{
							"internalType": "uint256",
							"name": "",
							"type": "uint256"
						}
					],
					"name": "plants",
					"outputs": [
						{
							"internalType": "uint256",
							"name": "id",
							"type": "uint256"
						},
						{
							"internalType": "address",
							"name": "owner",
							"type": "address"
						},
						{
							"internalType": "enum LiskGarden.GrowthStage",
							"name": "stage",
							"type": "uint8"
						},
						{
							"internalType": "uint256",
							"name": "plantedDate",
							"type": "uint256"
						},
						{
							"internalType": "uint256",
							"name": "lastWatered",
							"type": "uint256"
						},
						{
							"internalType": "uint8",
							"name": "waterLevel",
							"type": "uint8"
						},
						{
							"internalType": "bool",
							"name": "exists",
							"type": "bool"
						},
						{
							"internalType": "bool",
							"name": "isDead",
							"type": "bool"
						}
					],
					"stateMutability": "view",
					"type": "function"
				},
				{
					"inputs": [
						{
							"internalType": "uint256",
							"name": "_plantId",
							"type": "uint256"
						}
					],
					"name": "updatePlantStage",
					"outputs": [],
					"stateMutability": "nonpayable",
					"type": "function"
				},
				{
					"inputs": [
						{
							"internalType": "address",
							"name": "",
							"type": "address"
						},
						{
							"internalType": "uint256",
							"name": "",
							"type": "uint256"
						}
					],
					"name": "userPlants",
					"outputs": [
						{
							"internalType": "uint256",
							"name": "",
							"type": "uint256"
						}
					],
					"stateMutability": "view",
					"type": "function"
				},
				{
					"inputs": [
						{
							"internalType": "uint256",
							"name": "_plantId",
							"type": "uint256"
						}
					],
					"name": "waterPlant",
					"outputs": [],
					"stateMutability": "nonpayable",
					"type": "function"
				},
				{
					"inputs": [],
					"name": "withdraw",
					"outputs": [],
					"stateMutability": "nonpayable",
					"type": "function"
				},
				{
					"stateMutability": "payable",
					"type": "receive"
				}
			],
			"devdoc": {
				"kind": "dev",
				"methods": {},
				"version": 1
			},
			"evm": {
				"assembly": "    /* \"sesi-1-liskgarden/contracts/20-LiskGarden.sol\":61:6201  contract LiskGarden {... */\n  mstore(0x40, 0x80)\n    /* \"sesi-1-liskgarden/contracts/20-LiskGarden.sol\":1194:1245  constructor() {... */\n  callvalue\n  dup1\n  iszero\n  tag_1\n  jumpi\n  revert(0x00, 0x00)\ntag_1:\n  pop\n    /* \"sesi-1-liskgarden/contracts/20-LiskGarden.sol\":1227:1237  msg.sender */\n  caller\n    /* \"sesi-1-liskgarden/contracts/20-LiskGarden.sol\":1219:1224  owner */\n  0x03\n  0x00\n    /* \"sesi-1-liskgarden/contracts/20-LiskGarden.sol\":1219:1237  owner = msg.sender */\n  0x0100\n  exp\n  dup2\n  sload\n  dup2\n  0xffffffffffffffffffffffffffffffffffffffff\n  mul\n  not\n  and\n  swap1\n  dup4\n  0xffffffffffffffffffffffffffffffffffffffff\n  and\n  mul\n  or\n  swap1\n  sstore\n  pop\n    /* \"sesi-1-liskgarden/contracts/20-LiskGarden.sol\":61:6201  contract LiskGarden {... */\n  dataSize(sub_0)\n  dup1\n  dataOffset(sub_0)\n  0x00\n  codecopy\n  0x00\n  return\nstop\n\nsub_0: assembly {\n        /* \"sesi-1-liskgarden/contracts/20-LiskGarden.sol\":61:6201  contract LiskGarden {... */\n      mstore(0x40, 0x80)\n      jumpi(tag_1, lt(calldatasize, 0x04))\n      shr(0xe0, calldataload(0x00))\n      dup1\n      0x8dd2361c\n      gt\n      tag_21\n      jumpi\n      dup1\n      0xcbf64268\n      gt\n      tag_22\n      jumpi\n      dup1\n      0xcbf64268\n      eq\n      tag_16\n      jumpi\n      dup1\n      0xcfc9a5f8\n      eq\n      tag_17\n      jumpi\n      dup1\n      0xddd42596\n      eq\n      tag_18\n      jumpi\n      dup1\n      0xe38f8448\n      eq\n      tag_19\n      jumpi\n      dup1\n      0xed0b1f5f\n      eq\n      tag_20\n      jumpi\n      jump(tag_2)\n    tag_22:\n      dup1\n      0x8dd2361c\n      eq\n      tag_12\n      jumpi\n      dup1\n      0x9886bcfa\n      eq\n      tag_13\n      jumpi\n      dup1\n      0x9c471749\n      eq\n      tag_14\n      jumpi\n      dup1\n      0xbacb5ebd\n      eq\n      tag_15\n      jumpi\n      jump(tag_2)\n    tag_21:\n      dup1\n      0x74119a38\n      gt\n      tag_23\n      jumpi\n      dup1\n      0x74119a38\n      eq\n      tag_7\n      jumpi\n      dup1\n      0x754e150d\n      eq\n      tag_8\n      jumpi\n      dup1\n      0x7ed4c5be\n      eq\n      tag_9\n      jumpi\n      dup1\n      0x8aee578b\n      eq\n      tag_10\n      jumpi\n      dup1\n      0x8da5cb5b\n      eq\n      tag_11\n      jumpi\n      jump(tag_2)\n    tag_23:\n      dup1\n      0x30cec0eb\n      eq\n      tag_3\n      jumpi\n      dup1\n      0x3ccfd60b\n      eq\n      tag_4\n      jumpi\n      dup1\n      0x51f9efde\n      eq\n      tag_5\n      jumpi\n      dup1\n      0x5abad56b\n      eq\n      tag_6\n      jumpi\n      jump(tag_2)\n    tag_1:\n      jumpi(tag_2, calldatasize)\n      stop\n    tag_2:\n      revert(0x00, 0x00)\n        /* \"sesi-1-liskgarden/contracts/20-LiskGarden.sol\":5564:5684  function getUserPlants(address user) external view returns (uint256[] memory) {... */\n    tag_3:\n      callvalue\n      dup1\n      iszero\n      tag_26\n      jumpi\n      revert(0x00, 0x00)\n    tag_26:\n      pop\n      tag_27\n      0x04\n      dup1\n      calldatasize\n      sub\n      dup2\n      add\n      swap1\n      tag_28\n      swap2\n      swap1\n      tag_29\n      jump\t// in\n    tag_28:\n      tag_30\n      jump\t// in\n    tag_27:\n      mload(0x40)\n      tag_31\n      swap2\n      swap1\n      tag_32\n      jump\t// in\n    tag_31:\n      mload(0x40)\n      dup1\n      swap2\n      sub\n      swap1\n      return\n        /* \"sesi-1-liskgarden/contracts/20-LiskGarden.sol\":5896:6161  function withdraw() external onlyOwner {... */\n    tag_4:\n      callvalue\n      dup1\n      iszero\n      tag_33\n      jumpi\n      revert(0x00, 0x00)\n    tag_33:\n      pop\n      tag_34\n      tag_35\n      jump\t// in\n    tag_34:\n      stop\n        /* \"sesi-1-liskgarden/contracts/20-LiskGarden.sol\":663:713  uint256 public constant STAGE_DURATION = 1 minutes */\n    tag_5:\n      callvalue\n      dup1\n      iszero\n      tag_36\n      jumpi\n      revert(0x00, 0x00)\n    tag_36:\n      pop\n      tag_37\n      tag_38\n      jump\t// in\n    tag_37:\n      mload(0x40)\n      tag_39\n      swap2\n      swap1\n      tag_40\n      jump\t// in\n    tag_39:\n      mload(0x40)\n      dup1\n      swap2\n      sub\n      swap1\n      return\n        /* \"sesi-1-liskgarden/contracts/20-LiskGarden.sol\":5692:5888  function getStatusUserPlant(uint256 _plantId)... */\n    tag_6:\n      callvalue\n      dup1\n      iszero\n      tag_41\n      jumpi\n      revert(0x00, 0x00)\n    tag_41:\n      pop\n      tag_42\n      0x04\n      dup1\n      calldatasize\n      sub\n      dup2\n      add\n      swap1\n      tag_43\n      swap2\n      swap1\n      tag_44\n      jump\t// in\n    tag_43:\n      tag_45\n      jump\t// in\n    tag_42:\n      mload(0x40)\n      tag_46\n      swap2\n      swap1\n      tag_47\n      jump\t// in\n    tag_46:\n      mload(0x40)\n      dup1\n      swap2\n      sub\n      swap1\n      return\n        /* \"sesi-1-liskgarden/contracts/20-LiskGarden.sol\":2051:2614  function plantSeed() isBalanceEnough external payable returns (uint256) {... */\n    tag_7:\n      tag_48\n      tag_49\n      jump\t// in\n    tag_48:\n      mload(0x40)\n      tag_50\n      swap2\n      swap1\n      tag_40\n      jump\t// in\n    tag_50:\n      mload(0x40)\n      dup1\n      swap2\n      sub\n      swap1\n      return\n        /* \"sesi-1-liskgarden/contracts/20-LiskGarden.sol\":2622:3149  function calculateWaterLevel(uint256 _plantId) public view returns (uint8) {... */\n    tag_8:\n      callvalue\n      dup1\n      iszero\n      tag_51\n      jumpi\n      revert(0x00, 0x00)\n    tag_51:\n      pop\n      tag_52\n      0x04\n      dup1\n      calldatasize\n      sub\n      dup2\n      add\n      swap1\n      tag_53\n      swap2\n      swap1\n      tag_44\n      jump\t// in\n    tag_53:\n      tag_54\n      jump\t// in\n    tag_52:\n      mload(0x40)\n      tag_55\n      swap2\n      swap1\n      tag_56\n      jump\t// in\n    tag_55:\n      mload(0x40)\n      dup1\n      swap2\n      sub\n      swap1\n      return\n        /* \"sesi-1-liskgarden/contracts/20-LiskGarden.sol\":720:777  uint256 public constant WATER_DEPLETION_TIME = 30 seconds */\n    tag_9:\n      callvalue\n      dup1\n      iszero\n      tag_57\n      jumpi\n      revert(0x00, 0x00)\n    tag_57:\n      pop\n      tag_58\n      tag_59\n      jump\t// in\n    tag_58:\n      mload(0x40)\n      tag_60\n      swap2\n      swap1\n      tag_40\n      jump\t// in\n    tag_60:\n      mload(0x40)\n      dup1\n      swap2\n      sub\n      swap1\n      return\n        /* \"sesi-1-liskgarden/contracts/20-LiskGarden.sol\":429:476  mapping(address => uint256[]) public userPlants */\n    tag_10:\n      callvalue\n      dup1\n      iszero\n      tag_61\n      jumpi\n      revert(0x00, 0x00)\n    tag_61:\n      pop\n      tag_62\n      0x04\n      dup1\n      calldatasize\n      sub\n      dup2\n      add\n      swap1\n      tag_63\n      swap2\n      swap1\n      tag_64\n      jump\t// in\n    tag_63:\n      tag_65\n      jump\t// in\n    tag_62:\n      mload(0x40)\n      tag_66\n      swap2\n      swap1\n      tag_40\n      jump\t// in\n    tag_66:\n      mload(0x40)\n      dup1\n      swap2\n      sub\n      swap1\n      return\n        /* \"sesi-1-liskgarden/contracts/20-LiskGarden.sol\":519:539  address public owner */\n    tag_11:\n      callvalue\n      dup1\n      iszero\n      tag_67\n      jumpi\n      revert(0x00, 0x00)\n    tag_67:\n      pop\n      tag_68\n      tag_69\n      jump\t// in\n    tag_68:\n      mload(0x40)\n      tag_70\n      swap2\n      swap1\n      tag_71\n      jump\t// in\n    tag_70:\n      mload(0x40)\n      dup1\n      swap2\n      sub\n      swap1\n      return\n        /* \"sesi-1-liskgarden/contracts/20-LiskGarden.sol\":381:420  mapping(uint256 => Plant) public plants */\n    tag_12:\n      callvalue\n      dup1\n      iszero\n      tag_72\n      jumpi\n      revert(0x00, 0x00)\n    tag_72:\n      pop\n      tag_73\n      0x04\n      dup1\n      calldatasize\n      sub\n      dup2\n      add\n      swap1\n      tag_74\n      swap2\n      swap1\n      tag_44\n      jump\t// in\n    tag_74:\n      tag_75\n      jump\t// in\n    tag_73:\n      mload(0x40)\n      tag_76\n      swap9\n      swap8\n      swap7\n      swap6\n      swap5\n      swap4\n      swap3\n      swap2\n      swap1\n      tag_77\n      jump\t// in\n    tag_76:\n      mload(0x40)\n      dup1\n      swap2\n      sub\n      swap1\n      return\n        /* \"sesi-1-liskgarden/contracts/20-LiskGarden.sol\":3519:3855  function waterPlant(uint256 _plantId) external isPlantExist(_plantId) isPlantAlive(_plantId) onlyOwnerPlant(_plantId) {... */\n    tag_13:\n      callvalue\n      dup1\n      iszero\n      tag_78\n      jumpi\n      revert(0x00, 0x00)\n    tag_78:\n      pop\n      tag_79\n      0x04\n      dup1\n      calldatasize\n      sub\n      dup2\n      add\n      swap1\n      tag_80\n      swap2\n      swap1\n      tag_44\n      jump\t// in\n    tag_80:\n      tag_81\n      jump\t// in\n    tag_79:\n      stop\n        /* \"sesi-1-liskgarden/contracts/20-LiskGarden.sol\":485:512  uint256 public plantCounter */\n    tag_14:\n      callvalue\n      dup1\n      iszero\n      tag_82\n      jumpi\n      revert(0x00, 0x00)\n    tag_82:\n      pop\n      tag_83\n      tag_84\n      jump\t// in\n    tag_83:\n      mload(0x40)\n      tag_85\n      swap2\n      swap1\n      tag_40\n      jump\t// in\n    tag_85:\n      mload(0x40)\n      dup1\n      swap2\n      sub\n      swap1\n      return\n        /* \"sesi-1-liskgarden/contracts/20-LiskGarden.sol\":784:830  uint8 public constant WATER_DEPLETION_RATE = 2 */\n    tag_15:\n      callvalue\n      dup1\n      iszero\n      tag_86\n      jumpi\n      revert(0x00, 0x00)\n    tag_86:\n      pop\n      tag_87\n      tag_88\n      jump\t// in\n    tag_87:\n      mload(0x40)\n      tag_89\n      swap2\n      swap1\n      tag_56\n      jump\t// in\n    tag_89:\n      mload(0x40)\n      dup1\n      swap2\n      sub\n      swap1\n      return\n        /* \"sesi-1-liskgarden/contracts/20-LiskGarden.sol\":604:656  uint256 public constant REWARD_HARVEST = 0.003 ether */\n    tag_16:\n      callvalue\n      dup1\n      iszero\n      tag_90\n      jumpi\n      revert(0x00, 0x00)\n    tag_90:\n      pop\n      tag_91\n      tag_92\n      jump\t// in\n    tag_91:\n      mload(0x40)\n      tag_93\n      swap2\n      swap1\n      tag_40\n      jump\t// in\n    tag_93:\n      mload(0x40)\n      dup1\n      swap2\n      sub\n      swap1\n      return\n        /* \"sesi-1-liskgarden/contracts/20-LiskGarden.sol\":548:597  uint256 public constant PLANT_PRICE = 0.001 ether */\n    tag_17:\n      callvalue\n      dup1\n      iszero\n      tag_94\n      jumpi\n      revert(0x00, 0x00)\n    tag_94:\n      pop\n      tag_95\n      tag_96\n      jump\t// in\n    tag_95:\n      mload(0x40)\n      tag_97\n      swap2\n      swap1\n      tag_40\n      jump\t// in\n    tag_97:\n      mload(0x40)\n      dup1\n      swap2\n      sub\n      swap1\n      return\n        /* \"sesi-1-liskgarden/contracts/20-LiskGarden.sol\":3863:4688  function updatePlantStage(uint256 _plantId) public isPlantExist(_plantId)  {... */\n    tag_18:\n      callvalue\n      dup1\n      iszero\n      tag_98\n      jumpi\n      revert(0x00, 0x00)\n    tag_98:\n      pop\n      tag_99\n      0x04\n      dup1\n      calldatasize\n      sub\n      dup2\n      add\n      swap1\n      tag_100\n      swap2\n      swap1\n      tag_44\n      jump\t// in\n    tag_100:\n      tag_101\n      jump\t// in\n    tag_99:\n      stop\n        /* \"sesi-1-liskgarden/contracts/20-LiskGarden.sol\":4697:5327  function harvestPlant(uint256 _plantId) external isPlantExist(_plantId) isPlantAlive(_plantId) onlyOwnerPlant(_plantId) {... */\n    tag_19:\n      callvalue\n      dup1\n      iszero\n      tag_102\n      jumpi\n      revert(0x00, 0x00)\n    tag_102:\n      pop\n      tag_103\n      0x04\n      dup1\n      calldatasize\n      sub\n      dup2\n      add\n      swap1\n      tag_104\n      swap2\n      swap1\n      tag_44\n      jump\t// in\n    tag_104:\n      tag_105\n      jump\t// in\n    tag_103:\n      stop\n        /* \"sesi-1-liskgarden/contracts/20-LiskGarden.sol\":5335:5556  function getPlant(uint256 _plantId) external view returns (Plant memory) {... */\n    tag_20:\n      callvalue\n      dup1\n      iszero\n      tag_106\n      jumpi\n      revert(0x00, 0x00)\n    tag_106:\n      pop\n      tag_107\n      0x04\n      dup1\n      calldatasize\n      sub\n      dup2\n      add\n      swap1\n      tag_108\n      swap2\n      swap1\n      tag_44\n      jump\t// in\n    tag_108:\n      tag_109\n      jump\t// in\n    tag_107:\n      mload(0x40)\n      tag_110\n      swap2\n      swap1\n      tag_111\n      jump\t// in\n    tag_110:\n      mload(0x40)\n      dup1\n      swap2\n      sub\n      swap1\n      return\n        /* \"sesi-1-liskgarden/contracts/20-LiskGarden.sol\":5564:5684  function getUserPlants(address user) external view returns (uint256[] memory) {... */\n    tag_30:\n        /* \"sesi-1-liskgarden/contracts/20-LiskGarden.sol\":5624:5640  uint256[] memory */\n      0x60\n        /* \"sesi-1-liskgarden/contracts/20-LiskGarden.sol\":5660:5670  userPlants */\n      0x01\n        /* \"sesi-1-liskgarden/contracts/20-LiskGarden.sol\":5660:5676  userPlants[user] */\n      0x00\n        /* \"sesi-1-liskgarden/contracts/20-LiskGarden.sol\":5671:5675  user */\n      dup4\n        /* \"sesi-1-liskgarden/contracts/20-LiskGarden.sol\":5660:5676  userPlants[user] */\n      0xffffffffffffffffffffffffffffffffffffffff\n      and\n      0xffffffffffffffffffffffffffffffffffffffff\n      and\n      dup2\n      mstore\n      0x20\n      add\n      swap1\n      dup2\n      mstore\n      0x20\n      add\n      0x00\n      keccak256\n        /* \"sesi-1-liskgarden/contracts/20-LiskGarden.sol\":5653:5676  return userPlants[user] */\n      dup1\n      sload\n      dup1\n      0x20\n      mul\n      0x20\n      add\n      mload(0x40)\n      swap1\n      dup2\n      add\n      0x40\n      mstore\n      dup1\n      swap3\n      swap2\n      swap1\n      dup2\n      dup2\n      mstore\n      0x20\n      add\n      dup3\n      dup1\n      sload\n      dup1\n      iszero\n      tag_113\n      jumpi\n      0x20\n      mul\n      dup3\n      add\n      swap2\n      swap1\n      0x00\n      mstore\n      keccak256(0x00, 0x20)\n      swap1\n    tag_114:\n      dup2\n      sload\n      dup2\n      mstore\n      0x20\n      add\n      swap1\n      0x01\n      add\n      swap1\n      dup1\n      dup4\n      gt\n      tag_114\n      jumpi\n    tag_113:\n      pop\n      pop\n      pop\n      pop\n      pop\n      swap1\n      pop\n        /* \"sesi-1-liskgarden/contracts/20-LiskGarden.sol\":5564:5684  function getUserPlants(address user) external view returns (uint256[] memory) {... */\n      swap2\n      swap1\n      pop\n      jump\t// out\n        /* \"sesi-1-liskgarden/contracts/20-LiskGarden.sol\":5896:6161  function withdraw() external onlyOwner {... */\n    tag_35:\n        /* \"sesi-1-liskgarden/contracts/20-LiskGarden.sol\":1305:1310  owner */\n      0x03\n      0x00\n      swap1\n      sload\n      swap1\n      0x0100\n      exp\n      swap1\n      div\n      0xffffffffffffffffffffffffffffffffffffffff\n      and\n        /* \"sesi-1-liskgarden/contracts/20-LiskGarden.sol\":1291:1310  msg.sender == owner */\n      0xffffffffffffffffffffffffffffffffffffffff\n      and\n        /* \"sesi-1-liskgarden/contracts/20-LiskGarden.sol\":1291:1301  msg.sender */\n      caller\n        /* \"sesi-1-liskgarden/contracts/20-LiskGarden.sol\":1291:1310  msg.sender == owner */\n      0xffffffffffffffffffffffffffffffffffffffff\n      and\n      eq\n        /* \"sesi-1-liskgarden/contracts/20-LiskGarden.sol\":1283:1326  require(msg.sender == owner, \"Only owner!\") */\n      tag_116\n      jumpi\n      mload(0x40)\n      0x08c379a000000000000000000000000000000000000000000000000000000000\n      dup2\n      mstore\n      0x04\n      add\n      tag_117\n      swap1\n      tag_118\n      jump\t// in\n    tag_117:\n      mload(0x40)\n      dup1\n      swap2\n      sub\n      swap1\n      revert\n    tag_116:\n        /* \"sesi-1-liskgarden/contracts/20-LiskGarden.sol\":5946:5960  uint256 amount */\n      0x00\n        /* \"sesi-1-liskgarden/contracts/20-LiskGarden.sol\":5963:5984  address(this).balance */\n      selfbalance\n        /* \"sesi-1-liskgarden/contracts/20-LiskGarden.sol\":5946:5984  uint256 amount = address(this).balance */\n      swap1\n      pop\n        /* \"sesi-1-liskgarden/contracts/20-LiskGarden.sol\":6012:6013  0 */\n      0x00\n        /* \"sesi-1-liskgarden/contracts/20-LiskGarden.sol\":6003:6009  amount */\n      dup2\n        /* \"sesi-1-liskgarden/contracts/20-LiskGarden.sol\":6003:6013  amount > 0 */\n      gt\n        /* \"sesi-1-liskgarden/contracts/20-LiskGarden.sol\":5995:6037  require(amount > 0, \"Nothing to withdraw\") */\n      tag_120\n      jumpi\n      mload(0x40)\n      0x08c379a000000000000000000000000000000000000000000000000000000000\n      dup2\n      mstore\n      0x04\n      add\n      tag_121\n      swap1\n      tag_122\n      jump\t// in\n    tag_121:\n      mload(0x40)\n      dup1\n      swap2\n      sub\n      swap1\n      revert\n    tag_120:\n        /* \"sesi-1-liskgarden/contracts/20-LiskGarden.sol\":6051:6063  bool success */\n      0x00\n        /* \"sesi-1-liskgarden/contracts/20-LiskGarden.sol\":6077:6082  owner */\n      0x03\n      0x00\n      swap1\n      sload\n      swap1\n      0x0100\n      exp\n      swap1\n      div\n      0xffffffffffffffffffffffffffffffffffffffff\n      and\n        /* \"sesi-1-liskgarden/contracts/20-LiskGarden.sol\":6069:6088  payable(owner).call */\n      0xffffffffffffffffffffffffffffffffffffffff\n      and\n        /* \"sesi-1-liskgarden/contracts/20-LiskGarden.sol\":6096:6102  amount */\n      dup3\n        /* \"sesi-1-liskgarden/contracts/20-LiskGarden.sol\":6069:6107  payable(owner).call{value: amount}(\"\") */\n      mload(0x40)\n      tag_123\n      swap1\n      tag_124\n      jump\t// in\n    tag_123:\n      0x00\n      mload(0x40)\n      dup1\n      dup4\n      sub\n      dup2\n      dup6\n      dup8\n      gas\n      call\n      swap3\n      pop\n      pop\n      pop\n      returndatasize\n      dup1\n      0x00\n      dup2\n      eq\n      tag_127\n      jumpi\n      mload(0x40)\n      swap2\n      pop\n      and(add(returndatasize, 0x3f), not(0x1f))\n      dup3\n      add\n      0x40\n      mstore\n      returndatasize\n      dup3\n      mstore\n      returndatasize\n      0x00\n      0x20\n      dup5\n      add\n      returndatacopy\n      jump(tag_126)\n    tag_127:\n      0x60\n      swap2\n      pop\n    tag_126:\n      pop\n        /* \"sesi-1-liskgarden/contracts/20-LiskGarden.sol\":6050:6107  (bool success, ) = payable(owner).call{value: amount}(\"\") */\n      pop\n      swap1\n      pop\n        /* \"sesi-1-liskgarden/contracts/20-LiskGarden.sol\":6126:6133  success */\n      dup1\n        /* \"sesi-1-liskgarden/contracts/20-LiskGarden.sol\":6118:6153  require(success, \"Failed transfer\") */\n      tag_128\n      jumpi\n      mload(0x40)\n      0x08c379a000000000000000000000000000000000000000000000000000000000\n      dup2\n      mstore\n      0x04\n      add\n      tag_129\n      swap1\n      tag_130\n      jump\t// in\n    tag_129:\n      mload(0x40)\n      dup1\n      swap2\n      sub\n      swap1\n      revert\n    tag_128:\n        /* \"sesi-1-liskgarden/contracts/20-LiskGarden.sol\":5935:6161  {... */\n      pop\n      pop\n        /* \"sesi-1-liskgarden/contracts/20-LiskGarden.sol\":5896:6161  function withdraw() external onlyOwner {... */\n      jump\t// out\n        /* \"sesi-1-liskgarden/contracts/20-LiskGarden.sol\":663:713  uint256 public constant STAGE_DURATION = 1 minutes */\n    tag_38:\n        /* \"sesi-1-liskgarden/contracts/20-LiskGarden.sol\":704:713  1 minutes */\n      0x3c\n        /* \"sesi-1-liskgarden/contracts/20-LiskGarden.sol\":663:713  uint256 public constant STAGE_DURATION = 1 minutes */\n      dup2\n      jump\t// out\n        /* \"sesi-1-liskgarden/contracts/20-LiskGarden.sol\":5692:5888  function getStatusUserPlant(uint256 _plantId)... */\n    tag_45:\n        /* \"sesi-1-liskgarden/contracts/20-LiskGarden.sol\":5822:5833  GrowthStage */\n      0x00\n        /* \"sesi-1-liskgarden/contracts/20-LiskGarden.sol\":5794:5802  _plantId */\n      dup2\n        /* \"sesi-1-liskgarden/contracts/20-LiskGarden.sol\":1441:1451  msg.sender */\n      caller\n        /* \"sesi-1-liskgarden/contracts/20-LiskGarden.sol\":1415:1451  plants[_plantId].owner == msg.sender */\n      0xffffffffffffffffffffffffffffffffffffffff\n      and\n        /* \"sesi-1-liskgarden/contracts/20-LiskGarden.sol\":1415:1421  plants */\n      0x00\n        /* \"sesi-1-liskgarden/contracts/20-LiskGarden.sol\":1415:1431  plants[_plantId] */\n      0x00\n        /* \"sesi-1-liskgarden/contracts/20-LiskGarden.sol\":1422:1430  _plantId */\n      dup4\n        /* \"sesi-1-liskgarden/contracts/20-LiskGarden.sol\":1415:1431  plants[_plantId] */\n      dup2\n      mstore\n      0x20\n      add\n      swap1\n      dup2\n      mstore\n      0x20\n      add\n      0x00\n      keccak256\n        /* \"sesi-1-liskgarden/contracts/20-LiskGarden.sol\":1415:1437  plants[_plantId].owner */\n      0x01\n      add\n      0x00\n      swap1\n      sload\n      swap1\n      0x0100\n      exp\n      swap1\n      div\n      0xffffffffffffffffffffffffffffffffffffffff\n      and\n        /* \"sesi-1-liskgarden/contracts/20-LiskGarden.sol\":1415:1451  plants[_plantId].owner == msg.sender */\n      0xffffffffffffffffffffffffffffffffffffffff\n      and\n      eq\n        /* \"sesi-1-liskgarden/contracts/20-LiskGarden.sol\":1407:1478  require(plants[_plantId].owner == msg.sender, \"You are not the owner!\") */\n      tag_132\n      jumpi\n      mload(0x40)\n      0x08c379a000000000000000000000000000000000000000000000000000000000\n      dup2\n      mstore\n      0x04\n      add\n      tag_133\n      swap1\n      tag_134\n      jump\t// in\n    tag_133:\n      mload(0x40)\n      dup1\n      swap2\n      sub\n      swap1\n      revert\n    tag_132:\n        /* \"sesi-1-liskgarden/contracts/20-LiskGarden.sol\":5858:5864  plants */\n      0x00\n        /* \"sesi-1-liskgarden/contracts/20-LiskGarden.sol\":5858:5874  plants[_plantId] */\n      0x00\n        /* \"sesi-1-liskgarden/contracts/20-LiskGarden.sol\":5865:5873  _plantId */\n      dup5\n        /* \"sesi-1-liskgarden/contracts/20-LiskGarden.sol\":5858:5874  plants[_plantId] */\n      dup2\n      mstore\n      0x20\n      add\n      swap1\n      dup2\n      mstore\n      0x20\n      add\n      0x00\n      keccak256\n        /* \"sesi-1-liskgarden/contracts/20-LiskGarden.sol\":5858:5880  plants[_plantId].stage */\n      0x01\n      add\n      0x14\n      swap1\n      sload\n      swap1\n      0x0100\n      exp\n      swap1\n      div\n      0xff\n      and\n        /* \"sesi-1-liskgarden/contracts/20-LiskGarden.sol\":5851:5880  return plants[_plantId].stage */\n      swap2\n      pop\n        /* \"sesi-1-liskgarden/contracts/20-LiskGarden.sol\":5692:5888  function getStatusUserPlant(uint256 _plantId)... */\n      pop\n      swap2\n      swap1\n      pop\n      jump\t// out\n        /* \"sesi-1-liskgarden/contracts/20-LiskGarden.sol\":2051:2614  function plantSeed() isBalanceEnough external payable returns (uint256) {... */\n    tag_49:\n        /* \"sesi-1-liskgarden/contracts/20-LiskGarden.sol\":2114:2121  uint256 */\n      0x00\n        /* \"sesi-1-liskgarden/contracts/20-LiskGarden.sol\":586:597  0.001 ether */\n      0x038d7ea4c68000\n        /* \"sesi-1-liskgarden/contracts/20-LiskGarden.sol\":1550:1559  msg.value */\n      callvalue\n        /* \"sesi-1-liskgarden/contracts/20-LiskGarden.sol\":1550:1574  msg.value >= PLANT_PRICE */\n      lt\n      iszero\n        /* \"sesi-1-liskgarden/contracts/20-LiskGarden.sol\":1542:1600  require(msg.value >= PLANT_PRICE, \"Insufficient balance!\") */\n      tag_137\n      jumpi\n      mload(0x40)\n      0x08c379a000000000000000000000000000000000000000000000000000000000\n      dup2\n      mstore\n      0x04\n      add\n      tag_138\n      swap1\n      tag_139\n      jump\t// in\n    tag_138:\n      mload(0x40)\n      dup1\n      swap2\n      sub\n      swap1\n      revert\n    tag_137:\n        /* \"sesi-1-liskgarden/contracts/20-LiskGarden.sol\":2159:2449  Plant({... */\n      mload(0x40)\n      dup1\n      0x0100\n      add\n      0x40\n      mstore\n      dup1\n        /* \"sesi-1-liskgarden/contracts/20-LiskGarden.sol\":2184:2196  plantCounter */\n      sload(0x02)\n        /* \"sesi-1-liskgarden/contracts/20-LiskGarden.sol\":2159:2449  Plant({... */\n      dup2\n      mstore\n      0x20\n      add\n        /* \"sesi-1-liskgarden/contracts/20-LiskGarden.sol\":2218:2228  msg.sender */\n      caller\n        /* \"sesi-1-liskgarden/contracts/20-LiskGarden.sol\":2159:2449  Plant({... */\n      0xffffffffffffffffffffffffffffffffffffffff\n      and\n      dup2\n      mstore\n      0x20\n      add\n        /* \"sesi-1-liskgarden/contracts/20-LiskGarden.sol\":2250:2266  GrowthStage.SEED */\n      0x00\n        /* \"sesi-1-liskgarden/contracts/20-LiskGarden.sol\":2159:2449  Plant({... */\n      0x03\n      dup2\n      gt\n      iszero\n      tag_141\n      jumpi\n      tag_142\n      tag_143\n      jump\t// in\n    tag_142:\n    tag_141:\n      dup2\n      mstore\n      0x20\n      add\n        /* \"sesi-1-liskgarden/contracts/20-LiskGarden.sol\":2294:2309  block.timestamp */\n      timestamp\n        /* \"sesi-1-liskgarden/contracts/20-LiskGarden.sol\":2159:2449  Plant({... */\n      dup2\n      mstore\n      0x20\n      add\n        /* \"sesi-1-liskgarden/contracts/20-LiskGarden.sol\":2337:2352  block.timestamp */\n      timestamp\n        /* \"sesi-1-liskgarden/contracts/20-LiskGarden.sol\":2159:2449  Plant({... */\n      dup2\n      mstore\n      0x20\n      add\n        /* \"sesi-1-liskgarden/contracts/20-LiskGarden.sol\":2379:2382  100 */\n      0x64\n        /* \"sesi-1-liskgarden/contracts/20-LiskGarden.sol\":2159:2449  Plant({... */\n      0xff\n      and\n      dup2\n      mstore\n      0x20\n      add\n        /* \"sesi-1-liskgarden/contracts/20-LiskGarden.sol\":2405:2409  true */\n      0x01\n        /* \"sesi-1-liskgarden/contracts/20-LiskGarden.sol\":2159:2449  Plant({... */\n      iszero\n      iszero\n      dup2\n      mstore\n      0x20\n      add\n        /* \"sesi-1-liskgarden/contracts/20-LiskGarden.sol\":2432:2437  false */\n      0x00\n        /* \"sesi-1-liskgarden/contracts/20-LiskGarden.sol\":2159:2449  Plant({... */\n      iszero\n      iszero\n      dup2\n      mstore\n      pop\n        /* \"sesi-1-liskgarden/contracts/20-LiskGarden.sol\":2134:2140  plants */\n      0x00\n        /* \"sesi-1-liskgarden/contracts/20-LiskGarden.sol\":2134:2156  plants[++plantCounter] */\n      0x00\n        /* \"sesi-1-liskgarden/contracts/20-LiskGarden.sol\":2143:2155  plantCounter */\n      0x02\n      0x00\n        /* \"sesi-1-liskgarden/contracts/20-LiskGarden.sol\":2141:2155  ++plantCounter */\n      dup2\n      sload\n      tag_144\n      swap1\n      tag_145\n      jump\t// in\n    tag_144:\n      swap2\n      swap1\n      pop\n      dup2\n      swap1\n      sstore\n        /* \"sesi-1-liskgarden/contracts/20-LiskGarden.sol\":2134:2156  plants[++plantCounter] */\n      dup2\n      mstore\n      0x20\n      add\n      swap1\n      dup2\n      mstore\n      0x20\n      add\n      0x00\n      keccak256\n        /* \"sesi-1-liskgarden/contracts/20-LiskGarden.sol\":2134:2449  plants[++plantCounter] = Plant({... */\n      0x00\n      dup3\n      add\n      mload\n      dup2\n      0x00\n      add\n      sstore\n      0x20\n      dup3\n      add\n      mload\n      dup2\n      0x01\n      add\n      exp(0x0100, 0x00)\n      dup2\n      sload\n      dup2\n      0xffffffffffffffffffffffffffffffffffffffff\n      mul\n      not\n      and\n      swap1\n      dup4\n      0xffffffffffffffffffffffffffffffffffffffff\n      and\n      mul\n      or\n      swap1\n      sstore\n      pop\n      0x40\n      dup3\n      add\n      mload\n      dup2\n      0x01\n      add\n      exp(0x0100, 0x14)\n      dup2\n      sload\n      dup2\n      0xff\n      mul\n      not\n      and\n      swap1\n      dup4\n      0x03\n      dup2\n      gt\n      iszero\n      tag_146\n      jumpi\n      tag_147\n      tag_143\n      jump\t// in\n    tag_147:\n    tag_146:\n      mul\n      or\n      swap1\n      sstore\n      pop\n      0x60\n      dup3\n      add\n      mload\n      dup2\n      0x02\n      add\n      sstore\n      0x80\n      dup3\n      add\n      mload\n      dup2\n      0x03\n      add\n      sstore\n      0xa0\n      dup3\n      add\n      mload\n      dup2\n      0x04\n      add\n      exp(0x0100, 0x00)\n      dup2\n      sload\n      dup2\n      0xff\n      mul\n      not\n      and\n      swap1\n      dup4\n      0xff\n      and\n      mul\n      or\n      swap1\n      sstore\n      pop\n      0xc0\n      dup3\n      add\n      mload\n      dup2\n      0x04\n      add\n      exp(0x0100, 0x01)\n      dup2\n      sload\n      dup2\n      0xff\n      mul\n      not\n      and\n      swap1\n      dup4\n      iszero\n      iszero\n      mul\n      or\n      swap1\n      sstore\n      pop\n      0xe0\n      dup3\n      add\n      mload\n      dup2\n      0x04\n      add\n      exp(0x0100, 0x02)\n      dup2\n      sload\n      dup2\n      0xff\n      mul\n      not\n      and\n      swap1\n      dup4\n      iszero\n      iszero\n      mul\n      or\n      swap1\n      sstore\n      pop\n      swap1\n      pop\n      pop\n        /* \"sesi-1-liskgarden/contracts/20-LiskGarden.sol\":2470:2480  userPlants */\n      0x01\n        /* \"sesi-1-liskgarden/contracts/20-LiskGarden.sol\":2470:2492  userPlants[msg.sender] */\n      0x00\n        /* \"sesi-1-liskgarden/contracts/20-LiskGarden.sol\":2481:2491  msg.sender */\n      caller\n        /* \"sesi-1-liskgarden/contracts/20-LiskGarden.sol\":2470:2492  userPlants[msg.sender] */\n      0xffffffffffffffffffffffffffffffffffffffff\n      and\n      0xffffffffffffffffffffffffffffffffffffffff\n      and\n      dup2\n      mstore\n      0x20\n      add\n      swap1\n      dup2\n      mstore\n      0x20\n      add\n      0x00\n      keccak256\n        /* \"sesi-1-liskgarden/contracts/20-LiskGarden.sol\":2498:2510  plantCounter */\n      sload(0x02)\n        /* \"sesi-1-liskgarden/contracts/20-LiskGarden.sol\":2470:2511  userPlants[msg.sender].push(plantCounter) */\n      swap1\n      dup1\n      0x01\n      dup2\n      sload\n      add\n      dup1\n      dup3\n      sstore\n      dup1\n      swap2\n      pop\n      pop\n      0x01\n      swap1\n      sub\n      swap1\n      0x00\n      mstore\n      keccak256(0x00, 0x20)\n      add\n      0x00\n      swap1\n      swap2\n      swap1\n      swap2\n      swap1\n      swap2\n      pop\n      sstore\n        /* \"sesi-1-liskgarden/contracts/20-LiskGarden.sol\":2561:2573  plantCounter */\n      sload(0x02)\n        /* \"sesi-1-liskgarden/contracts/20-LiskGarden.sol\":2549:2559  msg.sender */\n      caller\n        /* \"sesi-1-liskgarden/contracts/20-LiskGarden.sol\":2537:2574  PlantSeeded(msg.sender, plantCounter) */\n      0xffffffffffffffffffffffffffffffffffffffff\n      and\n      0x4f5b22082ac57121703b0b6c1203ef527cfbfa5069616fee6deb979d124adbf0\n      mload(0x40)\n      mload(0x40)\n      dup1\n      swap2\n      sub\n      swap1\n      log3\n        /* \"sesi-1-liskgarden/contracts/20-LiskGarden.sol\":2594:2606  plantCounter */\n      sload(0x02)\n        /* \"sesi-1-liskgarden/contracts/20-LiskGarden.sol\":2587:2606  return plantCounter */\n      swap1\n      pop\n        /* \"sesi-1-liskgarden/contracts/20-LiskGarden.sol\":2051:2614  function plantSeed() isBalanceEnough external payable returns (uint256) {... */\n      swap1\n      jump\t// out\n        /* \"sesi-1-liskgarden/contracts/20-LiskGarden.sol\":2622:3149  function calculateWaterLevel(uint256 _plantId) public view returns (uint8) {... */\n    tag_54:\n        /* \"sesi-1-liskgarden/contracts/20-LiskGarden.sol\":2690:2695  uint8 */\n      0x00\n        /* \"sesi-1-liskgarden/contracts/20-LiskGarden.sol\":2708:2727  Plant storage plant */\n      0x00\n        /* \"sesi-1-liskgarden/contracts/20-LiskGarden.sol\":2730:2736  plants */\n      0x00\n        /* \"sesi-1-liskgarden/contracts/20-LiskGarden.sol\":2730:2746  plants[_plantId] */\n      0x00\n        /* \"sesi-1-liskgarden/contracts/20-LiskGarden.sol\":2737:2745  _plantId */\n      dup5\n        /* \"sesi-1-liskgarden/contracts/20-LiskGarden.sol\":2730:2746  plants[_plantId] */\n      dup2\n      mstore\n      0x20\n      add\n      swap1\n      dup2\n      mstore\n      0x20\n      add\n      0x00\n      keccak256\n        /* \"sesi-1-liskgarden/contracts/20-LiskGarden.sol\":2708:2746  Plant storage plant = plants[_plantId] */\n      swap1\n      pop\n        /* \"sesi-1-liskgarden/contracts/20-LiskGarden.sol\":2763:2768  plant */\n      dup1\n        /* \"sesi-1-liskgarden/contracts/20-LiskGarden.sol\":2763:2775  plant.exists */\n      0x04\n      add\n      0x01\n      swap1\n      sload\n      swap1\n      0x0100\n      exp\n      swap1\n      div\n      0xff\n      and\n        /* \"sesi-1-liskgarden/contracts/20-LiskGarden.sol\":2762:2775  !plant.exists */\n      iszero\n        /* \"sesi-1-liskgarden/contracts/20-LiskGarden.sol\":2762:2791  !plant.exists || plant.isDead */\n      dup1\n      tag_150\n      jumpi\n      pop\n        /* \"sesi-1-liskgarden/contracts/20-LiskGarden.sol\":2779:2784  plant */\n      dup1\n        /* \"sesi-1-liskgarden/contracts/20-LiskGarden.sol\":2779:2791  plant.isDead */\n      0x04\n      add\n      0x02\n      swap1\n      sload\n      swap1\n      0x0100\n      exp\n      swap1\n      div\n      0xff\n      and\n        /* \"sesi-1-liskgarden/contracts/20-LiskGarden.sol\":2762:2791  !plant.exists || plant.isDead */\n    tag_150:\n        /* \"sesi-1-liskgarden/contracts/20-LiskGarden.sol\":2759:2801  if(!plant.exists || plant.isDead) return 0 */\n      iszero\n      tag_151\n      jumpi\n        /* \"sesi-1-liskgarden/contracts/20-LiskGarden.sol\":2800:2801  0 */\n      0x00\n        /* \"sesi-1-liskgarden/contracts/20-LiskGarden.sol\":2793:2801  return 0 */\n      swap2\n      pop\n      pop\n      jump(tag_149)\n        /* \"sesi-1-liskgarden/contracts/20-LiskGarden.sol\":2759:2801  if(!plant.exists || plant.isDead) return 0 */\n    tag_151:\n        /* \"sesi-1-liskgarden/contracts/20-LiskGarden.sol\":2814:2838  uint256 timeSinceWatered */\n      0x00\n        /* \"sesi-1-liskgarden/contracts/20-LiskGarden.sol\":2859:2864  plant */\n      dup2\n        /* \"sesi-1-liskgarden/contracts/20-LiskGarden.sol\":2859:2876  plant.lastWatered */\n      0x03\n      add\n      sload\n        /* \"sesi-1-liskgarden/contracts/20-LiskGarden.sol\":2841:2856  block.timestamp */\n      timestamp\n        /* \"sesi-1-liskgarden/contracts/20-LiskGarden.sol\":2841:2876  block.timestamp - plant.lastWatered */\n      tag_152\n      swap2\n      swap1\n      tag_153\n      jump\t// in\n    tag_152:\n        /* \"sesi-1-liskgarden/contracts/20-LiskGarden.sol\":2814:2876  uint256 timeSinceWatered = block.timestamp - plant.lastWatered */\n      swap1\n      pop\n        /* \"sesi-1-liskgarden/contracts/20-LiskGarden.sol\":2889:2915  uint256 depletionIntervals */\n      0x00\n        /* \"sesi-1-liskgarden/contracts/20-LiskGarden.sol\":767:777  30 seconds */\n      0x1e\n        /* \"sesi-1-liskgarden/contracts/20-LiskGarden.sol\":2918:2934  timeSinceWatered */\n      dup3\n        /* \"sesi-1-liskgarden/contracts/20-LiskGarden.sol\":2918:2957  timeSinceWatered / WATER_DEPLETION_TIME */\n      tag_154\n      swap2\n      swap1\n      tag_155\n      jump\t// in\n    tag_154:\n        /* \"sesi-1-liskgarden/contracts/20-LiskGarden.sol\":2889:2957  uint256 depletionIntervals = timeSinceWatered / WATER_DEPLETION_TIME */\n      swap1\n      pop\n        /* \"sesi-1-liskgarden/contracts/20-LiskGarden.sol\":2970:2987  uint256 waterLost */\n      0x00\n        /* \"sesi-1-liskgarden/contracts/20-LiskGarden.sol\":829:830  2 */\n      0x02\n        /* \"sesi-1-liskgarden/contracts/20-LiskGarden.sol\":2990:3031  depletionIntervals * WATER_DEPLETION_RATE */\n      0xff\n      and\n        /* \"sesi-1-liskgarden/contracts/20-LiskGarden.sol\":2990:3008  depletionIntervals */\n      dup3\n        /* \"sesi-1-liskgarden/contracts/20-LiskGarden.sol\":2990:3031  depletionIntervals * WATER_DEPLETION_RATE */\n      tag_156\n      swap2\n      swap1\n      tag_157\n      jump\t// in\n    tag_156:\n        /* \"sesi-1-liskgarden/contracts/20-LiskGarden.sol\":2970:3031  uint256 waterLost = depletionIntervals * WATER_DEPLETION_RATE */\n      swap1\n      pop\n        /* \"sesi-1-liskgarden/contracts/20-LiskGarden.sol\":3060:3065  plant */\n      dup4\n        /* \"sesi-1-liskgarden/contracts/20-LiskGarden.sol\":3060:3076  plant.waterLevel */\n      0x04\n      add\n      0x00\n      swap1\n      sload\n      swap1\n      0x0100\n      exp\n      swap1\n      div\n      0xff\n      and\n        /* \"sesi-1-liskgarden/contracts/20-LiskGarden.sol\":3047:3076  waterLost >= plant.waterLevel */\n      0xff\n      and\n        /* \"sesi-1-liskgarden/contracts/20-LiskGarden.sol\":3047:3056  waterLost */\n      dup2\n        /* \"sesi-1-liskgarden/contracts/20-LiskGarden.sol\":3047:3076  waterLost >= plant.waterLevel */\n      lt\n        /* \"sesi-1-liskgarden/contracts/20-LiskGarden.sol\":3044:3086  if(waterLost >= plant.waterLevel) return 0 */\n      tag_158\n      jumpi\n        /* \"sesi-1-liskgarden/contracts/20-LiskGarden.sol\":3085:3086  0 */\n      0x00\n        /* \"sesi-1-liskgarden/contracts/20-LiskGarden.sol\":3078:3086  return 0 */\n      swap5\n      pop\n      pop\n      pop\n      pop\n      pop\n      jump(tag_149)\n        /* \"sesi-1-liskgarden/contracts/20-LiskGarden.sol\":3044:3086  if(waterLost >= plant.waterLevel) return 0 */\n    tag_158:\n        /* \"sesi-1-liskgarden/contracts/20-LiskGarden.sol\":3131:3140  waterLost */\n      dup1\n        /* \"sesi-1-liskgarden/contracts/20-LiskGarden.sol\":3112:3117  plant */\n      dup5\n        /* \"sesi-1-liskgarden/contracts/20-LiskGarden.sol\":3112:3128  plant.waterLevel */\n      0x04\n      add\n      0x00\n      swap1\n      sload\n      swap1\n      0x0100\n      exp\n      swap1\n      div\n      0xff\n      and\n        /* \"sesi-1-liskgarden/contracts/20-LiskGarden.sol\":3112:3140  plant.waterLevel - waterLost */\n      0xff\n      and\n      tag_159\n      swap2\n      swap1\n      tag_153\n      jump\t// in\n    tag_159:\n        /* \"sesi-1-liskgarden/contracts/20-LiskGarden.sol\":3099:3141  return uint8(plant.waterLevel - waterLost) */\n      swap5\n      pop\n      pop\n      pop\n      pop\n      pop\n        /* \"sesi-1-liskgarden/contracts/20-LiskGarden.sol\":2622:3149  function calculateWaterLevel(uint256 _plantId) public view returns (uint8) {... */\n    tag_149:\n      swap2\n      swap1\n      pop\n      jump\t// out\n        /* \"sesi-1-liskgarden/contracts/20-LiskGarden.sol\":720:777  uint256 public constant WATER_DEPLETION_TIME = 30 seconds */\n    tag_59:\n        /* \"sesi-1-liskgarden/contracts/20-LiskGarden.sol\":767:777  30 seconds */\n      0x1e\n        /* \"sesi-1-liskgarden/contracts/20-LiskGarden.sol\":720:777  uint256 public constant WATER_DEPLETION_TIME = 30 seconds */\n      dup2\n      jump\t// out\n        /* \"sesi-1-liskgarden/contracts/20-LiskGarden.sol\":429:476  mapping(address => uint256[]) public userPlants */\n    tag_65:\n      mstore(0x20, 0x01)\n      dup2\n      0x00\n      mstore\n      keccak256(0x00, 0x40)\n      dup2\n      dup2\n      sload\n      dup2\n      lt\n      tag_160\n      jumpi\n      0x00\n      dup1\n      revert\n    tag_160:\n      swap1\n      0x00\n      mstore\n      keccak256(0x00, 0x20)\n      add\n      0x00\n      swap2\n      pop\n      swap2\n      pop\n      pop\n      sload\n      dup2\n      jump\t// out\n        /* \"sesi-1-liskgarden/contracts/20-LiskGarden.sol\":519:539  address public owner */\n    tag_69:\n      0x03\n      0x00\n      swap1\n      sload\n      swap1\n      0x0100\n      exp\n      swap1\n      div\n      0xffffffffffffffffffffffffffffffffffffffff\n      and\n      dup2\n      jump\t// out\n        /* \"sesi-1-liskgarden/contracts/20-LiskGarden.sol\":381:420  mapping(uint256 => Plant) public plants */\n    tag_75:\n      mstore(0x20, 0x00)\n      dup1\n      0x00\n      mstore\n      keccak256(0x00, 0x40)\n      0x00\n      swap2\n      pop\n      swap1\n      pop\n      dup1\n      0x00\n      add\n      sload\n      swap1\n      dup1\n      0x01\n      add\n      0x00\n      swap1\n      sload\n      swap1\n      0x0100\n      exp\n      swap1\n      div\n      0xffffffffffffffffffffffffffffffffffffffff\n      and\n      swap1\n      dup1\n      0x01\n      add\n      0x14\n      swap1\n      sload\n      swap1\n      0x0100\n      exp\n      swap1\n      div\n      0xff\n      and\n      swap1\n      dup1\n      0x02\n      add\n      sload\n      swap1\n      dup1\n      0x03\n      add\n      sload\n      swap1\n      dup1\n      0x04\n      add\n      0x00\n      swap1\n      sload\n      swap1\n      0x0100\n      exp\n      swap1\n      div\n      0xff\n      and\n      swap1\n      dup1\n      0x04\n      add\n      0x01\n      swap1\n      sload\n      swap1\n      0x0100\n      exp\n      swap1\n      div\n      0xff\n      and\n      swap1\n      dup1\n      0x04\n      add\n      0x02\n      swap1\n      sload\n      swap1\n      0x0100\n      exp\n      swap1\n      div\n      0xff\n      and\n      swap1\n      pop\n      dup9\n      jump\t// out\n        /* \"sesi-1-liskgarden/contracts/20-LiskGarden.sol\":3519:3855  function waterPlant(uint256 _plantId) external isPlantExist(_plantId) isPlantAlive(_plantId) onlyOwnerPlant(_plantId) {... */\n    tag_81:\n        /* \"sesi-1-liskgarden/contracts/20-LiskGarden.sol\":3579:3587  _plantId */\n      dup1\n        /* \"sesi-1-liskgarden/contracts/20-LiskGarden.sol\":1822:1828  plants */\n      0x00\n        /* \"sesi-1-liskgarden/contracts/20-LiskGarden.sol\":1822:1838  plants[_plantId] */\n      0x00\n        /* \"sesi-1-liskgarden/contracts/20-LiskGarden.sol\":1829:1837  _plantId */\n      dup3\n        /* \"sesi-1-liskgarden/contracts/20-LiskGarden.sol\":1822:1838  plants[_plantId] */\n      dup2\n      mstore\n      0x20\n      add\n      swap1\n      dup2\n      mstore\n      0x20\n      add\n      0x00\n      keccak256\n        /* \"sesi-1-liskgarden/contracts/20-LiskGarden.sol\":1822:1845  plants[_plantId].exists */\n      0x04\n      add\n      0x01\n      swap1\n      sload\n      swap1\n      0x0100\n      exp\n      swap1\n      div\n      0xff\n      and\n        /* \"sesi-1-liskgarden/contracts/20-LiskGarden.sol\":1814:1870  require(plants[_plantId].exists, \"Plant doesn't exist!\") */\n      tag_163\n      jumpi\n      mload(0x40)\n      0x08c379a000000000000000000000000000000000000000000000000000000000\n      dup2\n      mstore\n      0x04\n      add\n      tag_164\n      swap1\n      tag_165\n      jump\t// in\n    tag_164:\n      mload(0x40)\n      dup1\n      swap2\n      sub\n      swap1\n      revert\n    tag_163:\n        /* \"sesi-1-liskgarden/contracts/20-LiskGarden.sol\":3602:3610  _plantId */\n      dup2\n        /* \"sesi-1-liskgarden/contracts/20-LiskGarden.sol\":1688:1694  plants */\n      0x00\n        /* \"sesi-1-liskgarden/contracts/20-LiskGarden.sol\":1688:1704  plants[_plantId] */\n      0x00\n        /* \"sesi-1-liskgarden/contracts/20-LiskGarden.sol\":1695:1703  _plantId */\n      dup3\n        /* \"sesi-1-liskgarden/contracts/20-LiskGarden.sol\":1688:1704  plants[_plantId] */\n      dup2\n      mstore\n      0x20\n      add\n      swap1\n      dup2\n      mstore\n      0x20\n      add\n      0x00\n      keccak256\n        /* \"sesi-1-liskgarden/contracts/20-LiskGarden.sol\":1688:1711  plants[_plantId].isDead */\n      0x04\n      add\n      0x02\n      swap1\n      sload\n      swap1\n      0x0100\n      exp\n      swap1\n      div\n      0xff\n      and\n        /* \"sesi-1-liskgarden/contracts/20-LiskGarden.sol\":1687:1711  !plants[_plantId].isDead */\n      iszero\n        /* \"sesi-1-liskgarden/contracts/20-LiskGarden.sol\":1679:1735  require(!plants[_plantId].isDead, \"Plant already dead!\") */\n      tag_167\n      jumpi\n      mload(0x40)\n      0x08c379a000000000000000000000000000000000000000000000000000000000\n      dup2\n      mstore\n      0x04\n      add\n      tag_168\n      swap1\n      tag_169\n      jump\t// in\n    tag_168:\n      mload(0x40)\n      dup1\n      swap2\n      sub\n      swap1\n      revert\n    tag_167:\n        /* \"sesi-1-liskgarden/contracts/20-LiskGarden.sol\":3627:3635  _plantId */\n      dup3\n        /* \"sesi-1-liskgarden/contracts/20-LiskGarden.sol\":1441:1451  msg.sender */\n      caller\n        /* \"sesi-1-liskgarden/contracts/20-LiskGarden.sol\":1415:1451  plants[_plantId].owner == msg.sender */\n      0xffffffffffffffffffffffffffffffffffffffff\n      and\n        /* \"sesi-1-liskgarden/contracts/20-LiskGarden.sol\":1415:1421  plants */\n      0x00\n        /* \"sesi-1-liskgarden/contracts/20-LiskGarden.sol\":1415:1431  plants[_plantId] */\n      0x00\n        /* \"sesi-1-liskgarden/contracts/20-LiskGarden.sol\":1422:1430  _plantId */\n      dup4\n        /* \"sesi-1-liskgarden/contracts/20-LiskGarden.sol\":1415:1431  plants[_plantId] */\n      dup2\n      mstore\n      0x20\n      add\n      swap1\n      dup2\n      mstore\n      0x20\n      add\n      0x00\n      keccak256\n        /* \"sesi-1-liskgarden/contracts/20-LiskGarden.sol\":1415:1437  plants[_plantId].owner */\n      0x01\n      add\n      0x00\n      swap1\n      sload\n      swap1\n      0x0100\n      exp\n      swap1\n      div\n      0xffffffffffffffffffffffffffffffffffffffff\n      and\n        /* \"sesi-1-liskgarden/contracts/20-LiskGarden.sol\":1415:1451  plants[_plantId].owner == msg.sender */\n      0xffffffffffffffffffffffffffffffffffffffff\n      and\n      eq\n        /* \"sesi-1-liskgarden/contracts/20-LiskGarden.sol\":1407:1478  require(plants[_plantId].owner == msg.sender, \"You are not the owner!\") */\n      tag_171\n      jumpi\n      mload(0x40)\n      0x08c379a000000000000000000000000000000000000000000000000000000000\n      dup2\n      mstore\n      0x04\n      add\n      tag_172\n      swap1\n      tag_134\n      jump\t// in\n    tag_172:\n      mload(0x40)\n      dup1\n      swap2\n      sub\n      swap1\n      revert\n    tag_171:\n        /* \"sesi-1-liskgarden/contracts/20-LiskGarden.sol\":3648:3667  Plant storage plant */\n      0x00\n        /* \"sesi-1-liskgarden/contracts/20-LiskGarden.sol\":3670:3676  plants */\n      0x00\n        /* \"sesi-1-liskgarden/contracts/20-LiskGarden.sol\":3670:3686  plants[_plantId] */\n      0x00\n        /* \"sesi-1-liskgarden/contracts/20-LiskGarden.sol\":3677:3685  _plantId */\n      dup7\n        /* \"sesi-1-liskgarden/contracts/20-LiskGarden.sol\":3670:3686  plants[_plantId] */\n      dup2\n      mstore\n      0x20\n      add\n      swap1\n      dup2\n      mstore\n      0x20\n      add\n      0x00\n      keccak256\n        /* \"sesi-1-liskgarden/contracts/20-LiskGarden.sol\":3648:3686  Plant storage plant = plants[_plantId] */\n      swap1\n      pop\n        /* \"sesi-1-liskgarden/contracts/20-LiskGarden.sol\":3716:3719  100 */\n      0x64\n        /* \"sesi-1-liskgarden/contracts/20-LiskGarden.sol\":3697:3702  plant */\n      dup2\n        /* \"sesi-1-liskgarden/contracts/20-LiskGarden.sol\":3697:3713  plant.waterLevel */\n      0x04\n      add\n      0x00\n        /* \"sesi-1-liskgarden/contracts/20-LiskGarden.sol\":3697:3719  plant.waterLevel = 100 */\n      0x0100\n      exp\n      dup2\n      sload\n      dup2\n      0xff\n      mul\n      not\n      and\n      swap1\n      dup4\n      0xff\n      and\n      mul\n      or\n      swap1\n      sstore\n      pop\n        /* \"sesi-1-liskgarden/contracts/20-LiskGarden.sol\":3750:3765  block.timestamp */\n      timestamp\n        /* \"sesi-1-liskgarden/contracts/20-LiskGarden.sol\":3730:3735  plant */\n      dup2\n        /* \"sesi-1-liskgarden/contracts/20-LiskGarden.sol\":3730:3747  plant.lastWatered */\n      0x03\n      add\n        /* \"sesi-1-liskgarden/contracts/20-LiskGarden.sol\":3730:3765  plant.lastWatered = block.timestamp */\n      dup2\n      swap1\n      sstore\n      pop\n        /* \"sesi-1-liskgarden/contracts/20-LiskGarden.sol\":3796:3804  _plantId */\n      dup5\n        /* \"sesi-1-liskgarden/contracts/20-LiskGarden.sol\":3783:3810  PlantWatered(_plantId, 100) */\n      0xd4b742b9ba48fffa1f14267075a7793851770764117c423fd0a6550dfc8cb574\n        /* \"sesi-1-liskgarden/contracts/20-LiskGarden.sol\":3806:3809  100 */\n      0x64\n        /* \"sesi-1-liskgarden/contracts/20-LiskGarden.sol\":3783:3810  PlantWatered(_plantId, 100) */\n      mload(0x40)\n      tag_174\n      swap2\n      swap1\n      tag_175\n      jump\t// in\n    tag_174:\n      mload(0x40)\n      dup1\n      swap2\n      sub\n      swap1\n      log2\n        /* \"sesi-1-liskgarden/contracts/20-LiskGarden.sol\":3821:3847  updatePlantStage(_plantId) */\n      tag_176\n        /* \"sesi-1-liskgarden/contracts/20-LiskGarden.sol\":3838:3846  _plantId */\n      dup6\n        /* \"sesi-1-liskgarden/contracts/20-LiskGarden.sol\":3821:3837  updatePlantStage */\n      tag_101\n        /* \"sesi-1-liskgarden/contracts/20-LiskGarden.sol\":3821:3847  updatePlantStage(_plantId) */\n      jump\t// in\n    tag_176:\n        /* \"sesi-1-liskgarden/contracts/20-LiskGarden.sol\":3637:3855  {... */\n      pop\n        /* \"sesi-1-liskgarden/contracts/20-LiskGarden.sol\":1746:1747  _ */\n      pop\n        /* \"sesi-1-liskgarden/contracts/20-LiskGarden.sol\":1881:1882  _ */\n      pop\n        /* \"sesi-1-liskgarden/contracts/20-LiskGarden.sol\":3519:3855  function waterPlant(uint256 _plantId) external isPlantExist(_plantId) isPlantAlive(_plantId) onlyOwnerPlant(_plantId) {... */\n      pop\n      pop\n      jump\t// out\n        /* \"sesi-1-liskgarden/contracts/20-LiskGarden.sol\":485:512  uint256 public plantCounter */\n    tag_84:\n      sload(0x02)\n      dup2\n      jump\t// out\n        /* \"sesi-1-liskgarden/contracts/20-LiskGarden.sol\":784:830  uint8 public constant WATER_DEPLETION_RATE = 2 */\n    tag_88:\n        /* \"sesi-1-liskgarden/contracts/20-LiskGarden.sol\":829:830  2 */\n      0x02\n        /* \"sesi-1-liskgarden/contracts/20-LiskGarden.sol\":784:830  uint8 public constant WATER_DEPLETION_RATE = 2 */\n      dup2\n      jump\t// out\n        /* \"sesi-1-liskgarden/contracts/20-LiskGarden.sol\":604:656  uint256 public constant REWARD_HARVEST = 0.003 ether */\n    tag_92:\n        /* \"sesi-1-liskgarden/contracts/20-LiskGarden.sol\":645:656  0.003 ether */\n      0x0aa87bee538000\n        /* \"sesi-1-liskgarden/contracts/20-LiskGarden.sol\":604:656  uint256 public constant REWARD_HARVEST = 0.003 ether */\n      dup2\n      jump\t// out\n        /* \"sesi-1-liskgarden/contracts/20-LiskGarden.sol\":548:597  uint256 public constant PLANT_PRICE = 0.001 ether */\n    tag_96:\n        /* \"sesi-1-liskgarden/contracts/20-LiskGarden.sol\":586:597  0.001 ether */\n      0x038d7ea4c68000\n        /* \"sesi-1-liskgarden/contracts/20-LiskGarden.sol\":548:597  uint256 public constant PLANT_PRICE = 0.001 ether */\n      dup2\n      jump\t// out\n        /* \"sesi-1-liskgarden/contracts/20-LiskGarden.sol\":3863:4688  function updatePlantStage(uint256 _plantId) public isPlantExist(_plantId)  {... */\n    tag_101:\n        /* \"sesi-1-liskgarden/contracts/20-LiskGarden.sol\":3927:3935  _plantId */\n      dup1\n        /* \"sesi-1-liskgarden/contracts/20-LiskGarden.sol\":1822:1828  plants */\n      0x00\n        /* \"sesi-1-liskgarden/contracts/20-LiskGarden.sol\":1822:1838  plants[_plantId] */\n      0x00\n        /* \"sesi-1-liskgarden/contracts/20-LiskGarden.sol\":1829:1837  _plantId */\n      dup3\n        /* \"sesi-1-liskgarden/contracts/20-LiskGarden.sol\":1822:1838  plants[_plantId] */\n      dup2\n      mstore\n      0x20\n      add\n      swap1\n      dup2\n      mstore\n      0x20\n      add\n      0x00\n      keccak256\n        /* \"sesi-1-liskgarden/contracts/20-LiskGarden.sol\":1822:1845  plants[_plantId].exists */\n      0x04\n      add\n      0x01\n      swap1\n      sload\n      swap1\n      0x0100\n      exp\n      swap1\n      div\n      0xff\n      and\n        /* \"sesi-1-liskgarden/contracts/20-LiskGarden.sol\":1814:1870  require(plants[_plantId].exists, \"Plant doesn't exist!\") */\n      tag_178\n      jumpi\n      mload(0x40)\n      0x08c379a000000000000000000000000000000000000000000000000000000000\n      dup2\n      mstore\n      0x04\n      add\n      tag_179\n      swap1\n      tag_165\n      jump\t// in\n    tag_179:\n      mload(0x40)\n      dup1\n      swap2\n      sub\n      swap1\n      revert\n    tag_178:\n        /* \"sesi-1-liskgarden/contracts/20-LiskGarden.sol\":3949:3968  Plant storage plant */\n      0x00\n        /* \"sesi-1-liskgarden/contracts/20-LiskGarden.sol\":3971:3977  plants */\n      0x00\n        /* \"sesi-1-liskgarden/contracts/20-LiskGarden.sol\":3971:3987  plants[_plantId] */\n      0x00\n        /* \"sesi-1-liskgarden/contracts/20-LiskGarden.sol\":3978:3986  _plantId */\n      dup5\n        /* \"sesi-1-liskgarden/contracts/20-LiskGarden.sol\":3971:3987  plants[_plantId] */\n      dup2\n      mstore\n      0x20\n      add\n      swap1\n      dup2\n      mstore\n      0x20\n      add\n      0x00\n      keccak256\n        /* \"sesi-1-liskgarden/contracts/20-LiskGarden.sol\":3949:3987  Plant storage plant = plants[_plantId] */\n      swap1\n      pop\n        /* \"sesi-1-liskgarden/contracts/20-LiskGarden.sol\":4000:4026  updateWaterLevel(_plantId) */\n      tag_181\n        /* \"sesi-1-liskgarden/contracts/20-LiskGarden.sol\":4017:4025  _plantId */\n      dup4\n        /* \"sesi-1-liskgarden/contracts/20-LiskGarden.sol\":4000:4016  updateWaterLevel */\n      tag_182\n        /* \"sesi-1-liskgarden/contracts/20-LiskGarden.sol\":4000:4026  updateWaterLevel(_plantId) */\n      jump\t// in\n    tag_181:\n        /* \"sesi-1-liskgarden/contracts/20-LiskGarden.sol\":4040:4045  plant */\n      dup1\n        /* \"sesi-1-liskgarden/contracts/20-LiskGarden.sol\":4040:4052  plant.isDead */\n      0x04\n      add\n      0x02\n      swap1\n      sload\n      swap1\n      0x0100\n      exp\n      swap1\n      div\n      0xff\n      and\n        /* \"sesi-1-liskgarden/contracts/20-LiskGarden.sol\":4037:4061  if(plant.isDead) return; */\n      iszero\n      tag_183\n      jumpi\n        /* \"sesi-1-liskgarden/contracts/20-LiskGarden.sol\":4054:4061  return; */\n      pop\n      jump(tag_180)\n        /* \"sesi-1-liskgarden/contracts/20-LiskGarden.sol\":4037:4061  if(plant.isDead) return; */\n    tag_183:\n        /* \"sesi-1-liskgarden/contracts/20-LiskGarden.sol\":4073:4097  uint256 timeSincePlanted */\n      0x00\n        /* \"sesi-1-liskgarden/contracts/20-LiskGarden.sol\":4118:4123  plant */\n      dup2\n        /* \"sesi-1-liskgarden/contracts/20-LiskGarden.sol\":4118:4135  plant.plantedDate */\n      0x02\n      add\n      sload\n        /* \"sesi-1-liskgarden/contracts/20-LiskGarden.sol\":4100:4115  block.timestamp */\n      timestamp\n        /* \"sesi-1-liskgarden/contracts/20-LiskGarden.sol\":4100:4135  block.timestamp - plant.plantedDate */\n      tag_184\n      swap2\n      swap1\n      tag_153\n      jump\t// in\n    tag_184:\n        /* \"sesi-1-liskgarden/contracts/20-LiskGarden.sol\":4073:4135  uint256 timeSincePlanted = block.timestamp - plant.plantedDate */\n      swap1\n      pop\n        /* \"sesi-1-liskgarden/contracts/20-LiskGarden.sol\":4146:4166  GrowthStage oldStage */\n      0x00\n        /* \"sesi-1-liskgarden/contracts/20-LiskGarden.sol\":4169:4174  plant */\n      dup3\n        /* \"sesi-1-liskgarden/contracts/20-LiskGarden.sol\":4169:4180  plant.stage */\n      0x01\n      add\n      0x14\n      swap1\n      sload\n      swap1\n      0x0100\n      exp\n      swap1\n      div\n      0xff\n      and\n        /* \"sesi-1-liskgarden/contracts/20-LiskGarden.sol\":4146:4180  GrowthStage oldStage = plant.stage */\n      swap1\n      pop\n        /* \"sesi-1-liskgarden/contracts/20-LiskGarden.sol\":4233:4234  3 */\n      0x03\n        /* \"sesi-1-liskgarden/contracts/20-LiskGarden.sol\":704:713  1 minutes */\n      0x3c\n        /* \"sesi-1-liskgarden/contracts/20-LiskGarden.sol\":4216:4234  STAGE_DURATION * 3 */\n      tag_185\n      swap2\n      swap1\n      tag_157\n      jump\t// in\n    tag_185:\n        /* \"sesi-1-liskgarden/contracts/20-LiskGarden.sol\":4196:4212  timeSincePlanted */\n      dup3\n        /* \"sesi-1-liskgarden/contracts/20-LiskGarden.sol\":4196:4234  timeSincePlanted >= STAGE_DURATION * 3 */\n      lt\n        /* \"sesi-1-liskgarden/contracts/20-LiskGarden.sol\":4193:4573  if(timeSincePlanted >= STAGE_DURATION * 3) {... */\n      tag_186\n      jumpi\n        /* \"sesi-1-liskgarden/contracts/20-LiskGarden.sol\":4265:4285  GrowthStage.BLOOMING */\n      0x03\n        /* \"sesi-1-liskgarden/contracts/20-LiskGarden.sol\":4251:4256  plant */\n      dup4\n        /* \"sesi-1-liskgarden/contracts/20-LiskGarden.sol\":4251:4262  plant.stage */\n      0x01\n      add\n      0x14\n        /* \"sesi-1-liskgarden/contracts/20-LiskGarden.sol\":4251:4285  plant.stage = GrowthStage.BLOOMING */\n      0x0100\n      exp\n      dup2\n      sload\n      dup2\n      0xff\n      mul\n      not\n      and\n      swap1\n      dup4\n      0x03\n      dup2\n      gt\n      iszero\n      tag_187\n      jumpi\n      tag_188\n      tag_143\n      jump\t// in\n    tag_188:\n    tag_187:\n      mul\n      or\n      swap1\n      sstore\n      pop\n        /* \"sesi-1-liskgarden/contracts/20-LiskGarden.sol\":4193:4573  if(timeSincePlanted >= STAGE_DURATION * 3) {... */\n      jump(tag_189)\n    tag_186:\n        /* \"sesi-1-liskgarden/contracts/20-LiskGarden.sol\":4343:4344  2 */\n      0x02\n        /* \"sesi-1-liskgarden/contracts/20-LiskGarden.sol\":704:713  1 minutes */\n      0x3c\n        /* \"sesi-1-liskgarden/contracts/20-LiskGarden.sol\":4326:4344  STAGE_DURATION * 2 */\n      tag_190\n      swap2\n      swap1\n      tag_157\n      jump\t// in\n    tag_190:\n        /* \"sesi-1-liskgarden/contracts/20-LiskGarden.sol\":4306:4322  timeSincePlanted */\n      dup3\n        /* \"sesi-1-liskgarden/contracts/20-LiskGarden.sol\":4306:4344  timeSincePlanted >= STAGE_DURATION * 2 */\n      lt\n        /* \"sesi-1-liskgarden/contracts/20-LiskGarden.sol\":4303:4573  if(timeSincePlanted >= STAGE_DURATION * 2) {... */\n      tag_191\n      jumpi\n        /* \"sesi-1-liskgarden/contracts/20-LiskGarden.sol\":4375:4394  GrowthStage.GROWING */\n      0x02\n        /* \"sesi-1-liskgarden/contracts/20-LiskGarden.sol\":4361:4366  plant */\n      dup4\n        /* \"sesi-1-liskgarden/contracts/20-LiskGarden.sol\":4361:4372  plant.stage */\n      0x01\n      add\n      0x14\n        /* \"sesi-1-liskgarden/contracts/20-LiskGarden.sol\":4361:4394  plant.stage = GrowthStage.GROWING */\n      0x0100\n      exp\n      dup2\n      sload\n      dup2\n      0xff\n      mul\n      not\n      and\n      swap1\n      dup4\n      0x03\n      dup2\n      gt\n      iszero\n      tag_192\n      jumpi\n      tag_193\n      tag_143\n      jump\t// in\n    tag_193:\n    tag_192:\n      mul\n      or\n      swap1\n      sstore\n      pop\n        /* \"sesi-1-liskgarden/contracts/20-LiskGarden.sol\":4303:4573  if(timeSincePlanted >= STAGE_DURATION * 2) {... */\n      jump(tag_194)\n    tag_191:\n        /* \"sesi-1-liskgarden/contracts/20-LiskGarden.sol\":704:713  1 minutes */\n      0x3c\n        /* \"sesi-1-liskgarden/contracts/20-LiskGarden.sol\":4415:4431  timeSincePlanted */\n      dup3\n        /* \"sesi-1-liskgarden/contracts/20-LiskGarden.sol\":4415:4449  timeSincePlanted >= STAGE_DURATION */\n      lt\n        /* \"sesi-1-liskgarden/contracts/20-LiskGarden.sol\":4412:4573  if(timeSincePlanted >= STAGE_DURATION) {... */\n      tag_195\n      jumpi\n        /* \"sesi-1-liskgarden/contracts/20-LiskGarden.sol\":4480:4498  GrowthStage.SPROUT */\n      0x01\n        /* \"sesi-1-liskgarden/contracts/20-LiskGarden.sol\":4466:4471  plant */\n      dup4\n        /* \"sesi-1-liskgarden/contracts/20-LiskGarden.sol\":4466:4477  plant.stage */\n      0x01\n      add\n      0x14\n        /* \"sesi-1-liskgarden/contracts/20-LiskGarden.sol\":4466:4498  plant.stage = GrowthStage.SPROUT */\n      0x0100\n      exp\n      dup2\n      sload\n      dup2\n      0xff\n      mul\n      not\n      and\n      swap1\n      dup4\n      0x03\n      dup2\n      gt\n      iszero\n      tag_196\n      jumpi\n      tag_197\n      tag_143\n      jump\t// in\n    tag_197:\n    tag_196:\n      mul\n      or\n      swap1\n      sstore\n      pop\n        /* \"sesi-1-liskgarden/contracts/20-LiskGarden.sol\":4412:4573  if(timeSincePlanted >= STAGE_DURATION) {... */\n      jump(tag_198)\n    tag_195:\n        /* \"sesi-1-liskgarden/contracts/20-LiskGarden.sol\":4545:4561  GrowthStage.SEED */\n      0x00\n        /* \"sesi-1-liskgarden/contracts/20-LiskGarden.sol\":4531:4536  plant */\n      dup4\n        /* \"sesi-1-liskgarden/contracts/20-LiskGarden.sol\":4531:4542  plant.stage */\n      0x01\n      add\n      0x14\n        /* \"sesi-1-liskgarden/contracts/20-LiskGarden.sol\":4531:4561  plant.stage = GrowthStage.SEED */\n      0x0100\n      exp\n      dup2\n      sload\n      dup2\n      0xff\n      mul\n      not\n      and\n      swap1\n      dup4\n      0x03\n      dup2\n      gt\n      iszero\n      tag_199\n      jumpi\n      tag_200\n      tag_143\n      jump\t// in\n    tag_200:\n    tag_199:\n      mul\n      or\n      swap1\n      sstore\n      pop\n        /* \"sesi-1-liskgarden/contracts/20-LiskGarden.sol\":4412:4573  if(timeSincePlanted >= STAGE_DURATION) {... */\n    tag_198:\n        /* \"sesi-1-liskgarden/contracts/20-LiskGarden.sol\":4303:4573  if(timeSincePlanted >= STAGE_DURATION * 2) {... */\n    tag_194:\n        /* \"sesi-1-liskgarden/contracts/20-LiskGarden.sol\":4193:4573  if(timeSincePlanted >= STAGE_DURATION * 3) {... */\n    tag_189:\n        /* \"sesi-1-liskgarden/contracts/20-LiskGarden.sol\":4603:4611  oldStage */\n      dup1\n        /* \"sesi-1-liskgarden/contracts/20-LiskGarden.sol\":4588:4611  plant.stage != oldStage */\n      0x03\n      dup2\n      gt\n      iszero\n      tag_201\n      jumpi\n      tag_202\n      tag_143\n      jump\t// in\n    tag_202:\n    tag_201:\n        /* \"sesi-1-liskgarden/contracts/20-LiskGarden.sol\":4588:4593  plant */\n      dup4\n        /* \"sesi-1-liskgarden/contracts/20-LiskGarden.sol\":4588:4599  plant.stage */\n      0x01\n      add\n      0x14\n      swap1\n      sload\n      swap1\n      0x0100\n      exp\n      swap1\n      div\n      0xff\n      and\n        /* \"sesi-1-liskgarden/contracts/20-LiskGarden.sol\":4588:4611  plant.stage != oldStage */\n      0x03\n      dup2\n      gt\n      iszero\n      tag_203\n      jumpi\n      tag_204\n      tag_143\n      jump\t// in\n    tag_204:\n    tag_203:\n      eq\n        /* \"sesi-1-liskgarden/contracts/20-LiskGarden.sol\":4585:4681  if(plant.stage != oldStage) {... */\n      tag_205\n      jumpi\n        /* \"sesi-1-liskgarden/contracts/20-LiskGarden.sol\":4647:4655  _plantId */\n      dup5\n        /* \"sesi-1-liskgarden/contracts/20-LiskGarden.sol\":4633:4669  StageAdvanced(_plantId, plant.stage) */\n      0x338b8976706f9da67298dddfa1ea4ff7d99cce68b9ca39c4f348994f8e2124a8\n        /* \"sesi-1-liskgarden/contracts/20-LiskGarden.sol\":4657:4662  plant */\n      dup5\n        /* \"sesi-1-liskgarden/contracts/20-LiskGarden.sol\":4657:4668  plant.stage */\n      0x01\n      add\n      0x14\n      swap1\n      sload\n      swap1\n      0x0100\n      exp\n      swap1\n      div\n      0xff\n      and\n        /* \"sesi-1-liskgarden/contracts/20-LiskGarden.sol\":4633:4669  StageAdvanced(_plantId, plant.stage) */\n      mload(0x40)\n      tag_206\n      swap2\n      swap1\n      tag_47\n      jump\t// in\n    tag_206:\n      mload(0x40)\n      dup1\n      swap2\n      sub\n      swap1\n      log2\n        /* \"sesi-1-liskgarden/contracts/20-LiskGarden.sol\":4585:4681  if(plant.stage != oldStage) {... */\n    tag_205:\n        /* \"sesi-1-liskgarden/contracts/20-LiskGarden.sol\":3938:4688  {... */\n      pop\n      pop\n      pop\n        /* \"sesi-1-liskgarden/contracts/20-LiskGarden.sol\":1881:1882  _ */\n    tag_180:\n        /* \"sesi-1-liskgarden/contracts/20-LiskGarden.sol\":3863:4688  function updatePlantStage(uint256 _plantId) public isPlantExist(_plantId)  {... */\n      pop\n      pop\n      jump\t// out\n        /* \"sesi-1-liskgarden/contracts/20-LiskGarden.sol\":4697:5327  function harvestPlant(uint256 _plantId) external isPlantExist(_plantId) isPlantAlive(_plantId) onlyOwnerPlant(_plantId) {... */\n    tag_105:\n        /* \"sesi-1-liskgarden/contracts/20-LiskGarden.sol\":4759:4767  _plantId */\n      dup1\n        /* \"sesi-1-liskgarden/contracts/20-LiskGarden.sol\":1822:1828  plants */\n      0x00\n        /* \"sesi-1-liskgarden/contracts/20-LiskGarden.sol\":1822:1838  plants[_plantId] */\n      0x00\n        /* \"sesi-1-liskgarden/contracts/20-LiskGarden.sol\":1829:1837  _plantId */\n      dup3\n        /* \"sesi-1-liskgarden/contracts/20-LiskGarden.sol\":1822:1838  plants[_plantId] */\n      dup2\n      mstore\n      0x20\n      add\n      swap1\n      dup2\n      mstore\n      0x20\n      add\n      0x00\n      keccak256\n        /* \"sesi-1-liskgarden/contracts/20-LiskGarden.sol\":1822:1845  plants[_plantId].exists */\n      0x04\n      add\n      0x01\n      swap1\n      sload\n      swap1\n      0x0100\n      exp\n      swap1\n      div\n      0xff\n      and\n        /* \"sesi-1-liskgarden/contracts/20-LiskGarden.sol\":1814:1870  require(plants[_plantId].exists, \"Plant doesn't exist!\") */\n      tag_208\n      jumpi\n      mload(0x40)\n      0x08c379a000000000000000000000000000000000000000000000000000000000\n      dup2\n      mstore\n      0x04\n      add\n      tag_209\n      swap1\n      tag_165\n      jump\t// in\n    tag_209:\n      mload(0x40)\n      dup1\n      swap2\n      sub\n      swap1\n      revert\n    tag_208:\n        /* \"sesi-1-liskgarden/contracts/20-LiskGarden.sol\":4782:4790  _plantId */\n      dup2\n        /* \"sesi-1-liskgarden/contracts/20-LiskGarden.sol\":1688:1694  plants */\n      0x00\n        /* \"sesi-1-liskgarden/contracts/20-LiskGarden.sol\":1688:1704  plants[_plantId] */\n      0x00\n        /* \"sesi-1-liskgarden/contracts/20-LiskGarden.sol\":1695:1703  _plantId */\n      dup3\n        /* \"sesi-1-liskgarden/contracts/20-LiskGarden.sol\":1688:1704  plants[_plantId] */\n      dup2\n      mstore\n      0x20\n      add\n      swap1\n      dup2\n      mstore\n      0x20\n      add\n      0x00\n      keccak256\n        /* \"sesi-1-liskgarden/contracts/20-LiskGarden.sol\":1688:1711  plants[_plantId].isDead */\n      0x04\n      add\n      0x02\n      swap1\n      sload\n      swap1\n      0x0100\n      exp\n      swap1\n      div\n      0xff\n      and\n        /* \"sesi-1-liskgarden/contracts/20-LiskGarden.sol\":1687:1711  !plants[_plantId].isDead */\n      iszero\n        /* \"sesi-1-liskgarden/contracts/20-LiskGarden.sol\":1679:1735  require(!plants[_plantId].isDead, \"Plant already dead!\") */\n      tag_211\n      jumpi\n      mload(0x40)\n      0x08c379a000000000000000000000000000000000000000000000000000000000\n      dup2\n      mstore\n      0x04\n      add\n      tag_212\n      swap1\n      tag_169\n      jump\t// in\n    tag_212:\n      mload(0x40)\n      dup1\n      swap2\n      sub\n      swap1\n      revert\n    tag_211:\n        /* \"sesi-1-liskgarden/contracts/20-LiskGarden.sol\":4807:4815  _plantId */\n      dup3\n        /* \"sesi-1-liskgarden/contracts/20-LiskGarden.sol\":1441:1451  msg.sender */\n      caller\n        /* \"sesi-1-liskgarden/contracts/20-LiskGarden.sol\":1415:1451  plants[_plantId].owner == msg.sender */\n      0xffffffffffffffffffffffffffffffffffffffff\n      and\n        /* \"sesi-1-liskgarden/contracts/20-LiskGarden.sol\":1415:1421  plants */\n      0x00\n        /* \"sesi-1-liskgarden/contracts/20-LiskGarden.sol\":1415:1431  plants[_plantId] */\n      0x00\n        /* \"sesi-1-liskgarden/contracts/20-LiskGarden.sol\":1422:1430  _plantId */\n      dup4\n        /* \"sesi-1-liskgarden/contracts/20-LiskGarden.sol\":1415:1431  plants[_plantId] */\n      dup2\n      mstore\n      0x20\n      add\n      swap1\n      dup2\n      mstore\n      0x20\n      add\n      0x00\n      keccak256\n        /* \"sesi-1-liskgarden/contracts/20-LiskGarden.sol\":1415:1437  plants[_plantId].owner */\n      0x01\n      add\n      0x00\n      swap1\n      sload\n      swap1\n      0x0100\n      exp\n      swap1\n      div\n      0xffffffffffffffffffffffffffffffffffffffff\n      and\n        /* \"sesi-1-liskgarden/contracts/20-LiskGarden.sol\":1415:1451  plants[_plantId].owner == msg.sender */\n      0xffffffffffffffffffffffffffffffffffffffff\n      and\n      eq\n        /* \"sesi-1-liskgarden/contracts/20-LiskGarden.sol\":1407:1478  require(plants[_plantId].owner == msg.sender, \"You are not the owner!\") */\n      tag_214\n      jumpi\n      mload(0x40)\n      0x08c379a000000000000000000000000000000000000000000000000000000000\n      dup2\n      mstore\n      0x04\n      add\n      tag_215\n      swap1\n      tag_134\n      jump\t// in\n    tag_215:\n      mload(0x40)\n      dup1\n      swap2\n      sub\n      swap1\n      revert\n    tag_214:\n        /* \"sesi-1-liskgarden/contracts/20-LiskGarden.sol\":4828:4847  Plant storage plant */\n      0x00\n        /* \"sesi-1-liskgarden/contracts/20-LiskGarden.sol\":4850:4856  plants */\n      0x00\n        /* \"sesi-1-liskgarden/contracts/20-LiskGarden.sol\":4850:4866  plants[_plantId] */\n      0x00\n        /* \"sesi-1-liskgarden/contracts/20-LiskGarden.sol\":4857:4865  _plantId */\n      dup7\n        /* \"sesi-1-liskgarden/contracts/20-LiskGarden.sol\":4850:4866  plants[_plantId] */\n      dup2\n      mstore\n      0x20\n      add\n      swap1\n      dup2\n      mstore\n      0x20\n      add\n      0x00\n      keccak256\n        /* \"sesi-1-liskgarden/contracts/20-LiskGarden.sol\":4828:4866  Plant storage plant = plants[_plantId] */\n      swap1\n      pop\n        /* \"sesi-1-liskgarden/contracts/20-LiskGarden.sol\":4879:4905  updatePlantStage(_plantId) */\n      tag_217\n        /* \"sesi-1-liskgarden/contracts/20-LiskGarden.sol\":4896:4904  _plantId */\n      dup6\n        /* \"sesi-1-liskgarden/contracts/20-LiskGarden.sol\":4879:4895  updatePlantStage */\n      tag_101\n        /* \"sesi-1-liskgarden/contracts/20-LiskGarden.sol\":4879:4905  updatePlantStage(_plantId) */\n      jump\t// in\n    tag_217:\n        /* \"sesi-1-liskgarden/contracts/20-LiskGarden.sol\":4939:4959  GrowthStage.BLOOMING */\n      0x03\n        /* \"sesi-1-liskgarden/contracts/20-LiskGarden.sol\":4924:4959  plant.stage == GrowthStage.BLOOMING */\n      dup1\n      dup2\n      gt\n      iszero\n      tag_218\n      jumpi\n      tag_219\n      tag_143\n      jump\t// in\n    tag_219:\n    tag_218:\n        /* \"sesi-1-liskgarden/contracts/20-LiskGarden.sol\":4924:4929  plant */\n      dup2\n        /* \"sesi-1-liskgarden/contracts/20-LiskGarden.sol\":4924:4935  plant.stage */\n      0x01\n      add\n      0x14\n      swap1\n      sload\n      swap1\n      0x0100\n      exp\n      swap1\n      div\n      0xff\n      and\n        /* \"sesi-1-liskgarden/contracts/20-LiskGarden.sol\":4924:4959  plant.stage == GrowthStage.BLOOMING */\n      0x03\n      dup2\n      gt\n      iszero\n      tag_220\n      jumpi\n      tag_221\n      tag_143\n      jump\t// in\n    tag_221:\n    tag_220:\n      eq\n        /* \"sesi-1-liskgarden/contracts/20-LiskGarden.sol\":4916:4987  require(plant.stage == GrowthStage.BLOOMING, \"Plant not blooming yet!\") */\n      tag_222\n      jumpi\n      mload(0x40)\n      0x08c379a000000000000000000000000000000000000000000000000000000000\n      dup2\n      mstore\n      0x04\n      add\n      tag_223\n      swap1\n      tag_224\n      jump\t// in\n    tag_223:\n      mload(0x40)\n      dup1\n      swap2\n      sub\n      swap1\n      revert\n    tag_222:\n        /* \"sesi-1-liskgarden/contracts/20-LiskGarden.sol\":5015:5020  false */\n      0x00\n        /* \"sesi-1-liskgarden/contracts/20-LiskGarden.sol\":5000:5005  plant */\n      dup2\n        /* \"sesi-1-liskgarden/contracts/20-LiskGarden.sol\":5000:5012  plant.exists */\n      0x04\n      add\n      0x01\n        /* \"sesi-1-liskgarden/contracts/20-LiskGarden.sol\":5000:5020  plant.exists = false */\n      0x0100\n      exp\n      dup2\n      sload\n      dup2\n      0xff\n      mul\n      not\n      and\n      swap1\n      dup4\n      iszero\n      iszero\n      mul\n      or\n      swap1\n      sstore\n      pop\n        /* \"sesi-1-liskgarden/contracts/20-LiskGarden.sol\":5063:5073  msg.sender */\n      caller\n        /* \"sesi-1-liskgarden/contracts/20-LiskGarden.sol\":5038:5090  PlantHarvested(_plantId, msg.sender, REWARD_HARVEST) */\n      0xffffffffffffffffffffffffffffffffffffffff\n      and\n        /* \"sesi-1-liskgarden/contracts/20-LiskGarden.sol\":5053:5061  _plantId */\n      dup6\n        /* \"sesi-1-liskgarden/contracts/20-LiskGarden.sol\":5038:5090  PlantHarvested(_plantId, msg.sender, REWARD_HARVEST) */\n      0x79f2138ea100070ff95b59c265da7aa3c7a0f61595fe1bb2f5fda2762f398847\n        /* \"sesi-1-liskgarden/contracts/20-LiskGarden.sol\":645:656  0.003 ether */\n      0x0aa87bee538000\n        /* \"sesi-1-liskgarden/contracts/20-LiskGarden.sol\":5038:5090  PlantHarvested(_plantId, msg.sender, REWARD_HARVEST) */\n      mload(0x40)\n      tag_225\n      swap2\n      swap1\n      tag_40\n      jump\t// in\n    tag_225:\n      mload(0x40)\n      dup1\n      swap2\n      sub\n      swap1\n      log3\n        /* \"sesi-1-liskgarden/contracts/20-LiskGarden.sol\":645:656  0.003 ether */\n      0x0aa87bee538000\n        /* \"sesi-1-liskgarden/contracts/20-LiskGarden.sol\":5111:5132  address(this).balance */\n      selfbalance\n        /* \"sesi-1-liskgarden/contracts/20-LiskGarden.sol\":5111:5150  address(this).balance >= REWARD_HARVEST */\n      lt\n      iszero\n        /* \"sesi-1-liskgarden/contracts/20-LiskGarden.sol\":5103:5185  require(address(this).balance >= REWARD_HARVEST, \"Insufficient contract balance!\") */\n      tag_226\n      jumpi\n      mload(0x40)\n      0x08c379a000000000000000000000000000000000000000000000000000000000\n      dup2\n      mstore\n      0x04\n      add\n      tag_227\n      swap1\n      tag_228\n      jump\t// in\n    tag_227:\n      mload(0x40)\n      dup1\n      swap2\n      sub\n      swap1\n      revert\n    tag_226:\n        /* \"sesi-1-liskgarden/contracts/20-LiskGarden.sol\":5197:5209  bool success */\n      0x00\n        /* \"sesi-1-liskgarden/contracts/20-LiskGarden.sol\":5223:5233  msg.sender */\n      caller\n        /* \"sesi-1-liskgarden/contracts/20-LiskGarden.sol\":5215:5239  payable(msg.sender).call */\n      0xffffffffffffffffffffffffffffffffffffffff\n      and\n        /* \"sesi-1-liskgarden/contracts/20-LiskGarden.sol\":645:656  0.003 ether */\n      0x0aa87bee538000\n        /* \"sesi-1-liskgarden/contracts/20-LiskGarden.sol\":5215:5266  payable(msg.sender).call{value: REWARD_HARVEST}(\"\") */\n      mload(0x40)\n      tag_229\n      swap1\n      tag_124\n      jump\t// in\n    tag_229:\n      0x00\n      mload(0x40)\n      dup1\n      dup4\n      sub\n      dup2\n      dup6\n      dup8\n      gas\n      call\n      swap3\n      pop\n      pop\n      pop\n      returndatasize\n      dup1\n      0x00\n      dup2\n      eq\n      tag_232\n      jumpi\n      mload(0x40)\n      swap2\n      pop\n      and(add(returndatasize, 0x3f), not(0x1f))\n      dup3\n      add\n      0x40\n      mstore\n      returndatasize\n      dup3\n      mstore\n      returndatasize\n      0x00\n      0x20\n      dup5\n      add\n      returndatacopy\n      jump(tag_231)\n    tag_232:\n      0x60\n      swap2\n      pop\n    tag_231:\n      pop\n        /* \"sesi-1-liskgarden/contracts/20-LiskGarden.sol\":5196:5266  (bool success, ) = payable(msg.sender).call{value: REWARD_HARVEST}(\"\") */\n      pop\n      swap1\n      pop\n        /* \"sesi-1-liskgarden/contracts/20-LiskGarden.sol\":5285:5292  success */\n      dup1\n        /* \"sesi-1-liskgarden/contracts/20-LiskGarden.sol\":5277:5319  require(success, \"Failed sending reward!\") */\n      tag_233\n      jumpi\n      mload(0x40)\n      0x08c379a000000000000000000000000000000000000000000000000000000000\n      dup2\n      mstore\n      0x04\n      add\n      tag_234\n      swap1\n      tag_235\n      jump\t// in\n    tag_234:\n      mload(0x40)\n      dup1\n      swap2\n      sub\n      swap1\n      revert\n    tag_233:\n        /* \"sesi-1-liskgarden/contracts/20-LiskGarden.sol\":4817:5327  {... */\n      pop\n      pop\n        /* \"sesi-1-liskgarden/contracts/20-LiskGarden.sol\":1746:1747  _ */\n      pop\n        /* \"sesi-1-liskgarden/contracts/20-LiskGarden.sol\":1881:1882  _ */\n      pop\n        /* \"sesi-1-liskgarden/contracts/20-LiskGarden.sol\":4697:5327  function harvestPlant(uint256 _plantId) external isPlantExist(_plantId) isPlantAlive(_plantId) onlyOwnerPlant(_plantId) {... */\n      pop\n      pop\n      jump\t// out\n        /* \"sesi-1-liskgarden/contracts/20-LiskGarden.sol\":5335:5556  function getPlant(uint256 _plantId) external view returns (Plant memory) {... */\n    tag_109:\n        /* \"sesi-1-liskgarden/contracts/20-LiskGarden.sol\":5394:5406  Plant memory */\n      tag_236\n      tag_237\n      jump\t// in\n    tag_236:\n        /* \"sesi-1-liskgarden/contracts/20-LiskGarden.sol\":5419:5437  Plant memory plant */\n      0x00\n        /* \"sesi-1-liskgarden/contracts/20-LiskGarden.sol\":5440:5446  plants */\n      0x00\n        /* \"sesi-1-liskgarden/contracts/20-LiskGarden.sol\":5440:5456  plants[_plantId] */\n      0x00\n        /* \"sesi-1-liskgarden/contracts/20-LiskGarden.sol\":5447:5455  _plantId */\n      dup5\n        /* \"sesi-1-liskgarden/contracts/20-LiskGarden.sol\":5440:5456  plants[_plantId] */\n      dup2\n      mstore\n      0x20\n      add\n      swap1\n      dup2\n      mstore\n      0x20\n      add\n      0x00\n      keccak256\n        /* \"sesi-1-liskgarden/contracts/20-LiskGarden.sol\":5419:5456  Plant memory plant = plants[_plantId] */\n      mload(0x40)\n      dup1\n      0x0100\n      add\n      0x40\n      mstore\n      swap1\n      dup2\n      0x00\n      dup3\n      add\n      sload\n      dup2\n      mstore\n      0x20\n      add\n      0x01\n      dup3\n      add\n      0x00\n      swap1\n      sload\n      swap1\n      0x0100\n      exp\n      swap1\n      div\n      0xffffffffffffffffffffffffffffffffffffffff\n      and\n      0xffffffffffffffffffffffffffffffffffffffff\n      and\n      0xffffffffffffffffffffffffffffffffffffffff\n      and\n      dup2\n      mstore\n      0x20\n      add\n      0x01\n      dup3\n      add\n      0x14\n      swap1\n      sload\n      swap1\n      0x0100\n      exp\n      swap1\n      div\n      0xff\n      and\n      0x03\n      dup2\n      gt\n      iszero\n      tag_239\n      jumpi\n      tag_240\n      tag_143\n      jump\t// in\n    tag_240:\n    tag_239:\n      0x03\n      dup2\n      gt\n      iszero\n      tag_241\n      jumpi\n      tag_242\n      tag_143\n      jump\t// in\n    tag_242:\n    tag_241:\n      dup2\n      mstore\n      0x20\n      add\n      0x02\n      dup3\n      add\n      sload\n      dup2\n      mstore\n      0x20\n      add\n      0x03\n      dup3\n      add\n      sload\n      dup2\n      mstore\n      0x20\n      add\n      0x04\n      dup3\n      add\n      0x00\n      swap1\n      sload\n      swap1\n      0x0100\n      exp\n      swap1\n      div\n      0xff\n      and\n      0xff\n      and\n      0xff\n      and\n      dup2\n      mstore\n      0x20\n      add\n      0x04\n      dup3\n      add\n      0x01\n      swap1\n      sload\n      swap1\n      0x0100\n      exp\n      swap1\n      div\n      0xff\n      and\n      iszero\n      iszero\n      iszero\n      iszero\n      dup2\n      mstore\n      0x20\n      add\n      0x04\n      dup3\n      add\n      0x02\n      swap1\n      sload\n      swap1\n      0x0100\n      exp\n      swap1\n      div\n      0xff\n      and\n      iszero\n      iszero\n      iszero\n      iszero\n      dup2\n      mstore\n      pop\n      pop\n      swap1\n      pop\n        /* \"sesi-1-liskgarden/contracts/20-LiskGarden.sol\":5486:5515  calculateWaterLevel(_plantId) */\n      tag_243\n        /* \"sesi-1-liskgarden/contracts/20-LiskGarden.sol\":5506:5514  _plantId */\n      dup4\n        /* \"sesi-1-liskgarden/contracts/20-LiskGarden.sol\":5486:5505  calculateWaterLevel */\n      tag_54\n        /* \"sesi-1-liskgarden/contracts/20-LiskGarden.sol\":5486:5515  calculateWaterLevel(_plantId) */\n      jump\t// in\n    tag_243:\n        /* \"sesi-1-liskgarden/contracts/20-LiskGarden.sol\":5467:5472  plant */\n      dup2\n        /* \"sesi-1-liskgarden/contracts/20-LiskGarden.sol\":5467:5483  plant.waterLevel */\n      0xa0\n      add\n        /* \"sesi-1-liskgarden/contracts/20-LiskGarden.sol\":5467:5515  plant.waterLevel = calculateWaterLevel(_plantId) */\n      swap1\n      0xff\n      and\n      swap1\n      dup2\n      0xff\n      and\n      dup2\n      mstore\n      pop\n      pop\n        /* \"sesi-1-liskgarden/contracts/20-LiskGarden.sol\":5543:5548  plant */\n      dup1\n        /* \"sesi-1-liskgarden/contracts/20-LiskGarden.sol\":5536:5548  return plant */\n      swap2\n      pop\n      pop\n        /* \"sesi-1-liskgarden/contracts/20-LiskGarden.sol\":5335:5556  function getPlant(uint256 _plantId) external view returns (Plant memory) {... */\n      swap2\n      swap1\n      pop\n      jump\t// out\n        /* \"sesi-1-liskgarden/contracts/20-LiskGarden.sol\":3157:3511  function updateWaterLevel (uint256 _plantId) internal {... */\n    tag_182:\n        /* \"sesi-1-liskgarden/contracts/20-LiskGarden.sol\":3222:3241  Plant storage plant */\n      0x00\n        /* \"sesi-1-liskgarden/contracts/20-LiskGarden.sol\":3244:3250  plants */\n      0x00\n        /* \"sesi-1-liskgarden/contracts/20-LiskGarden.sol\":3244:3260  plants[_plantId] */\n      0x00\n        /* \"sesi-1-liskgarden/contracts/20-LiskGarden.sol\":3251:3259  _plantId */\n      dup4\n        /* \"sesi-1-liskgarden/contracts/20-LiskGarden.sol\":3244:3260  plants[_plantId] */\n      dup2\n      mstore\n      0x20\n      add\n      swap1\n      dup2\n      mstore\n      0x20\n      add\n      0x00\n      keccak256\n        /* \"sesi-1-liskgarden/contracts/20-LiskGarden.sol\":3222:3260  Plant storage plant = plants[_plantId] */\n      swap1\n      pop\n        /* \"sesi-1-liskgarden/contracts/20-LiskGarden.sol\":3273:3291  uint8 currentWater */\n      0x00\n        /* \"sesi-1-liskgarden/contracts/20-LiskGarden.sol\":3294:3323  calculateWaterLevel(_plantId) */\n      tag_245\n        /* \"sesi-1-liskgarden/contracts/20-LiskGarden.sol\":3314:3322  _plantId */\n      dup4\n        /* \"sesi-1-liskgarden/contracts/20-LiskGarden.sol\":3294:3313  calculateWaterLevel */\n      tag_54\n        /* \"sesi-1-liskgarden/contracts/20-LiskGarden.sol\":3294:3323  calculateWaterLevel(_plantId) */\n      jump\t// in\n    tag_245:\n        /* \"sesi-1-liskgarden/contracts/20-LiskGarden.sol\":3273:3323  uint8 currentWater = calculateWaterLevel(_plantId) */\n      swap1\n      pop\n        /* \"sesi-1-liskgarden/contracts/20-LiskGarden.sol\":3355:3367  currentWater */\n      dup1\n        /* \"sesi-1-liskgarden/contracts/20-LiskGarden.sol\":3336:3341  plant */\n      dup3\n        /* \"sesi-1-liskgarden/contracts/20-LiskGarden.sol\":3336:3352  plant.waterLevel */\n      0x04\n      add\n      0x00\n        /* \"sesi-1-liskgarden/contracts/20-LiskGarden.sol\":3336:3367  plant.waterLevel = currentWater */\n      0x0100\n      exp\n      dup2\n      sload\n      dup2\n      0xff\n      mul\n      not\n      and\n      swap1\n      dup4\n      0xff\n      and\n      mul\n      or\n      swap1\n      sstore\n      pop\n        /* \"sesi-1-liskgarden/contracts/20-LiskGarden.sol\":3399:3400  0 */\n      0x00\n        /* \"sesi-1-liskgarden/contracts/20-LiskGarden.sol\":3383:3395  currentWater */\n      dup2\n        /* \"sesi-1-liskgarden/contracts/20-LiskGarden.sol\":3383:3400  currentWater == 0 */\n      0xff\n      and\n      eq\n        /* \"sesi-1-liskgarden/contracts/20-LiskGarden.sol\":3383:3417  currentWater == 0 && !plant.isDead */\n      dup1\n      iszero\n      tag_246\n      jumpi\n      pop\n        /* \"sesi-1-liskgarden/contracts/20-LiskGarden.sol\":3405:3410  plant */\n      dup2\n        /* \"sesi-1-liskgarden/contracts/20-LiskGarden.sol\":3405:3417  plant.isDead */\n      0x04\n      add\n      0x02\n      swap1\n      sload\n      swap1\n      0x0100\n      exp\n      swap1\n      div\n      0xff\n      and\n        /* \"sesi-1-liskgarden/contracts/20-LiskGarden.sol\":3404:3417  !plant.isDead */\n      iszero\n        /* \"sesi-1-liskgarden/contracts/20-LiskGarden.sol\":3383:3417  currentWater == 0 && !plant.isDead */\n    tag_246:\n        /* \"sesi-1-liskgarden/contracts/20-LiskGarden.sol\":3380:3504  if(currentWater == 0 && !plant.isDead) {... */\n      iszero\n      tag_247\n      jumpi\n        /* \"sesi-1-liskgarden/contracts/20-LiskGarden.sol\":3449:3453  true */\n      0x01\n        /* \"sesi-1-liskgarden/contracts/20-LiskGarden.sol\":3434:3439  plant */\n      dup3\n        /* \"sesi-1-liskgarden/contracts/20-LiskGarden.sol\":3434:3446  plant.isDead */\n      0x04\n      add\n      0x02\n        /* \"sesi-1-liskgarden/contracts/20-LiskGarden.sol\":3434:3453  plant.isDead = true */\n      0x0100\n      exp\n      dup2\n      sload\n      dup2\n      0xff\n      mul\n      not\n      and\n      swap1\n      dup4\n      iszero\n      iszero\n      mul\n      or\n      swap1\n      sstore\n      pop\n        /* \"sesi-1-liskgarden/contracts/20-LiskGarden.sol\":3483:3491  _plantId */\n      dup3\n        /* \"sesi-1-liskgarden/contracts/20-LiskGarden.sol\":3473:3492  PlantDied(_plantId) */\n      0xcc296a21951f3e57f21afb08547d835a0a9f0f06cc2867009cbe0cae44d36be9\n      mload(0x40)\n      mload(0x40)\n      dup1\n      swap2\n      sub\n      swap1\n      log2\n        /* \"sesi-1-liskgarden/contracts/20-LiskGarden.sol\":3380:3504  if(currentWater == 0 && !plant.isDead) {... */\n    tag_247:\n        /* \"sesi-1-liskgarden/contracts/20-LiskGarden.sol\":3211:3511  {... */\n      pop\n      pop\n        /* \"sesi-1-liskgarden/contracts/20-LiskGarden.sol\":3157:3511  function updateWaterLevel (uint256 _plantId) internal {... */\n      pop\n      jump\t// out\n    tag_237:\n      mload(0x40)\n      dup1\n      0x0100\n      add\n      0x40\n      mstore\n      dup1\n      0x00\n      dup2\n      mstore\n      0x20\n      add\n      and(0xffffffffffffffffffffffffffffffffffffffff, 0x00)\n      dup2\n      mstore\n      0x20\n      add\n      0x00\n      0x03\n      dup2\n      gt\n      iszero\n      tag_248\n      jumpi\n      tag_249\n      tag_143\n      jump\t// in\n    tag_249:\n    tag_248:\n      dup2\n      mstore\n      0x20\n      add\n      0x00\n      dup2\n      mstore\n      0x20\n      add\n      0x00\n      dup2\n      mstore\n      0x20\n      add\n      and(0xff, 0x00)\n      dup2\n      mstore\n      0x20\n      add\n      iszero(iszero(0x00))\n      dup2\n      mstore\n      0x20\n      add\n      iszero(iszero(0x00))\n      dup2\n      mstore\n      pop\n      swap1\n      jump\t// out\n        /* \"#utility.yul\":88:205   */\n    tag_251:\n        /* \"#utility.yul\":197:198   */\n      0x00\n        /* \"#utility.yul\":194:195   */\n      0x00\n        /* \"#utility.yul\":187:199   */\n      revert\n        /* \"#utility.yul\":334:460   */\n    tag_253:\n        /* \"#utility.yul\":371:378   */\n      0x00\n        /* \"#utility.yul\":411:453   */\n      0xffffffffffffffffffffffffffffffffffffffff\n        /* \"#utility.yul\":404:409   */\n      dup3\n        /* \"#utility.yul\":400:454   */\n      and\n        /* \"#utility.yul\":389:454   */\n      swap1\n      pop\n        /* \"#utility.yul\":334:460   */\n      swap2\n      swap1\n      pop\n      jump\t// out\n        /* \"#utility.yul\":466:562   */\n    tag_254:\n        /* \"#utility.yul\":503:510   */\n      0x00\n        /* \"#utility.yul\":532:556   */\n      tag_318\n        /* \"#utility.yul\":550:555   */\n      dup3\n        /* \"#utility.yul\":532:556   */\n      tag_253\n      jump\t// in\n    tag_318:\n        /* \"#utility.yul\":521:556   */\n      swap1\n      pop\n        /* \"#utility.yul\":466:562   */\n      swap2\n      swap1\n      pop\n      jump\t// out\n        /* \"#utility.yul\":568:690   */\n    tag_255:\n        /* \"#utility.yul\":641:665   */\n      tag_320\n        /* \"#utility.yul\":659:664   */\n      dup2\n        /* \"#utility.yul\":641:665   */\n      tag_254\n      jump\t// in\n    tag_320:\n        /* \"#utility.yul\":634:639   */\n      dup2\n        /* \"#utility.yul\":631:666   */\n      eq\n        /* \"#utility.yul\":621:684   */\n      tag_321\n      jumpi\n        /* \"#utility.yul\":680:681   */\n      0x00\n        /* \"#utility.yul\":677:678   */\n      0x00\n        /* \"#utility.yul\":670:682   */\n      revert\n        /* \"#utility.yul\":621:684   */\n    tag_321:\n        /* \"#utility.yul\":568:690   */\n      pop\n      jump\t// out\n        /* \"#utility.yul\":696:835   */\n    tag_256:\n        /* \"#utility.yul\":742:747   */\n      0x00\n        /* \"#utility.yul\":780:786   */\n      dup2\n        /* \"#utility.yul\":767:787   */\n      calldataload\n        /* \"#utility.yul\":758:787   */\n      swap1\n      pop\n        /* \"#utility.yul\":796:829   */\n      tag_323\n        /* \"#utility.yul\":823:828   */\n      dup2\n        /* \"#utility.yul\":796:829   */\n      tag_255\n      jump\t// in\n    tag_323:\n        /* \"#utility.yul\":696:835   */\n      swap3\n      swap2\n      pop\n      pop\n      jump\t// out\n        /* \"#utility.yul\":841:1170   */\n    tag_29:\n        /* \"#utility.yul\":900:906   */\n      0x00\n        /* \"#utility.yul\":949:951   */\n      0x20\n        /* \"#utility.yul\":937:946   */\n      dup3\n        /* \"#utility.yul\":928:935   */\n      dup5\n        /* \"#utility.yul\":924:947   */\n      sub\n        /* \"#utility.yul\":920:952   */\n      slt\n        /* \"#utility.yul\":917:1036   */\n      iszero\n      tag_325\n      jumpi\n        /* \"#utility.yul\":955:1034   */\n      tag_326\n      tag_251\n      jump\t// in\n    tag_326:\n        /* \"#utility.yul\":917:1036   */\n    tag_325:\n        /* \"#utility.yul\":1075:1076   */\n      0x00\n        /* \"#utility.yul\":1100:1153   */\n      tag_327\n        /* \"#utility.yul\":1145:1152   */\n      dup5\n        /* \"#utility.yul\":1136:1142   */\n      dup3\n        /* \"#utility.yul\":1125:1134   */\n      dup6\n        /* \"#utility.yul\":1121:1143   */\n      add\n        /* \"#utility.yul\":1100:1153   */\n      tag_256\n      jump\t// in\n    tag_327:\n        /* \"#utility.yul\":1090:1153   */\n      swap2\n      pop\n        /* \"#utility.yul\":1046:1163   */\n      pop\n        /* \"#utility.yul\":841:1170   */\n      swap3\n      swap2\n      pop\n      pop\n      jump\t// out\n        /* \"#utility.yul\":1176:1290   */\n    tag_257:\n        /* \"#utility.yul\":1243:1249   */\n      0x00\n        /* \"#utility.yul\":1277:1282   */\n      dup2\n        /* \"#utility.yul\":1271:1283   */\n      mload\n        /* \"#utility.yul\":1261:1283   */\n      swap1\n      pop\n        /* \"#utility.yul\":1176:1290   */\n      swap2\n      swap1\n      pop\n      jump\t// out\n        /* \"#utility.yul\":1296:1480   */\n    tag_258:\n        /* \"#utility.yul\":1395:1406   */\n      0x00\n        /* \"#utility.yul\":1429:1435   */\n      dup3\n        /* \"#utility.yul\":1424:1427   */\n      dup3\n        /* \"#utility.yul\":1417:1436   */\n      mstore\n        /* \"#utility.yul\":1469:1473   */\n      0x20\n        /* \"#utility.yul\":1464:1467   */\n      dup3\n        /* \"#utility.yul\":1460:1474   */\n      add\n        /* \"#utility.yul\":1445:1474   */\n      swap1\n      pop\n        /* \"#utility.yul\":1296:1480   */\n      swap3\n      swap2\n      pop\n      pop\n      jump\t// out\n        /* \"#utility.yul\":1486:1618   */\n    tag_259:\n        /* \"#utility.yul\":1553:1557   */\n      0x00\n        /* \"#utility.yul\":1576:1579   */\n      dup2\n        /* \"#utility.yul\":1568:1579   */\n      swap1\n      pop\n        /* \"#utility.yul\":1606:1610   */\n      0x20\n        /* \"#utility.yul\":1601:1604   */\n      dup3\n        /* \"#utility.yul\":1597:1611   */\n      add\n        /* \"#utility.yul\":1589:1611   */\n      swap1\n      pop\n        /* \"#utility.yul\":1486:1618   */\n      swap2\n      swap1\n      pop\n      jump\t// out\n        /* \"#utility.yul\":1624:1701   */\n    tag_260:\n        /* \"#utility.yul\":1661:1668   */\n      0x00\n        /* \"#utility.yul\":1690:1695   */\n      dup2\n        /* \"#utility.yul\":1679:1695   */\n      swap1\n      pop\n        /* \"#utility.yul\":1624:1701   */\n      swap2\n      swap1\n      pop\n      jump\t// out\n        /* \"#utility.yul\":1707:1815   */\n    tag_261:\n        /* \"#utility.yul\":1784:1808   */\n      tag_333\n        /* \"#utility.yul\":1802:1807   */\n      dup2\n        /* \"#utility.yul\":1784:1808   */\n      tag_260\n      jump\t// in\n    tag_333:\n        /* \"#utility.yul\":1779:1782   */\n      dup3\n        /* \"#utility.yul\":1772:1809   */\n      mstore\n        /* \"#utility.yul\":1707:1815   */\n      pop\n      pop\n      jump\t// out\n        /* \"#utility.yul\":1821:2000   */\n    tag_262:\n        /* \"#utility.yul\":1890:1900   */\n      0x00\n        /* \"#utility.yul\":1911:1957   */\n      tag_335\n        /* \"#utility.yul\":1953:1956   */\n      dup4\n        /* \"#utility.yul\":1945:1951   */\n      dup4\n        /* \"#utility.yul\":1911:1957   */\n      tag_261\n      jump\t// in\n    tag_335:\n        /* \"#utility.yul\":1989:1993   */\n      0x20\n        /* \"#utility.yul\":1984:1987   */\n      dup4\n        /* \"#utility.yul\":1980:1994   */\n      add\n        /* \"#utility.yul\":1966:1994   */\n      swap1\n      pop\n        /* \"#utility.yul\":1821:2000   */\n      swap3\n      swap2\n      pop\n      pop\n      jump\t// out\n        /* \"#utility.yul\":2006:2119   */\n    tag_263:\n        /* \"#utility.yul\":2076:2080   */\n      0x00\n        /* \"#utility.yul\":2108:2112   */\n      0x20\n        /* \"#utility.yul\":2103:2106   */\n      dup3\n        /* \"#utility.yul\":2099:2113   */\n      add\n        /* \"#utility.yul\":2091:2113   */\n      swap1\n      pop\n        /* \"#utility.yul\":2006:2119   */\n      swap2\n      swap1\n      pop\n      jump\t// out\n        /* \"#utility.yul\":2155:2887   */\n    tag_264:\n        /* \"#utility.yul\":2274:2277   */\n      0x00\n        /* \"#utility.yul\":2303:2357   */\n      tag_338\n        /* \"#utility.yul\":2351:2356   */\n      dup3\n        /* \"#utility.yul\":2303:2357   */\n      tag_257\n      jump\t// in\n    tag_338:\n        /* \"#utility.yul\":2373:2459   */\n      tag_339\n        /* \"#utility.yul\":2452:2458   */\n      dup2\n        /* \"#utility.yul\":2447:2450   */\n      dup6\n        /* \"#utility.yul\":2373:2459   */\n      tag_258\n      jump\t// in\n    tag_339:\n        /* \"#utility.yul\":2366:2459   */\n      swap4\n      pop\n        /* \"#utility.yul\":2483:2539   */\n      tag_340\n        /* \"#utility.yul\":2533:2538   */\n      dup4\n        /* \"#utility.yul\":2483:2539   */\n      tag_259\n      jump\t// in\n    tag_340:\n        /* \"#utility.yul\":2562:2569   */\n      dup1\n        /* \"#utility.yul\":2593:2594   */\n      0x00\n        /* \"#utility.yul\":2578:2862   */\n    tag_341:\n        /* \"#utility.yul\":2603:2609   */\n      dup4\n        /* \"#utility.yul\":2600:2601   */\n      dup2\n        /* \"#utility.yul\":2597:2610   */\n      lt\n        /* \"#utility.yul\":2578:2862   */\n      iszero\n      tag_343\n      jumpi\n        /* \"#utility.yul\":2679:2685   */\n      dup2\n        /* \"#utility.yul\":2673:2686   */\n      mload\n        /* \"#utility.yul\":2706:2769   */\n      tag_344\n        /* \"#utility.yul\":2765:2768   */\n      dup9\n        /* \"#utility.yul\":2750:2763   */\n      dup3\n        /* \"#utility.yul\":2706:2769   */\n      tag_262\n      jump\t// in\n    tag_344:\n        /* \"#utility.yul\":2699:2769   */\n      swap8\n      pop\n        /* \"#utility.yul\":2792:2852   */\n      tag_345\n        /* \"#utility.yul\":2845:2851   */\n      dup4\n        /* \"#utility.yul\":2792:2852   */\n      tag_263\n      jump\t// in\n    tag_345:\n        /* \"#utility.yul\":2782:2852   */\n      swap3\n      pop\n        /* \"#utility.yul\":2638:2862   */\n      pop\n        /* \"#utility.yul\":2625:2626   */\n      0x01\n        /* \"#utility.yul\":2622:2623   */\n      dup2\n        /* \"#utility.yul\":2618:2627   */\n      add\n        /* \"#utility.yul\":2613:2627   */\n      swap1\n      pop\n        /* \"#utility.yul\":2578:2862   */\n      jump(tag_341)\n    tag_343:\n        /* \"#utility.yul\":2582:2596   */\n      pop\n        /* \"#utility.yul\":2878:2881   */\n      dup6\n        /* \"#utility.yul\":2871:2881   */\n      swap4\n      pop\n        /* \"#utility.yul\":2279:2887   */\n      pop\n      pop\n      pop\n        /* \"#utility.yul\":2155:2887   */\n      swap3\n      swap2\n      pop\n      pop\n      jump\t// out\n        /* \"#utility.yul\":2893:3266   */\n    tag_32:\n        /* \"#utility.yul\":3036:3040   */\n      0x00\n        /* \"#utility.yul\":3074:3076   */\n      0x20\n        /* \"#utility.yul\":3063:3072   */\n      dup3\n        /* \"#utility.yul\":3059:3077   */\n      add\n        /* \"#utility.yul\":3051:3077   */\n      swap1\n      pop\n        /* \"#utility.yul\":3123:3132   */\n      dup2\n        /* \"#utility.yul\":3117:3121   */\n      dup2\n        /* \"#utility.yul\":3113:3133   */\n      sub\n        /* \"#utility.yul\":3109:3110   */\n      0x00\n        /* \"#utility.yul\":3098:3107   */\n      dup4\n        /* \"#utility.yul\":3094:3111   */\n      add\n        /* \"#utility.yul\":3087:3134   */\n      mstore\n        /* \"#utility.yul\":3151:3259   */\n      tag_347\n        /* \"#utility.yul\":3254:3258   */\n      dup2\n        /* \"#utility.yul\":3245:3251   */\n      dup5\n        /* \"#utility.yul\":3151:3259   */\n      tag_264\n      jump\t// in\n    tag_347:\n        /* \"#utility.yul\":3143:3259   */\n      swap1\n      pop\n        /* \"#utility.yul\":2893:3266   */\n      swap3\n      swap2\n      pop\n      pop\n      jump\t// out\n        /* \"#utility.yul\":3272:3390   */\n    tag_265:\n        /* \"#utility.yul\":3359:3383   */\n      tag_349\n        /* \"#utility.yul\":3377:3382   */\n      dup2\n        /* \"#utility.yul\":3359:3383   */\n      tag_260\n      jump\t// in\n    tag_349:\n        /* \"#utility.yul\":3354:3357   */\n      dup3\n        /* \"#utility.yul\":3347:3384   */\n      mstore\n        /* \"#utility.yul\":3272:3390   */\n      pop\n      pop\n      jump\t// out\n        /* \"#utility.yul\":3396:3618   */\n    tag_40:\n        /* \"#utility.yul\":3489:3493   */\n      0x00\n        /* \"#utility.yul\":3527:3529   */\n      0x20\n        /* \"#utility.yul\":3516:3525   */\n      dup3\n        /* \"#utility.yul\":3512:3530   */\n      add\n        /* \"#utility.yul\":3504:3530   */\n      swap1\n      pop\n        /* \"#utility.yul\":3540:3611   */\n      tag_351\n        /* \"#utility.yul\":3608:3609   */\n      0x00\n        /* \"#utility.yul\":3597:3606   */\n      dup4\n        /* \"#utility.yul\":3593:3610   */\n      add\n        /* \"#utility.yul\":3584:3590   */\n      dup5\n        /* \"#utility.yul\":3540:3611   */\n      tag_265\n      jump\t// in\n    tag_351:\n        /* \"#utility.yul\":3396:3618   */\n      swap3\n      swap2\n      pop\n      pop\n      jump\t// out\n        /* \"#utility.yul\":3624:3746   */\n    tag_266:\n        /* \"#utility.yul\":3697:3721   */\n      tag_353\n        /* \"#utility.yul\":3715:3720   */\n      dup2\n        /* \"#utility.yul\":3697:3721   */\n      tag_260\n      jump\t// in\n    tag_353:\n        /* \"#utility.yul\":3690:3695   */\n      dup2\n        /* \"#utility.yul\":3687:3722   */\n      eq\n        /* \"#utility.yul\":3677:3740   */\n      tag_354\n      jumpi\n        /* \"#utility.yul\":3736:3737   */\n      0x00\n        /* \"#utility.yul\":3733:3734   */\n      0x00\n        /* \"#utility.yul\":3726:3738   */\n      revert\n        /* \"#utility.yul\":3677:3740   */\n    tag_354:\n        /* \"#utility.yul\":3624:3746   */\n      pop\n      jump\t// out\n        /* \"#utility.yul\":3752:3891   */\n    tag_267:\n        /* \"#utility.yul\":3798:3803   */\n      0x00\n        /* \"#utility.yul\":3836:3842   */\n      dup2\n        /* \"#utility.yul\":3823:3843   */\n      calldataload\n        /* \"#utility.yul\":3814:3843   */\n      swap1\n      pop\n        /* \"#utility.yul\":3852:3885   */\n      tag_356\n        /* \"#utility.yul\":3879:3884   */\n      dup2\n        /* \"#utility.yul\":3852:3885   */\n      tag_266\n      jump\t// in\n    tag_356:\n        /* \"#utility.yul\":3752:3891   */\n      swap3\n      swap2\n      pop\n      pop\n      jump\t// out\n        /* \"#utility.yul\":3897:4226   */\n    tag_44:\n        /* \"#utility.yul\":3956:3962   */\n      0x00\n        /* \"#utility.yul\":4005:4007   */\n      0x20\n        /* \"#utility.yul\":3993:4002   */\n      dup3\n        /* \"#utility.yul\":3984:3991   */\n      dup5\n        /* \"#utility.yul\":3980:4003   */\n      sub\n        /* \"#utility.yul\":3976:4008   */\n      slt\n        /* \"#utility.yul\":3973:4092   */\n      iszero\n      tag_358\n      jumpi\n        /* \"#utility.yul\":4011:4090   */\n      tag_359\n      tag_251\n      jump\t// in\n    tag_359:\n        /* \"#utility.yul\":3973:4092   */\n    tag_358:\n        /* \"#utility.yul\":4131:4132   */\n      0x00\n        /* \"#utility.yul\":4156:4209   */\n      tag_360\n        /* \"#utility.yul\":4201:4208   */\n      dup5\n        /* \"#utility.yul\":4192:4198   */\n      dup3\n        /* \"#utility.yul\":4181:4190   */\n      dup6\n        /* \"#utility.yul\":4177:4199   */\n      add\n        /* \"#utility.yul\":4156:4209   */\n      tag_267\n      jump\t// in\n    tag_360:\n        /* \"#utility.yul\":4146:4209   */\n      swap2\n      pop\n        /* \"#utility.yul\":4102:4219   */\n      pop\n        /* \"#utility.yul\":3897:4226   */\n      swap3\n      swap2\n      pop\n      pop\n      jump\t// out\n        /* \"#utility.yul\":4232:4412   */\n    tag_143:\n        /* \"#utility.yul\":4280:4357   */\n      0x4e487b7100000000000000000000000000000000000000000000000000000000\n        /* \"#utility.yul\":4277:4278   */\n      0x00\n        /* \"#utility.yul\":4270:4358   */\n      mstore\n        /* \"#utility.yul\":4377:4381   */\n      0x21\n        /* \"#utility.yul\":4374:4375   */\n      0x04\n        /* \"#utility.yul\":4367:4382   */\n      mstore\n        /* \"#utility.yul\":4401:4405   */\n      0x24\n        /* \"#utility.yul\":4398:4399   */\n      0x00\n        /* \"#utility.yul\":4391:4406   */\n      revert\n        /* \"#utility.yul\":4418:4536   */\n    tag_268:\n        /* \"#utility.yul\":4504:4505   */\n      0x04\n        /* \"#utility.yul\":4497:4502   */\n      dup2\n        /* \"#utility.yul\":4494:4506   */\n      lt\n        /* \"#utility.yul\":4484:4530   */\n      tag_363\n      jumpi\n        /* \"#utility.yul\":4510:4528   */\n      tag_364\n      tag_143\n      jump\t// in\n    tag_364:\n        /* \"#utility.yul\":4484:4530   */\n    tag_363:\n        /* \"#utility.yul\":4418:4536   */\n      pop\n      jump\t// out\n        /* \"#utility.yul\":4542:4679   */\n    tag_269:\n        /* \"#utility.yul\":4592:4599   */\n      0x00\n        /* \"#utility.yul\":4621:4626   */\n      dup2\n        /* \"#utility.yul\":4610:4626   */\n      swap1\n      pop\n        /* \"#utility.yul\":4627:4673   */\n      tag_366\n        /* \"#utility.yul\":4667:4672   */\n      dup3\n        /* \"#utility.yul\":4627:4673   */\n      tag_268\n      jump\t// in\n    tag_366:\n        /* \"#utility.yul\":4542:4679   */\n      swap2\n      swap1\n      pop\n      jump\t// out\n        /* \"#utility.yul\":4685:4822   */\n    tag_270:\n        /* \"#utility.yul\":4746:4755   */\n      0x00\n        /* \"#utility.yul\":4779:4816   */\n      tag_368\n        /* \"#utility.yul\":4810:4815   */\n      dup3\n        /* \"#utility.yul\":4779:4816   */\n      tag_269\n      jump\t// in\n    tag_368:\n        /* \"#utility.yul\":4766:4816   */\n      swap1\n      pop\n        /* \"#utility.yul\":4685:4822   */\n      swap2\n      swap1\n      pop\n      jump\t// out\n        /* \"#utility.yul\":4828:4981   */\n    tag_271:\n        /* \"#utility.yul\":4926:4974   */\n      tag_370\n        /* \"#utility.yul\":4968:4973   */\n      dup2\n        /* \"#utility.yul\":4926:4974   */\n      tag_270\n      jump\t// in\n    tag_370:\n        /* \"#utility.yul\":4921:4924   */\n      dup3\n        /* \"#utility.yul\":4914:4975   */\n      mstore\n        /* \"#utility.yul\":4828:4981   */\n      pop\n      pop\n      jump\t// out\n        /* \"#utility.yul\":4987:5231   */\n    tag_47:\n        /* \"#utility.yul\":5091:5095   */\n      0x00\n        /* \"#utility.yul\":5129:5131   */\n      0x20\n        /* \"#utility.yul\":5118:5127   */\n      dup3\n        /* \"#utility.yul\":5114:5132   */\n      add\n        /* \"#utility.yul\":5106:5132   */\n      swap1\n      pop\n        /* \"#utility.yul\":5142:5224   */\n      tag_372\n        /* \"#utility.yul\":5221:5222   */\n      0x00\n        /* \"#utility.yul\":5210:5219   */\n      dup4\n        /* \"#utility.yul\":5206:5223   */\n      add\n        /* \"#utility.yul\":5197:5203   */\n      dup5\n        /* \"#utility.yul\":5142:5224   */\n      tag_271\n      jump\t// in\n    tag_372:\n        /* \"#utility.yul\":4987:5231   */\n      swap3\n      swap2\n      pop\n      pop\n      jump\t// out\n        /* \"#utility.yul\":5237:5323   */\n    tag_272:\n        /* \"#utility.yul\":5272:5279   */\n      0x00\n        /* \"#utility.yul\":5312:5316   */\n      0xff\n        /* \"#utility.yul\":5305:5310   */\n      dup3\n        /* \"#utility.yul\":5301:5317   */\n      and\n        /* \"#utility.yul\":5290:5317   */\n      swap1\n      pop\n        /* \"#utility.yul\":5237:5323   */\n      swap2\n      swap1\n      pop\n      jump\t// out\n        /* \"#utility.yul\":5329:5441   */\n    tag_273:\n        /* \"#utility.yul\":5412:5434   */\n      tag_375\n        /* \"#utility.yul\":5428:5433   */\n      dup2\n        /* \"#utility.yul\":5412:5434   */\n      tag_272\n      jump\t// in\n    tag_375:\n        /* \"#utility.yul\":5407:5410   */\n      dup3\n        /* \"#utility.yul\":5400:5435   */\n      mstore\n        /* \"#utility.yul\":5329:5441   */\n      pop\n      pop\n      jump\t// out\n        /* \"#utility.yul\":5447:5661   */\n    tag_56:\n        /* \"#utility.yul\":5536:5540   */\n      0x00\n        /* \"#utility.yul\":5574:5576   */\n      0x20\n        /* \"#utility.yul\":5563:5572   */\n      dup3\n        /* \"#utility.yul\":5559:5577   */\n      add\n        /* \"#utility.yul\":5551:5577   */\n      swap1\n      pop\n        /* \"#utility.yul\":5587:5654   */\n      tag_377\n        /* \"#utility.yul\":5651:5652   */\n      0x00\n        /* \"#utility.yul\":5640:5649   */\n      dup4\n        /* \"#utility.yul\":5636:5653   */\n      add\n        /* \"#utility.yul\":5627:5633   */\n      dup5\n        /* \"#utility.yul\":5587:5654   */\n      tag_273\n      jump\t// in\n    tag_377:\n        /* \"#utility.yul\":5447:5661   */\n      swap3\n      swap2\n      pop\n      pop\n      jump\t// out\n        /* \"#utility.yul\":5667:6141   */\n    tag_64:\n        /* \"#utility.yul\":5735:5741   */\n      0x00\n        /* \"#utility.yul\":5743:5749   */\n      0x00\n        /* \"#utility.yul\":5792:5794   */\n      0x40\n        /* \"#utility.yul\":5780:5789   */\n      dup4\n        /* \"#utility.yul\":5771:5778   */\n      dup6\n        /* \"#utility.yul\":5767:5790   */\n      sub\n        /* \"#utility.yul\":5763:5795   */\n      slt\n        /* \"#utility.yul\":5760:5879   */\n      iszero\n      tag_379\n      jumpi\n        /* \"#utility.yul\":5798:5877   */\n      tag_380\n      tag_251\n      jump\t// in\n    tag_380:\n        /* \"#utility.yul\":5760:5879   */\n    tag_379:\n        /* \"#utility.yul\":5918:5919   */\n      0x00\n        /* \"#utility.yul\":5943:5996   */\n      tag_381\n        /* \"#utility.yul\":5988:5995   */\n      dup6\n        /* \"#utility.yul\":5979:5985   */\n      dup3\n        /* \"#utility.yul\":5968:5977   */\n      dup7\n        /* \"#utility.yul\":5964:5986   */\n      add\n        /* \"#utility.yul\":5943:5996   */\n      tag_256\n      jump\t// in\n    tag_381:\n        /* \"#utility.yul\":5933:5996   */\n      swap3\n      pop\n        /* \"#utility.yul\":5889:6006   */\n      pop\n        /* \"#utility.yul\":6045:6047   */\n      0x20\n        /* \"#utility.yul\":6071:6124   */\n      tag_382\n        /* \"#utility.yul\":6116:6123   */\n      dup6\n        /* \"#utility.yul\":6107:6113   */\n      dup3\n        /* \"#utility.yul\":6096:6105   */\n      dup7\n        /* \"#utility.yul\":6092:6114   */\n      add\n        /* \"#utility.yul\":6071:6124   */\n      tag_267\n      jump\t// in\n    tag_382:\n        /* \"#utility.yul\":6061:6124   */\n      swap2\n      pop\n        /* \"#utility.yul\":6016:6134   */\n      pop\n        /* \"#utility.yul\":5667:6141   */\n      swap3\n      pop\n      swap3\n      swap1\n      pop\n      jump\t// out\n        /* \"#utility.yul\":6147:6265   */\n    tag_274:\n        /* \"#utility.yul\":6234:6258   */\n      tag_384\n        /* \"#utility.yul\":6252:6257   */\n      dup2\n        /* \"#utility.yul\":6234:6258   */\n      tag_254\n      jump\t// in\n    tag_384:\n        /* \"#utility.yul\":6229:6232   */\n      dup3\n        /* \"#utility.yul\":6222:6259   */\n      mstore\n        /* \"#utility.yul\":6147:6265   */\n      pop\n      pop\n      jump\t// out\n        /* \"#utility.yul\":6271:6493   */\n    tag_71:\n        /* \"#utility.yul\":6364:6368   */\n      0x00\n        /* \"#utility.yul\":6402:6404   */\n      0x20\n        /* \"#utility.yul\":6391:6400   */\n      dup3\n        /* \"#utility.yul\":6387:6405   */\n      add\n        /* \"#utility.yul\":6379:6405   */\n      swap1\n      pop\n        /* \"#utility.yul\":6415:6486   */\n      tag_386\n        /* \"#utility.yul\":6483:6484   */\n      0x00\n        /* \"#utility.yul\":6472:6481   */\n      dup4\n        /* \"#utility.yul\":6468:6485   */\n      add\n        /* \"#utility.yul\":6459:6465   */\n      dup5\n        /* \"#utility.yul\":6415:6486   */\n      tag_274\n      jump\t// in\n    tag_386:\n        /* \"#utility.yul\":6271:6493   */\n      swap3\n      swap2\n      pop\n      pop\n      jump\t// out\n        /* \"#utility.yul\":6499:6589   */\n    tag_275:\n        /* \"#utility.yul\":6533:6540   */\n      0x00\n        /* \"#utility.yul\":6576:6581   */\n      dup2\n        /* \"#utility.yul\":6569:6582   */\n      iszero\n        /* \"#utility.yul\":6562:6583   */\n      iszero\n        /* \"#utility.yul\":6551:6583   */\n      swap1\n      pop\n        /* \"#utility.yul\":6499:6589   */\n      swap2\n      swap1\n      pop\n      jump\t// out\n        /* \"#utility.yul\":6595:6704   */\n    tag_276:\n        /* \"#utility.yul\":6676:6697   */\n      tag_389\n        /* \"#utility.yul\":6691:6696   */\n      dup2\n        /* \"#utility.yul\":6676:6697   */\n      tag_275\n      jump\t// in\n    tag_389:\n        /* \"#utility.yul\":6671:6674   */\n      dup3\n        /* \"#utility.yul\":6664:6698   */\n      mstore\n        /* \"#utility.yul\":6595:6704   */\n      pop\n      pop\n      jump\t// out\n        /* \"#utility.yul\":6710:7697   */\n    tag_77:\n        /* \"#utility.yul\":6994:6998   */\n      0x00\n        /* \"#utility.yul\":7032:7035   */\n      0x0100\n        /* \"#utility.yul\":7021:7030   */\n      dup3\n        /* \"#utility.yul\":7017:7036   */\n      add\n        /* \"#utility.yul\":7009:7036   */\n      swap1\n      pop\n        /* \"#utility.yul\":7046:7117   */\n      tag_391\n        /* \"#utility.yul\":7114:7115   */\n      0x00\n        /* \"#utility.yul\":7103:7112   */\n      dup4\n        /* \"#utility.yul\":7099:7116   */\n      add\n        /* \"#utility.yul\":7090:7096   */\n      dup12\n        /* \"#utility.yul\":7046:7117   */\n      tag_265\n      jump\t// in\n    tag_391:\n        /* \"#utility.yul\":7127:7199   */\n      tag_392\n        /* \"#utility.yul\":7195:7197   */\n      0x20\n        /* \"#utility.yul\":7184:7193   */\n      dup4\n        /* \"#utility.yul\":7180:7198   */\n      add\n        /* \"#utility.yul\":7171:7177   */\n      dup11\n        /* \"#utility.yul\":7127:7199   */\n      tag_274\n      jump\t// in\n    tag_392:\n        /* \"#utility.yul\":7209:7292   */\n      tag_393\n        /* \"#utility.yul\":7288:7290   */\n      0x40\n        /* \"#utility.yul\":7277:7286   */\n      dup4\n        /* \"#utility.yul\":7273:7291   */\n      add\n        /* \"#utility.yul\":7264:7270   */\n      dup10\n        /* \"#utility.yul\":7209:7292   */\n      tag_271\n      jump\t// in\n    tag_393:\n        /* \"#utility.yul\":7302:7374   */\n      tag_394\n        /* \"#utility.yul\":7370:7372   */\n      0x60\n        /* \"#utility.yul\":7359:7368   */\n      dup4\n        /* \"#utility.yul\":7355:7373   */\n      add\n        /* \"#utility.yul\":7346:7352   */\n      dup9\n        /* \"#utility.yul\":7302:7374   */\n      tag_265\n      jump\t// in\n    tag_394:\n        /* \"#utility.yul\":7384:7457   */\n      tag_395\n        /* \"#utility.yul\":7452:7455   */\n      0x80\n        /* \"#utility.yul\":7441:7450   */\n      dup4\n        /* \"#utility.yul\":7437:7456   */\n      add\n        /* \"#utility.yul\":7428:7434   */\n      dup8\n        /* \"#utility.yul\":7384:7457   */\n      tag_265\n      jump\t// in\n    tag_395:\n        /* \"#utility.yul\":7467:7536   */\n      tag_396\n        /* \"#utility.yul\":7531:7534   */\n      0xa0\n        /* \"#utility.yul\":7520:7529   */\n      dup4\n        /* \"#utility.yul\":7516:7535   */\n      add\n        /* \"#utility.yul\":7507:7513   */\n      dup7\n        /* \"#utility.yul\":7467:7536   */\n      tag_273\n      jump\t// in\n    tag_396:\n        /* \"#utility.yul\":7546:7613   */\n      tag_397\n        /* \"#utility.yul\":7608:7611   */\n      0xc0\n        /* \"#utility.yul\":7597:7606   */\n      dup4\n        /* \"#utility.yul\":7593:7612   */\n      add\n        /* \"#utility.yul\":7584:7590   */\n      dup6\n        /* \"#utility.yul\":7546:7613   */\n      tag_276\n      jump\t// in\n    tag_397:\n        /* \"#utility.yul\":7623:7690   */\n      tag_398\n        /* \"#utility.yul\":7685:7688   */\n      0xe0\n        /* \"#utility.yul\":7674:7683   */\n      dup4\n        /* \"#utility.yul\":7670:7689   */\n      add\n        /* \"#utility.yul\":7661:7667   */\n      dup5\n        /* \"#utility.yul\":7623:7690   */\n      tag_276\n      jump\t// in\n    tag_398:\n        /* \"#utility.yul\":6710:7697   */\n      swap10\n      swap9\n      pop\n      pop\n      pop\n      pop\n      pop\n      pop\n      pop\n      pop\n      pop\n      jump\t// out\n        /* \"#utility.yul\":7703:7811   */\n    tag_277:\n        /* \"#utility.yul\":7780:7804   */\n      tag_400\n        /* \"#utility.yul\":7798:7803   */\n      dup2\n        /* \"#utility.yul\":7780:7804   */\n      tag_254\n      jump\t// in\n    tag_400:\n        /* \"#utility.yul\":7775:7778   */\n      dup3\n        /* \"#utility.yul\":7768:7805   */\n      mstore\n        /* \"#utility.yul\":7703:7811   */\n      pop\n      pop\n      jump\t// out\n        /* \"#utility.yul\":7817:7960   */\n    tag_278:\n        /* \"#utility.yul\":7905:7953   */\n      tag_402\n        /* \"#utility.yul\":7947:7952   */\n      dup2\n        /* \"#utility.yul\":7905:7953   */\n      tag_270\n      jump\t// in\n    tag_402:\n        /* \"#utility.yul\":7900:7903   */\n      dup3\n        /* \"#utility.yul\":7893:7954   */\n      mstore\n        /* \"#utility.yul\":7817:7960   */\n      pop\n      pop\n      jump\t// out\n        /* \"#utility.yul\":7966:8068   */\n    tag_279:\n        /* \"#utility.yul\":8039:8061   */\n      tag_404\n        /* \"#utility.yul\":8055:8060   */\n      dup2\n        /* \"#utility.yul\":8039:8061   */\n      tag_272\n      jump\t// in\n    tag_404:\n        /* \"#utility.yul\":8034:8037   */\n      dup3\n        /* \"#utility.yul\":8027:8062   */\n      mstore\n        /* \"#utility.yul\":7966:8068   */\n      pop\n      pop\n      jump\t// out\n        /* \"#utility.yul\":8074:8173   */\n    tag_280:\n        /* \"#utility.yul\":8145:8166   */\n      tag_406\n        /* \"#utility.yul\":8160:8165   */\n      dup2\n        /* \"#utility.yul\":8145:8166   */\n      tag_275\n      jump\t// in\n    tag_406:\n        /* \"#utility.yul\":8140:8143   */\n      dup3\n        /* \"#utility.yul\":8133:8167   */\n      mstore\n        /* \"#utility.yul\":8074:8173   */\n      pop\n      pop\n      jump\t// out\n        /* \"#utility.yul\":8237:9801   */\n    tag_281:\n        /* \"#utility.yul\":8376:8382   */\n      0x0100\n        /* \"#utility.yul\":8371:8374   */\n      dup3\n        /* \"#utility.yul\":8367:8383   */\n      add\n        /* \"#utility.yul\":8463:8467   */\n      0x00\n        /* \"#utility.yul\":8456:8461   */\n      dup3\n        /* \"#utility.yul\":8452:8468   */\n      add\n        /* \"#utility.yul\":8446:8469   */\n      mload\n        /* \"#utility.yul\":8482:8545   */\n      tag_408\n        /* \"#utility.yul\":8539:8543   */\n      0x00\n        /* \"#utility.yul\":8534:8537   */\n      dup6\n        /* \"#utility.yul\":8530:8544   */\n      add\n        /* \"#utility.yul\":8516:8528   */\n      dup3\n        /* \"#utility.yul\":8482:8545   */\n      tag_261\n      jump\t// in\n    tag_408:\n        /* \"#utility.yul\":8393:8555   */\n      pop\n        /* \"#utility.yul\":8638:8642   */\n      0x20\n        /* \"#utility.yul\":8631:8636   */\n      dup3\n        /* \"#utility.yul\":8627:8643   */\n      add\n        /* \"#utility.yul\":8621:8644   */\n      mload\n        /* \"#utility.yul\":8657:8720   */\n      tag_409\n        /* \"#utility.yul\":8714:8718   */\n      0x20\n        /* \"#utility.yul\":8709:8712   */\n      dup6\n        /* \"#utility.yul\":8705:8719   */\n      add\n        /* \"#utility.yul\":8691:8703   */\n      dup3\n        /* \"#utility.yul\":8657:8720   */\n      tag_277\n      jump\t// in\n    tag_409:\n        /* \"#utility.yul\":8565:8730   */\n      pop\n        /* \"#utility.yul\":8813:8817   */\n      0x40\n        /* \"#utility.yul\":8806:8811   */\n      dup3\n        /* \"#utility.yul\":8802:8818   */\n      add\n        /* \"#utility.yul\":8796:8819   */\n      mload\n        /* \"#utility.yul\":8832:8906   */\n      tag_410\n        /* \"#utility.yul\":8900:8904   */\n      0x40\n        /* \"#utility.yul\":8895:8898   */\n      dup6\n        /* \"#utility.yul\":8891:8905   */\n      add\n        /* \"#utility.yul\":8877:8889   */\n      dup3\n        /* \"#utility.yul\":8832:8906   */\n      tag_278\n      jump\t// in\n    tag_410:\n        /* \"#utility.yul\":8740:8916   */\n      pop\n        /* \"#utility.yul\":9005:9009   */\n      0x60\n        /* \"#utility.yul\":8998:9003   */\n      dup3\n        /* \"#utility.yul\":8994:9010   */\n      add\n        /* \"#utility.yul\":8988:9011   */\n      mload\n        /* \"#utility.yul\":9024:9087   */\n      tag_411\n        /* \"#utility.yul\":9081:9085   */\n      0x60\n        /* \"#utility.yul\":9076:9079   */\n      dup6\n        /* \"#utility.yul\":9072:9086   */\n      add\n        /* \"#utility.yul\":9058:9070   */\n      dup3\n        /* \"#utility.yul\":9024:9087   */\n      tag_261\n      jump\t// in\n    tag_411:\n        /* \"#utility.yul\":8926:9097   */\n      pop\n        /* \"#utility.yul\":9186:9190   */\n      0x80\n        /* \"#utility.yul\":9179:9184   */\n      dup3\n        /* \"#utility.yul\":9175:9191   */\n      add\n        /* \"#utility.yul\":9169:9192   */\n      mload\n        /* \"#utility.yul\":9205:9268   */\n      tag_412\n        /* \"#utility.yul\":9262:9266   */\n      0x80\n        /* \"#utility.yul\":9257:9260   */\n      dup6\n        /* \"#utility.yul\":9253:9267   */\n      add\n        /* \"#utility.yul\":9239:9251   */\n      dup3\n        /* \"#utility.yul\":9205:9268   */\n      tag_261\n      jump\t// in\n    tag_412:\n        /* \"#utility.yul\":9107:9278   */\n      pop\n        /* \"#utility.yul\":9366:9370   */\n      0xa0\n        /* \"#utility.yul\":9359:9364   */\n      dup3\n        /* \"#utility.yul\":9355:9371   */\n      add\n        /* \"#utility.yul\":9349:9372   */\n      mload\n        /* \"#utility.yul\":9385:9444   */\n      tag_413\n        /* \"#utility.yul\":9438:9442   */\n      0xa0\n        /* \"#utility.yul\":9433:9436   */\n      dup6\n        /* \"#utility.yul\":9429:9443   */\n      add\n        /* \"#utility.yul\":9415:9427   */\n      dup3\n        /* \"#utility.yul\":9385:9444   */\n      tag_279\n      jump\t// in\n    tag_413:\n        /* \"#utility.yul\":9288:9454   */\n      pop\n        /* \"#utility.yul\":9538:9542   */\n      0xc0\n        /* \"#utility.yul\":9531:9536   */\n      dup3\n        /* \"#utility.yul\":9527:9543   */\n      add\n        /* \"#utility.yul\":9521:9544   */\n      mload\n        /* \"#utility.yul\":9557:9614   */\n      tag_414\n        /* \"#utility.yul\":9608:9612   */\n      0xc0\n        /* \"#utility.yul\":9603:9606   */\n      dup6\n        /* \"#utility.yul\":9599:9613   */\n      add\n        /* \"#utility.yul\":9585:9597   */\n      dup3\n        /* \"#utility.yul\":9557:9614   */\n      tag_280\n      jump\t// in\n    tag_414:\n        /* \"#utility.yul\":9464:9624   */\n      pop\n        /* \"#utility.yul\":9708:9712   */\n      0xe0\n        /* \"#utility.yul\":9701:9706   */\n      dup3\n        /* \"#utility.yul\":9697:9713   */\n      add\n        /* \"#utility.yul\":9691:9714   */\n      mload\n        /* \"#utility.yul\":9727:9784   */\n      tag_415\n        /* \"#utility.yul\":9778:9782   */\n      0xe0\n        /* \"#utility.yul\":9773:9776   */\n      dup6\n        /* \"#utility.yul\":9769:9783   */\n      add\n        /* \"#utility.yul\":9755:9767   */\n      dup3\n        /* \"#utility.yul\":9727:9784   */\n      tag_280\n      jump\t// in\n    tag_415:\n        /* \"#utility.yul\":9634:9794   */\n      pop\n        /* \"#utility.yul\":8345:9801   */\n      pop\n        /* \"#utility.yul\":8237:9801   */\n      pop\n      pop\n      jump\t// out\n        /* \"#utility.yul\":9807:10114   */\n    tag_111:\n        /* \"#utility.yul\":9942:9946   */\n      0x00\n        /* \"#utility.yul\":9980:9983   */\n      0x0100\n        /* \"#utility.yul\":9969:9978   */\n      dup3\n        /* \"#utility.yul\":9965:9984   */\n      add\n        /* \"#utility.yul\":9957:9984   */\n      swap1\n      pop\n        /* \"#utility.yul\":9994:10107   */\n      tag_417\n        /* \"#utility.yul\":10104:10105   */\n      0x00\n        /* \"#utility.yul\":10093:10102   */\n      dup4\n        /* \"#utility.yul\":10089:10106   */\n      add\n        /* \"#utility.yul\":10080:10086   */\n      dup5\n        /* \"#utility.yul\":9994:10107   */\n      tag_281\n      jump\t// in\n    tag_417:\n        /* \"#utility.yul\":9807:10114   */\n      swap3\n      swap2\n      pop\n      pop\n      jump\t// out\n        /* \"#utility.yul\":10120:10289   */\n    tag_282:\n        /* \"#utility.yul\":10204:10215   */\n      0x00\n        /* \"#utility.yul\":10238:10244   */\n      dup3\n        /* \"#utility.yul\":10233:10236   */\n      dup3\n        /* \"#utility.yul\":10226:10245   */\n      mstore\n        /* \"#utility.yul\":10278:10282   */\n      0x20\n        /* \"#utility.yul\":10273:10276   */\n      dup3\n        /* \"#utility.yul\":10269:10283   */\n      add\n        /* \"#utility.yul\":10254:10283   */\n      swap1\n      pop\n        /* \"#utility.yul\":10120:10289   */\n      swap3\n      swap2\n      pop\n      pop\n      jump\t// out\n        /* \"#utility.yul\":10295:10456   */\n    tag_283:\n        /* \"#utility.yul\":10435:10448   */\n      0x4f6e6c79206f776e657221000000000000000000000000000000000000000000\n        /* \"#utility.yul\":10431:10432   */\n      0x00\n        /* \"#utility.yul\":10423:10429   */\n      dup3\n        /* \"#utility.yul\":10419:10433   */\n      add\n        /* \"#utility.yul\":10412:10449   */\n      mstore\n        /* \"#utility.yul\":10295:10456   */\n      pop\n      jump\t// out\n        /* \"#utility.yul\":10462:10828   */\n    tag_284:\n        /* \"#utility.yul\":10604:10607   */\n      0x00\n        /* \"#utility.yul\":10625:10692   */\n      tag_421\n        /* \"#utility.yul\":10689:10691   */\n      0x0b\n        /* \"#utility.yul\":10684:10687   */\n      dup4\n        /* \"#utility.yul\":10625:10692   */\n      tag_282\n      jump\t// in\n    tag_421:\n        /* \"#utility.yul\":10618:10692   */\n      swap2\n      pop\n        /* \"#utility.yul\":10701:10794   */\n      tag_422\n        /* \"#utility.yul\":10790:10793   */\n      dup3\n        /* \"#utility.yul\":10701:10794   */\n      tag_283\n      jump\t// in\n    tag_422:\n        /* \"#utility.yul\":10819:10821   */\n      0x20\n        /* \"#utility.yul\":10814:10817   */\n      dup3\n        /* \"#utility.yul\":10810:10822   */\n      add\n        /* \"#utility.yul\":10803:10822   */\n      swap1\n      pop\n        /* \"#utility.yul\":10462:10828   */\n      swap2\n      swap1\n      pop\n      jump\t// out\n        /* \"#utility.yul\":10834:11253   */\n    tag_118:\n        /* \"#utility.yul\":11000:11004   */\n      0x00\n        /* \"#utility.yul\":11038:11040   */\n      0x20\n        /* \"#utility.yul\":11027:11036   */\n      dup3\n        /* \"#utility.yul\":11023:11041   */\n      add\n        /* \"#utility.yul\":11015:11041   */\n      swap1\n      pop\n        /* \"#utility.yul\":11087:11096   */\n      dup2\n        /* \"#utility.yul\":11081:11085   */\n      dup2\n        /* \"#utility.yul\":11077:11097   */\n      sub\n        /* \"#utility.yul\":11073:11074   */\n      0x00\n        /* \"#utility.yul\":11062:11071   */\n      dup4\n        /* \"#utility.yul\":11058:11075   */\n      add\n        /* \"#utility.yul\":11051:11098   */\n      mstore\n        /* \"#utility.yul\":11115:11246   */\n      tag_424\n        /* \"#utility.yul\":11241:11245   */\n      dup2\n        /* \"#utility.yul\":11115:11246   */\n      tag_284\n      jump\t// in\n    tag_424:\n        /* \"#utility.yul\":11107:11246   */\n      swap1\n      pop\n        /* \"#utility.yul\":10834:11253   */\n      swap2\n      swap1\n      pop\n      jump\t// out\n        /* \"#utility.yul\":11259:11428   */\n    tag_285:\n        /* \"#utility.yul\":11399:11420   */\n      0x4e6f7468696e6720746f20776974686472617700000000000000000000000000\n        /* \"#utility.yul\":11395:11396   */\n      0x00\n        /* \"#utility.yul\":11387:11393   */\n      dup3\n        /* \"#utility.yul\":11383:11397   */\n      add\n        /* \"#utility.yul\":11376:11421   */\n      mstore\n        /* \"#utility.yul\":11259:11428   */\n      pop\n      jump\t// out\n        /* \"#utility.yul\":11434:11800   */\n    tag_286:\n        /* \"#utility.yul\":11576:11579   */\n      0x00\n        /* \"#utility.yul\":11597:11664   */\n      tag_427\n        /* \"#utility.yul\":11661:11663   */\n      0x13\n        /* \"#utility.yul\":11656:11659   */\n      dup4\n        /* \"#utility.yul\":11597:11664   */\n      tag_282\n      jump\t// in\n    tag_427:\n        /* \"#utility.yul\":11590:11664   */\n      swap2\n      pop\n        /* \"#utility.yul\":11673:11766   */\n      tag_428\n        /* \"#utility.yul\":11762:11765   */\n      dup3\n        /* \"#utility.yul\":11673:11766   */\n      tag_285\n      jump\t// in\n    tag_428:\n        /* \"#utility.yul\":11791:11793   */\n      0x20\n        /* \"#utility.yul\":11786:11789   */\n      dup3\n        /* \"#utility.yul\":11782:11794   */\n      add\n        /* \"#utility.yul\":11775:11794   */\n      swap1\n      pop\n        /* \"#utility.yul\":11434:11800   */\n      swap2\n      swap1\n      pop\n      jump\t// out\n        /* \"#utility.yul\":11806:12225   */\n    tag_122:\n        /* \"#utility.yul\":11972:11976   */\n      0x00\n        /* \"#utility.yul\":12010:12012   */\n      0x20\n        /* \"#utility.yul\":11999:12008   */\n      dup3\n        /* \"#utility.yul\":11995:12013   */\n      add\n        /* \"#utility.yul\":11987:12013   */\n      swap1\n      pop\n        /* \"#utility.yul\":12059:12068   */\n      dup2\n        /* \"#utility.yul\":12053:12057   */\n      dup2\n        /* \"#utility.yul\":12049:12069   */\n      sub\n        /* \"#utility.yul\":12045:12046   */\n      0x00\n        /* \"#utility.yul\":12034:12043   */\n      dup4\n        /* \"#utility.yul\":12030:12047   */\n      add\n        /* \"#utility.yul\":12023:12070   */\n      mstore\n        /* \"#utility.yul\":12087:12218   */\n      tag_430\n        /* \"#utility.yul\":12213:12217   */\n      dup2\n        /* \"#utility.yul\":12087:12218   */\n      tag_286\n      jump\t// in\n    tag_430:\n        /* \"#utility.yul\":12079:12218   */\n      swap1\n      pop\n        /* \"#utility.yul\":11806:12225   */\n      swap2\n      swap1\n      pop\n      jump\t// out\n        /* \"#utility.yul\":12231:12378   */\n    tag_287:\n        /* \"#utility.yul\":12332:12343   */\n      0x00\n        /* \"#utility.yul\":12369:12372   */\n      dup2\n        /* \"#utility.yul\":12354:12372   */\n      swap1\n      pop\n        /* \"#utility.yul\":12231:12378   */\n      swap3\n      swap2\n      pop\n      pop\n      jump\t// out\n        /* \"#utility.yul\":12384:12498   */\n    tag_288:\n      pop\n      jump\t// out\n        /* \"#utility.yul\":12504:12902   */\n    tag_289:\n        /* \"#utility.yul\":12663:12666   */\n      0x00\n        /* \"#utility.yul\":12684:12767   */\n      tag_434\n        /* \"#utility.yul\":12765:12766   */\n      0x00\n        /* \"#utility.yul\":12760:12763   */\n      dup4\n        /* \"#utility.yul\":12684:12767   */\n      tag_287\n      jump\t// in\n    tag_434:\n        /* \"#utility.yul\":12677:12767   */\n      swap2\n      pop\n        /* \"#utility.yul\":12776:12869   */\n      tag_435\n        /* \"#utility.yul\":12865:12868   */\n      dup3\n        /* \"#utility.yul\":12776:12869   */\n      tag_288\n      jump\t// in\n    tag_435:\n        /* \"#utility.yul\":12894:12895   */\n      0x00\n        /* \"#utility.yul\":12889:12892   */\n      dup3\n        /* \"#utility.yul\":12885:12896   */\n      add\n        /* \"#utility.yul\":12878:12896   */\n      swap1\n      pop\n        /* \"#utility.yul\":12504:12902   */\n      swap2\n      swap1\n      pop\n      jump\t// out\n        /* \"#utility.yul\":12908:13287   */\n    tag_124:\n        /* \"#utility.yul\":13092:13095   */\n      0x00\n        /* \"#utility.yul\":13114:13261   */\n      tag_437\n        /* \"#utility.yul\":13257:13260   */\n      dup3\n        /* \"#utility.yul\":13114:13261   */\n      tag_289\n      jump\t// in\n    tag_437:\n        /* \"#utility.yul\":13107:13261   */\n      swap2\n      pop\n        /* \"#utility.yul\":13278:13281   */\n      dup2\n        /* \"#utility.yul\":13271:13281   */\n      swap1\n      pop\n        /* \"#utility.yul\":12908:13287   */\n      swap2\n      swap1\n      pop\n      jump\t// out\n        /* \"#utility.yul\":13293:13458   */\n    tag_290:\n        /* \"#utility.yul\":13433:13450   */\n      0x4661696c6564207472616e736665720000000000000000000000000000000000\n        /* \"#utility.yul\":13429:13430   */\n      0x00\n        /* \"#utility.yul\":13421:13427   */\n      dup3\n        /* \"#utility.yul\":13417:13431   */\n      add\n        /* \"#utility.yul\":13410:13451   */\n      mstore\n        /* \"#utility.yul\":13293:13458   */\n      pop\n      jump\t// out\n        /* \"#utility.yul\":13464:13830   */\n    tag_291:\n        /* \"#utility.yul\":13606:13609   */\n      0x00\n        /* \"#utility.yul\":13627:13694   */\n      tag_440\n        /* \"#utility.yul\":13691:13693   */\n      0x0f\n        /* \"#utility.yul\":13686:13689   */\n      dup4\n        /* \"#utility.yul\":13627:13694   */\n      tag_282\n      jump\t// in\n    tag_440:\n        /* \"#utility.yul\":13620:13694   */\n      swap2\n      pop\n        /* \"#utility.yul\":13703:13796   */\n      tag_441\n        /* \"#utility.yul\":13792:13795   */\n      dup3\n        /* \"#utility.yul\":13703:13796   */\n      tag_290\n      jump\t// in\n    tag_441:\n        /* \"#utility.yul\":13821:13823   */\n      0x20\n        /* \"#utility.yul\":13816:13819   */\n      dup3\n        /* \"#utility.yul\":13812:13824   */\n      add\n        /* \"#utility.yul\":13805:13824   */\n      swap1\n      pop\n        /* \"#utility.yul\":13464:13830   */\n      swap2\n      swap1\n      pop\n      jump\t// out\n        /* \"#utility.yul\":13836:14255   */\n    tag_130:\n        /* \"#utility.yul\":14002:14006   */\n      0x00\n        /* \"#utility.yul\":14040:14042   */\n      0x20\n        /* \"#utility.yul\":14029:14038   */\n      dup3\n        /* \"#utility.yul\":14025:14043   */\n      add\n        /* \"#utility.yul\":14017:14043   */\n      swap1\n      pop\n        /* \"#utility.yul\":14089:14098   */\n      dup2\n        /* \"#utility.yul\":14083:14087   */\n      dup2\n        /* \"#utility.yul\":14079:14099   */\n      sub\n        /* \"#utility.yul\":14075:14076   */\n      0x00\n        /* \"#utility.yul\":14064:14073   */\n      dup4\n        /* \"#utility.yul\":14060:14077   */\n      add\n        /* \"#utility.yul\":14053:14100   */\n      mstore\n        /* \"#utility.yul\":14117:14248   */\n      tag_443\n        /* \"#utility.yul\":14243:14247   */\n      dup2\n        /* \"#utility.yul\":14117:14248   */\n      tag_291\n      jump\t// in\n    tag_443:\n        /* \"#utility.yul\":14109:14248   */\n      swap1\n      pop\n        /* \"#utility.yul\":13836:14255   */\n      swap2\n      swap1\n      pop\n      jump\t// out\n        /* \"#utility.yul\":14261:14433   */\n    tag_292:\n        /* \"#utility.yul\":14401:14425   */\n      0x596f7520617265206e6f7420746865206f776e65722100000000000000000000\n        /* \"#utility.yul\":14397:14398   */\n      0x00\n        /* \"#utility.yul\":14389:14395   */\n      dup3\n        /* \"#utility.yul\":14385:14399   */\n      add\n        /* \"#utility.yul\":14378:14426   */\n      mstore\n        /* \"#utility.yul\":14261:14433   */\n      pop\n      jump\t// out\n        /* \"#utility.yul\":14439:14805   */\n    tag_293:\n        /* \"#utility.yul\":14581:14584   */\n      0x00\n        /* \"#utility.yul\":14602:14669   */\n      tag_446\n        /* \"#utility.yul\":14666:14668   */\n      0x16\n        /* \"#utility.yul\":14661:14664   */\n      dup4\n        /* \"#utility.yul\":14602:14669   */\n      tag_282\n      jump\t// in\n    tag_446:\n        /* \"#utility.yul\":14595:14669   */\n      swap2\n      pop\n        /* \"#utility.yul\":14678:14771   */\n      tag_447\n        /* \"#utility.yul\":14767:14770   */\n      dup3\n        /* \"#utility.yul\":14678:14771   */\n      tag_292\n      jump\t// in\n    tag_447:\n        /* \"#utility.yul\":14796:14798   */\n      0x20\n        /* \"#utility.yul\":14791:14794   */\n      dup3\n        /* \"#utility.yul\":14787:14799   */\n      add\n        /* \"#utility.yul\":14780:14799   */\n      swap1\n      pop\n        /* \"#utility.yul\":14439:14805   */\n      swap2\n      swap1\n      pop\n      jump\t// out\n        /* \"#utility.yul\":14811:15230   */\n    tag_134:\n        /* \"#utility.yul\":14977:14981   */\n      0x00\n        /* \"#utility.yul\":15015:15017   */\n      0x20\n        /* \"#utility.yul\":15004:15013   */\n      dup3\n        /* \"#utility.yul\":15000:15018   */\n      add\n        /* \"#utility.yul\":14992:15018   */\n      swap1\n      pop\n        /* \"#utility.yul\":15064:15073   */\n      dup2\n        /* \"#utility.yul\":15058:15062   */\n      dup2\n        /* \"#utility.yul\":15054:15074   */\n      sub\n        /* \"#utility.yul\":15050:15051   */\n      0x00\n        /* \"#utility.yul\":15039:15048   */\n      dup4\n        /* \"#utility.yul\":15035:15052   */\n      add\n        /* \"#utility.yul\":15028:15075   */\n      mstore\n        /* \"#utility.yul\":15092:15223   */\n      tag_449\n        /* \"#utility.yul\":15218:15222   */\n      dup2\n        /* \"#utility.yul\":15092:15223   */\n      tag_293\n      jump\t// in\n    tag_449:\n        /* \"#utility.yul\":15084:15223   */\n      swap1\n      pop\n        /* \"#utility.yul\":14811:15230   */\n      swap2\n      swap1\n      pop\n      jump\t// out\n        /* \"#utility.yul\":15236:15407   */\n    tag_294:\n        /* \"#utility.yul\":15376:15399   */\n      0x496e73756666696369656e742062616c616e6365210000000000000000000000\n        /* \"#utility.yul\":15372:15373   */\n      0x00\n        /* \"#utility.yul\":15364:15370   */\n      dup3\n        /* \"#utility.yul\":15360:15374   */\n      add\n        /* \"#utility.yul\":15353:15400   */\n      mstore\n        /* \"#utility.yul\":15236:15407   */\n      pop\n      jump\t// out\n        /* \"#utility.yul\":15413:15779   */\n    tag_295:\n        /* \"#utility.yul\":15555:15558   */\n      0x00\n        /* \"#utility.yul\":15576:15643   */\n      tag_452\n        /* \"#utility.yul\":15640:15642   */\n      0x15\n        /* \"#utility.yul\":15635:15638   */\n      dup4\n        /* \"#utility.yul\":15576:15643   */\n      tag_282\n      jump\t// in\n    tag_452:\n        /* \"#utility.yul\":15569:15643   */\n      swap2\n      pop\n        /* \"#utility.yul\":15652:15745   */\n      tag_453\n        /* \"#utility.yul\":15741:15744   */\n      dup3\n        /* \"#utility.yul\":15652:15745   */\n      tag_294\n      jump\t// in\n    tag_453:\n        /* \"#utility.yul\":15770:15772   */\n      0x20\n        /* \"#utility.yul\":15765:15768   */\n      dup3\n        /* \"#utility.yul\":15761:15773   */\n      add\n        /* \"#utility.yul\":15754:15773   */\n      swap1\n      pop\n        /* \"#utility.yul\":15413:15779   */\n      swap2\n      swap1\n      pop\n      jump\t// out\n        /* \"#utility.yul\":15785:16204   */\n    tag_139:\n        /* \"#utility.yul\":15951:15955   */\n      0x00\n        /* \"#utility.yul\":15989:15991   */\n      0x20\n        /* \"#utility.yul\":15978:15987   */\n      dup3\n        /* \"#utility.yul\":15974:15992   */\n      add\n        /* \"#utility.yul\":15966:15992   */\n      swap1\n      pop\n        /* \"#utility.yul\":16038:16047   */\n      dup2\n        /* \"#utility.yul\":16032:16036   */\n      dup2\n        /* \"#utility.yul\":16028:16048   */\n      sub\n        /* \"#utility.yul\":16024:16025   */\n      0x00\n        /* \"#utility.yul\":16013:16022   */\n      dup4\n        /* \"#utility.yul\":16009:16026   */\n      add\n        /* \"#utility.yul\":16002:16049   */\n      mstore\n        /* \"#utility.yul\":16066:16197   */\n      tag_455\n        /* \"#utility.yul\":16192:16196   */\n      dup2\n        /* \"#utility.yul\":16066:16197   */\n      tag_295\n      jump\t// in\n    tag_455:\n        /* \"#utility.yul\":16058:16197   */\n      swap1\n      pop\n        /* \"#utility.yul\":15785:16204   */\n      swap2\n      swap1\n      pop\n      jump\t// out\n        /* \"#utility.yul\":16210:16390   */\n    tag_296:\n        /* \"#utility.yul\":16258:16335   */\n      0x4e487b7100000000000000000000000000000000000000000000000000000000\n        /* \"#utility.yul\":16255:16256   */\n      0x00\n        /* \"#utility.yul\":16248:16336   */\n      mstore\n        /* \"#utility.yul\":16355:16359   */\n      0x11\n        /* \"#utility.yul\":16352:16353   */\n      0x04\n        /* \"#utility.yul\":16345:16360   */\n      mstore\n        /* \"#utility.yul\":16379:16383   */\n      0x24\n        /* \"#utility.yul\":16376:16377   */\n      0x00\n        /* \"#utility.yul\":16369:16384   */\n      revert\n        /* \"#utility.yul\":16396:16629   */\n    tag_145:\n        /* \"#utility.yul\":16435:16438   */\n      0x00\n        /* \"#utility.yul\":16458:16482   */\n      tag_458\n        /* \"#utility.yul\":16476:16481   */\n      dup3\n        /* \"#utility.yul\":16458:16482   */\n      tag_260\n      jump\t// in\n    tag_458:\n        /* \"#utility.yul\":16449:16482   */\n      swap2\n      pop\n        /* \"#utility.yul\":16504:16570   */\n      0xffffffffffffffffffffffffffffffffffffffffffffffffffffffffffffffff\n        /* \"#utility.yul\":16497:16502   */\n      dup3\n        /* \"#utility.yul\":16494:16571   */\n      sub\n        /* \"#utility.yul\":16491:16594   */\n      tag_459\n      jumpi\n        /* \"#utility.yul\":16574:16592   */\n      tag_460\n      tag_296\n      jump\t// in\n    tag_460:\n        /* \"#utility.yul\":16491:16594   */\n    tag_459:\n        /* \"#utility.yul\":16621:16622   */\n      0x01\n        /* \"#utility.yul\":16614:16619   */\n      dup3\n        /* \"#utility.yul\":16610:16623   */\n      add\n        /* \"#utility.yul\":16603:16623   */\n      swap1\n      pop\n        /* \"#utility.yul\":16396:16629   */\n      swap2\n      swap1\n      pop\n      jump\t// out\n        /* \"#utility.yul\":16635:16829   */\n    tag_153:\n        /* \"#utility.yul\":16675:16679   */\n      0x00\n        /* \"#utility.yul\":16695:16715   */\n      tag_462\n        /* \"#utility.yul\":16713:16714   */\n      dup3\n        /* \"#utility.yul\":16695:16715   */\n      tag_260\n      jump\t// in\n    tag_462:\n        /* \"#utility.yul\":16690:16715   */\n      swap2\n      pop\n        /* \"#utility.yul\":16729:16749   */\n      tag_463\n        /* \"#utility.yul\":16747:16748   */\n      dup4\n        /* \"#utility.yul\":16729:16749   */\n      tag_260\n      jump\t// in\n    tag_463:\n        /* \"#utility.yul\":16724:16749   */\n      swap3\n      pop\n        /* \"#utility.yul\":16773:16774   */\n      dup3\n        /* \"#utility.yul\":16770:16771   */\n      dup3\n        /* \"#utility.yul\":16766:16775   */\n      sub\n        /* \"#utility.yul\":16758:16775   */\n      swap1\n      pop\n        /* \"#utility.yul\":16797:16798   */\n      dup2\n        /* \"#utility.yul\":16791:16795   */\n      dup2\n        /* \"#utility.yul\":16788:16799   */\n      gt\n        /* \"#utility.yul\":16785:16822   */\n      iszero\n      tag_464\n      jumpi\n        /* \"#utility.yul\":16802:16820   */\n      tag_465\n      tag_296\n      jump\t// in\n    tag_465:\n        /* \"#utility.yul\":16785:16822   */\n    tag_464:\n        /* \"#utility.yul\":16635:16829   */\n      swap3\n      swap2\n      pop\n      pop\n      jump\t// out\n        /* \"#utility.yul\":16835:17015   */\n    tag_297:\n        /* \"#utility.yul\":16883:16960   */\n      0x4e487b7100000000000000000000000000000000000000000000000000000000\n        /* \"#utility.yul\":16880:16881   */\n      0x00\n        /* \"#utility.yul\":16873:16961   */\n      mstore\n        /* \"#utility.yul\":16980:16984   */\n      0x12\n        /* \"#utility.yul\":16977:16978   */\n      0x04\n        /* \"#utility.yul\":16970:16985   */\n      mstore\n        /* \"#utility.yul\":17004:17008   */\n      0x24\n        /* \"#utility.yul\":17001:17002   */\n      0x00\n        /* \"#utility.yul\":16994:17009   */\n      revert\n        /* \"#utility.yul\":17021:17206   */\n    tag_155:\n        /* \"#utility.yul\":17061:17062   */\n      0x00\n        /* \"#utility.yul\":17078:17098   */\n      tag_468\n        /* \"#utility.yul\":17096:17097   */\n      dup3\n        /* \"#utility.yul\":17078:17098   */\n      tag_260\n      jump\t// in\n    tag_468:\n        /* \"#utility.yul\":17073:17098   */\n      swap2\n      pop\n        /* \"#utility.yul\":17112:17132   */\n      tag_469\n        /* \"#utility.yul\":17130:17131   */\n      dup4\n        /* \"#utility.yul\":17112:17132   */\n      tag_260\n      jump\t// in\n    tag_469:\n        /* \"#utility.yul\":17107:17132   */\n      swap3\n      pop\n        /* \"#utility.yul\":17151:17152   */\n      dup3\n        /* \"#utility.yul\":17141:17176   */\n      tag_470\n      jumpi\n        /* \"#utility.yul\":17156:17174   */\n      tag_471\n      tag_297\n      jump\t// in\n    tag_471:\n        /* \"#utility.yul\":17141:17176   */\n    tag_470:\n        /* \"#utility.yul\":17198:17199   */\n      dup3\n        /* \"#utility.yul\":17195:17196   */\n      dup3\n        /* \"#utility.yul\":17191:17200   */\n      div\n        /* \"#utility.yul\":17186:17200   */\n      swap1\n      pop\n        /* \"#utility.yul\":17021:17206   */\n      swap3\n      swap2\n      pop\n      pop\n      jump\t// out\n        /* \"#utility.yul\":17212:17622   */\n    tag_157:\n        /* \"#utility.yul\":17252:17259   */\n      0x00\n        /* \"#utility.yul\":17275:17295   */\n      tag_473\n        /* \"#utility.yul\":17293:17294   */\n      dup3\n        /* \"#utility.yul\":17275:17295   */\n      tag_260\n      jump\t// in\n    tag_473:\n        /* \"#utility.yul\":17270:17295   */\n      swap2\n      pop\n        /* \"#utility.yul\":17309:17329   */\n      tag_474\n        /* \"#utility.yul\":17327:17328   */\n      dup4\n        /* \"#utility.yul\":17309:17329   */\n      tag_260\n      jump\t// in\n    tag_474:\n        /* \"#utility.yul\":17304:17329   */\n      swap3\n      pop\n        /* \"#utility.yul\":17364:17365   */\n      dup3\n        /* \"#utility.yul\":17361:17362   */\n      dup3\n        /* \"#utility.yul\":17357:17366   */\n      mul\n        /* \"#utility.yul\":17386:17416   */\n      tag_475\n        /* \"#utility.yul\":17404:17415   */\n      dup2\n        /* \"#utility.yul\":17386:17416   */\n      tag_260\n      jump\t// in\n    tag_475:\n        /* \"#utility.yul\":17375:17416   */\n      swap2\n      pop\n        /* \"#utility.yul\":17565:17566   */\n      dup3\n        /* \"#utility.yul\":17556:17563   */\n      dup3\n        /* \"#utility.yul\":17552:17567   */\n      div\n        /* \"#utility.yul\":17549:17550   */\n      dup5\n        /* \"#utility.yul\":17546:17568   */\n      eq\n        /* \"#utility.yul\":17526:17527   */\n      dup4\n        /* \"#utility.yul\":17519:17528   */\n      iszero\n        /* \"#utility.yul\":17499:17582   */\n      or\n        /* \"#utility.yul\":17476:17615   */\n      tag_476\n      jumpi\n        /* \"#utility.yul\":17595:17613   */\n      tag_477\n      tag_296\n      jump\t// in\n    tag_477:\n        /* \"#utility.yul\":17476:17615   */\n    tag_476:\n        /* \"#utility.yul\":17260:17622   */\n      pop\n        /* \"#utility.yul\":17212:17622   */\n      swap3\n      swap2\n      pop\n      pop\n      jump\t// out\n        /* \"#utility.yul\":17628:17798   */\n    tag_298:\n        /* \"#utility.yul\":17768:17790   */\n      0x506c616e7420646f65736e277420657869737421000000000000000000000000\n        /* \"#utility.yul\":17764:17765   */\n      0x00\n        /* \"#utility.yul\":17756:17762   */\n      dup3\n        /* \"#utility.yul\":17752:17766   */\n      add\n        /* \"#utility.yul\":17745:17791   */\n      mstore\n        /* \"#utility.yul\":17628:17798   */\n      pop\n      jump\t// out\n        /* \"#utility.yul\":17804:18170   */\n    tag_299:\n        /* \"#utility.yul\":17946:17949   */\n      0x00\n        /* \"#utility.yul\":17967:18034   */\n      tag_480\n        /* \"#utility.yul\":18031:18033   */\n      0x14\n        /* \"#utility.yul\":18026:18029   */\n      dup4\n        /* \"#utility.yul\":17967:18034   */\n      tag_282\n      jump\t// in\n    tag_480:\n        /* \"#utility.yul\":17960:18034   */\n      swap2\n      pop\n        /* \"#utility.yul\":18043:18136   */\n      tag_481\n        /* \"#utility.yul\":18132:18135   */\n      dup3\n        /* \"#utility.yul\":18043:18136   */\n      tag_298\n      jump\t// in\n    tag_481:\n        /* \"#utility.yul\":18161:18163   */\n      0x20\n        /* \"#utility.yul\":18156:18159   */\n      dup3\n        /* \"#utility.yul\":18152:18164   */\n      add\n        /* \"#utility.yul\":18145:18164   */\n      swap1\n      pop\n        /* \"#utility.yul\":17804:18170   */\n      swap2\n      swap1\n      pop\n      jump\t// out\n        /* \"#utility.yul\":18176:18595   */\n    tag_165:\n        /* \"#utility.yul\":18342:18346   */\n      0x00\n        /* \"#utility.yul\":18380:18382   */\n      0x20\n        /* \"#utility.yul\":18369:18378   */\n      dup3\n        /* \"#utility.yul\":18365:18383   */\n      add\n        /* \"#utility.yul\":18357:18383   */\n      swap1\n      pop\n        /* \"#utility.yul\":18429:18438   */\n      dup2\n        /* \"#utility.yul\":18423:18427   */\n      dup2\n        /* \"#utility.yul\":18419:18439   */\n      sub\n        /* \"#utility.yul\":18415:18416   */\n      0x00\n        /* \"#utility.yul\":18404:18413   */\n      dup4\n        /* \"#utility.yul\":18400:18417   */\n      add\n        /* \"#utility.yul\":18393:18440   */\n      mstore\n        /* \"#utility.yul\":18457:18588   */\n      tag_483\n        /* \"#utility.yul\":18583:18587   */\n      dup2\n        /* \"#utility.yul\":18457:18588   */\n      tag_299\n      jump\t// in\n    tag_483:\n        /* \"#utility.yul\":18449:18588   */\n      swap1\n      pop\n        /* \"#utility.yul\":18176:18595   */\n      swap2\n      swap1\n      pop\n      jump\t// out\n        /* \"#utility.yul\":18601:18770   */\n    tag_300:\n        /* \"#utility.yul\":18741:18762   */\n      0x506c616e7420616c726561647920646561642100000000000000000000000000\n        /* \"#utility.yul\":18737:18738   */\n      0x00\n        /* \"#utility.yul\":18729:18735   */\n      dup3\n        /* \"#utility.yul\":18725:18739   */\n      add\n        /* \"#utility.yul\":18718:18763   */\n      mstore\n        /* \"#utility.yul\":18601:18770   */\n      pop\n      jump\t// out\n        /* \"#utility.yul\":18776:19142   */\n    tag_301:\n        /* \"#utility.yul\":18918:18921   */\n      0x00\n        /* \"#utility.yul\":18939:19006   */\n      tag_486\n        /* \"#utility.yul\":19003:19005   */\n      0x13\n        /* \"#utility.yul\":18998:19001   */\n      dup4\n        /* \"#utility.yul\":18939:19006   */\n      tag_282\n      jump\t// in\n    tag_486:\n        /* \"#utility.yul\":18932:19006   */\n      swap2\n      pop\n        /* \"#utility.yul\":19015:19108   */\n      tag_487\n        /* \"#utility.yul\":19104:19107   */\n      dup3\n        /* \"#utility.yul\":19015:19108   */\n      tag_300\n      jump\t// in\n    tag_487:\n        /* \"#utility.yul\":19133:19135   */\n      0x20\n        /* \"#utility.yul\":19128:19131   */\n      dup3\n        /* \"#utility.yul\":19124:19136   */\n      add\n        /* \"#utility.yul\":19117:19136   */\n      swap1\n      pop\n        /* \"#utility.yul\":18776:19142   */\n      swap2\n      swap1\n      pop\n      jump\t// out\n        /* \"#utility.yul\":19148:19567   */\n    tag_169:\n        /* \"#utility.yul\":19314:19318   */\n      0x00\n        /* \"#utility.yul\":19352:19354   */\n      0x20\n        /* \"#utility.yul\":19341:19350   */\n      dup3\n        /* \"#utility.yul\":19337:19355   */\n      add\n        /* \"#utility.yul\":19329:19355   */\n      swap1\n      pop\n        /* \"#utility.yul\":19401:19410   */\n      dup2\n        /* \"#utility.yul\":19395:19399   */\n      dup2\n        /* \"#utility.yul\":19391:19411   */\n      sub\n        /* \"#utility.yul\":19387:19388   */\n      0x00\n        /* \"#utility.yul\":19376:19385   */\n      dup4\n        /* \"#utility.yul\":19372:19389   */\n      add\n        /* \"#utility.yul\":19365:19412   */\n      mstore\n        /* \"#utility.yul\":19429:19560   */\n      tag_489\n        /* \"#utility.yul\":19555:19559   */\n      dup2\n        /* \"#utility.yul\":19429:19560   */\n      tag_301\n      jump\t// in\n    tag_489:\n        /* \"#utility.yul\":19421:19560   */\n      swap1\n      pop\n        /* \"#utility.yul\":19148:19567   */\n      swap2\n      swap1\n      pop\n      jump\t// out\n        /* \"#utility.yul\":19573:19660   */\n    tag_302:\n        /* \"#utility.yul\":19620:19627   */\n      0x00\n        /* \"#utility.yul\":19649:19654   */\n      dup2\n        /* \"#utility.yul\":19638:19654   */\n      swap1\n      pop\n        /* \"#utility.yul\":19573:19660   */\n      swap2\n      swap1\n      pop\n      jump\t// out\n        /* \"#utility.yul\":19666:19726   */\n    tag_303:\n        /* \"#utility.yul\":19694:19697   */\n      0x00\n        /* \"#utility.yul\":19715:19720   */\n      dup2\n        /* \"#utility.yul\":19708:19720   */\n      swap1\n      pop\n        /* \"#utility.yul\":19666:19726   */\n      swap2\n      swap1\n      pop\n      jump\t// out\n        /* \"#utility.yul\":19732:19890   */\n    tag_304:\n        /* \"#utility.yul\":19790:19799   */\n      0x00\n        /* \"#utility.yul\":19823:19884   */\n      tag_493\n        /* \"#utility.yul\":19839:19883   */\n      tag_494\n        /* \"#utility.yul\":19848:19882   */\n      tag_495\n        /* \"#utility.yul\":19876:19881   */\n      dup5\n        /* \"#utility.yul\":19848:19882   */\n      tag_302\n      jump\t// in\n    tag_495:\n        /* \"#utility.yul\":19839:19883   */\n      tag_303\n      jump\t// in\n    tag_494:\n        /* \"#utility.yul\":19823:19884   */\n      tag_272\n      jump\t// in\n    tag_493:\n        /* \"#utility.yul\":19810:19884   */\n      swap1\n      pop\n        /* \"#utility.yul\":19732:19890   */\n      swap2\n      swap1\n      pop\n      jump\t// out\n        /* \"#utility.yul\":19896:20043   */\n    tag_305:\n        /* \"#utility.yul\":19991:20036   */\n      tag_497\n        /* \"#utility.yul\":20030:20035   */\n      dup2\n        /* \"#utility.yul\":19991:20036   */\n      tag_304\n      jump\t// in\n    tag_497:\n        /* \"#utility.yul\":19986:19989   */\n      dup3\n        /* \"#utility.yul\":19979:20037   */\n      mstore\n        /* \"#utility.yul\":19896:20043   */\n      pop\n      pop\n      jump\t// out\n        /* \"#utility.yul\":20049:20287   */\n    tag_175:\n        /* \"#utility.yul\":20150:20154   */\n      0x00\n        /* \"#utility.yul\":20188:20190   */\n      0x20\n        /* \"#utility.yul\":20177:20186   */\n      dup3\n        /* \"#utility.yul\":20173:20191   */\n      add\n        /* \"#utility.yul\":20165:20191   */\n      swap1\n      pop\n        /* \"#utility.yul\":20201:20280   */\n      tag_499\n        /* \"#utility.yul\":20277:20278   */\n      0x00\n        /* \"#utility.yul\":20266:20275   */\n      dup4\n        /* \"#utility.yul\":20262:20279   */\n      add\n        /* \"#utility.yul\":20253:20259   */\n      dup5\n        /* \"#utility.yul\":20201:20280   */\n      tag_305\n      jump\t// in\n    tag_499:\n        /* \"#utility.yul\":20049:20287   */\n      swap3\n      swap2\n      pop\n      pop\n      jump\t// out\n        /* \"#utility.yul\":20293:20466   */\n    tag_306:\n        /* \"#utility.yul\":20433:20458   */\n      0x506c616e74206e6f7420626c6f6f6d696e672079657421000000000000000000\n        /* \"#utility.yul\":20429:20430   */\n      0x00\n        /* \"#utility.yul\":20421:20427   */\n      dup3\n        /* \"#utility.yul\":20417:20431   */\n      add\n        /* \"#utility.yul\":20410:20459   */\n      mstore\n        /* \"#utility.yul\":20293:20466   */\n      pop\n      jump\t// out\n        /* \"#utility.yul\":20472:20838   */\n    tag_307:\n        /* \"#utility.yul\":20614:20617   */\n      0x00\n        /* \"#utility.yul\":20635:20702   */\n      tag_502\n        /* \"#utility.yul\":20699:20701   */\n      0x17\n        /* \"#utility.yul\":20694:20697   */\n      dup4\n        /* \"#utility.yul\":20635:20702   */\n      tag_282\n      jump\t// in\n    tag_502:\n        /* \"#utility.yul\":20628:20702   */\n      swap2\n      pop\n        /* \"#utility.yul\":20711:20804   */\n      tag_503\n        /* \"#utility.yul\":20800:20803   */\n      dup3\n        /* \"#utility.yul\":20711:20804   */\n      tag_306\n      jump\t// in\n    tag_503:\n        /* \"#utility.yul\":20829:20831   */\n      0x20\n        /* \"#utility.yul\":20824:20827   */\n      dup3\n        /* \"#utility.yul\":20820:20832   */\n      add\n        /* \"#utility.yul\":20813:20832   */\n      swap1\n      pop\n        /* \"#utility.yul\":20472:20838   */\n      swap2\n      swap1\n      pop\n      jump\t// out\n        /* \"#utility.yul\":20844:21263   */\n    tag_224:\n        /* \"#utility.yul\":21010:21014   */\n      0x00\n        /* \"#utility.yul\":21048:21050   */\n      0x20\n        /* \"#utility.yul\":21037:21046   */\n      dup3\n        /* \"#utility.yul\":21033:21051   */\n      add\n        /* \"#utility.yul\":21025:21051   */\n      swap1\n      pop\n        /* \"#utility.yul\":21097:21106   */\n      dup2\n        /* \"#utility.yul\":21091:21095   */\n      dup2\n        /* \"#utility.yul\":21087:21107   */\n      sub\n        /* \"#utility.yul\":21083:21084   */\n      0x00\n        /* \"#utility.yul\":21072:21081   */\n      dup4\n        /* \"#utility.yul\":21068:21085   */\n      add\n        /* \"#utility.yul\":21061:21108   */\n      mstore\n        /* \"#utility.yul\":21125:21256   */\n      tag_505\n        /* \"#utility.yul\":21251:21255   */\n      dup2\n        /* \"#utility.yul\":21125:21256   */\n      tag_307\n      jump\t// in\n    tag_505:\n        /* \"#utility.yul\":21117:21256   */\n      swap1\n      pop\n        /* \"#utility.yul\":20844:21263   */\n      swap2\n      swap1\n      pop\n      jump\t// out\n        /* \"#utility.yul\":21269:21449   */\n    tag_308:\n        /* \"#utility.yul\":21409:21441   */\n      0x496e73756666696369656e7420636f6e74726163742062616c616e6365210000\n        /* \"#utility.yul\":21405:21406   */\n      0x00\n        /* \"#utility.yul\":21397:21403   */\n      dup3\n        /* \"#utility.yul\":21393:21407   */\n      add\n        /* \"#utility.yul\":21386:21442   */\n      mstore\n        /* \"#utility.yul\":21269:21449   */\n      pop\n      jump\t// out\n        /* \"#utility.yul\":21455:21821   */\n    tag_309:\n        /* \"#utility.yul\":21597:21600   */\n      0x00\n        /* \"#utility.yul\":21618:21685   */\n      tag_508\n        /* \"#utility.yul\":21682:21684   */\n      0x1e\n        /* \"#utility.yul\":21677:21680   */\n      dup4\n        /* \"#utility.yul\":21618:21685   */\n      tag_282\n      jump\t// in\n    tag_508:\n        /* \"#utility.yul\":21611:21685   */\n      swap2\n      pop\n        /* \"#utility.yul\":21694:21787   */\n      tag_509\n        /* \"#utility.yul\":21783:21786   */\n      dup3\n        /* \"#utility.yul\":21694:21787   */\n      tag_308\n      jump\t// in\n    tag_509:\n        /* \"#utility.yul\":21812:21814   */\n      0x20\n        /* \"#utility.yul\":21807:21810   */\n      dup3\n        /* \"#utility.yul\":21803:21815   */\n      add\n        /* \"#utility.yul\":21796:21815   */\n      swap1\n      pop\n        /* \"#utility.yul\":21455:21821   */\n      swap2\n      swap1\n      pop\n      jump\t// out\n        /* \"#utility.yul\":21827:22246   */\n    tag_228:\n        /* \"#utility.yul\":21993:21997   */\n      0x00\n        /* \"#utility.yul\":22031:22033   */\n      0x20\n        /* \"#utility.yul\":22020:22029   */\n      dup3\n        /* \"#utility.yul\":22016:22034   */\n      add\n        /* \"#utility.yul\":22008:22034   */\n      swap1\n      pop\n        /* \"#utility.yul\":22080:22089   */\n      dup2\n        /* \"#utility.yul\":22074:22078   */\n      dup2\n        /* \"#utility.yul\":22070:22090   */\n      sub\n        /* \"#utility.yul\":22066:22067   */\n      0x00\n        /* \"#utility.yul\":22055:22064   */\n      dup4\n        /* \"#utility.yul\":22051:22068   */\n      add\n        /* \"#utility.yul\":22044:22091   */\n      mstore\n        /* \"#utility.yul\":22108:22239   */\n      tag_511\n        /* \"#utility.yul\":22234:22238   */\n      dup2\n        /* \"#utility.yul\":22108:22239   */\n      tag_309\n      jump\t// in\n    tag_511:\n        /* \"#utility.yul\":22100:22239   */\n      swap1\n      pop\n        /* \"#utility.yul\":21827:22246   */\n      swap2\n      swap1\n      pop\n      jump\t// out\n        /* \"#utility.yul\":22252:22424   */\n    tag_310:\n        /* \"#utility.yul\":22392:22416   */\n      0x4661696c65642073656e64696e67207265776172642100000000000000000000\n        /* \"#utility.yul\":22388:22389   */\n      0x00\n        /* \"#utility.yul\":22380:22386   */\n      dup3\n        /* \"#utility.yul\":22376:22390   */\n      add\n        /* \"#utility.yul\":22369:22417   */\n      mstore\n        /* \"#utility.yul\":22252:22424   */\n      pop\n      jump\t// out\n        /* \"#utility.yul\":22430:22796   */\n    tag_311:\n        /* \"#utility.yul\":22572:22575   */\n      0x00\n        /* \"#utility.yul\":22593:22660   */\n      tag_514\n        /* \"#utility.yul\":22657:22659   */\n      0x16\n        /* \"#utility.yul\":22652:22655   */\n      dup4\n        /* \"#utility.yul\":22593:22660   */\n      tag_282\n      jump\t// in\n    tag_514:\n        /* \"#utility.yul\":22586:22660   */\n      swap2\n      pop\n        /* \"#utility.yul\":22669:22762   */\n      tag_515\n        /* \"#utility.yul\":22758:22761   */\n      dup3\n        /* \"#utility.yul\":22669:22762   */\n      tag_310\n      jump\t// in\n    tag_515:\n        /* \"#utility.yul\":22787:22789   */\n      0x20\n        /* \"#utility.yul\":22782:22785   */\n      dup3\n        /* \"#utility.yul\":22778:22790   */\n      add\n        /* \"#utility.yul\":22771:22790   */\n      swap1\n      pop\n        /* \"#utility.yul\":22430:22796   */\n      swap2\n      swap1\n      pop\n      jump\t// out\n        /* \"#utility.yul\":22802:23221   */\n    tag_235:\n        /* \"#utility.yul\":22968:22972   */\n      0x00\n        /* \"#utility.yul\":23006:23008   */\n      0x20\n        /* \"#utility.yul\":22995:23004   */\n      dup3\n        /* \"#utility.yul\":22991:23009   */\n      add\n        /* \"#utility.yul\":22983:23009   */\n      swap1\n      pop\n        /* \"#utility.yul\":23055:23064   */\n      dup2\n        /* \"#utility.yul\":23049:23053   */\n      dup2\n        /* \"#utility.yul\":23045:23065   */\n      sub\n        /* \"#utility.yul\":23041:23042   */\n      0x00\n        /* \"#utility.yul\":23030:23039   */\n      dup4\n        /* \"#utility.yul\":23026:23043   */\n      add\n        /* \"#utility.yul\":23019:23066   */\n      mstore\n        /* \"#utility.yul\":23083:23214   */\n      tag_517\n        /* \"#utility.yul\":23209:23213   */\n      dup2\n        /* \"#utility.yul\":23083:23214   */\n      tag_311\n      jump\t// in\n    tag_517:\n        /* \"#utility.yul\":23075:23214   */\n      swap1\n      pop\n        /* \"#utility.yul\":22802:23221   */\n      swap2\n      swap1\n      pop\n      jump\t// out\n\n    auxdata: 0xa26469706673582212205e74037a59299ed5ae8226ab4be3259676faea4e8af3615c69b9d061d57b2d1e64736f6c634300081e0033\n}\n",
				"bytecode": {
					"linkReferences": {},
					"object": "6080604052348015600e575f5ffd5b503360035f6101000a81548173ffffffffffffffffffffffffffffffffffffffff021916908373ffffffffffffffffffffffffffffffffffffffff1602179055506120888061005c5f395ff3fe60806040526004361061010c575f3560e01c80638dd2361c11610094578063cbf6426811610063578063cbf6426814610378578063cfc9a5f8146103a2578063ddd42596146103cc578063e38f8448146103f4578063ed0b1f5f1461041c57610113565b80638dd2361c146102b95780639886bcfa146102fc5780639c47174914610324578063bacb5ebd1461034e57610113565b806374119a38116100db57806374119a38146101cf578063754e150d146101ed5780637ed4c5be146102295780638aee578b146102535780638da5cb5b1461028f57610113565b806330cec0eb146101175780633ccfd60b1461015357806351f9efde146101695780635abad56b1461019357610113565b3661011357005b5f5ffd5b348015610122575f5ffd5b5061013d60048036038101906101389190611617565b610458565b60405161014a9190611702565b60405180910390f35b34801561015e575f5ffd5b506101676104eb565b005b348015610174575f5ffd5b5061017d61068d565b60405161018a9190611731565b60405180910390f35b34801561019e575f5ffd5b506101b960048036038101906101b49190611774565b610692565b6040516101c69190611812565b60405180910390f35b6101d761075d565b6040516101e49190611731565b60405180910390f35b3480156101f8575f5ffd5b50610213600480360381019061020e9190611774565b6109de565b6040516102209190611846565b60405180910390f35b348015610234575f5ffd5b5061023d610ab3565b60405161024a9190611731565b60405180910390f35b34801561025e575f5ffd5b506102796004803603810190610274919061185f565b610ab8565b6040516102869190611731565b60405180910390f35b34801561029a575f5ffd5b506102a3610ae3565b6040516102b091906118ac565b60405180910390f35b3480156102c4575f5ffd5b506102df60048036038101906102da9190611774565b610b08565b6040516102f39897969594939291906118df565b60405180910390f35b348015610307575f5ffd5b50610322600480360381019061031d9190611774565b610b9d565b005b34801561032f575f5ffd5b50610338610d83565b6040516103459190611731565b60405180910390f35b348015610359575f5ffd5b50610362610d89565b60405161036f9190611846565b60405180910390f35b348015610383575f5ffd5b5061038c610d8e565b6040516103999190611731565b60405180910390f35b3480156103ad575f5ffd5b506103b6610d99565b6040516103c39190611731565b60405180910390f35b3480156103d7575f5ffd5b506103f260048036038101906103ed9190611774565b610da4565b005b3480156103ff575f5ffd5b5061041a60048036038101906104159190611774565b610fe9565b005b348015610427575f5ffd5b50610442600480360381019061043d9190611774565b611353565b60405161044f9190611a37565b60405180910390f35b606060015f8373ffffffffffffffffffffffffffffffffffffffff1673ffffffffffffffffffffffffffffffffffffffff1681526020019081526020015f208054806020026020016040519081016040528092919081815260200182805480156104df57602002820191905f5260205f20905b8154815260200190600101908083116104cb575b50505050509050919050565b60035f9054906101000a900473ffffffffffffffffffffffffffffffffffffffff1673ffffffffffffffffffffffffffffffffffffffff163373ffffffffffffffffffffffffffffffffffffffff161461057a576040517f08c379a000000000000000000000000000000000000000000000000000000000815260040161057190611aab565b60405180910390fd5b5f4790505f81116105c0576040517f08c379a00000000000000000000000000000000000000000000000000000000081526004016105b790611b13565b60405180910390fd5b5f60035f9054906101000a900473ffffffffffffffffffffffffffffffffffffffff1673ffffffffffffffffffffffffffffffffffffffff168260405161060690611b5e565b5f6040518083038185875af1925050503d805f8114610640576040519150601f19603f3d011682016040523d82523d5f602084013e610645565b606091505b5050905080610689576040517f08c379a000000000000000000000000000000000000000000000000000000000815260040161068090611bbc565b60405180910390fd5b5050565b603c81565b5f813373ffffffffffffffffffffffffffffffffffffffff165f5f8381526020019081526020015f206001015f9054906101000a900473ffffffffffffffffffffffffffffffffffffffff1673ffffffffffffffffffffffffffffffffffffffff1614610734576040517f08c379a000000000000000000000000000000000000000000000000000000000815260040161072b90611c24565b60405180910390fd5b5f5f8481526020019081526020015f2060010160149054906101000a900460ff16915050919050565b5f66038d7ea4c680003410156107a8576040517f08c379a000000000000000000000000000000000000000000000000000000000815260040161079f90611c8c565b60405180910390fd5b60405180610100016040528060025481526020013373ffffffffffffffffffffffffffffffffffffffff1681526020015f60038111156107eb576107ea61179f565b5b8152602001428152602001428152602001606460ff1681526020016001151581526020015f15158152505f5f60025f815461082590611cd7565b91905081905581526020019081526020015f205f820151815f01556020820151816001015f6101000a81548173ffffffffffffffffffffffffffffffffffffffff021916908373ffffffffffffffffffffffffffffffffffffffff16021790555060408201518160010160146101000a81548160ff021916908360038111156108b1576108b061179f565b5b0217905550606082015181600201556080820151816003015560a0820151816004015f6101000a81548160ff021916908360ff16021790555060c08201518160040160016101000a81548160ff02191690831515021790555060e08201518160040160026101000a81548160ff02191690831515021790555090505060015f3373ffffffffffffffffffffffffffffffffffffffff1673ffffffffffffffffffffffffffffffffffffffff1681526020019081526020015f20600254908060018154018082558091505060019003905f5260205f20015f90919091909150556002543373ffffffffffffffffffffffffffffffffffffffff167f4f5b22082ac57121703b0b6c1203ef527cfbfa5069616fee6deb979d124adbf060405160405180910390a3600254905090565b5f5f5f5f8481526020019081526020015f2090508060040160019054906101000a900460ff161580610a1e57508060040160029054906101000a900460ff165b15610a2c575f915050610aae565b5f816003015442610a3d9190611d1e565b90505f601e82610a4d9190611d7e565b90505f600260ff1682610a609190611dae565b9050836004015f9054906101000a900460ff1660ff168110610a88575f945050505050610aae565b80846004015f9054906101000a900460ff1660ff16610aa79190611d1e565b9450505050505b919050565b601e81565b6001602052815f5260405f208181548110610ad1575f80fd5b905f5260205f20015f91509150505481565b60035f9054906101000a900473ffffffffffffffffffffffffffffffffffffffff1681565b5f602052805f5260405f205f91509050805f015490806001015f9054906101000a900473ffffffffffffffffffffffffffffffffffffffff16908060010160149054906101000a900460ff1690806002015490806003015490806004015f9054906101000a900460ff16908060040160019054906101000a900460ff16908060040160029054906101000a900460ff16905088565b805f5f8281526020019081526020015f2060040160019054906101000a900460ff16610bfe576040517f08c379a0000000000000000000000000000000000000000000000000000000008152600401610bf590611e39565b60405180910390fd5b815f5f8281526020019081526020015f2060040160029054906101000a900460ff1615610c60576040517f08c379a0000000000000000000000000000000000000000000000000000000008152600401610c5790611ea1565b60405180910390fd5b823373ffffffffffffffffffffffffffffffffffffffff165f5f8381526020019081526020015f206001015f9054906101000a900473ffffffffffffffffffffffffffffffffffffffff1673ffffffffffffffffffffffffffffffffffffffff1614610d01576040517f08c379a0000000000000000000000000000000000000000000000000000000008152600401610cf890611c24565b60405180910390fd5b5f5f5f8681526020019081526020015f2090506064816004015f6101000a81548160ff021916908360ff160217905550428160030181905550847fd4b742b9ba48fffa1f14267075a7793851770764117c423fd0a6550dfc8cb5746064604051610d6b9190611f01565b60405180910390a2610d7c85610da4565b5050505050565b60025481565b600281565b660aa87bee53800081565b66038d7ea4c6800081565b805f5f8281526020019081526020015f2060040160019054906101000a900460ff16610e05576040517f08c379a0000000000000000000000000000000000000000000000000000000008152600401610dfc90611e39565b60405180910390fd5b5f5f5f8481526020019081526020015f209050610e218361149c565b8060040160029054906101000a900460ff1615610e3e5750610fe5565b5f816002015442610e4f9190611d1e565b90505f8260010160149054906101000a900460ff1690506003603c610e749190611dae565b8210610eac5760038360010160146101000a81548160ff02191690836003811115610ea257610ea161179f565b5b0217905550610f5b565b6002603c610eba9190611dae565b8210610ef25760028360010160146101000a81548160ff02191690836003811115610ee857610ee761179f565b5b0217905550610f5a565b603c8210610f2c5760018360010160146101000a81548160ff02191690836003811115610f2257610f2161179f565b5b0217905550610f59565b5f8360010160146101000a81548160ff02191690836003811115610f5357610f5261179f565b5b02179055505b5b5b806003811115610f6e57610f6d61179f565b5b8360010160149054906101000a900460ff166003811115610f9257610f9161179f565b5b14610fe157847f338b8976706f9da67298dddfa1ea4ff7d99cce68b9ca39c4f348994f8e2124a88460010160149054906101000a900460ff16604051610fd89190611812565b60405180910390a25b5050505b5050565b805f5f8281526020019081526020015f2060040160019054906101000a900460ff1661104a576040517f08c379a000000000000000000000000000000000000000000000000000000000815260040161104190611e39565b60405180910390fd5b815f5f8281526020019081526020015f2060040160029054906101000a900460ff16156110ac576040517f08c379a00000000000000000000000000000000000000000000000000000000081526004016110a390611ea1565b60405180910390fd5b823373ffffffffffffffffffffffffffffffffffffffff165f5f8381526020019081526020015f206001015f9054906101000a900473ffffffffffffffffffffffffffffffffffffffff1673ffffffffffffffffffffffffffffffffffffffff161461114d576040517f08c379a000000000000000000000000000000000000000000000000000000000815260040161114490611c24565b60405180910390fd5b5f5f5f8681526020019081526020015f20905061116985610da4565b60038081111561117c5761117b61179f565b5b8160010160149054906101000a900460ff1660038111156111a05761119f61179f565b5b146111e0576040517f08c379a00000000000000000000000000000000000000000000000000000000081526004016111d790611f64565b60405180910390fd5b5f8160040160016101000a81548160ff0219169083151502179055503373ffffffffffffffffffffffffffffffffffffffff16857f79f2138ea100070ff95b59c265da7aa3c7a0f61595fe1bb2f5fda2762f398847660aa87bee53800060405161124a9190611731565b60405180910390a3660aa87bee53800047101561129c576040517f08c379a000000000000000000000000000000000000000000000000000000000815260040161129390611fcc565b60405180910390fd5b5f3373ffffffffffffffffffffffffffffffffffffffff16660aa87bee5380006040516112c890611b5e565b5f6040518083038185875af1925050503d805f8114611302576040519150601f19603f3d011682016040523d82523d5f602084013e611307565b606091505b505090508061134b576040517f08c379a000000000000000000000000000000000000000000000000000000000815260040161134290612034565b60405180910390fd5b505050505050565b61135b61154d565b5f5f5f8481526020019081526020015f20604051806101000160405290815f8201548152602001600182015f9054906101000a900473ffffffffffffffffffffffffffffffffffffffff1673ffffffffffffffffffffffffffffffffffffffff1673ffffffffffffffffffffffffffffffffffffffff1681526020016001820160149054906101000a900460ff1660038111156113fb576113fa61179f565b5b600381111561140d5761140c61179f565b5b81526020016002820154815260200160038201548152602001600482015f9054906101000a900460ff1660ff1660ff1681526020016004820160019054906101000a900460ff161515151581526020016004820160029054906101000a900460ff1615151515815250509050611482836109de565b8160a0019060ff16908160ff168152505080915050919050565b5f5f5f8381526020019081526020015f2090505f6114b9836109de565b905080826004015f6101000a81548160ff021916908360ff1602179055505f8160ff161480156114f857508160040160029054906101000a900460ff16155b156115485760018260040160026101000a81548160ff021916908315150217905550827fcc296a21951f3e57f21afb08547d835a0a9f0f06cc2867009cbe0cae44d36be960405160405180910390a25b505050565b6040518061010001604052805f81526020015f73ffffffffffffffffffffffffffffffffffffffff1681526020015f600381111561158e5761158d61179f565b5b81526020015f81526020015f81526020015f60ff1681526020015f151581526020015f151581525090565b5f5ffd5b5f73ffffffffffffffffffffffffffffffffffffffff82169050919050565b5f6115e6826115bd565b9050919050565b6115f6816115dc565b8114611600575f5ffd5b50565b5f81359050611611816115ed565b92915050565b5f6020828403121561162c5761162b6115b9565b5b5f61163984828501611603565b91505092915050565b5f81519050919050565b5f82825260208201905092915050565b5f819050602082019050919050565b5f819050919050565b61167d8161166b565b82525050565b5f61168e8383611674565b60208301905092915050565b5f602082019050919050565b5f6116b082611642565b6116ba818561164c565b93506116c58361165c565b805f5b838110156116f55781516116dc8882611683565b97506116e78361169a565b9250506001810190506116c8565b5085935050505092915050565b5f6020820190508181035f83015261171a81846116a6565b905092915050565b61172b8161166b565b82525050565b5f6020820190506117445f830184611722565b92915050565b6117538161166b565b811461175d575f5ffd5b50565b5f8135905061176e8161174a565b92915050565b5f60208284031215611789576117886115b9565b5b5f61179684828501611760565b91505092915050565b7f4e487b71000000000000000000000000000000000000000000000000000000005f52602160045260245ffd5b600481106117dd576117dc61179f565b5b50565b5f8190506117ed826117cc565b919050565b5f6117fc826117e0565b9050919050565b61180c816117f2565b82525050565b5f6020820190506118255f830184611803565b92915050565b5f60ff82169050919050565b6118408161182b565b82525050565b5f6020820190506118595f830184611837565b92915050565b5f5f60408385031215611875576118746115b9565b5b5f61188285828601611603565b925050602061189385828601611760565b9150509250929050565b6118a6816115dc565b82525050565b5f6020820190506118bf5f83018461189d565b92915050565b5f8115159050919050565b6118d9816118c5565b82525050565b5f610100820190506118f35f83018b611722565b611900602083018a61189d565b61190d6040830189611803565b61191a6060830188611722565b6119276080830187611722565b61193460a0830186611837565b61194160c08301856118d0565b61194e60e08301846118d0565b9998505050505050505050565b611964816115dc565b82525050565b611973816117f2565b82525050565b6119828161182b565b82525050565b611991816118c5565b82525050565b61010082015f8201516119ac5f850182611674565b5060208201516119bf602085018261195b565b5060408201516119d2604085018261196a565b5060608201516119e56060850182611674565b5060808201516119f86080850182611674565b5060a0820151611a0b60a0850182611979565b5060c0820151611a1e60c0850182611988565b5060e0820151611a3160e0850182611988565b50505050565b5f61010082019050611a4b5f830184611997565b92915050565b5f82825260208201905092915050565b7f4f6e6c79206f776e6572210000000000000000000000000000000000000000005f82015250565b5f611a95600b83611a51565b9150611aa082611a61565b602082019050919050565b5f6020820190508181035f830152611ac281611a89565b9050919050565b7f4e6f7468696e6720746f207769746864726177000000000000000000000000005f82015250565b5f611afd601383611a51565b9150611b0882611ac9565b602082019050919050565b5f6020820190508181035f830152611b2a81611af1565b9050919050565b5f81905092915050565b50565b5f611b495f83611b31565b9150611b5482611b3b565b5f82019050919050565b5f611b6882611b3e565b9150819050919050565b7f4661696c6564207472616e7366657200000000000000000000000000000000005f82015250565b5f611ba6600f83611a51565b9150611bb182611b72565b602082019050919050565b5f6020820190508181035f830152611bd381611b9a565b9050919050565b7f596f7520617265206e6f7420746865206f776e657221000000000000000000005f82015250565b5f611c0e601683611a51565b9150611c1982611bda565b602082019050919050565b5f6020820190508181035f830152611c3b81611c02565b9050919050565b7f496e73756666696369656e742062616c616e63652100000000000000000000005f82015250565b5f611c76601583611a51565b9150611c8182611c42565b602082019050919050565b5f6020820190508181035f830152611ca381611c6a565b9050919050565b7f4e487b71000000000000000000000000000000000000000000000000000000005f52601160045260245ffd5b5f611ce18261166b565b91507fffffffffffffffffffffffffffffffffffffffffffffffffffffffffffffffff8203611d1357611d12611caa565b5b600182019050919050565b5f611d288261166b565b9150611d338361166b565b9250828203905081811115611d4b57611d4a611caa565b5b92915050565b7f4e487b71000000000000000000000000000000000000000000000000000000005f52601260045260245ffd5b5f611d888261166b565b9150611d938361166b565b925082611da357611da2611d51565b5b828204905092915050565b5f611db88261166b565b9150611dc38361166b565b9250828202611dd18161166b565b91508282048414831517611de857611de7611caa565b5b5092915050565b7f506c616e7420646f65736e2774206578697374210000000000000000000000005f82015250565b5f611e23601483611a51565b9150611e2e82611def565b602082019050919050565b5f6020820190508181035f830152611e5081611e17565b9050919050565b7f506c616e7420616c7265616479206465616421000000000000000000000000005f82015250565b5f611e8b601383611a51565b9150611e9682611e57565b602082019050919050565b5f6020820190508181035f830152611eb881611e7f565b9050919050565b5f819050919050565b5f819050919050565b5f611eeb611ee6611ee184611ebf565b611ec8565b61182b565b9050919050565b611efb81611ed1565b82525050565b5f602082019050611f145f830184611ef2565b92915050565b7f506c616e74206e6f7420626c6f6f6d696e6720796574210000000000000000005f82015250565b5f611f4e601783611a51565b9150611f5982611f1a565b602082019050919050565b5f6020820190508181035f830152611f7b81611f42565b9050919050565b7f496e73756666696369656e7420636f6e74726163742062616c616e63652100005f82015250565b5f611fb6601e83611a51565b9150611fc182611f82565b602082019050919050565b5f6020820190508181035f830152611fe381611faa565b9050919050565b7f4661696c65642073656e64696e672072657761726421000000000000000000005f82015250565b5f61201e601683611a51565b915061202982611fea565b602082019050919050565b5f6020820190508181035f83015261204b81612012565b905091905056fea26469706673582212205e74037a59299ed5ae8226ab4be3259676faea4e8af3615c69b9d061d57b2d1e64736f6c634300081e0033",
					"opcodes": "PUSH1 0x80 PUSH1 0x40 MSTORE CALLVALUE DUP1 ISZERO PUSH1 0xE JUMPI PUSH0 PUSH0 REVERT JUMPDEST POP CALLER PUSH1 0x3 PUSH0 PUSH2 0x100 EXP DUP2 SLOAD DUP2 PUSH20 0xFFFFFFFFFFFFFFFFFFFFFFFFFFFFFFFFFFFFFFFF MUL NOT AND SWAP1 DUP4 PUSH20 0xFFFFFFFFFFFFFFFFFFFFFFFFFFFFFFFFFFFFFFFF AND MUL OR SWAP1 SSTORE POP PUSH2 0x2088 DUP1 PUSH2 0x5C PUSH0 CODECOPY PUSH0 RETURN INVALID PUSH1 0x80 PUSH1 0x40 MSTORE PUSH1 0x4 CALLDATASIZE LT PUSH2 0x10C JUMPI PUSH0 CALLDATALOAD PUSH1 0xE0 SHR DUP1 PUSH4 0x8DD2361C GT PUSH2 0x94 JUMPI DUP1 PUSH4 0xCBF64268 GT PUSH2 0x63 JUMPI DUP1 PUSH4 0xCBF64268 EQ PUSH2 0x378 JUMPI DUP1 PUSH4 0xCFC9A5F8 EQ PUSH2 0x3A2 JUMPI DUP1 PUSH4 0xDDD42596 EQ PUSH2 0x3CC JUMPI DUP1 PUSH4 0xE38F8448 EQ PUSH2 0x3F4 JUMPI DUP1 PUSH4 0xED0B1F5F EQ PUSH2 0x41C JUMPI PUSH2 0x113 JUMP JUMPDEST DUP1 PUSH4 0x8DD2361C EQ PUSH2 0x2B9 JUMPI DUP1 PUSH4 0x9886BCFA EQ PUSH2 0x2FC JUMPI DUP1 PUSH4 0x9C471749 EQ PUSH2 0x324 JUMPI DUP1 PUSH4 0xBACB5EBD EQ PUSH2 0x34E JUMPI PUSH2 0x113 JUMP JUMPDEST DUP1 PUSH4 0x74119A38 GT PUSH2 0xDB JUMPI DUP1 PUSH4 0x74119A38 EQ PUSH2 0x1CF JUMPI DUP1 PUSH4 0x754E150D EQ PUSH2 0x1ED JUMPI DUP1 PUSH4 0x7ED4C5BE EQ PUSH2 0x229 JUMPI DUP1 PUSH4 0x8AEE578B EQ PUSH2 0x253 JUMPI DUP1 PUSH4 0x8DA5CB5B EQ PUSH2 0x28F JUMPI PUSH2 0x113 JUMP JUMPDEST DUP1 PUSH4 0x30CEC0EB EQ PUSH2 0x117 JUMPI DUP1 PUSH4 0x3CCFD60B EQ PUSH2 0x153 JUMPI DUP1 PUSH4 0x51F9EFDE EQ PUSH2 0x169 JUMPI DUP1 PUSH4 0x5ABAD56B EQ PUSH2 0x193 JUMPI PUSH2 0x113 JUMP JUMPDEST CALLDATASIZE PUSH2 0x113 JUMPI STOP JUMPDEST PUSH0 PUSH0 REVERT JUMPDEST CALLVALUE DUP1 ISZERO PUSH2 0x122 JUMPI PUSH0 PUSH0 REVERT JUMPDEST POP PUSH2 0x13D PUSH1 0x4 DUP1 CALLDATASIZE SUB DUP2 ADD SWAP1 PUSH2 0x138 SWAP2 SWAP1 PUSH2 0x1617 JUMP JUMPDEST PUSH2 0x458 JUMP JUMPDEST PUSH1 0x40 MLOAD PUSH2 0x14A SWAP2 SWAP1 PUSH2 0x1702 JUMP JUMPDEST PUSH1 0x40 MLOAD DUP1 SWAP2 SUB SWAP1 RETURN JUMPDEST CALLVALUE DUP1 ISZERO PUSH2 0x15E JUMPI PUSH0 PUSH0 REVERT JUMPDEST POP PUSH2 0x167 PUSH2 0x4EB JUMP JUMPDEST STOP JUMPDEST CALLVALUE DUP1 ISZERO PUSH2 0x174 JUMPI PUSH0 PUSH0 REVERT JUMPDEST POP PUSH2 0x17D PUSH2 0x68D JUMP JUMPDEST PUSH1 0x40 MLOAD PUSH2 0x18A SWAP2 SWAP1 PUSH2 0x1731 JUMP JUMPDEST PUSH1 0x40 MLOAD DUP1 SWAP2 SUB SWAP1 RETURN JUMPDEST CALLVALUE DUP1 ISZERO PUSH2 0x19E JUMPI PUSH0 PUSH0 REVERT JUMPDEST POP PUSH2 0x1B9 PUSH1 0x4 DUP1 CALLDATASIZE SUB DUP2 ADD SWAP1 PUSH2 0x1B4 SWAP2 SWAP1 PUSH2 0x1774 JUMP JUMPDEST PUSH2 0x692 JUMP JUMPDEST PUSH1 0x40 MLOAD PUSH2 0x1C6 SWAP2 SWAP1 PUSH2 0x1812 JUMP JUMPDEST PUSH1 0x40 MLOAD DUP1 SWAP2 SUB SWAP1 RETURN JUMPDEST PUSH2 0x1D7 PUSH2 0x75D JUMP JUMPDEST PUSH1 0x40 MLOAD PUSH2 0x1E4 SWAP2 SWAP1 PUSH2 0x1731 JUMP JUMPDEST PUSH1 0x40 MLOAD DUP1 SWAP2 SUB SWAP1 RETURN JUMPDEST CALLVALUE DUP1 ISZERO PUSH2 0x1F8 JUMPI PUSH0 PUSH0 REVERT JUMPDEST POP PUSH2 0x213 PUSH1 0x4 DUP1 CALLDATASIZE SUB DUP2 ADD SWAP1 PUSH2 0x20E SWAP2 SWAP1 PUSH2 0x1774 JUMP JUMPDEST PUSH2 0x9DE JUMP JUMPDEST PUSH1 0x40 MLOAD PUSH2 0x220 SWAP2 SWAP1 PUSH2 0x1846 JUMP JUMPDEST PUSH1 0x40 MLOAD DUP1 SWAP2 SUB SWAP1 RETURN JUMPDEST CALLVALUE DUP1 ISZERO PUSH2 0x234 JUMPI PUSH0 PUSH0 REVERT JUMPDEST POP PUSH2 0x23D PUSH2 0xAB3 JUMP JUMPDEST PUSH1 0x40 MLOAD PUSH2 0x24A SWAP2 SWAP1 PUSH2 0x1731 JUMP JUMPDEST PUSH1 0x40 MLOAD DUP1 SWAP2 SUB SWAP1 RETURN JUMPDEST CALLVALUE DUP1 ISZERO PUSH2 0x25E JUMPI PUSH0 PUSH0 REVERT JUMPDEST POP PUSH2 0x279 PUSH1 0x4 DUP1 CALLDATASIZE SUB DUP2 ADD SWAP1 PUSH2 0x274 SWAP2 SWAP1 PUSH2 0x185F JUMP JUMPDEST PUSH2 0xAB8 JUMP JUMPDEST PUSH1 0x40 MLOAD PUSH2 0x286 SWAP2 SWAP1 PUSH2 0x1731 JUMP JUMPDEST PUSH1 0x40 MLOAD DUP1 SWAP2 SUB SWAP1 RETURN JUMPDEST CALLVALUE DUP1 ISZERO PUSH2 0x29A JUMPI PUSH0 PUSH0 REVERT JUMPDEST POP PUSH2 0x2A3 PUSH2 0xAE3 JUMP JUMPDEST PUSH1 0x40 MLOAD PUSH2 0x2B0 SWAP2 SWAP1 PUSH2 0x18AC JUMP JUMPDEST PUSH1 0x40 MLOAD DUP1 SWAP2 SUB SWAP1 RETURN JUMPDEST CALLVALUE DUP1 ISZERO PUSH2 0x2C4 JUMPI PUSH0 PUSH0 REVERT JUMPDEST POP PUSH2 0x2DF PUSH1 0x4 DUP1 CALLDATASIZE SUB DUP2 ADD SWAP1 PUSH2 0x2DA SWAP2 SWAP1 PUSH2 0x1774 JUMP JUMPDEST PUSH2 0xB08 JUMP JUMPDEST PUSH1 0x40 MLOAD PUSH2 0x2F3 SWAP9 SWAP8 SWAP7 SWAP6 SWAP5 SWAP4 SWAP3 SWAP2 SWAP1 PUSH2 0x18DF JUMP JUMPDEST PUSH1 0x40 MLOAD DUP1 SWAP2 SUB SWAP1 RETURN JUMPDEST CALLVALUE DUP1 ISZERO PUSH2 0x307 JUMPI PUSH0 PUSH0 REVERT JUMPDEST POP PUSH2 0x322 PUSH1 0x4 DUP1 CALLDATASIZE SUB DUP2 ADD SWAP1 PUSH2 0x31D SWAP2 SWAP1 PUSH2 0x1774 JUMP JUMPDEST PUSH2 0xB9D JUMP JUMPDEST STOP JUMPDEST CALLVALUE DUP1 ISZERO PUSH2 0x32F JUMPI PUSH0 PUSH0 REVERT JUMPDEST POP PUSH2 0x338 PUSH2 0xD83 JUMP JUMPDEST PUSH1 0x40 MLOAD PUSH2 0x345 SWAP2 SWAP1 PUSH2 0x1731 JUMP JUMPDEST PUSH1 0x40 MLOAD DUP1 SWAP2 SUB SWAP1 RETURN JUMPDEST CALLVALUE DUP1 ISZERO PUSH2 0x359 JUMPI PUSH0 PUSH0 REVERT JUMPDEST POP PUSH2 0x362 PUSH2 0xD89 JUMP JUMPDEST PUSH1 0x40 MLOAD PUSH2 0x36F SWAP2 SWAP1 PUSH2 0x1846 JUMP JUMPDEST PUSH1 0x40 MLOAD DUP1 SWAP2 SUB SWAP1 RETURN JUMPDEST CALLVALUE DUP1 ISZERO PUSH2 0x383 JUMPI PUSH0 PUSH0 REVERT JUMPDEST POP PUSH2 0x38C PUSH2 0xD8E JUMP JUMPDEST PUSH1 0x40 MLOAD PUSH2 0x399 SWAP2 SWAP1 PUSH2 0x1731 JUMP JUMPDEST PUSH1 0x40 MLOAD DUP1 SWAP2 SUB SWAP1 RETURN JUMPDEST CALLVALUE DUP1 ISZERO PUSH2 0x3AD JUMPI PUSH0 PUSH0 REVERT JUMPDEST POP PUSH2 0x3B6 PUSH2 0xD99 JUMP JUMPDEST PUSH1 0x40 MLOAD PUSH2 0x3C3 SWAP2 SWAP1 PUSH2 0x1731 JUMP JUMPDEST PUSH1 0x40 MLOAD DUP1 SWAP2 SUB SWAP1 RETURN JUMPDEST CALLVALUE DUP1 ISZERO PUSH2 0x3D7 JUMPI PUSH0 PUSH0 REVERT JUMPDEST POP PUSH2 0x3F2 PUSH1 0x4 DUP1 CALLDATASIZE SUB DUP2 ADD SWAP1 PUSH2 0x3ED SWAP2 SWAP1 PUSH2 0x1774 JUMP JUMPDEST PUSH2 0xDA4 JUMP JUMPDEST STOP JUMPDEST CALLVALUE DUP1 ISZERO PUSH2 0x3FF JUMPI PUSH0 PUSH0 REVERT JUMPDEST POP PUSH2 0x41A PUSH1 0x4 DUP1 CALLDATASIZE SUB DUP2 ADD SWAP1 PUSH2 0x415 SWAP2 SWAP1 PUSH2 0x1774 JUMP JUMPDEST PUSH2 0xFE9 JUMP JUMPDEST STOP JUMPDEST CALLVALUE DUP1 ISZERO PUSH2 0x427 JUMPI PUSH0 PUSH0 REVERT JUMPDEST POP PUSH2 0x442 PUSH1 0x4 DUP1 CALLDATASIZE SUB DUP2 ADD SWAP1 PUSH2 0x43D SWAP2 SWAP1 PUSH2 0x1774 JUMP JUMPDEST PUSH2 0x1353 JUMP JUMPDEST PUSH1 0x40 MLOAD PUSH2 0x44F SWAP2 SWAP1 PUSH2 0x1A37 JUMP JUMPDEST PUSH1 0x40 MLOAD DUP1 SWAP2 SUB SWAP1 RETURN JUMPDEST PUSH1 0x60 PUSH1 0x1 PUSH0 DUP4 PUSH20 0xFFFFFFFFFFFFFFFFFFFFFFFFFFFFFFFFFFFFFFFF AND PUSH20 0xFFFFFFFFFFFFFFFFFFFFFFFFFFFFFFFFFFFFFFFF AND DUP2 MSTORE PUSH1 0x20 ADD SWAP1 DUP2 MSTORE PUSH1 0x20 ADD PUSH0 KECCAK256 DUP1 SLOAD DUP1 PUSH1 0x20 MUL PUSH1 0x20 ADD PUSH1 0x40 MLOAD SWAP1 DUP2 ADD PUSH1 0x40 MSTORE DUP1 SWAP3 SWAP2 SWAP1 DUP2 DUP2 MSTORE PUSH1 0x20 ADD DUP3 DUP1 SLOAD DUP1 ISZERO PUSH2 0x4DF JUMPI PUSH1 0x20 MUL DUP3 ADD SWAP2 SWAP1 PUSH0 MSTORE PUSH1 0x20 PUSH0 KECCAK256 SWAP1 JUMPDEST DUP2 SLOAD DUP2 MSTORE PUSH1 0x20 ADD SWAP1 PUSH1 0x1 ADD SWAP1 DUP1 DUP4 GT PUSH2 0x4CB JUMPI JUMPDEST POP POP POP POP POP SWAP1 POP SWAP2 SWAP1 POP JUMP JUMPDEST PUSH1 0x3 PUSH0 SWAP1 SLOAD SWAP1 PUSH2 0x100 EXP SWAP1 DIV PUSH20 0xFFFFFFFFFFFFFFFFFFFFFFFFFFFFFFFFFFFFFFFF AND PUSH20 0xFFFFFFFFFFFFFFFFFFFFFFFFFFFFFFFFFFFFFFFF AND CALLER PUSH20 0xFFFFFFFFFFFFFFFFFFFFFFFFFFFFFFFFFFFFFFFF AND EQ PUSH2 0x57A JUMPI PUSH1 0x40 MLOAD PUSH32 0x8C379A000000000000000000000000000000000000000000000000000000000 DUP2 MSTORE PUSH1 0x4 ADD PUSH2 0x571 SWAP1 PUSH2 0x1AAB JUMP JUMPDEST PUSH1 0x40 MLOAD DUP1 SWAP2 SUB SWAP1 REVERT JUMPDEST PUSH0 SELFBALANCE SWAP1 POP PUSH0 DUP2 GT PUSH2 0x5C0 JUMPI PUSH1 0x40 MLOAD PUSH32 0x8C379A000000000000000000000000000000000000000000000000000000000 DUP2 MSTORE PUSH1 0x4 ADD PUSH2 0x5B7 SWAP1 PUSH2 0x1B13 JUMP JUMPDEST PUSH1 0x40 MLOAD DUP1 SWAP2 SUB SWAP1 REVERT JUMPDEST PUSH0 PUSH1 0x3 PUSH0 SWAP1 SLOAD SWAP1 PUSH2 0x100 EXP SWAP1 DIV PUSH20 0xFFFFFFFFFFFFFFFFFFFFFFFFFFFFFFFFFFFFFFFF AND PUSH20 0xFFFFFFFFFFFFFFFFFFFFFFFFFFFFFFFFFFFFFFFF AND DUP3 PUSH1 0x40 MLOAD PUSH2 0x606 SWAP1 PUSH2 0x1B5E JUMP JUMPDEST PUSH0 PUSH1 0x40 MLOAD DUP1 DUP4 SUB DUP2 DUP6 DUP8 GAS CALL SWAP3 POP POP POP RETURNDATASIZE DUP1 PUSH0 DUP2 EQ PUSH2 0x640 JUMPI PUSH1 0x40 MLOAD SWAP2 POP PUSH1 0x1F NOT PUSH1 0x3F RETURNDATASIZE ADD AND DUP3 ADD PUSH1 0x40 MSTORE RETURNDATASIZE DUP3 MSTORE RETURNDATASIZE PUSH0 PUSH1 0x20 DUP5 ADD RETURNDATACOPY PUSH2 0x645 JUMP JUMPDEST PUSH1 0x60 SWAP2 POP JUMPDEST POP POP SWAP1 POP DUP1 PUSH2 0x689 JUMPI PUSH1 0x40 MLOAD PUSH32 0x8C379A000000000000000000000000000000000000000000000000000000000 DUP2 MSTORE PUSH1 0x4 ADD PUSH2 0x680 SWAP1 PUSH2 0x1BBC JUMP JUMPDEST PUSH1 0x40 MLOAD DUP1 SWAP2 SUB SWAP1 REVERT JUMPDEST POP POP JUMP JUMPDEST PUSH1 0x3C DUP2 JUMP JUMPDEST PUSH0 DUP2 CALLER PUSH20 0xFFFFFFFFFFFFFFFFFFFFFFFFFFFFFFFFFFFFFFFF AND PUSH0 PUSH0 DUP4 DUP2 MSTORE PUSH1 0x20 ADD SWAP1 DUP2 MSTORE PUSH1 0x20 ADD PUSH0 KECCAK256 PUSH1 0x1 ADD PUSH0 SWAP1 SLOAD SWAP1 PUSH2 0x100 EXP SWAP1 DIV PUSH20 0xFFFFFFFFFFFFFFFFFFFFFFFFFFFFFFFFFFFFFFFF AND PUSH20 0xFFFFFFFFFFFFFFFFFFFFFFFFFFFFFFFFFFFFFFFF AND EQ PUSH2 0x734 JUMPI PUSH1 0x40 MLOAD PUSH32 0x8C379A000000000000000000000000000000000000000000000000000000000 DUP2 MSTORE PUSH1 0x4 ADD PUSH2 0x72B SWAP1 PUSH2 0x1C24 JUMP JUMPDEST PUSH1 0x40 MLOAD DUP1 SWAP2 SUB SWAP1 REVERT JUMPDEST PUSH0 PUSH0 DUP5 DUP2 MSTORE PUSH1 0x20 ADD SWAP1 DUP2 MSTORE PUSH1 0x20 ADD PUSH0 KECCAK256 PUSH1 0x1 ADD PUSH1 0x14 SWAP1 SLOAD SWAP1 PUSH2 0x100 EXP SWAP1 DIV PUSH1 0xFF AND SWAP2 POP POP SWAP2 SWAP1 POP JUMP JUMPDEST PUSH0 PUSH7 0x38D7EA4C68000 CALLVALUE LT ISZERO PUSH2 0x7A8 JUMPI PUSH1 0x40 MLOAD PUSH32 0x8C379A000000000000000000000000000000000000000000000000000000000 DUP2 MSTORE PUSH1 0x4 ADD PUSH2 0x79F SWAP1 PUSH2 0x1C8C JUMP JUMPDEST PUSH1 0x40 MLOAD DUP1 SWAP2 SUB SWAP1 REVERT JUMPDEST PUSH1 0x40 MLOAD DUP1 PUSH2 0x100 ADD PUSH1 0x40 MSTORE DUP1 PUSH1 0x2 SLOAD DUP2 MSTORE PUSH1 0x20 ADD CALLER PUSH20 0xFFFFFFFFFFFFFFFFFFFFFFFFFFFFFFFFFFFFFFFF AND DUP2 MSTORE PUSH1 0x20 ADD PUSH0 PUSH1 0x3 DUP2 GT ISZERO PUSH2 0x7EB JUMPI PUSH2 0x7EA PUSH2 0x179F JUMP JUMPDEST JUMPDEST DUP2 MSTORE PUSH1 0x20 ADD TIMESTAMP DUP2 MSTORE PUSH1 0x20 ADD TIMESTAMP DUP2 MSTORE PUSH1 0x20 ADD PUSH1 0x64 PUSH1 0xFF AND DUP2 MSTORE PUSH1 0x20 ADD PUSH1 0x1 ISZERO ISZERO DUP2 MSTORE PUSH1 0x20 ADD PUSH0 ISZERO ISZERO DUP2 MSTORE POP PUSH0 PUSH0 PUSH1 0x2 PUSH0 DUP2 SLOAD PUSH2 0x825 SWAP1 PUSH2 0x1CD7 JUMP JUMPDEST SWAP2 SWAP1 POP DUP2 SWAP1 SSTORE DUP2 MSTORE PUSH1 0x20 ADD SWAP1 DUP2 MSTORE PUSH1 0x20 ADD PUSH0 KECCAK256 PUSH0 DUP3 ADD MLOAD DUP2 PUSH0 ADD SSTORE PUSH1 0x20 DUP3 ADD MLOAD DUP2 PUSH1 0x1 ADD PUSH0 PUSH2 0x100 EXP DUP2 SLOAD DUP2 PUSH20 0xFFFFFFFFFFFFFFFFFFFFFFFFFFFFFFFFFFFFFFFF MUL NOT AND SWAP1 DUP4 PUSH20 0xFFFFFFFFFFFFFFFFFFFFFFFFFFFFFFFFFFFFFFFF AND MUL OR SWAP1 SSTORE POP PUSH1 0x40 DUP3 ADD MLOAD DUP2 PUSH1 0x1 ADD PUSH1 0x14 PUSH2 0x100 EXP DUP2 SLOAD DUP2 PUSH1 0xFF MUL NOT AND SWAP1 DUP4 PUSH1 0x3 DUP2 GT ISZERO PUSH2 0x8B1 JUMPI PUSH2 0x8B0 PUSH2 0x179F JUMP JUMPDEST JUMPDEST MUL OR SWAP1 SSTORE POP PUSH1 0x60 DUP3 ADD MLOAD DUP2 PUSH1 0x2 ADD SSTORE PUSH1 0x80 DUP3 ADD MLOAD DUP2 PUSH1 0x3 ADD SSTORE PUSH1 0xA0 DUP3 ADD MLOAD DUP2 PUSH1 0x4 ADD PUSH0 PUSH2 0x100 EXP DUP2 SLOAD DUP2 PUSH1 0xFF MUL NOT AND SWAP1 DUP4 PUSH1 0xFF AND MUL OR SWAP1 SSTORE POP PUSH1 0xC0 DUP3 ADD MLOAD DUP2 PUSH1 0x4 ADD PUSH1 0x1 PUSH2 0x100 EXP DUP2 SLOAD DUP2 PUSH1 0xFF MUL NOT AND SWAP1 DUP4 ISZERO ISZERO MUL OR SWAP1 SSTORE POP PUSH1 0xE0 DUP3 ADD MLOAD DUP2 PUSH1 0x4 ADD PUSH1 0x2 PUSH2 0x100 EXP DUP2 SLOAD DUP2 PUSH1 0xFF MUL NOT AND SWAP1 DUP4 ISZERO ISZERO MUL OR SWAP1 SSTORE POP SWAP1 POP POP PUSH1 0x1 PUSH0 CALLER PUSH20 0xFFFFFFFFFFFFFFFFFFFFFFFFFFFFFFFFFFFFFFFF AND PUSH20 0xFFFFFFFFFFFFFFFFFFFFFFFFFFFFFFFFFFFFFFFF AND DUP2 MSTORE PUSH1 0x20 ADD SWAP1 DUP2 MSTORE PUSH1 0x20 ADD PUSH0 KECCAK256 PUSH1 0x2 SLOAD SWAP1 DUP1 PUSH1 0x1 DUP2 SLOAD ADD DUP1 DUP3 SSTORE DUP1 SWAP2 POP POP PUSH1 0x1 SWAP1 SUB SWAP1 PUSH0 MSTORE PUSH1 0x20 PUSH0 KECCAK256 ADD PUSH0 SWAP1 SWAP2 SWAP1 SWAP2 SWAP1 SWAP2 POP SSTORE PUSH1 0x2 SLOAD CALLER PUSH20 0xFFFFFFFFFFFFFFFFFFFFFFFFFFFFFFFFFFFFFFFF AND PUSH32 0x4F5B22082AC57121703B0B6C1203EF527CFBFA5069616FEE6DEB979D124ADBF0 PUSH1 0x40 MLOAD PUSH1 0x40 MLOAD DUP1 SWAP2 SUB SWAP1 LOG3 PUSH1 0x2 SLOAD SWAP1 POP SWAP1 JUMP JUMPDEST PUSH0 PUSH0 PUSH0 PUSH0 DUP5 DUP2 MSTORE PUSH1 0x20 ADD SWAP1 DUP2 MSTORE PUSH1 0x20 ADD PUSH0 KECCAK256 SWAP1 POP DUP1 PUSH1 0x4 ADD PUSH1 0x1 SWAP1 SLOAD SWAP1 PUSH2 0x100 EXP SWAP1 DIV PUSH1 0xFF AND ISZERO DUP1 PUSH2 0xA1E JUMPI POP DUP1 PUSH1 0x4 ADD PUSH1 0x2 SWAP1 SLOAD SWAP1 PUSH2 0x100 EXP SWAP1 DIV PUSH1 0xFF AND JUMPDEST ISZERO PUSH2 0xA2C JUMPI PUSH0 SWAP2 POP POP PUSH2 0xAAE JUMP JUMPDEST PUSH0 DUP2 PUSH1 0x3 ADD SLOAD TIMESTAMP PUSH2 0xA3D SWAP2 SWAP1 PUSH2 0x1D1E JUMP JUMPDEST SWAP1 POP PUSH0 PUSH1 0x1E DUP3 PUSH2 0xA4D SWAP2 SWAP1 PUSH2 0x1D7E JUMP JUMPDEST SWAP1 POP PUSH0 PUSH1 0x2 PUSH1 0xFF AND DUP3 PUSH2 0xA60 SWAP2 SWAP1 PUSH2 0x1DAE JUMP JUMPDEST SWAP1 POP DUP4 PUSH1 0x4 ADD PUSH0 SWAP1 SLOAD SWAP1 PUSH2 0x100 EXP SWAP1 DIV PUSH1 0xFF AND PUSH1 0xFF AND DUP2 LT PUSH2 0xA88 JUMPI PUSH0 SWAP5 POP POP POP POP POP PUSH2 0xAAE JUMP JUMPDEST DUP1 DUP5 PUSH1 0x4 ADD PUSH0 SWAP1 SLOAD SWAP1 PUSH2 0x100 EXP SWAP1 DIV PUSH1 0xFF AND PUSH1 0xFF AND PUSH2 0xAA7 SWAP2 SWAP1 PUSH2 0x1D1E JUMP JUMPDEST SWAP5 POP POP POP POP POP JUMPDEST SWAP2 SWAP1 POP JUMP JUMPDEST PUSH1 0x1E DUP2 JUMP JUMPDEST PUSH1 0x1 PUSH1 0x20 MSTORE DUP2 PUSH0 MSTORE PUSH1 0x40 PUSH0 KECCAK256 DUP2 DUP2 SLOAD DUP2 LT PUSH2 0xAD1 JUMPI PUSH0 DUP1 REVERT JUMPDEST SWAP1 PUSH0 MSTORE PUSH1 0x20 PUSH0 KECCAK256 ADD PUSH0 SWAP2 POP SWAP2 POP POP SLOAD DUP2 JUMP JUMPDEST PUSH1 0x3 PUSH0 SWAP1 SLOAD SWAP1 PUSH2 0x100 EXP SWAP1 DIV PUSH20 0xFFFFFFFFFFFFFFFFFFFFFFFFFFFFFFFFFFFFFFFF AND DUP2 JUMP JUMPDEST PUSH0 PUSH1 0x20 MSTORE DUP1 PUSH0 MSTORE PUSH1 0x40 PUSH0 KECCAK256 PUSH0 SWAP2 POP SWAP1 POP DUP1 PUSH0 ADD SLOAD SWAP1 DUP1 PUSH1 0x1 ADD PUSH0 SWAP1 SLOAD SWAP1 PUSH2 0x100 EXP SWAP1 DIV PUSH20 0xFFFFFFFFFFFFFFFFFFFFFFFFFFFFFFFFFFFFFFFF AND SWAP1 DUP1 PUSH1 0x1 ADD PUSH1 0x14 SWAP1 SLOAD SWAP1 PUSH2 0x100 EXP SWAP1 DIV PUSH1 0xFF AND SWAP1 DUP1 PUSH1 0x2 ADD SLOAD SWAP1 DUP1 PUSH1 0x3 ADD SLOAD SWAP1 DUP1 PUSH1 0x4 ADD PUSH0 SWAP1 SLOAD SWAP1 PUSH2 0x100 EXP SWAP1 DIV PUSH1 0xFF AND SWAP1 DUP1 PUSH1 0x4 ADD PUSH1 0x1 SWAP1 SLOAD SWAP1 PUSH2 0x100 EXP SWAP1 DIV PUSH1 0xFF AND SWAP1 DUP1 PUSH1 0x4 ADD PUSH1 0x2 SWAP1 SLOAD SWAP1 PUSH2 0x100 EXP SWAP1 DIV PUSH1 0xFF AND SWAP1 POP DUP9 JUMP JUMPDEST DUP1 PUSH0 PUSH0 DUP3 DUP2 MSTORE PUSH1 0x20 ADD SWAP1 DUP2 MSTORE PUSH1 0x20 ADD PUSH0 KECCAK256 PUSH1 0x4 ADD PUSH1 0x1 SWAP1 SLOAD SWAP1 PUSH2 0x100 EXP SWAP1 DIV PUSH1 0xFF AND PUSH2 0xBFE JUMPI PUSH1 0x40 MLOAD PUSH32 0x8C379A000000000000000000000000000000000000000000000000000000000 DUP2 MSTORE PUSH1 0x4 ADD PUSH2 0xBF5 SWAP1 PUSH2 0x1E39 JUMP JUMPDEST PUSH1 0x40 MLOAD DUP1 SWAP2 SUB SWAP1 REVERT JUMPDEST DUP2 PUSH0 PUSH0 DUP3 DUP2 MSTORE PUSH1 0x20 ADD SWAP1 DUP2 MSTORE PUSH1 0x20 ADD PUSH0 KECCAK256 PUSH1 0x4 ADD PUSH1 0x2 SWAP1 SLOAD SWAP1 PUSH2 0x100 EXP SWAP1 DIV PUSH1 0xFF AND ISZERO PUSH2 0xC60 JUMPI PUSH1 0x40 MLOAD PUSH32 0x8C379A000000000000000000000000000000000000000000000000000000000 DUP2 MSTORE PUSH1 0x4 ADD PUSH2 0xC57 SWAP1 PUSH2 0x1EA1 JUMP JUMPDEST PUSH1 0x40 MLOAD DUP1 SWAP2 SUB SWAP1 REVERT JUMPDEST DUP3 CALLER PUSH20 0xFFFFFFFFFFFFFFFFFFFFFFFFFFFFFFFFFFFFFFFF AND PUSH0 PUSH0 DUP4 DUP2 MSTORE PUSH1 0x20 ADD SWAP1 DUP2 MSTORE PUSH1 0x20 ADD PUSH0 KECCAK256 PUSH1 0x1 ADD PUSH0 SWAP1 SLOAD SWAP1 PUSH2 0x100 EXP SWAP1 DIV PUSH20 0xFFFFFFFFFFFFFFFFFFFFFFFFFFFFFFFFFFFFFFFF AND PUSH20 0xFFFFFFFFFFFFFFFFFFFFFFFFFFFFFFFFFFFFFFFF AND EQ PUSH2 0xD01 JUMPI PUSH1 0x40 MLOAD PUSH32 0x8C379A000000000000000000000000000000000000000000000000000000000 DUP2 MSTORE PUSH1 0x4 ADD PUSH2 0xCF8 SWAP1 PUSH2 0x1C24 JUMP JUMPDEST PUSH1 0x40 MLOAD DUP1 SWAP2 SUB SWAP1 REVERT JUMPDEST PUSH0 PUSH0 PUSH0 DUP7 DUP2 MSTORE PUSH1 0x20 ADD SWAP1 DUP2 MSTORE PUSH1 0x20 ADD PUSH0 KECCAK256 SWAP1 POP PUSH1 0x64 DUP2 PUSH1 0x4 ADD PUSH0 PUSH2 0x100 EXP DUP2 SLOAD DUP2 PUSH1 0xFF MUL NOT AND SWAP1 DUP4 PUSH1 0xFF AND MUL OR SWAP1 SSTORE POP TIMESTAMP DUP2 PUSH1 0x3 ADD DUP2 SWAP1 SSTORE POP DUP5 PUSH32 0xD4B742B9BA48FFFA1F14267075A7793851770764117C423FD0A6550DFC8CB574 PUSH1 0x64 PUSH1 0x40 MLOAD PUSH2 0xD6B SWAP2 SWAP1 PUSH2 0x1F01 JUMP JUMPDEST PUSH1 0x40 MLOAD DUP1 SWAP2 SUB SWAP1 LOG2 PUSH2 0xD7C DUP6 PUSH2 0xDA4 JUMP JUMPDEST POP POP POP POP POP JUMP JUMPDEST PUSH1 0x2 SLOAD DUP2 JUMP JUMPDEST PUSH1 0x2 DUP2 JUMP JUMPDEST PUSH7 0xAA87BEE538000 DUP2 JUMP JUMPDEST PUSH7 0x38D7EA4C68000 DUP2 JUMP JUMPDEST DUP1 PUSH0 PUSH0 DUP3 DUP2 MSTORE PUSH1 0x20 ADD SWAP1 DUP2 MSTORE PUSH1 0x20 ADD PUSH0 KECCAK256 PUSH1 0x4 ADD PUSH1 0x1 SWAP1 SLOAD SWAP1 PUSH2 0x100 EXP SWAP1 DIV PUSH1 0xFF AND PUSH2 0xE05 JUMPI PUSH1 0x40 MLOAD PUSH32 0x8C379A000000000000000000000000000000000000000000000000000000000 DUP2 MSTORE PUSH1 0x4 ADD PUSH2 0xDFC SWAP1 PUSH2 0x1E39 JUMP JUMPDEST PUSH1 0x40 MLOAD DUP1 SWAP2 SUB SWAP1 REVERT JUMPDEST PUSH0 PUSH0 PUSH0 DUP5 DUP2 MSTORE PUSH1 0x20 ADD SWAP1 DUP2 MSTORE PUSH1 0x20 ADD PUSH0 KECCAK256 SWAP1 POP PUSH2 0xE21 DUP4 PUSH2 0x149C JUMP JUMPDEST DUP1 PUSH1 0x4 ADD PUSH1 0x2 SWAP1 SLOAD SWAP1 PUSH2 0x100 EXP SWAP1 DIV PUSH1 0xFF AND ISZERO PUSH2 0xE3E JUMPI POP PUSH2 0xFE5 JUMP JUMPDEST PUSH0 DUP2 PUSH1 0x2 ADD SLOAD TIMESTAMP PUSH2 0xE4F SWAP2 SWAP1 PUSH2 0x1D1E JUMP JUMPDEST SWAP1 POP PUSH0 DUP3 PUSH1 0x1 ADD PUSH1 0x14 SWAP1 SLOAD SWAP1 PUSH2 0x100 EXP SWAP1 DIV PUSH1 0xFF AND SWAP1 POP PUSH1 0x3 PUSH1 0x3C PUSH2 0xE74 SWAP2 SWAP1 PUSH2 0x1DAE JUMP JUMPDEST DUP3 LT PUSH2 0xEAC JUMPI PUSH1 0x3 DUP4 PUSH1 0x1 ADD PUSH1 0x14 PUSH2 0x100 EXP DUP2 SLOAD DUP2 PUSH1 0xFF MUL NOT AND SWAP1 DUP4 PUSH1 0x3 DUP2 GT ISZERO PUSH2 0xEA2 JUMPI PUSH2 0xEA1 PUSH2 0x179F JUMP JUMPDEST JUMPDEST MUL OR SWAP1 SSTORE POP PUSH2 0xF5B JUMP JUMPDEST PUSH1 0x2 PUSH1 0x3C PUSH2 0xEBA SWAP2 SWAP1 PUSH2 0x1DAE JUMP JUMPDEST DUP3 LT PUSH2 0xEF2 JUMPI PUSH1 0x2 DUP4 PUSH1 0x1 ADD PUSH1 0x14 PUSH2 0x100 EXP DUP2 SLOAD DUP2 PUSH1 0xFF MUL NOT AND SWAP1 DUP4 PUSH1 0x3 DUP2 GT ISZERO PUSH2 0xEE8 JUMPI PUSH2 0xEE7 PUSH2 0x179F JUMP JUMPDEST JUMPDEST MUL OR SWAP1 SSTORE POP PUSH2 0xF5A JUMP JUMPDEST PUSH1 0x3C DUP3 LT PUSH2 0xF2C JUMPI PUSH1 0x1 DUP4 PUSH1 0x1 ADD PUSH1 0x14 PUSH2 0x100 EXP DUP2 SLOAD DUP2 PUSH1 0xFF MUL NOT AND SWAP1 DUP4 PUSH1 0x3 DUP2 GT ISZERO PUSH2 0xF22 JUMPI PUSH2 0xF21 PUSH2 0x179F JUMP JUMPDEST JUMPDEST MUL OR SWAP1 SSTORE POP PUSH2 0xF59 JUMP JUMPDEST PUSH0 DUP4 PUSH1 0x1 ADD PUSH1 0x14 PUSH2 0x100 EXP DUP2 SLOAD DUP2 PUSH1 0xFF MUL NOT AND SWAP1 DUP4 PUSH1 0x3 DUP2 GT ISZERO PUSH2 0xF53 JUMPI PUSH2 0xF52 PUSH2 0x179F JUMP JUMPDEST JUMPDEST MUL OR SWAP1 SSTORE POP JUMPDEST JUMPDEST JUMPDEST DUP1 PUSH1 0x3 DUP2 GT ISZERO PUSH2 0xF6E JUMPI PUSH2 0xF6D PUSH2 0x179F JUMP JUMPDEST JUMPDEST DUP4 PUSH1 0x1 ADD PUSH1 0x14 SWAP1 SLOAD SWAP1 PUSH2 0x100 EXP SWAP1 DIV PUSH1 0xFF AND PUSH1 0x3 DUP2 GT ISZERO PUSH2 0xF92 JUMPI PUSH2 0xF91 PUSH2 0x179F JUMP JUMPDEST JUMPDEST EQ PUSH2 0xFE1 JUMPI DUP5 PUSH32 0x338B8976706F9DA67298DDDFA1EA4FF7D99CCE68B9CA39C4F348994F8E2124A8 DUP5 PUSH1 0x1 ADD PUSH1 0x14 SWAP1 SLOAD SWAP1 PUSH2 0x100 EXP SWAP1 DIV PUSH1 0xFF AND PUSH1 0x40 MLOAD PUSH2 0xFD8 SWAP2 SWAP1 PUSH2 0x1812 JUMP JUMPDEST PUSH1 0x40 MLOAD DUP1 SWAP2 SUB SWAP1 LOG2 JUMPDEST POP POP POP JUMPDEST POP POP JUMP JUMPDEST DUP1 PUSH0 PUSH0 DUP3 DUP2 MSTORE PUSH1 0x20 ADD SWAP1 DUP2 MSTORE PUSH1 0x20 ADD PUSH0 KECCAK256 PUSH1 0x4 ADD PUSH1 0x1 SWAP1 SLOAD SWAP1 PUSH2 0x100 EXP SWAP1 DIV PUSH1 0xFF AND PUSH2 0x104A JUMPI PUSH1 0x40 MLOAD PUSH32 0x8C379A000000000000000000000000000000000000000000000000000000000 DUP2 MSTORE PUSH1 0x4 ADD PUSH2 0x1041 SWAP1 PUSH2 0x1E39 JUMP JUMPDEST PUSH1 0x40 MLOAD DUP1 SWAP2 SUB SWAP1 REVERT JUMPDEST DUP2 PUSH0 PUSH0 DUP3 DUP2 MSTORE PUSH1 0x20 ADD SWAP1 DUP2 MSTORE PUSH1 0x20 ADD PUSH0 KECCAK256 PUSH1 0x4 ADD PUSH1 0x2 SWAP1 SLOAD SWAP1 PUSH2 0x100 EXP SWAP1 DIV PUSH1 0xFF AND ISZERO PUSH2 0x10AC JUMPI PUSH1 0x40 MLOAD PUSH32 0x8C379A000000000000000000000000000000000000000000000000000000000 DUP2 MSTORE PUSH1 0x4 ADD PUSH2 0x10A3 SWAP1 PUSH2 0x1EA1 JUMP JUMPDEST PUSH1 0x40 MLOAD DUP1 SWAP2 SUB SWAP1 REVERT JUMPDEST DUP3 CALLER PUSH20 0xFFFFFFFFFFFFFFFFFFFFFFFFFFFFFFFFFFFFFFFF AND PUSH0 PUSH0 DUP4 DUP2 MSTORE PUSH1 0x20 ADD SWAP1 DUP2 MSTORE PUSH1 0x20 ADD PUSH0 KECCAK256 PUSH1 0x1 ADD PUSH0 SWAP1 SLOAD SWAP1 PUSH2 0x100 EXP SWAP1 DIV PUSH20 0xFFFFFFFFFFFFFFFFFFFFFFFFFFFFFFFFFFFFFFFF AND PUSH20 0xFFFFFFFFFFFFFFFFFFFFFFFFFFFFFFFFFFFFFFFF AND EQ PUSH2 0x114D JUMPI PUSH1 0x40 MLOAD PUSH32 0x8C379A000000000000000000000000000000000000000000000000000000000 DUP2 MSTORE PUSH1 0x4 ADD PUSH2 0x1144 SWAP1 PUSH2 0x1C24 JUMP JUMPDEST PUSH1 0x40 MLOAD DUP1 SWAP2 SUB SWAP1 REVERT JUMPDEST PUSH0 PUSH0 PUSH0 DUP7 DUP2 MSTORE PUSH1 0x20 ADD SWAP1 DUP2 MSTORE PUSH1 0x20 ADD PUSH0 KECCAK256 SWAP1 POP PUSH2 0x1169 DUP6 PUSH2 0xDA4 JUMP JUMPDEST PUSH1 0x3 DUP1 DUP2 GT ISZERO PUSH2 0x117C JUMPI PUSH2 0x117B PUSH2 0x179F JUMP JUMPDEST JUMPDEST DUP2 PUSH1 0x1 ADD PUSH1 0x14 SWAP1 SLOAD SWAP1 PUSH2 0x100 EXP SWAP1 DIV PUSH1 0xFF AND PUSH1 0x3 DUP2 GT ISZERO PUSH2 0x11A0 JUMPI PUSH2 0x119F PUSH2 0x179F JUMP JUMPDEST JUMPDEST EQ PUSH2 0x11E0 JUMPI PUSH1 0x40 MLOAD PUSH32 0x8C379A000000000000000000000000000000000000000000000000000000000 DUP2 MSTORE PUSH1 0x4 ADD PUSH2 0x11D7 SWAP1 PUSH2 0x1F64 JUMP JUMPDEST PUSH1 0x40 MLOAD DUP1 SWAP2 SUB SWAP1 REVERT JUMPDEST PUSH0 DUP2 PUSH1 0x4 ADD PUSH1 0x1 PUSH2 0x100 EXP DUP2 SLOAD DUP2 PUSH1 0xFF MUL NOT AND SWAP1 DUP4 ISZERO ISZERO MUL OR SWAP1 SSTORE POP CALLER PUSH20 0xFFFFFFFFFFFFFFFFFFFFFFFFFFFFFFFFFFFFFFFF AND DUP6 PUSH32 0x79F2138EA100070FF95B59C265DA7AA3C7A0F61595FE1BB2F5FDA2762F398847 PUSH7 0xAA87BEE538000 PUSH1 0x40 MLOAD PUSH2 0x124A SWAP2 SWAP1 PUSH2 0x1731 JUMP JUMPDEST PUSH1 0x40 MLOAD DUP1 SWAP2 SUB SWAP1 LOG3 PUSH7 0xAA87BEE538000 SELFBALANCE LT ISZERO PUSH2 0x129C JUMPI PUSH1 0x40 MLOAD PUSH32 0x8C379A000000000000000000000000000000000000000000000000000000000 DUP2 MSTORE PUSH1 0x4 ADD PUSH2 0x1293 SWAP1 PUSH2 0x1FCC JUMP JUMPDEST PUSH1 0x40 MLOAD DUP1 SWAP2 SUB SWAP1 REVERT JUMPDEST PUSH0 CALLER PUSH20 0xFFFFFFFFFFFFFFFFFFFFFFFFFFFFFFFFFFFFFFFF AND PUSH7 0xAA87BEE538000 PUSH1 0x40 MLOAD PUSH2 0x12C8 SWAP1 PUSH2 0x1B5E JUMP JUMPDEST PUSH0 PUSH1 0x40 MLOAD DUP1 DUP4 SUB DUP2 DUP6 DUP8 GAS CALL SWAP3 POP POP POP RETURNDATASIZE DUP1 PUSH0 DUP2 EQ PUSH2 0x1302 JUMPI PUSH1 0x40 MLOAD SWAP2 POP PUSH1 0x1F NOT PUSH1 0x3F RETURNDATASIZE ADD AND DUP3 ADD PUSH1 0x40 MSTORE RETURNDATASIZE DUP3 MSTORE RETURNDATASIZE PUSH0 PUSH1 0x20 DUP5 ADD RETURNDATACOPY PUSH2 0x1307 JUMP JUMPDEST PUSH1 0x60 SWAP2 POP JUMPDEST POP POP SWAP1 POP DUP1 PUSH2 0x134B JUMPI PUSH1 0x40 MLOAD PUSH32 0x8C379A000000000000000000000000000000000000000000000000000000000 DUP2 MSTORE PUSH1 0x4 ADD PUSH2 0x1342 SWAP1 PUSH2 0x2034 JUMP JUMPDEST PUSH1 0x40 MLOAD DUP1 SWAP2 SUB SWAP1 REVERT JUMPDEST POP POP POP POP POP POP JUMP JUMPDEST PUSH2 0x135B PUSH2 0x154D JUMP JUMPDEST PUSH0 PUSH0 PUSH0 DUP5 DUP2 MSTORE PUSH1 0x20 ADD SWAP1 DUP2 MSTORE PUSH1 0x20 ADD PUSH0 KECCAK256 PUSH1 0x40 MLOAD DUP1 PUSH2 0x100 ADD PUSH1 0x40 MSTORE SWAP1 DUP2 PUSH0 DUP3 ADD SLOAD DUP2 MSTORE PUSH1 0x20 ADD PUSH1 0x1 DUP3 ADD PUSH0 SWAP1 SLOAD SWAP1 PUSH2 0x100 EXP SWAP1 DIV PUSH20 0xFFFFFFFFFFFFFFFFFFFFFFFFFFFFFFFFFFFFFFFF AND PUSH20 0xFFFFFFFFFFFFFFFFFFFFFFFFFFFFFFFFFFFFFFFF AND PUSH20 0xFFFFFFFFFFFFFFFFFFFFFFFFFFFFFFFFFFFFFFFF AND DUP2 MSTORE PUSH1 0x20 ADD PUSH1 0x1 DUP3 ADD PUSH1 0x14 SWAP1 SLOAD SWAP1 PUSH2 0x100 EXP SWAP1 DIV PUSH1 0xFF AND PUSH1 0x3 DUP2 GT ISZERO PUSH2 0x13FB JUMPI PUSH2 0x13FA PUSH2 0x179F JUMP JUMPDEST JUMPDEST PUSH1 0x3 DUP2 GT ISZERO PUSH2 0x140D JUMPI PUSH2 0x140C PUSH2 0x179F JUMP JUMPDEST JUMPDEST DUP2 MSTORE PUSH1 0x20 ADD PUSH1 0x2 DUP3 ADD SLOAD DUP2 MSTORE PUSH1 0x20 ADD PUSH1 0x3 DUP3 ADD SLOAD DUP2 MSTORE PUSH1 0x20 ADD PUSH1 0x4 DUP3 ADD PUSH0 SWAP1 SLOAD SWAP1 PUSH2 0x100 EXP SWAP1 DIV PUSH1 0xFF AND PUSH1 0xFF AND PUSH1 0xFF AND DUP2 MSTORE PUSH1 0x20 ADD PUSH1 0x4 DUP3 ADD PUSH1 0x1 SWAP1 SLOAD SWAP1 PUSH2 0x100 EXP SWAP1 DIV PUSH1 0xFF AND ISZERO ISZERO ISZERO ISZERO DUP2 MSTORE PUSH1 0x20 ADD PUSH1 0x4 DUP3 ADD PUSH1 0x2 SWAP1 SLOAD SWAP1 PUSH2 0x100 EXP SWAP1 DIV PUSH1 0xFF AND ISZERO ISZERO ISZERO ISZERO DUP2 MSTORE POP POP SWAP1 POP PUSH2 0x1482 DUP4 PUSH2 0x9DE JUMP JUMPDEST DUP2 PUSH1 0xA0 ADD SWAP1 PUSH1 0xFF AND SWAP1 DUP2 PUSH1 0xFF AND DUP2 MSTORE POP POP DUP1 SWAP2 POP POP SWAP2 SWAP1 POP JUMP JUMPDEST PUSH0 PUSH0 PUSH0 DUP4 DUP2 MSTORE PUSH1 0x20 ADD SWAP1 DUP2 MSTORE PUSH1 0x20 ADD PUSH0 KECCAK256 SWAP1 POP PUSH0 PUSH2 0x14B9 DUP4 PUSH2 0x9DE JUMP JUMPDEST SWAP1 POP DUP1 DUP3 PUSH1 0x4 ADD PUSH0 PUSH2 0x100 EXP DUP2 SLOAD DUP2 PUSH1 0xFF MUL NOT AND SWAP1 DUP4 PUSH1 0xFF AND MUL OR SWAP1 SSTORE POP PUSH0 DUP2 PUSH1 0xFF AND EQ DUP1 ISZERO PUSH2 0x14F8 JUMPI POP DUP2 PUSH1 0x4 ADD PUSH1 0x2 SWAP1 SLOAD SWAP1 PUSH2 0x100 EXP SWAP1 DIV PUSH1 0xFF AND ISZERO JUMPDEST ISZERO PUSH2 0x1548 JUMPI PUSH1 0x1 DUP3 PUSH1 0x4 ADD PUSH1 0x2 PUSH2 0x100 EXP DUP2 SLOAD DUP2 PUSH1 0xFF MUL NOT AND SWAP1 DUP4 ISZERO ISZERO MUL OR SWAP1 SSTORE POP DUP3 PUSH32 0xCC296A21951F3E57F21AFB08547D835A0A9F0F06CC2867009CBE0CAE44D36BE9 PUSH1 0x40 MLOAD PUSH1 0x40 MLOAD DUP1 SWAP2 SUB SWAP1 LOG2 JUMPDEST POP POP POP JUMP JUMPDEST PUSH1 0x40 MLOAD DUP1 PUSH2 0x100 ADD PUSH1 0x40 MSTORE DUP1 PUSH0 DUP2 MSTORE PUSH1 0x20 ADD PUSH0 PUSH20 0xFFFFFFFFFFFFFFFFFFFFFFFFFFFFFFFFFFFFFFFF AND DUP2 MSTORE PUSH1 0x20 ADD PUSH0 PUSH1 0x3 DUP2 GT ISZERO PUSH2 0x158E JUMPI PUSH2 0x158D PUSH2 0x179F JUMP JUMPDEST JUMPDEST DUP2 MSTORE PUSH1 0x20 ADD PUSH0 DUP2 MSTORE PUSH1 0x20 ADD PUSH0 DUP2 MSTORE PUSH1 0x20 ADD PUSH0 PUSH1 0xFF AND DUP2 MSTORE PUSH1 0x20 ADD PUSH0 ISZERO ISZERO DUP2 MSTORE PUSH1 0x20 ADD PUSH0 ISZERO ISZERO DUP2 MSTORE POP SWAP1 JUMP JUMPDEST PUSH0 PUSH0 REVERT JUMPDEST PUSH0 PUSH20 0xFFFFFFFFFFFFFFFFFFFFFFFFFFFFFFFFFFFFFFFF DUP3 AND SWAP1 POP SWAP2 SWAP1 POP JUMP JUMPDEST PUSH0 PUSH2 0x15E6 DUP3 PUSH2 0x15BD JUMP JUMPDEST SWAP1 POP SWAP2 SWAP1 POP JUMP JUMPDEST PUSH2 0x15F6 DUP2 PUSH2 0x15DC JUMP JUMPDEST DUP2 EQ PUSH2 0x1600 JUMPI PUSH0 PUSH0 REVERT JUMPDEST POP JUMP JUMPDEST PUSH0 DUP2 CALLDATALOAD SWAP1 POP PUSH2 0x1611 DUP2 PUSH2 0x15ED JUMP JUMPDEST SWAP3 SWAP2 POP POP JUMP JUMPDEST PUSH0 PUSH1 0x20 DUP3 DUP5 SUB SLT ISZERO PUSH2 0x162C JUMPI PUSH2 0x162B PUSH2 0x15B9 JUMP JUMPDEST JUMPDEST PUSH0 PUSH2 0x1639 DUP5 DUP3 DUP6 ADD PUSH2 0x1603 JUMP JUMPDEST SWAP2 POP POP SWAP3 SWAP2 POP POP JUMP JUMPDEST PUSH0 DUP2 MLOAD SWAP1 POP SWAP2 SWAP1 POP JUMP JUMPDEST PUSH0 DUP3 DUP3 MSTORE PUSH1 0x20 DUP3 ADD SWAP1 POP SWAP3 SWAP2 POP POP JUMP JUMPDEST PUSH0 DUP2 SWAP1 POP PUSH1 0x20 DUP3 ADD SWAP1 POP SWAP2 SWAP1 POP JUMP JUMPDEST PUSH0 DUP2 SWAP1 POP SWAP2 SWAP1 POP JUMP JUMPDEST PUSH2 0x167D DUP2 PUSH2 0x166B JUMP JUMPDEST DUP3 MSTORE POP POP JUMP JUMPDEST PUSH0 PUSH2 0x168E DUP4 DUP4 PUSH2 0x1674 JUMP JUMPDEST PUSH1 0x20 DUP4 ADD SWAP1 POP SWAP3 SWAP2 POP POP JUMP JUMPDEST PUSH0 PUSH1 0x20 DUP3 ADD SWAP1 POP SWAP2 SWAP1 POP JUMP JUMPDEST PUSH0 PUSH2 0x16B0 DUP3 PUSH2 0x1642 JUMP JUMPDEST PUSH2 0x16BA DUP2 DUP6 PUSH2 0x164C JUMP JUMPDEST SWAP4 POP PUSH2 0x16C5 DUP4 PUSH2 0x165C JUMP JUMPDEST DUP1 PUSH0 JUMPDEST DUP4 DUP2 LT ISZERO PUSH2 0x16F5 JUMPI DUP2 MLOAD PUSH2 0x16DC DUP9 DUP3 PUSH2 0x1683 JUMP JUMPDEST SWAP8 POP PUSH2 0x16E7 DUP4 PUSH2 0x169A JUMP JUMPDEST SWAP3 POP POP PUSH1 0x1 DUP2 ADD SWAP1 POP PUSH2 0x16C8 JUMP JUMPDEST POP DUP6 SWAP4 POP POP POP POP SWAP3 SWAP2 POP POP JUMP JUMPDEST PUSH0 PUSH1 0x20 DUP3 ADD SWAP1 POP DUP2 DUP2 SUB PUSH0 DUP4 ADD MSTORE PUSH2 0x171A DUP2 DUP5 PUSH2 0x16A6 JUMP JUMPDEST SWAP1 POP SWAP3 SWAP2 POP POP JUMP JUMPDEST PUSH2 0x172B DUP2 PUSH2 0x166B JUMP JUMPDEST DUP3 MSTORE POP POP JUMP JUMPDEST PUSH0 PUSH1 0x20 DUP3 ADD SWAP1 POP PUSH2 0x1744 PUSH0 DUP4 ADD DUP5 PUSH2 0x1722 JUMP JUMPDEST SWAP3 SWAP2 POP POP JUMP JUMPDEST PUSH2 0x1753 DUP2 PUSH2 0x166B JUMP JUMPDEST DUP2 EQ PUSH2 0x175D JUMPI PUSH0 PUSH0 REVERT JUMPDEST POP JUMP JUMPDEST PUSH0 DUP2 CALLDATALOAD SWAP1 POP PUSH2 0x176E DUP2 PUSH2 0x174A JUMP JUMPDEST SWAP3 SWAP2 POP POP JUMP JUMPDEST PUSH0 PUSH1 0x20 DUP3 DUP5 SUB SLT ISZERO PUSH2 0x1789 JUMPI PUSH2 0x1788 PUSH2 0x15B9 JUMP JUMPDEST JUMPDEST PUSH0 PUSH2 0x1796 DUP5 DUP3 DUP6 ADD PUSH2 0x1760 JUMP JUMPDEST SWAP2 POP POP SWAP3 SWAP2 POP POP JUMP JUMPDEST PUSH32 0x4E487B7100000000000000000000000000000000000000000000000000000000 PUSH0 MSTORE PUSH1 0x21 PUSH1 0x4 MSTORE PUSH1 0x24 PUSH0 REVERT JUMPDEST PUSH1 0x4 DUP2 LT PUSH2 0x17DD JUMPI PUSH2 0x17DC PUSH2 0x179F JUMP JUMPDEST JUMPDEST POP JUMP JUMPDEST PUSH0 DUP2 SWAP1 POP PUSH2 0x17ED DUP3 PUSH2 0x17CC JUMP JUMPDEST SWAP2 SWAP1 POP JUMP JUMPDEST PUSH0 PUSH2 0x17FC DUP3 PUSH2 0x17E0 JUMP JUMPDEST SWAP1 POP SWAP2 SWAP1 POP JUMP JUMPDEST PUSH2 0x180C DUP2 PUSH2 0x17F2 JUMP JUMPDEST DUP3 MSTORE POP POP JUMP JUMPDEST PUSH0 PUSH1 0x20 DUP3 ADD SWAP1 POP PUSH2 0x1825 PUSH0 DUP4 ADD DUP5 PUSH2 0x1803 JUMP JUMPDEST SWAP3 SWAP2 POP POP JUMP JUMPDEST PUSH0 PUSH1 0xFF DUP3 AND SWAP1 POP SWAP2 SWAP1 POP JUMP JUMPDEST PUSH2 0x1840 DUP2 PUSH2 0x182B JUMP JUMPDEST DUP3 MSTORE POP POP JUMP JUMPDEST PUSH0 PUSH1 0x20 DUP3 ADD SWAP1 POP PUSH2 0x1859 PUSH0 DUP4 ADD DUP5 PUSH2 0x1837 JUMP JUMPDEST SWAP3 SWAP2 POP POP JUMP JUMPDEST PUSH0 PUSH0 PUSH1 0x40 DUP4 DUP6 SUB SLT ISZERO PUSH2 0x1875 JUMPI PUSH2 0x1874 PUSH2 0x15B9 JUMP JUMPDEST JUMPDEST PUSH0 PUSH2 0x1882 DUP6 DUP3 DUP7 ADD PUSH2 0x1603 JUMP JUMPDEST SWAP3 POP POP PUSH1 0x20 PUSH2 0x1893 DUP6 DUP3 DUP7 ADD PUSH2 0x1760 JUMP JUMPDEST SWAP2 POP POP SWAP3 POP SWAP3 SWAP1 POP JUMP JUMPDEST PUSH2 0x18A6 DUP2 PUSH2 0x15DC JUMP JUMPDEST DUP3 MSTORE POP POP JUMP JUMPDEST PUSH0 PUSH1 0x20 DUP3 ADD SWAP1 POP PUSH2 0x18BF PUSH0 DUP4 ADD DUP5 PUSH2 0x189D JUMP JUMPDEST SWAP3 SWAP2 POP POP JUMP JUMPDEST PUSH0 DUP2 ISZERO ISZERO SWAP1 POP SWAP2 SWAP1 POP JUMP JUMPDEST PUSH2 0x18D9 DUP2 PUSH2 0x18C5 JUMP JUMPDEST DUP3 MSTORE POP POP JUMP JUMPDEST PUSH0 PUSH2 0x100 DUP3 ADD SWAP1 POP PUSH2 0x18F3 PUSH0 DUP4 ADD DUP12 PUSH2 0x1722 JUMP JUMPDEST PUSH2 0x1900 PUSH1 0x20 DUP4 ADD DUP11 PUSH2 0x189D JUMP JUMPDEST PUSH2 0x190D PUSH1 0x40 DUP4 ADD DUP10 PUSH2 0x1803 JUMP JUMPDEST PUSH2 0x191A PUSH1 0x60 DUP4 ADD DUP9 PUSH2 0x1722 JUMP JUMPDEST PUSH2 0x1927 PUSH1 0x80 DUP4 ADD DUP8 PUSH2 0x1722 JUMP JUMPDEST PUSH2 0x1934 PUSH1 0xA0 DUP4 ADD DUP7 PUSH2 0x1837 JUMP JUMPDEST PUSH2 0x1941 PUSH1 0xC0 DUP4 ADD DUP6 PUSH2 0x18D0 JUMP JUMPDEST PUSH2 0x194E PUSH1 0xE0 DUP4 ADD DUP5 PUSH2 0x18D0 JUMP JUMPDEST SWAP10 SWAP9 POP POP POP POP POP POP POP POP POP JUMP JUMPDEST PUSH2 0x1964 DUP2 PUSH2 0x15DC JUMP JUMPDEST DUP3 MSTORE POP POP JUMP JUMPDEST PUSH2 0x1973 DUP2 PUSH2 0x17F2 JUMP JUMPDEST DUP3 MSTORE POP POP JUMP JUMPDEST PUSH2 0x1982 DUP2 PUSH2 0x182B JUMP JUMPDEST DUP3 MSTORE POP POP JUMP JUMPDEST PUSH2 0x1991 DUP2 PUSH2 0x18C5 JUMP JUMPDEST DUP3 MSTORE POP POP JUMP JUMPDEST PUSH2 0x100 DUP3 ADD PUSH0 DUP3 ADD MLOAD PUSH2 0x19AC PUSH0 DUP6 ADD DUP3 PUSH2 0x1674 JUMP JUMPDEST POP PUSH1 0x20 DUP3 ADD MLOAD PUSH2 0x19BF PUSH1 0x20 DUP6 ADD DUP3 PUSH2 0x195B JUMP JUMPDEST POP PUSH1 0x40 DUP3 ADD MLOAD PUSH2 0x19D2 PUSH1 0x40 DUP6 ADD DUP3 PUSH2 0x196A JUMP JUMPDEST POP PUSH1 0x60 DUP3 ADD MLOAD PUSH2 0x19E5 PUSH1 0x60 DUP6 ADD DUP3 PUSH2 0x1674 JUMP JUMPDEST POP PUSH1 0x80 DUP3 ADD MLOAD PUSH2 0x19F8 PUSH1 0x80 DUP6 ADD DUP3 PUSH2 0x1674 JUMP JUMPDEST POP PUSH1 0xA0 DUP3 ADD MLOAD PUSH2 0x1A0B PUSH1 0xA0 DUP6 ADD DUP3 PUSH2 0x1979 JUMP JUMPDEST POP PUSH1 0xC0 DUP3 ADD MLOAD PUSH2 0x1A1E PUSH1 0xC0 DUP6 ADD DUP3 PUSH2 0x1988 JUMP JUMPDEST POP PUSH1 0xE0 DUP3 ADD MLOAD PUSH2 0x1A31 PUSH1 0xE0 DUP6 ADD DUP3 PUSH2 0x1988 JUMP JUMPDEST POP POP POP POP JUMP JUMPDEST PUSH0 PUSH2 0x100 DUP3 ADD SWAP1 POP PUSH2 0x1A4B PUSH0 DUP4 ADD DUP5 PUSH2 0x1997 JUMP JUMPDEST SWAP3 SWAP2 POP POP JUMP JUMPDEST PUSH0 DUP3 DUP3 MSTORE PUSH1 0x20 DUP3 ADD SWAP1 POP SWAP3 SWAP2 POP POP JUMP JUMPDEST PUSH32 0x4F6E6C79206F776E657221000000000000000000000000000000000000000000 PUSH0 DUP3 ADD MSTORE POP JUMP JUMPDEST PUSH0 PUSH2 0x1A95 PUSH1 0xB DUP4 PUSH2 0x1A51 JUMP JUMPDEST SWAP2 POP PUSH2 0x1AA0 DUP3 PUSH2 0x1A61 JUMP JUMPDEST PUSH1 0x20 DUP3 ADD SWAP1 POP SWAP2 SWAP1 POP JUMP JUMPDEST PUSH0 PUSH1 0x20 DUP3 ADD SWAP1 POP DUP2 DUP2 SUB PUSH0 DUP4 ADD MSTORE PUSH2 0x1AC2 DUP2 PUSH2 0x1A89 JUMP JUMPDEST SWAP1 POP SWAP2 SWAP1 POP JUMP JUMPDEST PUSH32 0x4E6F7468696E6720746F20776974686472617700000000000000000000000000 PUSH0 DUP3 ADD MSTORE POP JUMP JUMPDEST PUSH0 PUSH2 0x1AFD PUSH1 0x13 DUP4 PUSH2 0x1A51 JUMP JUMPDEST SWAP2 POP PUSH2 0x1B08 DUP3 PUSH2 0x1AC9 JUMP JUMPDEST PUSH1 0x20 DUP3 ADD SWAP1 POP SWAP2 SWAP1 POP JUMP JUMPDEST PUSH0 PUSH1 0x20 DUP3 ADD SWAP1 POP DUP2 DUP2 SUB PUSH0 DUP4 ADD MSTORE PUSH2 0x1B2A DUP2 PUSH2 0x1AF1 JUMP JUMPDEST SWAP1 POP SWAP2 SWAP1 POP JUMP JUMPDEST PUSH0 DUP2 SWAP1 POP SWAP3 SWAP2 POP POP JUMP JUMPDEST POP JUMP JUMPDEST PUSH0 PUSH2 0x1B49 PUSH0 DUP4 PUSH2 0x1B31 JUMP JUMPDEST SWAP2 POP PUSH2 0x1B54 DUP3 PUSH2 0x1B3B JUMP JUMPDEST PUSH0 DUP3 ADD SWAP1 POP SWAP2 SWAP1 POP JUMP JUMPDEST PUSH0 PUSH2 0x1B68 DUP3 PUSH2 0x1B3E JUMP JUMPDEST SWAP2 POP DUP2 SWAP1 POP SWAP2 SWAP1 POP JUMP JUMPDEST PUSH32 0x4661696C6564207472616E736665720000000000000000000000000000000000 PUSH0 DUP3 ADD MSTORE POP JUMP JUMPDEST PUSH0 PUSH2 0x1BA6 PUSH1 0xF DUP4 PUSH2 0x1A51 JUMP JUMPDEST SWAP2 POP PUSH2 0x1BB1 DUP3 PUSH2 0x1B72 JUMP JUMPDEST PUSH1 0x20 DUP3 ADD SWAP1 POP SWAP2 SWAP1 POP JUMP JUMPDEST PUSH0 PUSH1 0x20 DUP3 ADD SWAP1 POP DUP2 DUP2 SUB PUSH0 DUP4 ADD MSTORE PUSH2 0x1BD3 DUP2 PUSH2 0x1B9A JUMP JUMPDEST SWAP1 POP SWAP2 SWAP1 POP JUMP JUMPDEST PUSH32 0x596F7520617265206E6F7420746865206F776E65722100000000000000000000 PUSH0 DUP3 ADD MSTORE POP JUMP JUMPDEST PUSH0 PUSH2 0x1C0E PUSH1 0x16 DUP4 PUSH2 0x1A51 JUMP JUMPDEST SWAP2 POP PUSH2 0x1C19 DUP3 PUSH2 0x1BDA JUMP JUMPDEST PUSH1 0x20 DUP3 ADD SWAP1 POP SWAP2 SWAP1 POP JUMP JUMPDEST PUSH0 PUSH1 0x20 DUP3 ADD SWAP1 POP DUP2 DUP2 SUB PUSH0 DUP4 ADD MSTORE PUSH2 0x1C3B DUP2 PUSH2 0x1C02 JUMP JUMPDEST SWAP1 POP SWAP2 SWAP1 POP JUMP JUMPDEST PUSH32 0x496E73756666696369656E742062616C616E6365210000000000000000000000 PUSH0 DUP3 ADD MSTORE POP JUMP JUMPDEST PUSH0 PUSH2 0x1C76 PUSH1 0x15 DUP4 PUSH2 0x1A51 JUMP JUMPDEST SWAP2 POP PUSH2 0x1C81 DUP3 PUSH2 0x1C42 JUMP JUMPDEST PUSH1 0x20 DUP3 ADD SWAP1 POP SWAP2 SWAP1 POP JUMP JUMPDEST PUSH0 PUSH1 0x20 DUP3 ADD SWAP1 POP DUP2 DUP2 SUB PUSH0 DUP4 ADD MSTORE PUSH2 0x1CA3 DUP2 PUSH2 0x1C6A JUMP JUMPDEST SWAP1 POP SWAP2 SWAP1 POP JUMP JUMPDEST PUSH32 0x4E487B7100000000000000000000000000000000000000000000000000000000 PUSH0 MSTORE PUSH1 0x11 PUSH1 0x4 MSTORE PUSH1 0x24 PUSH0 REVERT JUMPDEST PUSH0 PUSH2 0x1CE1 DUP3 PUSH2 0x166B JUMP JUMPDEST SWAP2 POP PUSH32 0xFFFFFFFFFFFFFFFFFFFFFFFFFFFFFFFFFFFFFFFFFFFFFFFFFFFFFFFFFFFFFFFF DUP3 SUB PUSH2 0x1D13 JUMPI PUSH2 0x1D12 PUSH2 0x1CAA JUMP JUMPDEST JUMPDEST PUSH1 0x1 DUP3 ADD SWAP1 POP SWAP2 SWAP1 POP JUMP JUMPDEST PUSH0 PUSH2 0x1D28 DUP3 PUSH2 0x166B JUMP JUMPDEST SWAP2 POP PUSH2 0x1D33 DUP4 PUSH2 0x166B JUMP JUMPDEST SWAP3 POP DUP3 DUP3 SUB SWAP1 POP DUP2 DUP2 GT ISZERO PUSH2 0x1D4B JUMPI PUSH2 0x1D4A PUSH2 0x1CAA JUMP JUMPDEST JUMPDEST SWAP3 SWAP2 POP POP JUMP JUMPDEST PUSH32 0x4E487B7100000000000000000000000000000000000000000000000000000000 PUSH0 MSTORE PUSH1 0x12 PUSH1 0x4 MSTORE PUSH1 0x24 PUSH0 REVERT JUMPDEST PUSH0 PUSH2 0x1D88 DUP3 PUSH2 0x166B JUMP JUMPDEST SWAP2 POP PUSH2 0x1D93 DUP4 PUSH2 0x166B JUMP JUMPDEST SWAP3 POP DUP3 PUSH2 0x1DA3 JUMPI PUSH2 0x1DA2 PUSH2 0x1D51 JUMP JUMPDEST JUMPDEST DUP3 DUP3 DIV SWAP1 POP SWAP3 SWAP2 POP POP JUMP JUMPDEST PUSH0 PUSH2 0x1DB8 DUP3 PUSH2 0x166B JUMP JUMPDEST SWAP2 POP PUSH2 0x1DC3 DUP4 PUSH2 0x166B JUMP JUMPDEST SWAP3 POP DUP3 DUP3 MUL PUSH2 0x1DD1 DUP2 PUSH2 0x166B JUMP JUMPDEST SWAP2 POP DUP3 DUP3 DIV DUP5 EQ DUP4 ISZERO OR PUSH2 0x1DE8 JUMPI PUSH2 0x1DE7 PUSH2 0x1CAA JUMP JUMPDEST JUMPDEST POP SWAP3 SWAP2 POP POP JUMP JUMPDEST PUSH32 0x506C616E7420646F65736E277420657869737421000000000000000000000000 PUSH0 DUP3 ADD MSTORE POP JUMP JUMPDEST PUSH0 PUSH2 0x1E23 PUSH1 0x14 DUP4 PUSH2 0x1A51 JUMP JUMPDEST SWAP2 POP PUSH2 0x1E2E DUP3 PUSH2 0x1DEF JUMP JUMPDEST PUSH1 0x20 DUP3 ADD SWAP1 POP SWAP2 SWAP1 POP JUMP JUMPDEST PUSH0 PUSH1 0x20 DUP3 ADD SWAP1 POP DUP2 DUP2 SUB PUSH0 DUP4 ADD MSTORE PUSH2 0x1E50 DUP2 PUSH2 0x1E17 JUMP JUMPDEST SWAP1 POP SWAP2 SWAP1 POP JUMP JUMPDEST PUSH32 0x506C616E7420616C726561647920646561642100000000000000000000000000 PUSH0 DUP3 ADD MSTORE POP JUMP JUMPDEST PUSH0 PUSH2 0x1E8B PUSH1 0x13 DUP4 PUSH2 0x1A51 JUMP JUMPDEST SWAP2 POP PUSH2 0x1E96 DUP3 PUSH2 0x1E57 JUMP JUMPDEST PUSH1 0x20 DUP3 ADD SWAP1 POP SWAP2 SWAP1 POP JUMP JUMPDEST PUSH0 PUSH1 0x20 DUP3 ADD SWAP1 POP DUP2 DUP2 SUB PUSH0 DUP4 ADD MSTORE PUSH2 0x1EB8 DUP2 PUSH2 0x1E7F JUMP JUMPDEST SWAP1 POP SWAP2 SWAP1 POP JUMP JUMPDEST PUSH0 DUP2 SWAP1 POP SWAP2 SWAP1 POP JUMP JUMPDEST PUSH0 DUP2 SWAP1 POP SWAP2 SWAP1 POP JUMP JUMPDEST PUSH0 PUSH2 0x1EEB PUSH2 0x1EE6 PUSH2 0x1EE1 DUP5 PUSH2 0x1EBF JUMP JUMPDEST PUSH2 0x1EC8 JUMP JUMPDEST PUSH2 0x182B JUMP JUMPDEST SWAP1 POP SWAP2 SWAP1 POP JUMP JUMPDEST PUSH2 0x1EFB DUP2 PUSH2 0x1ED1 JUMP JUMPDEST DUP3 MSTORE POP POP JUMP JUMPDEST PUSH0 PUSH1 0x20 DUP3 ADD SWAP1 POP PUSH2 0x1F14 PUSH0 DUP4 ADD DUP5 PUSH2 0x1EF2 JUMP JUMPDEST SWAP3 SWAP2 POP POP JUMP JUMPDEST PUSH32 0x506C616E74206E6F7420626C6F6F6D696E672079657421000000000000000000 PUSH0 DUP3 ADD MSTORE POP JUMP JUMPDEST PUSH0 PUSH2 0x1F4E PUSH1 0x17 DUP4 PUSH2 0x1A51 JUMP JUMPDEST SWAP2 POP PUSH2 0x1F59 DUP3 PUSH2 0x1F1A JUMP JUMPDEST PUSH1 0x20 DUP3 ADD SWAP1 POP SWAP2 SWAP1 POP JUMP JUMPDEST PUSH0 PUSH1 0x20 DUP3 ADD SWAP1 POP DUP2 DUP2 SUB PUSH0 DUP4 ADD MSTORE PUSH2 0x1F7B DUP2 PUSH2 0x1F42 JUMP JUMPDEST SWAP1 POP SWAP2 SWAP1 POP JUMP JUMPDEST PUSH32 0x496E73756666696369656E7420636F6E74726163742062616C616E6365210000 PUSH0 DUP3 ADD MSTORE POP JUMP JUMPDEST PUSH0 PUSH2 0x1FB6 PUSH1 0x1E DUP4 PUSH2 0x1A51 JUMP JUMPDEST SWAP2 POP PUSH2 0x1FC1 DUP3 PUSH2 0x1F82 JUMP JUMPDEST PUSH1 0x20 DUP3 ADD SWAP1 POP SWAP2 SWAP1 POP JUMP JUMPDEST PUSH0 PUSH1 0x20 DUP3 ADD SWAP1 POP DUP2 DUP2 SUB PUSH0 DUP4 ADD MSTORE PUSH2 0x1FE3 DUP2 PUSH2 0x1FAA JUMP JUMPDEST SWAP1 POP SWAP2 SWAP1 POP JUMP JUMPDEST PUSH32 0x4661696C65642073656E64696E67207265776172642100000000000000000000 PUSH0 DUP3 ADD MSTORE POP JUMP JUMPDEST PUSH0 PUSH2 0x201E PUSH1 0x16 DUP4 PUSH2 0x1A51 JUMP JUMPDEST SWAP2 POP PUSH2 0x2029 DUP3 PUSH2 0x1FEA JUMP JUMPDEST PUSH1 0x20 DUP3 ADD SWAP1 POP SWAP2 SWAP1 POP JUMP JUMPDEST PUSH0 PUSH1 0x20 DUP3 ADD SWAP1 POP DUP2 DUP2 SUB PUSH0 DUP4 ADD MSTORE PUSH2 0x204B DUP2 PUSH2 0x2012 JUMP JUMPDEST SWAP1 POP SWAP2 SWAP1 POP JUMP INVALID LOG2 PUSH5 0x6970667358 0x22 SLT KECCAK256 MCOPY PUSH21 0x37A59299ED5AE8226AB4BE3259676FAEA4E8AF361 TLOAD PUSH10 0xB9D061D57B2D1E64736F PUSH13 0x634300081E0033000000000000 "
				},
				"gasEstimates": {
					"creation": {
						"codeDepositCost": "1665600",
						"executionCost": "26013",
						"totalCost": "1691613"
					},
					"external": {
						"PLANT_PRICE()": "369",
						"REWARD_HARVEST()": "347",
						"STAGE_DURATION()": "393",
						"WATER_DEPLETION_RATE()": "420",
						"WATER_DEPLETION_TIME()": "392",
						"calculateWaterLevel(uint256)": "infinite",
						"getPlant(uint256)": "infinite",
						"getStatusUserPlant(uint256)": "5299",
						"getUserPlants(address)": "infinite",
						"harvestPlant(uint256)": "infinite",
						"owner()": "2619",
						"plantCounter()": "2492",
						"plantSeed()": "infinite",
						"plants(uint256)": "infinite",
						"updatePlantStage(uint256)": "infinite",
						"userPlants(address,uint256)": "infinite",
						"waterPlant(uint256)": "infinite",
						"withdraw()": "infinite"
					},
					"internal": {
						"updateWaterLevel(uint256)": "infinite"
					}
				},
				"methodIdentifiers": {
					"PLANT_PRICE()": "cfc9a5f8",
					"REWARD_HARVEST()": "cbf64268",
					"STAGE_DURATION()": "51f9efde",
					"WATER_DEPLETION_RATE()": "bacb5ebd",
					"WATER_DEPLETION_TIME()": "7ed4c5be",
					"calculateWaterLevel(uint256)": "754e150d",
					"getPlant(uint256)": "ed0b1f5f",
					"getStatusUserPlant(uint256)": "5abad56b",
					"getUserPlants(address)": "30cec0eb",
					"harvestPlant(uint256)": "e38f8448",
					"owner()": "8da5cb5b",
					"plantCounter()": "9c471749",
					"plantSeed()": "74119a38",
					"plants(uint256)": "8dd2361c",
					"updatePlantStage(uint256)": "ddd42596",
					"userPlants(address,uint256)": "8aee578b",
					"waterPlant(uint256)": "9886bcfa",
					"withdraw()": "3ccfd60b"
				}
			},
			"storageLayout": {
				"storage": [
					{
						"astId": 29,
						"contract": "sesi-1-liskgarden/contracts/20-LiskGarden.sol:LiskGarden",
						"label": "plants",
						"offset": 0,
						"slot": "0",
						"type": "t_mapping(t_uint256,t_struct(Plant)24_storage)"
					},
					{
						"astId": 34,
						"contract": "sesi-1-liskgarden/contracts/20-LiskGarden.sol:LiskGarden",
						"label": "userPlants",
						"offset": 0,
						"slot": "1",
						"type": "t_mapping(t_address,t_array(t_uint256)dyn_storage)"
					},
					{
						"astId": 36,
						"contract": "sesi-1-liskgarden/contracts/20-LiskGarden.sol:LiskGarden",
						"label": "plantCounter",
						"offset": 0,
						"slot": "2",
						"type": "t_uint256"
					},
					{
						"astId": 38,
						"contract": "sesi-1-liskgarden/contracts/20-LiskGarden.sol:LiskGarden",
						"label": "owner",
						"offset": 0,
						"slot": "3",
						"type": "t_address"
					}
				],
				"types": {
					"t_address": {
						"encoding": "inplace",
						"label": "address",
						"numberOfBytes": "20"
					},
					"t_array(t_uint256)dyn_storage": {
						"base": "t_uint256",
						"encoding": "dynamic_array",
						"label": "uint256[]",
						"numberOfBytes": "32"
					},
					"t_bool": {
						"encoding": "inplace",
						"label": "bool",
						"numberOfBytes": "1"
					},
					"t_enum(GrowthStage)6": {
						"encoding": "inplace",
						"label": "enum LiskGarden.GrowthStage",
						"numberOfBytes": "1"
					},
					"t_mapping(t_address,t_array(t_uint256)dyn_storage)": {
						"encoding": "mapping",
						"key": "t_address",
						"label": "mapping(address => uint256[])",
						"numberOfBytes": "32",
						"value": "t_array(t_uint256)dyn_storage"
					},
					"t_mapping(t_uint256,t_struct(Plant)24_storage)": {
						"encoding": "mapping",
						"key": "t_uint256",
						"label": "mapping(uint256 => struct LiskGarden.Plant)",
						"numberOfBytes": "32",
						"value": "t_struct(Plant)24_storage"
					},
					"t_struct(Plant)24_storage": {
						"encoding": "inplace",
						"label": "struct LiskGarden.Plant",
						"members": [
							{
								"astId": 8,
								"contract": "sesi-1-liskgarden/contracts/20-LiskGarden.sol:LiskGarden",
								"label": "id",
								"offset": 0,
								"slot": "0",
								"type": "t_uint256"
							},
							{
								"astId": 10,
								"contract": "sesi-1-liskgarden/contracts/20-LiskGarden.sol:LiskGarden",
								"label": "owner",
								"offset": 0,
								"slot": "1",
								"type": "t_address"
							},
							{
								"astId": 13,
								"contract": "sesi-1-liskgarden/contracts/20-LiskGarden.sol:LiskGarden",
								"label": "stage",
								"offset": 20,
								"slot": "1",
								"type": "t_enum(GrowthStage)6"
							},
							{
								"astId": 15,
								"contract": "sesi-1-liskgarden/contracts/20-LiskGarden.sol:LiskGarden",
								"label": "plantedDate",
								"offset": 0,
								"slot": "2",
								"type": "t_uint256"
							},
							{
								"astId": 17,
								"contract": "sesi-1-liskgarden/contracts/20-LiskGarden.sol:LiskGarden",
								"label": "lastWatered",
								"offset": 0,
								"slot": "3",
								"type": "t_uint256"
							},
							{
								"astId": 19,
								"contract": "sesi-1-liskgarden/contracts/20-LiskGarden.sol:LiskGarden",
								"label": "waterLevel",
								"offset": 0,
								"slot": "4",
								"type": "t_uint8"
							},
							{
								"astId": 21,
								"contract": "sesi-1-liskgarden/contracts/20-LiskGarden.sol:LiskGarden",
								"label": "exists",
								"offset": 1,
								"slot": "4",
								"type": "t_bool"
							},
							{
								"astId": 23,
								"contract": "sesi-1-liskgarden/contracts/20-LiskGarden.sol:LiskGarden",
								"label": "isDead",
								"offset": 2,
								"slot": "4",
								"type": "t_bool"
							}
						],
						"numberOfBytes": "160"
					},
					"t_uint256": {
						"encoding": "inplace",
						"label": "uint256",
						"numberOfBytes": "32"
					},
					"t_uint8": {
						"encoding": "inplace",
						"label": "uint8",
						"numberOfBytes": "1"
					}
				}
			},
			"userdoc": {
				"kind": "user",
				"methods": {},
				"version": 1
			}
		}
	}
}