{
	"sesi-1-liskgarden/contracts/20-LiskGarden.sol": {
		"LiskGarden": {
			"abi": [
				{
					"inputs": [],
					"stateMutability": "nonpayable",
					"type": "constructor"
				},
				{
					"anonymous": false,
					"inputs": [
						{
							"indexed": true,
							"internalType": "uint256",
							"name": "plantId",
							"type": "uint256"
						}
					],
					"name": "PlantDied",
					"type": "event"
				},
				{
					"anonymous": false,
					"inputs": [
						{
							"indexed": true,
							"internalType": "uint256",
							"name": "plantId",
							"type": "uint256"
						},
						{
							"indexed": true,
							"internalType": "address",
							"name": "owner",
							"type": "address"
						},
						{
							"indexed": false,
							"internalType": "uint256",
							"name": "reward",
							"type": "uint256"
						}
					],
					"name": "PlantHarvested",
					"type": "event"
				},
				{
					"anonymous": false,
					"inputs": [
						{
							"indexed": true,
							"internalType": "address",
							"name": "owner",
							"type": "address"
						},
						{
							"indexed": true,
							"internalType": "uint256",
							"name": "plantId",
							"type": "uint256"
						}
					],
					"name": "PlantSeeded",
					"type": "event"
				},
				{
					"anonymous": false,
					"inputs": [
						{
							"indexed": true,
							"internalType": "uint256",
							"name": "plantId",
							"type": "uint256"
						},
						{
							"indexed": false,
							"internalType": "uint8",
							"name": "newWaterLevel",
							"type": "uint8"
						}
					],
					"name": "PlantWatered",
					"type": "event"
				},
				{
					"anonymous": false,
					"inputs": [
						{
							"indexed": true,
							"internalType": "uint256",
							"name": "plantId",
							"type": "uint256"
						},
						{
							"indexed": false,
							"internalType": "enum LiskGarden.GrowthStage",
							"name": "stage",
							"type": "uint8"
						}
					],
					"name": "StageAdvanced",
					"type": "event"
				},
				{
					"inputs": [],
					"name": "PLANT_PRICE",
					"outputs": [
						{
							"internalType": "uint256",
							"name": "",
							"type": "uint256"
						}
					],
					"stateMutability": "view",
					"type": "function"
				},
				{
					"inputs": [],
					"name": "REWARD_HARVEST",
					"outputs": [
						{
							"internalType": "uint256",
							"name": "",
							"type": "uint256"
						}
					],
					"stateMutability": "view",
					"type": "function"
				},
				{
					"inputs": [],
					"name": "STAGE_DURATION",
					"outputs": [
						{
							"internalType": "uint256",
							"name": "",
							"type": "uint256"
						}
					],
					"stateMutability": "view",
					"type": "function"
				},
				{
					"inputs": [],
					"name": "WATER_DEPLETION_RATE",
					"outputs": [
						{
							"internalType": "uint8",
							"name": "",
							"type": "uint8"
						}
					],
					"stateMutability": "view",
					"type": "function"
				},
				{
					"inputs": [],
					"name": "WATER_DEPLETION_TIME",
					"outputs": [
						{
							"internalType": "uint256",
							"name": "",
							"type": "uint256"
						}
					],
					"stateMutability": "view",
					"type": "function"
				},
				{
					"inputs": [
						{
							"internalType": "uint256",
							"name": "_plantId",
							"type": "uint256"
						}
					],
					"name": "calculateWaterLevel",
					"outputs": [
						{
							"internalType": "uint8",
							"name": "",
							"type": "uint8"
						}
					],
					"stateMutability": "view",
					"type": "function"
				},
				{
					"inputs": [],
					"name": "deposit",
					"outputs": [],
					"stateMutability": "payable",
					"type": "function"
				},
				{
					"inputs": [
						{
							"internalType": "uint256",
							"name": "_plantId",
							"type": "uint256"
						}
					],
					"name": "getPlant",
					"outputs": [
						{
							"components": [
								{
									"internalType": "uint256",
									"name": "id",
									"type": "uint256"
								},
								{
									"internalType": "address",
									"name": "owner",
									"type": "address"
								},
								{
									"internalType": "enum LiskGarden.GrowthStage",
									"name": "stage",
									"type": "uint8"
								},
								{
									"internalType": "uint256",
									"name": "plantedDate",
									"type": "uint256"
								},
								{
									"internalType": "uint256",
									"name": "lastWatered",
									"type": "uint256"
								},
								{
									"internalType": "uint8",
									"name": "waterLevel",
									"type": "uint8"
								},
								{
									"internalType": "bool",
									"name": "exists",
									"type": "bool"
								},
								{
									"internalType": "bool",
									"name": "isDead",
									"type": "bool"
								}
							],
							"internalType": "struct LiskGarden.Plant",
							"name": "",
							"type": "tuple"
						}
					],
					"stateMutability": "view",
					"type": "function"
				},
				{
					"inputs": [
						{
							"internalType": "uint256",
							"name": "_plantId",
							"type": "uint256"
						}
					],
					"name": "getStatusUserPlant",
					"outputs": [
						{
							"internalType": "enum LiskGarden.GrowthStage",
							"name": "",
							"type": "uint8"
						}
					],
					"stateMutability": "view",
					"type": "function"
				},
				{
					"inputs": [
						{
							"internalType": "address",
							"name": "user",
							"type": "address"
						}
					],
					"name": "getUserPlants",
					"outputs": [
						{
							"internalType": "uint256[]",
							"name": "",
							"type": "uint256[]"
						}
					],
					"stateMutability": "view",
					"type": "function"
				},
				{
					"inputs": [
						{
							"internalType": "uint256",
							"name": "_plantId",
							"type": "uint256"
						}
					],
					"name": "harvestPlant",
					"outputs": [],
					"stateMutability": "nonpayable",
					"type": "function"
				},
				{
					"inputs": [],
					"name": "owner",
					"outputs": [
						{
							"internalType": "address",
							"name": "",
							"type": "address"
						}
					],
					"stateMutability": "view",
					"type": "function"
				},
				{
					"inputs": [],
					"name": "plantCounter",
					"outputs": [
						{
							"internalType": "uint256",
							"name": "",
							"type": "uint256"
						}
					],
					"stateMutability": "view",
					"type": "function"
				},
				{
					"inputs": [],
					"name": "plantSeed",
					"outputs": [
						{
							"internalType": "uint256",
							"name": "",
							"type": "uint256"
						}
					],
					"stateMutability": "payable",
					"type": "function"
				},
				{
					"inputs": [
						{
							"internalType": "uint256",
							"name": "",
							"type": "uint256"
						}
					],
					"name": "plants",
					"outputs": [
						{
							"internalType": "uint256",
							"name": "id",
							"type": "uint256"
						},
						{
							"internalType": "address",
							"name": "owner",
							"type": "address"
						},
						{
							"internalType": "enum LiskGarden.GrowthStage",
							"name": "stage",
							"type": "uint8"
						},
						{
							"internalType": "uint256",
							"name": "plantedDate",
							"type": "uint256"
						},
						{
							"internalType": "uint256",
							"name": "lastWatered",
							"type": "uint256"
						},
						{
							"internalType": "uint8",
							"name": "waterLevel",
							"type": "uint8"
						},
						{
							"internalType": "bool",
							"name": "exists",
							"type": "bool"
						},
						{
							"internalType": "bool",
							"name": "isDead",
							"type": "bool"
						}
					],
					"stateMutability": "view",
					"type": "function"
				},
				{
					"inputs": [
						{
							"internalType": "uint256",
							"name": "_plantId",
							"type": "uint256"
						}
					],
					"name": "updatePlantStage",
					"outputs": [],
					"stateMutability": "nonpayable",
					"type": "function"
				},
				{
					"inputs": [
						{
							"internalType": "address",
							"name": "",
							"type": "address"
						},
						{
							"internalType": "uint256",
							"name": "",
							"type": "uint256"
						}
					],
					"name": "userPlants",
					"outputs": [
						{
							"internalType": "uint256",
							"name": "",
							"type": "uint256"
						}
					],
					"stateMutability": "view",
					"type": "function"
				},
				{
					"inputs": [
						{
							"internalType": "uint256",
							"name": "_plantId",
							"type": "uint256"
						}
					],
					"name": "waterPlant",
					"outputs": [],
					"stateMutability": "nonpayable",
					"type": "function"
				},
				{
					"inputs": [],
					"name": "withdraw",
					"outputs": [],
					"stateMutability": "nonpayable",
					"type": "function"
				},
				{
					"stateMutability": "payable",
					"type": "receive"
				}
			],
			"devdoc": {
				"kind": "dev",
				"methods": {},
				"version": 1
			},
			"evm": {
				"assembly": "    /* \"sesi-1-liskgarden/contracts/20-LiskGarden.sol\":61:6256  contract LiskGarden {... */\n  mstore(0x40, 0x80)\n    /* \"sesi-1-liskgarden/contracts/20-LiskGarden.sol\":1194:1245  constructor() {... */\n  callvalue\n  dup1\n  iszero\n  tag_1\n  jumpi\n  revert(0x00, 0x00)\ntag_1:\n  pop\n    /* \"sesi-1-liskgarden/contracts/20-LiskGarden.sol\":1227:1237  msg.sender */\n  caller\n    /* \"sesi-1-liskgarden/contracts/20-LiskGarden.sol\":1219:1224  owner */\n  0x03\n  0x00\n    /* \"sesi-1-liskgarden/contracts/20-LiskGarden.sol\":1219:1237  owner = msg.sender */\n  0x0100\n  exp\n  dup2\n  sload\n  dup2\n  0xffffffffffffffffffffffffffffffffffffffff\n  mul\n  not\n  and\n  swap1\n  dup4\n  0xffffffffffffffffffffffffffffffffffffffff\n  and\n  mul\n  or\n  swap1\n  sstore\n  pop\n    /* \"sesi-1-liskgarden/contracts/20-LiskGarden.sol\":61:6256  contract LiskGarden {... */\n  dataSize(sub_0)\n  dup1\n  dataOffset(sub_0)\n  0x00\n  codecopy\n  0x00\n  return\nstop\n\nsub_0: assembly {\n        /* \"sesi-1-liskgarden/contracts/20-LiskGarden.sol\":61:6256  contract LiskGarden {... */\n      mstore(0x40, 0x80)\n      jumpi(tag_1, lt(calldatasize, 0x04))\n      shr(0xe0, calldataload(0x00))\n      dup1\n      0x8dd2361c\n      gt\n      tag_22\n      jumpi\n      dup1\n      0xcfc9a5f8\n      gt\n      tag_23\n      jumpi\n      dup1\n      0xcfc9a5f8\n      eq\n      tag_17\n      jumpi\n      dup1\n      0xd0e30db0\n      eq\n      tag_18\n      jumpi\n      dup1\n      0xddd42596\n      eq\n      tag_19\n      jumpi\n      dup1\n      0xe38f8448\n      eq\n      tag_20\n      jumpi\n      dup1\n      0xed0b1f5f\n      eq\n      tag_21\n      jumpi\n      jump(tag_2)\n    tag_23:\n      dup1\n      0x8dd2361c\n      eq\n      tag_12\n      jumpi\n      dup1\n      0x9886bcfa\n      eq\n      tag_13\n      jumpi\n      dup1\n      0x9c471749\n      eq\n      tag_14\n      jumpi\n      dup1\n      0xbacb5ebd\n      eq\n      tag_15\n      jumpi\n      dup1\n      0xcbf64268\n      eq\n      tag_16\n      jumpi\n      jump(tag_2)\n    tag_22:\n      dup1\n      0x74119a38\n      gt\n      tag_24\n      jumpi\n      dup1\n      0x74119a38\n      eq\n      tag_7\n      jumpi\n      dup1\n      0x754e150d\n      eq\n      tag_8\n      jumpi\n      dup1\n      0x7ed4c5be\n      eq\n      tag_9\n      jumpi\n      dup1\n      0x8aee578b\n      eq\n      tag_10\n      jumpi\n      dup1\n      0x8da5cb5b\n      eq\n      tag_11\n      jumpi\n      jump(tag_2)\n    tag_24:\n      dup1\n      0x30cec0eb\n      eq\n      tag_3\n      jumpi\n      dup1\n      0x3ccfd60b\n      eq\n      tag_4\n      jumpi\n      dup1\n      0x51f9efde\n      eq\n      tag_5\n      jumpi\n      dup1\n      0x5abad56b\n      eq\n      tag_6\n      jumpi\n      jump(tag_2)\n    tag_1:\n      jumpi(tag_2, calldatasize)\n      stop\n    tag_2:\n      revert(0x00, 0x00)\n        /* \"sesi-1-liskgarden/contracts/20-LiskGarden.sol\":5563:5683  function getUserPlants(address user) external view returns (uint256[] memory) {... */\n    tag_3:\n      callvalue\n      dup1\n      iszero\n      tag_27\n      jumpi\n      revert(0x00, 0x00)\n    tag_27:\n      pop\n      tag_28\n      0x04\n      dup1\n      calldatasize\n      sub\n      dup2\n      add\n      swap1\n      tag_29\n      swap2\n      swap1\n      tag_30\n      jump\t// in\n    tag_29:\n      tag_31\n      jump\t// in\n    tag_28:\n      mload(0x40)\n      tag_32\n      swap2\n      swap1\n      tag_33\n      jump\t// in\n    tag_32:\n      mload(0x40)\n      dup1\n      swap2\n      sub\n      swap1\n      return\n        /* \"sesi-1-liskgarden/contracts/20-LiskGarden.sol\":5895:6160  function withdraw() external onlyOwner {... */\n    tag_4:\n      callvalue\n      dup1\n      iszero\n      tag_34\n      jumpi\n      revert(0x00, 0x00)\n    tag_34:\n      pop\n      tag_35\n      tag_36\n      jump\t// in\n    tag_35:\n      stop\n        /* \"sesi-1-liskgarden/contracts/20-LiskGarden.sol\":663:713  uint256 public constant STAGE_DURATION = 1 minutes */\n    tag_5:\n      callvalue\n      dup1\n      iszero\n      tag_37\n      jumpi\n      revert(0x00, 0x00)\n    tag_37:\n      pop\n      tag_38\n      tag_39\n      jump\t// in\n    tag_38:\n      mload(0x40)\n      tag_40\n      swap2\n      swap1\n      tag_41\n      jump\t// in\n    tag_40:\n      mload(0x40)\n      dup1\n      swap2\n      sub\n      swap1\n      return\n        /* \"sesi-1-liskgarden/contracts/20-LiskGarden.sol\":5691:5887  function getStatusUserPlant(uint256 _plantId)... */\n    tag_6:\n      callvalue\n      dup1\n      iszero\n      tag_42\n      jumpi\n      revert(0x00, 0x00)\n    tag_42:\n      pop\n      tag_43\n      0x04\n      dup1\n      calldatasize\n      sub\n      dup2\n      add\n      swap1\n      tag_44\n      swap2\n      swap1\n      tag_45\n      jump\t// in\n    tag_44:\n      tag_46\n      jump\t// in\n    tag_43:\n      mload(0x40)\n      tag_47\n      swap2\n      swap1\n      tag_48\n      jump\t// in\n    tag_47:\n      mload(0x40)\n      dup1\n      swap2\n      sub\n      swap1\n      return\n        /* \"sesi-1-liskgarden/contracts/20-LiskGarden.sol\":2051:2614  function plantSeed() isBalanceEnough external payable returns (uint256) {... */\n    tag_7:\n      tag_49\n      tag_50\n      jump\t// in\n    tag_49:\n      mload(0x40)\n      tag_51\n      swap2\n      swap1\n      tag_41\n      jump\t// in\n    tag_51:\n      mload(0x40)\n      dup1\n      swap2\n      sub\n      swap1\n      return\n        /* \"sesi-1-liskgarden/contracts/20-LiskGarden.sol\":2622:3148  function calculateWaterLevel(uint256 _plantId) public view returns (uint8) {... */\n    tag_8:\n      callvalue\n      dup1\n      iszero\n      tag_52\n      jumpi\n      revert(0x00, 0x00)\n    tag_52:\n      pop\n      tag_53\n      0x04\n      dup1\n      calldatasize\n      sub\n      dup2\n      add\n      swap1\n      tag_54\n      swap2\n      swap1\n      tag_45\n      jump\t// in\n    tag_54:\n      tag_55\n      jump\t// in\n    tag_53:\n      mload(0x40)\n      tag_56\n      swap2\n      swap1\n      tag_57\n      jump\t// in\n    tag_56:\n      mload(0x40)\n      dup1\n      swap2\n      sub\n      swap1\n      return\n        /* \"sesi-1-liskgarden/contracts/20-LiskGarden.sol\":720:777  uint256 public constant WATER_DEPLETION_TIME = 30 seconds */\n    tag_9:\n      callvalue\n      dup1\n      iszero\n      tag_58\n      jumpi\n      revert(0x00, 0x00)\n    tag_58:\n      pop\n      tag_59\n      tag_60\n      jump\t// in\n    tag_59:\n      mload(0x40)\n      tag_61\n      swap2\n      swap1\n      tag_41\n      jump\t// in\n    tag_61:\n      mload(0x40)\n      dup1\n      swap2\n      sub\n      swap1\n      return\n        /* \"sesi-1-liskgarden/contracts/20-LiskGarden.sol\":429:476  mapping(address => uint256[]) public userPlants */\n    tag_10:\n      callvalue\n      dup1\n      iszero\n      tag_62\n      jumpi\n      revert(0x00, 0x00)\n    tag_62:\n      pop\n      tag_63\n      0x04\n      dup1\n      calldatasize\n      sub\n      dup2\n      add\n      swap1\n      tag_64\n      swap2\n      swap1\n      tag_65\n      jump\t// in\n    tag_64:\n      tag_66\n      jump\t// in\n    tag_63:\n      mload(0x40)\n      tag_67\n      swap2\n      swap1\n      tag_41\n      jump\t// in\n    tag_67:\n      mload(0x40)\n      dup1\n      swap2\n      sub\n      swap1\n      return\n        /* \"sesi-1-liskgarden/contracts/20-LiskGarden.sol\":519:539  address public owner */\n    tag_11:\n      callvalue\n      dup1\n      iszero\n      tag_68\n      jumpi\n      revert(0x00, 0x00)\n    tag_68:\n      pop\n      tag_69\n      tag_70\n      jump\t// in\n    tag_69:\n      mload(0x40)\n      tag_71\n      swap2\n      swap1\n      tag_72\n      jump\t// in\n    tag_71:\n      mload(0x40)\n      dup1\n      swap2\n      sub\n      swap1\n      return\n        /* \"sesi-1-liskgarden/contracts/20-LiskGarden.sol\":381:420  mapping(uint256 => Plant) public plants */\n    tag_12:\n      callvalue\n      dup1\n      iszero\n      tag_73\n      jumpi\n      revert(0x00, 0x00)\n    tag_73:\n      pop\n      tag_74\n      0x04\n      dup1\n      calldatasize\n      sub\n      dup2\n      add\n      swap1\n      tag_75\n      swap2\n      swap1\n      tag_45\n      jump\t// in\n    tag_75:\n      tag_76\n      jump\t// in\n    tag_74:\n      mload(0x40)\n      tag_77\n      swap9\n      swap8\n      swap7\n      swap6\n      swap5\n      swap4\n      swap3\n      swap2\n      swap1\n      tag_78\n      jump\t// in\n    tag_77:\n      mload(0x40)\n      dup1\n      swap2\n      sub\n      swap1\n      return\n        /* \"sesi-1-liskgarden/contracts/20-LiskGarden.sol\":3518:3854  function waterPlant(uint256 _plantId) external isPlantExist(_plantId) isPlantAlive(_plantId) onlyOwnerPlant(_plantId) {... */\n    tag_13:\n      callvalue\n      dup1\n      iszero\n      tag_79\n      jumpi\n      revert(0x00, 0x00)\n    tag_79:\n      pop\n      tag_80\n      0x04\n      dup1\n      calldatasize\n      sub\n      dup2\n      add\n      swap1\n      tag_81\n      swap2\n      swap1\n      tag_45\n      jump\t// in\n    tag_81:\n      tag_82\n      jump\t// in\n    tag_80:\n      stop\n        /* \"sesi-1-liskgarden/contracts/20-LiskGarden.sol\":485:512  uint256 public plantCounter */\n    tag_14:\n      callvalue\n      dup1\n      iszero\n      tag_83\n      jumpi\n      revert(0x00, 0x00)\n    tag_83:\n      pop\n      tag_84\n      tag_85\n      jump\t// in\n    tag_84:\n      mload(0x40)\n      tag_86\n      swap2\n      swap1\n      tag_41\n      jump\t// in\n    tag_86:\n      mload(0x40)\n      dup1\n      swap2\n      sub\n      swap1\n      return\n        /* \"sesi-1-liskgarden/contracts/20-LiskGarden.sol\":784:830  uint8 public constant WATER_DEPLETION_RATE = 2 */\n    tag_15:\n      callvalue\n      dup1\n      iszero\n      tag_87\n      jumpi\n      revert(0x00, 0x00)\n    tag_87:\n      pop\n      tag_88\n      tag_89\n      jump\t// in\n    tag_88:\n      mload(0x40)\n      tag_90\n      swap2\n      swap1\n      tag_57\n      jump\t// in\n    tag_90:\n      mload(0x40)\n      dup1\n      swap2\n      sub\n      swap1\n      return\n        /* \"sesi-1-liskgarden/contracts/20-LiskGarden.sol\":604:656  uint256 public constant REWARD_HARVEST = 0.003 ether */\n    tag_16:\n      callvalue\n      dup1\n      iszero\n      tag_91\n      jumpi\n      revert(0x00, 0x00)\n    tag_91:\n      pop\n      tag_92\n      tag_93\n      jump\t// in\n    tag_92:\n      mload(0x40)\n      tag_94\n      swap2\n      swap1\n      tag_41\n      jump\t// in\n    tag_94:\n      mload(0x40)\n      dup1\n      swap2\n      sub\n      swap1\n      return\n        /* \"sesi-1-liskgarden/contracts/20-LiskGarden.sol\":548:597  uint256 public constant PLANT_PRICE = 0.001 ether */\n    tag_17:\n      callvalue\n      dup1\n      iszero\n      tag_95\n      jumpi\n      revert(0x00, 0x00)\n    tag_95:\n      pop\n      tag_96\n      tag_97\n      jump\t// in\n    tag_96:\n      mload(0x40)\n      tag_98\n      swap2\n      swap1\n      tag_41\n      jump\t// in\n    tag_98:\n      mload(0x40)\n      dup1\n      swap2\n      sub\n      swap1\n      return\n        /* \"sesi-1-liskgarden/contracts/20-LiskGarden.sol\":6168:6216  function deposit() external payable onlyOwner {} */\n    tag_18:\n      tag_99\n      tag_100\n      jump\t// in\n    tag_99:\n      stop\n        /* \"sesi-1-liskgarden/contracts/20-LiskGarden.sol\":3862:4687  function updatePlantStage(uint256 _plantId) public isPlantExist(_plantId)  {... */\n    tag_19:\n      callvalue\n      dup1\n      iszero\n      tag_101\n      jumpi\n      revert(0x00, 0x00)\n    tag_101:\n      pop\n      tag_102\n      0x04\n      dup1\n      calldatasize\n      sub\n      dup2\n      add\n      swap1\n      tag_103\n      swap2\n      swap1\n      tag_45\n      jump\t// in\n    tag_103:\n      tag_104\n      jump\t// in\n    tag_102:\n      stop\n        /* \"sesi-1-liskgarden/contracts/20-LiskGarden.sol\":4696:5326  function harvestPlant(uint256 _plantId) external isPlantExist(_plantId) isPlantAlive(_plantId) onlyOwnerPlant(_plantId) {... */\n    tag_20:\n      callvalue\n      dup1\n      iszero\n      tag_105\n      jumpi\n      revert(0x00, 0x00)\n    tag_105:\n      pop\n      tag_106\n      0x04\n      dup1\n      calldatasize\n      sub\n      dup2\n      add\n      swap1\n      tag_107\n      swap2\n      swap1\n      tag_45\n      jump\t// in\n    tag_107:\n      tag_108\n      jump\t// in\n    tag_106:\n      stop\n        /* \"sesi-1-liskgarden/contracts/20-LiskGarden.sol\":5334:5555  function getPlant(uint256 _plantId) external view returns (Plant memory) {... */\n    tag_21:\n      callvalue\n      dup1\n      iszero\n      tag_109\n      jumpi\n      revert(0x00, 0x00)\n    tag_109:\n      pop\n      tag_110\n      0x04\n      dup1\n      calldatasize\n      sub\n      dup2\n      add\n      swap1\n      tag_111\n      swap2\n      swap1\n      tag_45\n      jump\t// in\n    tag_111:\n      tag_112\n      jump\t// in\n    tag_110:\n      mload(0x40)\n      tag_113\n      swap2\n      swap1\n      tag_114\n      jump\t// in\n    tag_113:\n      mload(0x40)\n      dup1\n      swap2\n      sub\n      swap1\n      return\n        /* \"sesi-1-liskgarden/contracts/20-LiskGarden.sol\":5563:5683  function getUserPlants(address user) external view returns (uint256[] memory) {... */\n    tag_31:\n        /* \"sesi-1-liskgarden/contracts/20-LiskGarden.sol\":5623:5639  uint256[] memory */\n      0x60\n        /* \"sesi-1-liskgarden/contracts/20-LiskGarden.sol\":5659:5669  userPlants */\n      0x01\n        /* \"sesi-1-liskgarden/contracts/20-LiskGarden.sol\":5659:5675  userPlants[user] */\n      0x00\n        /* \"sesi-1-liskgarden/contracts/20-LiskGarden.sol\":5670:5674  user */\n      dup4\n        /* \"sesi-1-liskgarden/contracts/20-LiskGarden.sol\":5659:5675  userPlants[user] */\n      0xffffffffffffffffffffffffffffffffffffffff\n      and\n      0xffffffffffffffffffffffffffffffffffffffff\n      and\n      dup2\n      mstore\n      0x20\n      add\n      swap1\n      dup2\n      mstore\n      0x20\n      add\n      0x00\n      keccak256\n        /* \"sesi-1-liskgarden/contracts/20-LiskGarden.sol\":5652:5675  return userPlants[user] */\n      dup1\n      sload\n      dup1\n      0x20\n      mul\n      0x20\n      add\n      mload(0x40)\n      swap1\n      dup2\n      add\n      0x40\n      mstore\n      dup1\n      swap3\n      swap2\n      swap1\n      dup2\n      dup2\n      mstore\n      0x20\n      add\n      dup3\n      dup1\n      sload\n      dup1\n      iszero\n      tag_116\n      jumpi\n      0x20\n      mul\n      dup3\n      add\n      swap2\n      swap1\n      0x00\n      mstore\n      keccak256(0x00, 0x20)\n      swap1\n    tag_117:\n      dup2\n      sload\n      dup2\n      mstore\n      0x20\n      add\n      swap1\n      0x01\n      add\n      swap1\n      dup1\n      dup4\n      gt\n      tag_117\n      jumpi\n    tag_116:\n      pop\n      pop\n      pop\n      pop\n      pop\n      swap1\n      pop\n        /* \"sesi-1-liskgarden/contracts/20-LiskGarden.sol\":5563:5683  function getUserPlants(address user) external view returns (uint256[] memory) {... */\n      swap2\n      swap1\n      pop\n      jump\t// out\n        /* \"sesi-1-liskgarden/contracts/20-LiskGarden.sol\":5895:6160  function withdraw() external onlyOwner {... */\n    tag_36:\n        /* \"sesi-1-liskgarden/contracts/20-LiskGarden.sol\":1305:1310  owner */\n      0x03\n      0x00\n      swap1\n      sload\n      swap1\n      0x0100\n      exp\n      swap1\n      div\n      0xffffffffffffffffffffffffffffffffffffffff\n      and\n        /* \"sesi-1-liskgarden/contracts/20-LiskGarden.sol\":1291:1310  msg.sender == owner */\n      0xffffffffffffffffffffffffffffffffffffffff\n      and\n        /* \"sesi-1-liskgarden/contracts/20-LiskGarden.sol\":1291:1301  msg.sender */\n      caller\n        /* \"sesi-1-liskgarden/contracts/20-LiskGarden.sol\":1291:1310  msg.sender == owner */\n      0xffffffffffffffffffffffffffffffffffffffff\n      and\n      eq\n        /* \"sesi-1-liskgarden/contracts/20-LiskGarden.sol\":1283:1326  require(msg.sender == owner, \"Only owner!\") */\n      tag_119\n      jumpi\n      mload(0x40)\n      0x08c379a000000000000000000000000000000000000000000000000000000000\n      dup2\n      mstore\n      0x04\n      add\n      tag_120\n      swap1\n      tag_121\n      jump\t// in\n    tag_120:\n      mload(0x40)\n      dup1\n      swap2\n      sub\n      swap1\n      revert\n    tag_119:\n        /* \"sesi-1-liskgarden/contracts/20-LiskGarden.sol\":5945:5959  uint256 amount */\n      0x00\n        /* \"sesi-1-liskgarden/contracts/20-LiskGarden.sol\":5962:5983  address(this).balance */\n      selfbalance\n        /* \"sesi-1-liskgarden/contracts/20-LiskGarden.sol\":5945:5983  uint256 amount = address(this).balance */\n      swap1\n      pop\n        /* \"sesi-1-liskgarden/contracts/20-LiskGarden.sol\":6011:6012  0 */\n      0x00\n        /* \"sesi-1-liskgarden/contracts/20-LiskGarden.sol\":6002:6008  amount */\n      dup2\n        /* \"sesi-1-liskgarden/contracts/20-LiskGarden.sol\":6002:6012  amount > 0 */\n      gt\n        /* \"sesi-1-liskgarden/contracts/20-LiskGarden.sol\":5994:6036  require(amount > 0, \"Nothing to withdraw\") */\n      tag_123\n      jumpi\n      mload(0x40)\n      0x08c379a000000000000000000000000000000000000000000000000000000000\n      dup2\n      mstore\n      0x04\n      add\n      tag_124\n      swap1\n      tag_125\n      jump\t// in\n    tag_124:\n      mload(0x40)\n      dup1\n      swap2\n      sub\n      swap1\n      revert\n    tag_123:\n        /* \"sesi-1-liskgarden/contracts/20-LiskGarden.sol\":6050:6062  bool success */\n      0x00\n        /* \"sesi-1-liskgarden/contracts/20-LiskGarden.sol\":6076:6081  owner */\n      0x03\n      0x00\n      swap1\n      sload\n      swap1\n      0x0100\n      exp\n      swap1\n      div\n      0xffffffffffffffffffffffffffffffffffffffff\n      and\n        /* \"sesi-1-liskgarden/contracts/20-LiskGarden.sol\":6068:6087  payable(owner).call */\n      0xffffffffffffffffffffffffffffffffffffffff\n      and\n        /* \"sesi-1-liskgarden/contracts/20-LiskGarden.sol\":6095:6101  amount */\n      dup3\n        /* \"sesi-1-liskgarden/contracts/20-LiskGarden.sol\":6068:6106  payable(owner).call{value: amount}(\"\") */\n      mload(0x40)\n      tag_126\n      swap1\n      tag_127\n      jump\t// in\n    tag_126:\n      0x00\n      mload(0x40)\n      dup1\n      dup4\n      sub\n      dup2\n      dup6\n      dup8\n      gas\n      call\n      swap3\n      pop\n      pop\n      pop\n      returndatasize\n      dup1\n      0x00\n      dup2\n      eq\n      tag_130\n      jumpi\n      mload(0x40)\n      swap2\n      pop\n      and(add(returndatasize, 0x3f), not(0x1f))\n      dup3\n      add\n      0x40\n      mstore\n      returndatasize\n      dup3\n      mstore\n      returndatasize\n      0x00\n      0x20\n      dup5\n      add\n      returndatacopy\n      jump(tag_129)\n    tag_130:\n      0x60\n      swap2\n      pop\n    tag_129:\n      pop\n        /* \"sesi-1-liskgarden/contracts/20-LiskGarden.sol\":6049:6106  (bool success, ) = payable(owner).call{value: amount}(\"\") */\n      pop\n      swap1\n      pop\n        /* \"sesi-1-liskgarden/contracts/20-LiskGarden.sol\":6125:6132  success */\n      dup1\n        /* \"sesi-1-liskgarden/contracts/20-LiskGarden.sol\":6117:6152  require(success, \"Failed transfer\") */\n      tag_131\n      jumpi\n      mload(0x40)\n      0x08c379a000000000000000000000000000000000000000000000000000000000\n      dup2\n      mstore\n      0x04\n      add\n      tag_132\n      swap1\n      tag_133\n      jump\t// in\n    tag_132:\n      mload(0x40)\n      dup1\n      swap2\n      sub\n      swap1\n      revert\n    tag_131:\n        /* \"sesi-1-liskgarden/contracts/20-LiskGarden.sol\":5934:6160  {... */\n      pop\n      pop\n        /* \"sesi-1-liskgarden/contracts/20-LiskGarden.sol\":5895:6160  function withdraw() external onlyOwner {... */\n      jump\t// out\n        /* \"sesi-1-liskgarden/contracts/20-LiskGarden.sol\":663:713  uint256 public constant STAGE_DURATION = 1 minutes */\n    tag_39:\n        /* \"sesi-1-liskgarden/contracts/20-LiskGarden.sol\":704:713  1 minutes */\n      0x3c\n        /* \"sesi-1-liskgarden/contracts/20-LiskGarden.sol\":663:713  uint256 public constant STAGE_DURATION = 1 minutes */\n      dup2\n      jump\t// out\n        /* \"sesi-1-liskgarden/contracts/20-LiskGarden.sol\":5691:5887  function getStatusUserPlant(uint256 _plantId)... */\n    tag_46:\n        /* \"sesi-1-liskgarden/contracts/20-LiskGarden.sol\":5821:5832  GrowthStage */\n      0x00\n        /* \"sesi-1-liskgarden/contracts/20-LiskGarden.sol\":5793:5801  _plantId */\n      dup2\n        /* \"sesi-1-liskgarden/contracts/20-LiskGarden.sol\":1441:1451  msg.sender */\n      caller\n        /* \"sesi-1-liskgarden/contracts/20-LiskGarden.sol\":1415:1451  plants[_plantId].owner == msg.sender */\n      0xffffffffffffffffffffffffffffffffffffffff\n      and\n        /* \"sesi-1-liskgarden/contracts/20-LiskGarden.sol\":1415:1421  plants */\n      0x00\n        /* \"sesi-1-liskgarden/contracts/20-LiskGarden.sol\":1415:1431  plants[_plantId] */\n      0x00\n        /* \"sesi-1-liskgarden/contracts/20-LiskGarden.sol\":1422:1430  _plantId */\n      dup4\n        /* \"sesi-1-liskgarden/contracts/20-LiskGarden.sol\":1415:1431  plants[_plantId] */\n      dup2\n      mstore\n      0x20\n      add\n      swap1\n      dup2\n      mstore\n      0x20\n      add\n      0x00\n      keccak256\n        /* \"sesi-1-liskgarden/contracts/20-LiskGarden.sol\":1415:1437  plants[_plantId].owner */\n      0x01\n      add\n      0x00\n      swap1\n      sload\n      swap1\n      0x0100\n      exp\n      swap1\n      div\n      0xffffffffffffffffffffffffffffffffffffffff\n      and\n        /* \"sesi-1-liskgarden/contracts/20-LiskGarden.sol\":1415:1451  plants[_plantId].owner == msg.sender */\n      0xffffffffffffffffffffffffffffffffffffffff\n      and\n      eq\n        /* \"sesi-1-liskgarden/contracts/20-LiskGarden.sol\":1407:1478  require(plants[_plantId].owner == msg.sender, \"You are not the owner!\") */\n      tag_135\n      jumpi\n      mload(0x40)\n      0x08c379a000000000000000000000000000000000000000000000000000000000\n      dup2\n      mstore\n      0x04\n      add\n      tag_136\n      swap1\n      tag_137\n      jump\t// in\n    tag_136:\n      mload(0x40)\n      dup1\n      swap2\n      sub\n      swap1\n      revert\n    tag_135:\n        /* \"sesi-1-liskgarden/contracts/20-LiskGarden.sol\":5857:5863  plants */\n      0x00\n        /* \"sesi-1-liskgarden/contracts/20-LiskGarden.sol\":5857:5873  plants[_plantId] */\n      0x00\n        /* \"sesi-1-liskgarden/contracts/20-LiskGarden.sol\":5864:5872  _plantId */\n      dup5\n        /* \"sesi-1-liskgarden/contracts/20-LiskGarden.sol\":5857:5873  plants[_plantId] */\n      dup2\n      mstore\n      0x20\n      add\n      swap1\n      dup2\n      mstore\n      0x20\n      add\n      0x00\n      keccak256\n        /* \"sesi-1-liskgarden/contracts/20-LiskGarden.sol\":5857:5879  plants[_plantId].stage */\n      0x01\n      add\n      0x14\n      swap1\n      sload\n      swap1\n      0x0100\n      exp\n      swap1\n      div\n      0xff\n      and\n        /* \"sesi-1-liskgarden/contracts/20-LiskGarden.sol\":5850:5879  return plants[_plantId].stage */\n      swap2\n      pop\n        /* \"sesi-1-liskgarden/contracts/20-LiskGarden.sol\":5691:5887  function getStatusUserPlant(uint256 _plantId)... */\n      pop\n      swap2\n      swap1\n      pop\n      jump\t// out\n        /* \"sesi-1-liskgarden/contracts/20-LiskGarden.sol\":2051:2614  function plantSeed() isBalanceEnough external payable returns (uint256) {... */\n    tag_50:\n        /* \"sesi-1-liskgarden/contracts/20-LiskGarden.sol\":2114:2121  uint256 */\n      0x00\n        /* \"sesi-1-liskgarden/contracts/20-LiskGarden.sol\":586:597  0.001 ether */\n      0x038d7ea4c68000\n        /* \"sesi-1-liskgarden/contracts/20-LiskGarden.sol\":1550:1559  msg.value */\n      callvalue\n        /* \"sesi-1-liskgarden/contracts/20-LiskGarden.sol\":1550:1574  msg.value >= PLANT_PRICE */\n      lt\n      iszero\n        /* \"sesi-1-liskgarden/contracts/20-LiskGarden.sol\":1542:1600  require(msg.value >= PLANT_PRICE, \"Insufficient balance!\") */\n      tag_140\n      jumpi\n      mload(0x40)\n      0x08c379a000000000000000000000000000000000000000000000000000000000\n      dup2\n      mstore\n      0x04\n      add\n      tag_141\n      swap1\n      tag_142\n      jump\t// in\n    tag_141:\n      mload(0x40)\n      dup1\n      swap2\n      sub\n      swap1\n      revert\n    tag_140:\n        /* \"sesi-1-liskgarden/contracts/20-LiskGarden.sol\":2159:2449  Plant({... */\n      mload(0x40)\n      dup1\n      0x0100\n      add\n      0x40\n      mstore\n      dup1\n        /* \"sesi-1-liskgarden/contracts/20-LiskGarden.sol\":2184:2196  plantCounter */\n      sload(0x02)\n        /* \"sesi-1-liskgarden/contracts/20-LiskGarden.sol\":2159:2449  Plant({... */\n      dup2\n      mstore\n      0x20\n      add\n        /* \"sesi-1-liskgarden/contracts/20-LiskGarden.sol\":2218:2228  msg.sender */\n      caller\n        /* \"sesi-1-liskgarden/contracts/20-LiskGarden.sol\":2159:2449  Plant({... */\n      0xffffffffffffffffffffffffffffffffffffffff\n      and\n      dup2\n      mstore\n      0x20\n      add\n        /* \"sesi-1-liskgarden/contracts/20-LiskGarden.sol\":2250:2266  GrowthStage.SEED */\n      0x00\n        /* \"sesi-1-liskgarden/contracts/20-LiskGarden.sol\":2159:2449  Plant({... */\n      0x03\n      dup2\n      gt\n      iszero\n      tag_144\n      jumpi\n      tag_145\n      tag_146\n      jump\t// in\n    tag_145:\n    tag_144:\n      dup2\n      mstore\n      0x20\n      add\n        /* \"sesi-1-liskgarden/contracts/20-LiskGarden.sol\":2294:2309  block.timestamp */\n      timestamp\n        /* \"sesi-1-liskgarden/contracts/20-LiskGarden.sol\":2159:2449  Plant({... */\n      dup2\n      mstore\n      0x20\n      add\n        /* \"sesi-1-liskgarden/contracts/20-LiskGarden.sol\":2337:2352  block.timestamp */\n      timestamp\n        /* \"sesi-1-liskgarden/contracts/20-LiskGarden.sol\":2159:2449  Plant({... */\n      dup2\n      mstore\n      0x20\n      add\n        /* \"sesi-1-liskgarden/contracts/20-LiskGarden.sol\":2379:2382  100 */\n      0x64\n        /* \"sesi-1-liskgarden/contracts/20-LiskGarden.sol\":2159:2449  Plant({... */\n      0xff\n      and\n      dup2\n      mstore\n      0x20\n      add\n        /* \"sesi-1-liskgarden/contracts/20-LiskGarden.sol\":2405:2409  true */\n      0x01\n        /* \"sesi-1-liskgarden/contracts/20-LiskGarden.sol\":2159:2449  Plant({... */\n      iszero\n      iszero\n      dup2\n      mstore\n      0x20\n      add\n        /* \"sesi-1-liskgarden/contracts/20-LiskGarden.sol\":2432:2437  false */\n      0x00\n        /* \"sesi-1-liskgarden/contracts/20-LiskGarden.sol\":2159:2449  Plant({... */\n      iszero\n      iszero\n      dup2\n      mstore\n      pop\n        /* \"sesi-1-liskgarden/contracts/20-LiskGarden.sol\":2134:2140  plants */\n      0x00\n        /* \"sesi-1-liskgarden/contracts/20-LiskGarden.sol\":2134:2156  plants[++plantCounter] */\n      0x00\n        /* \"sesi-1-liskgarden/contracts/20-LiskGarden.sol\":2143:2155  plantCounter */\n      0x02\n      0x00\n        /* \"sesi-1-liskgarden/contracts/20-LiskGarden.sol\":2141:2155  ++plantCounter */\n      dup2\n      sload\n      tag_147\n      swap1\n      tag_148\n      jump\t// in\n    tag_147:\n      swap2\n      swap1\n      pop\n      dup2\n      swap1\n      sstore\n        /* \"sesi-1-liskgarden/contracts/20-LiskGarden.sol\":2134:2156  plants[++plantCounter] */\n      dup2\n      mstore\n      0x20\n      add\n      swap1\n      dup2\n      mstore\n      0x20\n      add\n      0x00\n      keccak256\n        /* \"sesi-1-liskgarden/contracts/20-LiskGarden.sol\":2134:2449  plants[++plantCounter] = Plant({... */\n      0x00\n      dup3\n      add\n      mload\n      dup2\n      0x00\n      add\n      sstore\n      0x20\n      dup3\n      add\n      mload\n      dup2\n      0x01\n      add\n      exp(0x0100, 0x00)\n      dup2\n      sload\n      dup2\n      0xffffffffffffffffffffffffffffffffffffffff\n      mul\n      not\n      and\n      swap1\n      dup4\n      0xffffffffffffffffffffffffffffffffffffffff\n      and\n      mul\n      or\n      swap1\n      sstore\n      pop\n      0x40\n      dup3\n      add\n      mload\n      dup2\n      0x01\n      add\n      exp(0x0100, 0x14)\n      dup2\n      sload\n      dup2\n      0xff\n      mul\n      not\n      and\n      swap1\n      dup4\n      0x03\n      dup2\n      gt\n      iszero\n      tag_149\n      jumpi\n      tag_150\n      tag_146\n      jump\t// in\n    tag_150:\n    tag_149:\n      mul\n      or\n      swap1\n      sstore\n      pop\n      0x60\n      dup3\n      add\n      mload\n      dup2\n      0x02\n      add\n      sstore\n      0x80\n      dup3\n      add\n      mload\n      dup2\n      0x03\n      add\n      sstore\n      0xa0\n      dup3\n      add\n      mload\n      dup2\n      0x04\n      add\n      exp(0x0100, 0x00)\n      dup2\n      sload\n      dup2\n      0xff\n      mul\n      not\n      and\n      swap1\n      dup4\n      0xff\n      and\n      mul\n      or\n      swap1\n      sstore\n      pop\n      0xc0\n      dup3\n      add\n      mload\n      dup2\n      0x04\n      add\n      exp(0x0100, 0x01)\n      dup2\n      sload\n      dup2\n      0xff\n      mul\n      not\n      and\n      swap1\n      dup4\n      iszero\n      iszero\n      mul\n      or\n      swap1\n      sstore\n      pop\n      0xe0\n      dup3\n      add\n      mload\n      dup2\n      0x04\n      add\n      exp(0x0100, 0x02)\n      dup2\n      sload\n      dup2\n      0xff\n      mul\n      not\n      and\n      swap1\n      dup4\n      iszero\n      iszero\n      mul\n      or\n      swap1\n      sstore\n      pop\n      swap1\n      pop\n      pop\n        /* \"sesi-1-liskgarden/contracts/20-LiskGarden.sol\":2470:2480  userPlants */\n      0x01\n        /* \"sesi-1-liskgarden/contracts/20-LiskGarden.sol\":2470:2492  userPlants[msg.sender] */\n      0x00\n        /* \"sesi-1-liskgarden/contracts/20-LiskGarden.sol\":2481:2491  msg.sender */\n      caller\n        /* \"sesi-1-liskgarden/contracts/20-LiskGarden.sol\":2470:2492  userPlants[msg.sender] */\n      0xffffffffffffffffffffffffffffffffffffffff\n      and\n      0xffffffffffffffffffffffffffffffffffffffff\n      and\n      dup2\n      mstore\n      0x20\n      add\n      swap1\n      dup2\n      mstore\n      0x20\n      add\n      0x00\n      keccak256\n        /* \"sesi-1-liskgarden/contracts/20-LiskGarden.sol\":2498:2510  plantCounter */\n      sload(0x02)\n        /* \"sesi-1-liskgarden/contracts/20-LiskGarden.sol\":2470:2511  userPlants[msg.sender].push(plantCounter) */\n      swap1\n      dup1\n      0x01\n      dup2\n      sload\n      add\n      dup1\n      dup3\n      sstore\n      dup1\n      swap2\n      pop\n      pop\n      0x01\n      swap1\n      sub\n      swap1\n      0x00\n      mstore\n      keccak256(0x00, 0x20)\n      add\n      0x00\n      swap1\n      swap2\n      swap1\n      swap2\n      swap1\n      swap2\n      pop\n      sstore\n        /* \"sesi-1-liskgarden/contracts/20-LiskGarden.sol\":2561:2573  plantCounter */\n      sload(0x02)\n        /* \"sesi-1-liskgarden/contracts/20-LiskGarden.sol\":2549:2559  msg.sender */\n      caller\n        /* \"sesi-1-liskgarden/contracts/20-LiskGarden.sol\":2537:2574  PlantSeeded(msg.sender, plantCounter) */\n      0xffffffffffffffffffffffffffffffffffffffff\n      and\n      0x4f5b22082ac57121703b0b6c1203ef527cfbfa5069616fee6deb979d124adbf0\n      mload(0x40)\n      mload(0x40)\n      dup1\n      swap2\n      sub\n      swap1\n      log3\n        /* \"sesi-1-liskgarden/contracts/20-LiskGarden.sol\":2594:2606  plantCounter */\n      sload(0x02)\n        /* \"sesi-1-liskgarden/contracts/20-LiskGarden.sol\":2587:2606  return plantCounter */\n      swap1\n      pop\n        /* \"sesi-1-liskgarden/contracts/20-LiskGarden.sol\":2051:2614  function plantSeed() isBalanceEnough external payable returns (uint256) {... */\n      swap1\n      jump\t// out\n        /* \"sesi-1-liskgarden/contracts/20-LiskGarden.sol\":2622:3148  function calculateWaterLevel(uint256 _plantId) public view returns (uint8) {... */\n    tag_55:\n        /* \"sesi-1-liskgarden/contracts/20-LiskGarden.sol\":2690:2695  uint8 */\n      0x00\n        /* \"sesi-1-liskgarden/contracts/20-LiskGarden.sol\":2708:2726  Plant memory plant */\n      0x00\n        /* \"sesi-1-liskgarden/contracts/20-LiskGarden.sol\":2729:2735  plants */\n      0x00\n        /* \"sesi-1-liskgarden/contracts/20-LiskGarden.sol\":2729:2745  plants[_plantId] */\n      0x00\n        /* \"sesi-1-liskgarden/contracts/20-LiskGarden.sol\":2736:2744  _plantId */\n      dup5\n        /* \"sesi-1-liskgarden/contracts/20-LiskGarden.sol\":2729:2745  plants[_plantId] */\n      dup2\n      mstore\n      0x20\n      add\n      swap1\n      dup2\n      mstore\n      0x20\n      add\n      0x00\n      keccak256\n        /* \"sesi-1-liskgarden/contracts/20-LiskGarden.sol\":2708:2745  Plant memory plant = plants[_plantId] */\n      mload(0x40)\n      dup1\n      0x0100\n      add\n      0x40\n      mstore\n      swap1\n      dup2\n      0x00\n      dup3\n      add\n      sload\n      dup2\n      mstore\n      0x20\n      add\n      0x01\n      dup3\n      add\n      0x00\n      swap1\n      sload\n      swap1\n      0x0100\n      exp\n      swap1\n      div\n      0xffffffffffffffffffffffffffffffffffffffff\n      and\n      0xffffffffffffffffffffffffffffffffffffffff\n      and\n      0xffffffffffffffffffffffffffffffffffffffff\n      and\n      dup2\n      mstore\n      0x20\n      add\n      0x01\n      dup3\n      add\n      0x14\n      swap1\n      sload\n      swap1\n      0x0100\n      exp\n      swap1\n      div\n      0xff\n      and\n      0x03\n      dup2\n      gt\n      iszero\n      tag_153\n      jumpi\n      tag_154\n      tag_146\n      jump\t// in\n    tag_154:\n    tag_153:\n      0x03\n      dup2\n      gt\n      iszero\n      tag_155\n      jumpi\n      tag_156\n      tag_146\n      jump\t// in\n    tag_156:\n    tag_155:\n      dup2\n      mstore\n      0x20\n      add\n      0x02\n      dup3\n      add\n      sload\n      dup2\n      mstore\n      0x20\n      add\n      0x03\n      dup3\n      add\n      sload\n      dup2\n      mstore\n      0x20\n      add\n      0x04\n      dup3\n      add\n      0x00\n      swap1\n      sload\n      swap1\n      0x0100\n      exp\n      swap1\n      div\n      0xff\n      and\n      0xff\n      and\n      0xff\n      and\n      dup2\n      mstore\n      0x20\n      add\n      0x04\n      dup3\n      add\n      0x01\n      swap1\n      sload\n      swap1\n      0x0100\n      exp\n      swap1\n      div\n      0xff\n      and\n      iszero\n      iszero\n      iszero\n      iszero\n      dup2\n      mstore\n      0x20\n      add\n      0x04\n      dup3\n      add\n      0x02\n      swap1\n      sload\n      swap1\n      0x0100\n      exp\n      swap1\n      div\n      0xff\n      and\n      iszero\n      iszero\n      iszero\n      iszero\n      dup2\n      mstore\n      pop\n      pop\n      swap1\n      pop\n        /* \"sesi-1-liskgarden/contracts/20-LiskGarden.sol\":2762:2767  plant */\n      dup1\n        /* \"sesi-1-liskgarden/contracts/20-LiskGarden.sol\":2762:2774  plant.exists */\n      0xc0\n      add\n      mload\n        /* \"sesi-1-liskgarden/contracts/20-LiskGarden.sol\":2761:2774  !plant.exists */\n      iszero\n        /* \"sesi-1-liskgarden/contracts/20-LiskGarden.sol\":2761:2790  !plant.exists || plant.isDead */\n      dup1\n      tag_157\n      jumpi\n      pop\n        /* \"sesi-1-liskgarden/contracts/20-LiskGarden.sol\":2778:2783  plant */\n      dup1\n        /* \"sesi-1-liskgarden/contracts/20-LiskGarden.sol\":2778:2790  plant.isDead */\n      0xe0\n      add\n      mload\n        /* \"sesi-1-liskgarden/contracts/20-LiskGarden.sol\":2761:2790  !plant.exists || plant.isDead */\n    tag_157:\n        /* \"sesi-1-liskgarden/contracts/20-LiskGarden.sol\":2758:2800  if(!plant.exists || plant.isDead) return 0 */\n      iszero\n      tag_158\n      jumpi\n        /* \"sesi-1-liskgarden/contracts/20-LiskGarden.sol\":2799:2800  0 */\n      0x00\n        /* \"sesi-1-liskgarden/contracts/20-LiskGarden.sol\":2792:2800  return 0 */\n      swap2\n      pop\n      pop\n      jump(tag_152)\n        /* \"sesi-1-liskgarden/contracts/20-LiskGarden.sol\":2758:2800  if(!plant.exists || plant.isDead) return 0 */\n    tag_158:\n        /* \"sesi-1-liskgarden/contracts/20-LiskGarden.sol\":2813:2837  uint256 timeSinceWatered */\n      0x00\n        /* \"sesi-1-liskgarden/contracts/20-LiskGarden.sol\":2858:2863  plant */\n      dup2\n        /* \"sesi-1-liskgarden/contracts/20-LiskGarden.sol\":2858:2875  plant.lastWatered */\n      0x80\n      add\n      mload\n        /* \"sesi-1-liskgarden/contracts/20-LiskGarden.sol\":2840:2855  block.timestamp */\n      timestamp\n        /* \"sesi-1-liskgarden/contracts/20-LiskGarden.sol\":2840:2875  block.timestamp - plant.lastWatered */\n      tag_159\n      swap2\n      swap1\n      tag_160\n      jump\t// in\n    tag_159:\n        /* \"sesi-1-liskgarden/contracts/20-LiskGarden.sol\":2813:2875  uint256 timeSinceWatered = block.timestamp - plant.lastWatered */\n      swap1\n      pop\n        /* \"sesi-1-liskgarden/contracts/20-LiskGarden.sol\":2888:2914  uint256 depletionIntervals */\n      0x00\n        /* \"sesi-1-liskgarden/contracts/20-LiskGarden.sol\":767:777  30 seconds */\n      0x1e\n        /* \"sesi-1-liskgarden/contracts/20-LiskGarden.sol\":2917:2933  timeSinceWatered */\n      dup3\n        /* \"sesi-1-liskgarden/contracts/20-LiskGarden.sol\":2917:2956  timeSinceWatered / WATER_DEPLETION_TIME */\n      tag_161\n      swap2\n      swap1\n      tag_162\n      jump\t// in\n    tag_161:\n        /* \"sesi-1-liskgarden/contracts/20-LiskGarden.sol\":2888:2956  uint256 depletionIntervals = timeSinceWatered / WATER_DEPLETION_TIME */\n      swap1\n      pop\n        /* \"sesi-1-liskgarden/contracts/20-LiskGarden.sol\":2969:2986  uint256 waterLost */\n      0x00\n        /* \"sesi-1-liskgarden/contracts/20-LiskGarden.sol\":829:830  2 */\n      0x02\n        /* \"sesi-1-liskgarden/contracts/20-LiskGarden.sol\":2989:3030  depletionIntervals * WATER_DEPLETION_RATE */\n      0xff\n      and\n        /* \"sesi-1-liskgarden/contracts/20-LiskGarden.sol\":2989:3007  depletionIntervals */\n      dup3\n        /* \"sesi-1-liskgarden/contracts/20-LiskGarden.sol\":2989:3030  depletionIntervals * WATER_DEPLETION_RATE */\n      tag_163\n      swap2\n      swap1\n      tag_164\n      jump\t// in\n    tag_163:\n        /* \"sesi-1-liskgarden/contracts/20-LiskGarden.sol\":2969:3030  uint256 waterLost = depletionIntervals * WATER_DEPLETION_RATE */\n      swap1\n      pop\n        /* \"sesi-1-liskgarden/contracts/20-LiskGarden.sol\":3059:3064  plant */\n      dup4\n        /* \"sesi-1-liskgarden/contracts/20-LiskGarden.sol\":3059:3075  plant.waterLevel */\n      0xa0\n      add\n      mload\n        /* \"sesi-1-liskgarden/contracts/20-LiskGarden.sol\":3046:3075  waterLost >= plant.waterLevel */\n      0xff\n      and\n        /* \"sesi-1-liskgarden/contracts/20-LiskGarden.sol\":3046:3055  waterLost */\n      dup2\n        /* \"sesi-1-liskgarden/contracts/20-LiskGarden.sol\":3046:3075  waterLost >= plant.waterLevel */\n      lt\n        /* \"sesi-1-liskgarden/contracts/20-LiskGarden.sol\":3043:3085  if(waterLost >= plant.waterLevel) return 0 */\n      tag_165\n      jumpi\n        /* \"sesi-1-liskgarden/contracts/20-LiskGarden.sol\":3084:3085  0 */\n      0x00\n        /* \"sesi-1-liskgarden/contracts/20-LiskGarden.sol\":3077:3085  return 0 */\n      swap5\n      pop\n      pop\n      pop\n      pop\n      pop\n      jump(tag_152)\n        /* \"sesi-1-liskgarden/contracts/20-LiskGarden.sol\":3043:3085  if(waterLost >= plant.waterLevel) return 0 */\n    tag_165:\n        /* \"sesi-1-liskgarden/contracts/20-LiskGarden.sol\":3130:3139  waterLost */\n      dup1\n        /* \"sesi-1-liskgarden/contracts/20-LiskGarden.sol\":3111:3116  plant */\n      dup5\n        /* \"sesi-1-liskgarden/contracts/20-LiskGarden.sol\":3111:3127  plant.waterLevel */\n      0xa0\n      add\n      mload\n        /* \"sesi-1-liskgarden/contracts/20-LiskGarden.sol\":3111:3139  plant.waterLevel - waterLost */\n      0xff\n      and\n      tag_166\n      swap2\n      swap1\n      tag_160\n      jump\t// in\n    tag_166:\n        /* \"sesi-1-liskgarden/contracts/20-LiskGarden.sol\":3098:3140  return uint8(plant.waterLevel - waterLost) */\n      swap5\n      pop\n      pop\n      pop\n      pop\n      pop\n        /* \"sesi-1-liskgarden/contracts/20-LiskGarden.sol\":2622:3148  function calculateWaterLevel(uint256 _plantId) public view returns (uint8) {... */\n    tag_152:\n      swap2\n      swap1\n      pop\n      jump\t// out\n        /* \"sesi-1-liskgarden/contracts/20-LiskGarden.sol\":720:777  uint256 public constant WATER_DEPLETION_TIME = 30 seconds */\n    tag_60:\n        /* \"sesi-1-liskgarden/contracts/20-LiskGarden.sol\":767:777  30 seconds */\n      0x1e\n        /* \"sesi-1-liskgarden/contracts/20-LiskGarden.sol\":720:777  uint256 public constant WATER_DEPLETION_TIME = 30 seconds */\n      dup2\n      jump\t// out\n        /* \"sesi-1-liskgarden/contracts/20-LiskGarden.sol\":429:476  mapping(address => uint256[]) public userPlants */\n    tag_66:\n      mstore(0x20, 0x01)\n      dup2\n      0x00\n      mstore\n      keccak256(0x00, 0x40)\n      dup2\n      dup2\n      sload\n      dup2\n      lt\n      tag_167\n      jumpi\n      0x00\n      dup1\n      revert\n    tag_167:\n      swap1\n      0x00\n      mstore\n      keccak256(0x00, 0x20)\n      add\n      0x00\n      swap2\n      pop\n      swap2\n      pop\n      pop\n      sload\n      dup2\n      jump\t// out\n        /* \"sesi-1-liskgarden/contracts/20-LiskGarden.sol\":519:539  address public owner */\n    tag_70:\n      0x03\n      0x00\n      swap1\n      sload\n      swap1\n      0x0100\n      exp\n      swap1\n      div\n      0xffffffffffffffffffffffffffffffffffffffff\n      and\n      dup2\n      jump\t// out\n        /* \"sesi-1-liskgarden/contracts/20-LiskGarden.sol\":381:420  mapping(uint256 => Plant) public plants */\n    tag_76:\n      mstore(0x20, 0x00)\n      dup1\n      0x00\n      mstore\n      keccak256(0x00, 0x40)\n      0x00\n      swap2\n      pop\n      swap1\n      pop\n      dup1\n      0x00\n      add\n      sload\n      swap1\n      dup1\n      0x01\n      add\n      0x00\n      swap1\n      sload\n      swap1\n      0x0100\n      exp\n      swap1\n      div\n      0xffffffffffffffffffffffffffffffffffffffff\n      and\n      swap1\n      dup1\n      0x01\n      add\n      0x14\n      swap1\n      sload\n      swap1\n      0x0100\n      exp\n      swap1\n      div\n      0xff\n      and\n      swap1\n      dup1\n      0x02\n      add\n      sload\n      swap1\n      dup1\n      0x03\n      add\n      sload\n      swap1\n      dup1\n      0x04\n      add\n      0x00\n      swap1\n      sload\n      swap1\n      0x0100\n      exp\n      swap1\n      div\n      0xff\n      and\n      swap1\n      dup1\n      0x04\n      add\n      0x01\n      swap1\n      sload\n      swap1\n      0x0100\n      exp\n      swap1\n      div\n      0xff\n      and\n      swap1\n      dup1\n      0x04\n      add\n      0x02\n      swap1\n      sload\n      swap1\n      0x0100\n      exp\n      swap1\n      div\n      0xff\n      and\n      swap1\n      pop\n      dup9\n      jump\t// out\n        /* \"sesi-1-liskgarden/contracts/20-LiskGarden.sol\":3518:3854  function waterPlant(uint256 _plantId) external isPlantExist(_plantId) isPlantAlive(_plantId) onlyOwnerPlant(_plantId) {... */\n    tag_82:\n        /* \"sesi-1-liskgarden/contracts/20-LiskGarden.sol\":3578:3586  _plantId */\n      dup1\n        /* \"sesi-1-liskgarden/contracts/20-LiskGarden.sol\":1822:1828  plants */\n      0x00\n        /* \"sesi-1-liskgarden/contracts/20-LiskGarden.sol\":1822:1838  plants[_plantId] */\n      0x00\n        /* \"sesi-1-liskgarden/contracts/20-LiskGarden.sol\":1829:1837  _plantId */\n      dup3\n        /* \"sesi-1-liskgarden/contracts/20-LiskGarden.sol\":1822:1838  plants[_plantId] */\n      dup2\n      mstore\n      0x20\n      add\n      swap1\n      dup2\n      mstore\n      0x20\n      add\n      0x00\n      keccak256\n        /* \"sesi-1-liskgarden/contracts/20-LiskGarden.sol\":1822:1845  plants[_plantId].exists */\n      0x04\n      add\n      0x01\n      swap1\n      sload\n      swap1\n      0x0100\n      exp\n      swap1\n      div\n      0xff\n      and\n        /* \"sesi-1-liskgarden/contracts/20-LiskGarden.sol\":1814:1870  require(plants[_plantId].exists, \"Plant doesn't exist!\") */\n      tag_170\n      jumpi\n      mload(0x40)\n      0x08c379a000000000000000000000000000000000000000000000000000000000\n      dup2\n      mstore\n      0x04\n      add\n      tag_171\n      swap1\n      tag_172\n      jump\t// in\n    tag_171:\n      mload(0x40)\n      dup1\n      swap2\n      sub\n      swap1\n      revert\n    tag_170:\n        /* \"sesi-1-liskgarden/contracts/20-LiskGarden.sol\":3601:3609  _plantId */\n      dup2\n        /* \"sesi-1-liskgarden/contracts/20-LiskGarden.sol\":1688:1694  plants */\n      0x00\n        /* \"sesi-1-liskgarden/contracts/20-LiskGarden.sol\":1688:1704  plants[_plantId] */\n      0x00\n        /* \"sesi-1-liskgarden/contracts/20-LiskGarden.sol\":1695:1703  _plantId */\n      dup3\n        /* \"sesi-1-liskgarden/contracts/20-LiskGarden.sol\":1688:1704  plants[_plantId] */\n      dup2\n      mstore\n      0x20\n      add\n      swap1\n      dup2\n      mstore\n      0x20\n      add\n      0x00\n      keccak256\n        /* \"sesi-1-liskgarden/contracts/20-LiskGarden.sol\":1688:1711  plants[_plantId].isDead */\n      0x04\n      add\n      0x02\n      swap1\n      sload\n      swap1\n      0x0100\n      exp\n      swap1\n      div\n      0xff\n      and\n        /* \"sesi-1-liskgarden/contracts/20-LiskGarden.sol\":1687:1711  !plants[_plantId].isDead */\n      iszero\n        /* \"sesi-1-liskgarden/contracts/20-LiskGarden.sol\":1679:1735  require(!plants[_plantId].isDead, \"Plant already dead!\") */\n      tag_174\n      jumpi\n      mload(0x40)\n      0x08c379a000000000000000000000000000000000000000000000000000000000\n      dup2\n      mstore\n      0x04\n      add\n      tag_175\n      swap1\n      tag_176\n      jump\t// in\n    tag_175:\n      mload(0x40)\n      dup1\n      swap2\n      sub\n      swap1\n      revert\n    tag_174:\n        /* \"sesi-1-liskgarden/contracts/20-LiskGarden.sol\":3626:3634  _plantId */\n      dup3\n        /* \"sesi-1-liskgarden/contracts/20-LiskGarden.sol\":1441:1451  msg.sender */\n      caller\n        /* \"sesi-1-liskgarden/contracts/20-LiskGarden.sol\":1415:1451  plants[_plantId].owner == msg.sender */\n      0xffffffffffffffffffffffffffffffffffffffff\n      and\n        /* \"sesi-1-liskgarden/contracts/20-LiskGarden.sol\":1415:1421  plants */\n      0x00\n        /* \"sesi-1-liskgarden/contracts/20-LiskGarden.sol\":1415:1431  plants[_plantId] */\n      0x00\n        /* \"sesi-1-liskgarden/contracts/20-LiskGarden.sol\":1422:1430  _plantId */\n      dup4\n        /* \"sesi-1-liskgarden/contracts/20-LiskGarden.sol\":1415:1431  plants[_plantId] */\n      dup2\n      mstore\n      0x20\n      add\n      swap1\n      dup2\n      mstore\n      0x20\n      add\n      0x00\n      keccak256\n        /* \"sesi-1-liskgarden/contracts/20-LiskGarden.sol\":1415:1437  plants[_plantId].owner */\n      0x01\n      add\n      0x00\n      swap1\n      sload\n      swap1\n      0x0100\n      exp\n      swap1\n      div\n      0xffffffffffffffffffffffffffffffffffffffff\n      and\n        /* \"sesi-1-liskgarden/contracts/20-LiskGarden.sol\":1415:1451  plants[_plantId].owner == msg.sender */\n      0xffffffffffffffffffffffffffffffffffffffff\n      and\n      eq\n        /* \"sesi-1-liskgarden/contracts/20-LiskGarden.sol\":1407:1478  require(plants[_plantId].owner == msg.sender, \"You are not the owner!\") */\n      tag_178\n      jumpi\n      mload(0x40)\n      0x08c379a000000000000000000000000000000000000000000000000000000000\n      dup2\n      mstore\n      0x04\n      add\n      tag_179\n      swap1\n      tag_137\n      jump\t// in\n    tag_179:\n      mload(0x40)\n      dup1\n      swap2\n      sub\n      swap1\n      revert\n    tag_178:\n        /* \"sesi-1-liskgarden/contracts/20-LiskGarden.sol\":3647:3666  Plant storage plant */\n      0x00\n        /* \"sesi-1-liskgarden/contracts/20-LiskGarden.sol\":3669:3675  plants */\n      0x00\n        /* \"sesi-1-liskgarden/contracts/20-LiskGarden.sol\":3669:3685  plants[_plantId] */\n      0x00\n        /* \"sesi-1-liskgarden/contracts/20-LiskGarden.sol\":3676:3684  _plantId */\n      dup7\n        /* \"sesi-1-liskgarden/contracts/20-LiskGarden.sol\":3669:3685  plants[_plantId] */\n      dup2\n      mstore\n      0x20\n      add\n      swap1\n      dup2\n      mstore\n      0x20\n      add\n      0x00\n      keccak256\n        /* \"sesi-1-liskgarden/contracts/20-LiskGarden.sol\":3647:3685  Plant storage plant = plants[_plantId] */\n      swap1\n      pop\n        /* \"sesi-1-liskgarden/contracts/20-LiskGarden.sol\":3715:3718  100 */\n      0x64\n        /* \"sesi-1-liskgarden/contracts/20-LiskGarden.sol\":3696:3701  plant */\n      dup2\n        /* \"sesi-1-liskgarden/contracts/20-LiskGarden.sol\":3696:3712  plant.waterLevel */\n      0x04\n      add\n      0x00\n        /* \"sesi-1-liskgarden/contracts/20-LiskGarden.sol\":3696:3718  plant.waterLevel = 100 */\n      0x0100\n      exp\n      dup2\n      sload\n      dup2\n      0xff\n      mul\n      not\n      and\n      swap1\n      dup4\n      0xff\n      and\n      mul\n      or\n      swap1\n      sstore\n      pop\n        /* \"sesi-1-liskgarden/contracts/20-LiskGarden.sol\":3749:3764  block.timestamp */\n      timestamp\n        /* \"sesi-1-liskgarden/contracts/20-LiskGarden.sol\":3729:3734  plant */\n      dup2\n        /* \"sesi-1-liskgarden/contracts/20-LiskGarden.sol\":3729:3746  plant.lastWatered */\n      0x03\n      add\n        /* \"sesi-1-liskgarden/contracts/20-LiskGarden.sol\":3729:3764  plant.lastWatered = block.timestamp */\n      dup2\n      swap1\n      sstore\n      pop\n        /* \"sesi-1-liskgarden/contracts/20-LiskGarden.sol\":3795:3803  _plantId */\n      dup5\n        /* \"sesi-1-liskgarden/contracts/20-LiskGarden.sol\":3782:3809  PlantWatered(_plantId, 100) */\n      0xd4b742b9ba48fffa1f14267075a7793851770764117c423fd0a6550dfc8cb574\n        /* \"sesi-1-liskgarden/contracts/20-LiskGarden.sol\":3805:3808  100 */\n      0x64\n        /* \"sesi-1-liskgarden/contracts/20-LiskGarden.sol\":3782:3809  PlantWatered(_plantId, 100) */\n      mload(0x40)\n      tag_181\n      swap2\n      swap1\n      tag_182\n      jump\t// in\n    tag_181:\n      mload(0x40)\n      dup1\n      swap2\n      sub\n      swap1\n      log2\n        /* \"sesi-1-liskgarden/contracts/20-LiskGarden.sol\":3820:3846  updatePlantStage(_plantId) */\n      tag_183\n        /* \"sesi-1-liskgarden/contracts/20-LiskGarden.sol\":3837:3845  _plantId */\n      dup6\n        /* \"sesi-1-liskgarden/contracts/20-LiskGarden.sol\":3820:3836  updatePlantStage */\n      tag_104\n        /* \"sesi-1-liskgarden/contracts/20-LiskGarden.sol\":3820:3846  updatePlantStage(_plantId) */\n      jump\t// in\n    tag_183:\n        /* \"sesi-1-liskgarden/contracts/20-LiskGarden.sol\":3636:3854  {... */\n      pop\n        /* \"sesi-1-liskgarden/contracts/20-LiskGarden.sol\":1746:1747  _ */\n      pop\n        /* \"sesi-1-liskgarden/contracts/20-LiskGarden.sol\":1881:1882  _ */\n      pop\n        /* \"sesi-1-liskgarden/contracts/20-LiskGarden.sol\":3518:3854  function waterPlant(uint256 _plantId) external isPlantExist(_plantId) isPlantAlive(_plantId) onlyOwnerPlant(_plantId) {... */\n      pop\n      pop\n      jump\t// out\n        /* \"sesi-1-liskgarden/contracts/20-LiskGarden.sol\":485:512  uint256 public plantCounter */\n    tag_85:\n      sload(0x02)\n      dup2\n      jump\t// out\n        /* \"sesi-1-liskgarden/contracts/20-LiskGarden.sol\":784:830  uint8 public constant WATER_DEPLETION_RATE = 2 */\n    tag_89:\n        /* \"sesi-1-liskgarden/contracts/20-LiskGarden.sol\":829:830  2 */\n      0x02\n        /* \"sesi-1-liskgarden/contracts/20-LiskGarden.sol\":784:830  uint8 public constant WATER_DEPLETION_RATE = 2 */\n      dup2\n      jump\t// out\n        /* \"sesi-1-liskgarden/contracts/20-LiskGarden.sol\":604:656  uint256 public constant REWARD_HARVEST = 0.003 ether */\n    tag_93:\n        /* \"sesi-1-liskgarden/contracts/20-LiskGarden.sol\":645:656  0.003 ether */\n      0x0aa87bee538000\n        /* \"sesi-1-liskgarden/contracts/20-LiskGarden.sol\":604:656  uint256 public constant REWARD_HARVEST = 0.003 ether */\n      dup2\n      jump\t// out\n        /* \"sesi-1-liskgarden/contracts/20-LiskGarden.sol\":548:597  uint256 public constant PLANT_PRICE = 0.001 ether */\n    tag_97:\n        /* \"sesi-1-liskgarden/contracts/20-LiskGarden.sol\":586:597  0.001 ether */\n      0x038d7ea4c68000\n        /* \"sesi-1-liskgarden/contracts/20-LiskGarden.sol\":548:597  uint256 public constant PLANT_PRICE = 0.001 ether */\n      dup2\n      jump\t// out\n        /* \"sesi-1-liskgarden/contracts/20-LiskGarden.sol\":6168:6216  function deposit() external payable onlyOwner {} */\n    tag_100:\n        /* \"sesi-1-liskgarden/contracts/20-LiskGarden.sol\":1305:1310  owner */\n      0x03\n      0x00\n      swap1\n      sload\n      swap1\n      0x0100\n      exp\n      swap1\n      div\n      0xffffffffffffffffffffffffffffffffffffffff\n      and\n        /* \"sesi-1-liskgarden/contracts/20-LiskGarden.sol\":1291:1310  msg.sender == owner */\n      0xffffffffffffffffffffffffffffffffffffffff\n      and\n        /* \"sesi-1-liskgarden/contracts/20-LiskGarden.sol\":1291:1301  msg.sender */\n      caller\n        /* \"sesi-1-liskgarden/contracts/20-LiskGarden.sol\":1291:1310  msg.sender == owner */\n      0xffffffffffffffffffffffffffffffffffffffff\n      and\n      eq\n        /* \"sesi-1-liskgarden/contracts/20-LiskGarden.sol\":1283:1326  require(msg.sender == owner, \"Only owner!\") */\n      tag_185\n      jumpi\n      mload(0x40)\n      0x08c379a000000000000000000000000000000000000000000000000000000000\n      dup2\n      mstore\n      0x04\n      add\n      tag_186\n      swap1\n      tag_121\n      jump\t// in\n    tag_186:\n      mload(0x40)\n      dup1\n      swap2\n      sub\n      swap1\n      revert\n    tag_185:\n        /* \"sesi-1-liskgarden/contracts/20-LiskGarden.sol\":6168:6216  function deposit() external payable onlyOwner {} */\n      jump\t// out\n        /* \"sesi-1-liskgarden/contracts/20-LiskGarden.sol\":3862:4687  function updatePlantStage(uint256 _plantId) public isPlantExist(_plantId)  {... */\n    tag_104:\n        /* \"sesi-1-liskgarden/contracts/20-LiskGarden.sol\":3926:3934  _plantId */\n      dup1\n        /* \"sesi-1-liskgarden/contracts/20-LiskGarden.sol\":1822:1828  plants */\n      0x00\n        /* \"sesi-1-liskgarden/contracts/20-LiskGarden.sol\":1822:1838  plants[_plantId] */\n      0x00\n        /* \"sesi-1-liskgarden/contracts/20-LiskGarden.sol\":1829:1837  _plantId */\n      dup3\n        /* \"sesi-1-liskgarden/contracts/20-LiskGarden.sol\":1822:1838  plants[_plantId] */\n      dup2\n      mstore\n      0x20\n      add\n      swap1\n      dup2\n      mstore\n      0x20\n      add\n      0x00\n      keccak256\n        /* \"sesi-1-liskgarden/contracts/20-LiskGarden.sol\":1822:1845  plants[_plantId].exists */\n      0x04\n      add\n      0x01\n      swap1\n      sload\n      swap1\n      0x0100\n      exp\n      swap1\n      div\n      0xff\n      and\n        /* \"sesi-1-liskgarden/contracts/20-LiskGarden.sol\":1814:1870  require(plants[_plantId].exists, \"Plant doesn't exist!\") */\n      tag_189\n      jumpi\n      mload(0x40)\n      0x08c379a000000000000000000000000000000000000000000000000000000000\n      dup2\n      mstore\n      0x04\n      add\n      tag_190\n      swap1\n      tag_172\n      jump\t// in\n    tag_190:\n      mload(0x40)\n      dup1\n      swap2\n      sub\n      swap1\n      revert\n    tag_189:\n        /* \"sesi-1-liskgarden/contracts/20-LiskGarden.sol\":3948:3967  Plant storage plant */\n      0x00\n        /* \"sesi-1-liskgarden/contracts/20-LiskGarden.sol\":3970:3976  plants */\n      0x00\n        /* \"sesi-1-liskgarden/contracts/20-LiskGarden.sol\":3970:3986  plants[_plantId] */\n      0x00\n        /* \"sesi-1-liskgarden/contracts/20-LiskGarden.sol\":3977:3985  _plantId */\n      dup5\n        /* \"sesi-1-liskgarden/contracts/20-LiskGarden.sol\":3970:3986  plants[_plantId] */\n      dup2\n      mstore\n      0x20\n      add\n      swap1\n      dup2\n      mstore\n      0x20\n      add\n      0x00\n      keccak256\n        /* \"sesi-1-liskgarden/contracts/20-LiskGarden.sol\":3948:3986  Plant storage plant = plants[_plantId] */\n      swap1\n      pop\n        /* \"sesi-1-liskgarden/contracts/20-LiskGarden.sol\":3999:4025  updateWaterLevel(_plantId) */\n      tag_192\n        /* \"sesi-1-liskgarden/contracts/20-LiskGarden.sol\":4016:4024  _plantId */\n      dup4\n        /* \"sesi-1-liskgarden/contracts/20-LiskGarden.sol\":3999:4015  updateWaterLevel */\n      tag_193\n        /* \"sesi-1-liskgarden/contracts/20-LiskGarden.sol\":3999:4025  updateWaterLevel(_plantId) */\n      jump\t// in\n    tag_192:\n        /* \"sesi-1-liskgarden/contracts/20-LiskGarden.sol\":4039:4044  plant */\n      dup1\n        /* \"sesi-1-liskgarden/contracts/20-LiskGarden.sol\":4039:4051  plant.isDead */\n      0x04\n      add\n      0x02\n      swap1\n      sload\n      swap1\n      0x0100\n      exp\n      swap1\n      div\n      0xff\n      and\n        /* \"sesi-1-liskgarden/contracts/20-LiskGarden.sol\":4036:4060  if(plant.isDead) return; */\n      iszero\n      tag_194\n      jumpi\n        /* \"sesi-1-liskgarden/contracts/20-LiskGarden.sol\":4053:4060  return; */\n      pop\n      jump(tag_191)\n        /* \"sesi-1-liskgarden/contracts/20-LiskGarden.sol\":4036:4060  if(plant.isDead) return; */\n    tag_194:\n        /* \"sesi-1-liskgarden/contracts/20-LiskGarden.sol\":4072:4096  uint256 timeSincePlanted */\n      0x00\n        /* \"sesi-1-liskgarden/contracts/20-LiskGarden.sol\":4117:4122  plant */\n      dup2\n        /* \"sesi-1-liskgarden/contracts/20-LiskGarden.sol\":4117:4134  plant.plantedDate */\n      0x02\n      add\n      sload\n        /* \"sesi-1-liskgarden/contracts/20-LiskGarden.sol\":4099:4114  block.timestamp */\n      timestamp\n        /* \"sesi-1-liskgarden/contracts/20-LiskGarden.sol\":4099:4134  block.timestamp - plant.plantedDate */\n      tag_195\n      swap2\n      swap1\n      tag_160\n      jump\t// in\n    tag_195:\n        /* \"sesi-1-liskgarden/contracts/20-LiskGarden.sol\":4072:4134  uint256 timeSincePlanted = block.timestamp - plant.plantedDate */\n      swap1\n      pop\n        /* \"sesi-1-liskgarden/contracts/20-LiskGarden.sol\":4145:4165  GrowthStage oldStage */\n      0x00\n        /* \"sesi-1-liskgarden/contracts/20-LiskGarden.sol\":4168:4173  plant */\n      dup3\n        /* \"sesi-1-liskgarden/contracts/20-LiskGarden.sol\":4168:4179  plant.stage */\n      0x01\n      add\n      0x14\n      swap1\n      sload\n      swap1\n      0x0100\n      exp\n      swap1\n      div\n      0xff\n      and\n        /* \"sesi-1-liskgarden/contracts/20-LiskGarden.sol\":4145:4179  GrowthStage oldStage = plant.stage */\n      swap1\n      pop\n        /* \"sesi-1-liskgarden/contracts/20-LiskGarden.sol\":4232:4233  3 */\n      0x03\n        /* \"sesi-1-liskgarden/contracts/20-LiskGarden.sol\":704:713  1 minutes */\n      0x3c\n        /* \"sesi-1-liskgarden/contracts/20-LiskGarden.sol\":4215:4233  STAGE_DURATION * 3 */\n      tag_196\n      swap2\n      swap1\n      tag_164\n      jump\t// in\n    tag_196:\n        /* \"sesi-1-liskgarden/contracts/20-LiskGarden.sol\":4195:4211  timeSincePlanted */\n      dup3\n        /* \"sesi-1-liskgarden/contracts/20-LiskGarden.sol\":4195:4233  timeSincePlanted >= STAGE_DURATION * 3 */\n      lt\n        /* \"sesi-1-liskgarden/contracts/20-LiskGarden.sol\":4192:4572  if(timeSincePlanted >= STAGE_DURATION * 3) {... */\n      tag_197\n      jumpi\n        /* \"sesi-1-liskgarden/contracts/20-LiskGarden.sol\":4264:4284  GrowthStage.BLOOMING */\n      0x03\n        /* \"sesi-1-liskgarden/contracts/20-LiskGarden.sol\":4250:4255  plant */\n      dup4\n        /* \"sesi-1-liskgarden/contracts/20-LiskGarden.sol\":4250:4261  plant.stage */\n      0x01\n      add\n      0x14\n        /* \"sesi-1-liskgarden/contracts/20-LiskGarden.sol\":4250:4284  plant.stage = GrowthStage.BLOOMING */\n      0x0100\n      exp\n      dup2\n      sload\n      dup2\n      0xff\n      mul\n      not\n      and\n      swap1\n      dup4\n      0x03\n      dup2\n      gt\n      iszero\n      tag_198\n      jumpi\n      tag_199\n      tag_146\n      jump\t// in\n    tag_199:\n    tag_198:\n      mul\n      or\n      swap1\n      sstore\n      pop\n        /* \"sesi-1-liskgarden/contracts/20-LiskGarden.sol\":4192:4572  if(timeSincePlanted >= STAGE_DURATION * 3) {... */\n      jump(tag_200)\n    tag_197:\n        /* \"sesi-1-liskgarden/contracts/20-LiskGarden.sol\":4342:4343  2 */\n      0x02\n        /* \"sesi-1-liskgarden/contracts/20-LiskGarden.sol\":704:713  1 minutes */\n      0x3c\n        /* \"sesi-1-liskgarden/contracts/20-LiskGarden.sol\":4325:4343  STAGE_DURATION * 2 */\n      tag_201\n      swap2\n      swap1\n      tag_164\n      jump\t// in\n    tag_201:\n        /* \"sesi-1-liskgarden/contracts/20-LiskGarden.sol\":4305:4321  timeSincePlanted */\n      dup3\n        /* \"sesi-1-liskgarden/contracts/20-LiskGarden.sol\":4305:4343  timeSincePlanted >= STAGE_DURATION * 2 */\n      lt\n        /* \"sesi-1-liskgarden/contracts/20-LiskGarden.sol\":4302:4572  if(timeSincePlanted >= STAGE_DURATION * 2) {... */\n      tag_202\n      jumpi\n        /* \"sesi-1-liskgarden/contracts/20-LiskGarden.sol\":4374:4393  GrowthStage.GROWING */\n      0x02\n        /* \"sesi-1-liskgarden/contracts/20-LiskGarden.sol\":4360:4365  plant */\n      dup4\n        /* \"sesi-1-liskgarden/contracts/20-LiskGarden.sol\":4360:4371  plant.stage */\n      0x01\n      add\n      0x14\n        /* \"sesi-1-liskgarden/contracts/20-LiskGarden.sol\":4360:4393  plant.stage = GrowthStage.GROWING */\n      0x0100\n      exp\n      dup2\n      sload\n      dup2\n      0xff\n      mul\n      not\n      and\n      swap1\n      dup4\n      0x03\n      dup2\n      gt\n      iszero\n      tag_203\n      jumpi\n      tag_204\n      tag_146\n      jump\t// in\n    tag_204:\n    tag_203:\n      mul\n      or\n      swap1\n      sstore\n      pop\n        /* \"sesi-1-liskgarden/contracts/20-LiskGarden.sol\":4302:4572  if(timeSincePlanted >= STAGE_DURATION * 2) {... */\n      jump(tag_205)\n    tag_202:\n        /* \"sesi-1-liskgarden/contracts/20-LiskGarden.sol\":704:713  1 minutes */\n      0x3c\n        /* \"sesi-1-liskgarden/contracts/20-LiskGarden.sol\":4414:4430  timeSincePlanted */\n      dup3\n        /* \"sesi-1-liskgarden/contracts/20-LiskGarden.sol\":4414:4448  timeSincePlanted >= STAGE_DURATION */\n      lt\n        /* \"sesi-1-liskgarden/contracts/20-LiskGarden.sol\":4411:4572  if(timeSincePlanted >= STAGE_DURATION) {... */\n      tag_206\n      jumpi\n        /* \"sesi-1-liskgarden/contracts/20-LiskGarden.sol\":4479:4497  GrowthStage.SPROUT */\n      0x01\n        /* \"sesi-1-liskgarden/contracts/20-LiskGarden.sol\":4465:4470  plant */\n      dup4\n        /* \"sesi-1-liskgarden/contracts/20-LiskGarden.sol\":4465:4476  plant.stage */\n      0x01\n      add\n      0x14\n        /* \"sesi-1-liskgarden/contracts/20-LiskGarden.sol\":4465:4497  plant.stage = GrowthStage.SPROUT */\n      0x0100\n      exp\n      dup2\n      sload\n      dup2\n      0xff\n      mul\n      not\n      and\n      swap1\n      dup4\n      0x03\n      dup2\n      gt\n      iszero\n      tag_207\n      jumpi\n      tag_208\n      tag_146\n      jump\t// in\n    tag_208:\n    tag_207:\n      mul\n      or\n      swap1\n      sstore\n      pop\n        /* \"sesi-1-liskgarden/contracts/20-LiskGarden.sol\":4411:4572  if(timeSincePlanted >= STAGE_DURATION) {... */\n      jump(tag_209)\n    tag_206:\n        /* \"sesi-1-liskgarden/contracts/20-LiskGarden.sol\":4544:4560  GrowthStage.SEED */\n      0x00\n        /* \"sesi-1-liskgarden/contracts/20-LiskGarden.sol\":4530:4535  plant */\n      dup4\n        /* \"sesi-1-liskgarden/contracts/20-LiskGarden.sol\":4530:4541  plant.stage */\n      0x01\n      add\n      0x14\n        /* \"sesi-1-liskgarden/contracts/20-LiskGarden.sol\":4530:4560  plant.stage = GrowthStage.SEED */\n      0x0100\n      exp\n      dup2\n      sload\n      dup2\n      0xff\n      mul\n      not\n      and\n      swap1\n      dup4\n      0x03\n      dup2\n      gt\n      iszero\n      tag_210\n      jumpi\n      tag_211\n      tag_146\n      jump\t// in\n    tag_211:\n    tag_210:\n      mul\n      or\n      swap1\n      sstore\n      pop\n        /* \"sesi-1-liskgarden/contracts/20-LiskGarden.sol\":4411:4572  if(timeSincePlanted >= STAGE_DURATION) {... */\n    tag_209:\n        /* \"sesi-1-liskgarden/contracts/20-LiskGarden.sol\":4302:4572  if(timeSincePlanted >= STAGE_DURATION * 2) {... */\n    tag_205:\n        /* \"sesi-1-liskgarden/contracts/20-LiskGarden.sol\":4192:4572  if(timeSincePlanted >= STAGE_DURATION * 3) {... */\n    tag_200:\n        /* \"sesi-1-liskgarden/contracts/20-LiskGarden.sol\":4602:4610  oldStage */\n      dup1\n        /* \"sesi-1-liskgarden/contracts/20-LiskGarden.sol\":4587:4610  plant.stage != oldStage */\n      0x03\n      dup2\n      gt\n      iszero\n      tag_212\n      jumpi\n      tag_213\n      tag_146\n      jump\t// in\n    tag_213:\n    tag_212:\n        /* \"sesi-1-liskgarden/contracts/20-LiskGarden.sol\":4587:4592  plant */\n      dup4\n        /* \"sesi-1-liskgarden/contracts/20-LiskGarden.sol\":4587:4598  plant.stage */\n      0x01\n      add\n      0x14\n      swap1\n      sload\n      swap1\n      0x0100\n      exp\n      swap1\n      div\n      0xff\n      and\n        /* \"sesi-1-liskgarden/contracts/20-LiskGarden.sol\":4587:4610  plant.stage != oldStage */\n      0x03\n      dup2\n      gt\n      iszero\n      tag_214\n      jumpi\n      tag_215\n      tag_146\n      jump\t// in\n    tag_215:\n    tag_214:\n      eq\n        /* \"sesi-1-liskgarden/contracts/20-LiskGarden.sol\":4584:4680  if(plant.stage != oldStage) {... */\n      tag_216\n      jumpi\n        /* \"sesi-1-liskgarden/contracts/20-LiskGarden.sol\":4646:4654  _plantId */\n      dup5\n        /* \"sesi-1-liskgarden/contracts/20-LiskGarden.sol\":4632:4668  StageAdvanced(_plantId, plant.stage) */\n      0x338b8976706f9da67298dddfa1ea4ff7d99cce68b9ca39c4f348994f8e2124a8\n        /* \"sesi-1-liskgarden/contracts/20-LiskGarden.sol\":4656:4661  plant */\n      dup5\n        /* \"sesi-1-liskgarden/contracts/20-LiskGarden.sol\":4656:4667  plant.stage */\n      0x01\n      add\n      0x14\n      swap1\n      sload\n      swap1\n      0x0100\n      exp\n      swap1\n      div\n      0xff\n      and\n        /* \"sesi-1-liskgarden/contracts/20-LiskGarden.sol\":4632:4668  StageAdvanced(_plantId, plant.stage) */\n      mload(0x40)\n      tag_217\n      swap2\n      swap1\n      tag_48\n      jump\t// in\n    tag_217:\n      mload(0x40)\n      dup1\n      swap2\n      sub\n      swap1\n      log2\n        /* \"sesi-1-liskgarden/contracts/20-LiskGarden.sol\":4584:4680  if(plant.stage != oldStage) {... */\n    tag_216:\n        /* \"sesi-1-liskgarden/contracts/20-LiskGarden.sol\":3937:4687  {... */\n      pop\n      pop\n      pop\n        /* \"sesi-1-liskgarden/contracts/20-LiskGarden.sol\":1881:1882  _ */\n    tag_191:\n        /* \"sesi-1-liskgarden/contracts/20-LiskGarden.sol\":3862:4687  function updatePlantStage(uint256 _plantId) public isPlantExist(_plantId)  {... */\n      pop\n      pop\n      jump\t// out\n        /* \"sesi-1-liskgarden/contracts/20-LiskGarden.sol\":4696:5326  function harvestPlant(uint256 _plantId) external isPlantExist(_plantId) isPlantAlive(_plantId) onlyOwnerPlant(_plantId) {... */\n    tag_108:\n        /* \"sesi-1-liskgarden/contracts/20-LiskGarden.sol\":4758:4766  _plantId */\n      dup1\n        /* \"sesi-1-liskgarden/contracts/20-LiskGarden.sol\":1822:1828  plants */\n      0x00\n        /* \"sesi-1-liskgarden/contracts/20-LiskGarden.sol\":1822:1838  plants[_plantId] */\n      0x00\n        /* \"sesi-1-liskgarden/contracts/20-LiskGarden.sol\":1829:1837  _plantId */\n      dup3\n        /* \"sesi-1-liskgarden/contracts/20-LiskGarden.sol\":1822:1838  plants[_plantId] */\n      dup2\n      mstore\n      0x20\n      add\n      swap1\n      dup2\n      mstore\n      0x20\n      add\n      0x00\n      keccak256\n        /* \"sesi-1-liskgarden/contracts/20-LiskGarden.sol\":1822:1845  plants[_plantId].exists */\n      0x04\n      add\n      0x01\n      swap1\n      sload\n      swap1\n      0x0100\n      exp\n      swap1\n      div\n      0xff\n      and\n        /* \"sesi-1-liskgarden/contracts/20-LiskGarden.sol\":1814:1870  require(plants[_plantId].exists, \"Plant doesn't exist!\") */\n      tag_219\n      jumpi\n      mload(0x40)\n      0x08c379a000000000000000000000000000000000000000000000000000000000\n      dup2\n      mstore\n      0x04\n      add\n      tag_220\n      swap1\n      tag_172\n      jump\t// in\n    tag_220:\n      mload(0x40)\n      dup1\n      swap2\n      sub\n      swap1\n      revert\n    tag_219:\n        /* \"sesi-1-liskgarden/contracts/20-LiskGarden.sol\":4781:4789  _plantId */\n      dup2\n        /* \"sesi-1-liskgarden/contracts/20-LiskGarden.sol\":1688:1694  plants */\n      0x00\n        /* \"sesi-1-liskgarden/contracts/20-LiskGarden.sol\":1688:1704  plants[_plantId] */\n      0x00\n        /* \"sesi-1-liskgarden/contracts/20-LiskGarden.sol\":1695:1703  _plantId */\n      dup3\n        /* \"sesi-1-liskgarden/contracts/20-LiskGarden.sol\":1688:1704  plants[_plantId] */\n      dup2\n      mstore\n      0x20\n      add\n      swap1\n      dup2\n      mstore\n      0x20\n      add\n      0x00\n      keccak256\n        /* \"sesi-1-liskgarden/contracts/20-LiskGarden.sol\":1688:1711  plants[_plantId].isDead */\n      0x04\n      add\n      0x02\n      swap1\n      sload\n      swap1\n      0x0100\n      exp\n      swap1\n      div\n      0xff\n      and\n        /* \"sesi-1-liskgarden/contracts/20-LiskGarden.sol\":1687:1711  !plants[_plantId].isDead */\n      iszero\n        /* \"sesi-1-liskgarden/contracts/20-LiskGarden.sol\":1679:1735  require(!plants[_plantId].isDead, \"Plant already dead!\") */\n      tag_222\n      jumpi\n      mload(0x40)\n      0x08c379a000000000000000000000000000000000000000000000000000000000\n      dup2\n      mstore\n      0x04\n      add\n      tag_223\n      swap1\n      tag_176\n      jump\t// in\n    tag_223:\n      mload(0x40)\n      dup1\n      swap2\n      sub\n      swap1\n      revert\n    tag_222:\n        /* \"sesi-1-liskgarden/contracts/20-LiskGarden.sol\":4806:4814  _plantId */\n      dup3\n        /* \"sesi-1-liskgarden/contracts/20-LiskGarden.sol\":1441:1451  msg.sender */\n      caller\n        /* \"sesi-1-liskgarden/contracts/20-LiskGarden.sol\":1415:1451  plants[_plantId].owner == msg.sender */\n      0xffffffffffffffffffffffffffffffffffffffff\n      and\n        /* \"sesi-1-liskgarden/contracts/20-LiskGarden.sol\":1415:1421  plants */\n      0x00\n        /* \"sesi-1-liskgarden/contracts/20-LiskGarden.sol\":1415:1431  plants[_plantId] */\n      0x00\n        /* \"sesi-1-liskgarden/contracts/20-LiskGarden.sol\":1422:1430  _plantId */\n      dup4\n        /* \"sesi-1-liskgarden/contracts/20-LiskGarden.sol\":1415:1431  plants[_plantId] */\n      dup2\n      mstore\n      0x20\n      add\n      swap1\n      dup2\n      mstore\n      0x20\n      add\n      0x00\n      keccak256\n        /* \"sesi-1-liskgarden/contracts/20-LiskGarden.sol\":1415:1437  plants[_plantId].owner */\n      0x01\n      add\n      0x00\n      swap1\n      sload\n      swap1\n      0x0100\n      exp\n      swap1\n      div\n      0xffffffffffffffffffffffffffffffffffffffff\n      and\n        /* \"sesi-1-liskgarden/contracts/20-LiskGarden.sol\":1415:1451  plants[_plantId].owner == msg.sender */\n      0xffffffffffffffffffffffffffffffffffffffff\n      and\n      eq\n        /* \"sesi-1-liskgarden/contracts/20-LiskGarden.sol\":1407:1478  require(plants[_plantId].owner == msg.sender, \"You are not the owner!\") */\n      tag_225\n      jumpi\n      mload(0x40)\n      0x08c379a000000000000000000000000000000000000000000000000000000000\n      dup2\n      mstore\n      0x04\n      add\n      tag_226\n      swap1\n      tag_137\n      jump\t// in\n    tag_226:\n      mload(0x40)\n      dup1\n      swap2\n      sub\n      swap1\n      revert\n    tag_225:\n        /* \"sesi-1-liskgarden/contracts/20-LiskGarden.sol\":4827:4846  Plant storage plant */\n      0x00\n        /* \"sesi-1-liskgarden/contracts/20-LiskGarden.sol\":4849:4855  plants */\n      0x00\n        /* \"sesi-1-liskgarden/contracts/20-LiskGarden.sol\":4849:4865  plants[_plantId] */\n      0x00\n        /* \"sesi-1-liskgarden/contracts/20-LiskGarden.sol\":4856:4864  _plantId */\n      dup7\n        /* \"sesi-1-liskgarden/contracts/20-LiskGarden.sol\":4849:4865  plants[_plantId] */\n      dup2\n      mstore\n      0x20\n      add\n      swap1\n      dup2\n      mstore\n      0x20\n      add\n      0x00\n      keccak256\n        /* \"sesi-1-liskgarden/contracts/20-LiskGarden.sol\":4827:4865  Plant storage plant = plants[_plantId] */\n      swap1\n      pop\n        /* \"sesi-1-liskgarden/contracts/20-LiskGarden.sol\":4878:4904  updatePlantStage(_plantId) */\n      tag_228\n        /* \"sesi-1-liskgarden/contracts/20-LiskGarden.sol\":4895:4903  _plantId */\n      dup6\n        /* \"sesi-1-liskgarden/contracts/20-LiskGarden.sol\":4878:4894  updatePlantStage */\n      tag_104\n        /* \"sesi-1-liskgarden/contracts/20-LiskGarden.sol\":4878:4904  updatePlantStage(_plantId) */\n      jump\t// in\n    tag_228:\n        /* \"sesi-1-liskgarden/contracts/20-LiskGarden.sol\":4938:4958  GrowthStage.BLOOMING */\n      0x03\n        /* \"sesi-1-liskgarden/contracts/20-LiskGarden.sol\":4923:4958  plant.stage == GrowthStage.BLOOMING */\n      dup1\n      dup2\n      gt\n      iszero\n      tag_229\n      jumpi\n      tag_230\n      tag_146\n      jump\t// in\n    tag_230:\n    tag_229:\n        /* \"sesi-1-liskgarden/contracts/20-LiskGarden.sol\":4923:4928  plant */\n      dup2\n        /* \"sesi-1-liskgarden/contracts/20-LiskGarden.sol\":4923:4934  plant.stage */\n      0x01\n      add\n      0x14\n      swap1\n      sload\n      swap1\n      0x0100\n      exp\n      swap1\n      div\n      0xff\n      and\n        /* \"sesi-1-liskgarden/contracts/20-LiskGarden.sol\":4923:4958  plant.stage == GrowthStage.BLOOMING */\n      0x03\n      dup2\n      gt\n      iszero\n      tag_231\n      jumpi\n      tag_232\n      tag_146\n      jump\t// in\n    tag_232:\n    tag_231:\n      eq\n        /* \"sesi-1-liskgarden/contracts/20-LiskGarden.sol\":4915:4986  require(plant.stage == GrowthStage.BLOOMING, \"Plant not blooming yet!\") */\n      tag_233\n      jumpi\n      mload(0x40)\n      0x08c379a000000000000000000000000000000000000000000000000000000000\n      dup2\n      mstore\n      0x04\n      add\n      tag_234\n      swap1\n      tag_235\n      jump\t// in\n    tag_234:\n      mload(0x40)\n      dup1\n      swap2\n      sub\n      swap1\n      revert\n    tag_233:\n        /* \"sesi-1-liskgarden/contracts/20-LiskGarden.sol\":5014:5019  false */\n      0x00\n        /* \"sesi-1-liskgarden/contracts/20-LiskGarden.sol\":4999:5004  plant */\n      dup2\n        /* \"sesi-1-liskgarden/contracts/20-LiskGarden.sol\":4999:5011  plant.exists */\n      0x04\n      add\n      0x01\n        /* \"sesi-1-liskgarden/contracts/20-LiskGarden.sol\":4999:5019  plant.exists = false */\n      0x0100\n      exp\n      dup2\n      sload\n      dup2\n      0xff\n      mul\n      not\n      and\n      swap1\n      dup4\n      iszero\n      iszero\n      mul\n      or\n      swap1\n      sstore\n      pop\n        /* \"sesi-1-liskgarden/contracts/20-LiskGarden.sol\":5062:5072  msg.sender */\n      caller\n        /* \"sesi-1-liskgarden/contracts/20-LiskGarden.sol\":5037:5089  PlantHarvested(_plantId, msg.sender, REWARD_HARVEST) */\n      0xffffffffffffffffffffffffffffffffffffffff\n      and\n        /* \"sesi-1-liskgarden/contracts/20-LiskGarden.sol\":5052:5060  _plantId */\n      dup6\n        /* \"sesi-1-liskgarden/contracts/20-LiskGarden.sol\":5037:5089  PlantHarvested(_plantId, msg.sender, REWARD_HARVEST) */\n      0x79f2138ea100070ff95b59c265da7aa3c7a0f61595fe1bb2f5fda2762f398847\n        /* \"sesi-1-liskgarden/contracts/20-LiskGarden.sol\":645:656  0.003 ether */\n      0x0aa87bee538000\n        /* \"sesi-1-liskgarden/contracts/20-LiskGarden.sol\":5037:5089  PlantHarvested(_plantId, msg.sender, REWARD_HARVEST) */\n      mload(0x40)\n      tag_236\n      swap2\n      swap1\n      tag_41\n      jump\t// in\n    tag_236:\n      mload(0x40)\n      dup1\n      swap2\n      sub\n      swap1\n      log3\n        /* \"sesi-1-liskgarden/contracts/20-LiskGarden.sol\":645:656  0.003 ether */\n      0x0aa87bee538000\n        /* \"sesi-1-liskgarden/contracts/20-LiskGarden.sol\":5110:5131  address(this).balance */\n      selfbalance\n        /* \"sesi-1-liskgarden/contracts/20-LiskGarden.sol\":5110:5149  address(this).balance >= REWARD_HARVEST */\n      lt\n      iszero\n        /* \"sesi-1-liskgarden/contracts/20-LiskGarden.sol\":5102:5184  require(address(this).balance >= REWARD_HARVEST, \"Insufficient contract balance!\") */\n      tag_237\n      jumpi\n      mload(0x40)\n      0x08c379a000000000000000000000000000000000000000000000000000000000\n      dup2\n      mstore\n      0x04\n      add\n      tag_238\n      swap1\n      tag_239\n      jump\t// in\n    tag_238:\n      mload(0x40)\n      dup1\n      swap2\n      sub\n      swap1\n      revert\n    tag_237:\n        /* \"sesi-1-liskgarden/contracts/20-LiskGarden.sol\":5196:5208  bool success */\n      0x00\n        /* \"sesi-1-liskgarden/contracts/20-LiskGarden.sol\":5222:5232  msg.sender */\n      caller\n        /* \"sesi-1-liskgarden/contracts/20-LiskGarden.sol\":5214:5238  payable(msg.sender).call */\n      0xffffffffffffffffffffffffffffffffffffffff\n      and\n        /* \"sesi-1-liskgarden/contracts/20-LiskGarden.sol\":645:656  0.003 ether */\n      0x0aa87bee538000\n        /* \"sesi-1-liskgarden/contracts/20-LiskGarden.sol\":5214:5265  payable(msg.sender).call{value: REWARD_HARVEST}(\"\") */\n      mload(0x40)\n      tag_240\n      swap1\n      tag_127\n      jump\t// in\n    tag_240:\n      0x00\n      mload(0x40)\n      dup1\n      dup4\n      sub\n      dup2\n      dup6\n      dup8\n      gas\n      call\n      swap3\n      pop\n      pop\n      pop\n      returndatasize\n      dup1\n      0x00\n      dup2\n      eq\n      tag_243\n      jumpi\n      mload(0x40)\n      swap2\n      pop\n      and(add(returndatasize, 0x3f), not(0x1f))\n      dup3\n      add\n      0x40\n      mstore\n      returndatasize\n      dup3\n      mstore\n      returndatasize\n      0x00\n      0x20\n      dup5\n      add\n      returndatacopy\n      jump(tag_242)\n    tag_243:\n      0x60\n      swap2\n      pop\n    tag_242:\n      pop\n        /* \"sesi-1-liskgarden/contracts/20-LiskGarden.sol\":5195:5265  (bool success, ) = payable(msg.sender).call{value: REWARD_HARVEST}(\"\") */\n      pop\n      swap1\n      pop\n        /* \"sesi-1-liskgarden/contracts/20-LiskGarden.sol\":5284:5291  success */\n      dup1\n        /* \"sesi-1-liskgarden/contracts/20-LiskGarden.sol\":5276:5318  require(success, \"Failed sending reward!\") */\n      tag_244\n      jumpi\n      mload(0x40)\n      0x08c379a000000000000000000000000000000000000000000000000000000000\n      dup2\n      mstore\n      0x04\n      add\n      tag_245\n      swap1\n      tag_246\n      jump\t// in\n    tag_245:\n      mload(0x40)\n      dup1\n      swap2\n      sub\n      swap1\n      revert\n    tag_244:\n        /* \"sesi-1-liskgarden/contracts/20-LiskGarden.sol\":4816:5326  {... */\n      pop\n      pop\n        /* \"sesi-1-liskgarden/contracts/20-LiskGarden.sol\":1746:1747  _ */\n      pop\n        /* \"sesi-1-liskgarden/contracts/20-LiskGarden.sol\":1881:1882  _ */\n      pop\n        /* \"sesi-1-liskgarden/contracts/20-LiskGarden.sol\":4696:5326  function harvestPlant(uint256 _plantId) external isPlantExist(_plantId) isPlantAlive(_plantId) onlyOwnerPlant(_plantId) {... */\n      pop\n      pop\n      jump\t// out\n        /* \"sesi-1-liskgarden/contracts/20-LiskGarden.sol\":5334:5555  function getPlant(uint256 _plantId) external view returns (Plant memory) {... */\n    tag_112:\n        /* \"sesi-1-liskgarden/contracts/20-LiskGarden.sol\":5393:5405  Plant memory */\n      tag_247\n      tag_248\n      jump\t// in\n    tag_247:\n        /* \"sesi-1-liskgarden/contracts/20-LiskGarden.sol\":5418:5436  Plant memory plant */\n      0x00\n        /* \"sesi-1-liskgarden/contracts/20-LiskGarden.sol\":5439:5445  plants */\n      0x00\n        /* \"sesi-1-liskgarden/contracts/20-LiskGarden.sol\":5439:5455  plants[_plantId] */\n      0x00\n        /* \"sesi-1-liskgarden/contracts/20-LiskGarden.sol\":5446:5454  _plantId */\n      dup5\n        /* \"sesi-1-liskgarden/contracts/20-LiskGarden.sol\":5439:5455  plants[_plantId] */\n      dup2\n      mstore\n      0x20\n      add\n      swap1\n      dup2\n      mstore\n      0x20\n      add\n      0x00\n      keccak256\n        /* \"sesi-1-liskgarden/contracts/20-LiskGarden.sol\":5418:5455  Plant memory plant = plants[_plantId] */\n      mload(0x40)\n      dup1\n      0x0100\n      add\n      0x40\n      mstore\n      swap1\n      dup2\n      0x00\n      dup3\n      add\n      sload\n      dup2\n      mstore\n      0x20\n      add\n      0x01\n      dup3\n      add\n      0x00\n      swap1\n      sload\n      swap1\n      0x0100\n      exp\n      swap1\n      div\n      0xffffffffffffffffffffffffffffffffffffffff\n      and\n      0xffffffffffffffffffffffffffffffffffffffff\n      and\n      0xffffffffffffffffffffffffffffffffffffffff\n      and\n      dup2\n      mstore\n      0x20\n      add\n      0x01\n      dup3\n      add\n      0x14\n      swap1\n      sload\n      swap1\n      0x0100\n      exp\n      swap1\n      div\n      0xff\n      and\n      0x03\n      dup2\n      gt\n      iszero\n      tag_250\n      jumpi\n      tag_251\n      tag_146\n      jump\t// in\n    tag_251:\n    tag_250:\n      0x03\n      dup2\n      gt\n      iszero\n      tag_252\n      jumpi\n      tag_253\n      tag_146\n      jump\t// in\n    tag_253:\n    tag_252:\n      dup2\n      mstore\n      0x20\n      add\n      0x02\n      dup3\n      add\n      sload\n      dup2\n      mstore\n      0x20\n      add\n      0x03\n      dup3\n      add\n      sload\n      dup2\n      mstore\n      0x20\n      add\n      0x04\n      dup3\n      add\n      0x00\n      swap1\n      sload\n      swap1\n      0x0100\n      exp\n      swap1\n      div\n      0xff\n      and\n      0xff\n      and\n      0xff\n      and\n      dup2\n      mstore\n      0x20\n      add\n      0x04\n      dup3\n      add\n      0x01\n      swap1\n      sload\n      swap1\n      0x0100\n      exp\n      swap1\n      div\n      0xff\n      and\n      iszero\n      iszero\n      iszero\n      iszero\n      dup2\n      mstore\n      0x20\n      add\n      0x04\n      dup3\n      add\n      0x02\n      swap1\n      sload\n      swap1\n      0x0100\n      exp\n      swap1\n      div\n      0xff\n      and\n      iszero\n      iszero\n      iszero\n      iszero\n      dup2\n      mstore\n      pop\n      pop\n      swap1\n      pop\n        /* \"sesi-1-liskgarden/contracts/20-LiskGarden.sol\":5485:5514  calculateWaterLevel(_plantId) */\n      tag_254\n        /* \"sesi-1-liskgarden/contracts/20-LiskGarden.sol\":5505:5513  _plantId */\n      dup4\n        /* \"sesi-1-liskgarden/contracts/20-LiskGarden.sol\":5485:5504  calculateWaterLevel */\n      tag_55\n        /* \"sesi-1-liskgarden/contracts/20-LiskGarden.sol\":5485:5514  calculateWaterLevel(_plantId) */\n      jump\t// in\n    tag_254:\n        /* \"sesi-1-liskgarden/contracts/20-LiskGarden.sol\":5466:5471  plant */\n      dup2\n        /* \"sesi-1-liskgarden/contracts/20-LiskGarden.sol\":5466:5482  plant.waterLevel */\n      0xa0\n      add\n        /* \"sesi-1-liskgarden/contracts/20-LiskGarden.sol\":5466:5514  plant.waterLevel = calculateWaterLevel(_plantId) */\n      swap1\n      0xff\n      and\n      swap1\n      dup2\n      0xff\n      and\n      dup2\n      mstore\n      pop\n      pop\n        /* \"sesi-1-liskgarden/contracts/20-LiskGarden.sol\":5542:5547  plant */\n      dup1\n        /* \"sesi-1-liskgarden/contracts/20-LiskGarden.sol\":5535:5547  return plant */\n      swap2\n      pop\n      pop\n        /* \"sesi-1-liskgarden/contracts/20-LiskGarden.sol\":5334:5555  function getPlant(uint256 _plantId) external view returns (Plant memory) {... */\n      swap2\n      swap1\n      pop\n      jump\t// out\n        /* \"sesi-1-liskgarden/contracts/20-LiskGarden.sol\":3156:3510  function updateWaterLevel (uint256 _plantId) internal {... */\n    tag_193:\n        /* \"sesi-1-liskgarden/contracts/20-LiskGarden.sol\":3221:3240  Plant storage plant */\n      0x00\n        /* \"sesi-1-liskgarden/contracts/20-LiskGarden.sol\":3243:3249  plants */\n      0x00\n        /* \"sesi-1-liskgarden/contracts/20-LiskGarden.sol\":3243:3259  plants[_plantId] */\n      0x00\n        /* \"sesi-1-liskgarden/contracts/20-LiskGarden.sol\":3250:3258  _plantId */\n      dup4\n        /* \"sesi-1-liskgarden/contracts/20-LiskGarden.sol\":3243:3259  plants[_plantId] */\n      dup2\n      mstore\n      0x20\n      add\n      swap1\n      dup2\n      mstore\n      0x20\n      add\n      0x00\n      keccak256\n        /* \"sesi-1-liskgarden/contracts/20-LiskGarden.sol\":3221:3259  Plant storage plant = plants[_plantId] */\n      swap1\n      pop\n        /* \"sesi-1-liskgarden/contracts/20-LiskGarden.sol\":3272:3290  uint8 currentWater */\n      0x00\n        /* \"sesi-1-liskgarden/contracts/20-LiskGarden.sol\":3293:3322  calculateWaterLevel(_plantId) */\n      tag_256\n        /* \"sesi-1-liskgarden/contracts/20-LiskGarden.sol\":3313:3321  _plantId */\n      dup4\n        /* \"sesi-1-liskgarden/contracts/20-LiskGarden.sol\":3293:3312  calculateWaterLevel */\n      tag_55\n        /* \"sesi-1-liskgarden/contracts/20-LiskGarden.sol\":3293:3322  calculateWaterLevel(_plantId) */\n      jump\t// in\n    tag_256:\n        /* \"sesi-1-liskgarden/contracts/20-LiskGarden.sol\":3272:3322  uint8 currentWater = calculateWaterLevel(_plantId) */\n      swap1\n      pop\n        /* \"sesi-1-liskgarden/contracts/20-LiskGarden.sol\":3354:3366  currentWater */\n      dup1\n        /* \"sesi-1-liskgarden/contracts/20-LiskGarden.sol\":3335:3340  plant */\n      dup3\n        /* \"sesi-1-liskgarden/contracts/20-LiskGarden.sol\":3335:3351  plant.waterLevel */\n      0x04\n      add\n      0x00\n        /* \"sesi-1-liskgarden/contracts/20-LiskGarden.sol\":3335:3366  plant.waterLevel = currentWater */\n      0x0100\n      exp\n      dup2\n      sload\n      dup2\n      0xff\n      mul\n      not\n      and\n      swap1\n      dup4\n      0xff\n      and\n      mul\n      or\n      swap1\n      sstore\n      pop\n        /* \"sesi-1-liskgarden/contracts/20-LiskGarden.sol\":3398:3399  0 */\n      0x00\n        /* \"sesi-1-liskgarden/contracts/20-LiskGarden.sol\":3382:3394  currentWater */\n      dup2\n        /* \"sesi-1-liskgarden/contracts/20-LiskGarden.sol\":3382:3399  currentWater == 0 */\n      0xff\n      and\n      eq\n        /* \"sesi-1-liskgarden/contracts/20-LiskGarden.sol\":3382:3416  currentWater == 0 && !plant.isDead */\n      dup1\n      iszero\n      tag_257\n      jumpi\n      pop\n        /* \"sesi-1-liskgarden/contracts/20-LiskGarden.sol\":3404:3409  plant */\n      dup2\n        /* \"sesi-1-liskgarden/contracts/20-LiskGarden.sol\":3404:3416  plant.isDead */\n      0x04\n      add\n      0x02\n      swap1\n      sload\n      swap1\n      0x0100\n      exp\n      swap1\n      div\n      0xff\n      and\n        /* \"sesi-1-liskgarden/contracts/20-LiskGarden.sol\":3403:3416  !plant.isDead */\n      iszero\n        /* \"sesi-1-liskgarden/contracts/20-LiskGarden.sol\":3382:3416  currentWater == 0 && !plant.isDead */\n    tag_257:\n        /* \"sesi-1-liskgarden/contracts/20-LiskGarden.sol\":3379:3503  if(currentWater == 0 && !plant.isDead) {... */\n      iszero\n      tag_258\n      jumpi\n        /* \"sesi-1-liskgarden/contracts/20-LiskGarden.sol\":3448:3452  true */\n      0x01\n        /* \"sesi-1-liskgarden/contracts/20-LiskGarden.sol\":3433:3438  plant */\n      dup3\n        /* \"sesi-1-liskgarden/contracts/20-LiskGarden.sol\":3433:3445  plant.isDead */\n      0x04\n      add\n      0x02\n        /* \"sesi-1-liskgarden/contracts/20-LiskGarden.sol\":3433:3452  plant.isDead = true */\n      0x0100\n      exp\n      dup2\n      sload\n      dup2\n      0xff\n      mul\n      not\n      and\n      swap1\n      dup4\n      iszero\n      iszero\n      mul\n      or\n      swap1\n      sstore\n      pop\n        /* \"sesi-1-liskgarden/contracts/20-LiskGarden.sol\":3482:3490  _plantId */\n      dup3\n        /* \"sesi-1-liskgarden/contracts/20-LiskGarden.sol\":3472:3491  PlantDied(_plantId) */\n      0xcc296a21951f3e57f21afb08547d835a0a9f0f06cc2867009cbe0cae44d36be9\n      mload(0x40)\n      mload(0x40)\n      dup1\n      swap2\n      sub\n      swap1\n      log2\n        /* \"sesi-1-liskgarden/contracts/20-LiskGarden.sol\":3379:3503  if(currentWater == 0 && !plant.isDead) {... */\n    tag_258:\n        /* \"sesi-1-liskgarden/contracts/20-LiskGarden.sol\":3210:3510  {... */\n      pop\n      pop\n        /* \"sesi-1-liskgarden/contracts/20-LiskGarden.sol\":3156:3510  function updateWaterLevel (uint256 _plantId) internal {... */\n      pop\n      jump\t// out\n    tag_248:\n      mload(0x40)\n      dup1\n      0x0100\n      add\n      0x40\n      mstore\n      dup1\n      0x00\n      dup2\n      mstore\n      0x20\n      add\n      and(0xffffffffffffffffffffffffffffffffffffffff, 0x00)\n      dup2\n      mstore\n      0x20\n      add\n      0x00\n      0x03\n      dup2\n      gt\n      iszero\n      tag_259\n      jumpi\n      tag_260\n      tag_146\n      jump\t// in\n    tag_260:\n    tag_259:\n      dup2\n      mstore\n      0x20\n      add\n      0x00\n      dup2\n      mstore\n      0x20\n      add\n      0x00\n      dup2\n      mstore\n      0x20\n      add\n      and(0xff, 0x00)\n      dup2\n      mstore\n      0x20\n      add\n      iszero(iszero(0x00))\n      dup2\n      mstore\n      0x20\n      add\n      iszero(iszero(0x00))\n      dup2\n      mstore\n      pop\n      swap1\n      jump\t// out\n        /* \"#utility.yul\":88:205   */\n    tag_262:\n        /* \"#utility.yul\":197:198   */\n      0x00\n        /* \"#utility.yul\":194:195   */\n      0x00\n        /* \"#utility.yul\":187:199   */\n      revert\n        /* \"#utility.yul\":334:460   */\n    tag_264:\n        /* \"#utility.yul\":371:378   */\n      0x00\n        /* \"#utility.yul\":411:453   */\n      0xffffffffffffffffffffffffffffffffffffffff\n        /* \"#utility.yul\":404:409   */\n      dup3\n        /* \"#utility.yul\":400:454   */\n      and\n        /* \"#utility.yul\":389:454   */\n      swap1\n      pop\n        /* \"#utility.yul\":334:460   */\n      swap2\n      swap1\n      pop\n      jump\t// out\n        /* \"#utility.yul\":466:562   */\n    tag_265:\n        /* \"#utility.yul\":503:510   */\n      0x00\n        /* \"#utility.yul\":532:556   */\n      tag_329\n        /* \"#utility.yul\":550:555   */\n      dup3\n        /* \"#utility.yul\":532:556   */\n      tag_264\n      jump\t// in\n    tag_329:\n        /* \"#utility.yul\":521:556   */\n      swap1\n      pop\n        /* \"#utility.yul\":466:562   */\n      swap2\n      swap1\n      pop\n      jump\t// out\n        /* \"#utility.yul\":568:690   */\n    tag_266:\n        /* \"#utility.yul\":641:665   */\n      tag_331\n        /* \"#utility.yul\":659:664   */\n      dup2\n        /* \"#utility.yul\":641:665   */\n      tag_265\n      jump\t// in\n    tag_331:\n        /* \"#utility.yul\":634:639   */\n      dup2\n        /* \"#utility.yul\":631:666   */\n      eq\n        /* \"#utility.yul\":621:684   */\n      tag_332\n      jumpi\n        /* \"#utility.yul\":680:681   */\n      0x00\n        /* \"#utility.yul\":677:678   */\n      0x00\n        /* \"#utility.yul\":670:682   */\n      revert\n        /* \"#utility.yul\":621:684   */\n    tag_332:\n        /* \"#utility.yul\":568:690   */\n      pop\n      jump\t// out\n        /* \"#utility.yul\":696:835   */\n    tag_267:\n        /* \"#utility.yul\":742:747   */\n      0x00\n        /* \"#utility.yul\":780:786   */\n      dup2\n        /* \"#utility.yul\":767:787   */\n      calldataload\n        /* \"#utility.yul\":758:787   */\n      swap1\n      pop\n        /* \"#utility.yul\":796:829   */\n      tag_334\n        /* \"#utility.yul\":823:828   */\n      dup2\n        /* \"#utility.yul\":796:829   */\n      tag_266\n      jump\t// in\n    tag_334:\n        /* \"#utility.yul\":696:835   */\n      swap3\n      swap2\n      pop\n      pop\n      jump\t// out\n        /* \"#utility.yul\":841:1170   */\n    tag_30:\n        /* \"#utility.yul\":900:906   */\n      0x00\n        /* \"#utility.yul\":949:951   */\n      0x20\n        /* \"#utility.yul\":937:946   */\n      dup3\n        /* \"#utility.yul\":928:935   */\n      dup5\n        /* \"#utility.yul\":924:947   */\n      sub\n        /* \"#utility.yul\":920:952   */\n      slt\n        /* \"#utility.yul\":917:1036   */\n      iszero\n      tag_336\n      jumpi\n        /* \"#utility.yul\":955:1034   */\n      tag_337\n      tag_262\n      jump\t// in\n    tag_337:\n        /* \"#utility.yul\":917:1036   */\n    tag_336:\n        /* \"#utility.yul\":1075:1076   */\n      0x00\n        /* \"#utility.yul\":1100:1153   */\n      tag_338\n        /* \"#utility.yul\":1145:1152   */\n      dup5\n        /* \"#utility.yul\":1136:1142   */\n      dup3\n        /* \"#utility.yul\":1125:1134   */\n      dup6\n        /* \"#utility.yul\":1121:1143   */\n      add\n        /* \"#utility.yul\":1100:1153   */\n      tag_267\n      jump\t// in\n    tag_338:\n        /* \"#utility.yul\":1090:1153   */\n      swap2\n      pop\n        /* \"#utility.yul\":1046:1163   */\n      pop\n        /* \"#utility.yul\":841:1170   */\n      swap3\n      swap2\n      pop\n      pop\n      jump\t// out\n        /* \"#utility.yul\":1176:1290   */\n    tag_268:\n        /* \"#utility.yul\":1243:1249   */\n      0x00\n        /* \"#utility.yul\":1277:1282   */\n      dup2\n        /* \"#utility.yul\":1271:1283   */\n      mload\n        /* \"#utility.yul\":1261:1283   */\n      swap1\n      pop\n        /* \"#utility.yul\":1176:1290   */\n      swap2\n      swap1\n      pop\n      jump\t// out\n        /* \"#utility.yul\":1296:1480   */\n    tag_269:\n        /* \"#utility.yul\":1395:1406   */\n      0x00\n        /* \"#utility.yul\":1429:1435   */\n      dup3\n        /* \"#utility.yul\":1424:1427   */\n      dup3\n        /* \"#utility.yul\":1417:1436   */\n      mstore\n        /* \"#utility.yul\":1469:1473   */\n      0x20\n        /* \"#utility.yul\":1464:1467   */\n      dup3\n        /* \"#utility.yul\":1460:1474   */\n      add\n        /* \"#utility.yul\":1445:1474   */\n      swap1\n      pop\n        /* \"#utility.yul\":1296:1480   */\n      swap3\n      swap2\n      pop\n      pop\n      jump\t// out\n        /* \"#utility.yul\":1486:1618   */\n    tag_270:\n        /* \"#utility.yul\":1553:1557   */\n      0x00\n        /* \"#utility.yul\":1576:1579   */\n      dup2\n        /* \"#utility.yul\":1568:1579   */\n      swap1\n      pop\n        /* \"#utility.yul\":1606:1610   */\n      0x20\n        /* \"#utility.yul\":1601:1604   */\n      dup3\n        /* \"#utility.yul\":1597:1611   */\n      add\n        /* \"#utility.yul\":1589:1611   */\n      swap1\n      pop\n        /* \"#utility.yul\":1486:1618   */\n      swap2\n      swap1\n      pop\n      jump\t// out\n        /* \"#utility.yul\":1624:1701   */\n    tag_271:\n        /* \"#utility.yul\":1661:1668   */\n      0x00\n        /* \"#utility.yul\":1690:1695   */\n      dup2\n        /* \"#utility.yul\":1679:1695   */\n      swap1\n      pop\n        /* \"#utility.yul\":1624:1701   */\n      swap2\n      swap1\n      pop\n      jump\t// out\n        /* \"#utility.yul\":1707:1815   */\n    tag_272:\n        /* \"#utility.yul\":1784:1808   */\n      tag_344\n        /* \"#utility.yul\":1802:1807   */\n      dup2\n        /* \"#utility.yul\":1784:1808   */\n      tag_271\n      jump\t// in\n    tag_344:\n        /* \"#utility.yul\":1779:1782   */\n      dup3\n        /* \"#utility.yul\":1772:1809   */\n      mstore\n        /* \"#utility.yul\":1707:1815   */\n      pop\n      pop\n      jump\t// out\n        /* \"#utility.yul\":1821:2000   */\n    tag_273:\n        /* \"#utility.yul\":1890:1900   */\n      0x00\n        /* \"#utility.yul\":1911:1957   */\n      tag_346\n        /* \"#utility.yul\":1953:1956   */\n      dup4\n        /* \"#utility.yul\":1945:1951   */\n      dup4\n        /* \"#utility.yul\":1911:1957   */\n      tag_272\n      jump\t// in\n    tag_346:\n        /* \"#utility.yul\":1989:1993   */\n      0x20\n        /* \"#utility.yul\":1984:1987   */\n      dup4\n        /* \"#utility.yul\":1980:1994   */\n      add\n        /* \"#utility.yul\":1966:1994   */\n      swap1\n      pop\n        /* \"#utility.yul\":1821:2000   */\n      swap3\n      swap2\n      pop\n      pop\n      jump\t// out\n        /* \"#utility.yul\":2006:2119   */\n    tag_274:\n        /* \"#utility.yul\":2076:2080   */\n      0x00\n        /* \"#utility.yul\":2108:2112   */\n      0x20\n        /* \"#utility.yul\":2103:2106   */\n      dup3\n        /* \"#utility.yul\":2099:2113   */\n      add\n        /* \"#utility.yul\":2091:2113   */\n      swap1\n      pop\n        /* \"#utility.yul\":2006:2119   */\n      swap2\n      swap1\n      pop\n      jump\t// out\n        /* \"#utility.yul\":2155:2887   */\n    tag_275:\n        /* \"#utility.yul\":2274:2277   */\n      0x00\n        /* \"#utility.yul\":2303:2357   */\n      tag_349\n        /* \"#utility.yul\":2351:2356   */\n      dup3\n        /* \"#utility.yul\":2303:2357   */\n      tag_268\n      jump\t// in\n    tag_349:\n        /* \"#utility.yul\":2373:2459   */\n      tag_350\n        /* \"#utility.yul\":2452:2458   */\n      dup2\n        /* \"#utility.yul\":2447:2450   */\n      dup6\n        /* \"#utility.yul\":2373:2459   */\n      tag_269\n      jump\t// in\n    tag_350:\n        /* \"#utility.yul\":2366:2459   */\n      swap4\n      pop\n        /* \"#utility.yul\":2483:2539   */\n      tag_351\n        /* \"#utility.yul\":2533:2538   */\n      dup4\n        /* \"#utility.yul\":2483:2539   */\n      tag_270\n      jump\t// in\n    tag_351:\n        /* \"#utility.yul\":2562:2569   */\n      dup1\n        /* \"#utility.yul\":2593:2594   */\n      0x00\n        /* \"#utility.yul\":2578:2862   */\n    tag_352:\n        /* \"#utility.yul\":2603:2609   */\n      dup4\n        /* \"#utility.yul\":2600:2601   */\n      dup2\n        /* \"#utility.yul\":2597:2610   */\n      lt\n        /* \"#utility.yul\":2578:2862   */\n      iszero\n      tag_354\n      jumpi\n        /* \"#utility.yul\":2679:2685   */\n      dup2\n        /* \"#utility.yul\":2673:2686   */\n      mload\n        /* \"#utility.yul\":2706:2769   */\n      tag_355\n        /* \"#utility.yul\":2765:2768   */\n      dup9\n        /* \"#utility.yul\":2750:2763   */\n      dup3\n        /* \"#utility.yul\":2706:2769   */\n      tag_273\n      jump\t// in\n    tag_355:\n        /* \"#utility.yul\":2699:2769   */\n      swap8\n      pop\n        /* \"#utility.yul\":2792:2852   */\n      tag_356\n        /* \"#utility.yul\":2845:2851   */\n      dup4\n        /* \"#utility.yul\":2792:2852   */\n      tag_274\n      jump\t// in\n    tag_356:\n        /* \"#utility.yul\":2782:2852   */\n      swap3\n      pop\n        /* \"#utility.yul\":2638:2862   */\n      pop\n        /* \"#utility.yul\":2625:2626   */\n      0x01\n        /* \"#utility.yul\":2622:2623   */\n      dup2\n        /* \"#utility.yul\":2618:2627   */\n      add\n        /* \"#utility.yul\":2613:2627   */\n      swap1\n      pop\n        /* \"#utility.yul\":2578:2862   */\n      jump(tag_352)\n    tag_354:\n        /* \"#utility.yul\":2582:2596   */\n      pop\n        /* \"#utility.yul\":2878:2881   */\n      dup6\n        /* \"#utility.yul\":2871:2881   */\n      swap4\n      pop\n        /* \"#utility.yul\":2279:2887   */\n      pop\n      pop\n      pop\n        /* \"#utility.yul\":2155:2887   */\n      swap3\n      swap2\n      pop\n      pop\n      jump\t// out\n        /* \"#utility.yul\":2893:3266   */\n    tag_33:\n        /* \"#utility.yul\":3036:3040   */\n      0x00\n        /* \"#utility.yul\":3074:3076   */\n      0x20\n        /* \"#utility.yul\":3063:3072   */\n      dup3\n        /* \"#utility.yul\":3059:3077   */\n      add\n        /* \"#utility.yul\":3051:3077   */\n      swap1\n      pop\n        /* \"#utility.yul\":3123:3132   */\n      dup2\n        /* \"#utility.yul\":3117:3121   */\n      dup2\n        /* \"#utility.yul\":3113:3133   */\n      sub\n        /* \"#utility.yul\":3109:3110   */\n      0x00\n        /* \"#utility.yul\":3098:3107   */\n      dup4\n        /* \"#utility.yul\":3094:3111   */\n      add\n        /* \"#utility.yul\":3087:3134   */\n      mstore\n        /* \"#utility.yul\":3151:3259   */\n      tag_358\n        /* \"#utility.yul\":3254:3258   */\n      dup2\n        /* \"#utility.yul\":3245:3251   */\n      dup5\n        /* \"#utility.yul\":3151:3259   */\n      tag_275\n      jump\t// in\n    tag_358:\n        /* \"#utility.yul\":3143:3259   */\n      swap1\n      pop\n        /* \"#utility.yul\":2893:3266   */\n      swap3\n      swap2\n      pop\n      pop\n      jump\t// out\n        /* \"#utility.yul\":3272:3390   */\n    tag_276:\n        /* \"#utility.yul\":3359:3383   */\n      tag_360\n        /* \"#utility.yul\":3377:3382   */\n      dup2\n        /* \"#utility.yul\":3359:3383   */\n      tag_271\n      jump\t// in\n    tag_360:\n        /* \"#utility.yul\":3354:3357   */\n      dup3\n        /* \"#utility.yul\":3347:3384   */\n      mstore\n        /* \"#utility.yul\":3272:3390   */\n      pop\n      pop\n      jump\t// out\n        /* \"#utility.yul\":3396:3618   */\n    tag_41:\n        /* \"#utility.yul\":3489:3493   */\n      0x00\n        /* \"#utility.yul\":3527:3529   */\n      0x20\n        /* \"#utility.yul\":3516:3525   */\n      dup3\n        /* \"#utility.yul\":3512:3530   */\n      add\n        /* \"#utility.yul\":3504:3530   */\n      swap1\n      pop\n        /* \"#utility.yul\":3540:3611   */\n      tag_362\n        /* \"#utility.yul\":3608:3609   */\n      0x00\n        /* \"#utility.yul\":3597:3606   */\n      dup4\n        /* \"#utility.yul\":3593:3610   */\n      add\n        /* \"#utility.yul\":3584:3590   */\n      dup5\n        /* \"#utility.yul\":3540:3611   */\n      tag_276\n      jump\t// in\n    tag_362:\n        /* \"#utility.yul\":3396:3618   */\n      swap3\n      swap2\n      pop\n      pop\n      jump\t// out\n        /* \"#utility.yul\":3624:3746   */\n    tag_277:\n        /* \"#utility.yul\":3697:3721   */\n      tag_364\n        /* \"#utility.yul\":3715:3720   */\n      dup2\n        /* \"#utility.yul\":3697:3721   */\n      tag_271\n      jump\t// in\n    tag_364:\n        /* \"#utility.yul\":3690:3695   */\n      dup2\n        /* \"#utility.yul\":3687:3722   */\n      eq\n        /* \"#utility.yul\":3677:3740   */\n      tag_365\n      jumpi\n        /* \"#utility.yul\":3736:3737   */\n      0x00\n        /* \"#utility.yul\":3733:3734   */\n      0x00\n        /* \"#utility.yul\":3726:3738   */\n      revert\n        /* \"#utility.yul\":3677:3740   */\n    tag_365:\n        /* \"#utility.yul\":3624:3746   */\n      pop\n      jump\t// out\n        /* \"#utility.yul\":3752:3891   */\n    tag_278:\n        /* \"#utility.yul\":3798:3803   */\n      0x00\n        /* \"#utility.yul\":3836:3842   */\n      dup2\n        /* \"#utility.yul\":3823:3843   */\n      calldataload\n        /* \"#utility.yul\":3814:3843   */\n      swap1\n      pop\n        /* \"#utility.yul\":3852:3885   */\n      tag_367\n        /* \"#utility.yul\":3879:3884   */\n      dup2\n        /* \"#utility.yul\":3852:3885   */\n      tag_277\n      jump\t// in\n    tag_367:\n        /* \"#utility.yul\":3752:3891   */\n      swap3\n      swap2\n      pop\n      pop\n      jump\t// out\n        /* \"#utility.yul\":3897:4226   */\n    tag_45:\n        /* \"#utility.yul\":3956:3962   */\n      0x00\n        /* \"#utility.yul\":4005:4007   */\n      0x20\n        /* \"#utility.yul\":3993:4002   */\n      dup3\n        /* \"#utility.yul\":3984:3991   */\n      dup5\n        /* \"#utility.yul\":3980:4003   */\n      sub\n        /* \"#utility.yul\":3976:4008   */\n      slt\n        /* \"#utility.yul\":3973:4092   */\n      iszero\n      tag_369\n      jumpi\n        /* \"#utility.yul\":4011:4090   */\n      tag_370\n      tag_262\n      jump\t// in\n    tag_370:\n        /* \"#utility.yul\":3973:4092   */\n    tag_369:\n        /* \"#utility.yul\":4131:4132   */\n      0x00\n        /* \"#utility.yul\":4156:4209   */\n      tag_371\n        /* \"#utility.yul\":4201:4208   */\n      dup5\n        /* \"#utility.yul\":4192:4198   */\n      dup3\n        /* \"#utility.yul\":4181:4190   */\n      dup6\n        /* \"#utility.yul\":4177:4199   */\n      add\n        /* \"#utility.yul\":4156:4209   */\n      tag_278\n      jump\t// in\n    tag_371:\n        /* \"#utility.yul\":4146:4209   */\n      swap2\n      pop\n        /* \"#utility.yul\":4102:4219   */\n      pop\n        /* \"#utility.yul\":3897:4226   */\n      swap3\n      swap2\n      pop\n      pop\n      jump\t// out\n        /* \"#utility.yul\":4232:4412   */\n    tag_146:\n        /* \"#utility.yul\":4280:4357   */\n      0x4e487b7100000000000000000000000000000000000000000000000000000000\n        /* \"#utility.yul\":4277:4278   */\n      0x00\n        /* \"#utility.yul\":4270:4358   */\n      mstore\n        /* \"#utility.yul\":4377:4381   */\n      0x21\n        /* \"#utility.yul\":4374:4375   */\n      0x04\n        /* \"#utility.yul\":4367:4382   */\n      mstore\n        /* \"#utility.yul\":4401:4405   */\n      0x24\n        /* \"#utility.yul\":4398:4399   */\n      0x00\n        /* \"#utility.yul\":4391:4406   */\n      revert\n        /* \"#utility.yul\":4418:4536   */\n    tag_279:\n        /* \"#utility.yul\":4504:4505   */\n      0x04\n        /* \"#utility.yul\":4497:4502   */\n      dup2\n        /* \"#utility.yul\":4494:4506   */\n      lt\n        /* \"#utility.yul\":4484:4530   */\n      tag_374\n      jumpi\n        /* \"#utility.yul\":4510:4528   */\n      tag_375\n      tag_146\n      jump\t// in\n    tag_375:\n        /* \"#utility.yul\":4484:4530   */\n    tag_374:\n        /* \"#utility.yul\":4418:4536   */\n      pop\n      jump\t// out\n        /* \"#utility.yul\":4542:4679   */\n    tag_280:\n        /* \"#utility.yul\":4592:4599   */\n      0x00\n        /* \"#utility.yul\":4621:4626   */\n      dup2\n        /* \"#utility.yul\":4610:4626   */\n      swap1\n      pop\n        /* \"#utility.yul\":4627:4673   */\n      tag_377\n        /* \"#utility.yul\":4667:4672   */\n      dup3\n        /* \"#utility.yul\":4627:4673   */\n      tag_279\n      jump\t// in\n    tag_377:\n        /* \"#utility.yul\":4542:4679   */\n      swap2\n      swap1\n      pop\n      jump\t// out\n        /* \"#utility.yul\":4685:4822   */\n    tag_281:\n        /* \"#utility.yul\":4746:4755   */\n      0x00\n        /* \"#utility.yul\":4779:4816   */\n      tag_379\n        /* \"#utility.yul\":4810:4815   */\n      dup3\n        /* \"#utility.yul\":4779:4816   */\n      tag_280\n      jump\t// in\n    tag_379:\n        /* \"#utility.yul\":4766:4816   */\n      swap1\n      pop\n        /* \"#utility.yul\":4685:4822   */\n      swap2\n      swap1\n      pop\n      jump\t// out\n        /* \"#utility.yul\":4828:4981   */\n    tag_282:\n        /* \"#utility.yul\":4926:4974   */\n      tag_381\n        /* \"#utility.yul\":4968:4973   */\n      dup2\n        /* \"#utility.yul\":4926:4974   */\n      tag_281\n      jump\t// in\n    tag_381:\n        /* \"#utility.yul\":4921:4924   */\n      dup3\n        /* \"#utility.yul\":4914:4975   */\n      mstore\n        /* \"#utility.yul\":4828:4981   */\n      pop\n      pop\n      jump\t// out\n        /* \"#utility.yul\":4987:5231   */\n    tag_48:\n        /* \"#utility.yul\":5091:5095   */\n      0x00\n        /* \"#utility.yul\":5129:5131   */\n      0x20\n        /* \"#utility.yul\":5118:5127   */\n      dup3\n        /* \"#utility.yul\":5114:5132   */\n      add\n        /* \"#utility.yul\":5106:5132   */\n      swap1\n      pop\n        /* \"#utility.yul\":5142:5224   */\n      tag_383\n        /* \"#utility.yul\":5221:5222   */\n      0x00\n        /* \"#utility.yul\":5210:5219   */\n      dup4\n        /* \"#utility.yul\":5206:5223   */\n      add\n        /* \"#utility.yul\":5197:5203   */\n      dup5\n        /* \"#utility.yul\":5142:5224   */\n      tag_282\n      jump\t// in\n    tag_383:\n        /* \"#utility.yul\":4987:5231   */\n      swap3\n      swap2\n      pop\n      pop\n      jump\t// out\n        /* \"#utility.yul\":5237:5323   */\n    tag_283:\n        /* \"#utility.yul\":5272:5279   */\n      0x00\n        /* \"#utility.yul\":5312:5316   */\n      0xff\n        /* \"#utility.yul\":5305:5310   */\n      dup3\n        /* \"#utility.yul\":5301:5317   */\n      and\n        /* \"#utility.yul\":5290:5317   */\n      swap1\n      pop\n        /* \"#utility.yul\":5237:5323   */\n      swap2\n      swap1\n      pop\n      jump\t// out\n        /* \"#utility.yul\":5329:5441   */\n    tag_284:\n        /* \"#utility.yul\":5412:5434   */\n      tag_386\n        /* \"#utility.yul\":5428:5433   */\n      dup2\n        /* \"#utility.yul\":5412:5434   */\n      tag_283\n      jump\t// in\n    tag_386:\n        /* \"#utility.yul\":5407:5410   */\n      dup3\n        /* \"#utility.yul\":5400:5435   */\n      mstore\n        /* \"#utility.yul\":5329:5441   */\n      pop\n      pop\n      jump\t// out\n        /* \"#utility.yul\":5447:5661   */\n    tag_57:\n        /* \"#utility.yul\":5536:5540   */\n      0x00\n        /* \"#utility.yul\":5574:5576   */\n      0x20\n        /* \"#utility.yul\":5563:5572   */\n      dup3\n        /* \"#utility.yul\":5559:5577   */\n      add\n        /* \"#utility.yul\":5551:5577   */\n      swap1\n      pop\n        /* \"#utility.yul\":5587:5654   */\n      tag_388\n        /* \"#utility.yul\":5651:5652   */\n      0x00\n        /* \"#utility.yul\":5640:5649   */\n      dup4\n        /* \"#utility.yul\":5636:5653   */\n      add\n        /* \"#utility.yul\":5627:5633   */\n      dup5\n        /* \"#utility.yul\":5587:5654   */\n      tag_284\n      jump\t// in\n    tag_388:\n        /* \"#utility.yul\":5447:5661   */\n      swap3\n      swap2\n      pop\n      pop\n      jump\t// out\n        /* \"#utility.yul\":5667:6141   */\n    tag_65:\n        /* \"#utility.yul\":5735:5741   */\n      0x00\n        /* \"#utility.yul\":5743:5749   */\n      0x00\n        /* \"#utility.yul\":5792:5794   */\n      0x40\n        /* \"#utility.yul\":5780:5789   */\n      dup4\n        /* \"#utility.yul\":5771:5778   */\n      dup6\n        /* \"#utility.yul\":5767:5790   */\n      sub\n        /* \"#utility.yul\":5763:5795   */\n      slt\n        /* \"#utility.yul\":5760:5879   */\n      iszero\n      tag_390\n      jumpi\n        /* \"#utility.yul\":5798:5877   */\n      tag_391\n      tag_262\n      jump\t// in\n    tag_391:\n        /* \"#utility.yul\":5760:5879   */\n    tag_390:\n        /* \"#utility.yul\":5918:5919   */\n      0x00\n        /* \"#utility.yul\":5943:5996   */\n      tag_392\n        /* \"#utility.yul\":5988:5995   */\n      dup6\n        /* \"#utility.yul\":5979:5985   */\n      dup3\n        /* \"#utility.yul\":5968:5977   */\n      dup7\n        /* \"#utility.yul\":5964:5986   */\n      add\n        /* \"#utility.yul\":5943:5996   */\n      tag_267\n      jump\t// in\n    tag_392:\n        /* \"#utility.yul\":5933:5996   */\n      swap3\n      pop\n        /* \"#utility.yul\":5889:6006   */\n      pop\n        /* \"#utility.yul\":6045:6047   */\n      0x20\n        /* \"#utility.yul\":6071:6124   */\n      tag_393\n        /* \"#utility.yul\":6116:6123   */\n      dup6\n        /* \"#utility.yul\":6107:6113   */\n      dup3\n        /* \"#utility.yul\":6096:6105   */\n      dup7\n        /* \"#utility.yul\":6092:6114   */\n      add\n        /* \"#utility.yul\":6071:6124   */\n      tag_278\n      jump\t// in\n    tag_393:\n        /* \"#utility.yul\":6061:6124   */\n      swap2\n      pop\n        /* \"#utility.yul\":6016:6134   */\n      pop\n        /* \"#utility.yul\":5667:6141   */\n      swap3\n      pop\n      swap3\n      swap1\n      pop\n      jump\t// out\n        /* \"#utility.yul\":6147:6265   */\n    tag_285:\n        /* \"#utility.yul\":6234:6258   */\n      tag_395\n        /* \"#utility.yul\":6252:6257   */\n      dup2\n        /* \"#utility.yul\":6234:6258   */\n      tag_265\n      jump\t// in\n    tag_395:\n        /* \"#utility.yul\":6229:6232   */\n      dup3\n        /* \"#utility.yul\":6222:6259   */\n      mstore\n        /* \"#utility.yul\":6147:6265   */\n      pop\n      pop\n      jump\t// out\n        /* \"#utility.yul\":6271:6493   */\n    tag_72:\n        /* \"#utility.yul\":6364:6368   */\n      0x00\n        /* \"#utility.yul\":6402:6404   */\n      0x20\n        /* \"#utility.yul\":6391:6400   */\n      dup3\n        /* \"#utility.yul\":6387:6405   */\n      add\n        /* \"#utility.yul\":6379:6405   */\n      swap1\n      pop\n        /* \"#utility.yul\":6415:6486   */\n      tag_397\n        /* \"#utility.yul\":6483:6484   */\n      0x00\n        /* \"#utility.yul\":6472:6481   */\n      dup4\n        /* \"#utility.yul\":6468:6485   */\n      add\n        /* \"#utility.yul\":6459:6465   */\n      dup5\n        /* \"#utility.yul\":6415:6486   */\n      tag_285\n      jump\t// in\n    tag_397:\n        /* \"#utility.yul\":6271:6493   */\n      swap3\n      swap2\n      pop\n      pop\n      jump\t// out\n        /* \"#utility.yul\":6499:6589   */\n    tag_286:\n        /* \"#utility.yul\":6533:6540   */\n      0x00\n        /* \"#utility.yul\":6576:6581   */\n      dup2\n        /* \"#utility.yul\":6569:6582   */\n      iszero\n        /* \"#utility.yul\":6562:6583   */\n      iszero\n        /* \"#utility.yul\":6551:6583   */\n      swap1\n      pop\n        /* \"#utility.yul\":6499:6589   */\n      swap2\n      swap1\n      pop\n      jump\t// out\n        /* \"#utility.yul\":6595:6704   */\n    tag_287:\n        /* \"#utility.yul\":6676:6697   */\n      tag_400\n        /* \"#utility.yul\":6691:6696   */\n      dup2\n        /* \"#utility.yul\":6676:6697   */\n      tag_286\n      jump\t// in\n    tag_400:\n        /* \"#utility.yul\":6671:6674   */\n      dup3\n        /* \"#utility.yul\":6664:6698   */\n      mstore\n        /* \"#utility.yul\":6595:6704   */\n      pop\n      pop\n      jump\t// out\n        /* \"#utility.yul\":6710:7697   */\n    tag_78:\n        /* \"#utility.yul\":6994:6998   */\n      0x00\n        /* \"#utility.yul\":7032:7035   */\n      0x0100\n        /* \"#utility.yul\":7021:7030   */\n      dup3\n        /* \"#utility.yul\":7017:7036   */\n      add\n        /* \"#utility.yul\":7009:7036   */\n      swap1\n      pop\n        /* \"#utility.yul\":7046:7117   */\n      tag_402\n        /* \"#utility.yul\":7114:7115   */\n      0x00\n        /* \"#utility.yul\":7103:7112   */\n      dup4\n        /* \"#utility.yul\":7099:7116   */\n      add\n        /* \"#utility.yul\":7090:7096   */\n      dup12\n        /* \"#utility.yul\":7046:7117   */\n      tag_276\n      jump\t// in\n    tag_402:\n        /* \"#utility.yul\":7127:7199   */\n      tag_403\n        /* \"#utility.yul\":7195:7197   */\n      0x20\n        /* \"#utility.yul\":7184:7193   */\n      dup4\n        /* \"#utility.yul\":7180:7198   */\n      add\n        /* \"#utility.yul\":7171:7177   */\n      dup11\n        /* \"#utility.yul\":7127:7199   */\n      tag_285\n      jump\t// in\n    tag_403:\n        /* \"#utility.yul\":7209:7292   */\n      tag_404\n        /* \"#utility.yul\":7288:7290   */\n      0x40\n        /* \"#utility.yul\":7277:7286   */\n      dup4\n        /* \"#utility.yul\":7273:7291   */\n      add\n        /* \"#utility.yul\":7264:7270   */\n      dup10\n        /* \"#utility.yul\":7209:7292   */\n      tag_282\n      jump\t// in\n    tag_404:\n        /* \"#utility.yul\":7302:7374   */\n      tag_405\n        /* \"#utility.yul\":7370:7372   */\n      0x60\n        /* \"#utility.yul\":7359:7368   */\n      dup4\n        /* \"#utility.yul\":7355:7373   */\n      add\n        /* \"#utility.yul\":7346:7352   */\n      dup9\n        /* \"#utility.yul\":7302:7374   */\n      tag_276\n      jump\t// in\n    tag_405:\n        /* \"#utility.yul\":7384:7457   */\n      tag_406\n        /* \"#utility.yul\":7452:7455   */\n      0x80\n        /* \"#utility.yul\":7441:7450   */\n      dup4\n        /* \"#utility.yul\":7437:7456   */\n      add\n        /* \"#utility.yul\":7428:7434   */\n      dup8\n        /* \"#utility.yul\":7384:7457   */\n      tag_276\n      jump\t// in\n    tag_406:\n        /* \"#utility.yul\":7467:7536   */\n      tag_407\n        /* \"#utility.yul\":7531:7534   */\n      0xa0\n        /* \"#utility.yul\":7520:7529   */\n      dup4\n        /* \"#utility.yul\":7516:7535   */\n      add\n        /* \"#utility.yul\":7507:7513   */\n      dup7\n        /* \"#utility.yul\":7467:7536   */\n      tag_284\n      jump\t// in\n    tag_407:\n        /* \"#utility.yul\":7546:7613   */\n      tag_408\n        /* \"#utility.yul\":7608:7611   */\n      0xc0\n        /* \"#utility.yul\":7597:7606   */\n      dup4\n        /* \"#utility.yul\":7593:7612   */\n      add\n        /* \"#utility.yul\":7584:7590   */\n      dup6\n        /* \"#utility.yul\":7546:7613   */\n      tag_287\n      jump\t// in\n    tag_408:\n        /* \"#utility.yul\":7623:7690   */\n      tag_409\n        /* \"#utility.yul\":7685:7688   */\n      0xe0\n        /* \"#utility.yul\":7674:7683   */\n      dup4\n        /* \"#utility.yul\":7670:7689   */\n      add\n        /* \"#utility.yul\":7661:7667   */\n      dup5\n        /* \"#utility.yul\":7623:7690   */\n      tag_287\n      jump\t// in\n    tag_409:\n        /* \"#utility.yul\":6710:7697   */\n      swap10\n      swap9\n      pop\n      pop\n      pop\n      pop\n      pop\n      pop\n      pop\n      pop\n      pop\n      jump\t// out\n        /* \"#utility.yul\":7703:7811   */\n    tag_288:\n        /* \"#utility.yul\":7780:7804   */\n      tag_411\n        /* \"#utility.yul\":7798:7803   */\n      dup2\n        /* \"#utility.yul\":7780:7804   */\n      tag_265\n      jump\t// in\n    tag_411:\n        /* \"#utility.yul\":7775:7778   */\n      dup3\n        /* \"#utility.yul\":7768:7805   */\n      mstore\n        /* \"#utility.yul\":7703:7811   */\n      pop\n      pop\n      jump\t// out\n        /* \"#utility.yul\":7817:7960   */\n    tag_289:\n        /* \"#utility.yul\":7905:7953   */\n      tag_413\n        /* \"#utility.yul\":7947:7952   */\n      dup2\n        /* \"#utility.yul\":7905:7953   */\n      tag_281\n      jump\t// in\n    tag_413:\n        /* \"#utility.yul\":7900:7903   */\n      dup3\n        /* \"#utility.yul\":7893:7954   */\n      mstore\n        /* \"#utility.yul\":7817:7960   */\n      pop\n      pop\n      jump\t// out\n        /* \"#utility.yul\":7966:8068   */\n    tag_290:\n        /* \"#utility.yul\":8039:8061   */\n      tag_415\n        /* \"#utility.yul\":8055:8060   */\n      dup2\n        /* \"#utility.yul\":8039:8061   */\n      tag_283\n      jump\t// in\n    tag_415:\n        /* \"#utility.yul\":8034:8037   */\n      dup3\n        /* \"#utility.yul\":8027:8062   */\n      mstore\n        /* \"#utility.yul\":7966:8068   */\n      pop\n      pop\n      jump\t// out\n        /* \"#utility.yul\":8074:8173   */\n    tag_291:\n        /* \"#utility.yul\":8145:8166   */\n      tag_417\n        /* \"#utility.yul\":8160:8165   */\n      dup2\n        /* \"#utility.yul\":8145:8166   */\n      tag_286\n      jump\t// in\n    tag_417:\n        /* \"#utility.yul\":8140:8143   */\n      dup3\n        /* \"#utility.yul\":8133:8167   */\n      mstore\n        /* \"#utility.yul\":8074:8173   */\n      pop\n      pop\n      jump\t// out\n        /* \"#utility.yul\":8237:9801   */\n    tag_292:\n        /* \"#utility.yul\":8376:8382   */\n      0x0100\n        /* \"#utility.yul\":8371:8374   */\n      dup3\n        /* \"#utility.yul\":8367:8383   */\n      add\n        /* \"#utility.yul\":8463:8467   */\n      0x00\n        /* \"#utility.yul\":8456:8461   */\n      dup3\n        /* \"#utility.yul\":8452:8468   */\n      add\n        /* \"#utility.yul\":8446:8469   */\n      mload\n        /* \"#utility.yul\":8482:8545   */\n      tag_419\n        /* \"#utility.yul\":8539:8543   */\n      0x00\n        /* \"#utility.yul\":8534:8537   */\n      dup6\n        /* \"#utility.yul\":8530:8544   */\n      add\n        /* \"#utility.yul\":8516:8528   */\n      dup3\n        /* \"#utility.yul\":8482:8545   */\n      tag_272\n      jump\t// in\n    tag_419:\n        /* \"#utility.yul\":8393:8555   */\n      pop\n        /* \"#utility.yul\":8638:8642   */\n      0x20\n        /* \"#utility.yul\":8631:8636   */\n      dup3\n        /* \"#utility.yul\":8627:8643   */\n      add\n        /* \"#utility.yul\":8621:8644   */\n      mload\n        /* \"#utility.yul\":8657:8720   */\n      tag_420\n        /* \"#utility.yul\":8714:8718   */\n      0x20\n        /* \"#utility.yul\":8709:8712   */\n      dup6\n        /* \"#utility.yul\":8705:8719   */\n      add\n        /* \"#utility.yul\":8691:8703   */\n      dup3\n        /* \"#utility.yul\":8657:8720   */\n      tag_288\n      jump\t// in\n    tag_420:\n        /* \"#utility.yul\":8565:8730   */\n      pop\n        /* \"#utility.yul\":8813:8817   */\n      0x40\n        /* \"#utility.yul\":8806:8811   */\n      dup3\n        /* \"#utility.yul\":8802:8818   */\n      add\n        /* \"#utility.yul\":8796:8819   */\n      mload\n        /* \"#utility.yul\":8832:8906   */\n      tag_421\n        /* \"#utility.yul\":8900:8904   */\n      0x40\n        /* \"#utility.yul\":8895:8898   */\n      dup6\n        /* \"#utility.yul\":8891:8905   */\n      add\n        /* \"#utility.yul\":8877:8889   */\n      dup3\n        /* \"#utility.yul\":8832:8906   */\n      tag_289\n      jump\t// in\n    tag_421:\n        /* \"#utility.yul\":8740:8916   */\n      pop\n        /* \"#utility.yul\":9005:9009   */\n      0x60\n        /* \"#utility.yul\":8998:9003   */\n      dup3\n        /* \"#utility.yul\":8994:9010   */\n      add\n        /* \"#utility.yul\":8988:9011   */\n      mload\n        /* \"#utility.yul\":9024:9087   */\n      tag_422\n        /* \"#utility.yul\":9081:9085   */\n      0x60\n        /* \"#utility.yul\":9076:9079   */\n      dup6\n        /* \"#utility.yul\":9072:9086   */\n      add\n        /* \"#utility.yul\":9058:9070   */\n      dup3\n        /* \"#utility.yul\":9024:9087   */\n      tag_272\n      jump\t// in\n    tag_422:\n        /* \"#utility.yul\":8926:9097   */\n      pop\n        /* \"#utility.yul\":9186:9190   */\n      0x80\n        /* \"#utility.yul\":9179:9184   */\n      dup3\n        /* \"#utility.yul\":9175:9191   */\n      add\n        /* \"#utility.yul\":9169:9192   */\n      mload\n        /* \"#utility.yul\":9205:9268   */\n      tag_423\n        /* \"#utility.yul\":9262:9266   */\n      0x80\n        /* \"#utility.yul\":9257:9260   */\n      dup6\n        /* \"#utility.yul\":9253:9267   */\n      add\n        /* \"#utility.yul\":9239:9251   */\n      dup3\n        /* \"#utility.yul\":9205:9268   */\n      tag_272\n      jump\t// in\n    tag_423:\n        /* \"#utility.yul\":9107:9278   */\n      pop\n        /* \"#utility.yul\":9366:9370   */\n      0xa0\n        /* \"#utility.yul\":9359:9364   */\n      dup3\n        /* \"#utility.yul\":9355:9371   */\n      add\n        /* \"#utility.yul\":9349:9372   */\n      mload\n        /* \"#utility.yul\":9385:9444   */\n      tag_424\n        /* \"#utility.yul\":9438:9442   */\n      0xa0\n        /* \"#utility.yul\":9433:9436   */\n      dup6\n        /* \"#utility.yul\":9429:9443   */\n      add\n        /* \"#utility.yul\":9415:9427   */\n      dup3\n        /* \"#utility.yul\":9385:9444   */\n      tag_290\n      jump\t// in\n    tag_424:\n        /* \"#utility.yul\":9288:9454   */\n      pop\n        /* \"#utility.yul\":9538:9542   */\n      0xc0\n        /* \"#utility.yul\":9531:9536   */\n      dup3\n        /* \"#utility.yul\":9527:9543   */\n      add\n        /* \"#utility.yul\":9521:9544   */\n      mload\n        /* \"#utility.yul\":9557:9614   */\n      tag_425\n        /* \"#utility.yul\":9608:9612   */\n      0xc0\n        /* \"#utility.yul\":9603:9606   */\n      dup6\n        /* \"#utility.yul\":9599:9613   */\n      add\n        /* \"#utility.yul\":9585:9597   */\n      dup3\n        /* \"#utility.yul\":9557:9614   */\n      tag_291\n      jump\t// in\n    tag_425:\n        /* \"#utility.yul\":9464:9624   */\n      pop\n        /* \"#utility.yul\":9708:9712   */\n      0xe0\n        /* \"#utility.yul\":9701:9706   */\n      dup3\n        /* \"#utility.yul\":9697:9713   */\n      add\n        /* \"#utility.yul\":9691:9714   */\n      mload\n        /* \"#utility.yul\":9727:9784   */\n      tag_426\n        /* \"#utility.yul\":9778:9782   */\n      0xe0\n        /* \"#utility.yul\":9773:9776   */\n      dup6\n        /* \"#utility.yul\":9769:9783   */\n      add\n        /* \"#utility.yul\":9755:9767   */\n      dup3\n        /* \"#utility.yul\":9727:9784   */\n      tag_291\n      jump\t// in\n    tag_426:\n        /* \"#utility.yul\":9634:9794   */\n      pop\n        /* \"#utility.yul\":8345:9801   */\n      pop\n        /* \"#utility.yul\":8237:9801   */\n      pop\n      pop\n      jump\t// out\n        /* \"#utility.yul\":9807:10114   */\n    tag_114:\n        /* \"#utility.yul\":9942:9946   */\n      0x00\n        /* \"#utility.yul\":9980:9983   */\n      0x0100\n        /* \"#utility.yul\":9969:9978   */\n      dup3\n        /* \"#utility.yul\":9965:9984   */\n      add\n        /* \"#utility.yul\":9957:9984   */\n      swap1\n      pop\n        /* \"#utility.yul\":9994:10107   */\n      tag_428\n        /* \"#utility.yul\":10104:10105   */\n      0x00\n        /* \"#utility.yul\":10093:10102   */\n      dup4\n        /* \"#utility.yul\":10089:10106   */\n      add\n        /* \"#utility.yul\":10080:10086   */\n      dup5\n        /* \"#utility.yul\":9994:10107   */\n      tag_292\n      jump\t// in\n    tag_428:\n        /* \"#utility.yul\":9807:10114   */\n      swap3\n      swap2\n      pop\n      pop\n      jump\t// out\n        /* \"#utility.yul\":10120:10289   */\n    tag_293:\n        /* \"#utility.yul\":10204:10215   */\n      0x00\n        /* \"#utility.yul\":10238:10244   */\n      dup3\n        /* \"#utility.yul\":10233:10236   */\n      dup3\n        /* \"#utility.yul\":10226:10245   */\n      mstore\n        /* \"#utility.yul\":10278:10282   */\n      0x20\n        /* \"#utility.yul\":10273:10276   */\n      dup3\n        /* \"#utility.yul\":10269:10283   */\n      add\n        /* \"#utility.yul\":10254:10283   */\n      swap1\n      pop\n        /* \"#utility.yul\":10120:10289   */\n      swap3\n      swap2\n      pop\n      pop\n      jump\t// out\n        /* \"#utility.yul\":10295:10456   */\n    tag_294:\n        /* \"#utility.yul\":10435:10448   */\n      0x4f6e6c79206f776e657221000000000000000000000000000000000000000000\n        /* \"#utility.yul\":10431:10432   */\n      0x00\n        /* \"#utility.yul\":10423:10429   */\n      dup3\n        /* \"#utility.yul\":10419:10433   */\n      add\n        /* \"#utility.yul\":10412:10449   */\n      mstore\n        /* \"#utility.yul\":10295:10456   */\n      pop\n      jump\t// out\n        /* \"#utility.yul\":10462:10828   */\n    tag_295:\n        /* \"#utility.yul\":10604:10607   */\n      0x00\n        /* \"#utility.yul\":10625:10692   */\n      tag_432\n        /* \"#utility.yul\":10689:10691   */\n      0x0b\n        /* \"#utility.yul\":10684:10687   */\n      dup4\n        /* \"#utility.yul\":10625:10692   */\n      tag_293\n      jump\t// in\n    tag_432:\n        /* \"#utility.yul\":10618:10692   */\n      swap2\n      pop\n        /* \"#utility.yul\":10701:10794   */\n      tag_433\n        /* \"#utility.yul\":10790:10793   */\n      dup3\n        /* \"#utility.yul\":10701:10794   */\n      tag_294\n      jump\t// in\n    tag_433:\n        /* \"#utility.yul\":10819:10821   */\n      0x20\n        /* \"#utility.yul\":10814:10817   */\n      dup3\n        /* \"#utility.yul\":10810:10822   */\n      add\n        /* \"#utility.yul\":10803:10822   */\n      swap1\n      pop\n        /* \"#utility.yul\":10462:10828   */\n      swap2\n      swap1\n      pop\n      jump\t// out\n        /* \"#utility.yul\":10834:11253   */\n    tag_121:\n        /* \"#utility.yul\":11000:11004   */\n      0x00\n        /* \"#utility.yul\":11038:11040   */\n      0x20\n        /* \"#utility.yul\":11027:11036   */\n      dup3\n        /* \"#utility.yul\":11023:11041   */\n      add\n        /* \"#utility.yul\":11015:11041   */\n      swap1\n      pop\n        /* \"#utility.yul\":11087:11096   */\n      dup2\n        /* \"#utility.yul\":11081:11085   */\n      dup2\n        /* \"#utility.yul\":11077:11097   */\n      sub\n        /* \"#utility.yul\":11073:11074   */\n      0x00\n        /* \"#utility.yul\":11062:11071   */\n      dup4\n        /* \"#utility.yul\":11058:11075   */\n      add\n        /* \"#utility.yul\":11051:11098   */\n      mstore\n        /* \"#utility.yul\":11115:11246   */\n      tag_435\n        /* \"#utility.yul\":11241:11245   */\n      dup2\n        /* \"#utility.yul\":11115:11246   */\n      tag_295\n      jump\t// in\n    tag_435:\n        /* \"#utility.yul\":11107:11246   */\n      swap1\n      pop\n        /* \"#utility.yul\":10834:11253   */\n      swap2\n      swap1\n      pop\n      jump\t// out\n        /* \"#utility.yul\":11259:11428   */\n    tag_296:\n        /* \"#utility.yul\":11399:11420   */\n      0x4e6f7468696e6720746f20776974686472617700000000000000000000000000\n        /* \"#utility.yul\":11395:11396   */\n      0x00\n        /* \"#utility.yul\":11387:11393   */\n      dup3\n        /* \"#utility.yul\":11383:11397   */\n      add\n        /* \"#utility.yul\":11376:11421   */\n      mstore\n        /* \"#utility.yul\":11259:11428   */\n      pop\n      jump\t// out\n        /* \"#utility.yul\":11434:11800   */\n    tag_297:\n        /* \"#utility.yul\":11576:11579   */\n      0x00\n        /* \"#utility.yul\":11597:11664   */\n      tag_438\n        /* \"#utility.yul\":11661:11663   */\n      0x13\n        /* \"#utility.yul\":11656:11659   */\n      dup4\n        /* \"#utility.yul\":11597:11664   */\n      tag_293\n      jump\t// in\n    tag_438:\n        /* \"#utility.yul\":11590:11664   */\n      swap2\n      pop\n        /* \"#utility.yul\":11673:11766   */\n      tag_439\n        /* \"#utility.yul\":11762:11765   */\n      dup3\n        /* \"#utility.yul\":11673:11766   */\n      tag_296\n      jump\t// in\n    tag_439:\n        /* \"#utility.yul\":11791:11793   */\n      0x20\n        /* \"#utility.yul\":11786:11789   */\n      dup3\n        /* \"#utility.yul\":11782:11794   */\n      add\n        /* \"#utility.yul\":11775:11794   */\n      swap1\n      pop\n        /* \"#utility.yul\":11434:11800   */\n      swap2\n      swap1\n      pop\n      jump\t// out\n        /* \"#utility.yul\":11806:12225   */\n    tag_125:\n        /* \"#utility.yul\":11972:11976   */\n      0x00\n        /* \"#utility.yul\":12010:12012   */\n      0x20\n        /* \"#utility.yul\":11999:12008   */\n      dup3\n        /* \"#utility.yul\":11995:12013   */\n      add\n        /* \"#utility.yul\":11987:12013   */\n      swap1\n      pop\n        /* \"#utility.yul\":12059:12068   */\n      dup2\n        /* \"#utility.yul\":12053:12057   */\n      dup2\n        /* \"#utility.yul\":12049:12069   */\n      sub\n        /* \"#utility.yul\":12045:12046   */\n      0x00\n        /* \"#utility.yul\":12034:12043   */\n      dup4\n        /* \"#utility.yul\":12030:12047   */\n      add\n        /* \"#utility.yul\":12023:12070   */\n      mstore\n        /* \"#utility.yul\":12087:12218   */\n      tag_441\n        /* \"#utility.yul\":12213:12217   */\n      dup2\n        /* \"#utility.yul\":12087:12218   */\n      tag_297\n      jump\t// in\n    tag_441:\n        /* \"#utility.yul\":12079:12218   */\n      swap1\n      pop\n        /* \"#utility.yul\":11806:12225   */\n      swap2\n      swap1\n      pop\n      jump\t// out\n        /* \"#utility.yul\":12231:12378   */\n    tag_298:\n        /* \"#utility.yul\":12332:12343   */\n      0x00\n        /* \"#utility.yul\":12369:12372   */\n      dup2\n        /* \"#utility.yul\":12354:12372   */\n      swap1\n      pop\n        /* \"#utility.yul\":12231:12378   */\n      swap3\n      swap2\n      pop\n      pop\n      jump\t// out\n        /* \"#utility.yul\":12384:12498   */\n    tag_299:\n      pop\n      jump\t// out\n        /* \"#utility.yul\":12504:12902   */\n    tag_300:\n        /* \"#utility.yul\":12663:12666   */\n      0x00\n        /* \"#utility.yul\":12684:12767   */\n      tag_445\n        /* \"#utility.yul\":12765:12766   */\n      0x00\n        /* \"#utility.yul\":12760:12763   */\n      dup4\n        /* \"#utility.yul\":12684:12767   */\n      tag_298\n      jump\t// in\n    tag_445:\n        /* \"#utility.yul\":12677:12767   */\n      swap2\n      pop\n        /* \"#utility.yul\":12776:12869   */\n      tag_446\n        /* \"#utility.yul\":12865:12868   */\n      dup3\n        /* \"#utility.yul\":12776:12869   */\n      tag_299\n      jump\t// in\n    tag_446:\n        /* \"#utility.yul\":12894:12895   */\n      0x00\n        /* \"#utility.yul\":12889:12892   */\n      dup3\n        /* \"#utility.yul\":12885:12896   */\n      add\n        /* \"#utility.yul\":12878:12896   */\n      swap1\n      pop\n        /* \"#utility.yul\":12504:12902   */\n      swap2\n      swap1\n      pop\n      jump\t// out\n        /* \"#utility.yul\":12908:13287   */\n    tag_127:\n        /* \"#utility.yul\":13092:13095   */\n      0x00\n        /* \"#utility.yul\":13114:13261   */\n      tag_448\n        /* \"#utility.yul\":13257:13260   */\n      dup3\n        /* \"#utility.yul\":13114:13261   */\n      tag_300\n      jump\t// in\n    tag_448:\n        /* \"#utility.yul\":13107:13261   */\n      swap2\n      pop\n        /* \"#utility.yul\":13278:13281   */\n      dup2\n        /* \"#utility.yul\":13271:13281   */\n      swap1\n      pop\n        /* \"#utility.yul\":12908:13287   */\n      swap2\n      swap1\n      pop\n      jump\t// out\n        /* \"#utility.yul\":13293:13458   */\n    tag_301:\n        /* \"#utility.yul\":13433:13450   */\n      0x4661696c6564207472616e736665720000000000000000000000000000000000\n        /* \"#utility.yul\":13429:13430   */\n      0x00\n        /* \"#utility.yul\":13421:13427   */\n      dup3\n        /* \"#utility.yul\":13417:13431   */\n      add\n        /* \"#utility.yul\":13410:13451   */\n      mstore\n        /* \"#utility.yul\":13293:13458   */\n      pop\n      jump\t// out\n        /* \"#utility.yul\":13464:13830   */\n    tag_302:\n        /* \"#utility.yul\":13606:13609   */\n      0x00\n        /* \"#utility.yul\":13627:13694   */\n      tag_451\n        /* \"#utility.yul\":13691:13693   */\n      0x0f\n        /* \"#utility.yul\":13686:13689   */\n      dup4\n        /* \"#utility.yul\":13627:13694   */\n      tag_293\n      jump\t// in\n    tag_451:\n        /* \"#utility.yul\":13620:13694   */\n      swap2\n      pop\n        /* \"#utility.yul\":13703:13796   */\n      tag_452\n        /* \"#utility.yul\":13792:13795   */\n      dup3\n        /* \"#utility.yul\":13703:13796   */\n      tag_301\n      jump\t// in\n    tag_452:\n        /* \"#utility.yul\":13821:13823   */\n      0x20\n        /* \"#utility.yul\":13816:13819   */\n      dup3\n        /* \"#utility.yul\":13812:13824   */\n      add\n        /* \"#utility.yul\":13805:13824   */\n      swap1\n      pop\n        /* \"#utility.yul\":13464:13830   */\n      swap2\n      swap1\n      pop\n      jump\t// out\n        /* \"#utility.yul\":13836:14255   */\n    tag_133:\n        /* \"#utility.yul\":14002:14006   */\n      0x00\n        /* \"#utility.yul\":14040:14042   */\n      0x20\n        /* \"#utility.yul\":14029:14038   */\n      dup3\n        /* \"#utility.yul\":14025:14043   */\n      add\n        /* \"#utility.yul\":14017:14043   */\n      swap1\n      pop\n        /* \"#utility.yul\":14089:14098   */\n      dup2\n        /* \"#utility.yul\":14083:14087   */\n      dup2\n        /* \"#utility.yul\":14079:14099   */\n      sub\n        /* \"#utility.yul\":14075:14076   */\n      0x00\n        /* \"#utility.yul\":14064:14073   */\n      dup4\n        /* \"#utility.yul\":14060:14077   */\n      add\n        /* \"#utility.yul\":14053:14100   */\n      mstore\n        /* \"#utility.yul\":14117:14248   */\n      tag_454\n        /* \"#utility.yul\":14243:14247   */\n      dup2\n        /* \"#utility.yul\":14117:14248   */\n      tag_302\n      jump\t// in\n    tag_454:\n        /* \"#utility.yul\":14109:14248   */\n      swap1\n      pop\n        /* \"#utility.yul\":13836:14255   */\n      swap2\n      swap1\n      pop\n      jump\t// out\n        /* \"#utility.yul\":14261:14433   */\n    tag_303:\n        /* \"#utility.yul\":14401:14425   */\n      0x596f7520617265206e6f7420746865206f776e65722100000000000000000000\n        /* \"#utility.yul\":14397:14398   */\n      0x00\n        /* \"#utility.yul\":14389:14395   */\n      dup3\n        /* \"#utility.yul\":14385:14399   */\n      add\n        /* \"#utility.yul\":14378:14426   */\n      mstore\n        /* \"#utility.yul\":14261:14433   */\n      pop\n      jump\t// out\n        /* \"#utility.yul\":14439:14805   */\n    tag_304:\n        /* \"#utility.yul\":14581:14584   */\n      0x00\n        /* \"#utility.yul\":14602:14669   */\n      tag_457\n        /* \"#utility.yul\":14666:14668   */\n      0x16\n        /* \"#utility.yul\":14661:14664   */\n      dup4\n        /* \"#utility.yul\":14602:14669   */\n      tag_293\n      jump\t// in\n    tag_457:\n        /* \"#utility.yul\":14595:14669   */\n      swap2\n      pop\n        /* \"#utility.yul\":14678:14771   */\n      tag_458\n        /* \"#utility.yul\":14767:14770   */\n      dup3\n        /* \"#utility.yul\":14678:14771   */\n      tag_303\n      jump\t// in\n    tag_458:\n        /* \"#utility.yul\":14796:14798   */\n      0x20\n        /* \"#utility.yul\":14791:14794   */\n      dup3\n        /* \"#utility.yul\":14787:14799   */\n      add\n        /* \"#utility.yul\":14780:14799   */\n      swap1\n      pop\n        /* \"#utility.yul\":14439:14805   */\n      swap2\n      swap1\n      pop\n      jump\t// out\n        /* \"#utility.yul\":14811:15230   */\n    tag_137:\n        /* \"#utility.yul\":14977:14981   */\n      0x00\n        /* \"#utility.yul\":15015:15017   */\n      0x20\n        /* \"#utility.yul\":15004:15013   */\n      dup3\n        /* \"#utility.yul\":15000:15018   */\n      add\n        /* \"#utility.yul\":14992:15018   */\n      swap1\n      pop\n        /* \"#utility.yul\":15064:15073   */\n      dup2\n        /* \"#utility.yul\":15058:15062   */\n      dup2\n        /* \"#utility.yul\":15054:15074   */\n      sub\n        /* \"#utility.yul\":15050:15051   */\n      0x00\n        /* \"#utility.yul\":15039:15048   */\n      dup4\n        /* \"#utility.yul\":15035:15052   */\n      add\n        /* \"#utility.yul\":15028:15075   */\n      mstore\n        /* \"#utility.yul\":15092:15223   */\n      tag_460\n        /* \"#utility.yul\":15218:15222   */\n      dup2\n        /* \"#utility.yul\":15092:15223   */\n      tag_304\n      jump\t// in\n    tag_460:\n        /* \"#utility.yul\":15084:15223   */\n      swap1\n      pop\n        /* \"#utility.yul\":14811:15230   */\n      swap2\n      swap1\n      pop\n      jump\t// out\n        /* \"#utility.yul\":15236:15407   */\n    tag_305:\n        /* \"#utility.yul\":15376:15399   */\n      0x496e73756666696369656e742062616c616e6365210000000000000000000000\n        /* \"#utility.yul\":15372:15373   */\n      0x00\n        /* \"#utility.yul\":15364:15370   */\n      dup3\n        /* \"#utility.yul\":15360:15374   */\n      add\n        /* \"#utility.yul\":15353:15400   */\n      mstore\n        /* \"#utility.yul\":15236:15407   */\n      pop\n      jump\t// out\n        /* \"#utility.yul\":15413:15779   */\n    tag_306:\n        /* \"#utility.yul\":15555:15558   */\n      0x00\n        /* \"#utility.yul\":15576:15643   */\n      tag_463\n        /* \"#utility.yul\":15640:15642   */\n      0x15\n        /* \"#utility.yul\":15635:15638   */\n      dup4\n        /* \"#utility.yul\":15576:15643   */\n      tag_293\n      jump\t// in\n    tag_463:\n        /* \"#utility.yul\":15569:15643   */\n      swap2\n      pop\n        /* \"#utility.yul\":15652:15745   */\n      tag_464\n        /* \"#utility.yul\":15741:15744   */\n      dup3\n        /* \"#utility.yul\":15652:15745   */\n      tag_305\n      jump\t// in\n    tag_464:\n        /* \"#utility.yul\":15770:15772   */\n      0x20\n        /* \"#utility.yul\":15765:15768   */\n      dup3\n        /* \"#utility.yul\":15761:15773   */\n      add\n        /* \"#utility.yul\":15754:15773   */\n      swap1\n      pop\n        /* \"#utility.yul\":15413:15779   */\n      swap2\n      swap1\n      pop\n      jump\t// out\n        /* \"#utility.yul\":15785:16204   */\n    tag_142:\n        /* \"#utility.yul\":15951:15955   */\n      0x00\n        /* \"#utility.yul\":15989:15991   */\n      0x20\n        /* \"#utility.yul\":15978:15987   */\n      dup3\n        /* \"#utility.yul\":15974:15992   */\n      add\n        /* \"#utility.yul\":15966:15992   */\n      swap1\n      pop\n        /* \"#utility.yul\":16038:16047   */\n      dup2\n        /* \"#utility.yul\":16032:16036   */\n      dup2\n        /* \"#utility.yul\":16028:16048   */\n      sub\n        /* \"#utility.yul\":16024:16025   */\n      0x00\n        /* \"#utility.yul\":16013:16022   */\n      dup4\n        /* \"#utility.yul\":16009:16026   */\n      add\n        /* \"#utility.yul\":16002:16049   */\n      mstore\n        /* \"#utility.yul\":16066:16197   */\n      tag_466\n        /* \"#utility.yul\":16192:16196   */\n      dup2\n        /* \"#utility.yul\":16066:16197   */\n      tag_306\n      jump\t// in\n    tag_466:\n        /* \"#utility.yul\":16058:16197   */\n      swap1\n      pop\n        /* \"#utility.yul\":15785:16204   */\n      swap2\n      swap1\n      pop\n      jump\t// out\n        /* \"#utility.yul\":16210:16390   */\n    tag_307:\n        /* \"#utility.yul\":16258:16335   */\n      0x4e487b7100000000000000000000000000000000000000000000000000000000\n        /* \"#utility.yul\":16255:16256   */\n      0x00\n        /* \"#utility.yul\":16248:16336   */\n      mstore\n        /* \"#utility.yul\":16355:16359   */\n      0x11\n        /* \"#utility.yul\":16352:16353   */\n      0x04\n        /* \"#utility.yul\":16345:16360   */\n      mstore\n        /* \"#utility.yul\":16379:16383   */\n      0x24\n        /* \"#utility.yul\":16376:16377   */\n      0x00\n        /* \"#utility.yul\":16369:16384   */\n      revert\n        /* \"#utility.yul\":16396:16629   */\n    tag_148:\n        /* \"#utility.yul\":16435:16438   */\n      0x00\n        /* \"#utility.yul\":16458:16482   */\n      tag_469\n        /* \"#utility.yul\":16476:16481   */\n      dup3\n        /* \"#utility.yul\":16458:16482   */\n      tag_271\n      jump\t// in\n    tag_469:\n        /* \"#utility.yul\":16449:16482   */\n      swap2\n      pop\n        /* \"#utility.yul\":16504:16570   */\n      0xffffffffffffffffffffffffffffffffffffffffffffffffffffffffffffffff\n        /* \"#utility.yul\":16497:16502   */\n      dup3\n        /* \"#utility.yul\":16494:16571   */\n      sub\n        /* \"#utility.yul\":16491:16594   */\n      tag_470\n      jumpi\n        /* \"#utility.yul\":16574:16592   */\n      tag_471\n      tag_307\n      jump\t// in\n    tag_471:\n        /* \"#utility.yul\":16491:16594   */\n    tag_470:\n        /* \"#utility.yul\":16621:16622   */\n      0x01\n        /* \"#utility.yul\":16614:16619   */\n      dup3\n        /* \"#utility.yul\":16610:16623   */\n      add\n        /* \"#utility.yul\":16603:16623   */\n      swap1\n      pop\n        /* \"#utility.yul\":16396:16629   */\n      swap2\n      swap1\n      pop\n      jump\t// out\n        /* \"#utility.yul\":16635:16829   */\n    tag_160:\n        /* \"#utility.yul\":16675:16679   */\n      0x00\n        /* \"#utility.yul\":16695:16715   */\n      tag_473\n        /* \"#utility.yul\":16713:16714   */\n      dup3\n        /* \"#utility.yul\":16695:16715   */\n      tag_271\n      jump\t// in\n    tag_473:\n        /* \"#utility.yul\":16690:16715   */\n      swap2\n      pop\n        /* \"#utility.yul\":16729:16749   */\n      tag_474\n        /* \"#utility.yul\":16747:16748   */\n      dup4\n        /* \"#utility.yul\":16729:16749   */\n      tag_271\n      jump\t// in\n    tag_474:\n        /* \"#utility.yul\":16724:16749   */\n      swap3\n      pop\n        /* \"#utility.yul\":16773:16774   */\n      dup3\n        /* \"#utility.yul\":16770:16771   */\n      dup3\n        /* \"#utility.yul\":16766:16775   */\n      sub\n        /* \"#utility.yul\":16758:16775   */\n      swap1\n      pop\n        /* \"#utility.yul\":16797:16798   */\n      dup2\n        /* \"#utility.yul\":16791:16795   */\n      dup2\n        /* \"#utility.yul\":16788:16799   */\n      gt\n        /* \"#utility.yul\":16785:16822   */\n      iszero\n      tag_475\n      jumpi\n        /* \"#utility.yul\":16802:16820   */\n      tag_476\n      tag_307\n      jump\t// in\n    tag_476:\n        /* \"#utility.yul\":16785:16822   */\n    tag_475:\n        /* \"#utility.yul\":16635:16829   */\n      swap3\n      swap2\n      pop\n      pop\n      jump\t// out\n        /* \"#utility.yul\":16835:17015   */\n    tag_308:\n        /* \"#utility.yul\":16883:16960   */\n      0x4e487b7100000000000000000000000000000000000000000000000000000000\n        /* \"#utility.yul\":16880:16881   */\n      0x00\n        /* \"#utility.yul\":16873:16961   */\n      mstore\n        /* \"#utility.yul\":16980:16984   */\n      0x12\n        /* \"#utility.yul\":16977:16978   */\n      0x04\n        /* \"#utility.yul\":16970:16985   */\n      mstore\n        /* \"#utility.yul\":17004:17008   */\n      0x24\n        /* \"#utility.yul\":17001:17002   */\n      0x00\n        /* \"#utility.yul\":16994:17009   */\n      revert\n        /* \"#utility.yul\":17021:17206   */\n    tag_162:\n        /* \"#utility.yul\":17061:17062   */\n      0x00\n        /* \"#utility.yul\":17078:17098   */\n      tag_479\n        /* \"#utility.yul\":17096:17097   */\n      dup3\n        /* \"#utility.yul\":17078:17098   */\n      tag_271\n      jump\t// in\n    tag_479:\n        /* \"#utility.yul\":17073:17098   */\n      swap2\n      pop\n        /* \"#utility.yul\":17112:17132   */\n      tag_480\n        /* \"#utility.yul\":17130:17131   */\n      dup4\n        /* \"#utility.yul\":17112:17132   */\n      tag_271\n      jump\t// in\n    tag_480:\n        /* \"#utility.yul\":17107:17132   */\n      swap3\n      pop\n        /* \"#utility.yul\":17151:17152   */\n      dup3\n        /* \"#utility.yul\":17141:17176   */\n      tag_481\n      jumpi\n        /* \"#utility.yul\":17156:17174   */\n      tag_482\n      tag_308\n      jump\t// in\n    tag_482:\n        /* \"#utility.yul\":17141:17176   */\n    tag_481:\n        /* \"#utility.yul\":17198:17199   */\n      dup3\n        /* \"#utility.yul\":17195:17196   */\n      dup3\n        /* \"#utility.yul\":17191:17200   */\n      div\n        /* \"#utility.yul\":17186:17200   */\n      swap1\n      pop\n        /* \"#utility.yul\":17021:17206   */\n      swap3\n      swap2\n      pop\n      pop\n      jump\t// out\n        /* \"#utility.yul\":17212:17622   */\n    tag_164:\n        /* \"#utility.yul\":17252:17259   */\n      0x00\n        /* \"#utility.yul\":17275:17295   */\n      tag_484\n        /* \"#utility.yul\":17293:17294   */\n      dup3\n        /* \"#utility.yul\":17275:17295   */\n      tag_271\n      jump\t// in\n    tag_484:\n        /* \"#utility.yul\":17270:17295   */\n      swap2\n      pop\n        /* \"#utility.yul\":17309:17329   */\n      tag_485\n        /* \"#utility.yul\":17327:17328   */\n      dup4\n        /* \"#utility.yul\":17309:17329   */\n      tag_271\n      jump\t// in\n    tag_485:\n        /* \"#utility.yul\":17304:17329   */\n      swap3\n      pop\n        /* \"#utility.yul\":17364:17365   */\n      dup3\n        /* \"#utility.yul\":17361:17362   */\n      dup3\n        /* \"#utility.yul\":17357:17366   */\n      mul\n        /* \"#utility.yul\":17386:17416   */\n      tag_486\n        /* \"#utility.yul\":17404:17415   */\n      dup2\n        /* \"#utility.yul\":17386:17416   */\n      tag_271\n      jump\t// in\n    tag_486:\n        /* \"#utility.yul\":17375:17416   */\n      swap2\n      pop\n        /* \"#utility.yul\":17565:17566   */\n      dup3\n        /* \"#utility.yul\":17556:17563   */\n      dup3\n        /* \"#utility.yul\":17552:17567   */\n      div\n        /* \"#utility.yul\":17549:17550   */\n      dup5\n        /* \"#utility.yul\":17546:17568   */\n      eq\n        /* \"#utility.yul\":17526:17527   */\n      dup4\n        /* \"#utility.yul\":17519:17528   */\n      iszero\n        /* \"#utility.yul\":17499:17582   */\n      or\n        /* \"#utility.yul\":17476:17615   */\n      tag_487\n      jumpi\n        /* \"#utility.yul\":17595:17613   */\n      tag_488\n      tag_307\n      jump\t// in\n    tag_488:\n        /* \"#utility.yul\":17476:17615   */\n    tag_487:\n        /* \"#utility.yul\":17260:17622   */\n      pop\n        /* \"#utility.yul\":17212:17622   */\n      swap3\n      swap2\n      pop\n      pop\n      jump\t// out\n        /* \"#utility.yul\":17628:17798   */\n    tag_309:\n        /* \"#utility.yul\":17768:17790   */\n      0x506c616e7420646f65736e277420657869737421000000000000000000000000\n        /* \"#utility.yul\":17764:17765   */\n      0x00\n        /* \"#utility.yul\":17756:17762   */\n      dup3\n        /* \"#utility.yul\":17752:17766   */\n      add\n        /* \"#utility.yul\":17745:17791   */\n      mstore\n        /* \"#utility.yul\":17628:17798   */\n      pop\n      jump\t// out\n        /* \"#utility.yul\":17804:18170   */\n    tag_310:\n        /* \"#utility.yul\":17946:17949   */\n      0x00\n        /* \"#utility.yul\":17967:18034   */\n      tag_491\n        /* \"#utility.yul\":18031:18033   */\n      0x14\n        /* \"#utility.yul\":18026:18029   */\n      dup4\n        /* \"#utility.yul\":17967:18034   */\n      tag_293\n      jump\t// in\n    tag_491:\n        /* \"#utility.yul\":17960:18034   */\n      swap2\n      pop\n        /* \"#utility.yul\":18043:18136   */\n      tag_492\n        /* \"#utility.yul\":18132:18135   */\n      dup3\n        /* \"#utility.yul\":18043:18136   */\n      tag_309\n      jump\t// in\n    tag_492:\n        /* \"#utility.yul\":18161:18163   */\n      0x20\n        /* \"#utility.yul\":18156:18159   */\n      dup3\n        /* \"#utility.yul\":18152:18164   */\n      add\n        /* \"#utility.yul\":18145:18164   */\n      swap1\n      pop\n        /* \"#utility.yul\":17804:18170   */\n      swap2\n      swap1\n      pop\n      jump\t// out\n        /* \"#utility.yul\":18176:18595   */\n    tag_172:\n        /* \"#utility.yul\":18342:18346   */\n      0x00\n        /* \"#utility.yul\":18380:18382   */\n      0x20\n        /* \"#utility.yul\":18369:18378   */\n      dup3\n        /* \"#utility.yul\":18365:18383   */\n      add\n        /* \"#utility.yul\":18357:18383   */\n      swap1\n      pop\n        /* \"#utility.yul\":18429:18438   */\n      dup2\n        /* \"#utility.yul\":18423:18427   */\n      dup2\n        /* \"#utility.yul\":18419:18439   */\n      sub\n        /* \"#utility.yul\":18415:18416   */\n      0x00\n        /* \"#utility.yul\":18404:18413   */\n      dup4\n        /* \"#utility.yul\":18400:18417   */\n      add\n        /* \"#utility.yul\":18393:18440   */\n      mstore\n        /* \"#utility.yul\":18457:18588   */\n      tag_494\n        /* \"#utility.yul\":18583:18587   */\n      dup2\n        /* \"#utility.yul\":18457:18588   */\n      tag_310\n      jump\t// in\n    tag_494:\n        /* \"#utility.yul\":18449:18588   */\n      swap1\n      pop\n        /* \"#utility.yul\":18176:18595   */\n      swap2\n      swap1\n      pop\n      jump\t// out\n        /* \"#utility.yul\":18601:18770   */\n    tag_311:\n        /* \"#utility.yul\":18741:18762   */\n      0x506c616e7420616c726561647920646561642100000000000000000000000000\n        /* \"#utility.yul\":18737:18738   */\n      0x00\n        /* \"#utility.yul\":18729:18735   */\n      dup3\n        /* \"#utility.yul\":18725:18739   */\n      add\n        /* \"#utility.yul\":18718:18763   */\n      mstore\n        /* \"#utility.yul\":18601:18770   */\n      pop\n      jump\t// out\n        /* \"#utility.yul\":18776:19142   */\n    tag_312:\n        /* \"#utility.yul\":18918:18921   */\n      0x00\n        /* \"#utility.yul\":18939:19006   */\n      tag_497\n        /* \"#utility.yul\":19003:19005   */\n      0x13\n        /* \"#utility.yul\":18998:19001   */\n      dup4\n        /* \"#utility.yul\":18939:19006   */\n      tag_293\n      jump\t// in\n    tag_497:\n        /* \"#utility.yul\":18932:19006   */\n      swap2\n      pop\n        /* \"#utility.yul\":19015:19108   */\n      tag_498\n        /* \"#utility.yul\":19104:19107   */\n      dup3\n        /* \"#utility.yul\":19015:19108   */\n      tag_311\n      jump\t// in\n    tag_498:\n        /* \"#utility.yul\":19133:19135   */\n      0x20\n        /* \"#utility.yul\":19128:19131   */\n      dup3\n        /* \"#utility.yul\":19124:19136   */\n      add\n        /* \"#utility.yul\":19117:19136   */\n      swap1\n      pop\n        /* \"#utility.yul\":18776:19142   */\n      swap2\n      swap1\n      pop\n      jump\t// out\n        /* \"#utility.yul\":19148:19567   */\n    tag_176:\n        /* \"#utility.yul\":19314:19318   */\n      0x00\n        /* \"#utility.yul\":19352:19354   */\n      0x20\n        /* \"#utility.yul\":19341:19350   */\n      dup3\n        /* \"#utility.yul\":19337:19355   */\n      add\n        /* \"#utility.yul\":19329:19355   */\n      swap1\n      pop\n        /* \"#utility.yul\":19401:19410   */\n      dup2\n        /* \"#utility.yul\":19395:19399   */\n      dup2\n        /* \"#utility.yul\":19391:19411   */\n      sub\n        /* \"#utility.yul\":19387:19388   */\n      0x00\n        /* \"#utility.yul\":19376:19385   */\n      dup4\n        /* \"#utility.yul\":19372:19389   */\n      add\n        /* \"#utility.yul\":19365:19412   */\n      mstore\n        /* \"#utility.yul\":19429:19560   */\n      tag_500\n        /* \"#utility.yul\":19555:19559   */\n      dup2\n        /* \"#utility.yul\":19429:19560   */\n      tag_312\n      jump\t// in\n    tag_500:\n        /* \"#utility.yul\":19421:19560   */\n      swap1\n      pop\n        /* \"#utility.yul\":19148:19567   */\n      swap2\n      swap1\n      pop\n      jump\t// out\n        /* \"#utility.yul\":19573:19660   */\n    tag_313:\n        /* \"#utility.yul\":19620:19627   */\n      0x00\n        /* \"#utility.yul\":19649:19654   */\n      dup2\n        /* \"#utility.yul\":19638:19654   */\n      swap1\n      pop\n        /* \"#utility.yul\":19573:19660   */\n      swap2\n      swap1\n      pop\n      jump\t// out\n        /* \"#utility.yul\":19666:19726   */\n    tag_314:\n        /* \"#utility.yul\":19694:19697   */\n      0x00\n        /* \"#utility.yul\":19715:19720   */\n      dup2\n        /* \"#utility.yul\":19708:19720   */\n      swap1\n      pop\n        /* \"#utility.yul\":19666:19726   */\n      swap2\n      swap1\n      pop\n      jump\t// out\n        /* \"#utility.yul\":19732:19890   */\n    tag_315:\n        /* \"#utility.yul\":19790:19799   */\n      0x00\n        /* \"#utility.yul\":19823:19884   */\n      tag_504\n        /* \"#utility.yul\":19839:19883   */\n      tag_505\n        /* \"#utility.yul\":19848:19882   */\n      tag_506\n        /* \"#utility.yul\":19876:19881   */\n      dup5\n        /* \"#utility.yul\":19848:19882   */\n      tag_313\n      jump\t// in\n    tag_506:\n        /* \"#utility.yul\":19839:19883   */\n      tag_314\n      jump\t// in\n    tag_505:\n        /* \"#utility.yul\":19823:19884   */\n      tag_283\n      jump\t// in\n    tag_504:\n        /* \"#utility.yul\":19810:19884   */\n      swap1\n      pop\n        /* \"#utility.yul\":19732:19890   */\n      swap2\n      swap1\n      pop\n      jump\t// out\n        /* \"#utility.yul\":19896:20043   */\n    tag_316:\n        /* \"#utility.yul\":19991:20036   */\n      tag_508\n        /* \"#utility.yul\":20030:20035   */\n      dup2\n        /* \"#utility.yul\":19991:20036   */\n      tag_315\n      jump\t// in\n    tag_508:\n        /* \"#utility.yul\":19986:19989   */\n      dup3\n        /* \"#utility.yul\":19979:20037   */\n      mstore\n        /* \"#utility.yul\":19896:20043   */\n      pop\n      pop\n      jump\t// out\n        /* \"#utility.yul\":20049:20287   */\n    tag_182:\n        /* \"#utility.yul\":20150:20154   */\n      0x00\n        /* \"#utility.yul\":20188:20190   */\n      0x20\n        /* \"#utility.yul\":20177:20186   */\n      dup3\n        /* \"#utility.yul\":20173:20191   */\n      add\n        /* \"#utility.yul\":20165:20191   */\n      swap1\n      pop\n        /* \"#utility.yul\":20201:20280   */\n      tag_510\n        /* \"#utility.yul\":20277:20278   */\n      0x00\n        /* \"#utility.yul\":20266:20275   */\n      dup4\n        /* \"#utility.yul\":20262:20279   */\n      add\n        /* \"#utility.yul\":20253:20259   */\n      dup5\n        /* \"#utility.yul\":20201:20280   */\n      tag_316\n      jump\t// in\n    tag_510:\n        /* \"#utility.yul\":20049:20287   */\n      swap3\n      swap2\n      pop\n      pop\n      jump\t// out\n        /* \"#utility.yul\":20293:20466   */\n    tag_317:\n        /* \"#utility.yul\":20433:20458   */\n      0x506c616e74206e6f7420626c6f6f6d696e672079657421000000000000000000\n        /* \"#utility.yul\":20429:20430   */\n      0x00\n        /* \"#utility.yul\":20421:20427   */\n      dup3\n        /* \"#utility.yul\":20417:20431   */\n      add\n        /* \"#utility.yul\":20410:20459   */\n      mstore\n        /* \"#utility.yul\":20293:20466   */\n      pop\n      jump\t// out\n        /* \"#utility.yul\":20472:20838   */\n    tag_318:\n        /* \"#utility.yul\":20614:20617   */\n      0x00\n        /* \"#utility.yul\":20635:20702   */\n      tag_513\n        /* \"#utility.yul\":20699:20701   */\n      0x17\n        /* \"#utility.yul\":20694:20697   */\n      dup4\n        /* \"#utility.yul\":20635:20702   */\n      tag_293\n      jump\t// in\n    tag_513:\n        /* \"#utility.yul\":20628:20702   */\n      swap2\n      pop\n        /* \"#utility.yul\":20711:20804   */\n      tag_514\n        /* \"#utility.yul\":20800:20803   */\n      dup3\n        /* \"#utility.yul\":20711:20804   */\n      tag_317\n      jump\t// in\n    tag_514:\n        /* \"#utility.yul\":20829:20831   */\n      0x20\n        /* \"#utility.yul\":20824:20827   */\n      dup3\n        /* \"#utility.yul\":20820:20832   */\n      add\n        /* \"#utility.yul\":20813:20832   */\n      swap1\n      pop\n        /* \"#utility.yul\":20472:20838   */\n      swap2\n      swap1\n      pop\n      jump\t// out\n        /* \"#utility.yul\":20844:21263   */\n    tag_235:\n        /* \"#utility.yul\":21010:21014   */\n      0x00\n        /* \"#utility.yul\":21048:21050   */\n      0x20\n        /* \"#utility.yul\":21037:21046   */\n      dup3\n        /* \"#utility.yul\":21033:21051   */\n      add\n        /* \"#utility.yul\":21025:21051   */\n      swap1\n      pop\n        /* \"#utility.yul\":21097:21106   */\n      dup2\n        /* \"#utility.yul\":21091:21095   */\n      dup2\n        /* \"#utility.yul\":21087:21107   */\n      sub\n        /* \"#utility.yul\":21083:21084   */\n      0x00\n        /* \"#utility.yul\":21072:21081   */\n      dup4\n        /* \"#utility.yul\":21068:21085   */\n      add\n        /* \"#utility.yul\":21061:21108   */\n      mstore\n        /* \"#utility.yul\":21125:21256   */\n      tag_516\n        /* \"#utility.yul\":21251:21255   */\n      dup2\n        /* \"#utility.yul\":21125:21256   */\n      tag_318\n      jump\t// in\n    tag_516:\n        /* \"#utility.yul\":21117:21256   */\n      swap1\n      pop\n        /* \"#utility.yul\":20844:21263   */\n      swap2\n      swap1\n      pop\n      jump\t// out\n        /* \"#utility.yul\":21269:21449   */\n    tag_319:\n        /* \"#utility.yul\":21409:21441   */\n      0x496e73756666696369656e7420636f6e74726163742062616c616e6365210000\n        /* \"#utility.yul\":21405:21406   */\n      0x00\n        /* \"#utility.yul\":21397:21403   */\n      dup3\n        /* \"#utility.yul\":21393:21407   */\n      add\n        /* \"#utility.yul\":21386:21442   */\n      mstore\n        /* \"#utility.yul\":21269:21449   */\n      pop\n      jump\t// out\n        /* \"#utility.yul\":21455:21821   */\n    tag_320:\n        /* \"#utility.yul\":21597:21600   */\n      0x00\n        /* \"#utility.yul\":21618:21685   */\n      tag_519\n        /* \"#utility.yul\":21682:21684   */\n      0x1e\n        /* \"#utility.yul\":21677:21680   */\n      dup4\n        /* \"#utility.yul\":21618:21685   */\n      tag_293\n      jump\t// in\n    tag_519:\n        /* \"#utility.yul\":21611:21685   */\n      swap2\n      pop\n        /* \"#utility.yul\":21694:21787   */\n      tag_520\n        /* \"#utility.yul\":21783:21786   */\n      dup3\n        /* \"#utility.yul\":21694:21787   */\n      tag_319\n      jump\t// in\n    tag_520:\n        /* \"#utility.yul\":21812:21814   */\n      0x20\n        /* \"#utility.yul\":21807:21810   */\n      dup3\n        /* \"#utility.yul\":21803:21815   */\n      add\n        /* \"#utility.yul\":21796:21815   */\n      swap1\n      pop\n        /* \"#utility.yul\":21455:21821   */\n      swap2\n      swap1\n      pop\n      jump\t// out\n        /* \"#utility.yul\":21827:22246   */\n    tag_239:\n        /* \"#utility.yul\":21993:21997   */\n      0x00\n        /* \"#utility.yul\":22031:22033   */\n      0x20\n        /* \"#utility.yul\":22020:22029   */\n      dup3\n        /* \"#utility.yul\":22016:22034   */\n      add\n        /* \"#utility.yul\":22008:22034   */\n      swap1\n      pop\n        /* \"#utility.yul\":22080:22089   */\n      dup2\n        /* \"#utility.yul\":22074:22078   */\n      dup2\n        /* \"#utility.yul\":22070:22090   */\n      sub\n        /* \"#utility.yul\":22066:22067   */\n      0x00\n        /* \"#utility.yul\":22055:22064   */\n      dup4\n        /* \"#utility.yul\":22051:22068   */\n      add\n        /* \"#utility.yul\":22044:22091   */\n      mstore\n        /* \"#utility.yul\":22108:22239   */\n      tag_522\n        /* \"#utility.yul\":22234:22238   */\n      dup2\n        /* \"#utility.yul\":22108:22239   */\n      tag_320\n      jump\t// in\n    tag_522:\n        /* \"#utility.yul\":22100:22239   */\n      swap1\n      pop\n        /* \"#utility.yul\":21827:22246   */\n      swap2\n      swap1\n      pop\n      jump\t// out\n        /* \"#utility.yul\":22252:22424   */\n    tag_321:\n        /* \"#utility.yul\":22392:22416   */\n      0x4661696c65642073656e64696e67207265776172642100000000000000000000\n        /* \"#utility.yul\":22388:22389   */\n      0x00\n        /* \"#utility.yul\":22380:22386   */\n      dup3\n        /* \"#utility.yul\":22376:22390   */\n      add\n        /* \"#utility.yul\":22369:22417   */\n      mstore\n        /* \"#utility.yul\":22252:22424   */\n      pop\n      jump\t// out\n        /* \"#utility.yul\":22430:22796   */\n    tag_322:\n        /* \"#utility.yul\":22572:22575   */\n      0x00\n        /* \"#utility.yul\":22593:22660   */\n      tag_525\n        /* \"#utility.yul\":22657:22659   */\n      0x16\n        /* \"#utility.yul\":22652:22655   */\n      dup4\n        /* \"#utility.yul\":22593:22660   */\n      tag_293\n      jump\t// in\n    tag_525:\n        /* \"#utility.yul\":22586:22660   */\n      swap2\n      pop\n        /* \"#utility.yul\":22669:22762   */\n      tag_526\n        /* \"#utility.yul\":22758:22761   */\n      dup3\n        /* \"#utility.yul\":22669:22762   */\n      tag_321\n      jump\t// in\n    tag_526:\n        /* \"#utility.yul\":22787:22789   */\n      0x20\n        /* \"#utility.yul\":22782:22785   */\n      dup3\n        /* \"#utility.yul\":22778:22790   */\n      add\n        /* \"#utility.yul\":22771:22790   */\n      swap1\n      pop\n        /* \"#utility.yul\":22430:22796   */\n      swap2\n      swap1\n      pop\n      jump\t// out\n        /* \"#utility.yul\":22802:23221   */\n    tag_246:\n        /* \"#utility.yul\":22968:22972   */\n      0x00\n        /* \"#utility.yul\":23006:23008   */\n      0x20\n        /* \"#utility.yul\":22995:23004   */\n      dup3\n        /* \"#utility.yul\":22991:23009   */\n      add\n        /* \"#utility.yul\":22983:23009   */\n      swap1\n      pop\n        /* \"#utility.yul\":23055:23064   */\n      dup2\n        /* \"#utility.yul\":23049:23053   */\n      dup2\n        /* \"#utility.yul\":23045:23065   */\n      sub\n        /* \"#utility.yul\":23041:23042   */\n      0x00\n        /* \"#utility.yul\":23030:23039   */\n      dup4\n        /* \"#utility.yul\":23026:23043   */\n      add\n        /* \"#utility.yul\":23019:23066   */\n      mstore\n        /* \"#utility.yul\":23083:23214   */\n      tag_528\n        /* \"#utility.yul\":23209:23213   */\n      dup2\n        /* \"#utility.yul\":23083:23214   */\n      tag_322\n      jump\t// in\n    tag_528:\n        /* \"#utility.yul\":23075:23214   */\n      swap1\n      pop\n        /* \"#utility.yul\":22802:23221   */\n      swap2\n      swap1\n      pop\n      jump\t// out\n\n    auxdata: 0xa26469706673582212203c5530e1f51a1b3b0b18ea2797c90a7e59a189b144a94740f61b8b3766f516b964736f6c634300081e0033\n}\n",
				"bytecode": {
					"linkReferences": {},
					"object": "6080604052348015600e575f5ffd5b503360035f6101000a81548173ffffffffffffffffffffffffffffffffffffffff021916908373ffffffffffffffffffffffffffffffffffffffff1602179055506122078061005c5f395ff3fe608060405260043610610117575f3560e01c80638dd2361c1161009f578063cfc9a5f811610063578063cfc9a5f8146103ad578063d0e30db0146103d7578063ddd42596146103e1578063e38f844814610409578063ed0b1f5f146104315761011e565b80638dd2361c146102c45780639886bcfa146103075780639c4717491461032f578063bacb5ebd14610359578063cbf64268146103835761011e565b806374119a38116100e657806374119a38146101da578063754e150d146101f85780637ed4c5be146102345780638aee578b1461025e5780638da5cb5b1461029a5761011e565b806330cec0eb146101225780633ccfd60b1461015e57806351f9efde146101745780635abad56b1461019e5761011e565b3661011e57005b5f5ffd5b34801561012d575f5ffd5b5061014860048036038101906101439190611796565b61046d565b6040516101559190611881565b60405180910390f35b348015610169575f5ffd5b50610172610500565b005b34801561017f575f5ffd5b506101886106a2565b60405161019591906118b0565b60405180910390f35b3480156101a9575f5ffd5b506101c460048036038101906101bf91906118f3565b6106a7565b6040516101d19190611991565b60405180910390f35b6101e2610772565b6040516101ef91906118b0565b60405180910390f35b348015610203575f5ffd5b5061021e600480360381019061021991906118f3565b6109f3565b60405161022b91906119c5565b60405180910390f35b34801561023f575f5ffd5b50610248610ba1565b60405161025591906118b0565b60405180910390f35b348015610269575f5ffd5b50610284600480360381019061027f91906119de565b610ba6565b60405161029191906118b0565b60405180910390f35b3480156102a5575f5ffd5b506102ae610bd1565b6040516102bb9190611a2b565b60405180910390f35b3480156102cf575f5ffd5b506102ea60048036038101906102e591906118f3565b610bf6565b6040516102fe989796959493929190611a5e565b60405180910390f35b348015610312575f5ffd5b5061032d600480360381019061032891906118f3565b610c8b565b005b34801561033a575f5ffd5b50610343610e71565b60405161035091906118b0565b60405180910390f35b348015610364575f5ffd5b5061036d610e77565b60405161037a91906119c5565b60405180910390f35b34801561038e575f5ffd5b50610397610e7c565b6040516103a491906118b0565b60405180910390f35b3480156103b8575f5ffd5b506103c1610e87565b6040516103ce91906118b0565b60405180910390f35b6103df610e92565b005b3480156103ec575f5ffd5b50610407600480360381019061040291906118f3565b610f23565b005b348015610414575f5ffd5b5061042f600480360381019061042a91906118f3565b611168565b005b34801561043c575f5ffd5b50610457600480360381019061045291906118f3565b6114d2565b6040516104649190611bb6565b60405180910390f35b606060015f8373ffffffffffffffffffffffffffffffffffffffff1673ffffffffffffffffffffffffffffffffffffffff1681526020019081526020015f208054806020026020016040519081016040528092919081815260200182805480156104f457602002820191905f5260205f20905b8154815260200190600101908083116104e0575b50505050509050919050565b60035f9054906101000a900473ffffffffffffffffffffffffffffffffffffffff1673ffffffffffffffffffffffffffffffffffffffff163373ffffffffffffffffffffffffffffffffffffffff161461058f576040517f08c379a000000000000000000000000000000000000000000000000000000000815260040161058690611c2a565b60405180910390fd5b5f4790505f81116105d5576040517f08c379a00000000000000000000000000000000000000000000000000000000081526004016105cc90611c92565b60405180910390fd5b5f60035f9054906101000a900473ffffffffffffffffffffffffffffffffffffffff1673ffffffffffffffffffffffffffffffffffffffff168260405161061b90611cdd565b5f6040518083038185875af1925050503d805f8114610655576040519150601f19603f3d011682016040523d82523d5f602084013e61065a565b606091505b505090508061069e576040517f08c379a000000000000000000000000000000000000000000000000000000000815260040161069590611d3b565b60405180910390fd5b5050565b603c81565b5f813373ffffffffffffffffffffffffffffffffffffffff165f5f8381526020019081526020015f206001015f9054906101000a900473ffffffffffffffffffffffffffffffffffffffff1673ffffffffffffffffffffffffffffffffffffffff1614610749576040517f08c379a000000000000000000000000000000000000000000000000000000000815260040161074090611da3565b60405180910390fd5b5f5f8481526020019081526020015f2060010160149054906101000a900460ff16915050919050565b5f66038d7ea4c680003410156107bd576040517f08c379a00000000000000000000000000000000000000000000000000000000081526004016107b490611e0b565b60405180910390fd5b60405180610100016040528060025481526020013373ffffffffffffffffffffffffffffffffffffffff1681526020015f6003811115610800576107ff61191e565b5b8152602001428152602001428152602001606460ff1681526020016001151581526020015f15158152505f5f60025f815461083a90611e56565b91905081905581526020019081526020015f205f820151815f01556020820151816001015f6101000a81548173ffffffffffffffffffffffffffffffffffffffff021916908373ffffffffffffffffffffffffffffffffffffffff16021790555060408201518160010160146101000a81548160ff021916908360038111156108c6576108c561191e565b5b0217905550606082015181600201556080820151816003015560a0820151816004015f6101000a81548160ff021916908360ff16021790555060c08201518160040160016101000a81548160ff02191690831515021790555060e08201518160040160026101000a81548160ff02191690831515021790555090505060015f3373ffffffffffffffffffffffffffffffffffffffff1673ffffffffffffffffffffffffffffffffffffffff1681526020019081526020015f20600254908060018154018082558091505060019003905f5260205f20015f90919091909150556002543373ffffffffffffffffffffffffffffffffffffffff167f4f5b22082ac57121703b0b6c1203ef527cfbfa5069616fee6deb979d124adbf060405160405180910390a3600254905090565b5f5f5f5f8481526020019081526020015f20604051806101000160405290815f8201548152602001600182015f9054906101000a900473ffffffffffffffffffffffffffffffffffffffff1673ffffffffffffffffffffffffffffffffffffffff1673ffffffffffffffffffffffffffffffffffffffff1681526020016001820160149054906101000a900460ff166003811115610a9457610a9361191e565b5b6003811115610aa657610aa561191e565b5b81526020016002820154815260200160038201548152602001600482015f9054906101000a900460ff1660ff1660ff1681526020016004820160019054906101000a900460ff161515151581526020016004820160029054906101000a900460ff16151515158152505090508060c001511580610b2457508060e001515b15610b32575f915050610b9c565b5f816080015142610b439190611e9d565b90505f601e82610b539190611efd565b90505f600260ff1682610b669190611f2d565b90508360a0015160ff168110610b82575f945050505050610b9c565b808460a0015160ff16610b959190611e9d565b9450505050505b919050565b601e81565b6001602052815f5260405f208181548110610bbf575f80fd5b905f5260205f20015f91509150505481565b60035f9054906101000a900473ffffffffffffffffffffffffffffffffffffffff1681565b5f602052805f5260405f205f91509050805f015490806001015f9054906101000a900473ffffffffffffffffffffffffffffffffffffffff16908060010160149054906101000a900460ff1690806002015490806003015490806004015f9054906101000a900460ff16908060040160019054906101000a900460ff16908060040160029054906101000a900460ff16905088565b805f5f8281526020019081526020015f2060040160019054906101000a900460ff16610cec576040517f08c379a0000000000000000000000000000000000000000000000000000000008152600401610ce390611fb8565b60405180910390fd5b815f5f8281526020019081526020015f2060040160029054906101000a900460ff1615610d4e576040517f08c379a0000000000000000000000000000000000000000000000000000000008152600401610d4590612020565b60405180910390fd5b823373ffffffffffffffffffffffffffffffffffffffff165f5f8381526020019081526020015f206001015f9054906101000a900473ffffffffffffffffffffffffffffffffffffffff1673ffffffffffffffffffffffffffffffffffffffff1614610def576040517f08c379a0000000000000000000000000000000000000000000000000000000008152600401610de690611da3565b60405180910390fd5b5f5f5f8681526020019081526020015f2090506064816004015f6101000a81548160ff021916908360ff160217905550428160030181905550847fd4b742b9ba48fffa1f14267075a7793851770764117c423fd0a6550dfc8cb5746064604051610e599190612080565b60405180910390a2610e6a85610f23565b5050505050565b60025481565b600281565b660aa87bee53800081565b66038d7ea4c6800081565b60035f9054906101000a900473ffffffffffffffffffffffffffffffffffffffff1673ffffffffffffffffffffffffffffffffffffffff163373ffffffffffffffffffffffffffffffffffffffff1614610f21576040517f08c379a0000000000000000000000000000000000000000000000000000000008152600401610f1890611c2a565b60405180910390fd5b565b805f5f8281526020019081526020015f2060040160019054906101000a900460ff16610f84576040517f08c379a0000000000000000000000000000000000000000000000000000000008152600401610f7b90611fb8565b60405180910390fd5b5f5f5f8481526020019081526020015f209050610fa08361161b565b8060040160029054906101000a900460ff1615610fbd5750611164565b5f816002015442610fce9190611e9d565b90505f8260010160149054906101000a900460ff1690506003603c610ff39190611f2d565b821061102b5760038360010160146101000a81548160ff021916908360038111156110215761102061191e565b5b02179055506110da565b6002603c6110399190611f2d565b82106110715760028360010160146101000a81548160ff021916908360038111156110675761106661191e565b5b02179055506110d9565b603c82106110ab5760018360010160146101000a81548160ff021916908360038111156110a1576110a061191e565b5b02179055506110d8565b5f8360010160146101000a81548160ff021916908360038111156110d2576110d161191e565b5b02179055505b5b5b8060038111156110ed576110ec61191e565b5b8360010160149054906101000a900460ff1660038111156111115761111061191e565b5b1461116057847f338b8976706f9da67298dddfa1ea4ff7d99cce68b9ca39c4f348994f8e2124a88460010160149054906101000a900460ff166040516111579190611991565b60405180910390a25b5050505b5050565b805f5f8281526020019081526020015f2060040160019054906101000a900460ff166111c9576040517f08c379a00000000000000000000000000000000000000000000000000000000081526004016111c090611fb8565b60405180910390fd5b815f5f8281526020019081526020015f2060040160029054906101000a900460ff161561122b576040517f08c379a000000000000000000000000000000000000000000000000000000000815260040161122290612020565b60405180910390fd5b823373ffffffffffffffffffffffffffffffffffffffff165f5f8381526020019081526020015f206001015f9054906101000a900473ffffffffffffffffffffffffffffffffffffffff1673ffffffffffffffffffffffffffffffffffffffff16146112cc576040517f08c379a00000000000000000000000000000000000000000000000000000000081526004016112c390611da3565b60405180910390fd5b5f5f5f8681526020019081526020015f2090506112e885610f23565b6003808111156112fb576112fa61191e565b5b8160010160149054906101000a900460ff16600381111561131f5761131e61191e565b5b1461135f576040517f08c379a0000000000000000000000000000000000000000000000000000000008152600401611356906120e3565b60405180910390fd5b5f8160040160016101000a81548160ff0219169083151502179055503373ffffffffffffffffffffffffffffffffffffffff16857f79f2138ea100070ff95b59c265da7aa3c7a0f61595fe1bb2f5fda2762f398847660aa87bee5380006040516113c991906118b0565b60405180910390a3660aa87bee53800047101561141b576040517f08c379a00000000000000000000000000000000000000000000000000000000081526004016114129061214b565b60405180910390fd5b5f3373ffffffffffffffffffffffffffffffffffffffff16660aa87bee53800060405161144790611cdd565b5f6040518083038185875af1925050503d805f8114611481576040519150601f19603f3d011682016040523d82523d5f602084013e611486565b606091505b50509050806114ca576040517f08c379a00000000000000000000000000000000000000000000000000000000081526004016114c1906121b3565b60405180910390fd5b505050505050565b6114da6116cc565b5f5f5f8481526020019081526020015f20604051806101000160405290815f8201548152602001600182015f9054906101000a900473ffffffffffffffffffffffffffffffffffffffff1673ffffffffffffffffffffffffffffffffffffffff1673ffffffffffffffffffffffffffffffffffffffff1681526020016001820160149054906101000a900460ff16600381111561157a5761157961191e565b5b600381111561158c5761158b61191e565b5b81526020016002820154815260200160038201548152602001600482015f9054906101000a900460ff1660ff1660ff1681526020016004820160019054906101000a900460ff161515151581526020016004820160029054906101000a900460ff1615151515815250509050611601836109f3565b8160a0019060ff16908160ff168152505080915050919050565b5f5f5f8381526020019081526020015f2090505f611638836109f3565b905080826004015f6101000a81548160ff021916908360ff1602179055505f8160ff1614801561167757508160040160029054906101000a900460ff16155b156116c75760018260040160026101000a81548160ff021916908315150217905550827fcc296a21951f3e57f21afb08547d835a0a9f0f06cc2867009cbe0cae44d36be960405160405180910390a25b505050565b6040518061010001604052805f81526020015f73ffffffffffffffffffffffffffffffffffffffff1681526020015f600381111561170d5761170c61191e565b5b81526020015f81526020015f81526020015f60ff1681526020015f151581526020015f151581525090565b5f5ffd5b5f73ffffffffffffffffffffffffffffffffffffffff82169050919050565b5f6117658261173c565b9050919050565b6117758161175b565b811461177f575f5ffd5b50565b5f813590506117908161176c565b92915050565b5f602082840312156117ab576117aa611738565b5b5f6117b884828501611782565b91505092915050565b5f81519050919050565b5f82825260208201905092915050565b5f819050602082019050919050565b5f819050919050565b6117fc816117ea565b82525050565b5f61180d83836117f3565b60208301905092915050565b5f602082019050919050565b5f61182f826117c1565b61183981856117cb565b9350611844836117db565b805f5b8381101561187457815161185b8882611802565b975061186683611819565b925050600181019050611847565b5085935050505092915050565b5f6020820190508181035f8301526118998184611825565b905092915050565b6118aa816117ea565b82525050565b5f6020820190506118c35f8301846118a1565b92915050565b6118d2816117ea565b81146118dc575f5ffd5b50565b5f813590506118ed816118c9565b92915050565b5f6020828403121561190857611907611738565b5b5f611915848285016118df565b91505092915050565b7f4e487b71000000000000000000000000000000000000000000000000000000005f52602160045260245ffd5b6004811061195c5761195b61191e565b5b50565b5f81905061196c8261194b565b919050565b5f61197b8261195f565b9050919050565b61198b81611971565b82525050565b5f6020820190506119a45f830184611982565b92915050565b5f60ff82169050919050565b6119bf816119aa565b82525050565b5f6020820190506119d85f8301846119b6565b92915050565b5f5f604083850312156119f4576119f3611738565b5b5f611a0185828601611782565b9250506020611a12858286016118df565b9150509250929050565b611a258161175b565b82525050565b5f602082019050611a3e5f830184611a1c565b92915050565b5f8115159050919050565b611a5881611a44565b82525050565b5f61010082019050611a725f83018b6118a1565b611a7f602083018a611a1c565b611a8c6040830189611982565b611a9960608301886118a1565b611aa660808301876118a1565b611ab360a08301866119b6565b611ac060c0830185611a4f565b611acd60e0830184611a4f565b9998505050505050505050565b611ae38161175b565b82525050565b611af281611971565b82525050565b611b01816119aa565b82525050565b611b1081611a44565b82525050565b61010082015f820151611b2b5f8501826117f3565b506020820151611b3e6020850182611ada565b506040820151611b516040850182611ae9565b506060820151611b6460608501826117f3565b506080820151611b7760808501826117f3565b5060a0820151611b8a60a0850182611af8565b5060c0820151611b9d60c0850182611b07565b5060e0820151611bb060e0850182611b07565b50505050565b5f61010082019050611bca5f830184611b16565b92915050565b5f82825260208201905092915050565b7f4f6e6c79206f776e6572210000000000000000000000000000000000000000005f82015250565b5f611c14600b83611bd0565b9150611c1f82611be0565b602082019050919050565b5f6020820190508181035f830152611c4181611c08565b9050919050565b7f4e6f7468696e6720746f207769746864726177000000000000000000000000005f82015250565b5f611c7c601383611bd0565b9150611c8782611c48565b602082019050919050565b5f6020820190508181035f830152611ca981611c70565b9050919050565b5f81905092915050565b50565b5f611cc85f83611cb0565b9150611cd382611cba565b5f82019050919050565b5f611ce782611cbd565b9150819050919050565b7f4661696c6564207472616e7366657200000000000000000000000000000000005f82015250565b5f611d25600f83611bd0565b9150611d3082611cf1565b602082019050919050565b5f6020820190508181035f830152611d5281611d19565b9050919050565b7f596f7520617265206e6f7420746865206f776e657221000000000000000000005f82015250565b5f611d8d601683611bd0565b9150611d9882611d59565b602082019050919050565b5f6020820190508181035f830152611dba81611d81565b9050919050565b7f496e73756666696369656e742062616c616e63652100000000000000000000005f82015250565b5f611df5601583611bd0565b9150611e0082611dc1565b602082019050919050565b5f6020820190508181035f830152611e2281611de9565b9050919050565b7f4e487b71000000000000000000000000000000000000000000000000000000005f52601160045260245ffd5b5f611e60826117ea565b91507fffffffffffffffffffffffffffffffffffffffffffffffffffffffffffffffff8203611e9257611e91611e29565b5b600182019050919050565b5f611ea7826117ea565b9150611eb2836117ea565b9250828203905081811115611eca57611ec9611e29565b5b92915050565b7f4e487b71000000000000000000000000000000000000000000000000000000005f52601260045260245ffd5b5f611f07826117ea565b9150611f12836117ea565b925082611f2257611f21611ed0565b5b828204905092915050565b5f611f37826117ea565b9150611f42836117ea565b9250828202611f50816117ea565b91508282048414831517611f6757611f66611e29565b5b5092915050565b7f506c616e7420646f65736e2774206578697374210000000000000000000000005f82015250565b5f611fa2601483611bd0565b9150611fad82611f6e565b602082019050919050565b5f6020820190508181035f830152611fcf81611f96565b9050919050565b7f506c616e7420616c7265616479206465616421000000000000000000000000005f82015250565b5f61200a601383611bd0565b915061201582611fd6565b602082019050919050565b5f6020820190508181035f83015261203781611ffe565b9050919050565b5f819050919050565b5f819050919050565b5f61206a6120656120608461203e565b612047565b6119aa565b9050919050565b61207a81612050565b82525050565b5f6020820190506120935f830184612071565b92915050565b7f506c616e74206e6f7420626c6f6f6d696e6720796574210000000000000000005f82015250565b5f6120cd601783611bd0565b91506120d882612099565b602082019050919050565b5f6020820190508181035f8301526120fa816120c1565b9050919050565b7f496e73756666696369656e7420636f6e74726163742062616c616e63652100005f82015250565b5f612135601e83611bd0565b915061214082612101565b602082019050919050565b5f6020820190508181035f83015261216281612129565b9050919050565b7f4661696c65642073656e64696e672072657761726421000000000000000000005f82015250565b5f61219d601683611bd0565b91506121a882612169565b602082019050919050565b5f6020820190508181035f8301526121ca81612191565b905091905056fea26469706673582212203c5530e1f51a1b3b0b18ea2797c90a7e59a189b144a94740f61b8b3766f516b964736f6c634300081e0033",
					"opcodes": "PUSH1 0x80 PUSH1 0x40 MSTORE CALLVALUE DUP1 ISZERO PUSH1 0xE JUMPI PUSH0 PUSH0 REVERT JUMPDEST POP CALLER PUSH1 0x3 PUSH0 PUSH2 0x100 EXP DUP2 SLOAD DUP2 PUSH20 0xFFFFFFFFFFFFFFFFFFFFFFFFFFFFFFFFFFFFFFFF MUL NOT AND SWAP1 DUP4 PUSH20 0xFFFFFFFFFFFFFFFFFFFFFFFFFFFFFFFFFFFFFFFF AND MUL OR SWAP1 SSTORE POP PUSH2 0x2207 DUP1 PUSH2 0x5C PUSH0 CODECOPY PUSH0 RETURN INVALID PUSH1 0x80 PUSH1 0x40 MSTORE PUSH1 0x4 CALLDATASIZE LT PUSH2 0x117 JUMPI PUSH0 CALLDATALOAD PUSH1 0xE0 SHR DUP1 PUSH4 0x8DD2361C GT PUSH2 0x9F JUMPI DUP1 PUSH4 0xCFC9A5F8 GT PUSH2 0x63 JUMPI DUP1 PUSH4 0xCFC9A5F8 EQ PUSH2 0x3AD JUMPI DUP1 PUSH4 0xD0E30DB0 EQ PUSH2 0x3D7 JUMPI DUP1 PUSH4 0xDDD42596 EQ PUSH2 0x3E1 JUMPI DUP1 PUSH4 0xE38F8448 EQ PUSH2 0x409 JUMPI DUP1 PUSH4 0xED0B1F5F EQ PUSH2 0x431 JUMPI PUSH2 0x11E JUMP JUMPDEST DUP1 PUSH4 0x8DD2361C EQ PUSH2 0x2C4 JUMPI DUP1 PUSH4 0x9886BCFA EQ PUSH2 0x307 JUMPI DUP1 PUSH4 0x9C471749 EQ PUSH2 0x32F JUMPI DUP1 PUSH4 0xBACB5EBD EQ PUSH2 0x359 JUMPI DUP1 PUSH4 0xCBF64268 EQ PUSH2 0x383 JUMPI PUSH2 0x11E JUMP JUMPDEST DUP1 PUSH4 0x74119A38 GT PUSH2 0xE6 JUMPI DUP1 PUSH4 0x74119A38 EQ PUSH2 0x1DA JUMPI DUP1 PUSH4 0x754E150D EQ PUSH2 0x1F8 JUMPI DUP1 PUSH4 0x7ED4C5BE EQ PUSH2 0x234 JUMPI DUP1 PUSH4 0x8AEE578B EQ PUSH2 0x25E JUMPI DUP1 PUSH4 0x8DA5CB5B EQ PUSH2 0x29A JUMPI PUSH2 0x11E JUMP JUMPDEST DUP1 PUSH4 0x30CEC0EB EQ PUSH2 0x122 JUMPI DUP1 PUSH4 0x3CCFD60B EQ PUSH2 0x15E JUMPI DUP1 PUSH4 0x51F9EFDE EQ PUSH2 0x174 JUMPI DUP1 PUSH4 0x5ABAD56B EQ PUSH2 0x19E JUMPI PUSH2 0x11E JUMP JUMPDEST CALLDATASIZE PUSH2 0x11E JUMPI STOP JUMPDEST PUSH0 PUSH0 REVERT JUMPDEST CALLVALUE DUP1 ISZERO PUSH2 0x12D JUMPI PUSH0 PUSH0 REVERT JUMPDEST POP PUSH2 0x148 PUSH1 0x4 DUP1 CALLDATASIZE SUB DUP2 ADD SWAP1 PUSH2 0x143 SWAP2 SWAP1 PUSH2 0x1796 JUMP JUMPDEST PUSH2 0x46D JUMP JUMPDEST PUSH1 0x40 MLOAD PUSH2 0x155 SWAP2 SWAP1 PUSH2 0x1881 JUMP JUMPDEST PUSH1 0x40 MLOAD DUP1 SWAP2 SUB SWAP1 RETURN JUMPDEST CALLVALUE DUP1 ISZERO PUSH2 0x169 JUMPI PUSH0 PUSH0 REVERT JUMPDEST POP PUSH2 0x172 PUSH2 0x500 JUMP JUMPDEST STOP JUMPDEST CALLVALUE DUP1 ISZERO PUSH2 0x17F JUMPI PUSH0 PUSH0 REVERT JUMPDEST POP PUSH2 0x188 PUSH2 0x6A2 JUMP JUMPDEST PUSH1 0x40 MLOAD PUSH2 0x195 SWAP2 SWAP1 PUSH2 0x18B0 JUMP JUMPDEST PUSH1 0x40 MLOAD DUP1 SWAP2 SUB SWAP1 RETURN JUMPDEST CALLVALUE DUP1 ISZERO PUSH2 0x1A9 JUMPI PUSH0 PUSH0 REVERT JUMPDEST POP PUSH2 0x1C4 PUSH1 0x4 DUP1 CALLDATASIZE SUB DUP2 ADD SWAP1 PUSH2 0x1BF SWAP2 SWAP1 PUSH2 0x18F3 JUMP JUMPDEST PUSH2 0x6A7 JUMP JUMPDEST PUSH1 0x40 MLOAD PUSH2 0x1D1 SWAP2 SWAP1 PUSH2 0x1991 JUMP JUMPDEST PUSH1 0x40 MLOAD DUP1 SWAP2 SUB SWAP1 RETURN JUMPDEST PUSH2 0x1E2 PUSH2 0x772 JUMP JUMPDEST PUSH1 0x40 MLOAD PUSH2 0x1EF SWAP2 SWAP1 PUSH2 0x18B0 JUMP JUMPDEST PUSH1 0x40 MLOAD DUP1 SWAP2 SUB SWAP1 RETURN JUMPDEST CALLVALUE DUP1 ISZERO PUSH2 0x203 JUMPI PUSH0 PUSH0 REVERT JUMPDEST POP PUSH2 0x21E PUSH1 0x4 DUP1 CALLDATASIZE SUB DUP2 ADD SWAP1 PUSH2 0x219 SWAP2 SWAP1 PUSH2 0x18F3 JUMP JUMPDEST PUSH2 0x9F3 JUMP JUMPDEST PUSH1 0x40 MLOAD PUSH2 0x22B SWAP2 SWAP1 PUSH2 0x19C5 JUMP JUMPDEST PUSH1 0x40 MLOAD DUP1 SWAP2 SUB SWAP1 RETURN JUMPDEST CALLVALUE DUP1 ISZERO PUSH2 0x23F JUMPI PUSH0 PUSH0 REVERT JUMPDEST POP PUSH2 0x248 PUSH2 0xBA1 JUMP JUMPDEST PUSH1 0x40 MLOAD PUSH2 0x255 SWAP2 SWAP1 PUSH2 0x18B0 JUMP JUMPDEST PUSH1 0x40 MLOAD DUP1 SWAP2 SUB SWAP1 RETURN JUMPDEST CALLVALUE DUP1 ISZERO PUSH2 0x269 JUMPI PUSH0 PUSH0 REVERT JUMPDEST POP PUSH2 0x284 PUSH1 0x4 DUP1 CALLDATASIZE SUB DUP2 ADD SWAP1 PUSH2 0x27F SWAP2 SWAP1 PUSH2 0x19DE JUMP JUMPDEST PUSH2 0xBA6 JUMP JUMPDEST PUSH1 0x40 MLOAD PUSH2 0x291 SWAP2 SWAP1 PUSH2 0x18B0 JUMP JUMPDEST PUSH1 0x40 MLOAD DUP1 SWAP2 SUB SWAP1 RETURN JUMPDEST CALLVALUE DUP1 ISZERO PUSH2 0x2A5 JUMPI PUSH0 PUSH0 REVERT JUMPDEST POP PUSH2 0x2AE PUSH2 0xBD1 JUMP JUMPDEST PUSH1 0x40 MLOAD PUSH2 0x2BB SWAP2 SWAP1 PUSH2 0x1A2B JUMP JUMPDEST PUSH1 0x40 MLOAD DUP1 SWAP2 SUB SWAP1 RETURN JUMPDEST CALLVALUE DUP1 ISZERO PUSH2 0x2CF JUMPI PUSH0 PUSH0 REVERT JUMPDEST POP PUSH2 0x2EA PUSH1 0x4 DUP1 CALLDATASIZE SUB DUP2 ADD SWAP1 PUSH2 0x2E5 SWAP2 SWAP1 PUSH2 0x18F3 JUMP JUMPDEST PUSH2 0xBF6 JUMP JUMPDEST PUSH1 0x40 MLOAD PUSH2 0x2FE SWAP9 SWAP8 SWAP7 SWAP6 SWAP5 SWAP4 SWAP3 SWAP2 SWAP1 PUSH2 0x1A5E JUMP JUMPDEST PUSH1 0x40 MLOAD DUP1 SWAP2 SUB SWAP1 RETURN JUMPDEST CALLVALUE DUP1 ISZERO PUSH2 0x312 JUMPI PUSH0 PUSH0 REVERT JUMPDEST POP PUSH2 0x32D PUSH1 0x4 DUP1 CALLDATASIZE SUB DUP2 ADD SWAP1 PUSH2 0x328 SWAP2 SWAP1 PUSH2 0x18F3 JUMP JUMPDEST PUSH2 0xC8B JUMP JUMPDEST STOP JUMPDEST CALLVALUE DUP1 ISZERO PUSH2 0x33A JUMPI PUSH0 PUSH0 REVERT JUMPDEST POP PUSH2 0x343 PUSH2 0xE71 JUMP JUMPDEST PUSH1 0x40 MLOAD PUSH2 0x350 SWAP2 SWAP1 PUSH2 0x18B0 JUMP JUMPDEST PUSH1 0x40 MLOAD DUP1 SWAP2 SUB SWAP1 RETURN JUMPDEST CALLVALUE DUP1 ISZERO PUSH2 0x364 JUMPI PUSH0 PUSH0 REVERT JUMPDEST POP PUSH2 0x36D PUSH2 0xE77 JUMP JUMPDEST PUSH1 0x40 MLOAD PUSH2 0x37A SWAP2 SWAP1 PUSH2 0x19C5 JUMP JUMPDEST PUSH1 0x40 MLOAD DUP1 SWAP2 SUB SWAP1 RETURN JUMPDEST CALLVALUE DUP1 ISZERO PUSH2 0x38E JUMPI PUSH0 PUSH0 REVERT JUMPDEST POP PUSH2 0x397 PUSH2 0xE7C JUMP JUMPDEST PUSH1 0x40 MLOAD PUSH2 0x3A4 SWAP2 SWAP1 PUSH2 0x18B0 JUMP JUMPDEST PUSH1 0x40 MLOAD DUP1 SWAP2 SUB SWAP1 RETURN JUMPDEST CALLVALUE DUP1 ISZERO PUSH2 0x3B8 JUMPI PUSH0 PUSH0 REVERT JUMPDEST POP PUSH2 0x3C1 PUSH2 0xE87 JUMP JUMPDEST PUSH1 0x40 MLOAD PUSH2 0x3CE SWAP2 SWAP1 PUSH2 0x18B0 JUMP JUMPDEST PUSH1 0x40 MLOAD DUP1 SWAP2 SUB SWAP1 RETURN JUMPDEST PUSH2 0x3DF PUSH2 0xE92 JUMP JUMPDEST STOP JUMPDEST CALLVALUE DUP1 ISZERO PUSH2 0x3EC JUMPI PUSH0 PUSH0 REVERT JUMPDEST POP PUSH2 0x407 PUSH1 0x4 DUP1 CALLDATASIZE SUB DUP2 ADD SWAP1 PUSH2 0x402 SWAP2 SWAP1 PUSH2 0x18F3 JUMP JUMPDEST PUSH2 0xF23 JUMP JUMPDEST STOP JUMPDEST CALLVALUE DUP1 ISZERO PUSH2 0x414 JUMPI PUSH0 PUSH0 REVERT JUMPDEST POP PUSH2 0x42F PUSH1 0x4 DUP1 CALLDATASIZE SUB DUP2 ADD SWAP1 PUSH2 0x42A SWAP2 SWAP1 PUSH2 0x18F3 JUMP JUMPDEST PUSH2 0x1168 JUMP JUMPDEST STOP JUMPDEST CALLVALUE DUP1 ISZERO PUSH2 0x43C JUMPI PUSH0 PUSH0 REVERT JUMPDEST POP PUSH2 0x457 PUSH1 0x4 DUP1 CALLDATASIZE SUB DUP2 ADD SWAP1 PUSH2 0x452 SWAP2 SWAP1 PUSH2 0x18F3 JUMP JUMPDEST PUSH2 0x14D2 JUMP JUMPDEST PUSH1 0x40 MLOAD PUSH2 0x464 SWAP2 SWAP1 PUSH2 0x1BB6 JUMP JUMPDEST PUSH1 0x40 MLOAD DUP1 SWAP2 SUB SWAP1 RETURN JUMPDEST PUSH1 0x60 PUSH1 0x1 PUSH0 DUP4 PUSH20 0xFFFFFFFFFFFFFFFFFFFFFFFFFFFFFFFFFFFFFFFF AND PUSH20 0xFFFFFFFFFFFFFFFFFFFFFFFFFFFFFFFFFFFFFFFF AND DUP2 MSTORE PUSH1 0x20 ADD SWAP1 DUP2 MSTORE PUSH1 0x20 ADD PUSH0 KECCAK256 DUP1 SLOAD DUP1 PUSH1 0x20 MUL PUSH1 0x20 ADD PUSH1 0x40 MLOAD SWAP1 DUP2 ADD PUSH1 0x40 MSTORE DUP1 SWAP3 SWAP2 SWAP1 DUP2 DUP2 MSTORE PUSH1 0x20 ADD DUP3 DUP1 SLOAD DUP1 ISZERO PUSH2 0x4F4 JUMPI PUSH1 0x20 MUL DUP3 ADD SWAP2 SWAP1 PUSH0 MSTORE PUSH1 0x20 PUSH0 KECCAK256 SWAP1 JUMPDEST DUP2 SLOAD DUP2 MSTORE PUSH1 0x20 ADD SWAP1 PUSH1 0x1 ADD SWAP1 DUP1 DUP4 GT PUSH2 0x4E0 JUMPI JUMPDEST POP POP POP POP POP SWAP1 POP SWAP2 SWAP1 POP JUMP JUMPDEST PUSH1 0x3 PUSH0 SWAP1 SLOAD SWAP1 PUSH2 0x100 EXP SWAP1 DIV PUSH20 0xFFFFFFFFFFFFFFFFFFFFFFFFFFFFFFFFFFFFFFFF AND PUSH20 0xFFFFFFFFFFFFFFFFFFFFFFFFFFFFFFFFFFFFFFFF AND CALLER PUSH20 0xFFFFFFFFFFFFFFFFFFFFFFFFFFFFFFFFFFFFFFFF AND EQ PUSH2 0x58F JUMPI PUSH1 0x40 MLOAD PUSH32 0x8C379A000000000000000000000000000000000000000000000000000000000 DUP2 MSTORE PUSH1 0x4 ADD PUSH2 0x586 SWAP1 PUSH2 0x1C2A JUMP JUMPDEST PUSH1 0x40 MLOAD DUP1 SWAP2 SUB SWAP1 REVERT JUMPDEST PUSH0 SELFBALANCE SWAP1 POP PUSH0 DUP2 GT PUSH2 0x5D5 JUMPI PUSH1 0x40 MLOAD PUSH32 0x8C379A000000000000000000000000000000000000000000000000000000000 DUP2 MSTORE PUSH1 0x4 ADD PUSH2 0x5CC SWAP1 PUSH2 0x1C92 JUMP JUMPDEST PUSH1 0x40 MLOAD DUP1 SWAP2 SUB SWAP1 REVERT JUMPDEST PUSH0 PUSH1 0x3 PUSH0 SWAP1 SLOAD SWAP1 PUSH2 0x100 EXP SWAP1 DIV PUSH20 0xFFFFFFFFFFFFFFFFFFFFFFFFFFFFFFFFFFFFFFFF AND PUSH20 0xFFFFFFFFFFFFFFFFFFFFFFFFFFFFFFFFFFFFFFFF AND DUP3 PUSH1 0x40 MLOAD PUSH2 0x61B SWAP1 PUSH2 0x1CDD JUMP JUMPDEST PUSH0 PUSH1 0x40 MLOAD DUP1 DUP4 SUB DUP2 DUP6 DUP8 GAS CALL SWAP3 POP POP POP RETURNDATASIZE DUP1 PUSH0 DUP2 EQ PUSH2 0x655 JUMPI PUSH1 0x40 MLOAD SWAP2 POP PUSH1 0x1F NOT PUSH1 0x3F RETURNDATASIZE ADD AND DUP3 ADD PUSH1 0x40 MSTORE RETURNDATASIZE DUP3 MSTORE RETURNDATASIZE PUSH0 PUSH1 0x20 DUP5 ADD RETURNDATACOPY PUSH2 0x65A JUMP JUMPDEST PUSH1 0x60 SWAP2 POP JUMPDEST POP POP SWAP1 POP DUP1 PUSH2 0x69E JUMPI PUSH1 0x40 MLOAD PUSH32 0x8C379A000000000000000000000000000000000000000000000000000000000 DUP2 MSTORE PUSH1 0x4 ADD PUSH2 0x695 SWAP1 PUSH2 0x1D3B JUMP JUMPDEST PUSH1 0x40 MLOAD DUP1 SWAP2 SUB SWAP1 REVERT JUMPDEST POP POP JUMP JUMPDEST PUSH1 0x3C DUP2 JUMP JUMPDEST PUSH0 DUP2 CALLER PUSH20 0xFFFFFFFFFFFFFFFFFFFFFFFFFFFFFFFFFFFFFFFF AND PUSH0 PUSH0 DUP4 DUP2 MSTORE PUSH1 0x20 ADD SWAP1 DUP2 MSTORE PUSH1 0x20 ADD PUSH0 KECCAK256 PUSH1 0x1 ADD PUSH0 SWAP1 SLOAD SWAP1 PUSH2 0x100 EXP SWAP1 DIV PUSH20 0xFFFFFFFFFFFFFFFFFFFFFFFFFFFFFFFFFFFFFFFF AND PUSH20 0xFFFFFFFFFFFFFFFFFFFFFFFFFFFFFFFFFFFFFFFF AND EQ PUSH2 0x749 JUMPI PUSH1 0x40 MLOAD PUSH32 0x8C379A000000000000000000000000000000000000000000000000000000000 DUP2 MSTORE PUSH1 0x4 ADD PUSH2 0x740 SWAP1 PUSH2 0x1DA3 JUMP JUMPDEST PUSH1 0x40 MLOAD DUP1 SWAP2 SUB SWAP1 REVERT JUMPDEST PUSH0 PUSH0 DUP5 DUP2 MSTORE PUSH1 0x20 ADD SWAP1 DUP2 MSTORE PUSH1 0x20 ADD PUSH0 KECCAK256 PUSH1 0x1 ADD PUSH1 0x14 SWAP1 SLOAD SWAP1 PUSH2 0x100 EXP SWAP1 DIV PUSH1 0xFF AND SWAP2 POP POP SWAP2 SWAP1 POP JUMP JUMPDEST PUSH0 PUSH7 0x38D7EA4C68000 CALLVALUE LT ISZERO PUSH2 0x7BD JUMPI PUSH1 0x40 MLOAD PUSH32 0x8C379A000000000000000000000000000000000000000000000000000000000 DUP2 MSTORE PUSH1 0x4 ADD PUSH2 0x7B4 SWAP1 PUSH2 0x1E0B JUMP JUMPDEST PUSH1 0x40 MLOAD DUP1 SWAP2 SUB SWAP1 REVERT JUMPDEST PUSH1 0x40 MLOAD DUP1 PUSH2 0x100 ADD PUSH1 0x40 MSTORE DUP1 PUSH1 0x2 SLOAD DUP2 MSTORE PUSH1 0x20 ADD CALLER PUSH20 0xFFFFFFFFFFFFFFFFFFFFFFFFFFFFFFFFFFFFFFFF AND DUP2 MSTORE PUSH1 0x20 ADD PUSH0 PUSH1 0x3 DUP2 GT ISZERO PUSH2 0x800 JUMPI PUSH2 0x7FF PUSH2 0x191E JUMP JUMPDEST JUMPDEST DUP2 MSTORE PUSH1 0x20 ADD TIMESTAMP DUP2 MSTORE PUSH1 0x20 ADD TIMESTAMP DUP2 MSTORE PUSH1 0x20 ADD PUSH1 0x64 PUSH1 0xFF AND DUP2 MSTORE PUSH1 0x20 ADD PUSH1 0x1 ISZERO ISZERO DUP2 MSTORE PUSH1 0x20 ADD PUSH0 ISZERO ISZERO DUP2 MSTORE POP PUSH0 PUSH0 PUSH1 0x2 PUSH0 DUP2 SLOAD PUSH2 0x83A SWAP1 PUSH2 0x1E56 JUMP JUMPDEST SWAP2 SWAP1 POP DUP2 SWAP1 SSTORE DUP2 MSTORE PUSH1 0x20 ADD SWAP1 DUP2 MSTORE PUSH1 0x20 ADD PUSH0 KECCAK256 PUSH0 DUP3 ADD MLOAD DUP2 PUSH0 ADD SSTORE PUSH1 0x20 DUP3 ADD MLOAD DUP2 PUSH1 0x1 ADD PUSH0 PUSH2 0x100 EXP DUP2 SLOAD DUP2 PUSH20 0xFFFFFFFFFFFFFFFFFFFFFFFFFFFFFFFFFFFFFFFF MUL NOT AND SWAP1 DUP4 PUSH20 0xFFFFFFFFFFFFFFFFFFFFFFFFFFFFFFFFFFFFFFFF AND MUL OR SWAP1 SSTORE POP PUSH1 0x40 DUP3 ADD MLOAD DUP2 PUSH1 0x1 ADD PUSH1 0x14 PUSH2 0x100 EXP DUP2 SLOAD DUP2 PUSH1 0xFF MUL NOT AND SWAP1 DUP4 PUSH1 0x3 DUP2 GT ISZERO PUSH2 0x8C6 JUMPI PUSH2 0x8C5 PUSH2 0x191E JUMP JUMPDEST JUMPDEST MUL OR SWAP1 SSTORE POP PUSH1 0x60 DUP3 ADD MLOAD DUP2 PUSH1 0x2 ADD SSTORE PUSH1 0x80 DUP3 ADD MLOAD DUP2 PUSH1 0x3 ADD SSTORE PUSH1 0xA0 DUP3 ADD MLOAD DUP2 PUSH1 0x4 ADD PUSH0 PUSH2 0x100 EXP DUP2 SLOAD DUP2 PUSH1 0xFF MUL NOT AND SWAP1 DUP4 PUSH1 0xFF AND MUL OR SWAP1 SSTORE POP PUSH1 0xC0 DUP3 ADD MLOAD DUP2 PUSH1 0x4 ADD PUSH1 0x1 PUSH2 0x100 EXP DUP2 SLOAD DUP2 PUSH1 0xFF MUL NOT AND SWAP1 DUP4 ISZERO ISZERO MUL OR SWAP1 SSTORE POP PUSH1 0xE0 DUP3 ADD MLOAD DUP2 PUSH1 0x4 ADD PUSH1 0x2 PUSH2 0x100 EXP DUP2 SLOAD DUP2 PUSH1 0xFF MUL NOT AND SWAP1 DUP4 ISZERO ISZERO MUL OR SWAP1 SSTORE POP SWAP1 POP POP PUSH1 0x1 PUSH0 CALLER PUSH20 0xFFFFFFFFFFFFFFFFFFFFFFFFFFFFFFFFFFFFFFFF AND PUSH20 0xFFFFFFFFFFFFFFFFFFFFFFFFFFFFFFFFFFFFFFFF AND DUP2 MSTORE PUSH1 0x20 ADD SWAP1 DUP2 MSTORE PUSH1 0x20 ADD PUSH0 KECCAK256 PUSH1 0x2 SLOAD SWAP1 DUP1 PUSH1 0x1 DUP2 SLOAD ADD DUP1 DUP3 SSTORE DUP1 SWAP2 POP POP PUSH1 0x1 SWAP1 SUB SWAP1 PUSH0 MSTORE PUSH1 0x20 PUSH0 KECCAK256 ADD PUSH0 SWAP1 SWAP2 SWAP1 SWAP2 SWAP1 SWAP2 POP SSTORE PUSH1 0x2 SLOAD CALLER PUSH20 0xFFFFFFFFFFFFFFFFFFFFFFFFFFFFFFFFFFFFFFFF AND PUSH32 0x4F5B22082AC57121703B0B6C1203EF527CFBFA5069616FEE6DEB979D124ADBF0 PUSH1 0x40 MLOAD PUSH1 0x40 MLOAD DUP1 SWAP2 SUB SWAP1 LOG3 PUSH1 0x2 SLOAD SWAP1 POP SWAP1 JUMP JUMPDEST PUSH0 PUSH0 PUSH0 PUSH0 DUP5 DUP2 MSTORE PUSH1 0x20 ADD SWAP1 DUP2 MSTORE PUSH1 0x20 ADD PUSH0 KECCAK256 PUSH1 0x40 MLOAD DUP1 PUSH2 0x100 ADD PUSH1 0x40 MSTORE SWAP1 DUP2 PUSH0 DUP3 ADD SLOAD DUP2 MSTORE PUSH1 0x20 ADD PUSH1 0x1 DUP3 ADD PUSH0 SWAP1 SLOAD SWAP1 PUSH2 0x100 EXP SWAP1 DIV PUSH20 0xFFFFFFFFFFFFFFFFFFFFFFFFFFFFFFFFFFFFFFFF AND PUSH20 0xFFFFFFFFFFFFFFFFFFFFFFFFFFFFFFFFFFFFFFFF AND PUSH20 0xFFFFFFFFFFFFFFFFFFFFFFFFFFFFFFFFFFFFFFFF AND DUP2 MSTORE PUSH1 0x20 ADD PUSH1 0x1 DUP3 ADD PUSH1 0x14 SWAP1 SLOAD SWAP1 PUSH2 0x100 EXP SWAP1 DIV PUSH1 0xFF AND PUSH1 0x3 DUP2 GT ISZERO PUSH2 0xA94 JUMPI PUSH2 0xA93 PUSH2 0x191E JUMP JUMPDEST JUMPDEST PUSH1 0x3 DUP2 GT ISZERO PUSH2 0xAA6 JUMPI PUSH2 0xAA5 PUSH2 0x191E JUMP JUMPDEST JUMPDEST DUP2 MSTORE PUSH1 0x20 ADD PUSH1 0x2 DUP3 ADD SLOAD DUP2 MSTORE PUSH1 0x20 ADD PUSH1 0x3 DUP3 ADD SLOAD DUP2 MSTORE PUSH1 0x20 ADD PUSH1 0x4 DUP3 ADD PUSH0 SWAP1 SLOAD SWAP1 PUSH2 0x100 EXP SWAP1 DIV PUSH1 0xFF AND PUSH1 0xFF AND PUSH1 0xFF AND DUP2 MSTORE PUSH1 0x20 ADD PUSH1 0x4 DUP3 ADD PUSH1 0x1 SWAP1 SLOAD SWAP1 PUSH2 0x100 EXP SWAP1 DIV PUSH1 0xFF AND ISZERO ISZERO ISZERO ISZERO DUP2 MSTORE PUSH1 0x20 ADD PUSH1 0x4 DUP3 ADD PUSH1 0x2 SWAP1 SLOAD SWAP1 PUSH2 0x100 EXP SWAP1 DIV PUSH1 0xFF AND ISZERO ISZERO ISZERO ISZERO DUP2 MSTORE POP POP SWAP1 POP DUP1 PUSH1 0xC0 ADD MLOAD ISZERO DUP1 PUSH2 0xB24 JUMPI POP DUP1 PUSH1 0xE0 ADD MLOAD JUMPDEST ISZERO PUSH2 0xB32 JUMPI PUSH0 SWAP2 POP POP PUSH2 0xB9C JUMP JUMPDEST PUSH0 DUP2 PUSH1 0x80 ADD MLOAD TIMESTAMP PUSH2 0xB43 SWAP2 SWAP1 PUSH2 0x1E9D JUMP JUMPDEST SWAP1 POP PUSH0 PUSH1 0x1E DUP3 PUSH2 0xB53 SWAP2 SWAP1 PUSH2 0x1EFD JUMP JUMPDEST SWAP1 POP PUSH0 PUSH1 0x2 PUSH1 0xFF AND DUP3 PUSH2 0xB66 SWAP2 SWAP1 PUSH2 0x1F2D JUMP JUMPDEST SWAP1 POP DUP4 PUSH1 0xA0 ADD MLOAD PUSH1 0xFF AND DUP2 LT PUSH2 0xB82 JUMPI PUSH0 SWAP5 POP POP POP POP POP PUSH2 0xB9C JUMP JUMPDEST DUP1 DUP5 PUSH1 0xA0 ADD MLOAD PUSH1 0xFF AND PUSH2 0xB95 SWAP2 SWAP1 PUSH2 0x1E9D JUMP JUMPDEST SWAP5 POP POP POP POP POP JUMPDEST SWAP2 SWAP1 POP JUMP JUMPDEST PUSH1 0x1E DUP2 JUMP JUMPDEST PUSH1 0x1 PUSH1 0x20 MSTORE DUP2 PUSH0 MSTORE PUSH1 0x40 PUSH0 KECCAK256 DUP2 DUP2 SLOAD DUP2 LT PUSH2 0xBBF JUMPI PUSH0 DUP1 REVERT JUMPDEST SWAP1 PUSH0 MSTORE PUSH1 0x20 PUSH0 KECCAK256 ADD PUSH0 SWAP2 POP SWAP2 POP POP SLOAD DUP2 JUMP JUMPDEST PUSH1 0x3 PUSH0 SWAP1 SLOAD SWAP1 PUSH2 0x100 EXP SWAP1 DIV PUSH20 0xFFFFFFFFFFFFFFFFFFFFFFFFFFFFFFFFFFFFFFFF AND DUP2 JUMP JUMPDEST PUSH0 PUSH1 0x20 MSTORE DUP1 PUSH0 MSTORE PUSH1 0x40 PUSH0 KECCAK256 PUSH0 SWAP2 POP SWAP1 POP DUP1 PUSH0 ADD SLOAD SWAP1 DUP1 PUSH1 0x1 ADD PUSH0 SWAP1 SLOAD SWAP1 PUSH2 0x100 EXP SWAP1 DIV PUSH20 0xFFFFFFFFFFFFFFFFFFFFFFFFFFFFFFFFFFFFFFFF AND SWAP1 DUP1 PUSH1 0x1 ADD PUSH1 0x14 SWAP1 SLOAD SWAP1 PUSH2 0x100 EXP SWAP1 DIV PUSH1 0xFF AND SWAP1 DUP1 PUSH1 0x2 ADD SLOAD SWAP1 DUP1 PUSH1 0x3 ADD SLOAD SWAP1 DUP1 PUSH1 0x4 ADD PUSH0 SWAP1 SLOAD SWAP1 PUSH2 0x100 EXP SWAP1 DIV PUSH1 0xFF AND SWAP1 DUP1 PUSH1 0x4 ADD PUSH1 0x1 SWAP1 SLOAD SWAP1 PUSH2 0x100 EXP SWAP1 DIV PUSH1 0xFF AND SWAP1 DUP1 PUSH1 0x4 ADD PUSH1 0x2 SWAP1 SLOAD SWAP1 PUSH2 0x100 EXP SWAP1 DIV PUSH1 0xFF AND SWAP1 POP DUP9 JUMP JUMPDEST DUP1 PUSH0 PUSH0 DUP3 DUP2 MSTORE PUSH1 0x20 ADD SWAP1 DUP2 MSTORE PUSH1 0x20 ADD PUSH0 KECCAK256 PUSH1 0x4 ADD PUSH1 0x1 SWAP1 SLOAD SWAP1 PUSH2 0x100 EXP SWAP1 DIV PUSH1 0xFF AND PUSH2 0xCEC JUMPI PUSH1 0x40 MLOAD PUSH32 0x8C379A000000000000000000000000000000000000000000000000000000000 DUP2 MSTORE PUSH1 0x4 ADD PUSH2 0xCE3 SWAP1 PUSH2 0x1FB8 JUMP JUMPDEST PUSH1 0x40 MLOAD DUP1 SWAP2 SUB SWAP1 REVERT JUMPDEST DUP2 PUSH0 PUSH0 DUP3 DUP2 MSTORE PUSH1 0x20 ADD SWAP1 DUP2 MSTORE PUSH1 0x20 ADD PUSH0 KECCAK256 PUSH1 0x4 ADD PUSH1 0x2 SWAP1 SLOAD SWAP1 PUSH2 0x100 EXP SWAP1 DIV PUSH1 0xFF AND ISZERO PUSH2 0xD4E JUMPI PUSH1 0x40 MLOAD PUSH32 0x8C379A000000000000000000000000000000000000000000000000000000000 DUP2 MSTORE PUSH1 0x4 ADD PUSH2 0xD45 SWAP1 PUSH2 0x2020 JUMP JUMPDEST PUSH1 0x40 MLOAD DUP1 SWAP2 SUB SWAP1 REVERT JUMPDEST DUP3 CALLER PUSH20 0xFFFFFFFFFFFFFFFFFFFFFFFFFFFFFFFFFFFFFFFF AND PUSH0 PUSH0 DUP4 DUP2 MSTORE PUSH1 0x20 ADD SWAP1 DUP2 MSTORE PUSH1 0x20 ADD PUSH0 KECCAK256 PUSH1 0x1 ADD PUSH0 SWAP1 SLOAD SWAP1 PUSH2 0x100 EXP SWAP1 DIV PUSH20 0xFFFFFFFFFFFFFFFFFFFFFFFFFFFFFFFFFFFFFFFF AND PUSH20 0xFFFFFFFFFFFFFFFFFFFFFFFFFFFFFFFFFFFFFFFF AND EQ PUSH2 0xDEF JUMPI PUSH1 0x40 MLOAD PUSH32 0x8C379A000000000000000000000000000000000000000000000000000000000 DUP2 MSTORE PUSH1 0x4 ADD PUSH2 0xDE6 SWAP1 PUSH2 0x1DA3 JUMP JUMPDEST PUSH1 0x40 MLOAD DUP1 SWAP2 SUB SWAP1 REVERT JUMPDEST PUSH0 PUSH0 PUSH0 DUP7 DUP2 MSTORE PUSH1 0x20 ADD SWAP1 DUP2 MSTORE PUSH1 0x20 ADD PUSH0 KECCAK256 SWAP1 POP PUSH1 0x64 DUP2 PUSH1 0x4 ADD PUSH0 PUSH2 0x100 EXP DUP2 SLOAD DUP2 PUSH1 0xFF MUL NOT AND SWAP1 DUP4 PUSH1 0xFF AND MUL OR SWAP1 SSTORE POP TIMESTAMP DUP2 PUSH1 0x3 ADD DUP2 SWAP1 SSTORE POP DUP5 PUSH32 0xD4B742B9BA48FFFA1F14267075A7793851770764117C423FD0A6550DFC8CB574 PUSH1 0x64 PUSH1 0x40 MLOAD PUSH2 0xE59 SWAP2 SWAP1 PUSH2 0x2080 JUMP JUMPDEST PUSH1 0x40 MLOAD DUP1 SWAP2 SUB SWAP1 LOG2 PUSH2 0xE6A DUP6 PUSH2 0xF23 JUMP JUMPDEST POP POP POP POP POP JUMP JUMPDEST PUSH1 0x2 SLOAD DUP2 JUMP JUMPDEST PUSH1 0x2 DUP2 JUMP JUMPDEST PUSH7 0xAA87BEE538000 DUP2 JUMP JUMPDEST PUSH7 0x38D7EA4C68000 DUP2 JUMP JUMPDEST PUSH1 0x3 PUSH0 SWAP1 SLOAD SWAP1 PUSH2 0x100 EXP SWAP1 DIV PUSH20 0xFFFFFFFFFFFFFFFFFFFFFFFFFFFFFFFFFFFFFFFF AND PUSH20 0xFFFFFFFFFFFFFFFFFFFFFFFFFFFFFFFFFFFFFFFF AND CALLER PUSH20 0xFFFFFFFFFFFFFFFFFFFFFFFFFFFFFFFFFFFFFFFF AND EQ PUSH2 0xF21 JUMPI PUSH1 0x40 MLOAD PUSH32 0x8C379A000000000000000000000000000000000000000000000000000000000 DUP2 MSTORE PUSH1 0x4 ADD PUSH2 0xF18 SWAP1 PUSH2 0x1C2A JUMP JUMPDEST PUSH1 0x40 MLOAD DUP1 SWAP2 SUB SWAP1 REVERT JUMPDEST JUMP JUMPDEST DUP1 PUSH0 PUSH0 DUP3 DUP2 MSTORE PUSH1 0x20 ADD SWAP1 DUP2 MSTORE PUSH1 0x20 ADD PUSH0 KECCAK256 PUSH1 0x4 ADD PUSH1 0x1 SWAP1 SLOAD SWAP1 PUSH2 0x100 EXP SWAP1 DIV PUSH1 0xFF AND PUSH2 0xF84 JUMPI PUSH1 0x40 MLOAD PUSH32 0x8C379A000000000000000000000000000000000000000000000000000000000 DUP2 MSTORE PUSH1 0x4 ADD PUSH2 0xF7B SWAP1 PUSH2 0x1FB8 JUMP JUMPDEST PUSH1 0x40 MLOAD DUP1 SWAP2 SUB SWAP1 REVERT JUMPDEST PUSH0 PUSH0 PUSH0 DUP5 DUP2 MSTORE PUSH1 0x20 ADD SWAP1 DUP2 MSTORE PUSH1 0x20 ADD PUSH0 KECCAK256 SWAP1 POP PUSH2 0xFA0 DUP4 PUSH2 0x161B JUMP JUMPDEST DUP1 PUSH1 0x4 ADD PUSH1 0x2 SWAP1 SLOAD SWAP1 PUSH2 0x100 EXP SWAP1 DIV PUSH1 0xFF AND ISZERO PUSH2 0xFBD JUMPI POP PUSH2 0x1164 JUMP JUMPDEST PUSH0 DUP2 PUSH1 0x2 ADD SLOAD TIMESTAMP PUSH2 0xFCE SWAP2 SWAP1 PUSH2 0x1E9D JUMP JUMPDEST SWAP1 POP PUSH0 DUP3 PUSH1 0x1 ADD PUSH1 0x14 SWAP1 SLOAD SWAP1 PUSH2 0x100 EXP SWAP1 DIV PUSH1 0xFF AND SWAP1 POP PUSH1 0x3 PUSH1 0x3C PUSH2 0xFF3 SWAP2 SWAP1 PUSH2 0x1F2D JUMP JUMPDEST DUP3 LT PUSH2 0x102B JUMPI PUSH1 0x3 DUP4 PUSH1 0x1 ADD PUSH1 0x14 PUSH2 0x100 EXP DUP2 SLOAD DUP2 PUSH1 0xFF MUL NOT AND SWAP1 DUP4 PUSH1 0x3 DUP2 GT ISZERO PUSH2 0x1021 JUMPI PUSH2 0x1020 PUSH2 0x191E JUMP JUMPDEST JUMPDEST MUL OR SWAP1 SSTORE POP PUSH2 0x10DA JUMP JUMPDEST PUSH1 0x2 PUSH1 0x3C PUSH2 0x1039 SWAP2 SWAP1 PUSH2 0x1F2D JUMP JUMPDEST DUP3 LT PUSH2 0x1071 JUMPI PUSH1 0x2 DUP4 PUSH1 0x1 ADD PUSH1 0x14 PUSH2 0x100 EXP DUP2 SLOAD DUP2 PUSH1 0xFF MUL NOT AND SWAP1 DUP4 PUSH1 0x3 DUP2 GT ISZERO PUSH2 0x1067 JUMPI PUSH2 0x1066 PUSH2 0x191E JUMP JUMPDEST JUMPDEST MUL OR SWAP1 SSTORE POP PUSH2 0x10D9 JUMP JUMPDEST PUSH1 0x3C DUP3 LT PUSH2 0x10AB JUMPI PUSH1 0x1 DUP4 PUSH1 0x1 ADD PUSH1 0x14 PUSH2 0x100 EXP DUP2 SLOAD DUP2 PUSH1 0xFF MUL NOT AND SWAP1 DUP4 PUSH1 0x3 DUP2 GT ISZERO PUSH2 0x10A1 JUMPI PUSH2 0x10A0 PUSH2 0x191E JUMP JUMPDEST JUMPDEST MUL OR SWAP1 SSTORE POP PUSH2 0x10D8 JUMP JUMPDEST PUSH0 DUP4 PUSH1 0x1 ADD PUSH1 0x14 PUSH2 0x100 EXP DUP2 SLOAD DUP2 PUSH1 0xFF MUL NOT AND SWAP1 DUP4 PUSH1 0x3 DUP2 GT ISZERO PUSH2 0x10D2 JUMPI PUSH2 0x10D1 PUSH2 0x191E JUMP JUMPDEST JUMPDEST MUL OR SWAP1 SSTORE POP JUMPDEST JUMPDEST JUMPDEST DUP1 PUSH1 0x3 DUP2 GT ISZERO PUSH2 0x10ED JUMPI PUSH2 0x10EC PUSH2 0x191E JUMP JUMPDEST JUMPDEST DUP4 PUSH1 0x1 ADD PUSH1 0x14 SWAP1 SLOAD SWAP1 PUSH2 0x100 EXP SWAP1 DIV PUSH1 0xFF AND PUSH1 0x3 DUP2 GT ISZERO PUSH2 0x1111 JUMPI PUSH2 0x1110 PUSH2 0x191E JUMP JUMPDEST JUMPDEST EQ PUSH2 0x1160 JUMPI DUP5 PUSH32 0x338B8976706F9DA67298DDDFA1EA4FF7D99CCE68B9CA39C4F348994F8E2124A8 DUP5 PUSH1 0x1 ADD PUSH1 0x14 SWAP1 SLOAD SWAP1 PUSH2 0x100 EXP SWAP1 DIV PUSH1 0xFF AND PUSH1 0x40 MLOAD PUSH2 0x1157 SWAP2 SWAP1 PUSH2 0x1991 JUMP JUMPDEST PUSH1 0x40 MLOAD DUP1 SWAP2 SUB SWAP1 LOG2 JUMPDEST POP POP POP JUMPDEST POP POP JUMP JUMPDEST DUP1 PUSH0 PUSH0 DUP3 DUP2 MSTORE PUSH1 0x20 ADD SWAP1 DUP2 MSTORE PUSH1 0x20 ADD PUSH0 KECCAK256 PUSH1 0x4 ADD PUSH1 0x1 SWAP1 SLOAD SWAP1 PUSH2 0x100 EXP SWAP1 DIV PUSH1 0xFF AND PUSH2 0x11C9 JUMPI PUSH1 0x40 MLOAD PUSH32 0x8C379A000000000000000000000000000000000000000000000000000000000 DUP2 MSTORE PUSH1 0x4 ADD PUSH2 0x11C0 SWAP1 PUSH2 0x1FB8 JUMP JUMPDEST PUSH1 0x40 MLOAD DUP1 SWAP2 SUB SWAP1 REVERT JUMPDEST DUP2 PUSH0 PUSH0 DUP3 DUP2 MSTORE PUSH1 0x20 ADD SWAP1 DUP2 MSTORE PUSH1 0x20 ADD PUSH0 KECCAK256 PUSH1 0x4 ADD PUSH1 0x2 SWAP1 SLOAD SWAP1 PUSH2 0x100 EXP SWAP1 DIV PUSH1 0xFF AND ISZERO PUSH2 0x122B JUMPI PUSH1 0x40 MLOAD PUSH32 0x8C379A000000000000000000000000000000000000000000000000000000000 DUP2 MSTORE PUSH1 0x4 ADD PUSH2 0x1222 SWAP1 PUSH2 0x2020 JUMP JUMPDEST PUSH1 0x40 MLOAD DUP1 SWAP2 SUB SWAP1 REVERT JUMPDEST DUP3 CALLER PUSH20 0xFFFFFFFFFFFFFFFFFFFFFFFFFFFFFFFFFFFFFFFF AND PUSH0 PUSH0 DUP4 DUP2 MSTORE PUSH1 0x20 ADD SWAP1 DUP2 MSTORE PUSH1 0x20 ADD PUSH0 KECCAK256 PUSH1 0x1 ADD PUSH0 SWAP1 SLOAD SWAP1 PUSH2 0x100 EXP SWAP1 DIV PUSH20 0xFFFFFFFFFFFFFFFFFFFFFFFFFFFFFFFFFFFFFFFF AND PUSH20 0xFFFFFFFFFFFFFFFFFFFFFFFFFFFFFFFFFFFFFFFF AND EQ PUSH2 0x12CC JUMPI PUSH1 0x40 MLOAD PUSH32 0x8C379A000000000000000000000000000000000000000000000000000000000 DUP2 MSTORE PUSH1 0x4 ADD PUSH2 0x12C3 SWAP1 PUSH2 0x1DA3 JUMP JUMPDEST PUSH1 0x40 MLOAD DUP1 SWAP2 SUB SWAP1 REVERT JUMPDEST PUSH0 PUSH0 PUSH0 DUP7 DUP2 MSTORE PUSH1 0x20 ADD SWAP1 DUP2 MSTORE PUSH1 0x20 ADD PUSH0 KECCAK256 SWAP1 POP PUSH2 0x12E8 DUP6 PUSH2 0xF23 JUMP JUMPDEST PUSH1 0x3 DUP1 DUP2 GT ISZERO PUSH2 0x12FB JUMPI PUSH2 0x12FA PUSH2 0x191E JUMP JUMPDEST JUMPDEST DUP2 PUSH1 0x1 ADD PUSH1 0x14 SWAP1 SLOAD SWAP1 PUSH2 0x100 EXP SWAP1 DIV PUSH1 0xFF AND PUSH1 0x3 DUP2 GT ISZERO PUSH2 0x131F JUMPI PUSH2 0x131E PUSH2 0x191E JUMP JUMPDEST JUMPDEST EQ PUSH2 0x135F JUMPI PUSH1 0x40 MLOAD PUSH32 0x8C379A000000000000000000000000000000000000000000000000000000000 DUP2 MSTORE PUSH1 0x4 ADD PUSH2 0x1356 SWAP1 PUSH2 0x20E3 JUMP JUMPDEST PUSH1 0x40 MLOAD DUP1 SWAP2 SUB SWAP1 REVERT JUMPDEST PUSH0 DUP2 PUSH1 0x4 ADD PUSH1 0x1 PUSH2 0x100 EXP DUP2 SLOAD DUP2 PUSH1 0xFF MUL NOT AND SWAP1 DUP4 ISZERO ISZERO MUL OR SWAP1 SSTORE POP CALLER PUSH20 0xFFFFFFFFFFFFFFFFFFFFFFFFFFFFFFFFFFFFFFFF AND DUP6 PUSH32 0x79F2138EA100070FF95B59C265DA7AA3C7A0F61595FE1BB2F5FDA2762F398847 PUSH7 0xAA87BEE538000 PUSH1 0x40 MLOAD PUSH2 0x13C9 SWAP2 SWAP1 PUSH2 0x18B0 JUMP JUMPDEST PUSH1 0x40 MLOAD DUP1 SWAP2 SUB SWAP1 LOG3 PUSH7 0xAA87BEE538000 SELFBALANCE LT ISZERO PUSH2 0x141B JUMPI PUSH1 0x40 MLOAD PUSH32 0x8C379A000000000000000000000000000000000000000000000000000000000 DUP2 MSTORE PUSH1 0x4 ADD PUSH2 0x1412 SWAP1 PUSH2 0x214B JUMP JUMPDEST PUSH1 0x40 MLOAD DUP1 SWAP2 SUB SWAP1 REVERT JUMPDEST PUSH0 CALLER PUSH20 0xFFFFFFFFFFFFFFFFFFFFFFFFFFFFFFFFFFFFFFFF AND PUSH7 0xAA87BEE538000 PUSH1 0x40 MLOAD PUSH2 0x1447 SWAP1 PUSH2 0x1CDD JUMP JUMPDEST PUSH0 PUSH1 0x40 MLOAD DUP1 DUP4 SUB DUP2 DUP6 DUP8 GAS CALL SWAP3 POP POP POP RETURNDATASIZE DUP1 PUSH0 DUP2 EQ PUSH2 0x1481 JUMPI PUSH1 0x40 MLOAD SWAP2 POP PUSH1 0x1F NOT PUSH1 0x3F RETURNDATASIZE ADD AND DUP3 ADD PUSH1 0x40 MSTORE RETURNDATASIZE DUP3 MSTORE RETURNDATASIZE PUSH0 PUSH1 0x20 DUP5 ADD RETURNDATACOPY PUSH2 0x1486 JUMP JUMPDEST PUSH1 0x60 SWAP2 POP JUMPDEST POP POP SWAP1 POP DUP1 PUSH2 0x14CA JUMPI PUSH1 0x40 MLOAD PUSH32 0x8C379A000000000000000000000000000000000000000000000000000000000 DUP2 MSTORE PUSH1 0x4 ADD PUSH2 0x14C1 SWAP1 PUSH2 0x21B3 JUMP JUMPDEST PUSH1 0x40 MLOAD DUP1 SWAP2 SUB SWAP1 REVERT JUMPDEST POP POP POP POP POP POP JUMP JUMPDEST PUSH2 0x14DA PUSH2 0x16CC JUMP JUMPDEST PUSH0 PUSH0 PUSH0 DUP5 DUP2 MSTORE PUSH1 0x20 ADD SWAP1 DUP2 MSTORE PUSH1 0x20 ADD PUSH0 KECCAK256 PUSH1 0x40 MLOAD DUP1 PUSH2 0x100 ADD PUSH1 0x40 MSTORE SWAP1 DUP2 PUSH0 DUP3 ADD SLOAD DUP2 MSTORE PUSH1 0x20 ADD PUSH1 0x1 DUP3 ADD PUSH0 SWAP1 SLOAD SWAP1 PUSH2 0x100 EXP SWAP1 DIV PUSH20 0xFFFFFFFFFFFFFFFFFFFFFFFFFFFFFFFFFFFFFFFF AND PUSH20 0xFFFFFFFFFFFFFFFFFFFFFFFFFFFFFFFFFFFFFFFF AND PUSH20 0xFFFFFFFFFFFFFFFFFFFFFFFFFFFFFFFFFFFFFFFF AND DUP2 MSTORE PUSH1 0x20 ADD PUSH1 0x1 DUP3 ADD PUSH1 0x14 SWAP1 SLOAD SWAP1 PUSH2 0x100 EXP SWAP1 DIV PUSH1 0xFF AND PUSH1 0x3 DUP2 GT ISZERO PUSH2 0x157A JUMPI PUSH2 0x1579 PUSH2 0x191E JUMP JUMPDEST JUMPDEST PUSH1 0x3 DUP2 GT ISZERO PUSH2 0x158C JUMPI PUSH2 0x158B PUSH2 0x191E JUMP JUMPDEST JUMPDEST DUP2 MSTORE PUSH1 0x20 ADD PUSH1 0x2 DUP3 ADD SLOAD DUP2 MSTORE PUSH1 0x20 ADD PUSH1 0x3 DUP3 ADD SLOAD DUP2 MSTORE PUSH1 0x20 ADD PUSH1 0x4 DUP3 ADD PUSH0 SWAP1 SLOAD SWAP1 PUSH2 0x100 EXP SWAP1 DIV PUSH1 0xFF AND PUSH1 0xFF AND PUSH1 0xFF AND DUP2 MSTORE PUSH1 0x20 ADD PUSH1 0x4 DUP3 ADD PUSH1 0x1 SWAP1 SLOAD SWAP1 PUSH2 0x100 EXP SWAP1 DIV PUSH1 0xFF AND ISZERO ISZERO ISZERO ISZERO DUP2 MSTORE PUSH1 0x20 ADD PUSH1 0x4 DUP3 ADD PUSH1 0x2 SWAP1 SLOAD SWAP1 PUSH2 0x100 EXP SWAP1 DIV PUSH1 0xFF AND ISZERO ISZERO ISZERO ISZERO DUP2 MSTORE POP POP SWAP1 POP PUSH2 0x1601 DUP4 PUSH2 0x9F3 JUMP JUMPDEST DUP2 PUSH1 0xA0 ADD SWAP1 PUSH1 0xFF AND SWAP1 DUP2 PUSH1 0xFF AND DUP2 MSTORE POP POP DUP1 SWAP2 POP POP SWAP2 SWAP1 POP JUMP JUMPDEST PUSH0 PUSH0 PUSH0 DUP4 DUP2 MSTORE PUSH1 0x20 ADD SWAP1 DUP2 MSTORE PUSH1 0x20 ADD PUSH0 KECCAK256 SWAP1 POP PUSH0 PUSH2 0x1638 DUP4 PUSH2 0x9F3 JUMP JUMPDEST SWAP1 POP DUP1 DUP3 PUSH1 0x4 ADD PUSH0 PUSH2 0x100 EXP DUP2 SLOAD DUP2 PUSH1 0xFF MUL NOT AND SWAP1 DUP4 PUSH1 0xFF AND MUL OR SWAP1 SSTORE POP PUSH0 DUP2 PUSH1 0xFF AND EQ DUP1 ISZERO PUSH2 0x1677 JUMPI POP DUP2 PUSH1 0x4 ADD PUSH1 0x2 SWAP1 SLOAD SWAP1 PUSH2 0x100 EXP SWAP1 DIV PUSH1 0xFF AND ISZERO JUMPDEST ISZERO PUSH2 0x16C7 JUMPI PUSH1 0x1 DUP3 PUSH1 0x4 ADD PUSH1 0x2 PUSH2 0x100 EXP DUP2 SLOAD DUP2 PUSH1 0xFF MUL NOT AND SWAP1 DUP4 ISZERO ISZERO MUL OR SWAP1 SSTORE POP DUP3 PUSH32 0xCC296A21951F3E57F21AFB08547D835A0A9F0F06CC2867009CBE0CAE44D36BE9 PUSH1 0x40 MLOAD PUSH1 0x40 MLOAD DUP1 SWAP2 SUB SWAP1 LOG2 JUMPDEST POP POP POP JUMP JUMPDEST PUSH1 0x40 MLOAD DUP1 PUSH2 0x100 ADD PUSH1 0x40 MSTORE DUP1 PUSH0 DUP2 MSTORE PUSH1 0x20 ADD PUSH0 PUSH20 0xFFFFFFFFFFFFFFFFFFFFFFFFFFFFFFFFFFFFFFFF AND DUP2 MSTORE PUSH1 0x20 ADD PUSH0 PUSH1 0x3 DUP2 GT ISZERO PUSH2 0x170D JUMPI PUSH2 0x170C PUSH2 0x191E JUMP JUMPDEST JUMPDEST DUP2 MSTORE PUSH1 0x20 ADD PUSH0 DUP2 MSTORE PUSH1 0x20 ADD PUSH0 DUP2 MSTORE PUSH1 0x20 ADD PUSH0 PUSH1 0xFF AND DUP2 MSTORE PUSH1 0x20 ADD PUSH0 ISZERO ISZERO DUP2 MSTORE PUSH1 0x20 ADD PUSH0 ISZERO ISZERO DUP2 MSTORE POP SWAP1 JUMP JUMPDEST PUSH0 PUSH0 REVERT JUMPDEST PUSH0 PUSH20 0xFFFFFFFFFFFFFFFFFFFFFFFFFFFFFFFFFFFFFFFF DUP3 AND SWAP1 POP SWAP2 SWAP1 POP JUMP JUMPDEST PUSH0 PUSH2 0x1765 DUP3 PUSH2 0x173C JUMP JUMPDEST SWAP1 POP SWAP2 SWAP1 POP JUMP JUMPDEST PUSH2 0x1775 DUP2 PUSH2 0x175B JUMP JUMPDEST DUP2 EQ PUSH2 0x177F JUMPI PUSH0 PUSH0 REVERT JUMPDEST POP JUMP JUMPDEST PUSH0 DUP2 CALLDATALOAD SWAP1 POP PUSH2 0x1790 DUP2 PUSH2 0x176C JUMP JUMPDEST SWAP3 SWAP2 POP POP JUMP JUMPDEST PUSH0 PUSH1 0x20 DUP3 DUP5 SUB SLT ISZERO PUSH2 0x17AB JUMPI PUSH2 0x17AA PUSH2 0x1738 JUMP JUMPDEST JUMPDEST PUSH0 PUSH2 0x17B8 DUP5 DUP3 DUP6 ADD PUSH2 0x1782 JUMP JUMPDEST SWAP2 POP POP SWAP3 SWAP2 POP POP JUMP JUMPDEST PUSH0 DUP2 MLOAD SWAP1 POP SWAP2 SWAP1 POP JUMP JUMPDEST PUSH0 DUP3 DUP3 MSTORE PUSH1 0x20 DUP3 ADD SWAP1 POP SWAP3 SWAP2 POP POP JUMP JUMPDEST PUSH0 DUP2 SWAP1 POP PUSH1 0x20 DUP3 ADD SWAP1 POP SWAP2 SWAP1 POP JUMP JUMPDEST PUSH0 DUP2 SWAP1 POP SWAP2 SWAP1 POP JUMP JUMPDEST PUSH2 0x17FC DUP2 PUSH2 0x17EA JUMP JUMPDEST DUP3 MSTORE POP POP JUMP JUMPDEST PUSH0 PUSH2 0x180D DUP4 DUP4 PUSH2 0x17F3 JUMP JUMPDEST PUSH1 0x20 DUP4 ADD SWAP1 POP SWAP3 SWAP2 POP POP JUMP JUMPDEST PUSH0 PUSH1 0x20 DUP3 ADD SWAP1 POP SWAP2 SWAP1 POP JUMP JUMPDEST PUSH0 PUSH2 0x182F DUP3 PUSH2 0x17C1 JUMP JUMPDEST PUSH2 0x1839 DUP2 DUP6 PUSH2 0x17CB JUMP JUMPDEST SWAP4 POP PUSH2 0x1844 DUP4 PUSH2 0x17DB JUMP JUMPDEST DUP1 PUSH0 JUMPDEST DUP4 DUP2 LT ISZERO PUSH2 0x1874 JUMPI DUP2 MLOAD PUSH2 0x185B DUP9 DUP3 PUSH2 0x1802 JUMP JUMPDEST SWAP8 POP PUSH2 0x1866 DUP4 PUSH2 0x1819 JUMP JUMPDEST SWAP3 POP POP PUSH1 0x1 DUP2 ADD SWAP1 POP PUSH2 0x1847 JUMP JUMPDEST POP DUP6 SWAP4 POP POP POP POP SWAP3 SWAP2 POP POP JUMP JUMPDEST PUSH0 PUSH1 0x20 DUP3 ADD SWAP1 POP DUP2 DUP2 SUB PUSH0 DUP4 ADD MSTORE PUSH2 0x1899 DUP2 DUP5 PUSH2 0x1825 JUMP JUMPDEST SWAP1 POP SWAP3 SWAP2 POP POP JUMP JUMPDEST PUSH2 0x18AA DUP2 PUSH2 0x17EA JUMP JUMPDEST DUP3 MSTORE POP POP JUMP JUMPDEST PUSH0 PUSH1 0x20 DUP3 ADD SWAP1 POP PUSH2 0x18C3 PUSH0 DUP4 ADD DUP5 PUSH2 0x18A1 JUMP JUMPDEST SWAP3 SWAP2 POP POP JUMP JUMPDEST PUSH2 0x18D2 DUP2 PUSH2 0x17EA JUMP JUMPDEST DUP2 EQ PUSH2 0x18DC JUMPI PUSH0 PUSH0 REVERT JUMPDEST POP JUMP JUMPDEST PUSH0 DUP2 CALLDATALOAD SWAP1 POP PUSH2 0x18ED DUP2 PUSH2 0x18C9 JUMP JUMPDEST SWAP3 SWAP2 POP POP JUMP JUMPDEST PUSH0 PUSH1 0x20 DUP3 DUP5 SUB SLT ISZERO PUSH2 0x1908 JUMPI PUSH2 0x1907 PUSH2 0x1738 JUMP JUMPDEST JUMPDEST PUSH0 PUSH2 0x1915 DUP5 DUP3 DUP6 ADD PUSH2 0x18DF JUMP JUMPDEST SWAP2 POP POP SWAP3 SWAP2 POP POP JUMP JUMPDEST PUSH32 0x4E487B7100000000000000000000000000000000000000000000000000000000 PUSH0 MSTORE PUSH1 0x21 PUSH1 0x4 MSTORE PUSH1 0x24 PUSH0 REVERT JUMPDEST PUSH1 0x4 DUP2 LT PUSH2 0x195C JUMPI PUSH2 0x195B PUSH2 0x191E JUMP JUMPDEST JUMPDEST POP JUMP JUMPDEST PUSH0 DUP2 SWAP1 POP PUSH2 0x196C DUP3 PUSH2 0x194B JUMP JUMPDEST SWAP2 SWAP1 POP JUMP JUMPDEST PUSH0 PUSH2 0x197B DUP3 PUSH2 0x195F JUMP JUMPDEST SWAP1 POP SWAP2 SWAP1 POP JUMP JUMPDEST PUSH2 0x198B DUP2 PUSH2 0x1971 JUMP JUMPDEST DUP3 MSTORE POP POP JUMP JUMPDEST PUSH0 PUSH1 0x20 DUP3 ADD SWAP1 POP PUSH2 0x19A4 PUSH0 DUP4 ADD DUP5 PUSH2 0x1982 JUMP JUMPDEST SWAP3 SWAP2 POP POP JUMP JUMPDEST PUSH0 PUSH1 0xFF DUP3 AND SWAP1 POP SWAP2 SWAP1 POP JUMP JUMPDEST PUSH2 0x19BF DUP2 PUSH2 0x19AA JUMP JUMPDEST DUP3 MSTORE POP POP JUMP JUMPDEST PUSH0 PUSH1 0x20 DUP3 ADD SWAP1 POP PUSH2 0x19D8 PUSH0 DUP4 ADD DUP5 PUSH2 0x19B6 JUMP JUMPDEST SWAP3 SWAP2 POP POP JUMP JUMPDEST PUSH0 PUSH0 PUSH1 0x40 DUP4 DUP6 SUB SLT ISZERO PUSH2 0x19F4 JUMPI PUSH2 0x19F3 PUSH2 0x1738 JUMP JUMPDEST JUMPDEST PUSH0 PUSH2 0x1A01 DUP6 DUP3 DUP7 ADD PUSH2 0x1782 JUMP JUMPDEST SWAP3 POP POP PUSH1 0x20 PUSH2 0x1A12 DUP6 DUP3 DUP7 ADD PUSH2 0x18DF JUMP JUMPDEST SWAP2 POP POP SWAP3 POP SWAP3 SWAP1 POP JUMP JUMPDEST PUSH2 0x1A25 DUP2 PUSH2 0x175B JUMP JUMPDEST DUP3 MSTORE POP POP JUMP JUMPDEST PUSH0 PUSH1 0x20 DUP3 ADD SWAP1 POP PUSH2 0x1A3E PUSH0 DUP4 ADD DUP5 PUSH2 0x1A1C JUMP JUMPDEST SWAP3 SWAP2 POP POP JUMP JUMPDEST PUSH0 DUP2 ISZERO ISZERO SWAP1 POP SWAP2 SWAP1 POP JUMP JUMPDEST PUSH2 0x1A58 DUP2 PUSH2 0x1A44 JUMP JUMPDEST DUP3 MSTORE POP POP JUMP JUMPDEST PUSH0 PUSH2 0x100 DUP3 ADD SWAP1 POP PUSH2 0x1A72 PUSH0 DUP4 ADD DUP12 PUSH2 0x18A1 JUMP JUMPDEST PUSH2 0x1A7F PUSH1 0x20 DUP4 ADD DUP11 PUSH2 0x1A1C JUMP JUMPDEST PUSH2 0x1A8C PUSH1 0x40 DUP4 ADD DUP10 PUSH2 0x1982 JUMP JUMPDEST PUSH2 0x1A99 PUSH1 0x60 DUP4 ADD DUP9 PUSH2 0x18A1 JUMP JUMPDEST PUSH2 0x1AA6 PUSH1 0x80 DUP4 ADD DUP8 PUSH2 0x18A1 JUMP JUMPDEST PUSH2 0x1AB3 PUSH1 0xA0 DUP4 ADD DUP7 PUSH2 0x19B6 JUMP JUMPDEST PUSH2 0x1AC0 PUSH1 0xC0 DUP4 ADD DUP6 PUSH2 0x1A4F JUMP JUMPDEST PUSH2 0x1ACD PUSH1 0xE0 DUP4 ADD DUP5 PUSH2 0x1A4F JUMP JUMPDEST SWAP10 SWAP9 POP POP POP POP POP POP POP POP POP JUMP JUMPDEST PUSH2 0x1AE3 DUP2 PUSH2 0x175B JUMP JUMPDEST DUP3 MSTORE POP POP JUMP JUMPDEST PUSH2 0x1AF2 DUP2 PUSH2 0x1971 JUMP JUMPDEST DUP3 MSTORE POP POP JUMP JUMPDEST PUSH2 0x1B01 DUP2 PUSH2 0x19AA JUMP JUMPDEST DUP3 MSTORE POP POP JUMP JUMPDEST PUSH2 0x1B10 DUP2 PUSH2 0x1A44 JUMP JUMPDEST DUP3 MSTORE POP POP JUMP JUMPDEST PUSH2 0x100 DUP3 ADD PUSH0 DUP3 ADD MLOAD PUSH2 0x1B2B PUSH0 DUP6 ADD DUP3 PUSH2 0x17F3 JUMP JUMPDEST POP PUSH1 0x20 DUP3 ADD MLOAD PUSH2 0x1B3E PUSH1 0x20 DUP6 ADD DUP3 PUSH2 0x1ADA JUMP JUMPDEST POP PUSH1 0x40 DUP3 ADD MLOAD PUSH2 0x1B51 PUSH1 0x40 DUP6 ADD DUP3 PUSH2 0x1AE9 JUMP JUMPDEST POP PUSH1 0x60 DUP3 ADD MLOAD PUSH2 0x1B64 PUSH1 0x60 DUP6 ADD DUP3 PUSH2 0x17F3 JUMP JUMPDEST POP PUSH1 0x80 DUP3 ADD MLOAD PUSH2 0x1B77 PUSH1 0x80 DUP6 ADD DUP3 PUSH2 0x17F3 JUMP JUMPDEST POP PUSH1 0xA0 DUP3 ADD MLOAD PUSH2 0x1B8A PUSH1 0xA0 DUP6 ADD DUP3 PUSH2 0x1AF8 JUMP JUMPDEST POP PUSH1 0xC0 DUP3 ADD MLOAD PUSH2 0x1B9D PUSH1 0xC0 DUP6 ADD DUP3 PUSH2 0x1B07 JUMP JUMPDEST POP PUSH1 0xE0 DUP3 ADD MLOAD PUSH2 0x1BB0 PUSH1 0xE0 DUP6 ADD DUP3 PUSH2 0x1B07 JUMP JUMPDEST POP POP POP POP JUMP JUMPDEST PUSH0 PUSH2 0x100 DUP3 ADD SWAP1 POP PUSH2 0x1BCA PUSH0 DUP4 ADD DUP5 PUSH2 0x1B16 JUMP JUMPDEST SWAP3 SWAP2 POP POP JUMP JUMPDEST PUSH0 DUP3 DUP3 MSTORE PUSH1 0x20 DUP3 ADD SWAP1 POP SWAP3 SWAP2 POP POP JUMP JUMPDEST PUSH32 0x4F6E6C79206F776E657221000000000000000000000000000000000000000000 PUSH0 DUP3 ADD MSTORE POP JUMP JUMPDEST PUSH0 PUSH2 0x1C14 PUSH1 0xB DUP4 PUSH2 0x1BD0 JUMP JUMPDEST SWAP2 POP PUSH2 0x1C1F DUP3 PUSH2 0x1BE0 JUMP JUMPDEST PUSH1 0x20 DUP3 ADD SWAP1 POP SWAP2 SWAP1 POP JUMP JUMPDEST PUSH0 PUSH1 0x20 DUP3 ADD SWAP1 POP DUP2 DUP2 SUB PUSH0 DUP4 ADD MSTORE PUSH2 0x1C41 DUP2 PUSH2 0x1C08 JUMP JUMPDEST SWAP1 POP SWAP2 SWAP1 POP JUMP JUMPDEST PUSH32 0x4E6F7468696E6720746F20776974686472617700000000000000000000000000 PUSH0 DUP3 ADD MSTORE POP JUMP JUMPDEST PUSH0 PUSH2 0x1C7C PUSH1 0x13 DUP4 PUSH2 0x1BD0 JUMP JUMPDEST SWAP2 POP PUSH2 0x1C87 DUP3 PUSH2 0x1C48 JUMP JUMPDEST PUSH1 0x20 DUP3 ADD SWAP1 POP SWAP2 SWAP1 POP JUMP JUMPDEST PUSH0 PUSH1 0x20 DUP3 ADD SWAP1 POP DUP2 DUP2 SUB PUSH0 DUP4 ADD MSTORE PUSH2 0x1CA9 DUP2 PUSH2 0x1C70 JUMP JUMPDEST SWAP1 POP SWAP2 SWAP1 POP JUMP JUMPDEST PUSH0 DUP2 SWAP1 POP SWAP3 SWAP2 POP POP JUMP JUMPDEST POP JUMP JUMPDEST PUSH0 PUSH2 0x1CC8 PUSH0 DUP4 PUSH2 0x1CB0 JUMP JUMPDEST SWAP2 POP PUSH2 0x1CD3 DUP3 PUSH2 0x1CBA JUMP JUMPDEST PUSH0 DUP3 ADD SWAP1 POP SWAP2 SWAP1 POP JUMP JUMPDEST PUSH0 PUSH2 0x1CE7 DUP3 PUSH2 0x1CBD JUMP JUMPDEST SWAP2 POP DUP2 SWAP1 POP SWAP2 SWAP1 POP JUMP JUMPDEST PUSH32 0x4661696C6564207472616E736665720000000000000000000000000000000000 PUSH0 DUP3 ADD MSTORE POP JUMP JUMPDEST PUSH0 PUSH2 0x1D25 PUSH1 0xF DUP4 PUSH2 0x1BD0 JUMP JUMPDEST SWAP2 POP PUSH2 0x1D30 DUP3 PUSH2 0x1CF1 JUMP JUMPDEST PUSH1 0x20 DUP3 ADD SWAP1 POP SWAP2 SWAP1 POP JUMP JUMPDEST PUSH0 PUSH1 0x20 DUP3 ADD SWAP1 POP DUP2 DUP2 SUB PUSH0 DUP4 ADD MSTORE PUSH2 0x1D52 DUP2 PUSH2 0x1D19 JUMP JUMPDEST SWAP1 POP SWAP2 SWAP1 POP JUMP JUMPDEST PUSH32 0x596F7520617265206E6F7420746865206F776E65722100000000000000000000 PUSH0 DUP3 ADD MSTORE POP JUMP JUMPDEST PUSH0 PUSH2 0x1D8D PUSH1 0x16 DUP4 PUSH2 0x1BD0 JUMP JUMPDEST SWAP2 POP PUSH2 0x1D98 DUP3 PUSH2 0x1D59 JUMP JUMPDEST PUSH1 0x20 DUP3 ADD SWAP1 POP SWAP2 SWAP1 POP JUMP JUMPDEST PUSH0 PUSH1 0x20 DUP3 ADD SWAP1 POP DUP2 DUP2 SUB PUSH0 DUP4 ADD MSTORE PUSH2 0x1DBA DUP2 PUSH2 0x1D81 JUMP JUMPDEST SWAP1 POP SWAP2 SWAP1 POP JUMP JUMPDEST PUSH32 0x496E73756666696369656E742062616C616E6365210000000000000000000000 PUSH0 DUP3 ADD MSTORE POP JUMP JUMPDEST PUSH0 PUSH2 0x1DF5 PUSH1 0x15 DUP4 PUSH2 0x1BD0 JUMP JUMPDEST SWAP2 POP PUSH2 0x1E00 DUP3 PUSH2 0x1DC1 JUMP JUMPDEST PUSH1 0x20 DUP3 ADD SWAP1 POP SWAP2 SWAP1 POP JUMP JUMPDEST PUSH0 PUSH1 0x20 DUP3 ADD SWAP1 POP DUP2 DUP2 SUB PUSH0 DUP4 ADD MSTORE PUSH2 0x1E22 DUP2 PUSH2 0x1DE9 JUMP JUMPDEST SWAP1 POP SWAP2 SWAP1 POP JUMP JUMPDEST PUSH32 0x4E487B7100000000000000000000000000000000000000000000000000000000 PUSH0 MSTORE PUSH1 0x11 PUSH1 0x4 MSTORE PUSH1 0x24 PUSH0 REVERT JUMPDEST PUSH0 PUSH2 0x1E60 DUP3 PUSH2 0x17EA JUMP JUMPDEST SWAP2 POP PUSH32 0xFFFFFFFFFFFFFFFFFFFFFFFFFFFFFFFFFFFFFFFFFFFFFFFFFFFFFFFFFFFFFFFF DUP3 SUB PUSH2 0x1E92 JUMPI PUSH2 0x1E91 PUSH2 0x1E29 JUMP JUMPDEST JUMPDEST PUSH1 0x1 DUP3 ADD SWAP1 POP SWAP2 SWAP1 POP JUMP JUMPDEST PUSH0 PUSH2 0x1EA7 DUP3 PUSH2 0x17EA JUMP JUMPDEST SWAP2 POP PUSH2 0x1EB2 DUP4 PUSH2 0x17EA JUMP JUMPDEST SWAP3 POP DUP3 DUP3 SUB SWAP1 POP DUP2 DUP2 GT ISZERO PUSH2 0x1ECA JUMPI PUSH2 0x1EC9 PUSH2 0x1E29 JUMP JUMPDEST JUMPDEST SWAP3 SWAP2 POP POP JUMP JUMPDEST PUSH32 0x4E487B7100000000000000000000000000000000000000000000000000000000 PUSH0 MSTORE PUSH1 0x12 PUSH1 0x4 MSTORE PUSH1 0x24 PUSH0 REVERT JUMPDEST PUSH0 PUSH2 0x1F07 DUP3 PUSH2 0x17EA JUMP JUMPDEST SWAP2 POP PUSH2 0x1F12 DUP4 PUSH2 0x17EA JUMP JUMPDEST SWAP3 POP DUP3 PUSH2 0x1F22 JUMPI PUSH2 0x1F21 PUSH2 0x1ED0 JUMP JUMPDEST JUMPDEST DUP3 DUP3 DIV SWAP1 POP SWAP3 SWAP2 POP POP JUMP JUMPDEST PUSH0 PUSH2 0x1F37 DUP3 PUSH2 0x17EA JUMP JUMPDEST SWAP2 POP PUSH2 0x1F42 DUP4 PUSH2 0x17EA JUMP JUMPDEST SWAP3 POP DUP3 DUP3 MUL PUSH2 0x1F50 DUP2 PUSH2 0x17EA JUMP JUMPDEST SWAP2 POP DUP3 DUP3 DIV DUP5 EQ DUP4 ISZERO OR PUSH2 0x1F67 JUMPI PUSH2 0x1F66 PUSH2 0x1E29 JUMP JUMPDEST JUMPDEST POP SWAP3 SWAP2 POP POP JUMP JUMPDEST PUSH32 0x506C616E7420646F65736E277420657869737421000000000000000000000000 PUSH0 DUP3 ADD MSTORE POP JUMP JUMPDEST PUSH0 PUSH2 0x1FA2 PUSH1 0x14 DUP4 PUSH2 0x1BD0 JUMP JUMPDEST SWAP2 POP PUSH2 0x1FAD DUP3 PUSH2 0x1F6E JUMP JUMPDEST PUSH1 0x20 DUP3 ADD SWAP1 POP SWAP2 SWAP1 POP JUMP JUMPDEST PUSH0 PUSH1 0x20 DUP3 ADD SWAP1 POP DUP2 DUP2 SUB PUSH0 DUP4 ADD MSTORE PUSH2 0x1FCF DUP2 PUSH2 0x1F96 JUMP JUMPDEST SWAP1 POP SWAP2 SWAP1 POP JUMP JUMPDEST PUSH32 0x506C616E7420616C726561647920646561642100000000000000000000000000 PUSH0 DUP3 ADD MSTORE POP JUMP JUMPDEST PUSH0 PUSH2 0x200A PUSH1 0x13 DUP4 PUSH2 0x1BD0 JUMP JUMPDEST SWAP2 POP PUSH2 0x2015 DUP3 PUSH2 0x1FD6 JUMP JUMPDEST PUSH1 0x20 DUP3 ADD SWAP1 POP SWAP2 SWAP1 POP JUMP JUMPDEST PUSH0 PUSH1 0x20 DUP3 ADD SWAP1 POP DUP2 DUP2 SUB PUSH0 DUP4 ADD MSTORE PUSH2 0x2037 DUP2 PUSH2 0x1FFE JUMP JUMPDEST SWAP1 POP SWAP2 SWAP1 POP JUMP JUMPDEST PUSH0 DUP2 SWAP1 POP SWAP2 SWAP1 POP JUMP JUMPDEST PUSH0 DUP2 SWAP1 POP SWAP2 SWAP1 POP JUMP JUMPDEST PUSH0 PUSH2 0x206A PUSH2 0x2065 PUSH2 0x2060 DUP5 PUSH2 0x203E JUMP JUMPDEST PUSH2 0x2047 JUMP JUMPDEST PUSH2 0x19AA JUMP JUMPDEST SWAP1 POP SWAP2 SWAP1 POP JUMP JUMPDEST PUSH2 0x207A DUP2 PUSH2 0x2050 JUMP JUMPDEST DUP3 MSTORE POP POP JUMP JUMPDEST PUSH0 PUSH1 0x20 DUP3 ADD SWAP1 POP PUSH2 0x2093 PUSH0 DUP4 ADD DUP5 PUSH2 0x2071 JUMP JUMPDEST SWAP3 SWAP2 POP POP JUMP JUMPDEST PUSH32 0x506C616E74206E6F7420626C6F6F6D696E672079657421000000000000000000 PUSH0 DUP3 ADD MSTORE POP JUMP JUMPDEST PUSH0 PUSH2 0x20CD PUSH1 0x17 DUP4 PUSH2 0x1BD0 JUMP JUMPDEST SWAP2 POP PUSH2 0x20D8 DUP3 PUSH2 0x2099 JUMP JUMPDEST PUSH1 0x20 DUP3 ADD SWAP1 POP SWAP2 SWAP1 POP JUMP JUMPDEST PUSH0 PUSH1 0x20 DUP3 ADD SWAP1 POP DUP2 DUP2 SUB PUSH0 DUP4 ADD MSTORE PUSH2 0x20FA DUP2 PUSH2 0x20C1 JUMP JUMPDEST SWAP1 POP SWAP2 SWAP1 POP JUMP JUMPDEST PUSH32 0x496E73756666696369656E7420636F6E74726163742062616C616E6365210000 PUSH0 DUP3 ADD MSTORE POP JUMP JUMPDEST PUSH0 PUSH2 0x2135 PUSH1 0x1E DUP4 PUSH2 0x1BD0 JUMP JUMPDEST SWAP2 POP PUSH2 0x2140 DUP3 PUSH2 0x2101 JUMP JUMPDEST PUSH1 0x20 DUP3 ADD SWAP1 POP SWAP2 SWAP1 POP JUMP JUMPDEST PUSH0 PUSH1 0x20 DUP3 ADD SWAP1 POP DUP2 DUP2 SUB PUSH0 DUP4 ADD MSTORE PUSH2 0x2162 DUP2 PUSH2 0x2129 JUMP JUMPDEST SWAP1 POP SWAP2 SWAP1 POP JUMP JUMPDEST PUSH32 0x4661696C65642073656E64696E67207265776172642100000000000000000000 PUSH0 DUP3 ADD MSTORE POP JUMP JUMPDEST PUSH0 PUSH2 0x219D PUSH1 0x16 DUP4 PUSH2 0x1BD0 JUMP JUMPDEST SWAP2 POP PUSH2 0x21A8 DUP3 PUSH2 0x2169 JUMP JUMPDEST PUSH1 0x20 DUP3 ADD SWAP1 POP SWAP2 SWAP1 POP JUMP JUMPDEST PUSH0 PUSH1 0x20 DUP3 ADD SWAP1 POP DUP2 DUP2 SUB PUSH0 DUP4 ADD MSTORE PUSH2 0x21CA DUP2 PUSH2 0x2191 JUMP JUMPDEST SWAP1 POP SWAP2 SWAP1 POP JUMP INVALID LOG2 PUSH5 0x6970667358 0x22 SLT KECCAK256 EXTCODECOPY SSTORE ADDRESS RJUMPI 0xF51A SHL EXTCODESIZE SIGNEXTEND XOR 0xEA 0x27 SWAP8 0xC9 EXP PUSH31 0x59A189B144A94740F61B8B3766F516B964736F6C634300081E003300000000 "
				},
				"gasEstimates": {
					"creation": {
						"codeDepositCost": "1742200",
						"executionCost": "26097",
						"totalCost": "1768297"
					},
					"external": {
						"PLANT_PRICE()": "347",
						"REWARD_HARVEST()": "436",
						"STAGE_DURATION()": "393",
						"WATER_DEPLETION_RATE()": "420",
						"WATER_DEPLETION_TIME()": "392",
						"calculateWaterLevel(uint256)": "infinite",
						"deposit()": "2616",
						"getPlant(uint256)": "infinite",
						"getStatusUserPlant(uint256)": "5299",
						"getUserPlants(address)": "infinite",
						"harvestPlant(uint256)": "infinite",
						"owner()": "2619",
						"plantCounter()": "2492",
						"plantSeed()": "infinite",
						"plants(uint256)": "infinite",
						"updatePlantStage(uint256)": "infinite",
						"userPlants(address,uint256)": "infinite",
						"waterPlant(uint256)": "infinite",
						"withdraw()": "infinite"
					},
					"internal": {
						"updateWaterLevel(uint256)": "infinite"
					}
				},
				"methodIdentifiers": {
					"PLANT_PRICE()": "cfc9a5f8",
					"REWARD_HARVEST()": "cbf64268",
					"STAGE_DURATION()": "51f9efde",
					"WATER_DEPLETION_RATE()": "bacb5ebd",
					"WATER_DEPLETION_TIME()": "7ed4c5be",
					"calculateWaterLevel(uint256)": "754e150d",
					"deposit()": "d0e30db0",
					"getPlant(uint256)": "ed0b1f5f",
					"getStatusUserPlant(uint256)": "5abad56b",
					"getUserPlants(address)": "30cec0eb",
					"harvestPlant(uint256)": "e38f8448",
					"owner()": "8da5cb5b",
					"plantCounter()": "9c471749",
					"plantSeed()": "74119a38",
					"plants(uint256)": "8dd2361c",
					"updatePlantStage(uint256)": "ddd42596",
					"userPlants(address,uint256)": "8aee578b",
					"waterPlant(uint256)": "9886bcfa",
					"withdraw()": "3ccfd60b"
				}
			},
			"storageLayout": {
				"storage": [
					{
						"astId": 29,
						"contract": "sesi-1-liskgarden/contracts/20-LiskGarden.sol:LiskGarden",
						"label": "plants",
						"offset": 0,
						"slot": "0",
						"type": "t_mapping(t_uint256,t_struct(Plant)24_storage)"
					},
					{
						"astId": 34,
						"contract": "sesi-1-liskgarden/contracts/20-LiskGarden.sol:LiskGarden",
						"label": "userPlants",
						"offset": 0,
						"slot": "1",
						"type": "t_mapping(t_address,t_array(t_uint256)dyn_storage)"
					},
					{
						"astId": 36,
						"contract": "sesi-1-liskgarden/contracts/20-LiskGarden.sol:LiskGarden",
						"label": "plantCounter",
						"offset": 0,
						"slot": "2",
						"type": "t_uint256"
					},
					{
						"astId": 38,
						"contract": "sesi-1-liskgarden/contracts/20-LiskGarden.sol:LiskGarden",
						"label": "owner",
						"offset": 0,
						"slot": "3",
						"type": "t_address"
					}
				],
				"types": {
					"t_address": {
						"encoding": "inplace",
						"label": "address",
						"numberOfBytes": "20"
					},
					"t_array(t_uint256)dyn_storage": {
						"base": "t_uint256",
						"encoding": "dynamic_array",
						"label": "uint256[]",
						"numberOfBytes": "32"
					},
					"t_bool": {
						"encoding": "inplace",
						"label": "bool",
						"numberOfBytes": "1"
					},
					"t_enum(GrowthStage)6": {
						"encoding": "inplace",
						"label": "enum LiskGarden.GrowthStage",
						"numberOfBytes": "1"
					},
					"t_mapping(t_address,t_array(t_uint256)dyn_storage)": {
						"encoding": "mapping",
						"key": "t_address",
						"label": "mapping(address => uint256[])",
						"numberOfBytes": "32",
						"value": "t_array(t_uint256)dyn_storage"
					},
					"t_mapping(t_uint256,t_struct(Plant)24_storage)": {
						"encoding": "mapping",
						"key": "t_uint256",
						"label": "mapping(uint256 => struct LiskGarden.Plant)",
						"numberOfBytes": "32",
						"value": "t_struct(Plant)24_storage"
					},
					"t_struct(Plant)24_storage": {
						"encoding": "inplace",
						"label": "struct LiskGarden.Plant",
						"members": [
							{
								"astId": 8,
								"contract": "sesi-1-liskgarden/contracts/20-LiskGarden.sol:LiskGarden",
								"label": "id",
								"offset": 0,
								"slot": "0",
								"type": "t_uint256"
							},
							{
								"astId": 10,
								"contract": "sesi-1-liskgarden/contracts/20-LiskGarden.sol:LiskGarden",
								"label": "owner",
								"offset": 0,
								"slot": "1",
								"type": "t_address"
							},
							{
								"astId": 13,
								"contract": "sesi-1-liskgarden/contracts/20-LiskGarden.sol:LiskGarden",
								"label": "stage",
								"offset": 20,
								"slot": "1",
								"type": "t_enum(GrowthStage)6"
							},
							{
								"astId": 15,
								"contract": "sesi-1-liskgarden/contracts/20-LiskGarden.sol:LiskGarden",
								"label": "plantedDate",
								"offset": 0,
								"slot": "2",
								"type": "t_uint256"
							},
							{
								"astId": 17,
								"contract": "sesi-1-liskgarden/contracts/20-LiskGarden.sol:LiskGarden",
								"label": "lastWatered",
								"offset": 0,
								"slot": "3",
								"type": "t_uint256"
							},
							{
								"astId": 19,
								"contract": "sesi-1-liskgarden/contracts/20-LiskGarden.sol:LiskGarden",
								"label": "waterLevel",
								"offset": 0,
								"slot": "4",
								"type": "t_uint8"
							},
							{
								"astId": 21,
								"contract": "sesi-1-liskgarden/contracts/20-LiskGarden.sol:LiskGarden",
								"label": "exists",
								"offset": 1,
								"slot": "4",
								"type": "t_bool"
							},
							{
								"astId": 23,
								"contract": "sesi-1-liskgarden/contracts/20-LiskGarden.sol:LiskGarden",
								"label": "isDead",
								"offset": 2,
								"slot": "4",
								"type": "t_bool"
							}
						],
						"numberOfBytes": "160"
					},
					"t_uint256": {
						"encoding": "inplace",
						"label": "uint256",
						"numberOfBytes": "32"
					},
					"t_uint8": {
						"encoding": "inplace",
						"label": "uint8",
						"numberOfBytes": "1"
					}
				}
			},
			"userdoc": {
				"kind": "user",
				"methods": {},
				"version": 1
			}
		}
	}
}