{
	"sesi-1-liskgarden/contracts/17-LearnVisibility.sol": {
		"LearnVisibility": {
			"abi": [
				{
					"inputs": [],
					"name": "externalFunction",
					"outputs": [
						{
							"internalType": "string",
							"name": "",
							"type": "string"
						}
					],
					"stateMutability": "pure",
					"type": "function"
				},
				{
					"inputs": [],
					"name": "getPrivateVar",
					"outputs": [
						{
							"internalType": "uint256",
							"name": "",
							"type": "uint256"
						}
					],
					"stateMutability": "view",
					"type": "function"
				},
				{
					"inputs": [],
					"name": "publicFunction",
					"outputs": [
						{
							"internalType": "string",
							"name": "",
							"type": "string"
						}
					],
					"stateMutability": "pure",
					"type": "function"
				},
				{
					"inputs": [],
					"name": "publicVar",
					"outputs": [
						{
							"internalType": "uint256",
							"name": "",
							"type": "uint256"
						}
					],
					"stateMutability": "view",
					"type": "function"
				},
				{
					"inputs": [],
					"name": "testInternalCall",
					"outputs": [
						{
							"internalType": "string",
							"name": "",
							"type": "string"
						}
					],
					"stateMutability": "pure",
					"type": "function"
				}
			],
			"devdoc": {
				"kind": "dev",
				"methods": {},
				"version": 1
			},
			"evm": {
				"assembly": "    /* \"sesi-1-liskgarden/contracts/17-LearnVisibility.sol\":61:914  contract LearnVisibility {... */\n  mstore(0x40, 0x80)\n    /* \"sesi-1-liskgarden/contracts/17-LearnVisibility.sol\":120:123  100 */\n  0x64\n    /* \"sesi-1-liskgarden/contracts/17-LearnVisibility.sol\":93:123  uint256 public publicVar = 100 */\n  0x00\n  sstore\n    /* \"sesi-1-liskgarden/contracts/17-LearnVisibility.sol\":159:162  200 */\n  0xc8\n    /* \"sesi-1-liskgarden/contracts/17-LearnVisibility.sol\":130:162  uint256 private privateVar = 200 */\n  0x01\n  sstore\n    /* \"sesi-1-liskgarden/contracts/17-LearnVisibility.sol\":200:203  300 */\n  0x012c\n    /* \"sesi-1-liskgarden/contracts/17-LearnVisibility.sol\":169:203  uint256 internal internalVar = 300 */\n  0x02\n  sstore\n    /* \"sesi-1-liskgarden/contracts/17-LearnVisibility.sol\":61:914  contract LearnVisibility {... */\n  callvalue\n  dup1\n  iszero\n  tag_1\n  jumpi\n  revert(0x00, 0x00)\ntag_1:\n  pop\n  dataSize(sub_0)\n  dup1\n  dataOffset(sub_0)\n  0x00\n  codecopy\n  0x00\n  return\nstop\n\nsub_0: assembly {\n        /* \"sesi-1-liskgarden/contracts/17-LearnVisibility.sol\":61:914  contract LearnVisibility {... */\n      mstore(0x40, 0x80)\n      callvalue\n      dup1\n      iszero\n      tag_1\n      jumpi\n      revert(0x00, 0x00)\n    tag_1:\n      pop\n      jumpi(tag_2, lt(calldatasize, 0x04))\n      shr(0xe0, calldataload(0x00))\n      dup1\n      0x1151fad8\n      eq\n      tag_3\n      jumpi\n      dup1\n      0x3a32b549\n      eq\n      tag_4\n      jumpi\n      dup1\n      0x5cd7815b\n      eq\n      tag_5\n      jumpi\n      dup1\n      0x74d47d20\n      eq\n      tag_6\n      jumpi\n      dup1\n      0x7b5d520b\n      eq\n      tag_7\n      jumpi\n    tag_2:\n      revert(0x00, 0x00)\n        /* \"sesi-1-liskgarden/contracts/17-LearnVisibility.sol\":93:123  uint256 public publicVar = 100 */\n    tag_3:\n      tag_8\n      tag_9\n      jump\t// in\n    tag_8:\n      mload(0x40)\n      tag_10\n      swap2\n      swap1\n      tag_11\n      jump\t// in\n    tag_10:\n      mload(0x40)\n      dup1\n      swap2\n      sub\n      swap1\n      return\n        /* \"sesi-1-liskgarden/contracts/17-LearnVisibility.sol\":332:456  function externalFunction() external pure returns (string memory) {... */\n    tag_4:\n      tag_12\n      tag_13\n      jump\t// in\n    tag_12:\n      mload(0x40)\n      tag_14\n      swap2\n      swap1\n      tag_15\n      jump\t// in\n    tag_14:\n      mload(0x40)\n      dup1\n      swap2\n      sub\n      swap1\n      return\n        /* \"sesi-1-liskgarden/contracts/17-LearnVisibility.sol\":704:812  function testInternalCall() public pure returns (string memory) {... */\n    tag_5:\n      tag_16\n      tag_17\n      jump\t// in\n    tag_16:\n      mload(0x40)\n      tag_18\n      swap2\n      swap1\n      tag_15\n      jump\t// in\n    tag_18:\n      mload(0x40)\n      dup1\n      swap2\n      sub\n      swap1\n      return\n        /* \"sesi-1-liskgarden/contracts/17-LearnVisibility.sol\":820:911  function getPrivateVar() public view returns (uint256) {... */\n    tag_6:\n      tag_19\n      tag_20\n      jump\t// in\n    tag_19:\n      mload(0x40)\n      tag_21\n      swap2\n      swap1\n      tag_11\n      jump\t// in\n    tag_21:\n      mload(0x40)\n      dup1\n      swap2\n      sub\n      swap1\n      return\n        /* \"sesi-1-liskgarden/contracts/17-LearnVisibility.sol\":212:324  function publicFunction() public pure returns (string memory) {... */\n    tag_7:\n      tag_22\n      tag_23\n      jump\t// in\n    tag_22:\n      mload(0x40)\n      tag_24\n      swap2\n      swap1\n      tag_15\n      jump\t// in\n    tag_24:\n      mload(0x40)\n      dup1\n      swap2\n      sub\n      swap1\n      return\n        /* \"sesi-1-liskgarden/contracts/17-LearnVisibility.sol\":93:123  uint256 public publicVar = 100 */\n    tag_9:\n      sload(0x00)\n      dup2\n      jump\t// out\n        /* \"sesi-1-liskgarden/contracts/17-LearnVisibility.sol\":332:456  function externalFunction() external pure returns (string memory) {... */\n    tag_13:\n        /* \"sesi-1-liskgarden/contracts/17-LearnVisibility.sol\":383:396  string memory */\n      0x60\n        /* \"sesi-1-liskgarden/contracts/17-LearnVisibility.sol\":409:448  return \"Hanya bisa dipanggil dari luar\" */\n      mload(0x40)\n      dup1\n      0x40\n      add\n      0x40\n      mstore\n      dup1\n      0x1e\n      dup2\n      mstore\n      0x20\n      add\n      0x48616e7961206269736120646970616e6767696c2064617269206c7561720000\n      dup2\n      mstore\n      pop\n      swap1\n      pop\n        /* \"sesi-1-liskgarden/contracts/17-LearnVisibility.sol\":332:456  function externalFunction() external pure returns (string memory) {... */\n      swap1\n      jump\t// out\n        /* \"sesi-1-liskgarden/contracts/17-LearnVisibility.sol\":704:812  function testInternalCall() public pure returns (string memory) {... */\n    tag_17:\n        /* \"sesi-1-liskgarden/contracts/17-LearnVisibility.sol\":753:766  string memory */\n      0x60\n        /* \"sesi-1-liskgarden/contracts/17-LearnVisibility.sol\":786:804  internalFunction() */\n      tag_27\n        /* \"sesi-1-liskgarden/contracts/17-LearnVisibility.sol\":786:802  internalFunction */\n      tag_28\n        /* \"sesi-1-liskgarden/contracts/17-LearnVisibility.sol\":786:804  internalFunction() */\n      jump\t// in\n    tag_27:\n        /* \"sesi-1-liskgarden/contracts/17-LearnVisibility.sol\":779:804  return internalFunction() */\n      swap1\n      pop\n        /* \"sesi-1-liskgarden/contracts/17-LearnVisibility.sol\":704:812  function testInternalCall() public pure returns (string memory) {... */\n      swap1\n      jump\t// out\n        /* \"sesi-1-liskgarden/contracts/17-LearnVisibility.sol\":820:911  function getPrivateVar() public view returns (uint256) {... */\n    tag_20:\n        /* \"sesi-1-liskgarden/contracts/17-LearnVisibility.sol\":866:873  uint256 */\n      0x00\n        /* \"sesi-1-liskgarden/contracts/17-LearnVisibility.sol\":893:903  privateVar */\n      sload(0x01)\n        /* \"sesi-1-liskgarden/contracts/17-LearnVisibility.sol\":886:903  return privateVar */\n      swap1\n      pop\n        /* \"sesi-1-liskgarden/contracts/17-LearnVisibility.sol\":820:911  function getPrivateVar() public view returns (uint256) {... */\n      swap1\n      jump\t// out\n        /* \"sesi-1-liskgarden/contracts/17-LearnVisibility.sol\":212:324  function publicFunction() public pure returns (string memory) {... */\n    tag_23:\n        /* \"sesi-1-liskgarden/contracts/17-LearnVisibility.sol\":259:272  string memory */\n      0x60\n        /* \"sesi-1-liskgarden/contracts/17-LearnVisibility.sol\":285:316  return \"Semua bisa panggil ini\" */\n      mload(0x40)\n      dup1\n      0x40\n      add\n      0x40\n      mstore\n      dup1\n      0x16\n      dup2\n      mstore\n      0x20\n      add\n      0x53656d756120626973612070616e6767696c20696e6900000000000000000000\n      dup2\n      mstore\n      pop\n      swap1\n      pop\n        /* \"sesi-1-liskgarden/contracts/17-LearnVisibility.sol\":212:324  function publicFunction() public pure returns (string memory) {... */\n      swap1\n      jump\t// out\n        /* \"sesi-1-liskgarden/contracts/17-LearnVisibility.sol\":464:578  function internalFunction() internal pure returns (string memory) {... */\n    tag_28:\n        /* \"sesi-1-liskgarden/contracts/17-LearnVisibility.sol\":515:528  string memory */\n      0x60\n        /* \"sesi-1-liskgarden/contracts/17-LearnVisibility.sol\":541:570  return \"Hanya untuk internal\" */\n      mload(0x40)\n      dup1\n      0x40\n      add\n      0x40\n      mstore\n      dup1\n      0x14\n      dup2\n      mstore\n      0x20\n      add\n      0x48616e796120756e74756b20696e7465726e616c000000000000000000000000\n      dup2\n      mstore\n      pop\n      swap1\n      pop\n        /* \"sesi-1-liskgarden/contracts/17-LearnVisibility.sol\":464:578  function internalFunction() internal pure returns (string memory) {... */\n      swap1\n      jump\t// out\n        /* \"#utility.yul\":7:84   */\n    tag_32:\n        /* \"#utility.yul\":44:51   */\n      0x00\n        /* \"#utility.yul\":73:78   */\n      dup2\n        /* \"#utility.yul\":62:78   */\n      swap1\n      pop\n        /* \"#utility.yul\":7:84   */\n      swap2\n      swap1\n      pop\n      jump\t// out\n        /* \"#utility.yul\":90:208   */\n    tag_33:\n        /* \"#utility.yul\":177:201   */\n      tag_42\n        /* \"#utility.yul\":195:200   */\n      dup2\n        /* \"#utility.yul\":177:201   */\n      tag_32\n      jump\t// in\n    tag_42:\n        /* \"#utility.yul\":172:175   */\n      dup3\n        /* \"#utility.yul\":165:202   */\n      mstore\n        /* \"#utility.yul\":90:208   */\n      pop\n      pop\n      jump\t// out\n        /* \"#utility.yul\":214:436   */\n    tag_11:\n        /* \"#utility.yul\":307:311   */\n      0x00\n        /* \"#utility.yul\":345:347   */\n      0x20\n        /* \"#utility.yul\":334:343   */\n      dup3\n        /* \"#utility.yul\":330:348   */\n      add\n        /* \"#utility.yul\":322:348   */\n      swap1\n      pop\n        /* \"#utility.yul\":358:429   */\n      tag_44\n        /* \"#utility.yul\":426:427   */\n      0x00\n        /* \"#utility.yul\":415:424   */\n      dup4\n        /* \"#utility.yul\":411:428   */\n      add\n        /* \"#utility.yul\":402:408   */\n      dup5\n        /* \"#utility.yul\":358:429   */\n      tag_33\n      jump\t// in\n    tag_44:\n        /* \"#utility.yul\":214:436   */\n      swap3\n      swap2\n      pop\n      pop\n      jump\t// out\n        /* \"#utility.yul\":442:541   */\n    tag_34:\n        /* \"#utility.yul\":494:500   */\n      0x00\n        /* \"#utility.yul\":528:533   */\n      dup2\n        /* \"#utility.yul\":522:534   */\n      mload\n        /* \"#utility.yul\":512:534   */\n      swap1\n      pop\n        /* \"#utility.yul\":442:541   */\n      swap2\n      swap1\n      pop\n      jump\t// out\n        /* \"#utility.yul\":547:716   */\n    tag_35:\n        /* \"#utility.yul\":631:642   */\n      0x00\n        /* \"#utility.yul\":665:671   */\n      dup3\n        /* \"#utility.yul\":660:663   */\n      dup3\n        /* \"#utility.yul\":653:672   */\n      mstore\n        /* \"#utility.yul\":705:709   */\n      0x20\n        /* \"#utility.yul\":700:703   */\n      dup3\n        /* \"#utility.yul\":696:710   */\n      add\n        /* \"#utility.yul\":681:710   */\n      swap1\n      pop\n        /* \"#utility.yul\":547:716   */\n      swap3\n      swap2\n      pop\n      pop\n      jump\t// out\n        /* \"#utility.yul\":722:861   */\n    tag_36:\n        /* \"#utility.yul\":811:817   */\n      dup3\n        /* \"#utility.yul\":806:809   */\n      dup2\n        /* \"#utility.yul\":801:804   */\n      dup4\n        /* \"#utility.yul\":795:818   */\n      mcopy\n        /* \"#utility.yul\":852:853   */\n      0x00\n        /* \"#utility.yul\":843:849   */\n      dup4\n        /* \"#utility.yul\":838:841   */\n      dup4\n        /* \"#utility.yul\":834:850   */\n      add\n        /* \"#utility.yul\":827:854   */\n      mstore\n        /* \"#utility.yul\":722:861   */\n      pop\n      pop\n      pop\n      jump\t// out\n        /* \"#utility.yul\":867:969   */\n    tag_37:\n        /* \"#utility.yul\":908:914   */\n      0x00\n        /* \"#utility.yul\":959:961   */\n      0x1f\n        /* \"#utility.yul\":955:962   */\n      not\n        /* \"#utility.yul\":950:952   */\n      0x1f\n        /* \"#utility.yul\":943:948   */\n      dup4\n        /* \"#utility.yul\":939:953   */\n      add\n        /* \"#utility.yul\":935:963   */\n      and\n        /* \"#utility.yul\":925:963   */\n      swap1\n      pop\n        /* \"#utility.yul\":867:969   */\n      swap2\n      swap1\n      pop\n      jump\t// out\n        /* \"#utility.yul\":975:1352   */\n    tag_38:\n        /* \"#utility.yul\":1063:1066   */\n      0x00\n        /* \"#utility.yul\":1091:1130   */\n      tag_50\n        /* \"#utility.yul\":1124:1129   */\n      dup3\n        /* \"#utility.yul\":1091:1130   */\n      tag_34\n      jump\t// in\n    tag_50:\n        /* \"#utility.yul\":1146:1217   */\n      tag_51\n        /* \"#utility.yul\":1210:1216   */\n      dup2\n        /* \"#utility.yul\":1205:1208   */\n      dup6\n        /* \"#utility.yul\":1146:1217   */\n      tag_35\n      jump\t// in\n    tag_51:\n        /* \"#utility.yul\":1139:1217   */\n      swap4\n      pop\n        /* \"#utility.yul\":1226:1291   */\n      tag_52\n        /* \"#utility.yul\":1284:1290   */\n      dup2\n        /* \"#utility.yul\":1279:1282   */\n      dup6\n        /* \"#utility.yul\":1272:1276   */\n      0x20\n        /* \"#utility.yul\":1265:1270   */\n      dup7\n        /* \"#utility.yul\":1261:1277   */\n      add\n        /* \"#utility.yul\":1226:1291   */\n      tag_36\n      jump\t// in\n    tag_52:\n        /* \"#utility.yul\":1316:1345   */\n      tag_53\n        /* \"#utility.yul\":1338:1344   */\n      dup2\n        /* \"#utility.yul\":1316:1345   */\n      tag_37\n      jump\t// in\n    tag_53:\n        /* \"#utility.yul\":1311:1314   */\n      dup5\n        /* \"#utility.yul\":1307:1346   */\n      add\n        /* \"#utility.yul\":1300:1346   */\n      swap2\n      pop\n        /* \"#utility.yul\":1067:1352   */\n      pop\n        /* \"#utility.yul\":975:1352   */\n      swap3\n      swap2\n      pop\n      pop\n      jump\t// out\n        /* \"#utility.yul\":1358:1671   */\n    tag_15:\n        /* \"#utility.yul\":1471:1475   */\n      0x00\n        /* \"#utility.yul\":1509:1511   */\n      0x20\n        /* \"#utility.yul\":1498:1507   */\n      dup3\n        /* \"#utility.yul\":1494:1512   */\n      add\n        /* \"#utility.yul\":1486:1512   */\n      swap1\n      pop\n        /* \"#utility.yul\":1558:1567   */\n      dup2\n        /* \"#utility.yul\":1552:1556   */\n      dup2\n        /* \"#utility.yul\":1548:1568   */\n      sub\n        /* \"#utility.yul\":1544:1545   */\n      0x00\n        /* \"#utility.yul\":1533:1542   */\n      dup4\n        /* \"#utility.yul\":1529:1546   */\n      add\n        /* \"#utility.yul\":1522:1569   */\n      mstore\n        /* \"#utility.yul\":1586:1664   */\n      tag_55\n        /* \"#utility.yul\":1659:1663   */\n      dup2\n        /* \"#utility.yul\":1650:1656   */\n      dup5\n        /* \"#utility.yul\":1586:1664   */\n      tag_38\n      jump\t// in\n    tag_55:\n        /* \"#utility.yul\":1578:1664   */\n      swap1\n      pop\n        /* \"#utility.yul\":1358:1671   */\n      swap3\n      swap2\n      pop\n      pop\n      jump\t// out\n\n    auxdata: 0xa264697066735822122019e371ce15798598f5b9abb6948f87213e78790cd2b6f59ae26c4d7cde5ded4c64736f6c634300081e0033\n}\n",
				"bytecode": {
					"linkReferences": {},
					"object": "608060405260645f5560c860015561012c600255348015601d575f5ffd5b506102ba8061002b5f395ff3fe608060405234801561000f575f5ffd5b5060043610610055575f3560e01c80631151fad8146100595780633a32b549146100775780635cd7815b1461009557806374d47d20146100b35780637b5d520b146100d1575b5f5ffd5b6100616100ef565b60405161006e91906101db565b60405180910390f35b61007f6100f4565b60405161008c9190610264565b60405180910390f35b61009d610131565b6040516100aa9190610264565b60405180910390f35b6100bb610140565b6040516100c891906101db565b60405180910390f35b6100d9610149565b6040516100e69190610264565b60405180910390f35b5f5481565b60606040518060400160405280601e81526020017f48616e7961206269736120646970616e6767696c2064617269206c7561720000815250905090565b606061013b610186565b905090565b5f600154905090565b60606040518060400160405280601681526020017f53656d756120626973612070616e6767696c20696e6900000000000000000000815250905090565b60606040518060400160405280601481526020017f48616e796120756e74756b20696e7465726e616c000000000000000000000000815250905090565b5f819050919050565b6101d5816101c3565b82525050565b5f6020820190506101ee5f8301846101cc565b92915050565b5f81519050919050565b5f82825260208201905092915050565b8281835e5f83830152505050565b5f601f19601f8301169050919050565b5f610236826101f4565b61024081856101fe565b935061025081856020860161020e565b6102598161021c565b840191505092915050565b5f6020820190508181035f83015261027c818461022c565b90509291505056fea264697066735822122019e371ce15798598f5b9abb6948f87213e78790cd2b6f59ae26c4d7cde5ded4c64736f6c634300081e0033",
					"opcodes": "PUSH1 0x80 PUSH1 0x40 MSTORE PUSH1 0x64 PUSH0 SSTORE PUSH1 0xC8 PUSH1 0x1 SSTORE PUSH2 0x12C PUSH1 0x2 SSTORE CALLVALUE DUP1 ISZERO PUSH1 0x1D JUMPI PUSH0 PUSH0 REVERT JUMPDEST POP PUSH2 0x2BA DUP1 PUSH2 0x2B PUSH0 CODECOPY PUSH0 RETURN INVALID PUSH1 0x80 PUSH1 0x40 MSTORE CALLVALUE DUP1 ISZERO PUSH2 0xF JUMPI PUSH0 PUSH0 REVERT JUMPDEST POP PUSH1 0x4 CALLDATASIZE LT PUSH2 0x55 JUMPI PUSH0 CALLDATALOAD PUSH1 0xE0 SHR DUP1 PUSH4 0x1151FAD8 EQ PUSH2 0x59 JUMPI DUP1 PUSH4 0x3A32B549 EQ PUSH2 0x77 JUMPI DUP1 PUSH4 0x5CD7815B EQ PUSH2 0x95 JUMPI DUP1 PUSH4 0x74D47D20 EQ PUSH2 0xB3 JUMPI DUP1 PUSH4 0x7B5D520B EQ PUSH2 0xD1 JUMPI JUMPDEST PUSH0 PUSH0 REVERT JUMPDEST PUSH2 0x61 PUSH2 0xEF JUMP JUMPDEST PUSH1 0x40 MLOAD PUSH2 0x6E SWAP2 SWAP1 PUSH2 0x1DB JUMP JUMPDEST PUSH1 0x40 MLOAD DUP1 SWAP2 SUB SWAP1 RETURN JUMPDEST PUSH2 0x7F PUSH2 0xF4 JUMP JUMPDEST PUSH1 0x40 MLOAD PUSH2 0x8C SWAP2 SWAP1 PUSH2 0x264 JUMP JUMPDEST PUSH1 0x40 MLOAD DUP1 SWAP2 SUB SWAP1 RETURN JUMPDEST PUSH2 0x9D PUSH2 0x131 JUMP JUMPDEST PUSH1 0x40 MLOAD PUSH2 0xAA SWAP2 SWAP1 PUSH2 0x264 JUMP JUMPDEST PUSH1 0x40 MLOAD DUP1 SWAP2 SUB SWAP1 RETURN JUMPDEST PUSH2 0xBB PUSH2 0x140 JUMP JUMPDEST PUSH1 0x40 MLOAD PUSH2 0xC8 SWAP2 SWAP1 PUSH2 0x1DB JUMP JUMPDEST PUSH1 0x40 MLOAD DUP1 SWAP2 SUB SWAP1 RETURN JUMPDEST PUSH2 0xD9 PUSH2 0x149 JUMP JUMPDEST PUSH1 0x40 MLOAD PUSH2 0xE6 SWAP2 SWAP1 PUSH2 0x264 JUMP JUMPDEST PUSH1 0x40 MLOAD DUP1 SWAP2 SUB SWAP1 RETURN JUMPDEST PUSH0 SLOAD DUP2 JUMP JUMPDEST PUSH1 0x60 PUSH1 0x40 MLOAD DUP1 PUSH1 0x40 ADD PUSH1 0x40 MSTORE DUP1 PUSH1 0x1E DUP2 MSTORE PUSH1 0x20 ADD PUSH32 0x48616E7961206269736120646970616E6767696C2064617269206C7561720000 DUP2 MSTORE POP SWAP1 POP SWAP1 JUMP JUMPDEST PUSH1 0x60 PUSH2 0x13B PUSH2 0x186 JUMP JUMPDEST SWAP1 POP SWAP1 JUMP JUMPDEST PUSH0 PUSH1 0x1 SLOAD SWAP1 POP SWAP1 JUMP JUMPDEST PUSH1 0x60 PUSH1 0x40 MLOAD DUP1 PUSH1 0x40 ADD PUSH1 0x40 MSTORE DUP1 PUSH1 0x16 DUP2 MSTORE PUSH1 0x20 ADD PUSH32 0x53656D756120626973612070616E6767696C20696E6900000000000000000000 DUP2 MSTORE POP SWAP1 POP SWAP1 JUMP JUMPDEST PUSH1 0x60 PUSH1 0x40 MLOAD DUP1 PUSH1 0x40 ADD PUSH1 0x40 MSTORE DUP1 PUSH1 0x14 DUP2 MSTORE PUSH1 0x20 ADD PUSH32 0x48616E796120756E74756B20696E7465726E616C000000000000000000000000 DUP2 MSTORE POP SWAP1 POP SWAP1 JUMP JUMPDEST PUSH0 DUP2 SWAP1 POP SWAP2 SWAP1 POP JUMP JUMPDEST PUSH2 0x1D5 DUP2 PUSH2 0x1C3 JUMP JUMPDEST DUP3 MSTORE POP POP JUMP JUMPDEST PUSH0 PUSH1 0x20 DUP3 ADD SWAP1 POP PUSH2 0x1EE PUSH0 DUP4 ADD DUP5 PUSH2 0x1CC JUMP JUMPDEST SWAP3 SWAP2 POP POP JUMP JUMPDEST PUSH0 DUP2 MLOAD SWAP1 POP SWAP2 SWAP1 POP JUMP JUMPDEST PUSH0 DUP3 DUP3 MSTORE PUSH1 0x20 DUP3 ADD SWAP1 POP SWAP3 SWAP2 POP POP JUMP JUMPDEST DUP3 DUP2 DUP4 MCOPY PUSH0 DUP4 DUP4 ADD MSTORE POP POP POP JUMP JUMPDEST PUSH0 PUSH1 0x1F NOT PUSH1 0x1F DUP4 ADD AND SWAP1 POP SWAP2 SWAP1 POP JUMP JUMPDEST PUSH0 PUSH2 0x236 DUP3 PUSH2 0x1F4 JUMP JUMPDEST PUSH2 0x240 DUP2 DUP6 PUSH2 0x1FE JUMP JUMPDEST SWAP4 POP PUSH2 0x250 DUP2 DUP6 PUSH1 0x20 DUP7 ADD PUSH2 0x20E JUMP JUMPDEST PUSH2 0x259 DUP2 PUSH2 0x21C JUMP JUMPDEST DUP5 ADD SWAP2 POP POP SWAP3 SWAP2 POP POP JUMP JUMPDEST PUSH0 PUSH1 0x20 DUP3 ADD SWAP1 POP DUP2 DUP2 SUB PUSH0 DUP4 ADD MSTORE PUSH2 0x27C DUP2 DUP5 PUSH2 0x22C JUMP JUMPDEST SWAP1 POP SWAP3 SWAP2 POP POP JUMP INVALID LOG2 PUSH5 0x6970667358 0x22 SLT KECCAK256 NOT CALLF 0x71CE ISZERO PUSH26 0x8598F5B9ABB6948F87213E78790CD2B6F59AE26C4D7CDE5DED4C PUSH5 0x736F6C6343 STOP ADDMOD 0x1E STOP CALLER "
				},
				"gasEstimates": {
					"creation": {
						"codeDepositCost": "139600",
						"executionCost": "66498",
						"totalCost": "206098"
					},
					"external": {
						"externalFunction()": "infinite",
						"getPrivateVar()": "2476",
						"publicFunction()": "infinite",
						"publicVar()": "2402",
						"testInternalCall()": "infinite"
					},
					"internal": {
						"internalFunction()": "infinite",
						"privateFunction()": "infinite"
					}
				},
				"methodIdentifiers": {
					"externalFunction()": "3a32b549",
					"getPrivateVar()": "74d47d20",
					"publicFunction()": "7b5d520b",
					"publicVar()": "1151fad8",
					"testInternalCall()": "5cd7815b"
				}
			},
			"storageLayout": {
				"storage": [
					{
						"astId": 4,
						"contract": "sesi-1-liskgarden/contracts/17-LearnVisibility.sol:LearnVisibility",
						"label": "publicVar",
						"offset": 0,
						"slot": "0",
						"type": "t_uint256"
					},
					{
						"astId": 7,
						"contract": "sesi-1-liskgarden/contracts/17-LearnVisibility.sol:LearnVisibility",
						"label": "privateVar",
						"offset": 0,
						"slot": "1",
						"type": "t_uint256"
					},
					{
						"astId": 10,
						"contract": "sesi-1-liskgarden/contracts/17-LearnVisibility.sol:LearnVisibility",
						"label": "internalVar",
						"offset": 0,
						"slot": "2",
						"type": "t_uint256"
					}
				],
				"types": {
					"t_uint256": {
						"encoding": "inplace",
						"label": "uint256",
						"numberOfBytes": "32"
					}
				}
			},
			"userdoc": {
				"kind": "user",
				"methods": {},
				"version": 1
			}
		}
	}
}